{
	"contracts/BDTFundMe.sol": {
		"BDTFundMe": {
			"abi": [
				{
					"inputs": [],
					"stateMutability": "nonpayable",
					"type": "constructor"
				},
				{
					"inputs": [],
					"name": "Fund",
					"outputs": [],
					"stateMutability": "payable",
					"type": "function"
				},
				{
					"inputs": [
						{
							"internalType": "address",
							"name": "",
							"type": "address"
						}
					],
					"name": "addressToAmountFunded",
					"outputs": [
						{
							"internalType": "uint256",
							"name": "",
							"type": "uint256"
						}
					],
					"stateMutability": "view",
					"type": "function"
				},
				{
					"inputs": [
						{
							"internalType": "uint256",
							"name": "",
							"type": "uint256"
						}
					],
					"name": "funders",
					"outputs": [
						{
							"internalType": "address",
							"name": "",
							"type": "address"
						}
					],
					"stateMutability": "view",
					"type": "function"
				},
				{
					"inputs": [
						{
							"internalType": "uint256",
							"name": "ethAmount",
							"type": "uint256"
						}
					],
					"name": "getConversionRate",
					"outputs": [
						{
							"internalType": "uint256",
							"name": "",
							"type": "uint256"
						}
					],
					"stateMutability": "view",
					"type": "function"
				},
				{
					"inputs": [],
					"name": "getPrice",
					"outputs": [
						{
							"internalType": "uint256",
							"name": "",
							"type": "uint256"
						}
					],
					"stateMutability": "view",
					"type": "function"
				},
				{
					"inputs": [],
					"name": "getVersion",
					"outputs": [
						{
							"internalType": "uint256",
							"name": "",
							"type": "uint256"
						}
					],
					"stateMutability": "view",
					"type": "function"
				},
				{
					"inputs": [],
					"name": "owner",
					"outputs": [
						{
							"internalType": "address",
							"name": "",
							"type": "address"
						}
					],
					"stateMutability": "view",
					"type": "function"
				},
				{
					"inputs": [],
					"name": "withdraw",
					"outputs": [],
					"stateMutability": "payable",
					"type": "function"
				}
			],
			"devdoc": {
				"kind": "dev",
				"methods": {},
				"version": 1
			},
			"evm": {
				"assembly": "    /* \"contracts/BDTFundMe.sol\":542:5347  contract BDTFundMe{//PNB: So here now we can fund a certain account, i.e. 'addressToAmountFunded' with our GWEI value... */\n  mstore(0x40, 0x80)\n    /* \"contracts/BDTFundMe.sol\":783:919  constructor () {... */\n  callvalue\n  dup1\n  iszero\n  tag_1\n  jumpi\n  0x00\n  dup1\n  revert\ntag_1:\n  pop\n    /* \"contracts/BDTFundMe.sol\":812:822  msg.sender */\n  caller\n    /* \"contracts/BDTFundMe.sol\":804:809  owner */\n  0x02\n  0x00\n    /* \"contracts/BDTFundMe.sol\":804:822  owner = msg.sender */\n  0x0100\n  exp\n  dup2\n  sload\n  dup2\n  0xffffffffffffffffffffffffffffffffffffffff\n  mul\n  not\n  and\n  swap1\n  dup4\n  0xffffffffffffffffffffffffffffffffffffffff\n  and\n  mul\n  or\n  swap1\n  sstore\n  pop\n    /* \"contracts/BDTFundMe.sol\":542:5347  contract BDTFundMe{//PNB: So here now we can fund a certain account, i.e. 'addressToAmountFunded' with our GWEI value... */\n  dataSize(sub_0)\n  dup1\n  dataOffset(sub_0)\n  0x00\n  codecopy\n  0x00\n  return\nstop\n\nsub_0: assembly {\n        /* \"contracts/BDTFundMe.sol\":542:5347  contract BDTFundMe{//PNB: So here now we can fund a certain account, i.e. 'addressToAmountFunded' with our GWEI value... */\n      mstore(0x40, 0x80)\n      jumpi(tag_1, lt(calldatasize, 0x04))\n      shr(0xe0, calldataload(0x00))\n      dup1\n      0x6e5b6b28\n      gt\n      tag_10\n      jumpi\n      dup1\n      0x6e5b6b28\n      eq\n      tag_6\n      jumpi\n      dup1\n      0x8da5cb5b\n      eq\n      tag_7\n      jumpi\n      dup1\n      0x98d5fdca\n      eq\n      tag_8\n      jumpi\n      dup1\n      0xdc0d3dff\n      eq\n      tag_9\n      jumpi\n      jump(tag_1)\n    tag_10:\n      dup1\n      0x0d8e6e2c\n      eq\n      tag_2\n      jumpi\n      dup1\n      0x3ccfd60b\n      eq\n      tag_3\n      jumpi\n      dup1\n      0x3e47d6f3\n      eq\n      tag_4\n      jumpi\n      dup1\n      0x6ce1417e\n      eq\n      tag_5\n      jumpi\n    tag_1:\n      0x00\n      dup1\n      revert\n        /* \"contracts/BDTFundMe.sol\":3012:3513  function getVersion() public view returns (uint256){//this function calls the 'version()' function defined in the 'AggregatorV3Interface' contract... */\n    tag_2:\n      callvalue\n      dup1\n      iszero\n      tag_11\n      jumpi\n      0x00\n      dup1\n      revert\n    tag_11:\n      pop\n      tag_12\n      tag_13\n      jump\t// in\n    tag_12:\n      mload(0x40)\n      tag_14\n      swap2\n      swap1\n      tag_15\n      jump\t// in\n    tag_14:\n      mload(0x40)\n      dup1\n      swap2\n      sub\n      swap1\n      return\n        /* \"contracts/BDTFundMe.sol\":2105:3006  function withdraw() public onlyOwner payable {// to withdraw ETH funds from an address/account... */\n    tag_3:\n      tag_16\n      tag_17\n      jump\t// in\n    tag_16:\n      stop\n        /* \"contracts/BDTFundMe.sol\":664:720  mapping(address => uint256) public addressToAmountFunded */\n    tag_4:\n      callvalue\n      dup1\n      iszero\n      tag_18\n      jumpi\n      0x00\n      dup1\n      revert\n    tag_18:\n      pop\n      tag_19\n      0x04\n      dup1\n      calldatasize\n      sub\n      dup2\n      add\n      swap1\n      tag_20\n      swap2\n      swap1\n      tag_21\n      jump\t// in\n    tag_20:\n      tag_22\n      jump\t// in\n    tag_19:\n      mload(0x40)\n      tag_23\n      swap2\n      swap1\n      tag_15\n      jump\t// in\n    tag_23:\n      mload(0x40)\n      dup1\n      swap2\n      sub\n      swap1\n      return\n        /* \"contracts/BDTFundMe.sol\":925:1731  function Fund () public payable {//to send ETH funds to an address/account... */\n    tag_5:\n      tag_24\n      tag_25\n      jump\t// in\n    tag_24:\n      stop\n        /* \"contracts/BDTFundMe.sol\":4816:5345  function getConversionRate(uint256 ethAmount) public view returns (uint256){//to convert the amount sent to USD... */\n    tag_6:\n      callvalue\n      dup1\n      iszero\n      tag_26\n      jumpi\n      0x00\n      dup1\n      revert\n    tag_26:\n      pop\n      tag_27\n      0x04\n      dup1\n      calldatasize\n      sub\n      dup2\n      add\n      swap1\n      tag_28\n      swap2\n      swap1\n      tag_29\n      jump\t// in\n    tag_28:\n      tag_30\n      jump\t// in\n    tag_27:\n      mload(0x40)\n      tag_31\n      swap2\n      swap1\n      tag_15\n      jump\t// in\n    tag_31:\n      mload(0x40)\n      dup1\n      swap2\n      sub\n      swap1\n      return\n        /* \"contracts/BDTFundMe.sol\":756:776  address public owner */\n    tag_7:\n      callvalue\n      dup1\n      iszero\n      tag_32\n      jumpi\n      0x00\n      dup1\n      revert\n    tag_32:\n      pop\n      tag_33\n      tag_34\n      jump\t// in\n    tag_33:\n      mload(0x40)\n      tag_35\n      swap2\n      swap1\n      tag_36\n      jump\t// in\n    tag_35:\n      mload(0x40)\n      dup1\n      swap2\n      sub\n      swap1\n      return\n        /* \"contracts/BDTFundMe.sol\":3519:4751  function getPrice() public view returns (uint256){//this function calls the 'latestRoundData()' function defined in the 'AggregatorV3Interface' contract... */\n    tag_8:\n      callvalue\n      dup1\n      iszero\n      tag_37\n      jumpi\n      0x00\n      dup1\n      revert\n    tag_37:\n      pop\n      tag_38\n      tag_39\n      jump\t// in\n    tag_38:\n      mload(0x40)\n      tag_40\n      swap2\n      swap1\n      tag_15\n      jump\t// in\n    tag_40:\n      mload(0x40)\n      dup1\n      swap2\n      sub\n      swap1\n      return\n        /* \"contracts/BDTFundMe.sol\":726:750  address[] public funders */\n    tag_9:\n      callvalue\n      dup1\n      iszero\n      tag_41\n      jumpi\n      0x00\n      dup1\n      revert\n    tag_41:\n      pop\n      tag_42\n      0x04\n      dup1\n      calldatasize\n      sub\n      dup2\n      add\n      swap1\n      tag_43\n      swap2\n      swap1\n      tag_29\n      jump\t// in\n    tag_43:\n      tag_44\n      jump\t// in\n    tag_42:\n      mload(0x40)\n      tag_45\n      swap2\n      swap1\n      tag_36\n      jump\t// in\n    tag_45:\n      mload(0x40)\n      dup1\n      swap2\n      sub\n      swap1\n      return\n        /* \"contracts/BDTFundMe.sol\":3012:3513  function getVersion() public view returns (uint256){//this function calls the 'version()' function defined in the 'AggregatorV3Interface' contract... */\n    tag_13:\n        /* \"contracts/BDTFundMe.sol\":3055:3062  uint256 */\n      0x00\n        /* \"contracts/BDTFundMe.sol\":3167:3198  AggregatorV3Interface priceFeed */\n      dup1\n        /* \"contracts/BDTFundMe.sol\":3223:3265  0xc630c6bFF4d198F30d9Ab86F89FB83F0bc3fb948 */\n      0xc630c6bff4d198f30d9ab86f89fb83f0bc3fb948\n        /* \"contracts/BDTFundMe.sol\":3167:3266  AggregatorV3Interface priceFeed = AggregatorV3Interface(0xc630c6bFF4d198F30d9Ab86F89FB83F0bc3fb948) */\n      swap1\n      pop\n        /* \"contracts/BDTFundMe.sol\":3487:3496  priceFeed */\n      dup1\n        /* \"contracts/BDTFundMe.sol\":3487:3504  priceFeed.version */\n      0xffffffffffffffffffffffffffffffffffffffff\n      and\n      0x54fd4d50\n        /* \"contracts/BDTFundMe.sol\":3487:3506  priceFeed.version() */\n      mload(0x40)\n      dup2\n      0xffffffff\n      and\n      0xe0\n      shl\n      dup2\n      mstore\n      0x04\n      add\n      0x20\n      mload(0x40)\n      dup1\n      dup4\n      sub\n      dup2\n      dup7\n      gas\n      staticcall\n      iszero\n      dup1\n      iszero\n      tag_48\n      jumpi\n      returndatasize\n      0x00\n      dup1\n      returndatacopy\n      revert(0x00, returndatasize)\n    tag_48:\n      pop\n      pop\n      pop\n      pop\n      mload(0x40)\n      returndatasize\n      not(0x1f)\n      0x1f\n      dup3\n      add\n      and\n      dup3\n      add\n      dup1\n      0x40\n      mstore\n      pop\n      dup2\n      add\n      swap1\n      tag_49\n      swap2\n      swap1\n      tag_50\n      jump\t// in\n    tag_49:\n        /* \"contracts/BDTFundMe.sol\":3480:3506  return priceFeed.version() */\n      swap2\n      pop\n      pop\n        /* \"contracts/BDTFundMe.sol\":3012:3513  function getVersion() public view returns (uint256){//this function calls the 'version()' function defined in the 'AggregatorV3Interface' contract... */\n      swap1\n      jump\t// out\n        /* \"contracts/BDTFundMe.sol\":2105:3006  function withdraw() public onlyOwner payable {// to withdraw ETH funds from an address/account... */\n    tag_17:\n        /* \"contracts/BDTFundMe.sol\":1911:1916  owner */\n      0x02\n      0x00\n      swap1\n      sload\n      swap1\n      0x0100\n      exp\n      swap1\n      div\n      0xffffffffffffffffffffffffffffffffffffffff\n      and\n        /* \"contracts/BDTFundMe.sol\":1897:1916  msg.sender == owner */\n      0xffffffffffffffffffffffffffffffffffffffff\n      and\n        /* \"contracts/BDTFundMe.sol\":1897:1907  msg.sender */\n      caller\n        /* \"contracts/BDTFundMe.sol\":1897:1916  msg.sender == owner */\n      0xffffffffffffffffffffffffffffffffffffffff\n      and\n      eq\n        /* \"contracts/BDTFundMe.sol\":1889:1917  require(msg.sender == owner) */\n      tag_52\n      jumpi\n      0x00\n      dup1\n      revert\n    tag_52:\n        /* \"contracts/BDTFundMe.sol\":2453:2463  msg.sender */\n      caller\n        /* \"contracts/BDTFundMe.sol\":2445:2473  payable(msg.sender).transfer */\n      0xffffffffffffffffffffffffffffffffffffffff\n      and\n        /* \"contracts/BDTFundMe.sol\":2445:2496  payable(msg.sender).transfer(address(this).balance) */\n      0x08fc\n        /* \"contracts/BDTFundMe.sol\":2474:2495  address(this).balance */\n      selfbalance\n        /* \"contracts/BDTFundMe.sol\":2445:2496  payable(msg.sender).transfer(address(this).balance) */\n      swap1\n      dup2\n      iszero\n      mul\n      swap1\n      mload(0x40)\n      0x00\n      mload(0x40)\n      dup1\n      dup4\n      sub\n      dup2\n      dup6\n      dup9\n      dup9\n      call\n      swap4\n      pop\n      pop\n      pop\n      pop\n      iszero\n      dup1\n      iszero\n      tag_55\n      jumpi\n      returndatasize\n      0x00\n      dup1\n      returndatacopy\n      revert(0x00, returndatasize)\n    tag_55:\n      pop\n        /* \"contracts/BDTFundMe.sol\":2625:2644  uint256 funderIndex */\n      0x00\n        /* \"contracts/BDTFundMe.sol\":2621:2856  for(uint256 funderIndex=0; funderIndex < funders.length; funderIndex++){//setting amount to zero after withdrawing from funders... */\n    tag_56:\n        /* \"contracts/BDTFundMe.sol\":2662:2669  funders */\n      0x01\n        /* \"contracts/BDTFundMe.sol\":2662:2676  funders.length */\n      dup1\n      sload\n      swap1\n      pop\n        /* \"contracts/BDTFundMe.sol\":2648:2659  funderIndex */\n      dup2\n        /* \"contracts/BDTFundMe.sol\":2648:2676  funderIndex < funders.length */\n      lt\n        /* \"contracts/BDTFundMe.sol\":2621:2856  for(uint256 funderIndex=0; funderIndex < funders.length; funderIndex++){//setting amount to zero after withdrawing from funders... */\n      iszero\n      tag_57\n      jumpi\n        /* \"contracts/BDTFundMe.sol\":2761:2775  address funder */\n      0x00\n        /* \"contracts/BDTFundMe.sol\":2778:2785  funders */\n      0x01\n        /* \"contracts/BDTFundMe.sol\":2786:2797  funderIndex */\n      dup3\n        /* \"contracts/BDTFundMe.sol\":2778:2798  funders[funderIndex] */\n      dup2\n      sload\n      dup2\n      lt\n      tag_59\n      jumpi\n      tag_60\n      tag_61\n      jump\t// in\n    tag_60:\n    tag_59:\n      swap1\n      0x00\n      mstore\n      keccak256(0x00, 0x20)\n      add\n      0x00\n      swap1\n      sload\n      swap1\n      0x0100\n      exp\n      swap1\n      div\n      0xffffffffffffffffffffffffffffffffffffffff\n      and\n        /* \"contracts/BDTFundMe.sol\":2761:2798  address funder = funders[funderIndex] */\n      swap1\n      pop\n        /* \"contracts/BDTFundMe.sol\":2844:2845  0 */\n      0x00\n        /* \"contracts/BDTFundMe.sol\":2812:2833  addressToAmountFunded */\n      dup1\n        /* \"contracts/BDTFundMe.sol\":2812:2841  addressToAmountFunded[funder] */\n      0x00\n        /* \"contracts/BDTFundMe.sol\":2834:2840  funder */\n      dup4\n        /* \"contracts/BDTFundMe.sol\":2812:2841  addressToAmountFunded[funder] */\n      0xffffffffffffffffffffffffffffffffffffffff\n      and\n      0xffffffffffffffffffffffffffffffffffffffff\n      and\n      dup2\n      mstore\n      0x20\n      add\n      swap1\n      dup2\n      mstore\n      0x20\n      add\n      0x00\n      keccak256\n        /* \"contracts/BDTFundMe.sol\":2812:2845  addressToAmountFunded[funder] = 0 */\n      dup2\n      swap1\n      sstore\n      pop\n        /* \"contracts/BDTFundMe.sol\":2692:2856  {//setting amount to zero after withdrawing from funders... */\n      pop\n        /* \"contracts/BDTFundMe.sol\":2678:2691  funderIndex++ */\n      dup1\n      dup1\n      0x01\n      add\n      swap2\n      pop\n      pop\n        /* \"contracts/BDTFundMe.sol\":2621:2856  for(uint256 funderIndex=0; funderIndex < funders.length; funderIndex++){//setting amount to zero after withdrawing from funders... */\n      jump(tag_56)\n    tag_57:\n      pop\n        /* \"contracts/BDTFundMe.sol\":2889:2890  0 */\n      0x00\n        /* \"contracts/BDTFundMe.sol\":2875:2891  new address[](0) */\n      0xffffffffffffffff\n      dup2\n      gt\n      iszero\n      tag_63\n      jumpi\n      tag_64\n      tag_65\n      jump\t// in\n    tag_64:\n    tag_63:\n      mload(0x40)\n      swap1\n      dup1\n      dup3\n      mstore\n      dup1\n      0x20\n      mul\n      0x20\n      add\n      dup3\n      add\n      0x40\n      mstore\n      dup1\n      iszero\n      tag_66\n      jumpi\n      dup2\n      0x20\n      add\n      0x20\n      dup3\n      mul\n      dup1\n      calldatasize\n      dup4\n      calldatacopy\n      dup1\n      dup3\n      add\n      swap2\n      pop\n      pop\n      swap1\n      pop\n    tag_66:\n      pop\n        /* \"contracts/BDTFundMe.sol\":2865:2872  funders */\n      0x01\n        /* \"contracts/BDTFundMe.sol\":2865:2891  funders = new address[](0) */\n      swap1\n      dup1\n      mload\n      swap1\n      0x20\n      add\n      swap1\n      tag_67\n      swap3\n      swap2\n      swap1\n      tag_68\n      jump\t// in\n    tag_67:\n      pop\n        /* \"contracts/BDTFundMe.sol\":2105:3006  function withdraw() public onlyOwner payable {// to withdraw ETH funds from an address/account... */\n      jump\t// out\n        /* \"contracts/BDTFundMe.sol\":664:720  mapping(address => uint256) public addressToAmountFunded */\n    tag_22:\n      mstore(0x20, 0x00)\n      dup1\n      0x00\n      mstore\n      keccak256(0x00, 0x40)\n      0x00\n      swap2\n      pop\n      swap1\n      pop\n      sload\n      dup2\n      jump\t// out\n        /* \"contracts/BDTFundMe.sol\":925:1731  function Fund () public payable {//to send ETH funds to an address/account... */\n    tag_25:\n        /* \"contracts/BDTFundMe.sol\":1069:1087  uint256 minimumUSD */\n      0x00\n        /* \"contracts/BDTFundMe.sol\":1090:1103  0.03 * 10**18 */\n      0x6a94d74f430000\n        /* \"contracts/BDTFundMe.sol\":1069:1103  uint256 minimumUSD = 0.03 * 10**18 */\n      swap1\n      pop\n        /* \"contracts/BDTFundMe.sol\":1213:1223  minimumUSD */\n      dup1\n        /* \"contracts/BDTFundMe.sol\":1181:1209  getConversionRate(msg.value) */\n      tag_70\n        /* \"contracts/BDTFundMe.sol\":1199:1208  msg.value */\n      callvalue\n        /* \"contracts/BDTFundMe.sol\":1181:1198  getConversionRate */\n      tag_30\n        /* \"contracts/BDTFundMe.sol\":1181:1209  getConversionRate(msg.value) */\n      jump\t// in\n    tag_70:\n        /* \"contracts/BDTFundMe.sol\":1181:1223  getConversionRate(msg.value) >= minimumUSD */\n      lt\n      iszero\n        /* \"contracts/BDTFundMe.sol\":1173:1255  require(getConversionRate(msg.value) >= minimumUSD, \"You need to spend more ETH!\") */\n      tag_71\n      jumpi\n      mload(0x40)\n      0x08c379a000000000000000000000000000000000000000000000000000000000\n      dup2\n      mstore\n      0x04\n      add\n      tag_72\n      swap1\n      tag_73\n      jump\t// in\n    tag_72:\n      mload(0x40)\n      dup1\n      swap2\n      sub\n      swap1\n      revert\n    tag_71:\n        /* \"contracts/BDTFundMe.sol\":1402:1411  msg.value */\n      callvalue\n        /* \"contracts/BDTFundMe.sol\":1365:1386  addressToAmountFunded */\n      0x00\n        /* \"contracts/BDTFundMe.sol\":1365:1398  addressToAmountFunded[msg.sender] */\n      dup1\n        /* \"contracts/BDTFundMe.sol\":1387:1397  msg.sender */\n      caller\n        /* \"contracts/BDTFundMe.sol\":1365:1398  addressToAmountFunded[msg.sender] */\n      0xffffffffffffffffffffffffffffffffffffffff\n      and\n      0xffffffffffffffffffffffffffffffffffffffff\n      and\n      dup2\n      mstore\n      0x20\n      add\n      swap1\n      dup2\n      mstore\n      0x20\n      add\n      0x00\n      keccak256\n      0x00\n        /* \"contracts/BDTFundMe.sol\":1365:1411  addressToAmountFunded[msg.sender] += msg.value */\n      dup3\n      dup3\n      sload\n      tag_74\n      swap2\n      swap1\n      tag_75\n      jump\t// in\n    tag_74:\n      swap3\n      pop\n      pop\n      dup2\n      swap1\n      sstore\n      pop\n        /* \"contracts/BDTFundMe.sol\":1421:1428  funders */\n      0x01\n        /* \"contracts/BDTFundMe.sol\":1434:1444  msg.sender */\n      caller\n        /* \"contracts/BDTFundMe.sol\":1421:1445  funders.push(msg.sender) */\n      swap1\n      dup1\n      0x01\n      dup2\n      sload\n      add\n      dup1\n      dup3\n      sstore\n      dup1\n      swap2\n      pop\n      pop\n      0x01\n      swap1\n      sub\n      swap1\n      0x00\n      mstore\n      keccak256(0x00, 0x20)\n      add\n      0x00\n      swap1\n      swap2\n      swap1\n      swap2\n      swap1\n      swap2\n      0x0100\n      exp\n      dup2\n      sload\n      dup2\n      0xffffffffffffffffffffffffffffffffffffffff\n      mul\n      not\n      and\n      swap1\n      dup4\n      0xffffffffffffffffffffffffffffffffffffffff\n      and\n      mul\n      or\n      swap1\n      sstore\n      pop\n        /* \"contracts/BDTFundMe.sol\":957:1731  {//to send ETH funds to an address/account... */\n      pop\n        /* \"contracts/BDTFundMe.sol\":925:1731  function Fund () public payable {//to send ETH funds to an address/account... */\n      jump\t// out\n        /* \"contracts/BDTFundMe.sol\":4816:5345  function getConversionRate(uint256 ethAmount) public view returns (uint256){//to convert the amount sent to USD... */\n    tag_30:\n        /* \"contracts/BDTFundMe.sol\":4883:4890  uint256 */\n      0x00\n        /* \"contracts/BDTFundMe.sol\":4932:4948  uint256 ethPrice */\n      dup1\n        /* \"contracts/BDTFundMe.sol\":4951:4961  getPrice() */\n      tag_78\n        /* \"contracts/BDTFundMe.sol\":4951:4959  getPrice */\n      tag_39\n        /* \"contracts/BDTFundMe.sol\":4951:4961  getPrice() */\n      jump\t// in\n    tag_78:\n        /* \"contracts/BDTFundMe.sol\":4932:4961  uint256 ethPrice = getPrice() */\n      swap1\n      pop\n        /* \"contracts/BDTFundMe.sol\":4967:4989  uint256 ethAmountInUsd */\n      0x00\n        /* \"contracts/BDTFundMe.sol\":5015:5020  10E18 */\n      0x8ac7230489e80000\n        /* \"contracts/BDTFundMe.sol\":5004:5013  ethAmount */\n      dup5\n        /* \"contracts/BDTFundMe.sol\":4993:5001  ethPrice */\n      dup4\n        /* \"contracts/BDTFundMe.sol\":4993:5013  ethPrice * ethAmount */\n      tag_79\n      swap2\n      swap1\n      tag_80\n      jump\t// in\n    tag_79:\n        /* \"contracts/BDTFundMe.sol\":4992:5020  (ethPrice * ethAmount)/10E18 */\n      tag_81\n      swap2\n      swap1\n      tag_82\n      jump\t// in\n    tag_81:\n        /* \"contracts/BDTFundMe.sol\":4967:5020  uint256 ethAmountInUsd = (ethPrice * ethAmount)/10E18 */\n      swap1\n      pop\n        /* \"contracts/BDTFundMe.sol\":5139:5153  ethAmountInUsd */\n      dup1\n        /* \"contracts/BDTFundMe.sol\":5132:5153  return ethAmountInUsd */\n      swap3\n      pop\n      pop\n      pop\n        /* \"contracts/BDTFundMe.sol\":4816:5345  function getConversionRate(uint256 ethAmount) public view returns (uint256){//to convert the amount sent to USD... */\n      swap2\n      swap1\n      pop\n      jump\t// out\n        /* \"contracts/BDTFundMe.sol\":756:776  address public owner */\n    tag_34:\n      0x02\n      0x00\n      swap1\n      sload\n      swap1\n      0x0100\n      exp\n      swap1\n      div\n      0xffffffffffffffffffffffffffffffffffffffff\n      and\n      dup2\n      jump\t// out\n        /* \"contracts/BDTFundMe.sol\":3519:4751  function getPrice() public view returns (uint256){//this function calls the 'latestRoundData()' function defined in the 'AggregatorV3Interface' contract... */\n    tag_39:\n        /* \"contracts/BDTFundMe.sol\":3560:3567  uint256 */\n      0x00\n        /* \"contracts/BDTFundMe.sol\":3680:3711  AggregatorV3Interface priceFeed */\n      dup1\n        /* \"contracts/BDTFundMe.sol\":3736:3778  0xc630c6bFF4d198F30d9Ab86F89FB83F0bc3fb948 */\n      0xc630c6bff4d198f30d9ab86f89fb83f0bc3fb948\n        /* \"contracts/BDTFundMe.sol\":3680:3779  AggregatorV3Interface priceFeed = AggregatorV3Interface(0xc630c6bFF4d198F30d9Ab86F89FB83F0bc3fb948) */\n      swap1\n      pop\n        /* \"contracts/BDTFundMe.sol\":4167:4180  int256 answer */\n      0x00\n        /* \"contracts/BDTFundMe.sol\":4187:4196  priceFeed */\n      dup2\n        /* \"contracts/BDTFundMe.sol\":4187:4212  priceFeed.latestRoundData */\n      0xffffffffffffffffffffffffffffffffffffffff\n      and\n      0xfeaf968c\n        /* \"contracts/BDTFundMe.sol\":4187:4214  priceFeed.latestRoundData() */\n      mload(0x40)\n      dup2\n      0xffffffff\n      and\n      0xe0\n      shl\n      dup2\n      mstore\n      0x04\n      add\n      0xa0\n      mload(0x40)\n      dup1\n      dup4\n      sub\n      dup2\n      dup7\n      gas\n      staticcall\n      iszero\n      dup1\n      iszero\n      tag_85\n      jumpi\n      returndatasize\n      0x00\n      dup1\n      returndatacopy\n      revert(0x00, returndatasize)\n    tag_85:\n      pop\n      pop\n      pop\n      pop\n      mload(0x40)\n      returndatasize\n      not(0x1f)\n      0x1f\n      dup3\n      add\n      and\n      dup3\n      add\n      dup1\n      0x40\n      mstore\n      pop\n      dup2\n      add\n      swap1\n      tag_86\n      swap2\n      swap1\n      tag_87\n      jump\t// in\n    tag_86:\n        /* \"contracts/BDTFundMe.sol\":4165:4214  (,int256 answer,,,) = priceFeed.latestRoundData() */\n      pop\n      pop\n      pop\n      swap2\n      pop\n      pop\n        /* \"contracts/BDTFundMe.sol\":4655:4666  10000000000 */\n      0x02540be400\n        /* \"contracts/BDTFundMe.sol\":4646:4652  answer */\n      dup2\n        /* \"contracts/BDTFundMe.sol\":4646:4666  answer * 10000000000 */\n      tag_88\n      swap2\n      swap1\n      tag_89\n      jump\t// in\n    tag_88:\n        /* \"contracts/BDTFundMe.sol\":4631:4667  return uint256(answer * 10000000000) */\n      swap3\n      pop\n      pop\n      pop\n        /* \"contracts/BDTFundMe.sol\":3519:4751  function getPrice() public view returns (uint256){//this function calls the 'latestRoundData()' function defined in the 'AggregatorV3Interface' contract... */\n      swap1\n      jump\t// out\n        /* \"contracts/BDTFundMe.sol\":726:750  address[] public funders */\n    tag_44:\n      0x01\n      dup2\n      dup2\n      sload\n      dup2\n      lt\n      tag_90\n      jumpi\n      0x00\n      dup1\n      revert\n    tag_90:\n      swap1\n      0x00\n      mstore\n      keccak256(0x00, 0x20)\n      add\n      0x00\n      swap2\n      pop\n      sload\n      swap1\n      0x0100\n      exp\n      swap1\n      div\n      0xffffffffffffffffffffffffffffffffffffffff\n      and\n      dup2\n      jump\t// out\n    tag_68:\n      dup3\n      dup1\n      sload\n      dup3\n      dup3\n      sstore\n      swap1\n      0x00\n      mstore\n      keccak256(0x00, 0x20)\n      swap1\n      dup2\n      add\n      swap3\n      dup3\n      iszero\n      tag_92\n      jumpi\n      swap2\n      0x20\n      mul\n      dup3\n      add\n    tag_93:\n      dup3\n      dup2\n      gt\n      iszero\n      tag_94\n      jumpi\n      dup3\n      mload\n      dup3\n      exp(0x0100, 0x00)\n      dup2\n      sload\n      dup2\n      0xffffffffffffffffffffffffffffffffffffffff\n      mul\n      not\n      and\n      swap1\n      dup4\n      0xffffffffffffffffffffffffffffffffffffffff\n      and\n      mul\n      or\n      swap1\n      sstore\n      pop\n      swap2\n      0x20\n      add\n      swap2\n      swap1\n      0x01\n      add\n      swap1\n      jump(tag_93)\n    tag_94:\n    tag_92:\n      pop\n      swap1\n      pop\n      tag_95\n      swap2\n      swap1\n      tag_96\n      jump\t// in\n    tag_95:\n      pop\n      swap1\n      jump\t// out\n    tag_96:\n    tag_97:\n      dup1\n      dup3\n      gt\n      iszero\n      tag_98\n      jumpi\n      0x00\n      dup2\n      0x00\n      swap1\n      sstore\n      pop\n      0x01\n      add\n      jump(tag_97)\n    tag_98:\n      pop\n      swap1\n      jump\t// out\n        /* \"#utility.yul\":7:84   */\n    tag_99:\n        /* \"#utility.yul\":44:51   */\n      0x00\n        /* \"#utility.yul\":73:78   */\n      dup2\n        /* \"#utility.yul\":62:78   */\n      swap1\n      pop\n        /* \"#utility.yul\":7:84   */\n      swap2\n      swap1\n      pop\n      jump\t// out\n        /* \"#utility.yul\":90:208   */\n    tag_100:\n        /* \"#utility.yul\":177:201   */\n      tag_126\n        /* \"#utility.yul\":195:200   */\n      dup2\n        /* \"#utility.yul\":177:201   */\n      tag_99\n      jump\t// in\n    tag_126:\n        /* \"#utility.yul\":172:175   */\n      dup3\n        /* \"#utility.yul\":165:202   */\n      mstore\n        /* \"#utility.yul\":90:208   */\n      pop\n      pop\n      jump\t// out\n        /* \"#utility.yul\":214:436   */\n    tag_15:\n        /* \"#utility.yul\":307:311   */\n      0x00\n        /* \"#utility.yul\":345:347   */\n      0x20\n        /* \"#utility.yul\":334:343   */\n      dup3\n        /* \"#utility.yul\":330:348   */\n      add\n        /* \"#utility.yul\":322:348   */\n      swap1\n      pop\n        /* \"#utility.yul\":358:429   */\n      tag_128\n        /* \"#utility.yul\":426:427   */\n      0x00\n        /* \"#utility.yul\":415:424   */\n      dup4\n        /* \"#utility.yul\":411:428   */\n      add\n        /* \"#utility.yul\":402:408   */\n      dup5\n        /* \"#utility.yul\":358:429   */\n      tag_100\n      jump\t// in\n    tag_128:\n        /* \"#utility.yul\":214:436   */\n      swap3\n      swap2\n      pop\n      pop\n      jump\t// out\n        /* \"#utility.yul\":523:640   */\n    tag_102:\n        /* \"#utility.yul\":632:633   */\n      0x00\n        /* \"#utility.yul\":629:630   */\n      dup1\n        /* \"#utility.yul\":622:634   */\n      revert\n        /* \"#utility.yul\":769:895   */\n    tag_104:\n        /* \"#utility.yul\":806:813   */\n      0x00\n        /* \"#utility.yul\":846:888   */\n      0xffffffffffffffffffffffffffffffffffffffff\n        /* \"#utility.yul\":839:844   */\n      dup3\n        /* \"#utility.yul\":835:889   */\n      and\n        /* \"#utility.yul\":824:889   */\n      swap1\n      pop\n        /* \"#utility.yul\":769:895   */\n      swap2\n      swap1\n      pop\n      jump\t// out\n        /* \"#utility.yul\":901:997   */\n    tag_105:\n        /* \"#utility.yul\":938:945   */\n      0x00\n        /* \"#utility.yul\":967:991   */\n      tag_134\n        /* \"#utility.yul\":985:990   */\n      dup3\n        /* \"#utility.yul\":967:991   */\n      tag_104\n      jump\t// in\n    tag_134:\n        /* \"#utility.yul\":956:991   */\n      swap1\n      pop\n        /* \"#utility.yul\":901:997   */\n      swap2\n      swap1\n      pop\n      jump\t// out\n        /* \"#utility.yul\":1003:1125   */\n    tag_106:\n        /* \"#utility.yul\":1076:1100   */\n      tag_136\n        /* \"#utility.yul\":1094:1099   */\n      dup2\n        /* \"#utility.yul\":1076:1100   */\n      tag_105\n      jump\t// in\n    tag_136:\n        /* \"#utility.yul\":1069:1074   */\n      dup2\n        /* \"#utility.yul\":1066:1101   */\n      eq\n        /* \"#utility.yul\":1056:1119   */\n      tag_137\n      jumpi\n        /* \"#utility.yul\":1115:1116   */\n      0x00\n        /* \"#utility.yul\":1112:1113   */\n      dup1\n        /* \"#utility.yul\":1105:1117   */\n      revert\n        /* \"#utility.yul\":1056:1119   */\n    tag_137:\n        /* \"#utility.yul\":1003:1125   */\n      pop\n      jump\t// out\n        /* \"#utility.yul\":1131:1270   */\n    tag_107:\n        /* \"#utility.yul\":1177:1182   */\n      0x00\n        /* \"#utility.yul\":1215:1221   */\n      dup2\n        /* \"#utility.yul\":1202:1222   */\n      calldataload\n        /* \"#utility.yul\":1193:1222   */\n      swap1\n      pop\n        /* \"#utility.yul\":1231:1264   */\n      tag_139\n        /* \"#utility.yul\":1258:1263   */\n      dup2\n        /* \"#utility.yul\":1231:1264   */\n      tag_106\n      jump\t// in\n    tag_139:\n        /* \"#utility.yul\":1131:1270   */\n      swap3\n      swap2\n      pop\n      pop\n      jump\t// out\n        /* \"#utility.yul\":1276:1605   */\n    tag_21:\n        /* \"#utility.yul\":1335:1341   */\n      0x00\n        /* \"#utility.yul\":1384:1386   */\n      0x20\n        /* \"#utility.yul\":1372:1381   */\n      dup3\n        /* \"#utility.yul\":1363:1370   */\n      dup5\n        /* \"#utility.yul\":1359:1382   */\n      sub\n        /* \"#utility.yul\":1355:1387   */\n      slt\n        /* \"#utility.yul\":1352:1471   */\n      iszero\n      tag_141\n      jumpi\n        /* \"#utility.yul\":1390:1469   */\n      tag_142\n      tag_102\n      jump\t// in\n    tag_142:\n        /* \"#utility.yul\":1352:1471   */\n    tag_141:\n        /* \"#utility.yul\":1510:1511   */\n      0x00\n        /* \"#utility.yul\":1535:1588   */\n      tag_143\n        /* \"#utility.yul\":1580:1587   */\n      dup5\n        /* \"#utility.yul\":1571:1577   */\n      dup3\n        /* \"#utility.yul\":1560:1569   */\n      dup6\n        /* \"#utility.yul\":1556:1578   */\n      add\n        /* \"#utility.yul\":1535:1588   */\n      tag_107\n      jump\t// in\n    tag_143:\n        /* \"#utility.yul\":1525:1588   */\n      swap2\n      pop\n        /* \"#utility.yul\":1481:1598   */\n      pop\n        /* \"#utility.yul\":1276:1605   */\n      swap3\n      swap2\n      pop\n      pop\n      jump\t// out\n        /* \"#utility.yul\":1611:1733   */\n    tag_108:\n        /* \"#utility.yul\":1684:1708   */\n      tag_145\n        /* \"#utility.yul\":1702:1707   */\n      dup2\n        /* \"#utility.yul\":1684:1708   */\n      tag_99\n      jump\t// in\n    tag_145:\n        /* \"#utility.yul\":1677:1682   */\n      dup2\n        /* \"#utility.yul\":1674:1709   */\n      eq\n        /* \"#utility.yul\":1664:1727   */\n      tag_146\n      jumpi\n        /* \"#utility.yul\":1723:1724   */\n      0x00\n        /* \"#utility.yul\":1720:1721   */\n      dup1\n        /* \"#utility.yul\":1713:1725   */\n      revert\n        /* \"#utility.yul\":1664:1727   */\n    tag_146:\n        /* \"#utility.yul\":1611:1733   */\n      pop\n      jump\t// out\n        /* \"#utility.yul\":1739:1878   */\n    tag_109:\n        /* \"#utility.yul\":1785:1790   */\n      0x00\n        /* \"#utility.yul\":1823:1829   */\n      dup2\n        /* \"#utility.yul\":1810:1830   */\n      calldataload\n        /* \"#utility.yul\":1801:1830   */\n      swap1\n      pop\n        /* \"#utility.yul\":1839:1872   */\n      tag_148\n        /* \"#utility.yul\":1866:1871   */\n      dup2\n        /* \"#utility.yul\":1839:1872   */\n      tag_108\n      jump\t// in\n    tag_148:\n        /* \"#utility.yul\":1739:1878   */\n      swap3\n      swap2\n      pop\n      pop\n      jump\t// out\n        /* \"#utility.yul\":1884:2213   */\n    tag_29:\n        /* \"#utility.yul\":1943:1949   */\n      0x00\n        /* \"#utility.yul\":1992:1994   */\n      0x20\n        /* \"#utility.yul\":1980:1989   */\n      dup3\n        /* \"#utility.yul\":1971:1978   */\n      dup5\n        /* \"#utility.yul\":1967:1990   */\n      sub\n        /* \"#utility.yul\":1963:1995   */\n      slt\n        /* \"#utility.yul\":1960:2079   */\n      iszero\n      tag_150\n      jumpi\n        /* \"#utility.yul\":1998:2077   */\n      tag_151\n      tag_102\n      jump\t// in\n    tag_151:\n        /* \"#utility.yul\":1960:2079   */\n    tag_150:\n        /* \"#utility.yul\":2118:2119   */\n      0x00\n        /* \"#utility.yul\":2143:2196   */\n      tag_152\n        /* \"#utility.yul\":2188:2195   */\n      dup5\n        /* \"#utility.yul\":2179:2185   */\n      dup3\n        /* \"#utility.yul\":2168:2177   */\n      dup6\n        /* \"#utility.yul\":2164:2186   */\n      add\n        /* \"#utility.yul\":2143:2196   */\n      tag_109\n      jump\t// in\n    tag_152:\n        /* \"#utility.yul\":2133:2196   */\n      swap2\n      pop\n        /* \"#utility.yul\":2089:2206   */\n      pop\n        /* \"#utility.yul\":1884:2213   */\n      swap3\n      swap2\n      pop\n      pop\n      jump\t// out\n        /* \"#utility.yul\":2219:2337   */\n    tag_110:\n        /* \"#utility.yul\":2306:2330   */\n      tag_154\n        /* \"#utility.yul\":2324:2329   */\n      dup2\n        /* \"#utility.yul\":2306:2330   */\n      tag_105\n      jump\t// in\n    tag_154:\n        /* \"#utility.yul\":2301:2304   */\n      dup3\n        /* \"#utility.yul\":2294:2331   */\n      mstore\n        /* \"#utility.yul\":2219:2337   */\n      pop\n      pop\n      jump\t// out\n        /* \"#utility.yul\":2343:2565   */\n    tag_36:\n        /* \"#utility.yul\":2436:2440   */\n      0x00\n        /* \"#utility.yul\":2474:2476   */\n      0x20\n        /* \"#utility.yul\":2463:2472   */\n      dup3\n        /* \"#utility.yul\":2459:2477   */\n      add\n        /* \"#utility.yul\":2451:2477   */\n      swap1\n      pop\n        /* \"#utility.yul\":2487:2558   */\n      tag_156\n        /* \"#utility.yul\":2555:2556   */\n      0x00\n        /* \"#utility.yul\":2544:2553   */\n      dup4\n        /* \"#utility.yul\":2540:2557   */\n      add\n        /* \"#utility.yul\":2531:2537   */\n      dup5\n        /* \"#utility.yul\":2487:2558   */\n      tag_110\n      jump\t// in\n    tag_156:\n        /* \"#utility.yul\":2343:2565   */\n      swap3\n      swap2\n      pop\n      pop\n      jump\t// out\n        /* \"#utility.yul\":2571:2714   */\n    tag_111:\n        /* \"#utility.yul\":2628:2633   */\n      0x00\n        /* \"#utility.yul\":2659:2665   */\n      dup2\n        /* \"#utility.yul\":2653:2666   */\n      mload\n        /* \"#utility.yul\":2644:2666   */\n      swap1\n      pop\n        /* \"#utility.yul\":2675:2708   */\n      tag_158\n        /* \"#utility.yul\":2702:2707   */\n      dup2\n        /* \"#utility.yul\":2675:2708   */\n      tag_108\n      jump\t// in\n    tag_158:\n        /* \"#utility.yul\":2571:2714   */\n      swap3\n      swap2\n      pop\n      pop\n      jump\t// out\n        /* \"#utility.yul\":2720:3071   */\n    tag_50:\n        /* \"#utility.yul\":2790:2796   */\n      0x00\n        /* \"#utility.yul\":2839:2841   */\n      0x20\n        /* \"#utility.yul\":2827:2836   */\n      dup3\n        /* \"#utility.yul\":2818:2825   */\n      dup5\n        /* \"#utility.yul\":2814:2837   */\n      sub\n        /* \"#utility.yul\":2810:2842   */\n      slt\n        /* \"#utility.yul\":2807:2926   */\n      iszero\n      tag_160\n      jumpi\n        /* \"#utility.yul\":2845:2924   */\n      tag_161\n      tag_102\n      jump\t// in\n    tag_161:\n        /* \"#utility.yul\":2807:2926   */\n    tag_160:\n        /* \"#utility.yul\":2965:2966   */\n      0x00\n        /* \"#utility.yul\":2990:3054   */\n      tag_162\n        /* \"#utility.yul\":3046:3053   */\n      dup5\n        /* \"#utility.yul\":3037:3043   */\n      dup3\n        /* \"#utility.yul\":3026:3035   */\n      dup6\n        /* \"#utility.yul\":3022:3044   */\n      add\n        /* \"#utility.yul\":2990:3054   */\n      tag_111\n      jump\t// in\n    tag_162:\n        /* \"#utility.yul\":2980:3054   */\n      swap2\n      pop\n        /* \"#utility.yul\":2936:3064   */\n      pop\n        /* \"#utility.yul\":2720:3071   */\n      swap3\n      swap2\n      pop\n      pop\n      jump\t// out\n        /* \"#utility.yul\":3077:3257   */\n    tag_61:\n        /* \"#utility.yul\":3125:3202   */\n      0x4e487b7100000000000000000000000000000000000000000000000000000000\n        /* \"#utility.yul\":3122:3123   */\n      0x00\n        /* \"#utility.yul\":3115:3203   */\n      mstore\n        /* \"#utility.yul\":3222:3226   */\n      0x32\n        /* \"#utility.yul\":3219:3220   */\n      0x04\n        /* \"#utility.yul\":3212:3227   */\n      mstore\n        /* \"#utility.yul\":3246:3250   */\n      0x24\n        /* \"#utility.yul\":3243:3244   */\n      0x00\n        /* \"#utility.yul\":3236:3251   */\n      revert\n        /* \"#utility.yul\":3263:3443   */\n    tag_65:\n        /* \"#utility.yul\":3311:3388   */\n      0x4e487b7100000000000000000000000000000000000000000000000000000000\n        /* \"#utility.yul\":3308:3309   */\n      0x00\n        /* \"#utility.yul\":3301:3389   */\n      mstore\n        /* \"#utility.yul\":3408:3412   */\n      0x41\n        /* \"#utility.yul\":3405:3406   */\n      0x04\n        /* \"#utility.yul\":3398:3413   */\n      mstore\n        /* \"#utility.yul\":3432:3436   */\n      0x24\n        /* \"#utility.yul\":3429:3430   */\n      0x00\n        /* \"#utility.yul\":3422:3437   */\n      revert\n        /* \"#utility.yul\":3449:3618   */\n    tag_112:\n        /* \"#utility.yul\":3533:3544   */\n      0x00\n        /* \"#utility.yul\":3567:3573   */\n      dup3\n        /* \"#utility.yul\":3562:3565   */\n      dup3\n        /* \"#utility.yul\":3555:3574   */\n      mstore\n        /* \"#utility.yul\":3607:3611   */\n      0x20\n        /* \"#utility.yul\":3602:3605   */\n      dup3\n        /* \"#utility.yul\":3598:3612   */\n      add\n        /* \"#utility.yul\":3583:3612   */\n      swap1\n      pop\n        /* \"#utility.yul\":3449:3618   */\n      swap3\n      swap2\n      pop\n      pop\n      jump\t// out\n        /* \"#utility.yul\":3624:3801   */\n    tag_113:\n        /* \"#utility.yul\":3764:3793   */\n      0x596f75206e65656420746f207370656e64206d6f726520455448210000000000\n        /* \"#utility.yul\":3760:3761   */\n      0x00\n        /* \"#utility.yul\":3752:3758   */\n      dup3\n        /* \"#utility.yul\":3748:3762   */\n      add\n        /* \"#utility.yul\":3741:3794   */\n      mstore\n        /* \"#utility.yul\":3624:3801   */\n      pop\n      jump\t// out\n        /* \"#utility.yul\":3807:4173   */\n    tag_114:\n        /* \"#utility.yul\":3949:3952   */\n      0x00\n        /* \"#utility.yul\":3970:4037   */\n      tag_168\n        /* \"#utility.yul\":4034:4036   */\n      0x1b\n        /* \"#utility.yul\":4029:4032   */\n      dup4\n        /* \"#utility.yul\":3970:4037   */\n      tag_112\n      jump\t// in\n    tag_168:\n        /* \"#utility.yul\":3963:4037   */\n      swap2\n      pop\n        /* \"#utility.yul\":4046:4139   */\n      tag_169\n        /* \"#utility.yul\":4135:4138   */\n      dup3\n        /* \"#utility.yul\":4046:4139   */\n      tag_113\n      jump\t// in\n    tag_169:\n        /* \"#utility.yul\":4164:4166   */\n      0x20\n        /* \"#utility.yul\":4159:4162   */\n      dup3\n        /* \"#utility.yul\":4155:4167   */\n      add\n        /* \"#utility.yul\":4148:4167   */\n      swap1\n      pop\n        /* \"#utility.yul\":3807:4173   */\n      swap2\n      swap1\n      pop\n      jump\t// out\n        /* \"#utility.yul\":4179:4598   */\n    tag_73:\n        /* \"#utility.yul\":4345:4349   */\n      0x00\n        /* \"#utility.yul\":4383:4385   */\n      0x20\n        /* \"#utility.yul\":4372:4381   */\n      dup3\n        /* \"#utility.yul\":4368:4386   */\n      add\n        /* \"#utility.yul\":4360:4386   */\n      swap1\n      pop\n        /* \"#utility.yul\":4432:4441   */\n      dup2\n        /* \"#utility.yul\":4426:4430   */\n      dup2\n        /* \"#utility.yul\":4422:4442   */\n      sub\n        /* \"#utility.yul\":4418:4419   */\n      0x00\n        /* \"#utility.yul\":4407:4416   */\n      dup4\n        /* \"#utility.yul\":4403:4420   */\n      add\n        /* \"#utility.yul\":4396:4443   */\n      mstore\n        /* \"#utility.yul\":4460:4591   */\n      tag_171\n        /* \"#utility.yul\":4586:4590   */\n      dup2\n        /* \"#utility.yul\":4460:4591   */\n      tag_114\n      jump\t// in\n    tag_171:\n        /* \"#utility.yul\":4452:4591   */\n      swap1\n      pop\n        /* \"#utility.yul\":4179:4598   */\n      swap2\n      swap1\n      pop\n      jump\t// out\n        /* \"#utility.yul\":4604:4784   */\n    tag_115:\n        /* \"#utility.yul\":4652:4729   */\n      0x4e487b7100000000000000000000000000000000000000000000000000000000\n        /* \"#utility.yul\":4649:4650   */\n      0x00\n        /* \"#utility.yul\":4642:4730   */\n      mstore\n        /* \"#utility.yul\":4749:4753   */\n      0x11\n        /* \"#utility.yul\":4746:4747   */\n      0x04\n        /* \"#utility.yul\":4739:4754   */\n      mstore\n        /* \"#utility.yul\":4773:4777   */\n      0x24\n        /* \"#utility.yul\":4770:4771   */\n      0x00\n        /* \"#utility.yul\":4763:4778   */\n      revert\n        /* \"#utility.yul\":4790:4981   */\n    tag_75:\n        /* \"#utility.yul\":4830:4833   */\n      0x00\n        /* \"#utility.yul\":4849:4869   */\n      tag_174\n        /* \"#utility.yul\":4867:4868   */\n      dup3\n        /* \"#utility.yul\":4849:4869   */\n      tag_99\n      jump\t// in\n    tag_174:\n        /* \"#utility.yul\":4844:4869   */\n      swap2\n      pop\n        /* \"#utility.yul\":4883:4903   */\n      tag_175\n        /* \"#utility.yul\":4901:4902   */\n      dup4\n        /* \"#utility.yul\":4883:4903   */\n      tag_99\n      jump\t// in\n    tag_175:\n        /* \"#utility.yul\":4878:4903   */\n      swap3\n      pop\n        /* \"#utility.yul\":4926:4927   */\n      dup3\n        /* \"#utility.yul\":4923:4924   */\n      dup3\n        /* \"#utility.yul\":4919:4928   */\n      add\n        /* \"#utility.yul\":4912:4928   */\n      swap1\n      pop\n        /* \"#utility.yul\":4947:4950   */\n      dup1\n        /* \"#utility.yul\":4944:4945   */\n      dup3\n        /* \"#utility.yul\":4941:4951   */\n      gt\n        /* \"#utility.yul\":4938:4974   */\n      iszero\n      tag_176\n      jumpi\n        /* \"#utility.yul\":4954:4972   */\n      tag_177\n      tag_115\n      jump\t// in\n    tag_177:\n        /* \"#utility.yul\":4938:4974   */\n    tag_176:\n        /* \"#utility.yul\":4790:4981   */\n      swap3\n      swap2\n      pop\n      pop\n      jump\t// out\n        /* \"#utility.yul\":4987:5397   */\n    tag_80:\n        /* \"#utility.yul\":5027:5034   */\n      0x00\n        /* \"#utility.yul\":5050:5070   */\n      tag_179\n        /* \"#utility.yul\":5068:5069   */\n      dup3\n        /* \"#utility.yul\":5050:5070   */\n      tag_99\n      jump\t// in\n    tag_179:\n        /* \"#utility.yul\":5045:5070   */\n      swap2\n      pop\n        /* \"#utility.yul\":5084:5104   */\n      tag_180\n        /* \"#utility.yul\":5102:5103   */\n      dup4\n        /* \"#utility.yul\":5084:5104   */\n      tag_99\n      jump\t// in\n    tag_180:\n        /* \"#utility.yul\":5079:5104   */\n      swap3\n      pop\n        /* \"#utility.yul\":5139:5140   */\n      dup3\n        /* \"#utility.yul\":5136:5137   */\n      dup3\n        /* \"#utility.yul\":5132:5141   */\n      mul\n        /* \"#utility.yul\":5161:5191   */\n      tag_181\n        /* \"#utility.yul\":5179:5190   */\n      dup2\n        /* \"#utility.yul\":5161:5191   */\n      tag_99\n      jump\t// in\n    tag_181:\n        /* \"#utility.yul\":5150:5191   */\n      swap2\n      pop\n        /* \"#utility.yul\":5340:5341   */\n      dup3\n        /* \"#utility.yul\":5331:5338   */\n      dup3\n        /* \"#utility.yul\":5327:5342   */\n      div\n        /* \"#utility.yul\":5324:5325   */\n      dup5\n        /* \"#utility.yul\":5321:5343   */\n      eq\n        /* \"#utility.yul\":5301:5302   */\n      dup4\n        /* \"#utility.yul\":5294:5303   */\n      iszero\n        /* \"#utility.yul\":5274:5357   */\n      or\n        /* \"#utility.yul\":5251:5390   */\n      tag_182\n      jumpi\n        /* \"#utility.yul\":5370:5388   */\n      tag_183\n      tag_115\n      jump\t// in\n    tag_183:\n        /* \"#utility.yul\":5251:5390   */\n    tag_182:\n        /* \"#utility.yul\":5035:5397   */\n      pop\n        /* \"#utility.yul\":4987:5397   */\n      swap3\n      swap2\n      pop\n      pop\n      jump\t// out\n        /* \"#utility.yul\":5403:5583   */\n    tag_116:\n        /* \"#utility.yul\":5451:5528   */\n      0x4e487b7100000000000000000000000000000000000000000000000000000000\n        /* \"#utility.yul\":5448:5449   */\n      0x00\n        /* \"#utility.yul\":5441:5529   */\n      mstore\n        /* \"#utility.yul\":5548:5552   */\n      0x12\n        /* \"#utility.yul\":5545:5546   */\n      0x04\n        /* \"#utility.yul\":5538:5553   */\n      mstore\n        /* \"#utility.yul\":5572:5576   */\n      0x24\n        /* \"#utility.yul\":5569:5570   */\n      0x00\n        /* \"#utility.yul\":5562:5577   */\n      revert\n        /* \"#utility.yul\":5589:5774   */\n    tag_82:\n        /* \"#utility.yul\":5629:5630   */\n      0x00\n        /* \"#utility.yul\":5646:5666   */\n      tag_186\n        /* \"#utility.yul\":5664:5665   */\n      dup3\n        /* \"#utility.yul\":5646:5666   */\n      tag_99\n      jump\t// in\n    tag_186:\n        /* \"#utility.yul\":5641:5666   */\n      swap2\n      pop\n        /* \"#utility.yul\":5680:5700   */\n      tag_187\n        /* \"#utility.yul\":5698:5699   */\n      dup4\n        /* \"#utility.yul\":5680:5700   */\n      tag_99\n      jump\t// in\n    tag_187:\n        /* \"#utility.yul\":5675:5700   */\n      swap3\n      pop\n        /* \"#utility.yul\":5719:5720   */\n      dup3\n        /* \"#utility.yul\":5709:5744   */\n      tag_188\n      jumpi\n        /* \"#utility.yul\":5724:5742   */\n      tag_189\n      tag_116\n      jump\t// in\n    tag_189:\n        /* \"#utility.yul\":5709:5744   */\n    tag_188:\n        /* \"#utility.yul\":5766:5767   */\n      dup3\n        /* \"#utility.yul\":5763:5764   */\n      dup3\n        /* \"#utility.yul\":5759:5768   */\n      div\n        /* \"#utility.yul\":5754:5768   */\n      swap1\n      pop\n        /* \"#utility.yul\":5589:5774   */\n      swap3\n      swap2\n      pop\n      pop\n      jump\t// out\n        /* \"#utility.yul\":5780:5885   */\n    tag_117:\n        /* \"#utility.yul\":5816:5823   */\n      0x00\n        /* \"#utility.yul\":5856:5878   */\n      0xffffffffffffffffffff\n        /* \"#utility.yul\":5849:5854   */\n      dup3\n        /* \"#utility.yul\":5845:5879   */\n      and\n        /* \"#utility.yul\":5834:5879   */\n      swap1\n      pop\n        /* \"#utility.yul\":5780:5885   */\n      swap2\n      swap1\n      pop\n      jump\t// out\n        /* \"#utility.yul\":5891:6011   */\n    tag_118:\n        /* \"#utility.yul\":5963:5986   */\n      tag_192\n        /* \"#utility.yul\":5980:5985   */\n      dup2\n        /* \"#utility.yul\":5963:5986   */\n      tag_117\n      jump\t// in\n    tag_192:\n        /* \"#utility.yul\":5956:5961   */\n      dup2\n        /* \"#utility.yul\":5953:5987   */\n      eq\n        /* \"#utility.yul\":5943:6005   */\n      tag_193\n      jumpi\n        /* \"#utility.yul\":6001:6002   */\n      0x00\n        /* \"#utility.yul\":5998:5999   */\n      dup1\n        /* \"#utility.yul\":5991:6003   */\n      revert\n        /* \"#utility.yul\":5943:6005   */\n    tag_193:\n        /* \"#utility.yul\":5891:6011   */\n      pop\n      jump\t// out\n        /* \"#utility.yul\":6017:6158   */\n    tag_119:\n        /* \"#utility.yul\":6073:6078   */\n      0x00\n        /* \"#utility.yul\":6104:6110   */\n      dup2\n        /* \"#utility.yul\":6098:6111   */\n      mload\n        /* \"#utility.yul\":6089:6111   */\n      swap1\n      pop\n        /* \"#utility.yul\":6120:6152   */\n      tag_195\n        /* \"#utility.yul\":6146:6151   */\n      dup2\n        /* \"#utility.yul\":6120:6152   */\n      tag_118\n      jump\t// in\n    tag_195:\n        /* \"#utility.yul\":6017:6158   */\n      swap3\n      swap2\n      pop\n      pop\n      jump\t// out\n        /* \"#utility.yul\":6164:6240   */\n    tag_120:\n        /* \"#utility.yul\":6200:6207   */\n      0x00\n        /* \"#utility.yul\":6229:6234   */\n      dup2\n        /* \"#utility.yul\":6218:6234   */\n      swap1\n      pop\n        /* \"#utility.yul\":6164:6240   */\n      swap2\n      swap1\n      pop\n      jump\t// out\n        /* \"#utility.yul\":6246:6366   */\n    tag_121:\n        /* \"#utility.yul\":6318:6341   */\n      tag_198\n        /* \"#utility.yul\":6335:6340   */\n      dup2\n        /* \"#utility.yul\":6318:6341   */\n      tag_120\n      jump\t// in\n    tag_198:\n        /* \"#utility.yul\":6311:6316   */\n      dup2\n        /* \"#utility.yul\":6308:6342   */\n      eq\n        /* \"#utility.yul\":6298:6360   */\n      tag_199\n      jumpi\n        /* \"#utility.yul\":6356:6357   */\n      0x00\n        /* \"#utility.yul\":6353:6354   */\n      dup1\n        /* \"#utility.yul\":6346:6358   */\n      revert\n        /* \"#utility.yul\":6298:6360   */\n    tag_199:\n        /* \"#utility.yul\":6246:6366   */\n      pop\n      jump\t// out\n        /* \"#utility.yul\":6372:6513   */\n    tag_122:\n        /* \"#utility.yul\":6428:6433   */\n      0x00\n        /* \"#utility.yul\":6459:6465   */\n      dup2\n        /* \"#utility.yul\":6453:6466   */\n      mload\n        /* \"#utility.yul\":6444:6466   */\n      swap1\n      pop\n        /* \"#utility.yul\":6475:6507   */\n      tag_201\n        /* \"#utility.yul\":6501:6506   */\n      dup2\n        /* \"#utility.yul\":6475:6507   */\n      tag_121\n      jump\t// in\n    tag_201:\n        /* \"#utility.yul\":6372:6513   */\n      swap3\n      swap2\n      pop\n      pop\n      jump\t// out\n        /* \"#utility.yul\":6519:7490   */\n    tag_87:\n        /* \"#utility.yul\":6622:6628   */\n      0x00\n        /* \"#utility.yul\":6630:6636   */\n      dup1\n        /* \"#utility.yul\":6638:6644   */\n      0x00\n        /* \"#utility.yul\":6646:6652   */\n      dup1\n        /* \"#utility.yul\":6654:6660   */\n      0x00\n        /* \"#utility.yul\":6703:6706   */\n      0xa0\n        /* \"#utility.yul\":6691:6700   */\n      dup7\n        /* \"#utility.yul\":6682:6689   */\n      dup9\n        /* \"#utility.yul\":6678:6701   */\n      sub\n        /* \"#utility.yul\":6674:6707   */\n      slt\n        /* \"#utility.yul\":6671:6791   */\n      iszero\n      tag_203\n      jumpi\n        /* \"#utility.yul\":6710:6789   */\n      tag_204\n      tag_102\n      jump\t// in\n    tag_204:\n        /* \"#utility.yul\":6671:6791   */\n    tag_203:\n        /* \"#utility.yul\":6830:6831   */\n      0x00\n        /* \"#utility.yul\":6855:6918   */\n      tag_205\n        /* \"#utility.yul\":6910:6917   */\n      dup9\n        /* \"#utility.yul\":6901:6907   */\n      dup3\n        /* \"#utility.yul\":6890:6899   */\n      dup10\n        /* \"#utility.yul\":6886:6908   */\n      add\n        /* \"#utility.yul\":6855:6918   */\n      tag_119\n      jump\t// in\n    tag_205:\n        /* \"#utility.yul\":6845:6918   */\n      swap6\n      pop\n        /* \"#utility.yul\":6801:6928   */\n      pop\n        /* \"#utility.yul\":6967:6969   */\n      0x20\n        /* \"#utility.yul\":6993:7056   */\n      tag_206\n        /* \"#utility.yul\":7048:7055   */\n      dup9\n        /* \"#utility.yul\":7039:7045   */\n      dup3\n        /* \"#utility.yul\":7028:7037   */\n      dup10\n        /* \"#utility.yul\":7024:7046   */\n      add\n        /* \"#utility.yul\":6993:7056   */\n      tag_122\n      jump\t// in\n    tag_206:\n        /* \"#utility.yul\":6983:7056   */\n      swap5\n      pop\n        /* \"#utility.yul\":6938:7066   */\n      pop\n        /* \"#utility.yul\":7105:7107   */\n      0x40\n        /* \"#utility.yul\":7131:7195   */\n      tag_207\n        /* \"#utility.yul\":7187:7194   */\n      dup9\n        /* \"#utility.yul\":7178:7184   */\n      dup3\n        /* \"#utility.yul\":7167:7176   */\n      dup10\n        /* \"#utility.yul\":7163:7185   */\n      add\n        /* \"#utility.yul\":7131:7195   */\n      tag_111\n      jump\t// in\n    tag_207:\n        /* \"#utility.yul\":7121:7195   */\n      swap4\n      pop\n        /* \"#utility.yul\":7076:7205   */\n      pop\n        /* \"#utility.yul\":7244:7246   */\n      0x60\n        /* \"#utility.yul\":7270:7334   */\n      tag_208\n        /* \"#utility.yul\":7326:7333   */\n      dup9\n        /* \"#utility.yul\":7317:7323   */\n      dup3\n        /* \"#utility.yul\":7306:7315   */\n      dup10\n        /* \"#utility.yul\":7302:7324   */\n      add\n        /* \"#utility.yul\":7270:7334   */\n      tag_111\n      jump\t// in\n    tag_208:\n        /* \"#utility.yul\":7260:7334   */\n      swap3\n      pop\n        /* \"#utility.yul\":7215:7344   */\n      pop\n        /* \"#utility.yul\":7383:7386   */\n      0x80\n        /* \"#utility.yul\":7410:7473   */\n      tag_209\n        /* \"#utility.yul\":7465:7472   */\n      dup9\n        /* \"#utility.yul\":7456:7462   */\n      dup3\n        /* \"#utility.yul\":7445:7454   */\n      dup10\n        /* \"#utility.yul\":7441:7463   */\n      add\n        /* \"#utility.yul\":7410:7473   */\n      tag_119\n      jump\t// in\n    tag_209:\n        /* \"#utility.yul\":7400:7473   */\n      swap2\n      pop\n        /* \"#utility.yul\":7354:7483   */\n      pop\n        /* \"#utility.yul\":6519:7490   */\n      swap3\n      swap6\n      pop\n      swap3\n      swap6\n      swap1\n      swap4\n      pop\n      jump\t// out\n        /* \"#utility.yul\":7496:8052   */\n    tag_89:\n        /* \"#utility.yul\":7535:7542   */\n      0x00\n        /* \"#utility.yul\":7558:7577   */\n      tag_211\n        /* \"#utility.yul\":7575:7576   */\n      dup3\n        /* \"#utility.yul\":7558:7577   */\n      tag_120\n      jump\t// in\n    tag_211:\n        /* \"#utility.yul\":7553:7577   */\n      swap2\n      pop\n        /* \"#utility.yul\":7591:7610   */\n      tag_212\n        /* \"#utility.yul\":7608:7609   */\n      dup4\n        /* \"#utility.yul\":7591:7610   */\n      tag_120\n      jump\t// in\n    tag_212:\n        /* \"#utility.yul\":7586:7610   */\n      swap3\n      pop\n        /* \"#utility.yul\":7645:7646   */\n      dup3\n        /* \"#utility.yul\":7642:7643   */\n      dup3\n        /* \"#utility.yul\":7638:7647   */\n      mul\n        /* \"#utility.yul\":7667:7696   */\n      tag_213\n        /* \"#utility.yul\":7684:7695   */\n      dup2\n        /* \"#utility.yul\":7667:7696   */\n      tag_120\n      jump\t// in\n    tag_213:\n        /* \"#utility.yul\":7656:7696   */\n      swap2\n      pop\n        /* \"#utility.yul\":7754:7820   */\n      0x8000000000000000000000000000000000000000000000000000000000000000\n        /* \"#utility.yul\":7751:7752   */\n      dup5\n        /* \"#utility.yul\":7748:7821   */\n      eq\n        /* \"#utility.yul\":7744:7745   */\n      0x00\n        /* \"#utility.yul\":7741:7742   */\n      dup5\n        /* \"#utility.yul\":7737:7746   */\n      slt\n        /* \"#utility.yul\":7733:7822   */\n      and\n        /* \"#utility.yul\":7730:7845   */\n      iszero\n      tag_214\n      jumpi\n        /* \"#utility.yul\":7825:7843   */\n      tag_215\n      tag_115\n      jump\t// in\n    tag_215:\n        /* \"#utility.yul\":7730:7845   */\n    tag_214:\n        /* \"#utility.yul\":7995:7996   */\n      dup3\n        /* \"#utility.yul\":7986:7993   */\n      dup3\n        /* \"#utility.yul\":7981:7997   */\n      sdiv\n        /* \"#utility.yul\":7978:7979   */\n      dup5\n        /* \"#utility.yul\":7975:7998   */\n      eq\n        /* \"#utility.yul\":7955:7956   */\n      dup4\n        /* \"#utility.yul\":7948:7957   */\n      iszero\n        /* \"#utility.yul\":7928:8012   */\n      or\n        /* \"#utility.yul\":7905:8045   */\n      tag_216\n      jumpi\n        /* \"#utility.yul\":8025:8043   */\n      tag_217\n      tag_115\n      jump\t// in\n    tag_217:\n        /* \"#utility.yul\":7905:8045   */\n    tag_216:\n        /* \"#utility.yul\":7543:8052   */\n      pop\n        /* \"#utility.yul\":7496:8052   */\n      swap3\n      swap2\n      pop\n      pop\n      jump\t// out\n\n    auxdata: 0xa2646970667358221220ecd58cdb92edc3e646d97220482ea6194a0c5b3ed079c8641d66bd63b79fef1864736f6c63430008190033\n}\n",
				"bytecode": {
					"linkReferences": {},
					"object": "6080604052348015600e575f80fd5b503360025f6101000a81548173ffffffffffffffffffffffffffffffffffffffff021916908373ffffffffffffffffffffffffffffffffffffffff160217905550610bc48061005c5f395ff3fe60806040526004361061007a575f3560e01c80636e5b6b281161004d5780636e5b6b28146100f85780638da5cb5b1461013457806398d5fdca1461015e578063dc0d3dff146101885761007a565b80630d8e6e2c1461007e5780633ccfd60b146100a85780633e47d6f3146100b25780636ce1417e146100ee575b5f80fd5b348015610089575f80fd5b506100926101c4565b60405161009f9190610701565b60405180910390f35b6100b0610250565b005b3480156100bd575f80fd5b506100d860048036038101906100d39190610778565b6103eb565b6040516100e59190610701565b60405180910390f35b6100f66103ff565b005b348015610103575f80fd5b5061011e600480360381019061011991906107cd565b61050a565b60405161012b9190610701565b60405180910390f35b34801561013f575f80fd5b50610148610542565b6040516101559190610807565b60405180910390f35b348015610169575f80fd5b50610172610567565b60405161017f9190610701565b60405180910390f35b348015610193575f80fd5b506101ae60048036038101906101a991906107cd565b61060c565b6040516101bb9190610807565b60405180910390f35b5f8073c630c6bff4d198f30d9ab86f89fb83f0bc3fb94890508073ffffffffffffffffffffffffffffffffffffffff166354fd4d506040518163ffffffff1660e01b8152600401602060405180830381865afa158015610226573d5f803e3d5ffd5b505050506040513d601f19601f8201168201806040525081019061024a9190610834565b91505090565b60025f9054906101000a900473ffffffffffffffffffffffffffffffffffffffff1673ffffffffffffffffffffffffffffffffffffffff163373ffffffffffffffffffffffffffffffffffffffff16146102a8575f80fd5b3373ffffffffffffffffffffffffffffffffffffffff166108fc4790811502906040515f60405180830381858888f193505050501580156102eb573d5f803e3d5ffd5b505f5b600180549050811015610389575f600182815481106103105761030f61085f565b5b905f5260205f20015f9054906101000a900473ffffffffffffffffffffffffffffffffffffffff1690505f805f8373ffffffffffffffffffffffffffffffffffffffff1673ffffffffffffffffffffffffffffffffffffffff1681526020019081526020015f20819055505080806001019150506102ee565b505f67ffffffffffffffff8111156103a4576103a361088c565b5b6040519080825280602002602001820160405280156103d25781602001602082028036833780820191505090505b50600190805190602001906103e8929190610647565b50565b5f602052805f5260405f205f915090505481565b5f666a94d74f4300009050806104143461050a565b1015610455576040517f08c379a000000000000000000000000000000000000000000000000000000000815260040161044c90610913565b60405180910390fd5b345f803373ffffffffffffffffffffffffffffffffffffffff1673ffffffffffffffffffffffffffffffffffffffff1681526020019081526020015f205f8282546104a0919061095e565b92505081905550600133908060018154018082558091505060019003905f5260205f20015f9091909190916101000a81548173ffffffffffffffffffffffffffffffffffffffff021916908373ffffffffffffffffffffffffffffffffffffffff16021790555050565b5f80610514610567565b90505f678ac7230489e80000848361052c9190610991565b61053691906109ff565b90508092505050919050565b60025f9054906101000a900473ffffffffffffffffffffffffffffffffffffffff1681565b5f8073c630c6bff4d198f30d9ab86f89fb83f0bc3fb94890505f8173ffffffffffffffffffffffffffffffffffffffff1663feaf968c6040518163ffffffff1660e01b815260040160a060405180830381865afa1580156105ca573d5f803e3d5ffd5b505050506040513d601f19601f820116820180604052508101906105ee9190610aa1565b5050509150506402540be400816106059190610b18565b9250505090565b6001818154811061061b575f80fd5b905f5260205f20015f915054906101000a900473ffffffffffffffffffffffffffffffffffffffff1681565b828054828255905f5260205f209081019282156106bd579160200282015b828111156106bc578251825f6101000a81548173ffffffffffffffffffffffffffffffffffffffff021916908373ffffffffffffffffffffffffffffffffffffffff16021790555091602001919060010190610665565b5b5090506106ca91906106ce565b5090565b5b808211156106e5575f815f9055506001016106cf565b5090565b5f819050919050565b6106fb816106e9565b82525050565b5f6020820190506107145f8301846106f2565b92915050565b5f80fd5b5f73ffffffffffffffffffffffffffffffffffffffff82169050919050565b5f6107478261071e565b9050919050565b6107578161073d565b8114610761575f80fd5b50565b5f813590506107728161074e565b92915050565b5f6020828403121561078d5761078c61071a565b5b5f61079a84828501610764565b91505092915050565b6107ac816106e9565b81146107b6575f80fd5b50565b5f813590506107c7816107a3565b92915050565b5f602082840312156107e2576107e161071a565b5b5f6107ef848285016107b9565b91505092915050565b6108018161073d565b82525050565b5f60208201905061081a5f8301846107f8565b92915050565b5f8151905061082e816107a3565b92915050565b5f602082840312156108495761084861071a565b5b5f61085684828501610820565b91505092915050565b7f4e487b71000000000000000000000000000000000000000000000000000000005f52603260045260245ffd5b7f4e487b71000000000000000000000000000000000000000000000000000000005f52604160045260245ffd5b5f82825260208201905092915050565b7f596f75206e65656420746f207370656e64206d6f7265204554482100000000005f82015250565b5f6108fd601b836108b9565b9150610908826108c9565b602082019050919050565b5f6020820190508181035f83015261092a816108f1565b9050919050565b7f4e487b71000000000000000000000000000000000000000000000000000000005f52601160045260245ffd5b5f610968826106e9565b9150610973836106e9565b925082820190508082111561098b5761098a610931565b5b92915050565b5f61099b826106e9565b91506109a6836106e9565b92508282026109b4816106e9565b915082820484148315176109cb576109ca610931565b5b5092915050565b7f4e487b71000000000000000000000000000000000000000000000000000000005f52601260045260245ffd5b5f610a09826106e9565b9150610a14836106e9565b925082610a2457610a236109d2565b5b828204905092915050565b5f69ffffffffffffffffffff82169050919050565b610a4d81610a2f565b8114610a57575f80fd5b50565b5f81519050610a6881610a44565b92915050565b5f819050919050565b610a8081610a6e565b8114610a8a575f80fd5b50565b5f81519050610a9b81610a77565b92915050565b5f805f805f60a08688031215610aba57610ab961071a565b5b5f610ac788828901610a5a565b9550506020610ad888828901610a8d565b9450506040610ae988828901610820565b9350506060610afa88828901610820565b9250506080610b0b88828901610a5a565b9150509295509295909350565b5f610b2282610a6e565b9150610b2d83610a6e565b9250828202610b3b81610a6e565b91507f800000000000000000000000000000000000000000000000000000000000000084145f84121615610b7257610b71610931565b5b8282058414831517610b8757610b86610931565b5b509291505056fea2646970667358221220ecd58cdb92edc3e646d97220482ea6194a0c5b3ed079c8641d66bd63b79fef1864736f6c63430008190033",
					"opcodes": "PUSH1 0x80 PUSH1 0x40 MSTORE CALLVALUE DUP1 ISZERO PUSH1 0xE JUMPI PUSH0 DUP1 REVERT JUMPDEST POP CALLER PUSH1 0x2 PUSH0 PUSH2 0x100 EXP DUP2 SLOAD DUP2 PUSH20 0xFFFFFFFFFFFFFFFFFFFFFFFFFFFFFFFFFFFFFFFF MUL NOT AND SWAP1 DUP4 PUSH20 0xFFFFFFFFFFFFFFFFFFFFFFFFFFFFFFFFFFFFFFFF AND MUL OR SWAP1 SSTORE POP PUSH2 0xBC4 DUP1 PUSH2 0x5C PUSH0 CODECOPY PUSH0 RETURN INVALID PUSH1 0x80 PUSH1 0x40 MSTORE PUSH1 0x4 CALLDATASIZE LT PUSH2 0x7A JUMPI PUSH0 CALLDATALOAD PUSH1 0xE0 SHR DUP1 PUSH4 0x6E5B6B28 GT PUSH2 0x4D JUMPI DUP1 PUSH4 0x6E5B6B28 EQ PUSH2 0xF8 JUMPI DUP1 PUSH4 0x8DA5CB5B EQ PUSH2 0x134 JUMPI DUP1 PUSH4 0x98D5FDCA EQ PUSH2 0x15E JUMPI DUP1 PUSH4 0xDC0D3DFF EQ PUSH2 0x188 JUMPI PUSH2 0x7A JUMP JUMPDEST DUP1 PUSH4 0xD8E6E2C EQ PUSH2 0x7E JUMPI DUP1 PUSH4 0x3CCFD60B EQ PUSH2 0xA8 JUMPI DUP1 PUSH4 0x3E47D6F3 EQ PUSH2 0xB2 JUMPI DUP1 PUSH4 0x6CE1417E EQ PUSH2 0xEE JUMPI JUMPDEST PUSH0 DUP1 REVERT JUMPDEST CALLVALUE DUP1 ISZERO PUSH2 0x89 JUMPI PUSH0 DUP1 REVERT JUMPDEST POP PUSH2 0x92 PUSH2 0x1C4 JUMP JUMPDEST PUSH1 0x40 MLOAD PUSH2 0x9F SWAP2 SWAP1 PUSH2 0x701 JUMP JUMPDEST PUSH1 0x40 MLOAD DUP1 SWAP2 SUB SWAP1 RETURN JUMPDEST PUSH2 0xB0 PUSH2 0x250 JUMP JUMPDEST STOP JUMPDEST CALLVALUE DUP1 ISZERO PUSH2 0xBD JUMPI PUSH0 DUP1 REVERT JUMPDEST POP PUSH2 0xD8 PUSH1 0x4 DUP1 CALLDATASIZE SUB DUP2 ADD SWAP1 PUSH2 0xD3 SWAP2 SWAP1 PUSH2 0x778 JUMP JUMPDEST PUSH2 0x3EB JUMP JUMPDEST PUSH1 0x40 MLOAD PUSH2 0xE5 SWAP2 SWAP1 PUSH2 0x701 JUMP JUMPDEST PUSH1 0x40 MLOAD DUP1 SWAP2 SUB SWAP1 RETURN JUMPDEST PUSH2 0xF6 PUSH2 0x3FF JUMP JUMPDEST STOP JUMPDEST CALLVALUE DUP1 ISZERO PUSH2 0x103 JUMPI PUSH0 DUP1 REVERT JUMPDEST POP PUSH2 0x11E PUSH1 0x4 DUP1 CALLDATASIZE SUB DUP2 ADD SWAP1 PUSH2 0x119 SWAP2 SWAP1 PUSH2 0x7CD JUMP JUMPDEST PUSH2 0x50A JUMP JUMPDEST PUSH1 0x40 MLOAD PUSH2 0x12B SWAP2 SWAP1 PUSH2 0x701 JUMP JUMPDEST PUSH1 0x40 MLOAD DUP1 SWAP2 SUB SWAP1 RETURN JUMPDEST CALLVALUE DUP1 ISZERO PUSH2 0x13F JUMPI PUSH0 DUP1 REVERT JUMPDEST POP PUSH2 0x148 PUSH2 0x542 JUMP JUMPDEST PUSH1 0x40 MLOAD PUSH2 0x155 SWAP2 SWAP1 PUSH2 0x807 JUMP JUMPDEST PUSH1 0x40 MLOAD DUP1 SWAP2 SUB SWAP1 RETURN JUMPDEST CALLVALUE DUP1 ISZERO PUSH2 0x169 JUMPI PUSH0 DUP1 REVERT JUMPDEST POP PUSH2 0x172 PUSH2 0x567 JUMP JUMPDEST PUSH1 0x40 MLOAD PUSH2 0x17F SWAP2 SWAP1 PUSH2 0x701 JUMP JUMPDEST PUSH1 0x40 MLOAD DUP1 SWAP2 SUB SWAP1 RETURN JUMPDEST CALLVALUE DUP1 ISZERO PUSH2 0x193 JUMPI PUSH0 DUP1 REVERT JUMPDEST POP PUSH2 0x1AE PUSH1 0x4 DUP1 CALLDATASIZE SUB DUP2 ADD SWAP1 PUSH2 0x1A9 SWAP2 SWAP1 PUSH2 0x7CD JUMP JUMPDEST PUSH2 0x60C JUMP JUMPDEST PUSH1 0x40 MLOAD PUSH2 0x1BB SWAP2 SWAP1 PUSH2 0x807 JUMP JUMPDEST PUSH1 0x40 MLOAD DUP1 SWAP2 SUB SWAP1 RETURN JUMPDEST PUSH0 DUP1 PUSH20 0xC630C6BFF4D198F30D9AB86F89FB83F0BC3FB948 SWAP1 POP DUP1 PUSH20 0xFFFFFFFFFFFFFFFFFFFFFFFFFFFFFFFFFFFFFFFF AND PUSH4 0x54FD4D50 PUSH1 0x40 MLOAD DUP2 PUSH4 0xFFFFFFFF AND PUSH1 0xE0 SHL DUP2 MSTORE PUSH1 0x4 ADD PUSH1 0x20 PUSH1 0x40 MLOAD DUP1 DUP4 SUB DUP2 DUP7 GAS STATICCALL ISZERO DUP1 ISZERO PUSH2 0x226 JUMPI RETURNDATASIZE PUSH0 DUP1 RETURNDATACOPY RETURNDATASIZE PUSH0 REVERT JUMPDEST POP POP POP POP PUSH1 0x40 MLOAD RETURNDATASIZE PUSH1 0x1F NOT PUSH1 0x1F DUP3 ADD AND DUP3 ADD DUP1 PUSH1 0x40 MSTORE POP DUP2 ADD SWAP1 PUSH2 0x24A SWAP2 SWAP1 PUSH2 0x834 JUMP JUMPDEST SWAP2 POP POP SWAP1 JUMP JUMPDEST PUSH1 0x2 PUSH0 SWAP1 SLOAD SWAP1 PUSH2 0x100 EXP SWAP1 DIV PUSH20 0xFFFFFFFFFFFFFFFFFFFFFFFFFFFFFFFFFFFFFFFF AND PUSH20 0xFFFFFFFFFFFFFFFFFFFFFFFFFFFFFFFFFFFFFFFF AND CALLER PUSH20 0xFFFFFFFFFFFFFFFFFFFFFFFFFFFFFFFFFFFFFFFF AND EQ PUSH2 0x2A8 JUMPI PUSH0 DUP1 REVERT JUMPDEST CALLER PUSH20 0xFFFFFFFFFFFFFFFFFFFFFFFFFFFFFFFFFFFFFFFF AND PUSH2 0x8FC SELFBALANCE SWAP1 DUP2 ISZERO MUL SWAP1 PUSH1 0x40 MLOAD PUSH0 PUSH1 0x40 MLOAD DUP1 DUP4 SUB DUP2 DUP6 DUP9 DUP9 CALL SWAP4 POP POP POP POP ISZERO DUP1 ISZERO PUSH2 0x2EB JUMPI RETURNDATASIZE PUSH0 DUP1 RETURNDATACOPY RETURNDATASIZE PUSH0 REVERT JUMPDEST POP PUSH0 JUMPDEST PUSH1 0x1 DUP1 SLOAD SWAP1 POP DUP2 LT ISZERO PUSH2 0x389 JUMPI PUSH0 PUSH1 0x1 DUP3 DUP2 SLOAD DUP2 LT PUSH2 0x310 JUMPI PUSH2 0x30F PUSH2 0x85F JUMP JUMPDEST JUMPDEST SWAP1 PUSH0 MSTORE PUSH1 0x20 PUSH0 KECCAK256 ADD PUSH0 SWAP1 SLOAD SWAP1 PUSH2 0x100 EXP SWAP1 DIV PUSH20 0xFFFFFFFFFFFFFFFFFFFFFFFFFFFFFFFFFFFFFFFF AND SWAP1 POP PUSH0 DUP1 PUSH0 DUP4 PUSH20 0xFFFFFFFFFFFFFFFFFFFFFFFFFFFFFFFFFFFFFFFF AND PUSH20 0xFFFFFFFFFFFFFFFFFFFFFFFFFFFFFFFFFFFFFFFF AND DUP2 MSTORE PUSH1 0x20 ADD SWAP1 DUP2 MSTORE PUSH1 0x20 ADD PUSH0 KECCAK256 DUP2 SWAP1 SSTORE POP POP DUP1 DUP1 PUSH1 0x1 ADD SWAP2 POP POP PUSH2 0x2EE JUMP JUMPDEST POP PUSH0 PUSH8 0xFFFFFFFFFFFFFFFF DUP2 GT ISZERO PUSH2 0x3A4 JUMPI PUSH2 0x3A3 PUSH2 0x88C JUMP JUMPDEST JUMPDEST PUSH1 0x40 MLOAD SWAP1 DUP1 DUP3 MSTORE DUP1 PUSH1 0x20 MUL PUSH1 0x20 ADD DUP3 ADD PUSH1 0x40 MSTORE DUP1 ISZERO PUSH2 0x3D2 JUMPI DUP2 PUSH1 0x20 ADD PUSH1 0x20 DUP3 MUL DUP1 CALLDATASIZE DUP4 CALLDATACOPY DUP1 DUP3 ADD SWAP2 POP POP SWAP1 POP JUMPDEST POP PUSH1 0x1 SWAP1 DUP1 MLOAD SWAP1 PUSH1 0x20 ADD SWAP1 PUSH2 0x3E8 SWAP3 SWAP2 SWAP1 PUSH2 0x647 JUMP JUMPDEST POP JUMP JUMPDEST PUSH0 PUSH1 0x20 MSTORE DUP1 PUSH0 MSTORE PUSH1 0x40 PUSH0 KECCAK256 PUSH0 SWAP2 POP SWAP1 POP SLOAD DUP2 JUMP JUMPDEST PUSH0 PUSH7 0x6A94D74F430000 SWAP1 POP DUP1 PUSH2 0x414 CALLVALUE PUSH2 0x50A JUMP JUMPDEST LT ISZERO PUSH2 0x455 JUMPI PUSH1 0x40 MLOAD PUSH32 0x8C379A000000000000000000000000000000000000000000000000000000000 DUP2 MSTORE PUSH1 0x4 ADD PUSH2 0x44C SWAP1 PUSH2 0x913 JUMP JUMPDEST PUSH1 0x40 MLOAD DUP1 SWAP2 SUB SWAP1 REVERT JUMPDEST CALLVALUE PUSH0 DUP1 CALLER PUSH20 0xFFFFFFFFFFFFFFFFFFFFFFFFFFFFFFFFFFFFFFFF AND PUSH20 0xFFFFFFFFFFFFFFFFFFFFFFFFFFFFFFFFFFFFFFFF AND DUP2 MSTORE PUSH1 0x20 ADD SWAP1 DUP2 MSTORE PUSH1 0x20 ADD PUSH0 KECCAK256 PUSH0 DUP3 DUP3 SLOAD PUSH2 0x4A0 SWAP2 SWAP1 PUSH2 0x95E JUMP JUMPDEST SWAP3 POP POP DUP2 SWAP1 SSTORE POP PUSH1 0x1 CALLER SWAP1 DUP1 PUSH1 0x1 DUP2 SLOAD ADD DUP1 DUP3 SSTORE DUP1 SWAP2 POP POP PUSH1 0x1 SWAP1 SUB SWAP1 PUSH0 MSTORE PUSH1 0x20 PUSH0 KECCAK256 ADD PUSH0 SWAP1 SWAP2 SWAP1 SWAP2 SWAP1 SWAP2 PUSH2 0x100 EXP DUP2 SLOAD DUP2 PUSH20 0xFFFFFFFFFFFFFFFFFFFFFFFFFFFFFFFFFFFFFFFF MUL NOT AND SWAP1 DUP4 PUSH20 0xFFFFFFFFFFFFFFFFFFFFFFFFFFFFFFFFFFFFFFFF AND MUL OR SWAP1 SSTORE POP POP JUMP JUMPDEST PUSH0 DUP1 PUSH2 0x514 PUSH2 0x567 JUMP JUMPDEST SWAP1 POP PUSH0 PUSH8 0x8AC7230489E80000 DUP5 DUP4 PUSH2 0x52C SWAP2 SWAP1 PUSH2 0x991 JUMP JUMPDEST PUSH2 0x536 SWAP2 SWAP1 PUSH2 0x9FF JUMP JUMPDEST SWAP1 POP DUP1 SWAP3 POP POP POP SWAP2 SWAP1 POP JUMP JUMPDEST PUSH1 0x2 PUSH0 SWAP1 SLOAD SWAP1 PUSH2 0x100 EXP SWAP1 DIV PUSH20 0xFFFFFFFFFFFFFFFFFFFFFFFFFFFFFFFFFFFFFFFF AND DUP2 JUMP JUMPDEST PUSH0 DUP1 PUSH20 0xC630C6BFF4D198F30D9AB86F89FB83F0BC3FB948 SWAP1 POP PUSH0 DUP2 PUSH20 0xFFFFFFFFFFFFFFFFFFFFFFFFFFFFFFFFFFFFFFFF AND PUSH4 0xFEAF968C PUSH1 0x40 MLOAD DUP2 PUSH4 0xFFFFFFFF AND PUSH1 0xE0 SHL DUP2 MSTORE PUSH1 0x4 ADD PUSH1 0xA0 PUSH1 0x40 MLOAD DUP1 DUP4 SUB DUP2 DUP7 GAS STATICCALL ISZERO DUP1 ISZERO PUSH2 0x5CA JUMPI RETURNDATASIZE PUSH0 DUP1 RETURNDATACOPY RETURNDATASIZE PUSH0 REVERT JUMPDEST POP POP POP POP PUSH1 0x40 MLOAD RETURNDATASIZE PUSH1 0x1F NOT PUSH1 0x1F DUP3 ADD AND DUP3 ADD DUP1 PUSH1 0x40 MSTORE POP DUP2 ADD SWAP1 PUSH2 0x5EE SWAP2 SWAP1 PUSH2 0xAA1 JUMP JUMPDEST POP POP POP SWAP2 POP POP PUSH5 0x2540BE400 DUP2 PUSH2 0x605 SWAP2 SWAP1 PUSH2 0xB18 JUMP JUMPDEST SWAP3 POP POP POP SWAP1 JUMP JUMPDEST PUSH1 0x1 DUP2 DUP2 SLOAD DUP2 LT PUSH2 0x61B JUMPI PUSH0 DUP1 REVERT JUMPDEST SWAP1 PUSH0 MSTORE PUSH1 0x20 PUSH0 KECCAK256 ADD PUSH0 SWAP2 POP SLOAD SWAP1 PUSH2 0x100 EXP SWAP1 DIV PUSH20 0xFFFFFFFFFFFFFFFFFFFFFFFFFFFFFFFFFFFFFFFF AND DUP2 JUMP JUMPDEST DUP3 DUP1 SLOAD DUP3 DUP3 SSTORE SWAP1 PUSH0 MSTORE PUSH1 0x20 PUSH0 KECCAK256 SWAP1 DUP2 ADD SWAP3 DUP3 ISZERO PUSH2 0x6BD JUMPI SWAP2 PUSH1 0x20 MUL DUP3 ADD JUMPDEST DUP3 DUP2 GT ISZERO PUSH2 0x6BC JUMPI DUP3 MLOAD DUP3 PUSH0 PUSH2 0x100 EXP DUP2 SLOAD DUP2 PUSH20 0xFFFFFFFFFFFFFFFFFFFFFFFFFFFFFFFFFFFFFFFF MUL NOT AND SWAP1 DUP4 PUSH20 0xFFFFFFFFFFFFFFFFFFFFFFFFFFFFFFFFFFFFFFFF AND MUL OR SWAP1 SSTORE POP SWAP2 PUSH1 0x20 ADD SWAP2 SWAP1 PUSH1 0x1 ADD SWAP1 PUSH2 0x665 JUMP JUMPDEST JUMPDEST POP SWAP1 POP PUSH2 0x6CA SWAP2 SWAP1 PUSH2 0x6CE JUMP JUMPDEST POP SWAP1 JUMP JUMPDEST JUMPDEST DUP1 DUP3 GT ISZERO PUSH2 0x6E5 JUMPI PUSH0 DUP2 PUSH0 SWAP1 SSTORE POP PUSH1 0x1 ADD PUSH2 0x6CF JUMP JUMPDEST POP SWAP1 JUMP JUMPDEST PUSH0 DUP2 SWAP1 POP SWAP2 SWAP1 POP JUMP JUMPDEST PUSH2 0x6FB DUP2 PUSH2 0x6E9 JUMP JUMPDEST DUP3 MSTORE POP POP JUMP JUMPDEST PUSH0 PUSH1 0x20 DUP3 ADD SWAP1 POP PUSH2 0x714 PUSH0 DUP4 ADD DUP5 PUSH2 0x6F2 JUMP JUMPDEST SWAP3 SWAP2 POP POP JUMP JUMPDEST PUSH0 DUP1 REVERT JUMPDEST PUSH0 PUSH20 0xFFFFFFFFFFFFFFFFFFFFFFFFFFFFFFFFFFFFFFFF DUP3 AND SWAP1 POP SWAP2 SWAP1 POP JUMP JUMPDEST PUSH0 PUSH2 0x747 DUP3 PUSH2 0x71E JUMP JUMPDEST SWAP1 POP SWAP2 SWAP1 POP JUMP JUMPDEST PUSH2 0x757 DUP2 PUSH2 0x73D JUMP JUMPDEST DUP2 EQ PUSH2 0x761 JUMPI PUSH0 DUP1 REVERT JUMPDEST POP JUMP JUMPDEST PUSH0 DUP2 CALLDATALOAD SWAP1 POP PUSH2 0x772 DUP2 PUSH2 0x74E JUMP JUMPDEST SWAP3 SWAP2 POP POP JUMP JUMPDEST PUSH0 PUSH1 0x20 DUP3 DUP5 SUB SLT ISZERO PUSH2 0x78D JUMPI PUSH2 0x78C PUSH2 0x71A JUMP JUMPDEST JUMPDEST PUSH0 PUSH2 0x79A DUP5 DUP3 DUP6 ADD PUSH2 0x764 JUMP JUMPDEST SWAP2 POP POP SWAP3 SWAP2 POP POP JUMP JUMPDEST PUSH2 0x7AC DUP2 PUSH2 0x6E9 JUMP JUMPDEST DUP2 EQ PUSH2 0x7B6 JUMPI PUSH0 DUP1 REVERT JUMPDEST POP JUMP JUMPDEST PUSH0 DUP2 CALLDATALOAD SWAP1 POP PUSH2 0x7C7 DUP2 PUSH2 0x7A3 JUMP JUMPDEST SWAP3 SWAP2 POP POP JUMP JUMPDEST PUSH0 PUSH1 0x20 DUP3 DUP5 SUB SLT ISZERO PUSH2 0x7E2 JUMPI PUSH2 0x7E1 PUSH2 0x71A JUMP JUMPDEST JUMPDEST PUSH0 PUSH2 0x7EF DUP5 DUP3 DUP6 ADD PUSH2 0x7B9 JUMP JUMPDEST SWAP2 POP POP SWAP3 SWAP2 POP POP JUMP JUMPDEST PUSH2 0x801 DUP2 PUSH2 0x73D JUMP JUMPDEST DUP3 MSTORE POP POP JUMP JUMPDEST PUSH0 PUSH1 0x20 DUP3 ADD SWAP1 POP PUSH2 0x81A PUSH0 DUP4 ADD DUP5 PUSH2 0x7F8 JUMP JUMPDEST SWAP3 SWAP2 POP POP JUMP JUMPDEST PUSH0 DUP2 MLOAD SWAP1 POP PUSH2 0x82E DUP2 PUSH2 0x7A3 JUMP JUMPDEST SWAP3 SWAP2 POP POP JUMP JUMPDEST PUSH0 PUSH1 0x20 DUP3 DUP5 SUB SLT ISZERO PUSH2 0x849 JUMPI PUSH2 0x848 PUSH2 0x71A JUMP JUMPDEST JUMPDEST PUSH0 PUSH2 0x856 DUP5 DUP3 DUP6 ADD PUSH2 0x820 JUMP JUMPDEST SWAP2 POP POP SWAP3 SWAP2 POP POP JUMP JUMPDEST PUSH32 0x4E487B7100000000000000000000000000000000000000000000000000000000 PUSH0 MSTORE PUSH1 0x32 PUSH1 0x4 MSTORE PUSH1 0x24 PUSH0 REVERT JUMPDEST PUSH32 0x4E487B7100000000000000000000000000000000000000000000000000000000 PUSH0 MSTORE PUSH1 0x41 PUSH1 0x4 MSTORE PUSH1 0x24 PUSH0 REVERT JUMPDEST PUSH0 DUP3 DUP3 MSTORE PUSH1 0x20 DUP3 ADD SWAP1 POP SWAP3 SWAP2 POP POP JUMP JUMPDEST PUSH32 0x596F75206E65656420746F207370656E64206D6F726520455448210000000000 PUSH0 DUP3 ADD MSTORE POP JUMP JUMPDEST PUSH0 PUSH2 0x8FD PUSH1 0x1B DUP4 PUSH2 0x8B9 JUMP JUMPDEST SWAP2 POP PUSH2 0x908 DUP3 PUSH2 0x8C9 JUMP JUMPDEST PUSH1 0x20 DUP3 ADD SWAP1 POP SWAP2 SWAP1 POP JUMP JUMPDEST PUSH0 PUSH1 0x20 DUP3 ADD SWAP1 POP DUP2 DUP2 SUB PUSH0 DUP4 ADD MSTORE PUSH2 0x92A DUP2 PUSH2 0x8F1 JUMP JUMPDEST SWAP1 POP SWAP2 SWAP1 POP JUMP JUMPDEST PUSH32 0x4E487B7100000000000000000000000000000000000000000000000000000000 PUSH0 MSTORE PUSH1 0x11 PUSH1 0x4 MSTORE PUSH1 0x24 PUSH0 REVERT JUMPDEST PUSH0 PUSH2 0x968 DUP3 PUSH2 0x6E9 JUMP JUMPDEST SWAP2 POP PUSH2 0x973 DUP4 PUSH2 0x6E9 JUMP JUMPDEST SWAP3 POP DUP3 DUP3 ADD SWAP1 POP DUP1 DUP3 GT ISZERO PUSH2 0x98B JUMPI PUSH2 0x98A PUSH2 0x931 JUMP JUMPDEST JUMPDEST SWAP3 SWAP2 POP POP JUMP JUMPDEST PUSH0 PUSH2 0x99B DUP3 PUSH2 0x6E9 JUMP JUMPDEST SWAP2 POP PUSH2 0x9A6 DUP4 PUSH2 0x6E9 JUMP JUMPDEST SWAP3 POP DUP3 DUP3 MUL PUSH2 0x9B4 DUP2 PUSH2 0x6E9 JUMP JUMPDEST SWAP2 POP DUP3 DUP3 DIV DUP5 EQ DUP4 ISZERO OR PUSH2 0x9CB JUMPI PUSH2 0x9CA PUSH2 0x931 JUMP JUMPDEST JUMPDEST POP SWAP3 SWAP2 POP POP JUMP JUMPDEST PUSH32 0x4E487B7100000000000000000000000000000000000000000000000000000000 PUSH0 MSTORE PUSH1 0x12 PUSH1 0x4 MSTORE PUSH1 0x24 PUSH0 REVERT JUMPDEST PUSH0 PUSH2 0xA09 DUP3 PUSH2 0x6E9 JUMP JUMPDEST SWAP2 POP PUSH2 0xA14 DUP4 PUSH2 0x6E9 JUMP JUMPDEST SWAP3 POP DUP3 PUSH2 0xA24 JUMPI PUSH2 0xA23 PUSH2 0x9D2 JUMP JUMPDEST JUMPDEST DUP3 DUP3 DIV SWAP1 POP SWAP3 SWAP2 POP POP JUMP JUMPDEST PUSH0 PUSH10 0xFFFFFFFFFFFFFFFFFFFF DUP3 AND SWAP1 POP SWAP2 SWAP1 POP JUMP JUMPDEST PUSH2 0xA4D DUP2 PUSH2 0xA2F JUMP JUMPDEST DUP2 EQ PUSH2 0xA57 JUMPI PUSH0 DUP1 REVERT JUMPDEST POP JUMP JUMPDEST PUSH0 DUP2 MLOAD SWAP1 POP PUSH2 0xA68 DUP2 PUSH2 0xA44 JUMP JUMPDEST SWAP3 SWAP2 POP POP JUMP JUMPDEST PUSH0 DUP2 SWAP1 POP SWAP2 SWAP1 POP JUMP JUMPDEST PUSH2 0xA80 DUP2 PUSH2 0xA6E JUMP JUMPDEST DUP2 EQ PUSH2 0xA8A JUMPI PUSH0 DUP1 REVERT JUMPDEST POP JUMP JUMPDEST PUSH0 DUP2 MLOAD SWAP1 POP PUSH2 0xA9B DUP2 PUSH2 0xA77 JUMP JUMPDEST SWAP3 SWAP2 POP POP JUMP JUMPDEST PUSH0 DUP1 PUSH0 DUP1 PUSH0 PUSH1 0xA0 DUP7 DUP9 SUB SLT ISZERO PUSH2 0xABA JUMPI PUSH2 0xAB9 PUSH2 0x71A JUMP JUMPDEST JUMPDEST PUSH0 PUSH2 0xAC7 DUP9 DUP3 DUP10 ADD PUSH2 0xA5A JUMP JUMPDEST SWAP6 POP POP PUSH1 0x20 PUSH2 0xAD8 DUP9 DUP3 DUP10 ADD PUSH2 0xA8D JUMP JUMPDEST SWAP5 POP POP PUSH1 0x40 PUSH2 0xAE9 DUP9 DUP3 DUP10 ADD PUSH2 0x820 JUMP JUMPDEST SWAP4 POP POP PUSH1 0x60 PUSH2 0xAFA DUP9 DUP3 DUP10 ADD PUSH2 0x820 JUMP JUMPDEST SWAP3 POP POP PUSH1 0x80 PUSH2 0xB0B DUP9 DUP3 DUP10 ADD PUSH2 0xA5A JUMP JUMPDEST SWAP2 POP POP SWAP3 SWAP6 POP SWAP3 SWAP6 SWAP1 SWAP4 POP JUMP JUMPDEST PUSH0 PUSH2 0xB22 DUP3 PUSH2 0xA6E JUMP JUMPDEST SWAP2 POP PUSH2 0xB2D DUP4 PUSH2 0xA6E JUMP JUMPDEST SWAP3 POP DUP3 DUP3 MUL PUSH2 0xB3B DUP2 PUSH2 0xA6E JUMP JUMPDEST SWAP2 POP PUSH32 0x8000000000000000000000000000000000000000000000000000000000000000 DUP5 EQ PUSH0 DUP5 SLT AND ISZERO PUSH2 0xB72 JUMPI PUSH2 0xB71 PUSH2 0x931 JUMP JUMPDEST JUMPDEST DUP3 DUP3 SDIV DUP5 EQ DUP4 ISZERO OR PUSH2 0xB87 JUMPI PUSH2 0xB86 PUSH2 0x931 JUMP JUMPDEST JUMPDEST POP SWAP3 SWAP2 POP POP JUMP INVALID LOG2 PUSH5 0x6970667358 0x22 SLT KECCAK256 0xEC 0xD5 DUP13 0xDB SWAP3 0xED 0xC3 0xE6 CHAINID 0xD9 PUSH19 0x20482EA6194A0C5B3ED079C8641D66BD63B79F 0xEF XOR PUSH5 0x736F6C6343 STOP ADDMOD NOT STOP CALLER "
				},
				"gasEstimates": {
					"creation": {
						"codeDepositCost": "602400",
						"executionCost": "24901",
						"totalCost": "627301"
					},
					"external": {
						"Fund()": "infinite",
						"addressToAmountFunded(address)": "2846",
						"funders(uint256)": "5010",
						"getConversionRate(uint256)": "infinite",
						"getPrice()": "infinite",
						"getVersion()": "infinite",
						"owner()": "2530",
						"withdraw()": "infinite"
					}
				},
				"methodIdentifiers": {
					"Fund()": "6ce1417e",
					"addressToAmountFunded(address)": "3e47d6f3",
					"funders(uint256)": "dc0d3dff",
					"getConversionRate(uint256)": "6e5b6b28",
					"getPrice()": "98d5fdca",
					"getVersion()": "0d8e6e2c",
					"owner()": "8da5cb5b",
					"withdraw()": "3ccfd60b"
				}
			},
			"storageLayout": {
				"storage": [
					{
						"astId": 52,
						"contract": "contracts/BDTFundMe.sol:BDTFundMe",
						"label": "addressToAmountFunded",
						"offset": 0,
						"slot": "0",
						"type": "t_mapping(t_address,t_uint256)"
					},
					{
						"astId": 55,
						"contract": "contracts/BDTFundMe.sol:BDTFundMe",
						"label": "funders",
						"offset": 0,
						"slot": "1",
						"type": "t_array(t_address)dyn_storage"
					},
					{
						"astId": 57,
						"contract": "contracts/BDTFundMe.sol:BDTFundMe",
						"label": "owner",
						"offset": 0,
						"slot": "2",
						"type": "t_address"
					}
				],
				"types": {
					"t_address": {
						"encoding": "inplace",
						"label": "address",
						"numberOfBytes": "20"
					},
					"t_array(t_address)dyn_storage": {
						"base": "t_address",
						"encoding": "dynamic_array",
						"label": "address[]",
						"numberOfBytes": "32"
					},
					"t_mapping(t_address,t_uint256)": {
						"encoding": "mapping",
						"key": "t_address",
						"label": "mapping(address => uint256)",
						"numberOfBytes": "32",
						"value": "t_uint256"
					},
					"t_uint256": {
						"encoding": "inplace",
						"label": "uint256",
						"numberOfBytes": "32"
					}
				}
			},
			"userdoc": {
				"kind": "user",
				"methods": {},
				"version": 1
			}
		}
	}
}