{
	"contracts/BTDTokenSwap.sol": {
		"BTDTokenSwap": {
			"abi": [
				{
					"anonymous": false,
					"inputs": [
						{
							"indexed": true,
							"internalType": "address",
							"name": "buyer",
							"type": "address"
						},
						{
							"indexed": false,
							"internalType": "uint256",
							"name": "amount",
							"type": "uint256"
						},
						{
							"indexed": false,
							"internalType": "string",
							"name": "currency",
							"type": "string"
						}
					],
					"name": "TokensPurchased",
					"type": "event"
				},
				{
					"inputs": [],
					"name": "BDT_ETH_RATE",
					"outputs": [
						{
							"internalType": "uint256",
							"name": "",
							"type": "uint256"
						}
					],
					"stateMutability": "view",
					"type": "function"
				},
				{
					"inputs": [],
					"name": "BDT_USDT_RATE",
					"outputs": [
						{
							"internalType": "uint256",
							"name": "",
							"type": "uint256"
						}
					],
					"stateMutability": "view",
					"type": "function"
				},
				{
					"inputs": [
						{
							"internalType": "address",
							"name": "_tokenBDT",
							"type": "address"
						},
						{
							"internalType": "address",
							"name": "_tokenUSDT",
							"type": "address"
						},
						{
							"internalType": "uint256",
							"name": "amountUSDT",
							"type": "uint256"
						}
					],
					"name": "_safeBuyWithUSDT",
					"outputs": [],
					"stateMutability": "nonpayable",
					"type": "function"
				},
				{
					"inputs": [
						{
							"internalType": "uint256",
							"name": "bdtAmount",
							"type": "uint256"
						}
					],
					"name": "getConversionRate",
					"outputs": [
						{
							"internalType": "uint256",
							"name": "",
							"type": "uint256"
						}
					],
					"stateMutability": "pure",
					"type": "function"
				},
				{
					"inputs": [],
					"name": "getPrice",
					"outputs": [
						{
							"internalType": "uint256",
							"name": "",
							"type": "uint256"
						}
					],
					"stateMutability": "pure",
					"type": "function"
				},
				{
					"inputs": [],
					"name": "ownerBDT",
					"outputs": [
						{
							"internalType": "address",
							"name": "",
							"type": "address"
						}
					],
					"stateMutability": "view",
					"type": "function"
				},
				{
					"inputs": [],
					"name": "ownerUSDT",
					"outputs": [
						{
							"internalType": "address",
							"name": "",
							"type": "address"
						}
					],
					"stateMutability": "view",
					"type": "function"
				},
				{
					"inputs": [
						{
							"internalType": "uint256",
							"name": "_amount1",
							"type": "uint256"
						},
						{
							"internalType": "uint256",
							"name": "_amount2",
							"type": "uint256"
						}
					],
					"name": "swap",
					"outputs": [],
					"stateMutability": "nonpayable",
					"type": "function"
				},
				{
					"inputs": [],
					"name": "tokenBDT",
					"outputs": [
						{
							"internalType": "contract IERC20",
							"name": "",
							"type": "address"
						}
					],
					"stateMutability": "view",
					"type": "function"
				},
				{
					"inputs": [],
					"name": "tokenUSDT",
					"outputs": [
						{
							"internalType": "contract IERC20",
							"name": "",
							"type": "address"
						}
					],
					"stateMutability": "view",
					"type": "function"
				}
			],
			"devdoc": {
				"kind": "dev",
				"methods": {},
				"version": 1
			},
			"evm": {
				"assembly": "    /* \"contracts/BTDTokenSwap.sol\":348:5777  contract BTDTokenSwap {... */\n  mstore(0x40, 0x80)\n    /* \"contracts/BTDTokenSwap.sol\":430:472  0x55585E22Ccd9cc2B4563Ba44e8a57867464b6250 */\n  0x55585e22ccd9cc2b4563ba44e8a57867464b6250\n    /* \"contracts/BTDTokenSwap.sol\":404:472  address public ownerBDT = 0x55585E22Ccd9cc2B4563Ba44e8a57867464b6250 */\n  0x01\n  exp(0x0100, 0x00)\n  dup2\n  sload\n  dup2\n  0xffffffffffffffffffffffffffffffffffffffff\n  mul\n  not\n  and\n  swap1\n  dup4\n  0xffffffffffffffffffffffffffffffffffffffff\n  and\n  mul\n  or\n  swap1\n  sstore\n  pop\n    /* \"contracts/BTDTokenSwap.sol\":348:5777  contract BTDTokenSwap {... */\n  callvalue\n  dup1\n  iszero\n  tag_1\n  jumpi\n  0x00\n  dup1\n  revert\ntag_1:\n  pop\n  dataSize(sub_0)\n  dup1\n  dataOffset(sub_0)\n  0x00\n  codecopy\n  0x00\n  return\nstop\n\nsub_0: assembly {\n        /* \"contracts/BTDTokenSwap.sol\":348:5777  contract BTDTokenSwap {... */\n      mstore(0x40, 0x80)\n      callvalue\n      dup1\n      iszero\n      tag_1\n      jumpi\n      0x00\n      dup1\n      revert\n    tag_1:\n      pop\n      jumpi(tag_2, lt(calldatasize, 0x04))\n      shr(0xe0, calldataload(0x00))\n      dup1\n      0x98d5fdca\n      gt\n      tag_13\n      jumpi\n      dup1\n      0x98d5fdca\n      eq\n      tag_8\n      jumpi\n      dup1\n      0x99c5c8aa\n      eq\n      tag_9\n      jumpi\n      dup1\n      0xd96073cf\n      eq\n      tag_10\n      jumpi\n      dup1\n      0xe809c9e4\n      eq\n      tag_11\n      jumpi\n      dup1\n      0xf05ca957\n      eq\n      tag_12\n      jumpi\n      jump(tag_2)\n    tag_13:\n      dup1\n      0x1a855ff0\n      eq\n      tag_3\n      jumpi\n      dup1\n      0x2ad5b3bd\n      eq\n      tag_4\n      jumpi\n      dup1\n      0x6e5b6b28\n      eq\n      tag_5\n      jumpi\n      dup1\n      0x872e9a93\n      eq\n      tag_6\n      jumpi\n      dup1\n      0x91b7ac3e\n      eq\n      tag_7\n      jumpi\n    tag_2:\n      0x00\n      dup1\n      revert\n        /* \"contracts/BTDTokenSwap.sol\":376:398  IERC20 public tokenBDT */\n    tag_3:\n      tag_14\n      tag_15\n      jump\t// in\n    tag_14:\n      mload(0x40)\n      tag_16\n      swap2\n      swap1\n      tag_17\n      jump\t// in\n    tag_16:\n      mload(0x40)\n      dup1\n      swap2\n      sub\n      swap1\n      return\n        /* \"contracts/BTDTokenSwap.sol\":1256:2072  function _safeBuyWithUSDT(address _tokenBDT, address _tokenUSDT,uint256 amountUSDT) external {... */\n    tag_4:\n      tag_18\n      0x04\n      dup1\n      calldatasize\n      sub\n      dup2\n      add\n      swap1\n      tag_19\n      swap2\n      swap1\n      tag_20\n      jump\t// in\n    tag_19:\n      tag_21\n      jump\t// in\n    tag_18:\n      stop\n        /* \"contracts/BTDTokenSwap.sol\":5194:5775  function getConversionRate(uint256 bdtAmount)... */\n    tag_5:\n      tag_22\n      0x04\n      dup1\n      calldatasize\n      sub\n      dup2\n      add\n      swap1\n      tag_23\n      swap2\n      swap1\n      tag_24\n      jump\t// in\n    tag_23:\n      tag_25\n      jump\t// in\n    tag_22:\n      mload(0x40)\n      tag_26\n      swap2\n      swap1\n      tag_27\n      jump\t// in\n    tag_26:\n      mload(0x40)\n      dup1\n      swap2\n      sub\n      swap1\n      return\n        /* \"contracts/BTDTokenSwap.sol\":627:679  uint256 public constant BDT_ETH_RATE = 1910000000000 */\n    tag_6:\n      tag_28\n      tag_29\n      jump\t// in\n    tag_28:\n      mload(0x40)\n      tag_30\n      swap2\n      swap1\n      tag_27\n      jump\t// in\n    tag_30:\n      mload(0x40)\n      dup1\n      swap2\n      sub\n      swap1\n      return\n        /* \"contracts/BTDTokenSwap.sol\":538:585  uint256 public constant BDT_USDT_RATE = 7300000 */\n    tag_7:\n      tag_31\n      tag_32\n      jump\t// in\n    tag_31:\n      mload(0x40)\n      tag_33\n      swap2\n      swap1\n      tag_27\n      jump\t// in\n    tag_33:\n      mload(0x40)\n      dup1\n      swap2\n      sub\n      swap1\n      return\n        /* \"contracts/BTDTokenSwap.sol\":3774:5129  function getPrice() public pure returns (uint256) {... */\n    tag_8:\n      tag_34\n      tag_35\n      jump\t// in\n    tag_34:\n      mload(0x40)\n      tag_36\n      swap2\n      swap1\n      tag_27\n      jump\t// in\n    tag_36:\n      mload(0x40)\n      dup1\n      swap2\n      sub\n      swap1\n      return\n        /* \"contracts/BTDTokenSwap.sol\":478:501  IERC20 public tokenUSDT */\n    tag_9:\n      tag_37\n      tag_38\n      jump\t// in\n    tag_37:\n      mload(0x40)\n      tag_39\n      swap2\n      swap1\n      tag_17\n      jump\t// in\n    tag_39:\n      mload(0x40)\n      dup1\n      swap2\n      sub\n      swap1\n      return\n        /* \"contracts/BTDTokenSwap.sol\":2080:2845  function swap(uint256 _amount1, uint256 _amount2) public {... */\n    tag_10:\n      tag_40\n      0x04\n      dup1\n      calldatasize\n      sub\n      dup2\n      add\n      swap1\n      tag_41\n      swap2\n      swap1\n      tag_42\n      jump\t// in\n    tag_41:\n      tag_43\n      jump\t// in\n    tag_40:\n      stop\n        /* \"contracts/BTDTokenSwap.sol\":404:472  address public ownerBDT = 0x55585E22Ccd9cc2B4563Ba44e8a57867464b6250 */\n    tag_11:\n      tag_44\n      tag_45\n      jump\t// in\n    tag_44:\n      mload(0x40)\n      tag_46\n      swap2\n      swap1\n      tag_47\n      jump\t// in\n    tag_46:\n      mload(0x40)\n      dup1\n      swap2\n      sub\n      swap1\n      return\n        /* \"contracts/BTDTokenSwap.sol\":507:531  address public ownerUSDT */\n    tag_12:\n      tag_48\n      tag_49\n      jump\t// in\n    tag_48:\n      mload(0x40)\n      tag_50\n      swap2\n      swap1\n      tag_47\n      jump\t// in\n    tag_50:\n      mload(0x40)\n      dup1\n      swap2\n      sub\n      swap1\n      return\n        /* \"contracts/BTDTokenSwap.sol\":376:398  IERC20 public tokenBDT */\n    tag_15:\n      0x00\n      dup1\n      sload\n      swap1\n      0x0100\n      exp\n      swap1\n      div\n      0xffffffffffffffffffffffffffffffffffffffff\n      and\n      dup2\n      jump\t// out\n        /* \"contracts/BTDTokenSwap.sol\":1256:2072  function _safeBuyWithUSDT(address _tokenBDT, address _tokenUSDT,uint256 amountUSDT) external {... */\n    tag_21:\n        /* \"contracts/BTDTokenSwap.sol\":1366:1408  0x55585E22Ccd9cc2B4563Ba44e8a57867464b6250 */\n      0x55585e22ccd9cc2b4563ba44e8a57867464b6250\n        /* \"contracts/BTDTokenSwap.sol\":1355:1363  ownerBDT */\n      0x01\n      0x00\n        /* \"contracts/BTDTokenSwap.sol\":1355:1408  ownerBDT = 0x55585E22Ccd9cc2B4563Ba44e8a57867464b6250 */\n      0x0100\n      exp\n      dup2\n      sload\n      dup2\n      0xffffffffffffffffffffffffffffffffffffffff\n      mul\n      not\n      and\n      swap1\n      dup4\n      0xffffffffffffffffffffffffffffffffffffffff\n      and\n      mul\n      or\n      swap1\n      sstore\n      pop\n        /* \"contracts/BTDTokenSwap.sol\":1432:1441  _tokenBDT */\n      dup3\n        /* \"contracts/BTDTokenSwap.sol\":1414:1422  tokenBDT */\n      0x00\n      dup1\n        /* \"contracts/BTDTokenSwap.sol\":1414:1442  tokenBDT = IERC20(_tokenBDT) */\n      0x0100\n      exp\n      dup2\n      sload\n      dup2\n      0xffffffffffffffffffffffffffffffffffffffff\n      mul\n      not\n      and\n      swap1\n      dup4\n      0xffffffffffffffffffffffffffffffffffffffff\n      and\n      mul\n      or\n      swap1\n      sstore\n      pop\n        /* \"contracts/BTDTokenSwap.sol\":1467:1477  _tokenUSDT */\n      dup2\n        /* \"contracts/BTDTokenSwap.sol\":1448:1457  tokenUSDT */\n      0x02\n      0x00\n        /* \"contracts/BTDTokenSwap.sol\":1448:1478  tokenUSDT = IERC20(_tokenUSDT) */\n      0x0100\n      exp\n      dup2\n      sload\n      dup2\n      0xffffffffffffffffffffffffffffffffffffffff\n      mul\n      not\n      and\n      swap1\n      dup4\n      0xffffffffffffffffffffffffffffffffffffffff\n      and\n      mul\n      or\n      swap1\n      sstore\n      pop\n        /* \"contracts/BTDTokenSwap.sol\":1510:1511  0 */\n      0x00\n        /* \"contracts/BTDTokenSwap.sol\":1497:1507  amountUSDT */\n      dup2\n        /* \"contracts/BTDTokenSwap.sol\":1497:1511  amountUSDT > 0 */\n      gt\n        /* \"contracts/BTDTokenSwap.sol\":1489:1548  require(amountUSDT > 0, \"Amount must be greater than zero\") */\n      tag_52\n      jumpi\n      mload(0x40)\n      0x08c379a000000000000000000000000000000000000000000000000000000000\n      dup2\n      mstore\n      0x04\n      add\n      tag_53\n      swap1\n      tag_54\n      jump\t// in\n    tag_53:\n      mload(0x40)\n      dup1\n      swap2\n      sub\n      swap1\n      revert\n    tag_52:\n        /* \"contracts/BTDTokenSwap.sol\":1559:1576  uint256 bdtAmount */\n      0x00\n        /* \"contracts/BTDTokenSwap.sol\":578:585  7300000 */\n      0x6f63a0\n        /* \"contracts/BTDTokenSwap.sol\":1593:1596  1e6 */\n      0x0f4240\n        /* \"contracts/BTDTokenSwap.sol\":1580:1590  amountUSDT */\n      dup4\n        /* \"contracts/BTDTokenSwap.sol\":1580:1596  amountUSDT * 1e6 */\n      tag_55\n      swap2\n      swap1\n      tag_56\n      jump\t// in\n    tag_55:\n        /* \"contracts/BTDTokenSwap.sol\":1579:1613  (amountUSDT * 1e6) / BDT_USDT_RATE */\n      tag_57\n      swap2\n      swap1\n      tag_58\n      jump\t// in\n    tag_57:\n        /* \"contracts/BTDTokenSwap.sol\":1559:1613  uint256 bdtAmount = (amountUSDT * 1e6) / BDT_USDT_RATE */\n      swap1\n      pop\n        /* \"contracts/BTDTokenSwap.sol\":1681:1690  bdtAmount */\n      dup1\n        /* \"contracts/BTDTokenSwap.sol\":1644:1652  tokenBDT */\n      0x00\n      dup1\n      sload\n      swap1\n      0x0100\n      exp\n      swap1\n      div\n      0xffffffffffffffffffffffffffffffffffffffff\n      and\n        /* \"contracts/BTDTokenSwap.sol\":1644:1662  tokenBDT.balanceOf */\n      0xffffffffffffffffffffffffffffffffffffffff\n      and\n      0x70a08231\n        /* \"contracts/BTDTokenSwap.sol\":1671:1675  this */\n      address\n        /* \"contracts/BTDTokenSwap.sol\":1644:1677  tokenBDT.balanceOf(address(this)) */\n      mload(0x40)\n      dup3\n      0xffffffff\n      and\n      0xe0\n      shl\n      dup2\n      mstore\n      0x04\n      add\n      tag_59\n      swap2\n      swap1\n      tag_47\n      jump\t// in\n    tag_59:\n      0x20\n      mload(0x40)\n      dup1\n      dup4\n      sub\n      dup2\n      dup7\n      gas\n      staticcall\n      iszero\n      dup1\n      iszero\n      tag_61\n      jumpi\n      returndatasize\n      0x00\n      dup1\n      returndatacopy\n      revert(0x00, returndatasize)\n    tag_61:\n      pop\n      pop\n      pop\n      pop\n      mload(0x40)\n      returndatasize\n      not(0x1f)\n      0x1f\n      dup3\n      add\n      and\n      dup3\n      add\n      dup1\n      0x40\n      mstore\n      pop\n      dup2\n      add\n      swap1\n      tag_62\n      swap2\n      swap1\n      tag_63\n      jump\t// in\n    tag_62:\n        /* \"contracts/BTDTokenSwap.sol\":1644:1690  tokenBDT.balanceOf(address(this)) >= bdtAmount */\n      lt\n      iszero\n        /* \"contracts/BTDTokenSwap.sol\":1623:1753  require(... */\n      tag_64\n      jumpi\n      mload(0x40)\n      0x08c379a000000000000000000000000000000000000000000000000000000000\n      dup2\n      mstore\n      0x04\n      add\n      tag_65\n      swap1\n      tag_66\n      jump\t// in\n    tag_65:\n      mload(0x40)\n      dup1\n      swap2\n      sub\n      swap1\n      revert\n    tag_64:\n        /* \"contracts/BTDTokenSwap.sol\":1785:1794  tokenUSDT */\n      0x02\n      0x00\n      swap1\n      sload\n      swap1\n      0x0100\n      exp\n      swap1\n      div\n      0xffffffffffffffffffffffffffffffffffffffff\n      and\n        /* \"contracts/BTDTokenSwap.sol\":1785:1807  tokenUSDT.transferFrom */\n      0xffffffffffffffffffffffffffffffffffffffff\n      and\n      0x23b872dd\n        /* \"contracts/BTDTokenSwap.sol\":1808:1818  msg.sender */\n      caller\n        /* \"contracts/BTDTokenSwap.sol\":1820:1828  ownerBDT */\n      0x01\n      0x00\n      swap1\n      sload\n      swap1\n      0x0100\n      exp\n      swap1\n      div\n      0xffffffffffffffffffffffffffffffffffffffff\n      and\n        /* \"contracts/BTDTokenSwap.sol\":1830:1840  amountUSDT */\n      dup6\n        /* \"contracts/BTDTokenSwap.sol\":1785:1841  tokenUSDT.transferFrom(msg.sender, ownerBDT, amountUSDT) */\n      mload(0x40)\n      dup5\n      0xffffffff\n      and\n      0xe0\n      shl\n      dup2\n      mstore\n      0x04\n      add\n      tag_67\n      swap4\n      swap3\n      swap2\n      swap1\n      tag_68\n      jump\t// in\n    tag_67:\n      0x20\n      mload(0x40)\n      dup1\n      dup4\n      sub\n      dup2\n      0x00\n      dup8\n      gas\n      call\n      iszero\n      dup1\n      iszero\n      tag_70\n      jumpi\n      returndatasize\n      0x00\n      dup1\n      returndatacopy\n      revert(0x00, returndatasize)\n    tag_70:\n      pop\n      pop\n      pop\n      pop\n      mload(0x40)\n      returndatasize\n      not(0x1f)\n      0x1f\n      dup3\n      add\n      and\n      dup3\n      add\n      dup1\n      0x40\n      mstore\n      pop\n      dup2\n      add\n      swap1\n      tag_71\n      swap2\n      swap1\n      tag_72\n      jump\t// in\n    tag_71:\n        /* \"contracts/BTDTokenSwap.sol\":1764:1887  require(... */\n      tag_73\n      jumpi\n      mload(0x40)\n      0x08c379a000000000000000000000000000000000000000000000000000000000\n      dup2\n      mstore\n      0x04\n      add\n      tag_74\n      swap1\n      tag_75\n      jump\t// in\n    tag_74:\n      mload(0x40)\n      dup1\n      swap2\n      sub\n      swap1\n      revert\n    tag_73:\n        /* \"contracts/BTDTokenSwap.sol\":1918:1926  tokenBDT */\n      0x00\n      dup1\n      sload\n      swap1\n      0x0100\n      exp\n      swap1\n      div\n      0xffffffffffffffffffffffffffffffffffffffff\n      and\n        /* \"contracts/BTDTokenSwap.sol\":1918:1935  tokenBDT.transfer */\n      0xffffffffffffffffffffffffffffffffffffffff\n      and\n      0xa9059cbb\n        /* \"contracts/BTDTokenSwap.sol\":1936:1946  msg.sender */\n      caller\n        /* \"contracts/BTDTokenSwap.sol\":1948:1957  bdtAmount */\n      dup4\n        /* \"contracts/BTDTokenSwap.sol\":1918:1958  tokenBDT.transfer(msg.sender, bdtAmount) */\n      mload(0x40)\n      dup4\n      0xffffffff\n      and\n      0xe0\n      shl\n      dup2\n      mstore\n      0x04\n      add\n      tag_76\n      swap3\n      swap2\n      swap1\n      tag_77\n      jump\t// in\n    tag_76:\n      0x20\n      mload(0x40)\n      dup1\n      dup4\n      sub\n      dup2\n      0x00\n      dup8\n      gas\n      call\n      iszero\n      dup1\n      iszero\n      tag_79\n      jumpi\n      returndatasize\n      0x00\n      dup1\n      returndatacopy\n      revert(0x00, returndatasize)\n    tag_79:\n      pop\n      pop\n      pop\n      pop\n      mload(0x40)\n      returndatasize\n      not(0x1f)\n      0x1f\n      dup3\n      add\n      and\n      dup3\n      add\n      dup1\n      0x40\n      mstore\n      pop\n      dup2\n      add\n      swap1\n      tag_80\n      swap2\n      swap1\n      tag_72\n      jump\t// in\n    tag_80:\n        /* \"contracts/BTDTokenSwap.sol\":1897:2003  require(... */\n      tag_81\n      jumpi\n      mload(0x40)\n      0x08c379a000000000000000000000000000000000000000000000000000000000\n      dup2\n      mstore\n      0x04\n      add\n      tag_82\n      swap1\n      tag_83\n      jump\t// in\n    tag_82:\n      mload(0x40)\n      dup1\n      swap2\n      sub\n      swap1\n      revert\n    tag_81:\n        /* \"contracts/BTDTokenSwap.sol\":2035:2045  msg.sender */\n      caller\n        /* \"contracts/BTDTokenSwap.sol\":2019:2065  TokensPurchased(msg.sender, bdtAmount, \"USDT\") */\n      0xffffffffffffffffffffffffffffffffffffffff\n      and\n      0x9ffc61f9a5071474fc516dd5798d66ef34a007da20386052b5351504c0250cfe\n        /* \"contracts/BTDTokenSwap.sol\":2047:2056  bdtAmount */\n      dup3\n        /* \"contracts/BTDTokenSwap.sol\":2019:2065  TokensPurchased(msg.sender, bdtAmount, \"USDT\") */\n      mload(0x40)\n      tag_84\n      swap2\n      swap1\n      tag_85\n      jump\t// in\n    tag_84:\n      mload(0x40)\n      dup1\n      swap2\n      sub\n      swap1\n      log2\n        /* \"contracts/BTDTokenSwap.sol\":1349:2072  {... */\n      pop\n        /* \"contracts/BTDTokenSwap.sol\":1256:2072  function _safeBuyWithUSDT(address _tokenBDT, address _tokenUSDT,uint256 amountUSDT) external {... */\n      pop\n      pop\n      pop\n      jump\t// out\n        /* \"contracts/BTDTokenSwap.sol\":5194:5775  function getConversionRate(uint256 bdtAmount)... */\n    tag_25:\n        /* \"contracts/BTDTokenSwap.sol\":5285:5292  uint256 */\n      0x00\n        /* \"contracts/BTDTokenSwap.sol\":5352:5368  uint256 bdtPrice */\n      dup1\n        /* \"contracts/BTDTokenSwap.sol\":5371:5381  getPrice() */\n      tag_87\n        /* \"contracts/BTDTokenSwap.sol\":5371:5379  getPrice */\n      tag_35\n        /* \"contracts/BTDTokenSwap.sol\":5371:5381  getPrice() */\n      jump\t// in\n    tag_87:\n        /* \"contracts/BTDTokenSwap.sol\":5352:5381  uint256 bdtPrice = getPrice() */\n      swap1\n      pop\n        /* \"contracts/BTDTokenSwap.sol\":5391:5413  uint256 bdtAmountInUsd */\n      0x00\n        /* \"contracts/BTDTokenSwap.sol\":5441:5446  10E18 */\n      0x8ac7230489e80000\n        /* \"contracts/BTDTokenSwap.sol\":5428:5437  bdtAmount */\n      dup5\n        /* \"contracts/BTDTokenSwap.sol\":5417:5425  bdtPrice */\n      dup4\n        /* \"contracts/BTDTokenSwap.sol\":5417:5437  bdtPrice * bdtAmount */\n      tag_88\n      swap2\n      swap1\n      tag_56\n      jump\t// in\n    tag_88:\n        /* \"contracts/BTDTokenSwap.sol\":5416:5446  (bdtPrice * bdtAmount) / 10E18 */\n      tag_89\n      swap2\n      swap1\n      tag_58\n      jump\t// in\n    tag_89:\n        /* \"contracts/BTDTokenSwap.sol\":5391:5446  uint256 bdtAmountInUsd = (bdtPrice * bdtAmount) / 10E18 */\n      swap1\n      pop\n        /* \"contracts/BTDTokenSwap.sol\":5569:5583  bdtAmountInUsd */\n      dup1\n        /* \"contracts/BTDTokenSwap.sol\":5562:5583  return bdtAmountInUsd */\n      swap3\n      pop\n      pop\n      pop\n        /* \"contracts/BTDTokenSwap.sol\":5194:5775  function getConversionRate(uint256 bdtAmount)... */\n      swap2\n      swap1\n      pop\n      jump\t// out\n        /* \"contracts/BTDTokenSwap.sol\":627:679  uint256 public constant BDT_ETH_RATE = 1910000000000 */\n    tag_29:\n        /* \"contracts/BTDTokenSwap.sol\":666:679  1910000000000 */\n      0x01bcb4df1c00\n        /* \"contracts/BTDTokenSwap.sol\":627:679  uint256 public constant BDT_ETH_RATE = 1910000000000 */\n      dup2\n      jump\t// out\n        /* \"contracts/BTDTokenSwap.sol\":538:585  uint256 public constant BDT_USDT_RATE = 7300000 */\n    tag_32:\n        /* \"contracts/BTDTokenSwap.sol\":578:585  7300000 */\n      0x6f63a0\n        /* \"contracts/BTDTokenSwap.sol\":538:585  uint256 public constant BDT_USDT_RATE = 7300000 */\n      dup2\n      jump\t// out\n        /* \"contracts/BTDTokenSwap.sol\":3774:5129  function getPrice() public pure returns (uint256) {... */\n    tag_35:\n        /* \"contracts/BTDTokenSwap.sol\":3815:3822  uint256 */\n      0x00\n        /* \"contracts/BTDTokenSwap.sol\":3952:3965  int256 answer */\n      dup1\n        /* \"contracts/BTDTokenSwap.sol\":3968:3976  18822680 */\n      0x011f3618\n        /* \"contracts/BTDTokenSwap.sol\":3952:3976  int256 answer = 18822680 */\n      swap1\n      pop\n        /* \"contracts/BTDTokenSwap.sol\":5032:5043  10000000000 */\n      0x02540be400\n        /* \"contracts/BTDTokenSwap.sol\":5023:5029  answer */\n      dup2\n        /* \"contracts/BTDTokenSwap.sol\":5023:5043  answer * 10000000000 */\n      tag_91\n      swap2\n      swap1\n      tag_92\n      jump\t// in\n    tag_91:\n        /* \"contracts/BTDTokenSwap.sol\":5008:5044  return uint256(answer * 10000000000) */\n      swap2\n      pop\n      pop\n        /* \"contracts/BTDTokenSwap.sol\":3774:5129  function getPrice() public pure returns (uint256) {... */\n      swap1\n      jump\t// out\n        /* \"contracts/BTDTokenSwap.sol\":478:501  IERC20 public tokenUSDT */\n    tag_38:\n      0x02\n      0x00\n      swap1\n      sload\n      swap1\n      0x0100\n      exp\n      swap1\n      div\n      0xffffffffffffffffffffffffffffffffffffffff\n      and\n      dup2\n      jump\t// out\n        /* \"contracts/BTDTokenSwap.sol\":2080:2845  function swap(uint256 _amount1, uint256 _amount2) public {... */\n    tag_43:\n        /* \"contracts/BTDTokenSwap.sol\":2220:2228  ownerBDT */\n      0x01\n      0x00\n      swap1\n      sload\n      swap1\n      0x0100\n      exp\n      swap1\n      div\n      0xffffffffffffffffffffffffffffffffffffffff\n      and\n        /* \"contracts/BTDTokenSwap.sol\":2206:2228  msg.sender == ownerBDT */\n      0xffffffffffffffffffffffffffffffffffffffff\n      and\n        /* \"contracts/BTDTokenSwap.sol\":2206:2216  msg.sender */\n      caller\n        /* \"contracts/BTDTokenSwap.sol\":2206:2228  msg.sender == ownerBDT */\n      0xffffffffffffffffffffffffffffffffffffffff\n      and\n      eq\n        /* \"contracts/BTDTokenSwap.sol\":2206:2255  msg.sender == ownerBDT || msg.sender == ownerUSDT */\n      dup1\n      tag_94\n      jumpi\n      pop\n        /* \"contracts/BTDTokenSwap.sol\":2246:2255  ownerUSDT */\n      0x03\n      0x00\n      swap1\n      sload\n      swap1\n      0x0100\n      exp\n      swap1\n      div\n      0xffffffffffffffffffffffffffffffffffffffff\n      and\n        /* \"contracts/BTDTokenSwap.sol\":2232:2255  msg.sender == ownerUSDT */\n      0xffffffffffffffffffffffffffffffffffffffff\n      and\n        /* \"contracts/BTDTokenSwap.sol\":2232:2242  msg.sender */\n      caller\n        /* \"contracts/BTDTokenSwap.sol\":2232:2255  msg.sender == ownerUSDT */\n      0xffffffffffffffffffffffffffffffffffffffff\n      and\n      eq\n        /* \"contracts/BTDTokenSwap.sol\":2206:2255  msg.sender == ownerBDT || msg.sender == ownerUSDT */\n    tag_94:\n        /* \"contracts/BTDTokenSwap.sol\":2198:2274  require(msg.sender == ownerBDT || msg.sender == ownerUSDT, \"Not authorized\") */\n      tag_95\n      jumpi\n      mload(0x40)\n      0x08c379a000000000000000000000000000000000000000000000000000000000\n      dup2\n      mstore\n      0x04\n      add\n      tag_96\n      swap1\n      tag_97\n      jump\t// in\n    tag_96:\n      mload(0x40)\n      dup1\n      swap2\n      sub\n      swap1\n      revert\n    tag_95:\n        /* \"contracts/BTDTokenSwap.sol\":2352:2360  _amount1 */\n      dup2\n        /* \"contracts/BTDTokenSwap.sol\":2305:2313  tokenBDT */\n      0x00\n      dup1\n      sload\n      swap1\n      0x0100\n      exp\n      swap1\n      div\n      0xffffffffffffffffffffffffffffffffffffffff\n      and\n        /* \"contracts/BTDTokenSwap.sol\":2305:2323  tokenBDT.allowance */\n      0xffffffffffffffffffffffffffffffffffffffff\n      and\n      0xdd62ed3e\n        /* \"contracts/BTDTokenSwap.sol\":2324:2332  ownerBDT */\n      0x01\n      0x00\n      swap1\n      sload\n      swap1\n      0x0100\n      exp\n      swap1\n      div\n      0xffffffffffffffffffffffffffffffffffffffff\n      and\n        /* \"contracts/BTDTokenSwap.sol\":2342:2346  this */\n      address\n        /* \"contracts/BTDTokenSwap.sol\":2305:2348  tokenBDT.allowance(ownerBDT, address(this)) */\n      mload(0x40)\n      dup4\n      0xffffffff\n      and\n      0xe0\n      shl\n      dup2\n      mstore\n      0x04\n      add\n      tag_98\n      swap3\n      swap2\n      swap1\n      tag_99\n      jump\t// in\n    tag_98:\n      0x20\n      mload(0x40)\n      dup1\n      dup4\n      sub\n      dup2\n      dup7\n      gas\n      staticcall\n      iszero\n      dup1\n      iszero\n      tag_101\n      jumpi\n      returndatasize\n      0x00\n      dup1\n      returndatacopy\n      revert(0x00, returndatasize)\n    tag_101:\n      pop\n      pop\n      pop\n      pop\n      mload(0x40)\n      returndatasize\n      not(0x1f)\n      0x1f\n      dup3\n      add\n      and\n      dup3\n      add\n      dup1\n      0x40\n      mstore\n      pop\n      dup2\n      add\n      swap1\n      tag_102\n      swap2\n      swap1\n      tag_63\n      jump\t// in\n    tag_102:\n        /* \"contracts/BTDTokenSwap.sol\":2305:2360  tokenBDT.allowance(ownerBDT, address(this)) >= _amount1 */\n      lt\n      iszero\n        /* \"contracts/BTDTokenSwap.sol\":2284:2410  require(... */\n      tag_103\n      jumpi\n      mload(0x40)\n      0x08c379a000000000000000000000000000000000000000000000000000000000\n      dup2\n      mstore\n      0x04\n      add\n      tag_104\n      swap1\n      tag_105\n      jump\t// in\n    tag_104:\n      mload(0x40)\n      dup1\n      swap2\n      sub\n      swap1\n      revert\n    tag_103:\n        /* \"contracts/BTDTokenSwap.sol\":2490:2498  _amount2 */\n      dup1\n        /* \"contracts/BTDTokenSwap.sol\":2441:2450  tokenUSDT */\n      0x02\n      0x00\n      swap1\n      sload\n      swap1\n      0x0100\n      exp\n      swap1\n      div\n      0xffffffffffffffffffffffffffffffffffffffff\n      and\n        /* \"contracts/BTDTokenSwap.sol\":2441:2460  tokenUSDT.allowance */\n      0xffffffffffffffffffffffffffffffffffffffff\n      and\n      0xdd62ed3e\n        /* \"contracts/BTDTokenSwap.sol\":2461:2470  ownerUSDT */\n      0x03\n      0x00\n      swap1\n      sload\n      swap1\n      0x0100\n      exp\n      swap1\n      div\n      0xffffffffffffffffffffffffffffffffffffffff\n      and\n        /* \"contracts/BTDTokenSwap.sol\":2480:2484  this */\n      address\n        /* \"contracts/BTDTokenSwap.sol\":2441:2486  tokenUSDT.allowance(ownerUSDT, address(this)) */\n      mload(0x40)\n      dup4\n      0xffffffff\n      and\n      0xe0\n      shl\n      dup2\n      mstore\n      0x04\n      add\n      tag_106\n      swap3\n      swap2\n      swap1\n      tag_99\n      jump\t// in\n    tag_106:\n      0x20\n      mload(0x40)\n      dup1\n      dup4\n      sub\n      dup2\n      dup7\n      gas\n      staticcall\n      iszero\n      dup1\n      iszero\n      tag_108\n      jumpi\n      returndatasize\n      0x00\n      dup1\n      returndatacopy\n      revert(0x00, returndatasize)\n    tag_108:\n      pop\n      pop\n      pop\n      pop\n      mload(0x40)\n      returndatasize\n      not(0x1f)\n      0x1f\n      dup3\n      add\n      and\n      dup3\n      add\n      dup1\n      0x40\n      mstore\n      pop\n      dup2\n      add\n      swap1\n      tag_109\n      swap2\n      swap1\n      tag_63\n      jump\t// in\n    tag_109:\n        /* \"contracts/BTDTokenSwap.sol\":2441:2498  tokenUSDT.allowance(ownerUSDT, address(this)) >= _amount2 */\n      lt\n      iszero\n        /* \"contracts/BTDTokenSwap.sol\":2420:2548  require(... */\n      tag_110\n      jumpi\n      mload(0x40)\n      0x08c379a000000000000000000000000000000000000000000000000000000000\n      dup2\n      mstore\n      0x04\n      add\n      tag_111\n      swap1\n      tag_112\n      jump\t// in\n    tag_111:\n      mload(0x40)\n      dup1\n      swap2\n      sub\n      swap1\n      revert\n    tag_110:\n        /* \"contracts/BTDTokenSwap.sol\":2643:2706  _saferTransferFromUSDT(tokenBDT, ownerBDT, ownerUSDT, _amount1) */\n      tag_113\n        /* \"contracts/BTDTokenSwap.sol\":2666:2674  tokenBDT */\n      0x00\n      dup1\n      sload\n      swap1\n      0x0100\n      exp\n      swap1\n      div\n      0xffffffffffffffffffffffffffffffffffffffff\n      and\n        /* \"contracts/BTDTokenSwap.sol\":2676:2684  ownerBDT */\n      0x01\n      0x00\n      swap1\n      sload\n      swap1\n      0x0100\n      exp\n      swap1\n      div\n      0xffffffffffffffffffffffffffffffffffffffff\n      and\n        /* \"contracts/BTDTokenSwap.sol\":2686:2695  ownerUSDT */\n      0x03\n      0x00\n      swap1\n      sload\n      swap1\n      0x0100\n      exp\n      swap1\n      div\n      0xffffffffffffffffffffffffffffffffffffffff\n      and\n        /* \"contracts/BTDTokenSwap.sol\":2697:2705  _amount1 */\n      dup6\n        /* \"contracts/BTDTokenSwap.sol\":2643:2665  _saferTransferFromUSDT */\n      tag_114\n        /* \"contracts/BTDTokenSwap.sol\":2643:2706  _saferTransferFromUSDT(tokenBDT, ownerBDT, ownerUSDT, _amount1) */\n      jump\t// in\n    tag_113:\n        /* \"contracts/BTDTokenSwap.sol\":2774:2838  _saferTransferFromUSDT(tokenUSDT, ownerUSDT, ownerBDT, _amount2) */\n      tag_115\n        /* \"contracts/BTDTokenSwap.sol\":2797:2806  tokenUSDT */\n      0x02\n      0x00\n      swap1\n      sload\n      swap1\n      0x0100\n      exp\n      swap1\n      div\n      0xffffffffffffffffffffffffffffffffffffffff\n      and\n        /* \"contracts/BTDTokenSwap.sol\":2808:2817  ownerUSDT */\n      0x03\n      0x00\n      swap1\n      sload\n      swap1\n      0x0100\n      exp\n      swap1\n      div\n      0xffffffffffffffffffffffffffffffffffffffff\n      and\n        /* \"contracts/BTDTokenSwap.sol\":2819:2827  ownerBDT */\n      0x01\n      0x00\n      swap1\n      sload\n      swap1\n      0x0100\n      exp\n      swap1\n      div\n      0xffffffffffffffffffffffffffffffffffffffff\n      and\n        /* \"contracts/BTDTokenSwap.sol\":2829:2837  _amount2 */\n      dup5\n        /* \"contracts/BTDTokenSwap.sol\":2774:2796  _saferTransferFromUSDT */\n      tag_114\n        /* \"contracts/BTDTokenSwap.sol\":2774:2838  _saferTransferFromUSDT(tokenUSDT, ownerUSDT, ownerBDT, _amount2) */\n      jump\t// in\n    tag_115:\n        /* \"contracts/BTDTokenSwap.sol\":2080:2845  function swap(uint256 _amount1, uint256 _amount2) public {... */\n      pop\n      pop\n      jump\t// out\n        /* \"contracts/BTDTokenSwap.sol\":404:472  address public ownerBDT = 0x55585E22Ccd9cc2B4563Ba44e8a57867464b6250 */\n    tag_45:\n      0x01\n      0x00\n      swap1\n      sload\n      swap1\n      0x0100\n      exp\n      swap1\n      div\n      0xffffffffffffffffffffffffffffffffffffffff\n      and\n      dup2\n      jump\t// out\n        /* \"contracts/BTDTokenSwap.sol\":507:531  address public ownerUSDT */\n    tag_49:\n      0x03\n      0x00\n      swap1\n      sload\n      swap1\n      0x0100\n      exp\n      swap1\n      div\n      0xffffffffffffffffffffffffffffffffffffffff\n      and\n      dup2\n      jump\t// out\n        /* \"contracts/BTDTokenSwap.sol\":2851:3307  function _saferTransferFromUSDT(... */\n    tag_114:\n        /* \"contracts/BTDTokenSwap.sol\":3098:3108  _tokenUSDT */\n      dup4\n        /* \"contracts/BTDTokenSwap.sol\":3086:3095  tokenUSDT */\n      0x02\n      0x00\n        /* \"contracts/BTDTokenSwap.sol\":3086:3108  tokenUSDT = _tokenUSDT */\n      0x0100\n      exp\n      dup2\n      sload\n      dup2\n      0xffffffffffffffffffffffffffffffffffffffff\n      mul\n      not\n      and\n      swap1\n      dup4\n      0xffffffffffffffffffffffffffffffffffffffff\n      and\n      mul\n      or\n      swap1\n      sstore\n      pop\n        /* \"contracts/BTDTokenSwap.sol\":3139:3140  0 */\n      0x00\n        /* \"contracts/BTDTokenSwap.sol\":3126:3136  amountUSDT */\n      dup2\n        /* \"contracts/BTDTokenSwap.sol\":3126:3140  amountUSDT > 0 */\n      gt\n        /* \"contracts/BTDTokenSwap.sol\":3118:3177  require(amountUSDT > 0, \"Amount must be greater than zero\") */\n      tag_117\n      jumpi\n      mload(0x40)\n      0x08c379a000000000000000000000000000000000000000000000000000000000\n      dup2\n      mstore\n      0x04\n      add\n      tag_118\n      swap1\n      tag_54\n      jump\t// in\n    tag_118:\n      mload(0x40)\n      dup1\n      swap2\n      sub\n      swap1\n      revert\n    tag_117:\n        /* \"contracts/BTDTokenSwap.sol\":3187:3196  bool sent */\n      0x00\n        /* \"contracts/BTDTokenSwap.sol\":3199:3208  tokenUSDT */\n      0x02\n      0x00\n      swap1\n      sload\n      swap1\n      0x0100\n      exp\n      swap1\n      div\n      0xffffffffffffffffffffffffffffffffffffffff\n      and\n        /* \"contracts/BTDTokenSwap.sol\":3199:3221  tokenUSDT.transferFrom */\n      0xffffffffffffffffffffffffffffffffffffffff\n      and\n      0x23b872dd\n        /* \"contracts/BTDTokenSwap.sol\":3222:3228  sender */\n      dup6\n        /* \"contracts/BTDTokenSwap.sol\":3230:3239  recipient */\n      dup6\n        /* \"contracts/BTDTokenSwap.sol\":3241:3251  amountUSDT */\n      dup6\n        /* \"contracts/BTDTokenSwap.sol\":3199:3252  tokenUSDT.transferFrom(sender, recipient, amountUSDT) */\n      mload(0x40)\n      dup5\n      0xffffffff\n      and\n      0xe0\n      shl\n      dup2\n      mstore\n      0x04\n      add\n      tag_119\n      swap4\n      swap3\n      swap2\n      swap1\n      tag_68\n      jump\t// in\n    tag_119:\n      0x20\n      mload(0x40)\n      dup1\n      dup4\n      sub\n      dup2\n      0x00\n      dup8\n      gas\n      call\n      iszero\n      dup1\n      iszero\n      tag_121\n      jumpi\n      returndatasize\n      0x00\n      dup1\n      returndatacopy\n      revert(0x00, returndatasize)\n    tag_121:\n      pop\n      pop\n      pop\n      pop\n      mload(0x40)\n      returndatasize\n      not(0x1f)\n      0x1f\n      dup3\n      add\n      and\n      dup3\n      add\n      dup1\n      0x40\n      mstore\n      pop\n      dup2\n      add\n      swap1\n      tag_122\n      swap2\n      swap1\n      tag_72\n      jump\t// in\n    tag_122:\n        /* \"contracts/BTDTokenSwap.sol\":3187:3252  bool sent = tokenUSDT.transferFrom(sender, recipient, amountUSDT) */\n      swap1\n      pop\n        /* \"contracts/BTDTokenSwap.sol\":3270:3274  sent */\n      dup1\n        /* \"contracts/BTDTokenSwap.sol\":3262:3300  require(sent, \"Token transfer failed\") */\n      tag_123\n      jumpi\n      mload(0x40)\n      0x08c379a000000000000000000000000000000000000000000000000000000000\n      dup2\n      mstore\n      0x04\n      add\n      tag_124\n      swap1\n      tag_125\n      jump\t// in\n    tag_124:\n      mload(0x40)\n      dup1\n      swap2\n      sub\n      swap1\n      revert\n    tag_123:\n        /* \"contracts/BTDTokenSwap.sol\":3003:3307  {... */\n      pop\n        /* \"contracts/BTDTokenSwap.sol\":2851:3307  function _saferTransferFromUSDT(... */\n      pop\n      pop\n      pop\n      pop\n      jump\t// out\n        /* \"#utility.yul\":7:133   */\n    tag_126:\n        /* \"#utility.yul\":44:51   */\n      0x00\n        /* \"#utility.yul\":84:126   */\n      0xffffffffffffffffffffffffffffffffffffffff\n        /* \"#utility.yul\":77:82   */\n      dup3\n        /* \"#utility.yul\":73:127   */\n      and\n        /* \"#utility.yul\":62:127   */\n      swap1\n      pop\n        /* \"#utility.yul\":7:133   */\n      swap2\n      swap1\n      pop\n      jump\t// out\n        /* \"#utility.yul\":139:199   */\n    tag_127:\n        /* \"#utility.yul\":167:170   */\n      0x00\n        /* \"#utility.yul\":188:193   */\n      dup2\n        /* \"#utility.yul\":181:193   */\n      swap1\n      pop\n        /* \"#utility.yul\":139:199   */\n      swap2\n      swap1\n      pop\n      jump\t// out\n        /* \"#utility.yul\":205:347   */\n    tag_128:\n        /* \"#utility.yul\":255:264   */\n      0x00\n        /* \"#utility.yul\":288:341   */\n      tag_173\n        /* \"#utility.yul\":306:340   */\n      tag_174\n        /* \"#utility.yul\":315:339   */\n      tag_175\n        /* \"#utility.yul\":333:338   */\n      dup5\n        /* \"#utility.yul\":315:339   */\n      tag_126\n      jump\t// in\n    tag_175:\n        /* \"#utility.yul\":306:340   */\n      tag_127\n      jump\t// in\n    tag_174:\n        /* \"#utility.yul\":288:341   */\n      tag_126\n      jump\t// in\n    tag_173:\n        /* \"#utility.yul\":275:341   */\n      swap1\n      pop\n        /* \"#utility.yul\":205:347   */\n      swap2\n      swap1\n      pop\n      jump\t// out\n        /* \"#utility.yul\":353:479   */\n    tag_129:\n        /* \"#utility.yul\":403:412   */\n      0x00\n        /* \"#utility.yul\":436:473   */\n      tag_177\n        /* \"#utility.yul\":467:472   */\n      dup3\n        /* \"#utility.yul\":436:473   */\n      tag_128\n      jump\t// in\n    tag_177:\n        /* \"#utility.yul\":423:473   */\n      swap1\n      pop\n        /* \"#utility.yul\":353:479   */\n      swap2\n      swap1\n      pop\n      jump\t// out\n        /* \"#utility.yul\":485:625   */\n    tag_130:\n        /* \"#utility.yul\":549:558   */\n      0x00\n        /* \"#utility.yul\":582:619   */\n      tag_179\n        /* \"#utility.yul\":613:618   */\n      dup3\n        /* \"#utility.yul\":582:619   */\n      tag_129\n      jump\t// in\n    tag_179:\n        /* \"#utility.yul\":569:619   */\n      swap1\n      pop\n        /* \"#utility.yul\":485:625   */\n      swap2\n      swap1\n      pop\n      jump\t// out\n        /* \"#utility.yul\":631:790   */\n    tag_131:\n        /* \"#utility.yul\":732:783   */\n      tag_181\n        /* \"#utility.yul\":777:782   */\n      dup2\n        /* \"#utility.yul\":732:783   */\n      tag_130\n      jump\t// in\n    tag_181:\n        /* \"#utility.yul\":727:730   */\n      dup3\n        /* \"#utility.yul\":720:784   */\n      mstore\n        /* \"#utility.yul\":631:790   */\n      pop\n      pop\n      jump\t// out\n        /* \"#utility.yul\":796:1046   */\n    tag_17:\n        /* \"#utility.yul\":903:907   */\n      0x00\n        /* \"#utility.yul\":941:943   */\n      0x20\n        /* \"#utility.yul\":930:939   */\n      dup3\n        /* \"#utility.yul\":926:944   */\n      add\n        /* \"#utility.yul\":918:944   */\n      swap1\n      pop\n        /* \"#utility.yul\":954:1039   */\n      tag_183\n        /* \"#utility.yul\":1036:1037   */\n      0x00\n        /* \"#utility.yul\":1025:1034   */\n      dup4\n        /* \"#utility.yul\":1021:1038   */\n      add\n        /* \"#utility.yul\":1012:1018   */\n      dup5\n        /* \"#utility.yul\":954:1039   */\n      tag_131\n      jump\t// in\n    tag_183:\n        /* \"#utility.yul\":796:1046   */\n      swap3\n      swap2\n      pop\n      pop\n      jump\t// out\n        /* \"#utility.yul\":1133:1250   */\n    tag_133:\n        /* \"#utility.yul\":1242:1243   */\n      0x00\n        /* \"#utility.yul\":1239:1240   */\n      dup1\n        /* \"#utility.yul\":1232:1244   */\n      revert\n        /* \"#utility.yul\":1379:1475   */\n    tag_135:\n        /* \"#utility.yul\":1416:1423   */\n      0x00\n        /* \"#utility.yul\":1445:1469   */\n      tag_188\n        /* \"#utility.yul\":1463:1468   */\n      dup3\n        /* \"#utility.yul\":1445:1469   */\n      tag_126\n      jump\t// in\n    tag_188:\n        /* \"#utility.yul\":1434:1469   */\n      swap1\n      pop\n        /* \"#utility.yul\":1379:1475   */\n      swap2\n      swap1\n      pop\n      jump\t// out\n        /* \"#utility.yul\":1481:1603   */\n    tag_136:\n        /* \"#utility.yul\":1554:1578   */\n      tag_190\n        /* \"#utility.yul\":1572:1577   */\n      dup2\n        /* \"#utility.yul\":1554:1578   */\n      tag_135\n      jump\t// in\n    tag_190:\n        /* \"#utility.yul\":1547:1552   */\n      dup2\n        /* \"#utility.yul\":1544:1579   */\n      eq\n        /* \"#utility.yul\":1534:1597   */\n      tag_191\n      jumpi\n        /* \"#utility.yul\":1593:1594   */\n      0x00\n        /* \"#utility.yul\":1590:1591   */\n      dup1\n        /* \"#utility.yul\":1583:1595   */\n      revert\n        /* \"#utility.yul\":1534:1597   */\n    tag_191:\n        /* \"#utility.yul\":1481:1603   */\n      pop\n      jump\t// out\n        /* \"#utility.yul\":1609:1748   */\n    tag_137:\n        /* \"#utility.yul\":1655:1660   */\n      0x00\n        /* \"#utility.yul\":1693:1699   */\n      dup2\n        /* \"#utility.yul\":1680:1700   */\n      calldataload\n        /* \"#utility.yul\":1671:1700   */\n      swap1\n      pop\n        /* \"#utility.yul\":1709:1742   */\n      tag_193\n        /* \"#utility.yul\":1736:1741   */\n      dup2\n        /* \"#utility.yul\":1709:1742   */\n      tag_136\n      jump\t// in\n    tag_193:\n        /* \"#utility.yul\":1609:1748   */\n      swap3\n      swap2\n      pop\n      pop\n      jump\t// out\n        /* \"#utility.yul\":1754:1831   */\n    tag_138:\n        /* \"#utility.yul\":1791:1798   */\n      0x00\n        /* \"#utility.yul\":1820:1825   */\n      dup2\n        /* \"#utility.yul\":1809:1825   */\n      swap1\n      pop\n        /* \"#utility.yul\":1754:1831   */\n      swap2\n      swap1\n      pop\n      jump\t// out\n        /* \"#utility.yul\":1837:1959   */\n    tag_139:\n        /* \"#utility.yul\":1910:1934   */\n      tag_196\n        /* \"#utility.yul\":1928:1933   */\n      dup2\n        /* \"#utility.yul\":1910:1934   */\n      tag_138\n      jump\t// in\n    tag_196:\n        /* \"#utility.yul\":1903:1908   */\n      dup2\n        /* \"#utility.yul\":1900:1935   */\n      eq\n        /* \"#utility.yul\":1890:1953   */\n      tag_197\n      jumpi\n        /* \"#utility.yul\":1949:1950   */\n      0x00\n        /* \"#utility.yul\":1946:1947   */\n      dup1\n        /* \"#utility.yul\":1939:1951   */\n      revert\n        /* \"#utility.yul\":1890:1953   */\n    tag_197:\n        /* \"#utility.yul\":1837:1959   */\n      pop\n      jump\t// out\n        /* \"#utility.yul\":1965:2104   */\n    tag_140:\n        /* \"#utility.yul\":2011:2016   */\n      0x00\n        /* \"#utility.yul\":2049:2055   */\n      dup2\n        /* \"#utility.yul\":2036:2056   */\n      calldataload\n        /* \"#utility.yul\":2027:2056   */\n      swap1\n      pop\n        /* \"#utility.yul\":2065:2098   */\n      tag_199\n        /* \"#utility.yul\":2092:2097   */\n      dup2\n        /* \"#utility.yul\":2065:2098   */\n      tag_139\n      jump\t// in\n    tag_199:\n        /* \"#utility.yul\":1965:2104   */\n      swap3\n      swap2\n      pop\n      pop\n      jump\t// out\n        /* \"#utility.yul\":2110:2729   */\n    tag_20:\n        /* \"#utility.yul\":2187:2193   */\n      0x00\n        /* \"#utility.yul\":2195:2201   */\n      dup1\n        /* \"#utility.yul\":2203:2209   */\n      0x00\n        /* \"#utility.yul\":2252:2254   */\n      0x60\n        /* \"#utility.yul\":2240:2249   */\n      dup5\n        /* \"#utility.yul\":2231:2238   */\n      dup7\n        /* \"#utility.yul\":2227:2250   */\n      sub\n        /* \"#utility.yul\":2223:2255   */\n      slt\n        /* \"#utility.yul\":2220:2339   */\n      iszero\n      tag_201\n      jumpi\n        /* \"#utility.yul\":2258:2337   */\n      tag_202\n      tag_133\n      jump\t// in\n    tag_202:\n        /* \"#utility.yul\":2220:2339   */\n    tag_201:\n        /* \"#utility.yul\":2378:2379   */\n      0x00\n        /* \"#utility.yul\":2403:2456   */\n      tag_203\n        /* \"#utility.yul\":2448:2455   */\n      dup7\n        /* \"#utility.yul\":2439:2445   */\n      dup3\n        /* \"#utility.yul\":2428:2437   */\n      dup8\n        /* \"#utility.yul\":2424:2446   */\n      add\n        /* \"#utility.yul\":2403:2456   */\n      tag_137\n      jump\t// in\n    tag_203:\n        /* \"#utility.yul\":2393:2456   */\n      swap4\n      pop\n        /* \"#utility.yul\":2349:2466   */\n      pop\n        /* \"#utility.yul\":2505:2507   */\n      0x20\n        /* \"#utility.yul\":2531:2584   */\n      tag_204\n        /* \"#utility.yul\":2576:2583   */\n      dup7\n        /* \"#utility.yul\":2567:2573   */\n      dup3\n        /* \"#utility.yul\":2556:2565   */\n      dup8\n        /* \"#utility.yul\":2552:2574   */\n      add\n        /* \"#utility.yul\":2531:2584   */\n      tag_137\n      jump\t// in\n    tag_204:\n        /* \"#utility.yul\":2521:2584   */\n      swap3\n      pop\n        /* \"#utility.yul\":2476:2594   */\n      pop\n        /* \"#utility.yul\":2633:2635   */\n      0x40\n        /* \"#utility.yul\":2659:2712   */\n      tag_205\n        /* \"#utility.yul\":2704:2711   */\n      dup7\n        /* \"#utility.yul\":2695:2701   */\n      dup3\n        /* \"#utility.yul\":2684:2693   */\n      dup8\n        /* \"#utility.yul\":2680:2702   */\n      add\n        /* \"#utility.yul\":2659:2712   */\n      tag_140\n      jump\t// in\n    tag_205:\n        /* \"#utility.yul\":2649:2712   */\n      swap2\n      pop\n        /* \"#utility.yul\":2604:2722   */\n      pop\n        /* \"#utility.yul\":2110:2729   */\n      swap3\n      pop\n      swap3\n      pop\n      swap3\n      jump\t// out\n        /* \"#utility.yul\":2735:3064   */\n    tag_24:\n        /* \"#utility.yul\":2794:2800   */\n      0x00\n        /* \"#utility.yul\":2843:2845   */\n      0x20\n        /* \"#utility.yul\":2831:2840   */\n      dup3\n        /* \"#utility.yul\":2822:2829   */\n      dup5\n        /* \"#utility.yul\":2818:2841   */\n      sub\n        /* \"#utility.yul\":2814:2846   */\n      slt\n        /* \"#utility.yul\":2811:2930   */\n      iszero\n      tag_207\n      jumpi\n        /* \"#utility.yul\":2849:2928   */\n      tag_208\n      tag_133\n      jump\t// in\n    tag_208:\n        /* \"#utility.yul\":2811:2930   */\n    tag_207:\n        /* \"#utility.yul\":2969:2970   */\n      0x00\n        /* \"#utility.yul\":2994:3047   */\n      tag_209\n        /* \"#utility.yul\":3039:3046   */\n      dup5\n        /* \"#utility.yul\":3030:3036   */\n      dup3\n        /* \"#utility.yul\":3019:3028   */\n      dup6\n        /* \"#utility.yul\":3015:3037   */\n      add\n        /* \"#utility.yul\":2994:3047   */\n      tag_140\n      jump\t// in\n    tag_209:\n        /* \"#utility.yul\":2984:3047   */\n      swap2\n      pop\n        /* \"#utility.yul\":2940:3057   */\n      pop\n        /* \"#utility.yul\":2735:3064   */\n      swap3\n      swap2\n      pop\n      pop\n      jump\t// out\n        /* \"#utility.yul\":3070:3188   */\n    tag_141:\n        /* \"#utility.yul\":3157:3181   */\n      tag_211\n        /* \"#utility.yul\":3175:3180   */\n      dup2\n        /* \"#utility.yul\":3157:3181   */\n      tag_138\n      jump\t// in\n    tag_211:\n        /* \"#utility.yul\":3152:3155   */\n      dup3\n        /* \"#utility.yul\":3145:3182   */\n      mstore\n        /* \"#utility.yul\":3070:3188   */\n      pop\n      pop\n      jump\t// out\n        /* \"#utility.yul\":3194:3416   */\n    tag_27:\n        /* \"#utility.yul\":3287:3291   */\n      0x00\n        /* \"#utility.yul\":3325:3327   */\n      0x20\n        /* \"#utility.yul\":3314:3323   */\n      dup3\n        /* \"#utility.yul\":3310:3328   */\n      add\n        /* \"#utility.yul\":3302:3328   */\n      swap1\n      pop\n        /* \"#utility.yul\":3338:3409   */\n      tag_213\n        /* \"#utility.yul\":3406:3407   */\n      0x00\n        /* \"#utility.yul\":3395:3404   */\n      dup4\n        /* \"#utility.yul\":3391:3408   */\n      add\n        /* \"#utility.yul\":3382:3388   */\n      dup5\n        /* \"#utility.yul\":3338:3409   */\n      tag_141\n      jump\t// in\n    tag_213:\n        /* \"#utility.yul\":3194:3416   */\n      swap3\n      swap2\n      pop\n      pop\n      jump\t// out\n        /* \"#utility.yul\":3422:3896   */\n    tag_42:\n        /* \"#utility.yul\":3490:3496   */\n      0x00\n        /* \"#utility.yul\":3498:3504   */\n      dup1\n        /* \"#utility.yul\":3547:3549   */\n      0x40\n        /* \"#utility.yul\":3535:3544   */\n      dup4\n        /* \"#utility.yul\":3526:3533   */\n      dup6\n        /* \"#utility.yul\":3522:3545   */\n      sub\n        /* \"#utility.yul\":3518:3550   */\n      slt\n        /* \"#utility.yul\":3515:3634   */\n      iszero\n      tag_215\n      jumpi\n        /* \"#utility.yul\":3553:3632   */\n      tag_216\n      tag_133\n      jump\t// in\n    tag_216:\n        /* \"#utility.yul\":3515:3634   */\n    tag_215:\n        /* \"#utility.yul\":3673:3674   */\n      0x00\n        /* \"#utility.yul\":3698:3751   */\n      tag_217\n        /* \"#utility.yul\":3743:3750   */\n      dup6\n        /* \"#utility.yul\":3734:3740   */\n      dup3\n        /* \"#utility.yul\":3723:3732   */\n      dup7\n        /* \"#utility.yul\":3719:3741   */\n      add\n        /* \"#utility.yul\":3698:3751   */\n      tag_140\n      jump\t// in\n    tag_217:\n        /* \"#utility.yul\":3688:3751   */\n      swap3\n      pop\n        /* \"#utility.yul\":3644:3761   */\n      pop\n        /* \"#utility.yul\":3800:3802   */\n      0x20\n        /* \"#utility.yul\":3826:3879   */\n      tag_218\n        /* \"#utility.yul\":3871:3878   */\n      dup6\n        /* \"#utility.yul\":3862:3868   */\n      dup3\n        /* \"#utility.yul\":3851:3860   */\n      dup7\n        /* \"#utility.yul\":3847:3869   */\n      add\n        /* \"#utility.yul\":3826:3879   */\n      tag_140\n      jump\t// in\n    tag_218:\n        /* \"#utility.yul\":3816:3879   */\n      swap2\n      pop\n        /* \"#utility.yul\":3771:3889   */\n      pop\n        /* \"#utility.yul\":3422:3896   */\n      swap3\n      pop\n      swap3\n      swap1\n      pop\n      jump\t// out\n        /* \"#utility.yul\":3902:4020   */\n    tag_142:\n        /* \"#utility.yul\":3989:4013   */\n      tag_220\n        /* \"#utility.yul\":4007:4012   */\n      dup2\n        /* \"#utility.yul\":3989:4013   */\n      tag_135\n      jump\t// in\n    tag_220:\n        /* \"#utility.yul\":3984:3987   */\n      dup3\n        /* \"#utility.yul\":3977:4014   */\n      mstore\n        /* \"#utility.yul\":3902:4020   */\n      pop\n      pop\n      jump\t// out\n        /* \"#utility.yul\":4026:4248   */\n    tag_47:\n        /* \"#utility.yul\":4119:4123   */\n      0x00\n        /* \"#utility.yul\":4157:4159   */\n      0x20\n        /* \"#utility.yul\":4146:4155   */\n      dup3\n        /* \"#utility.yul\":4142:4160   */\n      add\n        /* \"#utility.yul\":4134:4160   */\n      swap1\n      pop\n        /* \"#utility.yul\":4170:4241   */\n      tag_222\n        /* \"#utility.yul\":4238:4239   */\n      0x00\n        /* \"#utility.yul\":4227:4236   */\n      dup4\n        /* \"#utility.yul\":4223:4240   */\n      add\n        /* \"#utility.yul\":4214:4220   */\n      dup5\n        /* \"#utility.yul\":4170:4241   */\n      tag_142\n      jump\t// in\n    tag_222:\n        /* \"#utility.yul\":4026:4248   */\n      swap3\n      swap2\n      pop\n      pop\n      jump\t// out\n        /* \"#utility.yul\":4254:4423   */\n    tag_143:\n        /* \"#utility.yul\":4338:4349   */\n      0x00\n        /* \"#utility.yul\":4372:4378   */\n      dup3\n        /* \"#utility.yul\":4367:4370   */\n      dup3\n        /* \"#utility.yul\":4360:4379   */\n      mstore\n        /* \"#utility.yul\":4412:4416   */\n      0x20\n        /* \"#utility.yul\":4407:4410   */\n      dup3\n        /* \"#utility.yul\":4403:4417   */\n      add\n        /* \"#utility.yul\":4388:4417   */\n      swap1\n      pop\n        /* \"#utility.yul\":4254:4423   */\n      swap3\n      swap2\n      pop\n      pop\n      jump\t// out\n        /* \"#utility.yul\":4429:4611   */\n    tag_144:\n        /* \"#utility.yul\":4569:4603   */\n      0x416d6f756e74206d7573742062652067726561746572207468616e207a65726f\n        /* \"#utility.yul\":4565:4566   */\n      0x00\n        /* \"#utility.yul\":4557:4563   */\n      dup3\n        /* \"#utility.yul\":4553:4567   */\n      add\n        /* \"#utility.yul\":4546:4604   */\n      mstore\n        /* \"#utility.yul\":4429:4611   */\n      pop\n      jump\t// out\n        /* \"#utility.yul\":4617:4983   */\n    tag_145:\n        /* \"#utility.yul\":4759:4762   */\n      0x00\n        /* \"#utility.yul\":4780:4847   */\n      tag_226\n        /* \"#utility.yul\":4844:4846   */\n      0x20\n        /* \"#utility.yul\":4839:4842   */\n      dup4\n        /* \"#utility.yul\":4780:4847   */\n      tag_143\n      jump\t// in\n    tag_226:\n        /* \"#utility.yul\":4773:4847   */\n      swap2\n      pop\n        /* \"#utility.yul\":4856:4949   */\n      tag_227\n        /* \"#utility.yul\":4945:4948   */\n      dup3\n        /* \"#utility.yul\":4856:4949   */\n      tag_144\n      jump\t// in\n    tag_227:\n        /* \"#utility.yul\":4974:4976   */\n      0x20\n        /* \"#utility.yul\":4969:4972   */\n      dup3\n        /* \"#utility.yul\":4965:4977   */\n      add\n        /* \"#utility.yul\":4958:4977   */\n      swap1\n      pop\n        /* \"#utility.yul\":4617:4983   */\n      swap2\n      swap1\n      pop\n      jump\t// out\n        /* \"#utility.yul\":4989:5408   */\n    tag_54:\n        /* \"#utility.yul\":5155:5159   */\n      0x00\n        /* \"#utility.yul\":5193:5195   */\n      0x20\n        /* \"#utility.yul\":5182:5191   */\n      dup3\n        /* \"#utility.yul\":5178:5196   */\n      add\n        /* \"#utility.yul\":5170:5196   */\n      swap1\n      pop\n        /* \"#utility.yul\":5242:5251   */\n      dup2\n        /* \"#utility.yul\":5236:5240   */\n      dup2\n        /* \"#utility.yul\":5232:5252   */\n      sub\n        /* \"#utility.yul\":5228:5229   */\n      0x00\n        /* \"#utility.yul\":5217:5226   */\n      dup4\n        /* \"#utility.yul\":5213:5230   */\n      add\n        /* \"#utility.yul\":5206:5253   */\n      mstore\n        /* \"#utility.yul\":5270:5401   */\n      tag_229\n        /* \"#utility.yul\":5396:5400   */\n      dup2\n        /* \"#utility.yul\":5270:5401   */\n      tag_145\n      jump\t// in\n    tag_229:\n        /* \"#utility.yul\":5262:5401   */\n      swap1\n      pop\n        /* \"#utility.yul\":4989:5408   */\n      swap2\n      swap1\n      pop\n      jump\t// out\n        /* \"#utility.yul\":5414:5594   */\n    tag_146:\n        /* \"#utility.yul\":5462:5539   */\n      0x4e487b7100000000000000000000000000000000000000000000000000000000\n        /* \"#utility.yul\":5459:5460   */\n      0x00\n        /* \"#utility.yul\":5452:5540   */\n      mstore\n        /* \"#utility.yul\":5559:5563   */\n      0x11\n        /* \"#utility.yul\":5556:5557   */\n      0x04\n        /* \"#utility.yul\":5549:5564   */\n      mstore\n        /* \"#utility.yul\":5583:5587   */\n      0x24\n        /* \"#utility.yul\":5580:5581   */\n      0x00\n        /* \"#utility.yul\":5573:5588   */\n      revert\n        /* \"#utility.yul\":5600:6010   */\n    tag_56:\n        /* \"#utility.yul\":5640:5647   */\n      0x00\n        /* \"#utility.yul\":5663:5683   */\n      tag_232\n        /* \"#utility.yul\":5681:5682   */\n      dup3\n        /* \"#utility.yul\":5663:5683   */\n      tag_138\n      jump\t// in\n    tag_232:\n        /* \"#utility.yul\":5658:5683   */\n      swap2\n      pop\n        /* \"#utility.yul\":5697:5717   */\n      tag_233\n        /* \"#utility.yul\":5715:5716   */\n      dup4\n        /* \"#utility.yul\":5697:5717   */\n      tag_138\n      jump\t// in\n    tag_233:\n        /* \"#utility.yul\":5692:5717   */\n      swap3\n      pop\n        /* \"#utility.yul\":5752:5753   */\n      dup3\n        /* \"#utility.yul\":5749:5750   */\n      dup3\n        /* \"#utility.yul\":5745:5754   */\n      mul\n        /* \"#utility.yul\":5774:5804   */\n      tag_234\n        /* \"#utility.yul\":5792:5803   */\n      dup2\n        /* \"#utility.yul\":5774:5804   */\n      tag_138\n      jump\t// in\n    tag_234:\n        /* \"#utility.yul\":5763:5804   */\n      swap2\n      pop\n        /* \"#utility.yul\":5953:5954   */\n      dup3\n        /* \"#utility.yul\":5944:5951   */\n      dup3\n        /* \"#utility.yul\":5940:5955   */\n      div\n        /* \"#utility.yul\":5937:5938   */\n      dup5\n        /* \"#utility.yul\":5934:5956   */\n      eq\n        /* \"#utility.yul\":5914:5915   */\n      dup4\n        /* \"#utility.yul\":5907:5916   */\n      iszero\n        /* \"#utility.yul\":5887:5970   */\n      or\n        /* \"#utility.yul\":5864:6003   */\n      tag_235\n      jumpi\n        /* \"#utility.yul\":5983:6001   */\n      tag_236\n      tag_146\n      jump\t// in\n    tag_236:\n        /* \"#utility.yul\":5864:6003   */\n    tag_235:\n        /* \"#utility.yul\":5648:6010   */\n      pop\n        /* \"#utility.yul\":5600:6010   */\n      swap3\n      swap2\n      pop\n      pop\n      jump\t// out\n        /* \"#utility.yul\":6016:6196   */\n    tag_147:\n        /* \"#utility.yul\":6064:6141   */\n      0x4e487b7100000000000000000000000000000000000000000000000000000000\n        /* \"#utility.yul\":6061:6062   */\n      0x00\n        /* \"#utility.yul\":6054:6142   */\n      mstore\n        /* \"#utility.yul\":6161:6165   */\n      0x12\n        /* \"#utility.yul\":6158:6159   */\n      0x04\n        /* \"#utility.yul\":6151:6166   */\n      mstore\n        /* \"#utility.yul\":6185:6189   */\n      0x24\n        /* \"#utility.yul\":6182:6183   */\n      0x00\n        /* \"#utility.yul\":6175:6190   */\n      revert\n        /* \"#utility.yul\":6202:6387   */\n    tag_58:\n        /* \"#utility.yul\":6242:6243   */\n      0x00\n        /* \"#utility.yul\":6259:6279   */\n      tag_239\n        /* \"#utility.yul\":6277:6278   */\n      dup3\n        /* \"#utility.yul\":6259:6279   */\n      tag_138\n      jump\t// in\n    tag_239:\n        /* \"#utility.yul\":6254:6279   */\n      swap2\n      pop\n        /* \"#utility.yul\":6293:6313   */\n      tag_240\n        /* \"#utility.yul\":6311:6312   */\n      dup4\n        /* \"#utility.yul\":6293:6313   */\n      tag_138\n      jump\t// in\n    tag_240:\n        /* \"#utility.yul\":6288:6313   */\n      swap3\n      pop\n        /* \"#utility.yul\":6332:6333   */\n      dup3\n        /* \"#utility.yul\":6322:6357   */\n      tag_241\n      jumpi\n        /* \"#utility.yul\":6337:6355   */\n      tag_242\n      tag_147\n      jump\t// in\n    tag_242:\n        /* \"#utility.yul\":6322:6357   */\n    tag_241:\n        /* \"#utility.yul\":6379:6380   */\n      dup3\n        /* \"#utility.yul\":6376:6377   */\n      dup3\n        /* \"#utility.yul\":6372:6381   */\n      div\n        /* \"#utility.yul\":6367:6381   */\n      swap1\n      pop\n        /* \"#utility.yul\":6202:6387   */\n      swap3\n      swap2\n      pop\n      pop\n      jump\t// out\n        /* \"#utility.yul\":6393:6536   */\n    tag_148:\n        /* \"#utility.yul\":6450:6455   */\n      0x00\n        /* \"#utility.yul\":6481:6487   */\n      dup2\n        /* \"#utility.yul\":6475:6488   */\n      mload\n        /* \"#utility.yul\":6466:6488   */\n      swap1\n      pop\n        /* \"#utility.yul\":6497:6530   */\n      tag_244\n        /* \"#utility.yul\":6524:6529   */\n      dup2\n        /* \"#utility.yul\":6497:6530   */\n      tag_139\n      jump\t// in\n    tag_244:\n        /* \"#utility.yul\":6393:6536   */\n      swap3\n      swap2\n      pop\n      pop\n      jump\t// out\n        /* \"#utility.yul\":6542:6893   */\n    tag_63:\n        /* \"#utility.yul\":6612:6618   */\n      0x00\n        /* \"#utility.yul\":6661:6663   */\n      0x20\n        /* \"#utility.yul\":6649:6658   */\n      dup3\n        /* \"#utility.yul\":6640:6647   */\n      dup5\n        /* \"#utility.yul\":6636:6659   */\n      sub\n        /* \"#utility.yul\":6632:6664   */\n      slt\n        /* \"#utility.yul\":6629:6748   */\n      iszero\n      tag_246\n      jumpi\n        /* \"#utility.yul\":6667:6746   */\n      tag_247\n      tag_133\n      jump\t// in\n    tag_247:\n        /* \"#utility.yul\":6629:6748   */\n    tag_246:\n        /* \"#utility.yul\":6787:6788   */\n      0x00\n        /* \"#utility.yul\":6812:6876   */\n      tag_248\n        /* \"#utility.yul\":6868:6875   */\n      dup5\n        /* \"#utility.yul\":6859:6865   */\n      dup3\n        /* \"#utility.yul\":6848:6857   */\n      dup6\n        /* \"#utility.yul\":6844:6866   */\n      add\n        /* \"#utility.yul\":6812:6876   */\n      tag_148\n      jump\t// in\n    tag_248:\n        /* \"#utility.yul\":6802:6876   */\n      swap2\n      pop\n        /* \"#utility.yul\":6758:6886   */\n      pop\n        /* \"#utility.yul\":6542:6893   */\n      swap3\n      swap2\n      pop\n      pop\n      jump\t// out\n        /* \"#utility.yul\":6899:7123   */\n    tag_149:\n        /* \"#utility.yul\":7039:7073   */\n      0x4e6f7420656e6f7567682042445420746f6b656e7320696e2074686520636f6e\n        /* \"#utility.yul\":7035:7036   */\n      0x00\n        /* \"#utility.yul\":7027:7033   */\n      dup3\n        /* \"#utility.yul\":7023:7037   */\n      add\n        /* \"#utility.yul\":7016:7074   */\n      mstore\n        /* \"#utility.yul\":7108:7115   */\n      0x7472616374000000000000000000000000000000000000000000000000000000\n        /* \"#utility.yul\":7103:7105   */\n      0x20\n        /* \"#utility.yul\":7095:7101   */\n      dup3\n        /* \"#utility.yul\":7091:7106   */\n      add\n        /* \"#utility.yul\":7084:7116   */\n      mstore\n        /* \"#utility.yul\":6899:7123   */\n      pop\n      jump\t// out\n        /* \"#utility.yul\":7129:7495   */\n    tag_150:\n        /* \"#utility.yul\":7271:7274   */\n      0x00\n        /* \"#utility.yul\":7292:7359   */\n      tag_251\n        /* \"#utility.yul\":7356:7358   */\n      0x25\n        /* \"#utility.yul\":7351:7354   */\n      dup4\n        /* \"#utility.yul\":7292:7359   */\n      tag_143\n      jump\t// in\n    tag_251:\n        /* \"#utility.yul\":7285:7359   */\n      swap2\n      pop\n        /* \"#utility.yul\":7368:7461   */\n      tag_252\n        /* \"#utility.yul\":7457:7460   */\n      dup3\n        /* \"#utility.yul\":7368:7461   */\n      tag_149\n      jump\t// in\n    tag_252:\n        /* \"#utility.yul\":7486:7488   */\n      0x40\n        /* \"#utility.yul\":7481:7484   */\n      dup3\n        /* \"#utility.yul\":7477:7489   */\n      add\n        /* \"#utility.yul\":7470:7489   */\n      swap1\n      pop\n        /* \"#utility.yul\":7129:7495   */\n      swap2\n      swap1\n      pop\n      jump\t// out\n        /* \"#utility.yul\":7501:7920   */\n    tag_66:\n        /* \"#utility.yul\":7667:7671   */\n      0x00\n        /* \"#utility.yul\":7705:7707   */\n      0x20\n        /* \"#utility.yul\":7694:7703   */\n      dup3\n        /* \"#utility.yul\":7690:7708   */\n      add\n        /* \"#utility.yul\":7682:7708   */\n      swap1\n      pop\n        /* \"#utility.yul\":7754:7763   */\n      dup2\n        /* \"#utility.yul\":7748:7752   */\n      dup2\n        /* \"#utility.yul\":7744:7764   */\n      sub\n        /* \"#utility.yul\":7740:7741   */\n      0x00\n        /* \"#utility.yul\":7729:7738   */\n      dup4\n        /* \"#utility.yul\":7725:7742   */\n      add\n        /* \"#utility.yul\":7718:7765   */\n      mstore\n        /* \"#utility.yul\":7782:7913   */\n      tag_254\n        /* \"#utility.yul\":7908:7912   */\n      dup2\n        /* \"#utility.yul\":7782:7913   */\n      tag_150\n      jump\t// in\n    tag_254:\n        /* \"#utility.yul\":7774:7913   */\n      swap1\n      pop\n        /* \"#utility.yul\":7501:7920   */\n      swap2\n      swap1\n      pop\n      jump\t// out\n        /* \"#utility.yul\":7926:8368   */\n    tag_68:\n        /* \"#utility.yul\":8075:8079   */\n      0x00\n        /* \"#utility.yul\":8113:8115   */\n      0x60\n        /* \"#utility.yul\":8102:8111   */\n      dup3\n        /* \"#utility.yul\":8098:8116   */\n      add\n        /* \"#utility.yul\":8090:8116   */\n      swap1\n      pop\n        /* \"#utility.yul\":8126:8197   */\n      tag_256\n        /* \"#utility.yul\":8194:8195   */\n      0x00\n        /* \"#utility.yul\":8183:8192   */\n      dup4\n        /* \"#utility.yul\":8179:8196   */\n      add\n        /* \"#utility.yul\":8170:8176   */\n      dup7\n        /* \"#utility.yul\":8126:8197   */\n      tag_142\n      jump\t// in\n    tag_256:\n        /* \"#utility.yul\":8207:8279   */\n      tag_257\n        /* \"#utility.yul\":8275:8277   */\n      0x20\n        /* \"#utility.yul\":8264:8273   */\n      dup4\n        /* \"#utility.yul\":8260:8278   */\n      add\n        /* \"#utility.yul\":8251:8257   */\n      dup6\n        /* \"#utility.yul\":8207:8279   */\n      tag_142\n      jump\t// in\n    tag_257:\n        /* \"#utility.yul\":8289:8361   */\n      tag_258\n        /* \"#utility.yul\":8357:8359   */\n      0x40\n        /* \"#utility.yul\":8346:8355   */\n      dup4\n        /* \"#utility.yul\":8342:8360   */\n      add\n        /* \"#utility.yul\":8333:8339   */\n      dup5\n        /* \"#utility.yul\":8289:8361   */\n      tag_141\n      jump\t// in\n    tag_258:\n        /* \"#utility.yul\":7926:8368   */\n      swap5\n      swap4\n      pop\n      pop\n      pop\n      pop\n      jump\t// out\n        /* \"#utility.yul\":8374:8464   */\n    tag_151:\n        /* \"#utility.yul\":8408:8415   */\n      0x00\n        /* \"#utility.yul\":8451:8456   */\n      dup2\n        /* \"#utility.yul\":8444:8457   */\n      iszero\n        /* \"#utility.yul\":8437:8458   */\n      iszero\n        /* \"#utility.yul\":8426:8458   */\n      swap1\n      pop\n        /* \"#utility.yul\":8374:8464   */\n      swap2\n      swap1\n      pop\n      jump\t// out\n        /* \"#utility.yul\":8470:8586   */\n    tag_152:\n        /* \"#utility.yul\":8540:8561   */\n      tag_261\n        /* \"#utility.yul\":8555:8560   */\n      dup2\n        /* \"#utility.yul\":8540:8561   */\n      tag_151\n      jump\t// in\n    tag_261:\n        /* \"#utility.yul\":8533:8538   */\n      dup2\n        /* \"#utility.yul\":8530:8562   */\n      eq\n        /* \"#utility.yul\":8520:8580   */\n      tag_262\n      jumpi\n        /* \"#utility.yul\":8576:8577   */\n      0x00\n        /* \"#utility.yul\":8573:8574   */\n      dup1\n        /* \"#utility.yul\":8566:8578   */\n      revert\n        /* \"#utility.yul\":8520:8580   */\n    tag_262:\n        /* \"#utility.yul\":8470:8586   */\n      pop\n      jump\t// out\n        /* \"#utility.yul\":8592:8729   */\n    tag_153:\n        /* \"#utility.yul\":8646:8651   */\n      0x00\n        /* \"#utility.yul\":8677:8683   */\n      dup2\n        /* \"#utility.yul\":8671:8684   */\n      mload\n        /* \"#utility.yul\":8662:8684   */\n      swap1\n      pop\n        /* \"#utility.yul\":8693:8723   */\n      tag_264\n        /* \"#utility.yul\":8717:8722   */\n      dup2\n        /* \"#utility.yul\":8693:8723   */\n      tag_152\n      jump\t// in\n    tag_264:\n        /* \"#utility.yul\":8592:8729   */\n      swap3\n      swap2\n      pop\n      pop\n      jump\t// out\n        /* \"#utility.yul\":8735:9080   */\n    tag_72:\n        /* \"#utility.yul\":8802:8808   */\n      0x00\n        /* \"#utility.yul\":8851:8853   */\n      0x20\n        /* \"#utility.yul\":8839:8848   */\n      dup3\n        /* \"#utility.yul\":8830:8837   */\n      dup5\n        /* \"#utility.yul\":8826:8849   */\n      sub\n        /* \"#utility.yul\":8822:8854   */\n      slt\n        /* \"#utility.yul\":8819:8938   */\n      iszero\n      tag_266\n      jumpi\n        /* \"#utility.yul\":8857:8936   */\n      tag_267\n      tag_133\n      jump\t// in\n    tag_267:\n        /* \"#utility.yul\":8819:8938   */\n    tag_266:\n        /* \"#utility.yul\":8977:8978   */\n      0x00\n        /* \"#utility.yul\":9002:9063   */\n      tag_268\n        /* \"#utility.yul\":9055:9062   */\n      dup5\n        /* \"#utility.yul\":9046:9052   */\n      dup3\n        /* \"#utility.yul\":9035:9044   */\n      dup6\n        /* \"#utility.yul\":9031:9053   */\n      add\n        /* \"#utility.yul\":9002:9063   */\n      tag_153\n      jump\t// in\n    tag_268:\n        /* \"#utility.yul\":8992:9063   */\n      swap2\n      pop\n        /* \"#utility.yul\":8948:9073   */\n      pop\n        /* \"#utility.yul\":8735:9080   */\n      swap3\n      swap2\n      pop\n      pop\n      jump\t// out\n        /* \"#utility.yul\":9086:9256   */\n    tag_154:\n        /* \"#utility.yul\":9226:9248   */\n      0x55534454207472616e73666572206661696c6564000000000000000000000000\n        /* \"#utility.yul\":9222:9223   */\n      0x00\n        /* \"#utility.yul\":9214:9220   */\n      dup3\n        /* \"#utility.yul\":9210:9224   */\n      add\n        /* \"#utility.yul\":9203:9249   */\n      mstore\n        /* \"#utility.yul\":9086:9256   */\n      pop\n      jump\t// out\n        /* \"#utility.yul\":9262:9628   */\n    tag_155:\n        /* \"#utility.yul\":9404:9407   */\n      0x00\n        /* \"#utility.yul\":9425:9492   */\n      tag_271\n        /* \"#utility.yul\":9489:9491   */\n      0x14\n        /* \"#utility.yul\":9484:9487   */\n      dup4\n        /* \"#utility.yul\":9425:9492   */\n      tag_143\n      jump\t// in\n    tag_271:\n        /* \"#utility.yul\":9418:9492   */\n      swap2\n      pop\n        /* \"#utility.yul\":9501:9594   */\n      tag_272\n        /* \"#utility.yul\":9590:9593   */\n      dup3\n        /* \"#utility.yul\":9501:9594   */\n      tag_154\n      jump\t// in\n    tag_272:\n        /* \"#utility.yul\":9619:9621   */\n      0x20\n        /* \"#utility.yul\":9614:9617   */\n      dup3\n        /* \"#utility.yul\":9610:9622   */\n      add\n        /* \"#utility.yul\":9603:9622   */\n      swap1\n      pop\n        /* \"#utility.yul\":9262:9628   */\n      swap2\n      swap1\n      pop\n      jump\t// out\n        /* \"#utility.yul\":9634:10053   */\n    tag_75:\n        /* \"#utility.yul\":9800:9804   */\n      0x00\n        /* \"#utility.yul\":9838:9840   */\n      0x20\n        /* \"#utility.yul\":9827:9836   */\n      dup3\n        /* \"#utility.yul\":9823:9841   */\n      add\n        /* \"#utility.yul\":9815:9841   */\n      swap1\n      pop\n        /* \"#utility.yul\":9887:9896   */\n      dup2\n        /* \"#utility.yul\":9881:9885   */\n      dup2\n        /* \"#utility.yul\":9877:9897   */\n      sub\n        /* \"#utility.yul\":9873:9874   */\n      0x00\n        /* \"#utility.yul\":9862:9871   */\n      dup4\n        /* \"#utility.yul\":9858:9875   */\n      add\n        /* \"#utility.yul\":9851:9898   */\n      mstore\n        /* \"#utility.yul\":9915:10046   */\n      tag_274\n        /* \"#utility.yul\":10041:10045   */\n      dup2\n        /* \"#utility.yul\":9915:10046   */\n      tag_155\n      jump\t// in\n    tag_274:\n        /* \"#utility.yul\":9907:10046   */\n      swap1\n      pop\n        /* \"#utility.yul\":9634:10053   */\n      swap2\n      swap1\n      pop\n      jump\t// out\n        /* \"#utility.yul\":10059:10391   */\n    tag_77:\n        /* \"#utility.yul\":10180:10184   */\n      0x00\n        /* \"#utility.yul\":10218:10220   */\n      0x40\n        /* \"#utility.yul\":10207:10216   */\n      dup3\n        /* \"#utility.yul\":10203:10221   */\n      add\n        /* \"#utility.yul\":10195:10221   */\n      swap1\n      pop\n        /* \"#utility.yul\":10231:10302   */\n      tag_276\n        /* \"#utility.yul\":10299:10300   */\n      0x00\n        /* \"#utility.yul\":10288:10297   */\n      dup4\n        /* \"#utility.yul\":10284:10301   */\n      add\n        /* \"#utility.yul\":10275:10281   */\n      dup6\n        /* \"#utility.yul\":10231:10302   */\n      tag_142\n      jump\t// in\n    tag_276:\n        /* \"#utility.yul\":10312:10384   */\n      tag_277\n        /* \"#utility.yul\":10380:10382   */\n      0x20\n        /* \"#utility.yul\":10369:10378   */\n      dup4\n        /* \"#utility.yul\":10365:10383   */\n      add\n        /* \"#utility.yul\":10356:10362   */\n      dup5\n        /* \"#utility.yul\":10312:10384   */\n      tag_141\n      jump\t// in\n    tag_277:\n        /* \"#utility.yul\":10059:10391   */\n      swap4\n      swap3\n      pop\n      pop\n      pop\n      jump\t// out\n        /* \"#utility.yul\":10397:10566   */\n    tag_156:\n        /* \"#utility.yul\":10537:10558   */\n      0x424454207472616e73666572206661696c656400000000000000000000000000\n        /* \"#utility.yul\":10533:10534   */\n      0x00\n        /* \"#utility.yul\":10525:10531   */\n      dup3\n        /* \"#utility.yul\":10521:10535   */\n      add\n        /* \"#utility.yul\":10514:10559   */\n      mstore\n        /* \"#utility.yul\":10397:10566   */\n      pop\n      jump\t// out\n        /* \"#utility.yul\":10572:10938   */\n    tag_157:\n        /* \"#utility.yul\":10714:10717   */\n      0x00\n        /* \"#utility.yul\":10735:10802   */\n      tag_280\n        /* \"#utility.yul\":10799:10801   */\n      0x13\n        /* \"#utility.yul\":10794:10797   */\n      dup4\n        /* \"#utility.yul\":10735:10802   */\n      tag_143\n      jump\t// in\n    tag_280:\n        /* \"#utility.yul\":10728:10802   */\n      swap2\n      pop\n        /* \"#utility.yul\":10811:10904   */\n      tag_281\n        /* \"#utility.yul\":10900:10903   */\n      dup3\n        /* \"#utility.yul\":10811:10904   */\n      tag_156\n      jump\t// in\n    tag_281:\n        /* \"#utility.yul\":10929:10931   */\n      0x20\n        /* \"#utility.yul\":10924:10927   */\n      dup3\n        /* \"#utility.yul\":10920:10932   */\n      add\n        /* \"#utility.yul\":10913:10932   */\n      swap1\n      pop\n        /* \"#utility.yul\":10572:10938   */\n      swap2\n      swap1\n      pop\n      jump\t// out\n        /* \"#utility.yul\":10944:11363   */\n    tag_83:\n        /* \"#utility.yul\":11110:11114   */\n      0x00\n        /* \"#utility.yul\":11148:11150   */\n      0x20\n        /* \"#utility.yul\":11137:11146   */\n      dup3\n        /* \"#utility.yul\":11133:11151   */\n      add\n        /* \"#utility.yul\":11125:11151   */\n      swap1\n      pop\n        /* \"#utility.yul\":11197:11206   */\n      dup2\n        /* \"#utility.yul\":11191:11195   */\n      dup2\n        /* \"#utility.yul\":11187:11207   */\n      sub\n        /* \"#utility.yul\":11183:11184   */\n      0x00\n        /* \"#utility.yul\":11172:11181   */\n      dup4\n        /* \"#utility.yul\":11168:11185   */\n      add\n        /* \"#utility.yul\":11161:11208   */\n      mstore\n        /* \"#utility.yul\":11225:11356   */\n      tag_283\n        /* \"#utility.yul\":11351:11355   */\n      dup2\n        /* \"#utility.yul\":11225:11356   */\n      tag_157\n      jump\t// in\n    tag_283:\n        /* \"#utility.yul\":11217:11356   */\n      swap1\n      pop\n        /* \"#utility.yul\":10944:11363   */\n      swap2\n      swap1\n      pop\n      jump\t// out\n        /* \"#utility.yul\":11369:11523   */\n    tag_158:\n        /* \"#utility.yul\":11509:11515   */\n      0x5553445400000000000000000000000000000000000000000000000000000000\n        /* \"#utility.yul\":11505:11506   */\n      0x00\n        /* \"#utility.yul\":11497:11503   */\n      dup3\n        /* \"#utility.yul\":11493:11507   */\n      add\n        /* \"#utility.yul\":11486:11516   */\n      mstore\n        /* \"#utility.yul\":11369:11523   */\n      pop\n      jump\t// out\n        /* \"#utility.yul\":11529:11894   */\n    tag_159:\n        /* \"#utility.yul\":11671:11674   */\n      0x00\n        /* \"#utility.yul\":11692:11758   */\n      tag_286\n        /* \"#utility.yul\":11756:11757   */\n      0x04\n        /* \"#utility.yul\":11751:11754   */\n      dup4\n        /* \"#utility.yul\":11692:11758   */\n      tag_143\n      jump\t// in\n    tag_286:\n        /* \"#utility.yul\":11685:11758   */\n      swap2\n      pop\n        /* \"#utility.yul\":11767:11860   */\n      tag_287\n        /* \"#utility.yul\":11856:11859   */\n      dup3\n        /* \"#utility.yul\":11767:11860   */\n      tag_158\n      jump\t// in\n    tag_287:\n        /* \"#utility.yul\":11885:11887   */\n      0x20\n        /* \"#utility.yul\":11880:11883   */\n      dup3\n        /* \"#utility.yul\":11876:11888   */\n      add\n        /* \"#utility.yul\":11869:11888   */\n      swap1\n      pop\n        /* \"#utility.yul\":11529:11894   */\n      swap2\n      swap1\n      pop\n      jump\t// out\n        /* \"#utility.yul\":11900:12429   */\n    tag_85:\n        /* \"#utility.yul\":12094:12098   */\n      0x00\n        /* \"#utility.yul\":12132:12134   */\n      0x40\n        /* \"#utility.yul\":12121:12130   */\n      dup3\n        /* \"#utility.yul\":12117:12135   */\n      add\n        /* \"#utility.yul\":12109:12135   */\n      swap1\n      pop\n        /* \"#utility.yul\":12145:12216   */\n      tag_289\n        /* \"#utility.yul\":12213:12214   */\n      0x00\n        /* \"#utility.yul\":12202:12211   */\n      dup4\n        /* \"#utility.yul\":12198:12215   */\n      add\n        /* \"#utility.yul\":12189:12195   */\n      dup5\n        /* \"#utility.yul\":12145:12216   */\n      tag_141\n      jump\t// in\n    tag_289:\n        /* \"#utility.yul\":12263:12272   */\n      dup2\n        /* \"#utility.yul\":12257:12261   */\n      dup2\n        /* \"#utility.yul\":12253:12273   */\n      sub\n        /* \"#utility.yul\":12248:12250   */\n      0x20\n        /* \"#utility.yul\":12237:12246   */\n      dup4\n        /* \"#utility.yul\":12233:12251   */\n      add\n        /* \"#utility.yul\":12226:12274   */\n      mstore\n        /* \"#utility.yul\":12291:12422   */\n      tag_290\n        /* \"#utility.yul\":12417:12421   */\n      dup2\n        /* \"#utility.yul\":12291:12422   */\n      tag_159\n      jump\t// in\n    tag_290:\n        /* \"#utility.yul\":12283:12422   */\n      swap1\n      pop\n        /* \"#utility.yul\":11900:12429   */\n      swap3\n      swap2\n      pop\n      pop\n      jump\t// out\n        /* \"#utility.yul\":12435:12511   */\n    tag_160:\n        /* \"#utility.yul\":12471:12478   */\n      0x00\n        /* \"#utility.yul\":12500:12505   */\n      dup2\n        /* \"#utility.yul\":12489:12505   */\n      swap1\n      pop\n        /* \"#utility.yul\":12435:12511   */\n      swap2\n      swap1\n      pop\n      jump\t// out\n        /* \"#utility.yul\":12517:13073   */\n    tag_92:\n        /* \"#utility.yul\":12556:12563   */\n      0x00\n        /* \"#utility.yul\":12579:12598   */\n      tag_293\n        /* \"#utility.yul\":12596:12597   */\n      dup3\n        /* \"#utility.yul\":12579:12598   */\n      tag_160\n      jump\t// in\n    tag_293:\n        /* \"#utility.yul\":12574:12598   */\n      swap2\n      pop\n        /* \"#utility.yul\":12612:12631   */\n      tag_294\n        /* \"#utility.yul\":12629:12630   */\n      dup4\n        /* \"#utility.yul\":12612:12631   */\n      tag_160\n      jump\t// in\n    tag_294:\n        /* \"#utility.yul\":12607:12631   */\n      swap3\n      pop\n        /* \"#utility.yul\":12666:12667   */\n      dup3\n        /* \"#utility.yul\":12663:12664   */\n      dup3\n        /* \"#utility.yul\":12659:12668   */\n      mul\n        /* \"#utility.yul\":12688:12717   */\n      tag_295\n        /* \"#utility.yul\":12705:12716   */\n      dup2\n        /* \"#utility.yul\":12688:12717   */\n      tag_160\n      jump\t// in\n    tag_295:\n        /* \"#utility.yul\":12677:12717   */\n      swap2\n      pop\n        /* \"#utility.yul\":12775:12841   */\n      0x8000000000000000000000000000000000000000000000000000000000000000\n        /* \"#utility.yul\":12772:12773   */\n      dup5\n        /* \"#utility.yul\":12769:12842   */\n      eq\n        /* \"#utility.yul\":12765:12766   */\n      0x00\n        /* \"#utility.yul\":12762:12763   */\n      dup5\n        /* \"#utility.yul\":12758:12767   */\n      slt\n        /* \"#utility.yul\":12754:12843   */\n      and\n        /* \"#utility.yul\":12751:12866   */\n      iszero\n      tag_296\n      jumpi\n        /* \"#utility.yul\":12846:12864   */\n      tag_297\n      tag_146\n      jump\t// in\n    tag_297:\n        /* \"#utility.yul\":12751:12866   */\n    tag_296:\n        /* \"#utility.yul\":13016:13017   */\n      dup3\n        /* \"#utility.yul\":13007:13014   */\n      dup3\n        /* \"#utility.yul\":13002:13018   */\n      sdiv\n        /* \"#utility.yul\":12999:13000   */\n      dup5\n        /* \"#utility.yul\":12996:13019   */\n      eq\n        /* \"#utility.yul\":12976:12977   */\n      dup4\n        /* \"#utility.yul\":12969:12978   */\n      iszero\n        /* \"#utility.yul\":12949:13033   */\n      or\n        /* \"#utility.yul\":12926:13066   */\n      tag_298\n      jumpi\n        /* \"#utility.yul\":13046:13064   */\n      tag_299\n      tag_146\n      jump\t// in\n    tag_299:\n        /* \"#utility.yul\":12926:13066   */\n    tag_298:\n        /* \"#utility.yul\":12564:13073   */\n      pop\n        /* \"#utility.yul\":12517:13073   */\n      swap3\n      swap2\n      pop\n      pop\n      jump\t// out\n        /* \"#utility.yul\":13079:13243   */\n    tag_161:\n        /* \"#utility.yul\":13219:13235   */\n      0x4e6f7420617574686f72697a6564000000000000000000000000000000000000\n        /* \"#utility.yul\":13215:13216   */\n      0x00\n        /* \"#utility.yul\":13207:13213   */\n      dup3\n        /* \"#utility.yul\":13203:13217   */\n      add\n        /* \"#utility.yul\":13196:13236   */\n      mstore\n        /* \"#utility.yul\":13079:13243   */\n      pop\n      jump\t// out\n        /* \"#utility.yul\":13249:13615   */\n    tag_162:\n        /* \"#utility.yul\":13391:13394   */\n      0x00\n        /* \"#utility.yul\":13412:13479   */\n      tag_302\n        /* \"#utility.yul\":13476:13478   */\n      0x0e\n        /* \"#utility.yul\":13471:13474   */\n      dup4\n        /* \"#utility.yul\":13412:13479   */\n      tag_143\n      jump\t// in\n    tag_302:\n        /* \"#utility.yul\":13405:13479   */\n      swap2\n      pop\n        /* \"#utility.yul\":13488:13581   */\n      tag_303\n        /* \"#utility.yul\":13577:13580   */\n      dup3\n        /* \"#utility.yul\":13488:13581   */\n      tag_161\n      jump\t// in\n    tag_303:\n        /* \"#utility.yul\":13606:13608   */\n      0x20\n        /* \"#utility.yul\":13601:13604   */\n      dup3\n        /* \"#utility.yul\":13597:13609   */\n      add\n        /* \"#utility.yul\":13590:13609   */\n      swap1\n      pop\n        /* \"#utility.yul\":13249:13615   */\n      swap2\n      swap1\n      pop\n      jump\t// out\n        /* \"#utility.yul\":13621:14040   */\n    tag_97:\n        /* \"#utility.yul\":13787:13791   */\n      0x00\n        /* \"#utility.yul\":13825:13827   */\n      0x20\n        /* \"#utility.yul\":13814:13823   */\n      dup3\n        /* \"#utility.yul\":13810:13828   */\n      add\n        /* \"#utility.yul\":13802:13828   */\n      swap1\n      pop\n        /* \"#utility.yul\":13874:13883   */\n      dup2\n        /* \"#utility.yul\":13868:13872   */\n      dup2\n        /* \"#utility.yul\":13864:13884   */\n      sub\n        /* \"#utility.yul\":13860:13861   */\n      0x00\n        /* \"#utility.yul\":13849:13858   */\n      dup4\n        /* \"#utility.yul\":13845:13862   */\n      add\n        /* \"#utility.yul\":13838:13885   */\n      mstore\n        /* \"#utility.yul\":13902:14033   */\n      tag_305\n        /* \"#utility.yul\":14028:14032   */\n      dup2\n        /* \"#utility.yul\":13902:14033   */\n      tag_162\n      jump\t// in\n    tag_305:\n        /* \"#utility.yul\":13894:14033   */\n      swap1\n      pop\n        /* \"#utility.yul\":13621:14040   */\n      swap2\n      swap1\n      pop\n      jump\t// out\n        /* \"#utility.yul\":14046:14378   */\n    tag_99:\n        /* \"#utility.yul\":14167:14171   */\n      0x00\n        /* \"#utility.yul\":14205:14207   */\n      0x40\n        /* \"#utility.yul\":14194:14203   */\n      dup3\n        /* \"#utility.yul\":14190:14208   */\n      add\n        /* \"#utility.yul\":14182:14208   */\n      swap1\n      pop\n        /* \"#utility.yul\":14218:14289   */\n      tag_307\n        /* \"#utility.yul\":14286:14287   */\n      0x00\n        /* \"#utility.yul\":14275:14284   */\n      dup4\n        /* \"#utility.yul\":14271:14288   */\n      add\n        /* \"#utility.yul\":14262:14268   */\n      dup6\n        /* \"#utility.yul\":14218:14289   */\n      tag_142\n      jump\t// in\n    tag_307:\n        /* \"#utility.yul\":14299:14371   */\n      tag_308\n        /* \"#utility.yul\":14367:14369   */\n      0x20\n        /* \"#utility.yul\":14356:14365   */\n      dup4\n        /* \"#utility.yul\":14352:14370   */\n      add\n        /* \"#utility.yul\":14343:14349   */\n      dup5\n        /* \"#utility.yul\":14299:14371   */\n      tag_142\n      jump\t// in\n    tag_308:\n        /* \"#utility.yul\":14046:14378   */\n      swap4\n      swap3\n      pop\n      pop\n      pop\n      jump\t// out\n        /* \"#utility.yul\":14384:14558   */\n    tag_163:\n        /* \"#utility.yul\":14524:14550   */\n      0x546f6b656e203120616c6c6f77616e636520746f206c6f770000000000000000\n        /* \"#utility.yul\":14520:14521   */\n      0x00\n        /* \"#utility.yul\":14512:14518   */\n      dup3\n        /* \"#utility.yul\":14508:14522   */\n      add\n        /* \"#utility.yul\":14501:14551   */\n      mstore\n        /* \"#utility.yul\":14384:14558   */\n      pop\n      jump\t// out\n        /* \"#utility.yul\":14564:14930   */\n    tag_164:\n        /* \"#utility.yul\":14706:14709   */\n      0x00\n        /* \"#utility.yul\":14727:14794   */\n      tag_311\n        /* \"#utility.yul\":14791:14793   */\n      0x18\n        /* \"#utility.yul\":14786:14789   */\n      dup4\n        /* \"#utility.yul\":14727:14794   */\n      tag_143\n      jump\t// in\n    tag_311:\n        /* \"#utility.yul\":14720:14794   */\n      swap2\n      pop\n        /* \"#utility.yul\":14803:14896   */\n      tag_312\n        /* \"#utility.yul\":14892:14895   */\n      dup3\n        /* \"#utility.yul\":14803:14896   */\n      tag_163\n      jump\t// in\n    tag_312:\n        /* \"#utility.yul\":14921:14923   */\n      0x20\n        /* \"#utility.yul\":14916:14919   */\n      dup3\n        /* \"#utility.yul\":14912:14924   */\n      add\n        /* \"#utility.yul\":14905:14924   */\n      swap1\n      pop\n        /* \"#utility.yul\":14564:14930   */\n      swap2\n      swap1\n      pop\n      jump\t// out\n        /* \"#utility.yul\":14936:15355   */\n    tag_105:\n        /* \"#utility.yul\":15102:15106   */\n      0x00\n        /* \"#utility.yul\":15140:15142   */\n      0x20\n        /* \"#utility.yul\":15129:15138   */\n      dup3\n        /* \"#utility.yul\":15125:15143   */\n      add\n        /* \"#utility.yul\":15117:15143   */\n      swap1\n      pop\n        /* \"#utility.yul\":15189:15198   */\n      dup2\n        /* \"#utility.yul\":15183:15187   */\n      dup2\n        /* \"#utility.yul\":15179:15199   */\n      sub\n        /* \"#utility.yul\":15175:15176   */\n      0x00\n        /* \"#utility.yul\":15164:15173   */\n      dup4\n        /* \"#utility.yul\":15160:15177   */\n      add\n        /* \"#utility.yul\":15153:15200   */\n      mstore\n        /* \"#utility.yul\":15217:15348   */\n      tag_314\n        /* \"#utility.yul\":15343:15347   */\n      dup2\n        /* \"#utility.yul\":15217:15348   */\n      tag_164\n      jump\t// in\n    tag_314:\n        /* \"#utility.yul\":15209:15348   */\n      swap1\n      pop\n        /* \"#utility.yul\":14936:15355   */\n      swap2\n      swap1\n      pop\n      jump\t// out\n        /* \"#utility.yul\":15361:15535   */\n    tag_165:\n        /* \"#utility.yul\":15501:15527   */\n      0x546f6b656e203220616c6c6f77616e636520746f206c6f770000000000000000\n        /* \"#utility.yul\":15497:15498   */\n      0x00\n        /* \"#utility.yul\":15489:15495   */\n      dup3\n        /* \"#utility.yul\":15485:15499   */\n      add\n        /* \"#utility.yul\":15478:15528   */\n      mstore\n        /* \"#utility.yul\":15361:15535   */\n      pop\n      jump\t// out\n        /* \"#utility.yul\":15541:15907   */\n    tag_166:\n        /* \"#utility.yul\":15683:15686   */\n      0x00\n        /* \"#utility.yul\":15704:15771   */\n      tag_317\n        /* \"#utility.yul\":15768:15770   */\n      0x18\n        /* \"#utility.yul\":15763:15766   */\n      dup4\n        /* \"#utility.yul\":15704:15771   */\n      tag_143\n      jump\t// in\n    tag_317:\n        /* \"#utility.yul\":15697:15771   */\n      swap2\n      pop\n        /* \"#utility.yul\":15780:15873   */\n      tag_318\n        /* \"#utility.yul\":15869:15872   */\n      dup3\n        /* \"#utility.yul\":15780:15873   */\n      tag_165\n      jump\t// in\n    tag_318:\n        /* \"#utility.yul\":15898:15900   */\n      0x20\n        /* \"#utility.yul\":15893:15896   */\n      dup3\n        /* \"#utility.yul\":15889:15901   */\n      add\n        /* \"#utility.yul\":15882:15901   */\n      swap1\n      pop\n        /* \"#utility.yul\":15541:15907   */\n      swap2\n      swap1\n      pop\n      jump\t// out\n        /* \"#utility.yul\":15913:16332   */\n    tag_112:\n        /* \"#utility.yul\":16079:16083   */\n      0x00\n        /* \"#utility.yul\":16117:16119   */\n      0x20\n        /* \"#utility.yul\":16106:16115   */\n      dup3\n        /* \"#utility.yul\":16102:16120   */\n      add\n        /* \"#utility.yul\":16094:16120   */\n      swap1\n      pop\n        /* \"#utility.yul\":16166:16175   */\n      dup2\n        /* \"#utility.yul\":16160:16164   */\n      dup2\n        /* \"#utility.yul\":16156:16176   */\n      sub\n        /* \"#utility.yul\":16152:16153   */\n      0x00\n        /* \"#utility.yul\":16141:16150   */\n      dup4\n        /* \"#utility.yul\":16137:16154   */\n      add\n        /* \"#utility.yul\":16130:16177   */\n      mstore\n        /* \"#utility.yul\":16194:16325   */\n      tag_320\n        /* \"#utility.yul\":16320:16324   */\n      dup2\n        /* \"#utility.yul\":16194:16325   */\n      tag_166\n      jump\t// in\n    tag_320:\n        /* \"#utility.yul\":16186:16325   */\n      swap1\n      pop\n        /* \"#utility.yul\":15913:16332   */\n      swap2\n      swap1\n      pop\n      jump\t// out\n        /* \"#utility.yul\":16338:16509   */\n    tag_167:\n        /* \"#utility.yul\":16478:16501   */\n      0x546f6b656e207472616e73666572206661696c65640000000000000000000000\n        /* \"#utility.yul\":16474:16475   */\n      0x00\n        /* \"#utility.yul\":16466:16472   */\n      dup3\n        /* \"#utility.yul\":16462:16476   */\n      add\n        /* \"#utility.yul\":16455:16502   */\n      mstore\n        /* \"#utility.yul\":16338:16509   */\n      pop\n      jump\t// out\n        /* \"#utility.yul\":16515:16881   */\n    tag_168:\n        /* \"#utility.yul\":16657:16660   */\n      0x00\n        /* \"#utility.yul\":16678:16745   */\n      tag_323\n        /* \"#utility.yul\":16742:16744   */\n      0x15\n        /* \"#utility.yul\":16737:16740   */\n      dup4\n        /* \"#utility.yul\":16678:16745   */\n      tag_143\n      jump\t// in\n    tag_323:\n        /* \"#utility.yul\":16671:16745   */\n      swap2\n      pop\n        /* \"#utility.yul\":16754:16847   */\n      tag_324\n        /* \"#utility.yul\":16843:16846   */\n      dup3\n        /* \"#utility.yul\":16754:16847   */\n      tag_167\n      jump\t// in\n    tag_324:\n        /* \"#utility.yul\":16872:16874   */\n      0x20\n        /* \"#utility.yul\":16867:16870   */\n      dup3\n        /* \"#utility.yul\":16863:16875   */\n      add\n        /* \"#utility.yul\":16856:16875   */\n      swap1\n      pop\n        /* \"#utility.yul\":16515:16881   */\n      swap2\n      swap1\n      pop\n      jump\t// out\n        /* \"#utility.yul\":16887:17306   */\n    tag_125:\n        /* \"#utility.yul\":17053:17057   */\n      0x00\n        /* \"#utility.yul\":17091:17093   */\n      0x20\n        /* \"#utility.yul\":17080:17089   */\n      dup3\n        /* \"#utility.yul\":17076:17094   */\n      add\n        /* \"#utility.yul\":17068:17094   */\n      swap1\n      pop\n        /* \"#utility.yul\":17140:17149   */\n      dup2\n        /* \"#utility.yul\":17134:17138   */\n      dup2\n        /* \"#utility.yul\":17130:17150   */\n      sub\n        /* \"#utility.yul\":17126:17127   */\n      0x00\n        /* \"#utility.yul\":17115:17124   */\n      dup4\n        /* \"#utility.yul\":17111:17128   */\n      add\n        /* \"#utility.yul\":17104:17151   */\n      mstore\n        /* \"#utility.yul\":17168:17299   */\n      tag_326\n        /* \"#utility.yul\":17294:17298   */\n      dup2\n        /* \"#utility.yul\":17168:17299   */\n      tag_168\n      jump\t// in\n    tag_326:\n        /* \"#utility.yul\":17160:17299   */\n      swap1\n      pop\n        /* \"#utility.yul\":16887:17306   */\n      swap2\n      swap1\n      pop\n      jump\t// out\n\n    auxdata: 0xa2646970667358221220853d99fe16d5a79a5e7575a68d3a3f22b6ac90942e27e278704854ec6d7da47864736f6c63430008140033\n}\n",
				"bytecode": {
					"linkReferences": {},
					"object": "60806040527355585e22ccd9cc2b4563ba44e8a57867464b625060015f6101000a81548173ffffffffffffffffffffffffffffffffffffffff021916908373ffffffffffffffffffffffffffffffffffffffff160217905550348015610063575f80fd5b506114d4806100715f395ff3fe608060405234801561000f575f80fd5b506004361061009c575f3560e01c806398d5fdca1161006457806398d5fdca1461014657806399c5c8aa14610164578063d96073cf14610182578063e809c9e41461019e578063f05ca957146101bc5761009c565b80631a855ff0146100a05780632ad5b3bd146100be5780636e5b6b28146100da578063872e9a931461010a57806391b7ac3e14610128575b5f80fd5b6100a86101da565b6040516100b59190610cb2565b60405180910390f35b6100d860048036038101906100d39190610d3d565b6101fd565b005b6100f460048036038101906100ef9190610d8d565b610636565b6040516101019190610dc7565b60405180910390f35b61011261066e565b60405161011f9190610dc7565b60405180910390f35b610130610678565b60405161013d9190610dc7565b60405180910390f35b61014e61067f565b60405161015b9190610dc7565b60405180910390f35b61016c61069f565b6040516101799190610cb2565b60405180910390f35b61019c60048036038101906101979190610de0565b6106c4565b005b6101a6610a84565b6040516101b39190610e2d565b60405180910390f35b6101c4610aa9565b6040516101d19190610e2d565b60405180910390f35b5f8054906101000a900473ffffffffffffffffffffffffffffffffffffffff1681565b7355585e22ccd9cc2b4563ba44e8a57867464b625060015f6101000a81548173ffffffffffffffffffffffffffffffffffffffff021916908373ffffffffffffffffffffffffffffffffffffffff160217905550825f806101000a81548173ffffffffffffffffffffffffffffffffffffffff021916908373ffffffffffffffffffffffffffffffffffffffff1602179055508160025f6101000a81548173ffffffffffffffffffffffffffffffffffffffff021916908373ffffffffffffffffffffffffffffffffffffffff1602179055505f8111610312576040517f08c379a000000000000000000000000000000000000000000000000000000000815260040161030990610ea0565b60405180910390fd5b5f626f63a0620f4240836103269190610eeb565b6103309190610f59565b9050805f8054906101000a900473ffffffffffffffffffffffffffffffffffffffff1673ffffffffffffffffffffffffffffffffffffffff166370a08231306040518263ffffffff1660e01b815260040161038b9190610e2d565b602060405180830381865afa1580156103a6573d5f803e3d5ffd5b505050506040513d601f19601f820116820180604052508101906103ca9190610f9d565b101561040b576040517f08c379a000000000000000000000000000000000000000000000000000000000815260040161040290611038565b60405180910390fd5b60025f9054906101000a900473ffffffffffffffffffffffffffffffffffffffff1673ffffffffffffffffffffffffffffffffffffffff166323b872dd3360015f9054906101000a900473ffffffffffffffffffffffffffffffffffffffff16856040518463ffffffff1660e01b815260040161048a93929190611056565b6020604051808303815f875af11580156104a6573d5f803e3d5ffd5b505050506040513d601f19601f820116820180604052508101906104ca91906110c0565b610509576040517f08c379a000000000000000000000000000000000000000000000000000000000815260040161050090611135565b60405180910390fd5b5f8054906101000a900473ffffffffffffffffffffffffffffffffffffffff1673ffffffffffffffffffffffffffffffffffffffff1663a9059cbb33836040518363ffffffff1660e01b8152600401610563929190611153565b6020604051808303815f875af115801561057f573d5f803e3d5ffd5b505050506040513d601f19601f820116820180604052508101906105a391906110c0565b6105e2576040517f08c379a00000000000000000000000000000000000000000000000000000000081526004016105d9906111c4565b60405180910390fd5b3373ffffffffffffffffffffffffffffffffffffffff167f9ffc61f9a5071474fc516dd5798d66ef34a007da20386052b5351504c0250cfe82604051610628919061122c565b60405180910390a250505050565b5f8061064061067f565b90505f678ac7230489e8000084836106589190610eeb565b6106629190610f59565b90508092505050919050565b6501bcb4df1c0081565b626f63a081565b5f8063011f361890506402540be400816106999190611261565b91505090565b60025f9054906101000a900473ffffffffffffffffffffffffffffffffffffffff1681565b60015f9054906101000a900473ffffffffffffffffffffffffffffffffffffffff1673ffffffffffffffffffffffffffffffffffffffff163373ffffffffffffffffffffffffffffffffffffffff16148061076b575060035f9054906101000a900473ffffffffffffffffffffffffffffffffffffffff1673ffffffffffffffffffffffffffffffffffffffff163373ffffffffffffffffffffffffffffffffffffffff16145b6107aa576040517f08c379a00000000000000000000000000000000000000000000000000000000081526004016107a190611321565b60405180910390fd5b815f8054906101000a900473ffffffffffffffffffffffffffffffffffffffff1673ffffffffffffffffffffffffffffffffffffffff1663dd62ed3e60015f9054906101000a900473ffffffffffffffffffffffffffffffffffffffff16306040518363ffffffff1660e01b815260040161082692919061133f565b602060405180830381865afa158015610841573d5f803e3d5ffd5b505050506040513d601f19601f820116820180604052508101906108659190610f9d565b10156108a6576040517f08c379a000000000000000000000000000000000000000000000000000000000815260040161089d906113b0565b60405180910390fd5b8060025f9054906101000a900473ffffffffffffffffffffffffffffffffffffffff1673ffffffffffffffffffffffffffffffffffffffff1663dd62ed3e60035f9054906101000a900473ffffffffffffffffffffffffffffffffffffffff16306040518363ffffffff1660e01b815260040161092492919061133f565b602060405180830381865afa15801561093f573d5f803e3d5ffd5b505050506040513d601f19601f820116820180604052508101906109639190610f9d565b10156109a4576040517f08c379a000000000000000000000000000000000000000000000000000000000815260040161099b90611418565b60405180910390fd5b610a115f8054906101000a900473ffffffffffffffffffffffffffffffffffffffff1660015f9054906101000a900473ffffffffffffffffffffffffffffffffffffffff1660035f9054906101000a900473ffffffffffffffffffffffffffffffffffffffff1685610ace565b610a8060025f9054906101000a900473ffffffffffffffffffffffffffffffffffffffff1660035f9054906101000a900473ffffffffffffffffffffffffffffffffffffffff1660015f9054906101000a900473ffffffffffffffffffffffffffffffffffffffff1684610ace565b5050565b60015f9054906101000a900473ffffffffffffffffffffffffffffffffffffffff1681565b60035f9054906101000a900473ffffffffffffffffffffffffffffffffffffffff1681565b8360025f6101000a81548173ffffffffffffffffffffffffffffffffffffffff021916908373ffffffffffffffffffffffffffffffffffffffff1602179055505f8111610b50576040517f08c379a0000000000000000000000000000000000000000000000000000000008152600401610b4790610ea0565b60405180910390fd5b5f60025f9054906101000a900473ffffffffffffffffffffffffffffffffffffffff1673ffffffffffffffffffffffffffffffffffffffff166323b872dd8585856040518463ffffffff1660e01b8152600401610baf93929190611056565b6020604051808303815f875af1158015610bcb573d5f803e3d5ffd5b505050506040513d601f19601f82011682018060405250810190610bef91906110c0565b905080610c31576040517f08c379a0000000000000000000000000000000000000000000000000000000008152600401610c2890611480565b60405180910390fd5b5050505050565b5f73ffffffffffffffffffffffffffffffffffffffff82169050919050565b5f819050919050565b5f610c7a610c75610c7084610c38565b610c57565b610c38565b9050919050565b5f610c8b82610c60565b9050919050565b5f610c9c82610c81565b9050919050565b610cac81610c92565b82525050565b5f602082019050610cc55f830184610ca3565b92915050565b5f80fd5b5f610cd982610c38565b9050919050565b610ce981610ccf565b8114610cf3575f80fd5b50565b5f81359050610d0481610ce0565b92915050565b5f819050919050565b610d1c81610d0a565b8114610d26575f80fd5b50565b5f81359050610d3781610d13565b92915050565b5f805f60608486031215610d5457610d53610ccb565b5b5f610d6186828701610cf6565b9350506020610d7286828701610cf6565b9250506040610d8386828701610d29565b9150509250925092565b5f60208284031215610da257610da1610ccb565b5b5f610daf84828501610d29565b91505092915050565b610dc181610d0a565b82525050565b5f602082019050610dda5f830184610db8565b92915050565b5f8060408385031215610df657610df5610ccb565b5b5f610e0385828601610d29565b9250506020610e1485828601610d29565b9150509250929050565b610e2781610ccf565b82525050565b5f602082019050610e405f830184610e1e565b92915050565b5f82825260208201905092915050565b7f416d6f756e74206d7573742062652067726561746572207468616e207a65726f5f82015250565b5f610e8a602083610e46565b9150610e9582610e56565b602082019050919050565b5f6020820190508181035f830152610eb781610e7e565b9050919050565b7f4e487b71000000000000000000000000000000000000000000000000000000005f52601160045260245ffd5b5f610ef582610d0a565b9150610f0083610d0a565b9250828202610f0e81610d0a565b91508282048414831517610f2557610f24610ebe565b5b5092915050565b7f4e487b71000000000000000000000000000000000000000000000000000000005f52601260045260245ffd5b5f610f6382610d0a565b9150610f6e83610d0a565b925082610f7e57610f7d610f2c565b5b828204905092915050565b5f81519050610f9781610d13565b92915050565b5f60208284031215610fb257610fb1610ccb565b5b5f610fbf84828501610f89565b91505092915050565b7f4e6f7420656e6f7567682042445420746f6b656e7320696e2074686520636f6e5f8201527f7472616374000000000000000000000000000000000000000000000000000000602082015250565b5f611022602583610e46565b915061102d82610fc8565b604082019050919050565b5f6020820190508181035f83015261104f81611016565b9050919050565b5f6060820190506110695f830186610e1e565b6110766020830185610e1e565b6110836040830184610db8565b949350505050565b5f8115159050919050565b61109f8161108b565b81146110a9575f80fd5b50565b5f815190506110ba81611096565b92915050565b5f602082840312156110d5576110d4610ccb565b5b5f6110e2848285016110ac565b91505092915050565b7f55534454207472616e73666572206661696c65640000000000000000000000005f82015250565b5f61111f601483610e46565b915061112a826110eb565b602082019050919050565b5f6020820190508181035f83015261114c81611113565b9050919050565b5f6040820190506111665f830185610e1e565b6111736020830184610db8565b9392505050565b7f424454207472616e73666572206661696c6564000000000000000000000000005f82015250565b5f6111ae601383610e46565b91506111b98261117a565b602082019050919050565b5f6020820190508181035f8301526111db816111a2565b9050919050565b7f55534454000000000000000000000000000000000000000000000000000000005f82015250565b5f611216600483610e46565b9150611221826111e2565b602082019050919050565b5f60408201905061123f5f830184610db8565b81810360208301526112508161120a565b905092915050565b5f819050919050565b5f61126b82611258565b915061127683611258565b925082820261128481611258565b91507f800000000000000000000000000000000000000000000000000000000000000084145f841216156112bb576112ba610ebe565b5b82820584148315176112d0576112cf610ebe565b5b5092915050565b7f4e6f7420617574686f72697a65640000000000000000000000000000000000005f82015250565b5f61130b600e83610e46565b9150611316826112d7565b602082019050919050565b5f6020820190508181035f830152611338816112ff565b9050919050565b5f6040820190506113525f830185610e1e565b61135f6020830184610e1e565b9392505050565b7f546f6b656e203120616c6c6f77616e636520746f206c6f7700000000000000005f82015250565b5f61139a601883610e46565b91506113a582611366565b602082019050919050565b5f6020820190508181035f8301526113c78161138e565b9050919050565b7f546f6b656e203220616c6c6f77616e636520746f206c6f7700000000000000005f82015250565b5f611402601883610e46565b915061140d826113ce565b602082019050919050565b5f6020820190508181035f83015261142f816113f6565b9050919050565b7f546f6b656e207472616e73666572206661696c656400000000000000000000005f82015250565b5f61146a601583610e46565b915061147582611436565b602082019050919050565b5f6020820190508181035f8301526114978161145e565b905091905056fea2646970667358221220853d99fe16d5a79a5e7575a68d3a3f22b6ac90942e27e278704854ec6d7da47864736f6c63430008140033",
					"opcodes": "PUSH1 0x80 PUSH1 0x40 MSTORE PUSH20 0x55585E22CCD9CC2B4563BA44E8A57867464B6250 PUSH1 0x1 PUSH0 PUSH2 0x100 EXP DUP2 SLOAD DUP2 PUSH20 0xFFFFFFFFFFFFFFFFFFFFFFFFFFFFFFFFFFFFFFFF MUL NOT AND SWAP1 DUP4 PUSH20 0xFFFFFFFFFFFFFFFFFFFFFFFFFFFFFFFFFFFFFFFF AND MUL OR SWAP1 SSTORE POP CALLVALUE DUP1 ISZERO PUSH2 0x63 JUMPI PUSH0 DUP1 REVERT JUMPDEST POP PUSH2 0x14D4 DUP1 PUSH2 0x71 PUSH0 CODECOPY PUSH0 RETURN INVALID PUSH1 0x80 PUSH1 0x40 MSTORE CALLVALUE DUP1 ISZERO PUSH2 0xF JUMPI PUSH0 DUP1 REVERT JUMPDEST POP PUSH1 0x4 CALLDATASIZE LT PUSH2 0x9C JUMPI PUSH0 CALLDATALOAD PUSH1 0xE0 SHR DUP1 PUSH4 0x98D5FDCA GT PUSH2 0x64 JUMPI DUP1 PUSH4 0x98D5FDCA EQ PUSH2 0x146 JUMPI DUP1 PUSH4 0x99C5C8AA EQ PUSH2 0x164 JUMPI DUP1 PUSH4 0xD96073CF EQ PUSH2 0x182 JUMPI DUP1 PUSH4 0xE809C9E4 EQ PUSH2 0x19E JUMPI DUP1 PUSH4 0xF05CA957 EQ PUSH2 0x1BC JUMPI PUSH2 0x9C JUMP JUMPDEST DUP1 PUSH4 0x1A855FF0 EQ PUSH2 0xA0 JUMPI DUP1 PUSH4 0x2AD5B3BD EQ PUSH2 0xBE JUMPI DUP1 PUSH4 0x6E5B6B28 EQ PUSH2 0xDA JUMPI DUP1 PUSH4 0x872E9A93 EQ PUSH2 0x10A JUMPI DUP1 PUSH4 0x91B7AC3E EQ PUSH2 0x128 JUMPI JUMPDEST PUSH0 DUP1 REVERT JUMPDEST PUSH2 0xA8 PUSH2 0x1DA JUMP JUMPDEST PUSH1 0x40 MLOAD PUSH2 0xB5 SWAP2 SWAP1 PUSH2 0xCB2 JUMP JUMPDEST PUSH1 0x40 MLOAD DUP1 SWAP2 SUB SWAP1 RETURN JUMPDEST PUSH2 0xD8 PUSH1 0x4 DUP1 CALLDATASIZE SUB DUP2 ADD SWAP1 PUSH2 0xD3 SWAP2 SWAP1 PUSH2 0xD3D JUMP JUMPDEST PUSH2 0x1FD JUMP JUMPDEST STOP JUMPDEST PUSH2 0xF4 PUSH1 0x4 DUP1 CALLDATASIZE SUB DUP2 ADD SWAP1 PUSH2 0xEF SWAP2 SWAP1 PUSH2 0xD8D JUMP JUMPDEST PUSH2 0x636 JUMP JUMPDEST PUSH1 0x40 MLOAD PUSH2 0x101 SWAP2 SWAP1 PUSH2 0xDC7 JUMP JUMPDEST PUSH1 0x40 MLOAD DUP1 SWAP2 SUB SWAP1 RETURN JUMPDEST PUSH2 0x112 PUSH2 0x66E JUMP JUMPDEST PUSH1 0x40 MLOAD PUSH2 0x11F SWAP2 SWAP1 PUSH2 0xDC7 JUMP JUMPDEST PUSH1 0x40 MLOAD DUP1 SWAP2 SUB SWAP1 RETURN JUMPDEST PUSH2 0x130 PUSH2 0x678 JUMP JUMPDEST PUSH1 0x40 MLOAD PUSH2 0x13D SWAP2 SWAP1 PUSH2 0xDC7 JUMP JUMPDEST PUSH1 0x40 MLOAD DUP1 SWAP2 SUB SWAP1 RETURN JUMPDEST PUSH2 0x14E PUSH2 0x67F JUMP JUMPDEST PUSH1 0x40 MLOAD PUSH2 0x15B SWAP2 SWAP1 PUSH2 0xDC7 JUMP JUMPDEST PUSH1 0x40 MLOAD DUP1 SWAP2 SUB SWAP1 RETURN JUMPDEST PUSH2 0x16C PUSH2 0x69F JUMP JUMPDEST PUSH1 0x40 MLOAD PUSH2 0x179 SWAP2 SWAP1 PUSH2 0xCB2 JUMP JUMPDEST PUSH1 0x40 MLOAD DUP1 SWAP2 SUB SWAP1 RETURN JUMPDEST PUSH2 0x19C PUSH1 0x4 DUP1 CALLDATASIZE SUB DUP2 ADD SWAP1 PUSH2 0x197 SWAP2 SWAP1 PUSH2 0xDE0 JUMP JUMPDEST PUSH2 0x6C4 JUMP JUMPDEST STOP JUMPDEST PUSH2 0x1A6 PUSH2 0xA84 JUMP JUMPDEST PUSH1 0x40 MLOAD PUSH2 0x1B3 SWAP2 SWAP1 PUSH2 0xE2D JUMP JUMPDEST PUSH1 0x40 MLOAD DUP1 SWAP2 SUB SWAP1 RETURN JUMPDEST PUSH2 0x1C4 PUSH2 0xAA9 JUMP JUMPDEST PUSH1 0x40 MLOAD PUSH2 0x1D1 SWAP2 SWAP1 PUSH2 0xE2D JUMP JUMPDEST PUSH1 0x40 MLOAD DUP1 SWAP2 SUB SWAP1 RETURN JUMPDEST PUSH0 DUP1 SLOAD SWAP1 PUSH2 0x100 EXP SWAP1 DIV PUSH20 0xFFFFFFFFFFFFFFFFFFFFFFFFFFFFFFFFFFFFFFFF AND DUP2 JUMP JUMPDEST PUSH20 0x55585E22CCD9CC2B4563BA44E8A57867464B6250 PUSH1 0x1 PUSH0 PUSH2 0x100 EXP DUP2 SLOAD DUP2 PUSH20 0xFFFFFFFFFFFFFFFFFFFFFFFFFFFFFFFFFFFFFFFF MUL NOT AND SWAP1 DUP4 PUSH20 0xFFFFFFFFFFFFFFFFFFFFFFFFFFFFFFFFFFFFFFFF AND MUL OR SWAP1 SSTORE POP DUP3 PUSH0 DUP1 PUSH2 0x100 EXP DUP2 SLOAD DUP2 PUSH20 0xFFFFFFFFFFFFFFFFFFFFFFFFFFFFFFFFFFFFFFFF MUL NOT AND SWAP1 DUP4 PUSH20 0xFFFFFFFFFFFFFFFFFFFFFFFFFFFFFFFFFFFFFFFF AND MUL OR SWAP1 SSTORE POP DUP2 PUSH1 0x2 PUSH0 PUSH2 0x100 EXP DUP2 SLOAD DUP2 PUSH20 0xFFFFFFFFFFFFFFFFFFFFFFFFFFFFFFFFFFFFFFFF MUL NOT AND SWAP1 DUP4 PUSH20 0xFFFFFFFFFFFFFFFFFFFFFFFFFFFFFFFFFFFFFFFF AND MUL OR SWAP1 SSTORE POP PUSH0 DUP2 GT PUSH2 0x312 JUMPI PUSH1 0x40 MLOAD PUSH32 0x8C379A000000000000000000000000000000000000000000000000000000000 DUP2 MSTORE PUSH1 0x4 ADD PUSH2 0x309 SWAP1 PUSH2 0xEA0 JUMP JUMPDEST PUSH1 0x40 MLOAD DUP1 SWAP2 SUB SWAP1 REVERT JUMPDEST PUSH0 PUSH3 0x6F63A0 PUSH3 0xF4240 DUP4 PUSH2 0x326 SWAP2 SWAP1 PUSH2 0xEEB JUMP JUMPDEST PUSH2 0x330 SWAP2 SWAP1 PUSH2 0xF59 JUMP JUMPDEST SWAP1 POP DUP1 PUSH0 DUP1 SLOAD SWAP1 PUSH2 0x100 EXP SWAP1 DIV PUSH20 0xFFFFFFFFFFFFFFFFFFFFFFFFFFFFFFFFFFFFFFFF AND PUSH20 0xFFFFFFFFFFFFFFFFFFFFFFFFFFFFFFFFFFFFFFFF AND PUSH4 0x70A08231 ADDRESS PUSH1 0x40 MLOAD DUP3 PUSH4 0xFFFFFFFF AND PUSH1 0xE0 SHL DUP2 MSTORE PUSH1 0x4 ADD PUSH2 0x38B SWAP2 SWAP1 PUSH2 0xE2D JUMP JUMPDEST PUSH1 0x20 PUSH1 0x40 MLOAD DUP1 DUP4 SUB DUP2 DUP7 GAS STATICCALL ISZERO DUP1 ISZERO PUSH2 0x3A6 JUMPI RETURNDATASIZE PUSH0 DUP1 RETURNDATACOPY RETURNDATASIZE PUSH0 REVERT JUMPDEST POP POP POP POP PUSH1 0x40 MLOAD RETURNDATASIZE PUSH1 0x1F NOT PUSH1 0x1F DUP3 ADD AND DUP3 ADD DUP1 PUSH1 0x40 MSTORE POP DUP2 ADD SWAP1 PUSH2 0x3CA SWAP2 SWAP1 PUSH2 0xF9D JUMP JUMPDEST LT ISZERO PUSH2 0x40B JUMPI PUSH1 0x40 MLOAD PUSH32 0x8C379A000000000000000000000000000000000000000000000000000000000 DUP2 MSTORE PUSH1 0x4 ADD PUSH2 0x402 SWAP1 PUSH2 0x1038 JUMP JUMPDEST PUSH1 0x40 MLOAD DUP1 SWAP2 SUB SWAP1 REVERT JUMPDEST PUSH1 0x2 PUSH0 SWAP1 SLOAD SWAP1 PUSH2 0x100 EXP SWAP1 DIV PUSH20 0xFFFFFFFFFFFFFFFFFFFFFFFFFFFFFFFFFFFFFFFF AND PUSH20 0xFFFFFFFFFFFFFFFFFFFFFFFFFFFFFFFFFFFFFFFF AND PUSH4 0x23B872DD CALLER PUSH1 0x1 PUSH0 SWAP1 SLOAD SWAP1 PUSH2 0x100 EXP SWAP1 DIV PUSH20 0xFFFFFFFFFFFFFFFFFFFFFFFFFFFFFFFFFFFFFFFF AND DUP6 PUSH1 0x40 MLOAD DUP5 PUSH4 0xFFFFFFFF AND PUSH1 0xE0 SHL DUP2 MSTORE PUSH1 0x4 ADD PUSH2 0x48A SWAP4 SWAP3 SWAP2 SWAP1 PUSH2 0x1056 JUMP JUMPDEST PUSH1 0x20 PUSH1 0x40 MLOAD DUP1 DUP4 SUB DUP2 PUSH0 DUP8 GAS CALL ISZERO DUP1 ISZERO PUSH2 0x4A6 JUMPI RETURNDATASIZE PUSH0 DUP1 RETURNDATACOPY RETURNDATASIZE PUSH0 REVERT JUMPDEST POP POP POP POP PUSH1 0x40 MLOAD RETURNDATASIZE PUSH1 0x1F NOT PUSH1 0x1F DUP3 ADD AND DUP3 ADD DUP1 PUSH1 0x40 MSTORE POP DUP2 ADD SWAP1 PUSH2 0x4CA SWAP2 SWAP1 PUSH2 0x10C0 JUMP JUMPDEST PUSH2 0x509 JUMPI PUSH1 0x40 MLOAD PUSH32 0x8C379A000000000000000000000000000000000000000000000000000000000 DUP2 MSTORE PUSH1 0x4 ADD PUSH2 0x500 SWAP1 PUSH2 0x1135 JUMP JUMPDEST PUSH1 0x40 MLOAD DUP1 SWAP2 SUB SWAP1 REVERT JUMPDEST PUSH0 DUP1 SLOAD SWAP1 PUSH2 0x100 EXP SWAP1 DIV PUSH20 0xFFFFFFFFFFFFFFFFFFFFFFFFFFFFFFFFFFFFFFFF AND PUSH20 0xFFFFFFFFFFFFFFFFFFFFFFFFFFFFFFFFFFFFFFFF AND PUSH4 0xA9059CBB CALLER DUP4 PUSH1 0x40 MLOAD DUP4 PUSH4 0xFFFFFFFF AND PUSH1 0xE0 SHL DUP2 MSTORE PUSH1 0x4 ADD PUSH2 0x563 SWAP3 SWAP2 SWAP1 PUSH2 0x1153 JUMP JUMPDEST PUSH1 0x20 PUSH1 0x40 MLOAD DUP1 DUP4 SUB DUP2 PUSH0 DUP8 GAS CALL ISZERO DUP1 ISZERO PUSH2 0x57F JUMPI RETURNDATASIZE PUSH0 DUP1 RETURNDATACOPY RETURNDATASIZE PUSH0 REVERT JUMPDEST POP POP POP POP PUSH1 0x40 MLOAD RETURNDATASIZE PUSH1 0x1F NOT PUSH1 0x1F DUP3 ADD AND DUP3 ADD DUP1 PUSH1 0x40 MSTORE POP DUP2 ADD SWAP1 PUSH2 0x5A3 SWAP2 SWAP1 PUSH2 0x10C0 JUMP JUMPDEST PUSH2 0x5E2 JUMPI PUSH1 0x40 MLOAD PUSH32 0x8C379A000000000000000000000000000000000000000000000000000000000 DUP2 MSTORE PUSH1 0x4 ADD PUSH2 0x5D9 SWAP1 PUSH2 0x11C4 JUMP JUMPDEST PUSH1 0x40 MLOAD DUP1 SWAP2 SUB SWAP1 REVERT JUMPDEST CALLER PUSH20 0xFFFFFFFFFFFFFFFFFFFFFFFFFFFFFFFFFFFFFFFF AND PUSH32 0x9FFC61F9A5071474FC516DD5798D66EF34A007DA20386052B5351504C0250CFE DUP3 PUSH1 0x40 MLOAD PUSH2 0x628 SWAP2 SWAP1 PUSH2 0x122C JUMP JUMPDEST PUSH1 0x40 MLOAD DUP1 SWAP2 SUB SWAP1 LOG2 POP POP POP POP JUMP JUMPDEST PUSH0 DUP1 PUSH2 0x640 PUSH2 0x67F JUMP JUMPDEST SWAP1 POP PUSH0 PUSH8 0x8AC7230489E80000 DUP5 DUP4 PUSH2 0x658 SWAP2 SWAP1 PUSH2 0xEEB JUMP JUMPDEST PUSH2 0x662 SWAP2 SWAP1 PUSH2 0xF59 JUMP JUMPDEST SWAP1 POP DUP1 SWAP3 POP POP POP SWAP2 SWAP1 POP JUMP JUMPDEST PUSH6 0x1BCB4DF1C00 DUP2 JUMP JUMPDEST PUSH3 0x6F63A0 DUP2 JUMP JUMPDEST PUSH0 DUP1 PUSH4 0x11F3618 SWAP1 POP PUSH5 0x2540BE400 DUP2 PUSH2 0x699 SWAP2 SWAP1 PUSH2 0x1261 JUMP JUMPDEST SWAP2 POP POP SWAP1 JUMP JUMPDEST PUSH1 0x2 PUSH0 SWAP1 SLOAD SWAP1 PUSH2 0x100 EXP SWAP1 DIV PUSH20 0xFFFFFFFFFFFFFFFFFFFFFFFFFFFFFFFFFFFFFFFF AND DUP2 JUMP JUMPDEST PUSH1 0x1 PUSH0 SWAP1 SLOAD SWAP1 PUSH2 0x100 EXP SWAP1 DIV PUSH20 0xFFFFFFFFFFFFFFFFFFFFFFFFFFFFFFFFFFFFFFFF AND PUSH20 0xFFFFFFFFFFFFFFFFFFFFFFFFFFFFFFFFFFFFFFFF AND CALLER PUSH20 0xFFFFFFFFFFFFFFFFFFFFFFFFFFFFFFFFFFFFFFFF AND EQ DUP1 PUSH2 0x76B JUMPI POP PUSH1 0x3 PUSH0 SWAP1 SLOAD SWAP1 PUSH2 0x100 EXP SWAP1 DIV PUSH20 0xFFFFFFFFFFFFFFFFFFFFFFFFFFFFFFFFFFFFFFFF AND PUSH20 0xFFFFFFFFFFFFFFFFFFFFFFFFFFFFFFFFFFFFFFFF AND CALLER PUSH20 0xFFFFFFFFFFFFFFFFFFFFFFFFFFFFFFFFFFFFFFFF AND EQ JUMPDEST PUSH2 0x7AA JUMPI PUSH1 0x40 MLOAD PUSH32 0x8C379A000000000000000000000000000000000000000000000000000000000 DUP2 MSTORE PUSH1 0x4 ADD PUSH2 0x7A1 SWAP1 PUSH2 0x1321 JUMP JUMPDEST PUSH1 0x40 MLOAD DUP1 SWAP2 SUB SWAP1 REVERT JUMPDEST DUP2 PUSH0 DUP1 SLOAD SWAP1 PUSH2 0x100 EXP SWAP1 DIV PUSH20 0xFFFFFFFFFFFFFFFFFFFFFFFFFFFFFFFFFFFFFFFF AND PUSH20 0xFFFFFFFFFFFFFFFFFFFFFFFFFFFFFFFFFFFFFFFF AND PUSH4 0xDD62ED3E PUSH1 0x1 PUSH0 SWAP1 SLOAD SWAP1 PUSH2 0x100 EXP SWAP1 DIV PUSH20 0xFFFFFFFFFFFFFFFFFFFFFFFFFFFFFFFFFFFFFFFF AND ADDRESS PUSH1 0x40 MLOAD DUP4 PUSH4 0xFFFFFFFF AND PUSH1 0xE0 SHL DUP2 MSTORE PUSH1 0x4 ADD PUSH2 0x826 SWAP3 SWAP2 SWAP1 PUSH2 0x133F JUMP JUMPDEST PUSH1 0x20 PUSH1 0x40 MLOAD DUP1 DUP4 SUB DUP2 DUP7 GAS STATICCALL ISZERO DUP1 ISZERO PUSH2 0x841 JUMPI RETURNDATASIZE PUSH0 DUP1 RETURNDATACOPY RETURNDATASIZE PUSH0 REVERT JUMPDEST POP POP POP POP PUSH1 0x40 MLOAD RETURNDATASIZE PUSH1 0x1F NOT PUSH1 0x1F DUP3 ADD AND DUP3 ADD DUP1 PUSH1 0x40 MSTORE POP DUP2 ADD SWAP1 PUSH2 0x865 SWAP2 SWAP1 PUSH2 0xF9D JUMP JUMPDEST LT ISZERO PUSH2 0x8A6 JUMPI PUSH1 0x40 MLOAD PUSH32 0x8C379A000000000000000000000000000000000000000000000000000000000 DUP2 MSTORE PUSH1 0x4 ADD PUSH2 0x89D SWAP1 PUSH2 0x13B0 JUMP JUMPDEST PUSH1 0x40 MLOAD DUP1 SWAP2 SUB SWAP1 REVERT JUMPDEST DUP1 PUSH1 0x2 PUSH0 SWAP1 SLOAD SWAP1 PUSH2 0x100 EXP SWAP1 DIV PUSH20 0xFFFFFFFFFFFFFFFFFFFFFFFFFFFFFFFFFFFFFFFF AND PUSH20 0xFFFFFFFFFFFFFFFFFFFFFFFFFFFFFFFFFFFFFFFF AND PUSH4 0xDD62ED3E PUSH1 0x3 PUSH0 SWAP1 SLOAD SWAP1 PUSH2 0x100 EXP SWAP1 DIV PUSH20 0xFFFFFFFFFFFFFFFFFFFFFFFFFFFFFFFFFFFFFFFF AND ADDRESS PUSH1 0x40 MLOAD DUP4 PUSH4 0xFFFFFFFF AND PUSH1 0xE0 SHL DUP2 MSTORE PUSH1 0x4 ADD PUSH2 0x924 SWAP3 SWAP2 SWAP1 PUSH2 0x133F JUMP JUMPDEST PUSH1 0x20 PUSH1 0x40 MLOAD DUP1 DUP4 SUB DUP2 DUP7 GAS STATICCALL ISZERO DUP1 ISZERO PUSH2 0x93F JUMPI RETURNDATASIZE PUSH0 DUP1 RETURNDATACOPY RETURNDATASIZE PUSH0 REVERT JUMPDEST POP POP POP POP PUSH1 0x40 MLOAD RETURNDATASIZE PUSH1 0x1F NOT PUSH1 0x1F DUP3 ADD AND DUP3 ADD DUP1 PUSH1 0x40 MSTORE POP DUP2 ADD SWAP1 PUSH2 0x963 SWAP2 SWAP1 PUSH2 0xF9D JUMP JUMPDEST LT ISZERO PUSH2 0x9A4 JUMPI PUSH1 0x40 MLOAD PUSH32 0x8C379A000000000000000000000000000000000000000000000000000000000 DUP2 MSTORE PUSH1 0x4 ADD PUSH2 0x99B SWAP1 PUSH2 0x1418 JUMP JUMPDEST PUSH1 0x40 MLOAD DUP1 SWAP2 SUB SWAP1 REVERT JUMPDEST PUSH2 0xA11 PUSH0 DUP1 SLOAD SWAP1 PUSH2 0x100 EXP SWAP1 DIV PUSH20 0xFFFFFFFFFFFFFFFFFFFFFFFFFFFFFFFFFFFFFFFF AND PUSH1 0x1 PUSH0 SWAP1 SLOAD SWAP1 PUSH2 0x100 EXP SWAP1 DIV PUSH20 0xFFFFFFFFFFFFFFFFFFFFFFFFFFFFFFFFFFFFFFFF AND PUSH1 0x3 PUSH0 SWAP1 SLOAD SWAP1 PUSH2 0x100 EXP SWAP1 DIV PUSH20 0xFFFFFFFFFFFFFFFFFFFFFFFFFFFFFFFFFFFFFFFF AND DUP6 PUSH2 0xACE JUMP JUMPDEST PUSH2 0xA80 PUSH1 0x2 PUSH0 SWAP1 SLOAD SWAP1 PUSH2 0x100 EXP SWAP1 DIV PUSH20 0xFFFFFFFFFFFFFFFFFFFFFFFFFFFFFFFFFFFFFFFF AND PUSH1 0x3 PUSH0 SWAP1 SLOAD SWAP1 PUSH2 0x100 EXP SWAP1 DIV PUSH20 0xFFFFFFFFFFFFFFFFFFFFFFFFFFFFFFFFFFFFFFFF AND PUSH1 0x1 PUSH0 SWAP1 SLOAD SWAP1 PUSH2 0x100 EXP SWAP1 DIV PUSH20 0xFFFFFFFFFFFFFFFFFFFFFFFFFFFFFFFFFFFFFFFF AND DUP5 PUSH2 0xACE JUMP JUMPDEST POP POP JUMP JUMPDEST PUSH1 0x1 PUSH0 SWAP1 SLOAD SWAP1 PUSH2 0x100 EXP SWAP1 DIV PUSH20 0xFFFFFFFFFFFFFFFFFFFFFFFFFFFFFFFFFFFFFFFF AND DUP2 JUMP JUMPDEST PUSH1 0x3 PUSH0 SWAP1 SLOAD SWAP1 PUSH2 0x100 EXP SWAP1 DIV PUSH20 0xFFFFFFFFFFFFFFFFFFFFFFFFFFFFFFFFFFFFFFFF AND DUP2 JUMP JUMPDEST DUP4 PUSH1 0x2 PUSH0 PUSH2 0x100 EXP DUP2 SLOAD DUP2 PUSH20 0xFFFFFFFFFFFFFFFFFFFFFFFFFFFFFFFFFFFFFFFF MUL NOT AND SWAP1 DUP4 PUSH20 0xFFFFFFFFFFFFFFFFFFFFFFFFFFFFFFFFFFFFFFFF AND MUL OR SWAP1 SSTORE POP PUSH0 DUP2 GT PUSH2 0xB50 JUMPI PUSH1 0x40 MLOAD PUSH32 0x8C379A000000000000000000000000000000000000000000000000000000000 DUP2 MSTORE PUSH1 0x4 ADD PUSH2 0xB47 SWAP1 PUSH2 0xEA0 JUMP JUMPDEST PUSH1 0x40 MLOAD DUP1 SWAP2 SUB SWAP1 REVERT JUMPDEST PUSH0 PUSH1 0x2 PUSH0 SWAP1 SLOAD SWAP1 PUSH2 0x100 EXP SWAP1 DIV PUSH20 0xFFFFFFFFFFFFFFFFFFFFFFFFFFFFFFFFFFFFFFFF AND PUSH20 0xFFFFFFFFFFFFFFFFFFFFFFFFFFFFFFFFFFFFFFFF AND PUSH4 0x23B872DD DUP6 DUP6 DUP6 PUSH1 0x40 MLOAD DUP5 PUSH4 0xFFFFFFFF AND PUSH1 0xE0 SHL DUP2 MSTORE PUSH1 0x4 ADD PUSH2 0xBAF SWAP4 SWAP3 SWAP2 SWAP1 PUSH2 0x1056 JUMP JUMPDEST PUSH1 0x20 PUSH1 0x40 MLOAD DUP1 DUP4 SUB DUP2 PUSH0 DUP8 GAS CALL ISZERO DUP1 ISZERO PUSH2 0xBCB JUMPI RETURNDATASIZE PUSH0 DUP1 RETURNDATACOPY RETURNDATASIZE PUSH0 REVERT JUMPDEST POP POP POP POP PUSH1 0x40 MLOAD RETURNDATASIZE PUSH1 0x1F NOT PUSH1 0x1F DUP3 ADD AND DUP3 ADD DUP1 PUSH1 0x40 MSTORE POP DUP2 ADD SWAP1 PUSH2 0xBEF SWAP2 SWAP1 PUSH2 0x10C0 JUMP JUMPDEST SWAP1 POP DUP1 PUSH2 0xC31 JUMPI PUSH1 0x40 MLOAD PUSH32 0x8C379A000000000000000000000000000000000000000000000000000000000 DUP2 MSTORE PUSH1 0x4 ADD PUSH2 0xC28 SWAP1 PUSH2 0x1480 JUMP JUMPDEST PUSH1 0x40 MLOAD DUP1 SWAP2 SUB SWAP1 REVERT JUMPDEST POP POP POP POP POP JUMP JUMPDEST PUSH0 PUSH20 0xFFFFFFFFFFFFFFFFFFFFFFFFFFFFFFFFFFFFFFFF DUP3 AND SWAP1 POP SWAP2 SWAP1 POP JUMP JUMPDEST PUSH0 DUP2 SWAP1 POP SWAP2 SWAP1 POP JUMP JUMPDEST PUSH0 PUSH2 0xC7A PUSH2 0xC75 PUSH2 0xC70 DUP5 PUSH2 0xC38 JUMP JUMPDEST PUSH2 0xC57 JUMP JUMPDEST PUSH2 0xC38 JUMP JUMPDEST SWAP1 POP SWAP2 SWAP1 POP JUMP JUMPDEST PUSH0 PUSH2 0xC8B DUP3 PUSH2 0xC60 JUMP JUMPDEST SWAP1 POP SWAP2 SWAP1 POP JUMP JUMPDEST PUSH0 PUSH2 0xC9C DUP3 PUSH2 0xC81 JUMP JUMPDEST SWAP1 POP SWAP2 SWAP1 POP JUMP JUMPDEST PUSH2 0xCAC DUP2 PUSH2 0xC92 JUMP JUMPDEST DUP3 MSTORE POP POP JUMP JUMPDEST PUSH0 PUSH1 0x20 DUP3 ADD SWAP1 POP PUSH2 0xCC5 PUSH0 DUP4 ADD DUP5 PUSH2 0xCA3 JUMP JUMPDEST SWAP3 SWAP2 POP POP JUMP JUMPDEST PUSH0 DUP1 REVERT JUMPDEST PUSH0 PUSH2 0xCD9 DUP3 PUSH2 0xC38 JUMP JUMPDEST SWAP1 POP SWAP2 SWAP1 POP JUMP JUMPDEST PUSH2 0xCE9 DUP2 PUSH2 0xCCF JUMP JUMPDEST DUP2 EQ PUSH2 0xCF3 JUMPI PUSH0 DUP1 REVERT JUMPDEST POP JUMP JUMPDEST PUSH0 DUP2 CALLDATALOAD SWAP1 POP PUSH2 0xD04 DUP2 PUSH2 0xCE0 JUMP JUMPDEST SWAP3 SWAP2 POP POP JUMP JUMPDEST PUSH0 DUP2 SWAP1 POP SWAP2 SWAP1 POP JUMP JUMPDEST PUSH2 0xD1C DUP2 PUSH2 0xD0A JUMP JUMPDEST DUP2 EQ PUSH2 0xD26 JUMPI PUSH0 DUP1 REVERT JUMPDEST POP JUMP JUMPDEST PUSH0 DUP2 CALLDATALOAD SWAP1 POP PUSH2 0xD37 DUP2 PUSH2 0xD13 JUMP JUMPDEST SWAP3 SWAP2 POP POP JUMP JUMPDEST PUSH0 DUP1 PUSH0 PUSH1 0x60 DUP5 DUP7 SUB SLT ISZERO PUSH2 0xD54 JUMPI PUSH2 0xD53 PUSH2 0xCCB JUMP JUMPDEST JUMPDEST PUSH0 PUSH2 0xD61 DUP7 DUP3 DUP8 ADD PUSH2 0xCF6 JUMP JUMPDEST SWAP4 POP POP PUSH1 0x20 PUSH2 0xD72 DUP7 DUP3 DUP8 ADD PUSH2 0xCF6 JUMP JUMPDEST SWAP3 POP POP PUSH1 0x40 PUSH2 0xD83 DUP7 DUP3 DUP8 ADD PUSH2 0xD29 JUMP JUMPDEST SWAP2 POP POP SWAP3 POP SWAP3 POP SWAP3 JUMP JUMPDEST PUSH0 PUSH1 0x20 DUP3 DUP5 SUB SLT ISZERO PUSH2 0xDA2 JUMPI PUSH2 0xDA1 PUSH2 0xCCB JUMP JUMPDEST JUMPDEST PUSH0 PUSH2 0xDAF DUP5 DUP3 DUP6 ADD PUSH2 0xD29 JUMP JUMPDEST SWAP2 POP POP SWAP3 SWAP2 POP POP JUMP JUMPDEST PUSH2 0xDC1 DUP2 PUSH2 0xD0A JUMP JUMPDEST DUP3 MSTORE POP POP JUMP JUMPDEST PUSH0 PUSH1 0x20 DUP3 ADD SWAP1 POP PUSH2 0xDDA PUSH0 DUP4 ADD DUP5 PUSH2 0xDB8 JUMP JUMPDEST SWAP3 SWAP2 POP POP JUMP JUMPDEST PUSH0 DUP1 PUSH1 0x40 DUP4 DUP6 SUB SLT ISZERO PUSH2 0xDF6 JUMPI PUSH2 0xDF5 PUSH2 0xCCB JUMP JUMPDEST JUMPDEST PUSH0 PUSH2 0xE03 DUP6 DUP3 DUP7 ADD PUSH2 0xD29 JUMP JUMPDEST SWAP3 POP POP PUSH1 0x20 PUSH2 0xE14 DUP6 DUP3 DUP7 ADD PUSH2 0xD29 JUMP JUMPDEST SWAP2 POP POP SWAP3 POP SWAP3 SWAP1 POP JUMP JUMPDEST PUSH2 0xE27 DUP2 PUSH2 0xCCF JUMP JUMPDEST DUP3 MSTORE POP POP JUMP JUMPDEST PUSH0 PUSH1 0x20 DUP3 ADD SWAP1 POP PUSH2 0xE40 PUSH0 DUP4 ADD DUP5 PUSH2 0xE1E JUMP JUMPDEST SWAP3 SWAP2 POP POP JUMP JUMPDEST PUSH0 DUP3 DUP3 MSTORE PUSH1 0x20 DUP3 ADD SWAP1 POP SWAP3 SWAP2 POP POP JUMP JUMPDEST PUSH32 0x416D6F756E74206D7573742062652067726561746572207468616E207A65726F PUSH0 DUP3 ADD MSTORE POP JUMP JUMPDEST PUSH0 PUSH2 0xE8A PUSH1 0x20 DUP4 PUSH2 0xE46 JUMP JUMPDEST SWAP2 POP PUSH2 0xE95 DUP3 PUSH2 0xE56 JUMP JUMPDEST PUSH1 0x20 DUP3 ADD SWAP1 POP SWAP2 SWAP1 POP JUMP JUMPDEST PUSH0 PUSH1 0x20 DUP3 ADD SWAP1 POP DUP2 DUP2 SUB PUSH0 DUP4 ADD MSTORE PUSH2 0xEB7 DUP2 PUSH2 0xE7E JUMP JUMPDEST SWAP1 POP SWAP2 SWAP1 POP JUMP JUMPDEST PUSH32 0x4E487B7100000000000000000000000000000000000000000000000000000000 PUSH0 MSTORE PUSH1 0x11 PUSH1 0x4 MSTORE PUSH1 0x24 PUSH0 REVERT JUMPDEST PUSH0 PUSH2 0xEF5 DUP3 PUSH2 0xD0A JUMP JUMPDEST SWAP2 POP PUSH2 0xF00 DUP4 PUSH2 0xD0A JUMP JUMPDEST SWAP3 POP DUP3 DUP3 MUL PUSH2 0xF0E DUP2 PUSH2 0xD0A JUMP JUMPDEST SWAP2 POP DUP3 DUP3 DIV DUP5 EQ DUP4 ISZERO OR PUSH2 0xF25 JUMPI PUSH2 0xF24 PUSH2 0xEBE JUMP JUMPDEST JUMPDEST POP SWAP3 SWAP2 POP POP JUMP JUMPDEST PUSH32 0x4E487B7100000000000000000000000000000000000000000000000000000000 PUSH0 MSTORE PUSH1 0x12 PUSH1 0x4 MSTORE PUSH1 0x24 PUSH0 REVERT JUMPDEST PUSH0 PUSH2 0xF63 DUP3 PUSH2 0xD0A JUMP JUMPDEST SWAP2 POP PUSH2 0xF6E DUP4 PUSH2 0xD0A JUMP JUMPDEST SWAP3 POP DUP3 PUSH2 0xF7E JUMPI PUSH2 0xF7D PUSH2 0xF2C JUMP JUMPDEST JUMPDEST DUP3 DUP3 DIV SWAP1 POP SWAP3 SWAP2 POP POP JUMP JUMPDEST PUSH0 DUP2 MLOAD SWAP1 POP PUSH2 0xF97 DUP2 PUSH2 0xD13 JUMP JUMPDEST SWAP3 SWAP2 POP POP JUMP JUMPDEST PUSH0 PUSH1 0x20 DUP3 DUP5 SUB SLT ISZERO PUSH2 0xFB2 JUMPI PUSH2 0xFB1 PUSH2 0xCCB JUMP JUMPDEST JUMPDEST PUSH0 PUSH2 0xFBF DUP5 DUP3 DUP6 ADD PUSH2 0xF89 JUMP JUMPDEST SWAP2 POP POP SWAP3 SWAP2 POP POP JUMP JUMPDEST PUSH32 0x4E6F7420656E6F7567682042445420746F6B656E7320696E2074686520636F6E PUSH0 DUP3 ADD MSTORE PUSH32 0x7472616374000000000000000000000000000000000000000000000000000000 PUSH1 0x20 DUP3 ADD MSTORE POP JUMP JUMPDEST PUSH0 PUSH2 0x1022 PUSH1 0x25 DUP4 PUSH2 0xE46 JUMP JUMPDEST SWAP2 POP PUSH2 0x102D DUP3 PUSH2 0xFC8 JUMP JUMPDEST PUSH1 0x40 DUP3 ADD SWAP1 POP SWAP2 SWAP1 POP JUMP JUMPDEST PUSH0 PUSH1 0x20 DUP3 ADD SWAP1 POP DUP2 DUP2 SUB PUSH0 DUP4 ADD MSTORE PUSH2 0x104F DUP2 PUSH2 0x1016 JUMP JUMPDEST SWAP1 POP SWAP2 SWAP1 POP JUMP JUMPDEST PUSH0 PUSH1 0x60 DUP3 ADD SWAP1 POP PUSH2 0x1069 PUSH0 DUP4 ADD DUP7 PUSH2 0xE1E JUMP JUMPDEST PUSH2 0x1076 PUSH1 0x20 DUP4 ADD DUP6 PUSH2 0xE1E JUMP JUMPDEST PUSH2 0x1083 PUSH1 0x40 DUP4 ADD DUP5 PUSH2 0xDB8 JUMP JUMPDEST SWAP5 SWAP4 POP POP POP POP JUMP JUMPDEST PUSH0 DUP2 ISZERO ISZERO SWAP1 POP SWAP2 SWAP1 POP JUMP JUMPDEST PUSH2 0x109F DUP2 PUSH2 0x108B JUMP JUMPDEST DUP2 EQ PUSH2 0x10A9 JUMPI PUSH0 DUP1 REVERT JUMPDEST POP JUMP JUMPDEST PUSH0 DUP2 MLOAD SWAP1 POP PUSH2 0x10BA DUP2 PUSH2 0x1096 JUMP JUMPDEST SWAP3 SWAP2 POP POP JUMP JUMPDEST PUSH0 PUSH1 0x20 DUP3 DUP5 SUB SLT ISZERO PUSH2 0x10D5 JUMPI PUSH2 0x10D4 PUSH2 0xCCB JUMP JUMPDEST JUMPDEST PUSH0 PUSH2 0x10E2 DUP5 DUP3 DUP6 ADD PUSH2 0x10AC JUMP JUMPDEST SWAP2 POP POP SWAP3 SWAP2 POP POP JUMP JUMPDEST PUSH32 0x55534454207472616E73666572206661696C6564000000000000000000000000 PUSH0 DUP3 ADD MSTORE POP JUMP JUMPDEST PUSH0 PUSH2 0x111F PUSH1 0x14 DUP4 PUSH2 0xE46 JUMP JUMPDEST SWAP2 POP PUSH2 0x112A DUP3 PUSH2 0x10EB JUMP JUMPDEST PUSH1 0x20 DUP3 ADD SWAP1 POP SWAP2 SWAP1 POP JUMP JUMPDEST PUSH0 PUSH1 0x20 DUP3 ADD SWAP1 POP DUP2 DUP2 SUB PUSH0 DUP4 ADD MSTORE PUSH2 0x114C DUP2 PUSH2 0x1113 JUMP JUMPDEST SWAP1 POP SWAP2 SWAP1 POP JUMP JUMPDEST PUSH0 PUSH1 0x40 DUP3 ADD SWAP1 POP PUSH2 0x1166 PUSH0 DUP4 ADD DUP6 PUSH2 0xE1E JUMP JUMPDEST PUSH2 0x1173 PUSH1 0x20 DUP4 ADD DUP5 PUSH2 0xDB8 JUMP JUMPDEST SWAP4 SWAP3 POP POP POP JUMP JUMPDEST PUSH32 0x424454207472616E73666572206661696C656400000000000000000000000000 PUSH0 DUP3 ADD MSTORE POP JUMP JUMPDEST PUSH0 PUSH2 0x11AE PUSH1 0x13 DUP4 PUSH2 0xE46 JUMP JUMPDEST SWAP2 POP PUSH2 0x11B9 DUP3 PUSH2 0x117A JUMP JUMPDEST PUSH1 0x20 DUP3 ADD SWAP1 POP SWAP2 SWAP1 POP JUMP JUMPDEST PUSH0 PUSH1 0x20 DUP3 ADD SWAP1 POP DUP2 DUP2 SUB PUSH0 DUP4 ADD MSTORE PUSH2 0x11DB DUP2 PUSH2 0x11A2 JUMP JUMPDEST SWAP1 POP SWAP2 SWAP1 POP JUMP JUMPDEST PUSH32 0x5553445400000000000000000000000000000000000000000000000000000000 PUSH0 DUP3 ADD MSTORE POP JUMP JUMPDEST PUSH0 PUSH2 0x1216 PUSH1 0x4 DUP4 PUSH2 0xE46 JUMP JUMPDEST SWAP2 POP PUSH2 0x1221 DUP3 PUSH2 0x11E2 JUMP JUMPDEST PUSH1 0x20 DUP3 ADD SWAP1 POP SWAP2 SWAP1 POP JUMP JUMPDEST PUSH0 PUSH1 0x40 DUP3 ADD SWAP1 POP PUSH2 0x123F PUSH0 DUP4 ADD DUP5 PUSH2 0xDB8 JUMP JUMPDEST DUP2 DUP2 SUB PUSH1 0x20 DUP4 ADD MSTORE PUSH2 0x1250 DUP2 PUSH2 0x120A JUMP JUMPDEST SWAP1 POP SWAP3 SWAP2 POP POP JUMP JUMPDEST PUSH0 DUP2 SWAP1 POP SWAP2 SWAP1 POP JUMP JUMPDEST PUSH0 PUSH2 0x126B DUP3 PUSH2 0x1258 JUMP JUMPDEST SWAP2 POP PUSH2 0x1276 DUP4 PUSH2 0x1258 JUMP JUMPDEST SWAP3 POP DUP3 DUP3 MUL PUSH2 0x1284 DUP2 PUSH2 0x1258 JUMP JUMPDEST SWAP2 POP PUSH32 0x8000000000000000000000000000000000000000000000000000000000000000 DUP5 EQ PUSH0 DUP5 SLT AND ISZERO PUSH2 0x12BB JUMPI PUSH2 0x12BA PUSH2 0xEBE JUMP JUMPDEST JUMPDEST DUP3 DUP3 SDIV DUP5 EQ DUP4 ISZERO OR PUSH2 0x12D0 JUMPI PUSH2 0x12CF PUSH2 0xEBE JUMP JUMPDEST JUMPDEST POP SWAP3 SWAP2 POP POP JUMP JUMPDEST PUSH32 0x4E6F7420617574686F72697A6564000000000000000000000000000000000000 PUSH0 DUP3 ADD MSTORE POP JUMP JUMPDEST PUSH0 PUSH2 0x130B PUSH1 0xE DUP4 PUSH2 0xE46 JUMP JUMPDEST SWAP2 POP PUSH2 0x1316 DUP3 PUSH2 0x12D7 JUMP JUMPDEST PUSH1 0x20 DUP3 ADD SWAP1 POP SWAP2 SWAP1 POP JUMP JUMPDEST PUSH0 PUSH1 0x20 DUP3 ADD SWAP1 POP DUP2 DUP2 SUB PUSH0 DUP4 ADD MSTORE PUSH2 0x1338 DUP2 PUSH2 0x12FF JUMP JUMPDEST SWAP1 POP SWAP2 SWAP1 POP JUMP JUMPDEST PUSH0 PUSH1 0x40 DUP3 ADD SWAP1 POP PUSH2 0x1352 PUSH0 DUP4 ADD DUP6 PUSH2 0xE1E JUMP JUMPDEST PUSH2 0x135F PUSH1 0x20 DUP4 ADD DUP5 PUSH2 0xE1E JUMP JUMPDEST SWAP4 SWAP3 POP POP POP JUMP JUMPDEST PUSH32 0x546F6B656E203120616C6C6F77616E636520746F206C6F770000000000000000 PUSH0 DUP3 ADD MSTORE POP JUMP JUMPDEST PUSH0 PUSH2 0x139A PUSH1 0x18 DUP4 PUSH2 0xE46 JUMP JUMPDEST SWAP2 POP PUSH2 0x13A5 DUP3 PUSH2 0x1366 JUMP JUMPDEST PUSH1 0x20 DUP3 ADD SWAP1 POP SWAP2 SWAP1 POP JUMP JUMPDEST PUSH0 PUSH1 0x20 DUP3 ADD SWAP1 POP DUP2 DUP2 SUB PUSH0 DUP4 ADD MSTORE PUSH2 0x13C7 DUP2 PUSH2 0x138E JUMP JUMPDEST SWAP1 POP SWAP2 SWAP1 POP JUMP JUMPDEST PUSH32 0x546F6B656E203220616C6C6F77616E636520746F206C6F770000000000000000 PUSH0 DUP3 ADD MSTORE POP JUMP JUMPDEST PUSH0 PUSH2 0x1402 PUSH1 0x18 DUP4 PUSH2 0xE46 JUMP JUMPDEST SWAP2 POP PUSH2 0x140D DUP3 PUSH2 0x13CE JUMP JUMPDEST PUSH1 0x20 DUP3 ADD SWAP1 POP SWAP2 SWAP1 POP JUMP JUMPDEST PUSH0 PUSH1 0x20 DUP3 ADD SWAP1 POP DUP2 DUP2 SUB PUSH0 DUP4 ADD MSTORE PUSH2 0x142F DUP2 PUSH2 0x13F6 JUMP JUMPDEST SWAP1 POP SWAP2 SWAP1 POP JUMP JUMPDEST PUSH32 0x546F6B656E207472616E73666572206661696C65640000000000000000000000 PUSH0 DUP3 ADD MSTORE POP JUMP JUMPDEST PUSH0 PUSH2 0x146A PUSH1 0x15 DUP4 PUSH2 0xE46 JUMP JUMPDEST SWAP2 POP PUSH2 0x1475 DUP3 PUSH2 0x1436 JUMP JUMPDEST PUSH1 0x20 DUP3 ADD SWAP1 POP SWAP2 SWAP1 POP JUMP JUMPDEST PUSH0 PUSH1 0x20 DUP3 ADD SWAP1 POP DUP2 DUP2 SUB PUSH0 DUP4 ADD MSTORE PUSH2 0x1497 DUP2 PUSH2 0x145E JUMP JUMPDEST SWAP1 POP SWAP2 SWAP1 POP JUMP INVALID LOG2 PUSH5 0x6970667358 0x22 SLT KECCAK256 DUP6 RETURNDATASIZE SWAP10 INVALID AND 0xD5 0xA7 SWAP11 0x5E PUSH22 0x75A68D3A3F22B6AC90942E27E278704854EC6D7DA478 PUSH5 0x736F6C6343 STOP ADDMOD EQ STOP CALLER "
				},
				"gasEstimates": {
					"creation": {
						"codeDepositCost": "1066400",
						"executionCost": "25371",
						"totalCost": "1091771"
					},
					"external": {
						"BDT_ETH_RATE()": "392",
						"BDT_USDT_RATE()": "414",
						"_safeBuyWithUSDT(address,address,uint256)": "infinite",
						"getConversionRate(uint256)": "infinite",
						"getPrice()": "infinite",
						"ownerBDT()": "2574",
						"ownerUSDT()": "2596",
						"swap(uint256,uint256)": "infinite",
						"tokenBDT()": "infinite",
						"tokenUSDT()": "infinite"
					},
					"internal": {
						"_saferTransferFromBDT(contract IERC20,address,address,uint256)": "infinite",
						"_saferTransferFromUSDT(contract IERC20,address,address,uint256)": "infinite"
					}
				},
				"methodIdentifiers": {
					"BDT_ETH_RATE()": "872e9a93",
					"BDT_USDT_RATE()": "91b7ac3e",
					"_safeBuyWithUSDT(address,address,uint256)": "2ad5b3bd",
					"getConversionRate(uint256)": "6e5b6b28",
					"getPrice()": "98d5fdca",
					"ownerBDT()": "e809c9e4",
					"ownerUSDT()": "f05ca957",
					"swap(uint256,uint256)": "d96073cf",
					"tokenBDT()": "1a855ff0",
					"tokenUSDT()": "99c5c8aa"
				}
			},
			"storageLayout": {
				"storage": [
					{
						"astId": 5,
						"contract": "contracts/BTDTokenSwap.sol:BTDTokenSwap",
						"label": "tokenBDT",
						"offset": 0,
						"slot": "0",
						"type": "t_contract(IERC20)369"
					},
					{
						"astId": 8,
						"contract": "contracts/BTDTokenSwap.sol:BTDTokenSwap",
						"label": "ownerBDT",
						"offset": 0,
						"slot": "1",
						"type": "t_address"
					},
					{
						"astId": 11,
						"contract": "contracts/BTDTokenSwap.sol:BTDTokenSwap",
						"label": "tokenUSDT",
						"offset": 0,
						"slot": "2",
						"type": "t_contract(IERC20)369"
					},
					{
						"astId": 13,
						"contract": "contracts/BTDTokenSwap.sol:BTDTokenSwap",
						"label": "ownerUSDT",
						"offset": 0,
						"slot": "3",
						"type": "t_address"
					}
				],
				"types": {
					"t_address": {
						"encoding": "inplace",
						"label": "address",
						"numberOfBytes": "20"
					},
					"t_contract(IERC20)369": {
						"encoding": "inplace",
						"label": "contract IERC20",
						"numberOfBytes": "20"
					}
				}
			},
			"userdoc": {
				"kind": "user",
				"methods": {},
				"version": 1
			}
		}
	}
}