{
	"contracts/TokenSwap.sol": {
		"TokenSwap": {
			"abi": [
				{
					"inputs": [
						{
							"internalType": "address",
							"name": "_token1",
							"type": "address"
						},
						{
							"internalType": "address",
							"name": "_owner1",
							"type": "address"
						},
						{
							"internalType": "address",
							"name": "_token2",
							"type": "address"
						},
						{
							"internalType": "address",
							"name": "_owner2",
							"type": "address"
						}
					],
					"stateMutability": "nonpayable",
					"type": "constructor"
				},
				{
					"inputs": [],
					"name": "owner1",
					"outputs": [
						{
							"internalType": "address",
							"name": "",
							"type": "address"
						}
					],
					"stateMutability": "view",
					"type": "function"
				},
				{
					"inputs": [],
					"name": "owner2",
					"outputs": [
						{
							"internalType": "address",
							"name": "",
							"type": "address"
						}
					],
					"stateMutability": "view",
					"type": "function"
				},
				{
					"inputs": [
						{
							"internalType": "uint256",
							"name": "_amount1",
							"type": "uint256"
						},
						{
							"internalType": "uint256",
							"name": "_amount2",
							"type": "uint256"
						}
					],
					"name": "swap",
					"outputs": [],
					"stateMutability": "nonpayable",
					"type": "function"
				},
				{
					"inputs": [],
					"name": "token1",
					"outputs": [
						{
							"internalType": "contract IERC20",
							"name": "",
							"type": "address"
						}
					],
					"stateMutability": "view",
					"type": "function"
				},
				{
					"inputs": [],
					"name": "token2",
					"outputs": [
						{
							"internalType": "contract IERC20",
							"name": "",
							"type": "address"
						}
					],
					"stateMutability": "view",
					"type": "function"
				}
			],
			"devdoc": {
				"kind": "dev",
				"methods": {},
				"version": 1
			},
			"evm": {
				"assembly": "    /* \"contracts/TokenSwap.sol\":349:1615  contract TokenSwap{... */\n  mstore(0x40, 0x80)\n    /* \"contracts/TokenSwap.sol\":480:686  constructor(address _token1, address _owner1, address _token2, address _owner2){... */\n  callvalue\n  dup1\n  iszero\n  tag_1\n  jumpi\n  0x00\n  dup1\n  revert\ntag_1:\n  pop\n  mload(0x40)\n  sub(codesize, bytecodeSize)\n  dup1\n  bytecodeSize\n  dup4\n  codecopy\n  dup2\n  dup2\n  add\n  0x40\n  mstore\n  dup2\n  add\n  swap1\n  tag_2\n  swap2\n  swap1\n  tag_3\n  jump\t// in\ntag_2:\n    /* \"contracts/TokenSwap.sol\":585:592  _token1 */\n  dup4\n    /* \"contracts/TokenSwap.sol\":569:575  token1 */\n  0x00\n  dup1\n    /* \"contracts/TokenSwap.sol\":569:593  token1 = IERC20(_token1) */\n  0x0100\n  exp\n  dup2\n  sload\n  dup2\n  0xffffffffffffffffffffffffffffffffffffffff\n  mul\n  not\n  and\n  swap1\n  dup4\n  0xffffffffffffffffffffffffffffffffffffffff\n  and\n  mul\n  or\n  swap1\n  sstore\n  pop\n    /* \"contracts/TokenSwap.sol\":612:619  _owner1 */\n  dup3\n    /* \"contracts/TokenSwap.sol\":603:609  owner1 */\n  0x01\n  0x00\n    /* \"contracts/TokenSwap.sol\":603:619  owner1 = _owner1 */\n  0x0100\n  exp\n  dup2\n  sload\n  dup2\n  0xffffffffffffffffffffffffffffffffffffffff\n  mul\n  not\n  and\n  swap1\n  dup4\n  0xffffffffffffffffffffffffffffffffffffffff\n  and\n  mul\n  or\n  swap1\n  sstore\n  pop\n    /* \"contracts/TokenSwap.sol\":645:652  _token2 */\n  dup2\n    /* \"contracts/TokenSwap.sol\":629:635  token2 */\n  0x02\n  0x00\n    /* \"contracts/TokenSwap.sol\":629:653  token2 = IERC20(_token2) */\n  0x0100\n  exp\n  dup2\n  sload\n  dup2\n  0xffffffffffffffffffffffffffffffffffffffff\n  mul\n  not\n  and\n  swap1\n  dup4\n  0xffffffffffffffffffffffffffffffffffffffff\n  and\n  mul\n  or\n  swap1\n  sstore\n  pop\n    /* \"contracts/TokenSwap.sol\":672:679  _owner2 */\n  dup1\n    /* \"contracts/TokenSwap.sol\":663:669  owner2 */\n  0x03\n  0x00\n    /* \"contracts/TokenSwap.sol\":663:679  owner2 = _owner2 */\n  0x0100\n  exp\n  dup2\n  sload\n  dup2\n  0xffffffffffffffffffffffffffffffffffffffff\n  mul\n  not\n  and\n  swap1\n  dup4\n  0xffffffffffffffffffffffffffffffffffffffff\n  and\n  mul\n  or\n  swap1\n  sstore\n  pop\n    /* \"contracts/TokenSwap.sol\":480:686  constructor(address _token1, address _owner1, address _token2, address _owner2){... */\n  pop\n  pop\n  pop\n  pop\n    /* \"contracts/TokenSwap.sol\":349:1615  contract TokenSwap{... */\n  jump(tag_6)\n    /* \"#utility.yul\":88:205   */\ntag_8:\n    /* \"#utility.yul\":197:198   */\n  0x00\n    /* \"#utility.yul\":194:195   */\n  dup1\n    /* \"#utility.yul\":187:199   */\n  revert\n    /* \"#utility.yul\":334:460   */\ntag_10:\n    /* \"#utility.yul\":371:378   */\n  0x00\n    /* \"#utility.yul\":411:453   */\n  0xffffffffffffffffffffffffffffffffffffffff\n    /* \"#utility.yul\":404:409   */\n  dup3\n    /* \"#utility.yul\":400:454   */\n  and\n    /* \"#utility.yul\":389:454   */\n  swap1\n  pop\n    /* \"#utility.yul\":334:460   */\n  swap2\n  swap1\n  pop\n  jump\t// out\n    /* \"#utility.yul\":466:562   */\ntag_11:\n    /* \"#utility.yul\":503:510   */\n  0x00\n    /* \"#utility.yul\":532:556   */\n  tag_20\n    /* \"#utility.yul\":550:555   */\n  dup3\n    /* \"#utility.yul\":532:556   */\n  tag_10\n  jump\t// in\ntag_20:\n    /* \"#utility.yul\":521:556   */\n  swap1\n  pop\n    /* \"#utility.yul\":466:562   */\n  swap2\n  swap1\n  pop\n  jump\t// out\n    /* \"#utility.yul\":568:690   */\ntag_12:\n    /* \"#utility.yul\":641:665   */\n  tag_22\n    /* \"#utility.yul\":659:664   */\n  dup2\n    /* \"#utility.yul\":641:665   */\n  tag_11\n  jump\t// in\ntag_22:\n    /* \"#utility.yul\":634:639   */\n  dup2\n    /* \"#utility.yul\":631:666   */\n  eq\n    /* \"#utility.yul\":621:684   */\n  tag_23\n  jumpi\n    /* \"#utility.yul\":680:681   */\n  0x00\n    /* \"#utility.yul\":677:678   */\n  dup1\n    /* \"#utility.yul\":670:682   */\n  revert\n    /* \"#utility.yul\":621:684   */\ntag_23:\n    /* \"#utility.yul\":568:690   */\n  pop\n  jump\t// out\n    /* \"#utility.yul\":696:839   */\ntag_13:\n    /* \"#utility.yul\":753:758   */\n  0x00\n    /* \"#utility.yul\":784:790   */\n  dup2\n    /* \"#utility.yul\":778:791   */\n  mload\n    /* \"#utility.yul\":769:791   */\n  swap1\n  pop\n    /* \"#utility.yul\":800:833   */\n  tag_25\n    /* \"#utility.yul\":827:832   */\n  dup2\n    /* \"#utility.yul\":800:833   */\n  tag_12\n  jump\t// in\ntag_25:\n    /* \"#utility.yul\":696:839   */\n  swap3\n  swap2\n  pop\n  pop\n  jump\t// out\n    /* \"#utility.yul\":845:1665   */\ntag_3:\n    /* \"#utility.yul\":942:948   */\n  0x00\n    /* \"#utility.yul\":950:956   */\n  dup1\n    /* \"#utility.yul\":958:964   */\n  0x00\n    /* \"#utility.yul\":966:972   */\n  dup1\n    /* \"#utility.yul\":1015:1018   */\n  0x80\n    /* \"#utility.yul\":1003:1012   */\n  dup6\n    /* \"#utility.yul\":994:1001   */\n  dup8\n    /* \"#utility.yul\":990:1013   */\n  sub\n    /* \"#utility.yul\":986:1019   */\n  slt\n    /* \"#utility.yul\":983:1103   */\n  iszero\n  tag_27\n  jumpi\n    /* \"#utility.yul\":1022:1101   */\n  tag_28\n  tag_8\n  jump\t// in\ntag_28:\n    /* \"#utility.yul\":983:1103   */\ntag_27:\n    /* \"#utility.yul\":1142:1143   */\n  0x00\n    /* \"#utility.yul\":1167:1231   */\n  tag_29\n    /* \"#utility.yul\":1223:1230   */\n  dup8\n    /* \"#utility.yul\":1214:1220   */\n  dup3\n    /* \"#utility.yul\":1203:1212   */\n  dup9\n    /* \"#utility.yul\":1199:1221   */\n  add\n    /* \"#utility.yul\":1167:1231   */\n  tag_13\n  jump\t// in\ntag_29:\n    /* \"#utility.yul\":1157:1231   */\n  swap5\n  pop\n    /* \"#utility.yul\":1113:1241   */\n  pop\n    /* \"#utility.yul\":1280:1282   */\n  0x20\n    /* \"#utility.yul\":1306:1370   */\n  tag_30\n    /* \"#utility.yul\":1362:1369   */\n  dup8\n    /* \"#utility.yul\":1353:1359   */\n  dup3\n    /* \"#utility.yul\":1342:1351   */\n  dup9\n    /* \"#utility.yul\":1338:1360   */\n  add\n    /* \"#utility.yul\":1306:1370   */\n  tag_13\n  jump\t// in\ntag_30:\n    /* \"#utility.yul\":1296:1370   */\n  swap4\n  pop\n    /* \"#utility.yul\":1251:1380   */\n  pop\n    /* \"#utility.yul\":1419:1421   */\n  0x40\n    /* \"#utility.yul\":1445:1509   */\n  tag_31\n    /* \"#utility.yul\":1501:1508   */\n  dup8\n    /* \"#utility.yul\":1492:1498   */\n  dup3\n    /* \"#utility.yul\":1481:1490   */\n  dup9\n    /* \"#utility.yul\":1477:1499   */\n  add\n    /* \"#utility.yul\":1445:1509   */\n  tag_13\n  jump\t// in\ntag_31:\n    /* \"#utility.yul\":1435:1509   */\n  swap3\n  pop\n    /* \"#utility.yul\":1390:1519   */\n  pop\n    /* \"#utility.yul\":1558:1560   */\n  0x60\n    /* \"#utility.yul\":1584:1648   */\n  tag_32\n    /* \"#utility.yul\":1640:1647   */\n  dup8\n    /* \"#utility.yul\":1631:1637   */\n  dup3\n    /* \"#utility.yul\":1620:1629   */\n  dup9\n    /* \"#utility.yul\":1616:1638   */\n  add\n    /* \"#utility.yul\":1584:1648   */\n  tag_13\n  jump\t// in\ntag_32:\n    /* \"#utility.yul\":1574:1648   */\n  swap2\n  pop\n    /* \"#utility.yul\":1529:1658   */\n  pop\n    /* \"#utility.yul\":845:1665   */\n  swap3\n  swap6\n  swap2\n  swap5\n  pop\n  swap3\n  pop\n  jump\t// out\n    /* \"contracts/TokenSwap.sol\":349:1615  contract TokenSwap{... */\ntag_6:\n  dataSize(sub_0)\n  dup1\n  dataOffset(sub_0)\n  0x00\n  codecopy\n  0x00\n  return\nstop\n\nsub_0: assembly {\n        /* \"contracts/TokenSwap.sol\":349:1615  contract TokenSwap{... */\n      mstore(0x40, 0x80)\n      callvalue\n      dup1\n      iszero\n      tag_1\n      jumpi\n      0x00\n      dup1\n      revert\n    tag_1:\n      pop\n      jumpi(tag_2, lt(calldatasize, 0x04))\n      shr(0xe0, calldataload(0x00))\n      dup1\n      0x25be124e\n      eq\n      tag_3\n      jumpi\n      dup1\n      0x52709725\n      eq\n      tag_4\n      jumpi\n      dup1\n      0x73688914\n      eq\n      tag_5\n      jumpi\n      dup1\n      0xd21220a7\n      eq\n      tag_6\n      jumpi\n      dup1\n      0xd96073cf\n      eq\n      tag_7\n      jumpi\n    tag_2:\n      0x00\n      dup1\n      revert\n        /* \"contracts/TokenSwap.sol\":426:446  IERC20 public token2 */\n    tag_3:\n      tag_8\n      tag_9\n      jump\t// in\n    tag_8:\n      mload(0x40)\n      tag_10\n      swap2\n      swap1\n      tag_11\n      jump\t// in\n    tag_10:\n      mload(0x40)\n      dup1\n      swap2\n      sub\n      swap1\n      return\n        /* \"contracts/TokenSwap.sol\":452:473  address public owner2 */\n    tag_4:\n      tag_12\n      tag_13\n      jump\t// in\n    tag_12:\n      mload(0x40)\n      tag_14\n      swap2\n      swap1\n      tag_15\n      jump\t// in\n    tag_14:\n      mload(0x40)\n      dup1\n      swap2\n      sub\n      swap1\n      return\n        /* \"contracts/TokenSwap.sol\":399:420  address public owner1 */\n    tag_5:\n      tag_16\n      tag_17\n      jump\t// in\n    tag_16:\n      mload(0x40)\n      tag_18\n      swap2\n      swap1\n      tag_15\n      jump\t// in\n    tag_18:\n      mload(0x40)\n      dup1\n      swap2\n      sub\n      swap1\n      return\n        /* \"contracts/TokenSwap.sol\":373:393  IERC20 public token1 */\n    tag_6:\n      tag_19\n      tag_20\n      jump\t// in\n    tag_19:\n      mload(0x40)\n      tag_21\n      swap2\n      swap1\n      tag_11\n      jump\t// in\n    tag_21:\n      mload(0x40)\n      dup1\n      swap2\n      sub\n      swap1\n      return\n        /* \"contracts/TokenSwap.sol\":697:1311  function swap(uint _amount1, uint _amount2) public {... */\n    tag_7:\n      tag_22\n      0x04\n      dup1\n      calldatasize\n      sub\n      dup2\n      add\n      swap1\n      tag_23\n      swap2\n      swap1\n      tag_24\n      jump\t// in\n    tag_23:\n      tag_25\n      jump\t// in\n    tag_22:\n      stop\n        /* \"contracts/TokenSwap.sol\":426:446  IERC20 public token2 */\n    tag_9:\n      0x02\n      0x00\n      swap1\n      sload\n      swap1\n      0x0100\n      exp\n      swap1\n      div\n      0xffffffffffffffffffffffffffffffffffffffff\n      and\n      dup2\n      jump\t// out\n        /* \"contracts/TokenSwap.sol\":452:473  address public owner2 */\n    tag_13:\n      0x03\n      0x00\n      swap1\n      sload\n      swap1\n      0x0100\n      exp\n      swap1\n      div\n      0xffffffffffffffffffffffffffffffffffffffff\n      and\n      dup2\n      jump\t// out\n        /* \"contracts/TokenSwap.sol\":399:420  address public owner1 */\n    tag_17:\n      0x01\n      0x00\n      swap1\n      sload\n      swap1\n      0x0100\n      exp\n      swap1\n      div\n      0xffffffffffffffffffffffffffffffffffffffff\n      and\n      dup2\n      jump\t// out\n        /* \"contracts/TokenSwap.sol\":373:393  IERC20 public token1 */\n    tag_20:\n      0x00\n      dup1\n      sload\n      swap1\n      0x0100\n      exp\n      swap1\n      div\n      0xffffffffffffffffffffffffffffffffffffffff\n      and\n      dup2\n      jump\t// out\n        /* \"contracts/TokenSwap.sol\":697:1311  function swap(uint _amount1, uint _amount2) public {... */\n    tag_25:\n        /* \"contracts/TokenSwap.sol\":827:833  owner1 */\n      0x01\n      0x00\n      swap1\n      sload\n      swap1\n      0x0100\n      exp\n      swap1\n      div\n      0xffffffffffffffffffffffffffffffffffffffff\n      and\n        /* \"contracts/TokenSwap.sol\":813:833  msg.sender == owner1 */\n      0xffffffffffffffffffffffffffffffffffffffff\n      and\n        /* \"contracts/TokenSwap.sol\":813:823  msg.sender */\n      caller\n        /* \"contracts/TokenSwap.sol\":813:833  msg.sender == owner1 */\n      0xffffffffffffffffffffffffffffffffffffffff\n      and\n      eq\n        /* \"contracts/TokenSwap.sol\":813:857  msg.sender == owner1 || msg.sender == owner2 */\n      dup1\n      tag_27\n      jumpi\n      pop\n        /* \"contracts/TokenSwap.sol\":851:857  owner2 */\n      0x03\n      0x00\n      swap1\n      sload\n      swap1\n      0x0100\n      exp\n      swap1\n      div\n      0xffffffffffffffffffffffffffffffffffffffff\n      and\n        /* \"contracts/TokenSwap.sol\":837:857  msg.sender == owner2 */\n      0xffffffffffffffffffffffffffffffffffffffff\n      and\n        /* \"contracts/TokenSwap.sol\":837:847  msg.sender */\n      caller\n        /* \"contracts/TokenSwap.sol\":837:857  msg.sender == owner2 */\n      0xffffffffffffffffffffffffffffffffffffffff\n      and\n      eq\n        /* \"contracts/TokenSwap.sol\":813:857  msg.sender == owner1 || msg.sender == owner2 */\n    tag_27:\n        /* \"contracts/TokenSwap.sol\":805:876  require(msg.sender == owner1 || msg.sender == owner2, \"Not authorized\") */\n      tag_28\n      jumpi\n      mload(0x40)\n      0x08c379a000000000000000000000000000000000000000000000000000000000\n      dup2\n      mstore\n      0x04\n      add\n      tag_29\n      swap1\n      tag_30\n      jump\t// in\n    tag_29:\n      mload(0x40)\n      dup1\n      swap2\n      sub\n      swap1\n      revert\n    tag_28:\n        /* \"contracts/TokenSwap.sol\":937:945  _amount1 */\n      dup2\n        /* \"contracts/TokenSwap.sol\":894:900  token1 */\n      0x00\n      dup1\n      sload\n      swap1\n      0x0100\n      exp\n      swap1\n      div\n      0xffffffffffffffffffffffffffffffffffffffff\n      and\n        /* \"contracts/TokenSwap.sol\":894:910  token1.allowance */\n      0xffffffffffffffffffffffffffffffffffffffff\n      and\n      0xdd62ed3e\n        /* \"contracts/TokenSwap.sol\":911:917  owner1 */\n      0x01\n      0x00\n      swap1\n      sload\n      swap1\n      0x0100\n      exp\n      swap1\n      div\n      0xffffffffffffffffffffffffffffffffffffffff\n      and\n        /* \"contracts/TokenSwap.sol\":927:931  this */\n      address\n        /* \"contracts/TokenSwap.sol\":894:933  token1.allowance(owner1, address(this)) */\n      mload(0x40)\n      dup4\n      0xffffffff\n      and\n      0xe0\n      shl\n      dup2\n      mstore\n      0x04\n      add\n      tag_31\n      swap3\n      swap2\n      swap1\n      tag_32\n      jump\t// in\n    tag_31:\n      0x20\n      mload(0x40)\n      dup1\n      dup4\n      sub\n      dup2\n      dup7\n      gas\n      staticcall\n      iszero\n      dup1\n      iszero\n      tag_34\n      jumpi\n      returndatasize\n      0x00\n      dup1\n      returndatacopy\n      revert(0x00, returndatasize)\n    tag_34:\n      pop\n      pop\n      pop\n      pop\n      mload(0x40)\n      returndatasize\n      not(0x1f)\n      0x1f\n      dup3\n      add\n      and\n      dup3\n      add\n      dup1\n      0x40\n      mstore\n      pop\n      dup2\n      add\n      swap1\n      tag_35\n      swap2\n      swap1\n      tag_36\n      jump\t// in\n    tag_35:\n        /* \"contracts/TokenSwap.sol\":894:945  token1.allowance(owner1, address(this)) >= _amount1 */\n      lt\n      iszero\n        /* \"contracts/TokenSwap.sol\":886:974  require(token1.allowance(owner1, address(this)) >= _amount1, \"Token 1 allowance to low\") */\n      tag_37\n      jumpi\n      mload(0x40)\n      0x08c379a000000000000000000000000000000000000000000000000000000000\n      dup2\n      mstore\n      0x04\n      add\n      tag_38\n      swap1\n      tag_39\n      jump\t// in\n    tag_38:\n      mload(0x40)\n      dup1\n      swap2\n      sub\n      swap1\n      revert\n    tag_37:\n        /* \"contracts/TokenSwap.sol\":1035:1043  _amount2 */\n      dup1\n        /* \"contracts/TokenSwap.sol\":992:998  token1 */\n      0x00\n      dup1\n      sload\n      swap1\n      0x0100\n      exp\n      swap1\n      div\n      0xffffffffffffffffffffffffffffffffffffffff\n      and\n        /* \"contracts/TokenSwap.sol\":992:1008  token1.allowance */\n      0xffffffffffffffffffffffffffffffffffffffff\n      and\n      0xdd62ed3e\n        /* \"contracts/TokenSwap.sol\":1009:1015  owner2 */\n      0x03\n      0x00\n      swap1\n      sload\n      swap1\n      0x0100\n      exp\n      swap1\n      div\n      0xffffffffffffffffffffffffffffffffffffffff\n      and\n        /* \"contracts/TokenSwap.sol\":1025:1029  this */\n      address\n        /* \"contracts/TokenSwap.sol\":992:1031  token1.allowance(owner2, address(this)) */\n      mload(0x40)\n      dup4\n      0xffffffff\n      and\n      0xe0\n      shl\n      dup2\n      mstore\n      0x04\n      add\n      tag_40\n      swap3\n      swap2\n      swap1\n      tag_32\n      jump\t// in\n    tag_40:\n      0x20\n      mload(0x40)\n      dup1\n      dup4\n      sub\n      dup2\n      dup7\n      gas\n      staticcall\n      iszero\n      dup1\n      iszero\n      tag_42\n      jumpi\n      returndatasize\n      0x00\n      dup1\n      returndatacopy\n      revert(0x00, returndatasize)\n    tag_42:\n      pop\n      pop\n      pop\n      pop\n      mload(0x40)\n      returndatasize\n      not(0x1f)\n      0x1f\n      dup3\n      add\n      and\n      dup3\n      add\n      dup1\n      0x40\n      mstore\n      pop\n      dup2\n      add\n      swap1\n      tag_43\n      swap2\n      swap1\n      tag_36\n      jump\t// in\n    tag_43:\n        /* \"contracts/TokenSwap.sol\":992:1043  token1.allowance(owner2, address(this)) >= _amount2 */\n      lt\n      iszero\n        /* \"contracts/TokenSwap.sol\":984:1072  require(token1.allowance(owner2, address(this)) >= _amount2, \"Token 2 allowance to low\") */\n      tag_44\n      jumpi\n      mload(0x40)\n      0x08c379a000000000000000000000000000000000000000000000000000000000\n      dup2\n      mstore\n      0x04\n      add\n      tag_45\n      swap1\n      tag_46\n      jump\t// in\n    tag_45:\n      mload(0x40)\n      dup1\n      swap2\n      sub\n      swap1\n      revert\n    tag_44:\n        /* \"contracts/TokenSwap.sol\":1148:1200  _saferTransferFrom(token1, owner1, owner2, _amount1) */\n      tag_47\n        /* \"contracts/TokenSwap.sol\":1167:1173  token1 */\n      0x00\n      dup1\n      sload\n      swap1\n      0x0100\n      exp\n      swap1\n      div\n      0xffffffffffffffffffffffffffffffffffffffff\n      and\n        /* \"contracts/TokenSwap.sol\":1175:1181  owner1 */\n      0x01\n      0x00\n      swap1\n      sload\n      swap1\n      0x0100\n      exp\n      swap1\n      div\n      0xffffffffffffffffffffffffffffffffffffffff\n      and\n        /* \"contracts/TokenSwap.sol\":1183:1189  owner2 */\n      0x03\n      0x00\n      swap1\n      sload\n      swap1\n      0x0100\n      exp\n      swap1\n      div\n      0xffffffffffffffffffffffffffffffffffffffff\n      and\n        /* \"contracts/TokenSwap.sol\":1191:1199  _amount1 */\n      dup6\n        /* \"contracts/TokenSwap.sol\":1148:1166  _saferTransferFrom */\n      tag_48\n        /* \"contracts/TokenSwap.sol\":1148:1200  _saferTransferFrom(token1, owner1, owner2, _amount1) */\n      jump\t// in\n    tag_47:\n        /* \"contracts/TokenSwap.sol\":1252:1304  _saferTransferFrom(token2, owner2, owner1, _amount2) */\n      tag_49\n        /* \"contracts/TokenSwap.sol\":1271:1277  token2 */\n      0x02\n      0x00\n      swap1\n      sload\n      swap1\n      0x0100\n      exp\n      swap1\n      div\n      0xffffffffffffffffffffffffffffffffffffffff\n      and\n        /* \"contracts/TokenSwap.sol\":1279:1285  owner2 */\n      0x03\n      0x00\n      swap1\n      sload\n      swap1\n      0x0100\n      exp\n      swap1\n      div\n      0xffffffffffffffffffffffffffffffffffffffff\n      and\n        /* \"contracts/TokenSwap.sol\":1287:1293  owner1 */\n      0x01\n      0x00\n      swap1\n      sload\n      swap1\n      0x0100\n      exp\n      swap1\n      div\n      0xffffffffffffffffffffffffffffffffffffffff\n      and\n        /* \"contracts/TokenSwap.sol\":1295:1303  _amount2 */\n      dup5\n        /* \"contracts/TokenSwap.sol\":1252:1270  _saferTransferFrom */\n      tag_48\n        /* \"contracts/TokenSwap.sol\":1252:1304  _saferTransferFrom(token2, owner2, owner1, _amount2) */\n      jump\t// in\n    tag_49:\n        /* \"contracts/TokenSwap.sol\":697:1311  function swap(uint _amount1, uint _amount2) public {... */\n      pop\n      pop\n      jump\t// out\n        /* \"contracts/TokenSwap.sol\":1322:1613  function _saferTransferFrom (IERC20 token, address sender, address receipient, uint amount) private{... */\n    tag_48:\n        /* \"contracts/TokenSwap.sol\":1500:1509  bool sent */\n      0x00\n        /* \"contracts/TokenSwap.sol\":1512:1517  token */\n      dup5\n        /* \"contracts/TokenSwap.sol\":1512:1530  token.transferFrom */\n      0xffffffffffffffffffffffffffffffffffffffff\n      and\n      0x23b872dd\n        /* \"contracts/TokenSwap.sol\":1531:1537  sender */\n      dup6\n        /* \"contracts/TokenSwap.sol\":1539:1549  receipient */\n      dup6\n        /* \"contracts/TokenSwap.sol\":1551:1557  amount */\n      dup6\n        /* \"contracts/TokenSwap.sol\":1512:1558  token.transferFrom(sender, receipient, amount) */\n      mload(0x40)\n      dup5\n      0xffffffff\n      and\n      0xe0\n      shl\n      dup2\n      mstore\n      0x04\n      add\n      tag_51\n      swap4\n      swap3\n      swap2\n      swap1\n      tag_52\n      jump\t// in\n    tag_51:\n      0x20\n      mload(0x40)\n      dup1\n      dup4\n      sub\n      dup2\n      0x00\n      dup8\n      gas\n      call\n      iszero\n      dup1\n      iszero\n      tag_54\n      jumpi\n      returndatasize\n      0x00\n      dup1\n      returndatacopy\n      revert(0x00, returndatasize)\n    tag_54:\n      pop\n      pop\n      pop\n      pop\n      mload(0x40)\n      returndatasize\n      not(0x1f)\n      0x1f\n      dup3\n      add\n      and\n      dup3\n      add\n      dup1\n      0x40\n      mstore\n      pop\n      dup2\n      add\n      swap1\n      tag_55\n      swap2\n      swap1\n      tag_56\n      jump\t// in\n    tag_55:\n        /* \"contracts/TokenSwap.sol\":1500:1558  bool sent = token.transferFrom(sender, receipient, amount) */\n      swap1\n      pop\n        /* \"contracts/TokenSwap.sol\":1576:1580  sent */\n      dup1\n        /* \"contracts/TokenSwap.sol\":1568:1606  require(sent, \"Token transfer failed\") */\n      tag_57\n      jumpi\n      mload(0x40)\n      0x08c379a000000000000000000000000000000000000000000000000000000000\n      dup2\n      mstore\n      0x04\n      add\n      tag_58\n      swap1\n      tag_59\n      jump\t// in\n    tag_58:\n      mload(0x40)\n      dup1\n      swap2\n      sub\n      swap1\n      revert\n    tag_57:\n        /* \"contracts/TokenSwap.sol\":1421:1613  {... */\n      pop\n        /* \"contracts/TokenSwap.sol\":1322:1613  function _saferTransferFrom (IERC20 token, address sender, address receipient, uint amount) private{... */\n      pop\n      pop\n      pop\n      pop\n      jump\t// out\n        /* \"#utility.yul\":7:133   */\n    tag_60:\n        /* \"#utility.yul\":44:51   */\n      0x00\n        /* \"#utility.yul\":84:126   */\n      0xffffffffffffffffffffffffffffffffffffffff\n        /* \"#utility.yul\":77:82   */\n      dup3\n        /* \"#utility.yul\":73:127   */\n      and\n        /* \"#utility.yul\":62:127   */\n      swap1\n      pop\n        /* \"#utility.yul\":7:133   */\n      swap2\n      swap1\n      pop\n      jump\t// out\n        /* \"#utility.yul\":139:199   */\n    tag_61:\n        /* \"#utility.yul\":167:170   */\n      0x00\n        /* \"#utility.yul\":188:193   */\n      dup2\n        /* \"#utility.yul\":181:193   */\n      swap1\n      pop\n        /* \"#utility.yul\":139:199   */\n      swap2\n      swap1\n      pop\n      jump\t// out\n        /* \"#utility.yul\":205:347   */\n    tag_62:\n        /* \"#utility.yul\":255:264   */\n      0x00\n        /* \"#utility.yul\":288:341   */\n      tag_92\n        /* \"#utility.yul\":306:340   */\n      tag_93\n        /* \"#utility.yul\":315:339   */\n      tag_94\n        /* \"#utility.yul\":333:338   */\n      dup5\n        /* \"#utility.yul\":315:339   */\n      tag_60\n      jump\t// in\n    tag_94:\n        /* \"#utility.yul\":306:340   */\n      tag_61\n      jump\t// in\n    tag_93:\n        /* \"#utility.yul\":288:341   */\n      tag_60\n      jump\t// in\n    tag_92:\n        /* \"#utility.yul\":275:341   */\n      swap1\n      pop\n        /* \"#utility.yul\":205:347   */\n      swap2\n      swap1\n      pop\n      jump\t// out\n        /* \"#utility.yul\":353:479   */\n    tag_63:\n        /* \"#utility.yul\":403:412   */\n      0x00\n        /* \"#utility.yul\":436:473   */\n      tag_96\n        /* \"#utility.yul\":467:472   */\n      dup3\n        /* \"#utility.yul\":436:473   */\n      tag_62\n      jump\t// in\n    tag_96:\n        /* \"#utility.yul\":423:473   */\n      swap1\n      pop\n        /* \"#utility.yul\":353:479   */\n      swap2\n      swap1\n      pop\n      jump\t// out\n        /* \"#utility.yul\":485:625   */\n    tag_64:\n        /* \"#utility.yul\":549:558   */\n      0x00\n        /* \"#utility.yul\":582:619   */\n      tag_98\n        /* \"#utility.yul\":613:618   */\n      dup3\n        /* \"#utility.yul\":582:619   */\n      tag_63\n      jump\t// in\n    tag_98:\n        /* \"#utility.yul\":569:619   */\n      swap1\n      pop\n        /* \"#utility.yul\":485:625   */\n      swap2\n      swap1\n      pop\n      jump\t// out\n        /* \"#utility.yul\":631:790   */\n    tag_65:\n        /* \"#utility.yul\":732:783   */\n      tag_100\n        /* \"#utility.yul\":777:782   */\n      dup2\n        /* \"#utility.yul\":732:783   */\n      tag_64\n      jump\t// in\n    tag_100:\n        /* \"#utility.yul\":727:730   */\n      dup3\n        /* \"#utility.yul\":720:784   */\n      mstore\n        /* \"#utility.yul\":631:790   */\n      pop\n      pop\n      jump\t// out\n        /* \"#utility.yul\":796:1046   */\n    tag_11:\n        /* \"#utility.yul\":903:907   */\n      0x00\n        /* \"#utility.yul\":941:943   */\n      0x20\n        /* \"#utility.yul\":930:939   */\n      dup3\n        /* \"#utility.yul\":926:944   */\n      add\n        /* \"#utility.yul\":918:944   */\n      swap1\n      pop\n        /* \"#utility.yul\":954:1039   */\n      tag_102\n        /* \"#utility.yul\":1036:1037   */\n      0x00\n        /* \"#utility.yul\":1025:1034   */\n      dup4\n        /* \"#utility.yul\":1021:1038   */\n      add\n        /* \"#utility.yul\":1012:1018   */\n      dup5\n        /* \"#utility.yul\":954:1039   */\n      tag_65\n      jump\t// in\n    tag_102:\n        /* \"#utility.yul\":796:1046   */\n      swap3\n      swap2\n      pop\n      pop\n      jump\t// out\n        /* \"#utility.yul\":1052:1148   */\n    tag_66:\n        /* \"#utility.yul\":1089:1096   */\n      0x00\n        /* \"#utility.yul\":1118:1142   */\n      tag_104\n        /* \"#utility.yul\":1136:1141   */\n      dup3\n        /* \"#utility.yul\":1118:1142   */\n      tag_60\n      jump\t// in\n    tag_104:\n        /* \"#utility.yul\":1107:1142   */\n      swap1\n      pop\n        /* \"#utility.yul\":1052:1148   */\n      swap2\n      swap1\n      pop\n      jump\t// out\n        /* \"#utility.yul\":1154:1272   */\n    tag_67:\n        /* \"#utility.yul\":1241:1265   */\n      tag_106\n        /* \"#utility.yul\":1259:1264   */\n      dup2\n        /* \"#utility.yul\":1241:1265   */\n      tag_66\n      jump\t// in\n    tag_106:\n        /* \"#utility.yul\":1236:1239   */\n      dup3\n        /* \"#utility.yul\":1229:1266   */\n      mstore\n        /* \"#utility.yul\":1154:1272   */\n      pop\n      pop\n      jump\t// out\n        /* \"#utility.yul\":1278:1500   */\n    tag_15:\n        /* \"#utility.yul\":1371:1375   */\n      0x00\n        /* \"#utility.yul\":1409:1411   */\n      0x20\n        /* \"#utility.yul\":1398:1407   */\n      dup3\n        /* \"#utility.yul\":1394:1412   */\n      add\n        /* \"#utility.yul\":1386:1412   */\n      swap1\n      pop\n        /* \"#utility.yul\":1422:1493   */\n      tag_108\n        /* \"#utility.yul\":1490:1491   */\n      0x00\n        /* \"#utility.yul\":1479:1488   */\n      dup4\n        /* \"#utility.yul\":1475:1492   */\n      add\n        /* \"#utility.yul\":1466:1472   */\n      dup5\n        /* \"#utility.yul\":1422:1493   */\n      tag_67\n      jump\t// in\n    tag_108:\n        /* \"#utility.yul\":1278:1500   */\n      swap3\n      swap2\n      pop\n      pop\n      jump\t// out\n        /* \"#utility.yul\":1587:1704   */\n    tag_69:\n        /* \"#utility.yul\":1696:1697   */\n      0x00\n        /* \"#utility.yul\":1693:1694   */\n      dup1\n        /* \"#utility.yul\":1686:1698   */\n      revert\n        /* \"#utility.yul\":1833:1910   */\n    tag_71:\n        /* \"#utility.yul\":1870:1877   */\n      0x00\n        /* \"#utility.yul\":1899:1904   */\n      dup2\n        /* \"#utility.yul\":1888:1904   */\n      swap1\n      pop\n        /* \"#utility.yul\":1833:1910   */\n      swap2\n      swap1\n      pop\n      jump\t// out\n        /* \"#utility.yul\":1916:2038   */\n    tag_72:\n        /* \"#utility.yul\":1989:2013   */\n      tag_114\n        /* \"#utility.yul\":2007:2012   */\n      dup2\n        /* \"#utility.yul\":1989:2013   */\n      tag_71\n      jump\t// in\n    tag_114:\n        /* \"#utility.yul\":1982:1987   */\n      dup2\n        /* \"#utility.yul\":1979:2014   */\n      eq\n        /* \"#utility.yul\":1969:2032   */\n      tag_115\n      jumpi\n        /* \"#utility.yul\":2028:2029   */\n      0x00\n        /* \"#utility.yul\":2025:2026   */\n      dup1\n        /* \"#utility.yul\":2018:2030   */\n      revert\n        /* \"#utility.yul\":1969:2032   */\n    tag_115:\n        /* \"#utility.yul\":1916:2038   */\n      pop\n      jump\t// out\n        /* \"#utility.yul\":2044:2183   */\n    tag_73:\n        /* \"#utility.yul\":2090:2095   */\n      0x00\n        /* \"#utility.yul\":2128:2134   */\n      dup2\n        /* \"#utility.yul\":2115:2135   */\n      calldataload\n        /* \"#utility.yul\":2106:2135   */\n      swap1\n      pop\n        /* \"#utility.yul\":2144:2177   */\n      tag_117\n        /* \"#utility.yul\":2171:2176   */\n      dup2\n        /* \"#utility.yul\":2144:2177   */\n      tag_72\n      jump\t// in\n    tag_117:\n        /* \"#utility.yul\":2044:2183   */\n      swap3\n      swap2\n      pop\n      pop\n      jump\t// out\n        /* \"#utility.yul\":2189:2663   */\n    tag_24:\n        /* \"#utility.yul\":2257:2263   */\n      0x00\n        /* \"#utility.yul\":2265:2271   */\n      dup1\n        /* \"#utility.yul\":2314:2316   */\n      0x40\n        /* \"#utility.yul\":2302:2311   */\n      dup4\n        /* \"#utility.yul\":2293:2300   */\n      dup6\n        /* \"#utility.yul\":2289:2312   */\n      sub\n        /* \"#utility.yul\":2285:2317   */\n      slt\n        /* \"#utility.yul\":2282:2401   */\n      iszero\n      tag_119\n      jumpi\n        /* \"#utility.yul\":2320:2399   */\n      tag_120\n      tag_69\n      jump\t// in\n    tag_120:\n        /* \"#utility.yul\":2282:2401   */\n    tag_119:\n        /* \"#utility.yul\":2440:2441   */\n      0x00\n        /* \"#utility.yul\":2465:2518   */\n      tag_121\n        /* \"#utility.yul\":2510:2517   */\n      dup6\n        /* \"#utility.yul\":2501:2507   */\n      dup3\n        /* \"#utility.yul\":2490:2499   */\n      dup7\n        /* \"#utility.yul\":2486:2508   */\n      add\n        /* \"#utility.yul\":2465:2518   */\n      tag_73\n      jump\t// in\n    tag_121:\n        /* \"#utility.yul\":2455:2518   */\n      swap3\n      pop\n        /* \"#utility.yul\":2411:2528   */\n      pop\n        /* \"#utility.yul\":2567:2569   */\n      0x20\n        /* \"#utility.yul\":2593:2646   */\n      tag_122\n        /* \"#utility.yul\":2638:2645   */\n      dup6\n        /* \"#utility.yul\":2629:2635   */\n      dup3\n        /* \"#utility.yul\":2618:2627   */\n      dup7\n        /* \"#utility.yul\":2614:2636   */\n      add\n        /* \"#utility.yul\":2593:2646   */\n      tag_73\n      jump\t// in\n    tag_122:\n        /* \"#utility.yul\":2583:2646   */\n      swap2\n      pop\n        /* \"#utility.yul\":2538:2656   */\n      pop\n        /* \"#utility.yul\":2189:2663   */\n      swap3\n      pop\n      swap3\n      swap1\n      pop\n      jump\t// out\n        /* \"#utility.yul\":2669:2838   */\n    tag_74:\n        /* \"#utility.yul\":2753:2764   */\n      0x00\n        /* \"#utility.yul\":2787:2793   */\n      dup3\n        /* \"#utility.yul\":2782:2785   */\n      dup3\n        /* \"#utility.yul\":2775:2794   */\n      mstore\n        /* \"#utility.yul\":2827:2831   */\n      0x20\n        /* \"#utility.yul\":2822:2825   */\n      dup3\n        /* \"#utility.yul\":2818:2832   */\n      add\n        /* \"#utility.yul\":2803:2832   */\n      swap1\n      pop\n        /* \"#utility.yul\":2669:2838   */\n      swap3\n      swap2\n      pop\n      pop\n      jump\t// out\n        /* \"#utility.yul\":2844:3008   */\n    tag_75:\n        /* \"#utility.yul\":2984:3000   */\n      0x4e6f7420617574686f72697a6564000000000000000000000000000000000000\n        /* \"#utility.yul\":2980:2981   */\n      0x00\n        /* \"#utility.yul\":2972:2978   */\n      dup3\n        /* \"#utility.yul\":2968:2982   */\n      add\n        /* \"#utility.yul\":2961:3001   */\n      mstore\n        /* \"#utility.yul\":2844:3008   */\n      pop\n      jump\t// out\n        /* \"#utility.yul\":3014:3380   */\n    tag_76:\n        /* \"#utility.yul\":3156:3159   */\n      0x00\n        /* \"#utility.yul\":3177:3244   */\n      tag_126\n        /* \"#utility.yul\":3241:3243   */\n      0x0e\n        /* \"#utility.yul\":3236:3239   */\n      dup4\n        /* \"#utility.yul\":3177:3244   */\n      tag_74\n      jump\t// in\n    tag_126:\n        /* \"#utility.yul\":3170:3244   */\n      swap2\n      pop\n        /* \"#utility.yul\":3253:3346   */\n      tag_127\n        /* \"#utility.yul\":3342:3345   */\n      dup3\n        /* \"#utility.yul\":3253:3346   */\n      tag_75\n      jump\t// in\n    tag_127:\n        /* \"#utility.yul\":3371:3373   */\n      0x20\n        /* \"#utility.yul\":3366:3369   */\n      dup3\n        /* \"#utility.yul\":3362:3374   */\n      add\n        /* \"#utility.yul\":3355:3374   */\n      swap1\n      pop\n        /* \"#utility.yul\":3014:3380   */\n      swap2\n      swap1\n      pop\n      jump\t// out\n        /* \"#utility.yul\":3386:3805   */\n    tag_30:\n        /* \"#utility.yul\":3552:3556   */\n      0x00\n        /* \"#utility.yul\":3590:3592   */\n      0x20\n        /* \"#utility.yul\":3579:3588   */\n      dup3\n        /* \"#utility.yul\":3575:3593   */\n      add\n        /* \"#utility.yul\":3567:3593   */\n      swap1\n      pop\n        /* \"#utility.yul\":3639:3648   */\n      dup2\n        /* \"#utility.yul\":3633:3637   */\n      dup2\n        /* \"#utility.yul\":3629:3649   */\n      sub\n        /* \"#utility.yul\":3625:3626   */\n      0x00\n        /* \"#utility.yul\":3614:3623   */\n      dup4\n        /* \"#utility.yul\":3610:3627   */\n      add\n        /* \"#utility.yul\":3603:3650   */\n      mstore\n        /* \"#utility.yul\":3667:3798   */\n      tag_129\n        /* \"#utility.yul\":3793:3797   */\n      dup2\n        /* \"#utility.yul\":3667:3798   */\n      tag_76\n      jump\t// in\n    tag_129:\n        /* \"#utility.yul\":3659:3798   */\n      swap1\n      pop\n        /* \"#utility.yul\":3386:3805   */\n      swap2\n      swap1\n      pop\n      jump\t// out\n        /* \"#utility.yul\":3811:4143   */\n    tag_32:\n        /* \"#utility.yul\":3932:3936   */\n      0x00\n        /* \"#utility.yul\":3970:3972   */\n      0x40\n        /* \"#utility.yul\":3959:3968   */\n      dup3\n        /* \"#utility.yul\":3955:3973   */\n      add\n        /* \"#utility.yul\":3947:3973   */\n      swap1\n      pop\n        /* \"#utility.yul\":3983:4054   */\n      tag_131\n        /* \"#utility.yul\":4051:4052   */\n      0x00\n        /* \"#utility.yul\":4040:4049   */\n      dup4\n        /* \"#utility.yul\":4036:4053   */\n      add\n        /* \"#utility.yul\":4027:4033   */\n      dup6\n        /* \"#utility.yul\":3983:4054   */\n      tag_67\n      jump\t// in\n    tag_131:\n        /* \"#utility.yul\":4064:4136   */\n      tag_132\n        /* \"#utility.yul\":4132:4134   */\n      0x20\n        /* \"#utility.yul\":4121:4130   */\n      dup4\n        /* \"#utility.yul\":4117:4135   */\n      add\n        /* \"#utility.yul\":4108:4114   */\n      dup5\n        /* \"#utility.yul\":4064:4136   */\n      tag_67\n      jump\t// in\n    tag_132:\n        /* \"#utility.yul\":3811:4143   */\n      swap4\n      swap3\n      pop\n      pop\n      pop\n      jump\t// out\n        /* \"#utility.yul\":4149:4292   */\n    tag_77:\n        /* \"#utility.yul\":4206:4211   */\n      0x00\n        /* \"#utility.yul\":4237:4243   */\n      dup2\n        /* \"#utility.yul\":4231:4244   */\n      mload\n        /* \"#utility.yul\":4222:4244   */\n      swap1\n      pop\n        /* \"#utility.yul\":4253:4286   */\n      tag_134\n        /* \"#utility.yul\":4280:4285   */\n      dup2\n        /* \"#utility.yul\":4253:4286   */\n      tag_72\n      jump\t// in\n    tag_134:\n        /* \"#utility.yul\":4149:4292   */\n      swap3\n      swap2\n      pop\n      pop\n      jump\t// out\n        /* \"#utility.yul\":4298:4649   */\n    tag_36:\n        /* \"#utility.yul\":4368:4374   */\n      0x00\n        /* \"#utility.yul\":4417:4419   */\n      0x20\n        /* \"#utility.yul\":4405:4414   */\n      dup3\n        /* \"#utility.yul\":4396:4403   */\n      dup5\n        /* \"#utility.yul\":4392:4415   */\n      sub\n        /* \"#utility.yul\":4388:4420   */\n      slt\n        /* \"#utility.yul\":4385:4504   */\n      iszero\n      tag_136\n      jumpi\n        /* \"#utility.yul\":4423:4502   */\n      tag_137\n      tag_69\n      jump\t// in\n    tag_137:\n        /* \"#utility.yul\":4385:4504   */\n    tag_136:\n        /* \"#utility.yul\":4543:4544   */\n      0x00\n        /* \"#utility.yul\":4568:4632   */\n      tag_138\n        /* \"#utility.yul\":4624:4631   */\n      dup5\n        /* \"#utility.yul\":4615:4621   */\n      dup3\n        /* \"#utility.yul\":4604:4613   */\n      dup6\n        /* \"#utility.yul\":4600:4622   */\n      add\n        /* \"#utility.yul\":4568:4632   */\n      tag_77\n      jump\t// in\n    tag_138:\n        /* \"#utility.yul\":4558:4632   */\n      swap2\n      pop\n        /* \"#utility.yul\":4514:4642   */\n      pop\n        /* \"#utility.yul\":4298:4649   */\n      swap3\n      swap2\n      pop\n      pop\n      jump\t// out\n        /* \"#utility.yul\":4655:4829   */\n    tag_78:\n        /* \"#utility.yul\":4795:4821   */\n      0x546f6b656e203120616c6c6f77616e636520746f206c6f770000000000000000\n        /* \"#utility.yul\":4791:4792   */\n      0x00\n        /* \"#utility.yul\":4783:4789   */\n      dup3\n        /* \"#utility.yul\":4779:4793   */\n      add\n        /* \"#utility.yul\":4772:4822   */\n      mstore\n        /* \"#utility.yul\":4655:4829   */\n      pop\n      jump\t// out\n        /* \"#utility.yul\":4835:5201   */\n    tag_79:\n        /* \"#utility.yul\":4977:4980   */\n      0x00\n        /* \"#utility.yul\":4998:5065   */\n      tag_141\n        /* \"#utility.yul\":5062:5064   */\n      0x18\n        /* \"#utility.yul\":5057:5060   */\n      dup4\n        /* \"#utility.yul\":4998:5065   */\n      tag_74\n      jump\t// in\n    tag_141:\n        /* \"#utility.yul\":4991:5065   */\n      swap2\n      pop\n        /* \"#utility.yul\":5074:5167   */\n      tag_142\n        /* \"#utility.yul\":5163:5166   */\n      dup3\n        /* \"#utility.yul\":5074:5167   */\n      tag_78\n      jump\t// in\n    tag_142:\n        /* \"#utility.yul\":5192:5194   */\n      0x20\n        /* \"#utility.yul\":5187:5190   */\n      dup3\n        /* \"#utility.yul\":5183:5195   */\n      add\n        /* \"#utility.yul\":5176:5195   */\n      swap1\n      pop\n        /* \"#utility.yul\":4835:5201   */\n      swap2\n      swap1\n      pop\n      jump\t// out\n        /* \"#utility.yul\":5207:5626   */\n    tag_39:\n        /* \"#utility.yul\":5373:5377   */\n      0x00\n        /* \"#utility.yul\":5411:5413   */\n      0x20\n        /* \"#utility.yul\":5400:5409   */\n      dup3\n        /* \"#utility.yul\":5396:5414   */\n      add\n        /* \"#utility.yul\":5388:5414   */\n      swap1\n      pop\n        /* \"#utility.yul\":5460:5469   */\n      dup2\n        /* \"#utility.yul\":5454:5458   */\n      dup2\n        /* \"#utility.yul\":5450:5470   */\n      sub\n        /* \"#utility.yul\":5446:5447   */\n      0x00\n        /* \"#utility.yul\":5435:5444   */\n      dup4\n        /* \"#utility.yul\":5431:5448   */\n      add\n        /* \"#utility.yul\":5424:5471   */\n      mstore\n        /* \"#utility.yul\":5488:5619   */\n      tag_144\n        /* \"#utility.yul\":5614:5618   */\n      dup2\n        /* \"#utility.yul\":5488:5619   */\n      tag_79\n      jump\t// in\n    tag_144:\n        /* \"#utility.yul\":5480:5619   */\n      swap1\n      pop\n        /* \"#utility.yul\":5207:5626   */\n      swap2\n      swap1\n      pop\n      jump\t// out\n        /* \"#utility.yul\":5632:5806   */\n    tag_80:\n        /* \"#utility.yul\":5772:5798   */\n      0x546f6b656e203220616c6c6f77616e636520746f206c6f770000000000000000\n        /* \"#utility.yul\":5768:5769   */\n      0x00\n        /* \"#utility.yul\":5760:5766   */\n      dup3\n        /* \"#utility.yul\":5756:5770   */\n      add\n        /* \"#utility.yul\":5749:5799   */\n      mstore\n        /* \"#utility.yul\":5632:5806   */\n      pop\n      jump\t// out\n        /* \"#utility.yul\":5812:6178   */\n    tag_81:\n        /* \"#utility.yul\":5954:5957   */\n      0x00\n        /* \"#utility.yul\":5975:6042   */\n      tag_147\n        /* \"#utility.yul\":6039:6041   */\n      0x18\n        /* \"#utility.yul\":6034:6037   */\n      dup4\n        /* \"#utility.yul\":5975:6042   */\n      tag_74\n      jump\t// in\n    tag_147:\n        /* \"#utility.yul\":5968:6042   */\n      swap2\n      pop\n        /* \"#utility.yul\":6051:6144   */\n      tag_148\n        /* \"#utility.yul\":6140:6143   */\n      dup3\n        /* \"#utility.yul\":6051:6144   */\n      tag_80\n      jump\t// in\n    tag_148:\n        /* \"#utility.yul\":6169:6171   */\n      0x20\n        /* \"#utility.yul\":6164:6167   */\n      dup3\n        /* \"#utility.yul\":6160:6172   */\n      add\n        /* \"#utility.yul\":6153:6172   */\n      swap1\n      pop\n        /* \"#utility.yul\":5812:6178   */\n      swap2\n      swap1\n      pop\n      jump\t// out\n        /* \"#utility.yul\":6184:6603   */\n    tag_46:\n        /* \"#utility.yul\":6350:6354   */\n      0x00\n        /* \"#utility.yul\":6388:6390   */\n      0x20\n        /* \"#utility.yul\":6377:6386   */\n      dup3\n        /* \"#utility.yul\":6373:6391   */\n      add\n        /* \"#utility.yul\":6365:6391   */\n      swap1\n      pop\n        /* \"#utility.yul\":6437:6446   */\n      dup2\n        /* \"#utility.yul\":6431:6435   */\n      dup2\n        /* \"#utility.yul\":6427:6447   */\n      sub\n        /* \"#utility.yul\":6423:6424   */\n      0x00\n        /* \"#utility.yul\":6412:6421   */\n      dup4\n        /* \"#utility.yul\":6408:6425   */\n      add\n        /* \"#utility.yul\":6401:6448   */\n      mstore\n        /* \"#utility.yul\":6465:6596   */\n      tag_150\n        /* \"#utility.yul\":6591:6595   */\n      dup2\n        /* \"#utility.yul\":6465:6596   */\n      tag_81\n      jump\t// in\n    tag_150:\n        /* \"#utility.yul\":6457:6596   */\n      swap1\n      pop\n        /* \"#utility.yul\":6184:6603   */\n      swap2\n      swap1\n      pop\n      jump\t// out\n        /* \"#utility.yul\":6609:6727   */\n    tag_82:\n        /* \"#utility.yul\":6696:6720   */\n      tag_152\n        /* \"#utility.yul\":6714:6719   */\n      dup2\n        /* \"#utility.yul\":6696:6720   */\n      tag_71\n      jump\t// in\n    tag_152:\n        /* \"#utility.yul\":6691:6694   */\n      dup3\n        /* \"#utility.yul\":6684:6721   */\n      mstore\n        /* \"#utility.yul\":6609:6727   */\n      pop\n      pop\n      jump\t// out\n        /* \"#utility.yul\":6733:7175   */\n    tag_52:\n        /* \"#utility.yul\":6882:6886   */\n      0x00\n        /* \"#utility.yul\":6920:6922   */\n      0x60\n        /* \"#utility.yul\":6909:6918   */\n      dup3\n        /* \"#utility.yul\":6905:6923   */\n      add\n        /* \"#utility.yul\":6897:6923   */\n      swap1\n      pop\n        /* \"#utility.yul\":6933:7004   */\n      tag_154\n        /* \"#utility.yul\":7001:7002   */\n      0x00\n        /* \"#utility.yul\":6990:6999   */\n      dup4\n        /* \"#utility.yul\":6986:7003   */\n      add\n        /* \"#utility.yul\":6977:6983   */\n      dup7\n        /* \"#utility.yul\":6933:7004   */\n      tag_67\n      jump\t// in\n    tag_154:\n        /* \"#utility.yul\":7014:7086   */\n      tag_155\n        /* \"#utility.yul\":7082:7084   */\n      0x20\n        /* \"#utility.yul\":7071:7080   */\n      dup4\n        /* \"#utility.yul\":7067:7085   */\n      add\n        /* \"#utility.yul\":7058:7064   */\n      dup6\n        /* \"#utility.yul\":7014:7086   */\n      tag_67\n      jump\t// in\n    tag_155:\n        /* \"#utility.yul\":7096:7168   */\n      tag_156\n        /* \"#utility.yul\":7164:7166   */\n      0x40\n        /* \"#utility.yul\":7153:7162   */\n      dup4\n        /* \"#utility.yul\":7149:7167   */\n      add\n        /* \"#utility.yul\":7140:7146   */\n      dup5\n        /* \"#utility.yul\":7096:7168   */\n      tag_82\n      jump\t// in\n    tag_156:\n        /* \"#utility.yul\":6733:7175   */\n      swap5\n      swap4\n      pop\n      pop\n      pop\n      pop\n      jump\t// out\n        /* \"#utility.yul\":7181:7271   */\n    tag_83:\n        /* \"#utility.yul\":7215:7222   */\n      0x00\n        /* \"#utility.yul\":7258:7263   */\n      dup2\n        /* \"#utility.yul\":7251:7264   */\n      iszero\n        /* \"#utility.yul\":7244:7265   */\n      iszero\n        /* \"#utility.yul\":7233:7265   */\n      swap1\n      pop\n        /* \"#utility.yul\":7181:7271   */\n      swap2\n      swap1\n      pop\n      jump\t// out\n        /* \"#utility.yul\":7277:7393   */\n    tag_84:\n        /* \"#utility.yul\":7347:7368   */\n      tag_159\n        /* \"#utility.yul\":7362:7367   */\n      dup2\n        /* \"#utility.yul\":7347:7368   */\n      tag_83\n      jump\t// in\n    tag_159:\n        /* \"#utility.yul\":7340:7345   */\n      dup2\n        /* \"#utility.yul\":7337:7369   */\n      eq\n        /* \"#utility.yul\":7327:7387   */\n      tag_160\n      jumpi\n        /* \"#utility.yul\":7383:7384   */\n      0x00\n        /* \"#utility.yul\":7380:7381   */\n      dup1\n        /* \"#utility.yul\":7373:7385   */\n      revert\n        /* \"#utility.yul\":7327:7387   */\n    tag_160:\n        /* \"#utility.yul\":7277:7393   */\n      pop\n      jump\t// out\n        /* \"#utility.yul\":7399:7536   */\n    tag_85:\n        /* \"#utility.yul\":7453:7458   */\n      0x00\n        /* \"#utility.yul\":7484:7490   */\n      dup2\n        /* \"#utility.yul\":7478:7491   */\n      mload\n        /* \"#utility.yul\":7469:7491   */\n      swap1\n      pop\n        /* \"#utility.yul\":7500:7530   */\n      tag_162\n        /* \"#utility.yul\":7524:7529   */\n      dup2\n        /* \"#utility.yul\":7500:7530   */\n      tag_84\n      jump\t// in\n    tag_162:\n        /* \"#utility.yul\":7399:7536   */\n      swap3\n      swap2\n      pop\n      pop\n      jump\t// out\n        /* \"#utility.yul\":7542:7887   */\n    tag_56:\n        /* \"#utility.yul\":7609:7615   */\n      0x00\n        /* \"#utility.yul\":7658:7660   */\n      0x20\n        /* \"#utility.yul\":7646:7655   */\n      dup3\n        /* \"#utility.yul\":7637:7644   */\n      dup5\n        /* \"#utility.yul\":7633:7656   */\n      sub\n        /* \"#utility.yul\":7629:7661   */\n      slt\n        /* \"#utility.yul\":7626:7745   */\n      iszero\n      tag_164\n      jumpi\n        /* \"#utility.yul\":7664:7743   */\n      tag_165\n      tag_69\n      jump\t// in\n    tag_165:\n        /* \"#utility.yul\":7626:7745   */\n    tag_164:\n        /* \"#utility.yul\":7784:7785   */\n      0x00\n        /* \"#utility.yul\":7809:7870   */\n      tag_166\n        /* \"#utility.yul\":7862:7869   */\n      dup5\n        /* \"#utility.yul\":7853:7859   */\n      dup3\n        /* \"#utility.yul\":7842:7851   */\n      dup6\n        /* \"#utility.yul\":7838:7860   */\n      add\n        /* \"#utility.yul\":7809:7870   */\n      tag_85\n      jump\t// in\n    tag_166:\n        /* \"#utility.yul\":7799:7870   */\n      swap2\n      pop\n        /* \"#utility.yul\":7755:7880   */\n      pop\n        /* \"#utility.yul\":7542:7887   */\n      swap3\n      swap2\n      pop\n      pop\n      jump\t// out\n        /* \"#utility.yul\":7893:8064   */\n    tag_86:\n        /* \"#utility.yul\":8033:8056   */\n      0x546f6b656e207472616e73666572206661696c65640000000000000000000000\n        /* \"#utility.yul\":8029:8030   */\n      0x00\n        /* \"#utility.yul\":8021:8027   */\n      dup3\n        /* \"#utility.yul\":8017:8031   */\n      add\n        /* \"#utility.yul\":8010:8057   */\n      mstore\n        /* \"#utility.yul\":7893:8064   */\n      pop\n      jump\t// out\n        /* \"#utility.yul\":8070:8436   */\n    tag_87:\n        /* \"#utility.yul\":8212:8215   */\n      0x00\n        /* \"#utility.yul\":8233:8300   */\n      tag_169\n        /* \"#utility.yul\":8297:8299   */\n      0x15\n        /* \"#utility.yul\":8292:8295   */\n      dup4\n        /* \"#utility.yul\":8233:8300   */\n      tag_74\n      jump\t// in\n    tag_169:\n        /* \"#utility.yul\":8226:8300   */\n      swap2\n      pop\n        /* \"#utility.yul\":8309:8402   */\n      tag_170\n        /* \"#utility.yul\":8398:8401   */\n      dup3\n        /* \"#utility.yul\":8309:8402   */\n      tag_86\n      jump\t// in\n    tag_170:\n        /* \"#utility.yul\":8427:8429   */\n      0x20\n        /* \"#utility.yul\":8422:8425   */\n      dup3\n        /* \"#utility.yul\":8418:8430   */\n      add\n        /* \"#utility.yul\":8411:8430   */\n      swap1\n      pop\n        /* \"#utility.yul\":8070:8436   */\n      swap2\n      swap1\n      pop\n      jump\t// out\n        /* \"#utility.yul\":8442:8861   */\n    tag_59:\n        /* \"#utility.yul\":8608:8612   */\n      0x00\n        /* \"#utility.yul\":8646:8648   */\n      0x20\n        /* \"#utility.yul\":8635:8644   */\n      dup3\n        /* \"#utility.yul\":8631:8649   */\n      add\n        /* \"#utility.yul\":8623:8649   */\n      swap1\n      pop\n        /* \"#utility.yul\":8695:8704   */\n      dup2\n        /* \"#utility.yul\":8689:8693   */\n      dup2\n        /* \"#utility.yul\":8685:8705   */\n      sub\n        /* \"#utility.yul\":8681:8682   */\n      0x00\n        /* \"#utility.yul\":8670:8679   */\n      dup4\n        /* \"#utility.yul\":8666:8683   */\n      add\n        /* \"#utility.yul\":8659:8706   */\n      mstore\n        /* \"#utility.yul\":8723:8854   */\n      tag_172\n        /* \"#utility.yul\":8849:8853   */\n      dup2\n        /* \"#utility.yul\":8723:8854   */\n      tag_87\n      jump\t// in\n    tag_172:\n        /* \"#utility.yul\":8715:8854   */\n      swap1\n      pop\n        /* \"#utility.yul\":8442:8861   */\n      swap2\n      swap1\n      pop\n      jump\t// out\n\n    auxdata: 0xa2646970667358221220f1b9bbf575a33c3abb53e2814e8d21aecd23fc5cd0c964fe974d1460d93061ad64736f6c63430008190033\n}\n",
				"bytecode": {
					"linkReferences": {},
					"object": "608060405234801561000f575f80fd5b50604051610c3d380380610c3d83398181016040528101906100319190610197565b835f806101000a81548173ffffffffffffffffffffffffffffffffffffffff021916908373ffffffffffffffffffffffffffffffffffffffff1602179055508260015f6101000a81548173ffffffffffffffffffffffffffffffffffffffff021916908373ffffffffffffffffffffffffffffffffffffffff1602179055508160025f6101000a81548173ffffffffffffffffffffffffffffffffffffffff021916908373ffffffffffffffffffffffffffffffffffffffff1602179055508060035f6101000a81548173ffffffffffffffffffffffffffffffffffffffff021916908373ffffffffffffffffffffffffffffffffffffffff160217905550505050506101fb565b5f80fd5b5f73ffffffffffffffffffffffffffffffffffffffff82169050919050565b5f6101668261013d565b9050919050565b6101768161015c565b8114610180575f80fd5b50565b5f815190506101918161016d565b92915050565b5f805f80608085870312156101af576101ae610139565b5b5f6101bc87828801610183565b94505060206101cd87828801610183565b93505060406101de87828801610183565b92505060606101ef87828801610183565b91505092959194509250565b610a35806102085f395ff3fe608060405234801561000f575f80fd5b5060043610610055575f3560e01c806325be124e1461005957806352709725146100775780637368891414610095578063d21220a7146100b3578063d96073cf146100d1575b5f80fd5b6100616100ed565b60405161006e919061067e565b60405180910390f35b61007f610112565b60405161008c91906106b7565b60405180910390f35b61009d610137565b6040516100aa91906106b7565b60405180910390f35b6100bb61015c565b6040516100c8919061067e565b60405180910390f35b6100eb60048036038101906100e69190610707565b61017f565b005b60025f9054906101000a900473ffffffffffffffffffffffffffffffffffffffff1681565b60035f9054906101000a900473ffffffffffffffffffffffffffffffffffffffff1681565b60015f9054906101000a900473ffffffffffffffffffffffffffffffffffffffff1681565b5f8054906101000a900473ffffffffffffffffffffffffffffffffffffffff1681565b60015f9054906101000a900473ffffffffffffffffffffffffffffffffffffffff1673ffffffffffffffffffffffffffffffffffffffff163373ffffffffffffffffffffffffffffffffffffffff161480610226575060035f9054906101000a900473ffffffffffffffffffffffffffffffffffffffff1673ffffffffffffffffffffffffffffffffffffffff163373ffffffffffffffffffffffffffffffffffffffff16145b610265576040517f08c379a000000000000000000000000000000000000000000000000000000000815260040161025c9061079f565b60405180910390fd5b815f8054906101000a900473ffffffffffffffffffffffffffffffffffffffff1673ffffffffffffffffffffffffffffffffffffffff1663dd62ed3e60015f9054906101000a900473ffffffffffffffffffffffffffffffffffffffff16306040518363ffffffff1660e01b81526004016102e19291906107bd565b602060405180830381865afa1580156102fc573d5f803e3d5ffd5b505050506040513d601f19601f8201168201806040525081019061032091906107f8565b1015610361576040517f08c379a00000000000000000000000000000000000000000000000000000000081526004016103589061086d565b60405180910390fd5b805f8054906101000a900473ffffffffffffffffffffffffffffffffffffffff1673ffffffffffffffffffffffffffffffffffffffff1663dd62ed3e60035f9054906101000a900473ffffffffffffffffffffffffffffffffffffffff16306040518363ffffffff1660e01b81526004016103dd9291906107bd565b602060405180830381865afa1580156103f8573d5f803e3d5ffd5b505050506040513d601f19601f8201168201806040525081019061041c91906107f8565b101561045d576040517f08c379a0000000000000000000000000000000000000000000000000000000008152600401610454906108d5565b60405180910390fd5b6104ca5f8054906101000a900473ffffffffffffffffffffffffffffffffffffffff1660015f9054906101000a900473ffffffffffffffffffffffffffffffffffffffff1660035f9054906101000a900473ffffffffffffffffffffffffffffffffffffffff168561053d565b61053960025f9054906101000a900473ffffffffffffffffffffffffffffffffffffffff1660035f9054906101000a900473ffffffffffffffffffffffffffffffffffffffff1660015f9054906101000a900473ffffffffffffffffffffffffffffffffffffffff168461053d565b5050565b5f8473ffffffffffffffffffffffffffffffffffffffff166323b872dd8585856040518463ffffffff1660e01b815260040161057b93929190610902565b6020604051808303815f875af1158015610597573d5f803e3d5ffd5b505050506040513d601f19601f820116820180604052508101906105bb919061096c565b9050806105fd576040517f08c379a00000000000000000000000000000000000000000000000000000000081526004016105f4906109e1565b60405180910390fd5b5050505050565b5f73ffffffffffffffffffffffffffffffffffffffff82169050919050565b5f819050919050565b5f61064661064161063c84610604565b610623565b610604565b9050919050565b5f6106578261062c565b9050919050565b5f6106688261064d565b9050919050565b6106788161065e565b82525050565b5f6020820190506106915f83018461066f565b92915050565b5f6106a182610604565b9050919050565b6106b181610697565b82525050565b5f6020820190506106ca5f8301846106a8565b92915050565b5f80fd5b5f819050919050565b6106e6816106d4565b81146106f0575f80fd5b50565b5f81359050610701816106dd565b92915050565b5f806040838503121561071d5761071c6106d0565b5b5f61072a858286016106f3565b925050602061073b858286016106f3565b9150509250929050565b5f82825260208201905092915050565b7f4e6f7420617574686f72697a65640000000000000000000000000000000000005f82015250565b5f610789600e83610745565b915061079482610755565b602082019050919050565b5f6020820190508181035f8301526107b68161077d565b9050919050565b5f6040820190506107d05f8301856106a8565b6107dd60208301846106a8565b9392505050565b5f815190506107f2816106dd565b92915050565b5f6020828403121561080d5761080c6106d0565b5b5f61081a848285016107e4565b91505092915050565b7f546f6b656e203120616c6c6f77616e636520746f206c6f7700000000000000005f82015250565b5f610857601883610745565b915061086282610823565b602082019050919050565b5f6020820190508181035f8301526108848161084b565b9050919050565b7f546f6b656e203220616c6c6f77616e636520746f206c6f7700000000000000005f82015250565b5f6108bf601883610745565b91506108ca8261088b565b602082019050919050565b5f6020820190508181035f8301526108ec816108b3565b9050919050565b6108fc816106d4565b82525050565b5f6060820190506109155f8301866106a8565b61092260208301856106a8565b61092f60408301846108f3565b949350505050565b5f8115159050919050565b61094b81610937565b8114610955575f80fd5b50565b5f8151905061096681610942565b92915050565b5f60208284031215610981576109806106d0565b5b5f61098e84828501610958565b91505092915050565b7f546f6b656e207472616e73666572206661696c656400000000000000000000005f82015250565b5f6109cb601583610745565b91506109d682610997565b602082019050919050565b5f6020820190508181035f8301526109f8816109bf565b905091905056fea2646970667358221220f1b9bbf575a33c3abb53e2814e8d21aecd23fc5cd0c964fe974d1460d93061ad64736f6c63430008190033",
					"opcodes": "PUSH1 0x80 PUSH1 0x40 MSTORE CALLVALUE DUP1 ISZERO PUSH2 0xF JUMPI PUSH0 DUP1 REVERT JUMPDEST POP PUSH1 0x40 MLOAD PUSH2 0xC3D CODESIZE SUB DUP1 PUSH2 0xC3D DUP4 CODECOPY DUP2 DUP2 ADD PUSH1 0x40 MSTORE DUP2 ADD SWAP1 PUSH2 0x31 SWAP2 SWAP1 PUSH2 0x197 JUMP JUMPDEST DUP4 PUSH0 DUP1 PUSH2 0x100 EXP DUP2 SLOAD DUP2 PUSH20 0xFFFFFFFFFFFFFFFFFFFFFFFFFFFFFFFFFFFFFFFF MUL NOT AND SWAP1 DUP4 PUSH20 0xFFFFFFFFFFFFFFFFFFFFFFFFFFFFFFFFFFFFFFFF AND MUL OR SWAP1 SSTORE POP DUP3 PUSH1 0x1 PUSH0 PUSH2 0x100 EXP DUP2 SLOAD DUP2 PUSH20 0xFFFFFFFFFFFFFFFFFFFFFFFFFFFFFFFFFFFFFFFF MUL NOT AND SWAP1 DUP4 PUSH20 0xFFFFFFFFFFFFFFFFFFFFFFFFFFFFFFFFFFFFFFFF AND MUL OR SWAP1 SSTORE POP DUP2 PUSH1 0x2 PUSH0 PUSH2 0x100 EXP DUP2 SLOAD DUP2 PUSH20 0xFFFFFFFFFFFFFFFFFFFFFFFFFFFFFFFFFFFFFFFF MUL NOT AND SWAP1 DUP4 PUSH20 0xFFFFFFFFFFFFFFFFFFFFFFFFFFFFFFFFFFFFFFFF AND MUL OR SWAP1 SSTORE POP DUP1 PUSH1 0x3 PUSH0 PUSH2 0x100 EXP DUP2 SLOAD DUP2 PUSH20 0xFFFFFFFFFFFFFFFFFFFFFFFFFFFFFFFFFFFFFFFF MUL NOT AND SWAP1 DUP4 PUSH20 0xFFFFFFFFFFFFFFFFFFFFFFFFFFFFFFFFFFFFFFFF AND MUL OR SWAP1 SSTORE POP POP POP POP POP PUSH2 0x1FB JUMP JUMPDEST PUSH0 DUP1 REVERT JUMPDEST PUSH0 PUSH20 0xFFFFFFFFFFFFFFFFFFFFFFFFFFFFFFFFFFFFFFFF DUP3 AND SWAP1 POP SWAP2 SWAP1 POP JUMP JUMPDEST PUSH0 PUSH2 0x166 DUP3 PUSH2 0x13D JUMP JUMPDEST SWAP1 POP SWAP2 SWAP1 POP JUMP JUMPDEST PUSH2 0x176 DUP2 PUSH2 0x15C JUMP JUMPDEST DUP2 EQ PUSH2 0x180 JUMPI PUSH0 DUP1 REVERT JUMPDEST POP JUMP JUMPDEST PUSH0 DUP2 MLOAD SWAP1 POP PUSH2 0x191 DUP2 PUSH2 0x16D JUMP JUMPDEST SWAP3 SWAP2 POP POP JUMP JUMPDEST PUSH0 DUP1 PUSH0 DUP1 PUSH1 0x80 DUP6 DUP8 SUB SLT ISZERO PUSH2 0x1AF JUMPI PUSH2 0x1AE PUSH2 0x139 JUMP JUMPDEST JUMPDEST PUSH0 PUSH2 0x1BC DUP8 DUP3 DUP9 ADD PUSH2 0x183 JUMP JUMPDEST SWAP5 POP POP PUSH1 0x20 PUSH2 0x1CD DUP8 DUP3 DUP9 ADD PUSH2 0x183 JUMP JUMPDEST SWAP4 POP POP PUSH1 0x40 PUSH2 0x1DE DUP8 DUP3 DUP9 ADD PUSH2 0x183 JUMP JUMPDEST SWAP3 POP POP PUSH1 0x60 PUSH2 0x1EF DUP8 DUP3 DUP9 ADD PUSH2 0x183 JUMP JUMPDEST SWAP2 POP POP SWAP3 SWAP6 SWAP2 SWAP5 POP SWAP3 POP JUMP JUMPDEST PUSH2 0xA35 DUP1 PUSH2 0x208 PUSH0 CODECOPY PUSH0 RETURN INVALID PUSH1 0x80 PUSH1 0x40 MSTORE CALLVALUE DUP1 ISZERO PUSH2 0xF JUMPI PUSH0 DUP1 REVERT JUMPDEST POP PUSH1 0x4 CALLDATASIZE LT PUSH2 0x55 JUMPI PUSH0 CALLDATALOAD PUSH1 0xE0 SHR DUP1 PUSH4 0x25BE124E EQ PUSH2 0x59 JUMPI DUP1 PUSH4 0x52709725 EQ PUSH2 0x77 JUMPI DUP1 PUSH4 0x73688914 EQ PUSH2 0x95 JUMPI DUP1 PUSH4 0xD21220A7 EQ PUSH2 0xB3 JUMPI DUP1 PUSH4 0xD96073CF EQ PUSH2 0xD1 JUMPI JUMPDEST PUSH0 DUP1 REVERT JUMPDEST PUSH2 0x61 PUSH2 0xED JUMP JUMPDEST PUSH1 0x40 MLOAD PUSH2 0x6E SWAP2 SWAP1 PUSH2 0x67E JUMP JUMPDEST PUSH1 0x40 MLOAD DUP1 SWAP2 SUB SWAP1 RETURN JUMPDEST PUSH2 0x7F PUSH2 0x112 JUMP JUMPDEST PUSH1 0x40 MLOAD PUSH2 0x8C SWAP2 SWAP1 PUSH2 0x6B7 JUMP JUMPDEST PUSH1 0x40 MLOAD DUP1 SWAP2 SUB SWAP1 RETURN JUMPDEST PUSH2 0x9D PUSH2 0x137 JUMP JUMPDEST PUSH1 0x40 MLOAD PUSH2 0xAA SWAP2 SWAP1 PUSH2 0x6B7 JUMP JUMPDEST PUSH1 0x40 MLOAD DUP1 SWAP2 SUB SWAP1 RETURN JUMPDEST PUSH2 0xBB PUSH2 0x15C JUMP JUMPDEST PUSH1 0x40 MLOAD PUSH2 0xC8 SWAP2 SWAP1 PUSH2 0x67E JUMP JUMPDEST PUSH1 0x40 MLOAD DUP1 SWAP2 SUB SWAP1 RETURN JUMPDEST PUSH2 0xEB PUSH1 0x4 DUP1 CALLDATASIZE SUB DUP2 ADD SWAP1 PUSH2 0xE6 SWAP2 SWAP1 PUSH2 0x707 JUMP JUMPDEST PUSH2 0x17F JUMP JUMPDEST STOP JUMPDEST PUSH1 0x2 PUSH0 SWAP1 SLOAD SWAP1 PUSH2 0x100 EXP SWAP1 DIV PUSH20 0xFFFFFFFFFFFFFFFFFFFFFFFFFFFFFFFFFFFFFFFF AND DUP2 JUMP JUMPDEST PUSH1 0x3 PUSH0 SWAP1 SLOAD SWAP1 PUSH2 0x100 EXP SWAP1 DIV PUSH20 0xFFFFFFFFFFFFFFFFFFFFFFFFFFFFFFFFFFFFFFFF AND DUP2 JUMP JUMPDEST PUSH1 0x1 PUSH0 SWAP1 SLOAD SWAP1 PUSH2 0x100 EXP SWAP1 DIV PUSH20 0xFFFFFFFFFFFFFFFFFFFFFFFFFFFFFFFFFFFFFFFF AND DUP2 JUMP JUMPDEST PUSH0 DUP1 SLOAD SWAP1 PUSH2 0x100 EXP SWAP1 DIV PUSH20 0xFFFFFFFFFFFFFFFFFFFFFFFFFFFFFFFFFFFFFFFF AND DUP2 JUMP JUMPDEST PUSH1 0x1 PUSH0 SWAP1 SLOAD SWAP1 PUSH2 0x100 EXP SWAP1 DIV PUSH20 0xFFFFFFFFFFFFFFFFFFFFFFFFFFFFFFFFFFFFFFFF AND PUSH20 0xFFFFFFFFFFFFFFFFFFFFFFFFFFFFFFFFFFFFFFFF AND CALLER PUSH20 0xFFFFFFFFFFFFFFFFFFFFFFFFFFFFFFFFFFFFFFFF AND EQ DUP1 PUSH2 0x226 JUMPI POP PUSH1 0x3 PUSH0 SWAP1 SLOAD SWAP1 PUSH2 0x100 EXP SWAP1 DIV PUSH20 0xFFFFFFFFFFFFFFFFFFFFFFFFFFFFFFFFFFFFFFFF AND PUSH20 0xFFFFFFFFFFFFFFFFFFFFFFFFFFFFFFFFFFFFFFFF AND CALLER PUSH20 0xFFFFFFFFFFFFFFFFFFFFFFFFFFFFFFFFFFFFFFFF AND EQ JUMPDEST PUSH2 0x265 JUMPI PUSH1 0x40 MLOAD PUSH32 0x8C379A000000000000000000000000000000000000000000000000000000000 DUP2 MSTORE PUSH1 0x4 ADD PUSH2 0x25C SWAP1 PUSH2 0x79F JUMP JUMPDEST PUSH1 0x40 MLOAD DUP1 SWAP2 SUB SWAP1 REVERT JUMPDEST DUP2 PUSH0 DUP1 SLOAD SWAP1 PUSH2 0x100 EXP SWAP1 DIV PUSH20 0xFFFFFFFFFFFFFFFFFFFFFFFFFFFFFFFFFFFFFFFF AND PUSH20 0xFFFFFFFFFFFFFFFFFFFFFFFFFFFFFFFFFFFFFFFF AND PUSH4 0xDD62ED3E PUSH1 0x1 PUSH0 SWAP1 SLOAD SWAP1 PUSH2 0x100 EXP SWAP1 DIV PUSH20 0xFFFFFFFFFFFFFFFFFFFFFFFFFFFFFFFFFFFFFFFF AND ADDRESS PUSH1 0x40 MLOAD DUP4 PUSH4 0xFFFFFFFF AND PUSH1 0xE0 SHL DUP2 MSTORE PUSH1 0x4 ADD PUSH2 0x2E1 SWAP3 SWAP2 SWAP1 PUSH2 0x7BD JUMP JUMPDEST PUSH1 0x20 PUSH1 0x40 MLOAD DUP1 DUP4 SUB DUP2 DUP7 GAS STATICCALL ISZERO DUP1 ISZERO PUSH2 0x2FC JUMPI RETURNDATASIZE PUSH0 DUP1 RETURNDATACOPY RETURNDATASIZE PUSH0 REVERT JUMPDEST POP POP POP POP PUSH1 0x40 MLOAD RETURNDATASIZE PUSH1 0x1F NOT PUSH1 0x1F DUP3 ADD AND DUP3 ADD DUP1 PUSH1 0x40 MSTORE POP DUP2 ADD SWAP1 PUSH2 0x320 SWAP2 SWAP1 PUSH2 0x7F8 JUMP JUMPDEST LT ISZERO PUSH2 0x361 JUMPI PUSH1 0x40 MLOAD PUSH32 0x8C379A000000000000000000000000000000000000000000000000000000000 DUP2 MSTORE PUSH1 0x4 ADD PUSH2 0x358 SWAP1 PUSH2 0x86D JUMP JUMPDEST PUSH1 0x40 MLOAD DUP1 SWAP2 SUB SWAP1 REVERT JUMPDEST DUP1 PUSH0 DUP1 SLOAD SWAP1 PUSH2 0x100 EXP SWAP1 DIV PUSH20 0xFFFFFFFFFFFFFFFFFFFFFFFFFFFFFFFFFFFFFFFF AND PUSH20 0xFFFFFFFFFFFFFFFFFFFFFFFFFFFFFFFFFFFFFFFF AND PUSH4 0xDD62ED3E PUSH1 0x3 PUSH0 SWAP1 SLOAD SWAP1 PUSH2 0x100 EXP SWAP1 DIV PUSH20 0xFFFFFFFFFFFFFFFFFFFFFFFFFFFFFFFFFFFFFFFF AND ADDRESS PUSH1 0x40 MLOAD DUP4 PUSH4 0xFFFFFFFF AND PUSH1 0xE0 SHL DUP2 MSTORE PUSH1 0x4 ADD PUSH2 0x3DD SWAP3 SWAP2 SWAP1 PUSH2 0x7BD JUMP JUMPDEST PUSH1 0x20 PUSH1 0x40 MLOAD DUP1 DUP4 SUB DUP2 DUP7 GAS STATICCALL ISZERO DUP1 ISZERO PUSH2 0x3F8 JUMPI RETURNDATASIZE PUSH0 DUP1 RETURNDATACOPY RETURNDATASIZE PUSH0 REVERT JUMPDEST POP POP POP POP PUSH1 0x40 MLOAD RETURNDATASIZE PUSH1 0x1F NOT PUSH1 0x1F DUP3 ADD AND DUP3 ADD DUP1 PUSH1 0x40 MSTORE POP DUP2 ADD SWAP1 PUSH2 0x41C SWAP2 SWAP1 PUSH2 0x7F8 JUMP JUMPDEST LT ISZERO PUSH2 0x45D JUMPI PUSH1 0x40 MLOAD PUSH32 0x8C379A000000000000000000000000000000000000000000000000000000000 DUP2 MSTORE PUSH1 0x4 ADD PUSH2 0x454 SWAP1 PUSH2 0x8D5 JUMP JUMPDEST PUSH1 0x40 MLOAD DUP1 SWAP2 SUB SWAP1 REVERT JUMPDEST PUSH2 0x4CA PUSH0 DUP1 SLOAD SWAP1 PUSH2 0x100 EXP SWAP1 DIV PUSH20 0xFFFFFFFFFFFFFFFFFFFFFFFFFFFFFFFFFFFFFFFF AND PUSH1 0x1 PUSH0 SWAP1 SLOAD SWAP1 PUSH2 0x100 EXP SWAP1 DIV PUSH20 0xFFFFFFFFFFFFFFFFFFFFFFFFFFFFFFFFFFFFFFFF AND PUSH1 0x3 PUSH0 SWAP1 SLOAD SWAP1 PUSH2 0x100 EXP SWAP1 DIV PUSH20 0xFFFFFFFFFFFFFFFFFFFFFFFFFFFFFFFFFFFFFFFF AND DUP6 PUSH2 0x53D JUMP JUMPDEST PUSH2 0x539 PUSH1 0x2 PUSH0 SWAP1 SLOAD SWAP1 PUSH2 0x100 EXP SWAP1 DIV PUSH20 0xFFFFFFFFFFFFFFFFFFFFFFFFFFFFFFFFFFFFFFFF AND PUSH1 0x3 PUSH0 SWAP1 SLOAD SWAP1 PUSH2 0x100 EXP SWAP1 DIV PUSH20 0xFFFFFFFFFFFFFFFFFFFFFFFFFFFFFFFFFFFFFFFF AND PUSH1 0x1 PUSH0 SWAP1 SLOAD SWAP1 PUSH2 0x100 EXP SWAP1 DIV PUSH20 0xFFFFFFFFFFFFFFFFFFFFFFFFFFFFFFFFFFFFFFFF AND DUP5 PUSH2 0x53D JUMP JUMPDEST POP POP JUMP JUMPDEST PUSH0 DUP5 PUSH20 0xFFFFFFFFFFFFFFFFFFFFFFFFFFFFFFFFFFFFFFFF AND PUSH4 0x23B872DD DUP6 DUP6 DUP6 PUSH1 0x40 MLOAD DUP5 PUSH4 0xFFFFFFFF AND PUSH1 0xE0 SHL DUP2 MSTORE PUSH1 0x4 ADD PUSH2 0x57B SWAP4 SWAP3 SWAP2 SWAP1 PUSH2 0x902 JUMP JUMPDEST PUSH1 0x20 PUSH1 0x40 MLOAD DUP1 DUP4 SUB DUP2 PUSH0 DUP8 GAS CALL ISZERO DUP1 ISZERO PUSH2 0x597 JUMPI RETURNDATASIZE PUSH0 DUP1 RETURNDATACOPY RETURNDATASIZE PUSH0 REVERT JUMPDEST POP POP POP POP PUSH1 0x40 MLOAD RETURNDATASIZE PUSH1 0x1F NOT PUSH1 0x1F DUP3 ADD AND DUP3 ADD DUP1 PUSH1 0x40 MSTORE POP DUP2 ADD SWAP1 PUSH2 0x5BB SWAP2 SWAP1 PUSH2 0x96C JUMP JUMPDEST SWAP1 POP DUP1 PUSH2 0x5FD JUMPI PUSH1 0x40 MLOAD PUSH32 0x8C379A000000000000000000000000000000000000000000000000000000000 DUP2 MSTORE PUSH1 0x4 ADD PUSH2 0x5F4 SWAP1 PUSH2 0x9E1 JUMP JUMPDEST PUSH1 0x40 MLOAD DUP1 SWAP2 SUB SWAP1 REVERT JUMPDEST POP POP POP POP POP JUMP JUMPDEST PUSH0 PUSH20 0xFFFFFFFFFFFFFFFFFFFFFFFFFFFFFFFFFFFFFFFF DUP3 AND SWAP1 POP SWAP2 SWAP1 POP JUMP JUMPDEST PUSH0 DUP2 SWAP1 POP SWAP2 SWAP1 POP JUMP JUMPDEST PUSH0 PUSH2 0x646 PUSH2 0x641 PUSH2 0x63C DUP5 PUSH2 0x604 JUMP JUMPDEST PUSH2 0x623 JUMP JUMPDEST PUSH2 0x604 JUMP JUMPDEST SWAP1 POP SWAP2 SWAP1 POP JUMP JUMPDEST PUSH0 PUSH2 0x657 DUP3 PUSH2 0x62C JUMP JUMPDEST SWAP1 POP SWAP2 SWAP1 POP JUMP JUMPDEST PUSH0 PUSH2 0x668 DUP3 PUSH2 0x64D JUMP JUMPDEST SWAP1 POP SWAP2 SWAP1 POP JUMP JUMPDEST PUSH2 0x678 DUP2 PUSH2 0x65E JUMP JUMPDEST DUP3 MSTORE POP POP JUMP JUMPDEST PUSH0 PUSH1 0x20 DUP3 ADD SWAP1 POP PUSH2 0x691 PUSH0 DUP4 ADD DUP5 PUSH2 0x66F JUMP JUMPDEST SWAP3 SWAP2 POP POP JUMP JUMPDEST PUSH0 PUSH2 0x6A1 DUP3 PUSH2 0x604 JUMP JUMPDEST SWAP1 POP SWAP2 SWAP1 POP JUMP JUMPDEST PUSH2 0x6B1 DUP2 PUSH2 0x697 JUMP JUMPDEST DUP3 MSTORE POP POP JUMP JUMPDEST PUSH0 PUSH1 0x20 DUP3 ADD SWAP1 POP PUSH2 0x6CA PUSH0 DUP4 ADD DUP5 PUSH2 0x6A8 JUMP JUMPDEST SWAP3 SWAP2 POP POP JUMP JUMPDEST PUSH0 DUP1 REVERT JUMPDEST PUSH0 DUP2 SWAP1 POP SWAP2 SWAP1 POP JUMP JUMPDEST PUSH2 0x6E6 DUP2 PUSH2 0x6D4 JUMP JUMPDEST DUP2 EQ PUSH2 0x6F0 JUMPI PUSH0 DUP1 REVERT JUMPDEST POP JUMP JUMPDEST PUSH0 DUP2 CALLDATALOAD SWAP1 POP PUSH2 0x701 DUP2 PUSH2 0x6DD JUMP JUMPDEST SWAP3 SWAP2 POP POP JUMP JUMPDEST PUSH0 DUP1 PUSH1 0x40 DUP4 DUP6 SUB SLT ISZERO PUSH2 0x71D JUMPI PUSH2 0x71C PUSH2 0x6D0 JUMP JUMPDEST JUMPDEST PUSH0 PUSH2 0x72A DUP6 DUP3 DUP7 ADD PUSH2 0x6F3 JUMP JUMPDEST SWAP3 POP POP PUSH1 0x20 PUSH2 0x73B DUP6 DUP3 DUP7 ADD PUSH2 0x6F3 JUMP JUMPDEST SWAP2 POP POP SWAP3 POP SWAP3 SWAP1 POP JUMP JUMPDEST PUSH0 DUP3 DUP3 MSTORE PUSH1 0x20 DUP3 ADD SWAP1 POP SWAP3 SWAP2 POP POP JUMP JUMPDEST PUSH32 0x4E6F7420617574686F72697A6564000000000000000000000000000000000000 PUSH0 DUP3 ADD MSTORE POP JUMP JUMPDEST PUSH0 PUSH2 0x789 PUSH1 0xE DUP4 PUSH2 0x745 JUMP JUMPDEST SWAP2 POP PUSH2 0x794 DUP3 PUSH2 0x755 JUMP JUMPDEST PUSH1 0x20 DUP3 ADD SWAP1 POP SWAP2 SWAP1 POP JUMP JUMPDEST PUSH0 PUSH1 0x20 DUP3 ADD SWAP1 POP DUP2 DUP2 SUB PUSH0 DUP4 ADD MSTORE PUSH2 0x7B6 DUP2 PUSH2 0x77D JUMP JUMPDEST SWAP1 POP SWAP2 SWAP1 POP JUMP JUMPDEST PUSH0 PUSH1 0x40 DUP3 ADD SWAP1 POP PUSH2 0x7D0 PUSH0 DUP4 ADD DUP6 PUSH2 0x6A8 JUMP JUMPDEST PUSH2 0x7DD PUSH1 0x20 DUP4 ADD DUP5 PUSH2 0x6A8 JUMP JUMPDEST SWAP4 SWAP3 POP POP POP JUMP JUMPDEST PUSH0 DUP2 MLOAD SWAP1 POP PUSH2 0x7F2 DUP2 PUSH2 0x6DD JUMP JUMPDEST SWAP3 SWAP2 POP POP JUMP JUMPDEST PUSH0 PUSH1 0x20 DUP3 DUP5 SUB SLT ISZERO PUSH2 0x80D JUMPI PUSH2 0x80C PUSH2 0x6D0 JUMP JUMPDEST JUMPDEST PUSH0 PUSH2 0x81A DUP5 DUP3 DUP6 ADD PUSH2 0x7E4 JUMP JUMPDEST SWAP2 POP POP SWAP3 SWAP2 POP POP JUMP JUMPDEST PUSH32 0x546F6B656E203120616C6C6F77616E636520746F206C6F770000000000000000 PUSH0 DUP3 ADD MSTORE POP JUMP JUMPDEST PUSH0 PUSH2 0x857 PUSH1 0x18 DUP4 PUSH2 0x745 JUMP JUMPDEST SWAP2 POP PUSH2 0x862 DUP3 PUSH2 0x823 JUMP JUMPDEST PUSH1 0x20 DUP3 ADD SWAP1 POP SWAP2 SWAP1 POP JUMP JUMPDEST PUSH0 PUSH1 0x20 DUP3 ADD SWAP1 POP DUP2 DUP2 SUB PUSH0 DUP4 ADD MSTORE PUSH2 0x884 DUP2 PUSH2 0x84B JUMP JUMPDEST SWAP1 POP SWAP2 SWAP1 POP JUMP JUMPDEST PUSH32 0x546F6B656E203220616C6C6F77616E636520746F206C6F770000000000000000 PUSH0 DUP3 ADD MSTORE POP JUMP JUMPDEST PUSH0 PUSH2 0x8BF PUSH1 0x18 DUP4 PUSH2 0x745 JUMP JUMPDEST SWAP2 POP PUSH2 0x8CA DUP3 PUSH2 0x88B JUMP JUMPDEST PUSH1 0x20 DUP3 ADD SWAP1 POP SWAP2 SWAP1 POP JUMP JUMPDEST PUSH0 PUSH1 0x20 DUP3 ADD SWAP1 POP DUP2 DUP2 SUB PUSH0 DUP4 ADD MSTORE PUSH2 0x8EC DUP2 PUSH2 0x8B3 JUMP JUMPDEST SWAP1 POP SWAP2 SWAP1 POP JUMP JUMPDEST PUSH2 0x8FC DUP2 PUSH2 0x6D4 JUMP JUMPDEST DUP3 MSTORE POP POP JUMP JUMPDEST PUSH0 PUSH1 0x60 DUP3 ADD SWAP1 POP PUSH2 0x915 PUSH0 DUP4 ADD DUP7 PUSH2 0x6A8 JUMP JUMPDEST PUSH2 0x922 PUSH1 0x20 DUP4 ADD DUP6 PUSH2 0x6A8 JUMP JUMPDEST PUSH2 0x92F PUSH1 0x40 DUP4 ADD DUP5 PUSH2 0x8F3 JUMP JUMPDEST SWAP5 SWAP4 POP POP POP POP JUMP JUMPDEST PUSH0 DUP2 ISZERO ISZERO SWAP1 POP SWAP2 SWAP1 POP JUMP JUMPDEST PUSH2 0x94B DUP2 PUSH2 0x937 JUMP JUMPDEST DUP2 EQ PUSH2 0x955 JUMPI PUSH0 DUP1 REVERT JUMPDEST POP JUMP JUMPDEST PUSH0 DUP2 MLOAD SWAP1 POP PUSH2 0x966 DUP2 PUSH2 0x942 JUMP JUMPDEST SWAP3 SWAP2 POP POP JUMP JUMPDEST PUSH0 PUSH1 0x20 DUP3 DUP5 SUB SLT ISZERO PUSH2 0x981 JUMPI PUSH2 0x980 PUSH2 0x6D0 JUMP JUMPDEST JUMPDEST PUSH0 PUSH2 0x98E DUP5 DUP3 DUP6 ADD PUSH2 0x958 JUMP JUMPDEST SWAP2 POP POP SWAP3 SWAP2 POP POP JUMP JUMPDEST PUSH32 0x546F6B656E207472616E73666572206661696C65640000000000000000000000 PUSH0 DUP3 ADD MSTORE POP JUMP JUMPDEST PUSH0 PUSH2 0x9CB PUSH1 0x15 DUP4 PUSH2 0x745 JUMP JUMPDEST SWAP2 POP PUSH2 0x9D6 DUP3 PUSH2 0x997 JUMP JUMPDEST PUSH1 0x20 DUP3 ADD SWAP1 POP SWAP2 SWAP1 POP JUMP JUMPDEST PUSH0 PUSH1 0x20 DUP3 ADD SWAP1 POP DUP2 DUP2 SUB PUSH0 DUP4 ADD MSTORE PUSH2 0x9F8 DUP2 PUSH2 0x9BF JUMP JUMPDEST SWAP1 POP SWAP2 SWAP1 POP JUMP INVALID LOG2 PUSH5 0x6970667358 0x22 SLT KECCAK256 CALL 0xB9 0xBB CREATE2 PUSH22 0xA33C3ABB53E2814E8D21AECD23FC5CD0C964FE974D14 PUSH1 0xD9 ADDRESS PUSH2 0xAD64 PUSH20 0x6F6C634300081900330000000000000000000000 "
				},
				"gasEstimates": {
					"creation": {
						"codeDepositCost": "522600",
						"executionCost": "infinite",
						"totalCost": "infinite"
					},
					"external": {
						"owner1()": "2530",
						"owner2()": "2508",
						"swap(uint256,uint256)": "infinite",
						"token1()": "infinite",
						"token2()": "infinite"
					},
					"internal": {
						"_saferTransferFrom(contract IERC20,address,address,uint256)": "infinite"
					}
				},
				"methodIdentifiers": {
					"owner1()": "73688914",
					"owner2()": "52709725",
					"swap(uint256,uint256)": "d96073cf",
					"token1()": "d21220a7",
					"token2()": "25be124e"
				}
			},
			"storageLayout": {
				"storage": [
					{
						"astId": 5,
						"contract": "contracts/TokenSwap.sol:TokenSwap",
						"label": "token1",
						"offset": 0,
						"slot": "0",
						"type": "t_contract(IERC20)213"
					},
					{
						"astId": 7,
						"contract": "contracts/TokenSwap.sol:TokenSwap",
						"label": "owner1",
						"offset": 0,
						"slot": "1",
						"type": "t_address"
					},
					{
						"astId": 10,
						"contract": "contracts/TokenSwap.sol:TokenSwap",
						"label": "token2",
						"offset": 0,
						"slot": "2",
						"type": "t_contract(IERC20)213"
					},
					{
						"astId": 12,
						"contract": "contracts/TokenSwap.sol:TokenSwap",
						"label": "owner2",
						"offset": 0,
						"slot": "3",
						"type": "t_address"
					}
				],
				"types": {
					"t_address": {
						"encoding": "inplace",
						"label": "address",
						"numberOfBytes": "20"
					},
					"t_contract(IERC20)213": {
						"encoding": "inplace",
						"label": "contract IERC20",
						"numberOfBytes": "20"
					}
				}
			},
			"userdoc": {
				"kind": "user",
				"methods": {},
				"version": 1
			}
		}
	}
}