{
	"contracts/FundMe.sol": {
		"BDTFundMe": {
			"abi": [
				{
					"inputs": [],
					"stateMutability": "nonpayable",
					"type": "constructor"
				},
				{
					"inputs": [],
					"name": "Fund",
					"outputs": [],
					"stateMutability": "payable",
					"type": "function"
				},
				{
					"inputs": [
						{
							"internalType": "address",
							"name": "",
							"type": "address"
						}
					],
					"name": "addressToAmountFunded",
					"outputs": [
						{
							"internalType": "uint256",
							"name": "",
							"type": "uint256"
						}
					],
					"stateMutability": "view",
					"type": "function"
				},
				{
					"inputs": [
						{
							"internalType": "uint256",
							"name": "",
							"type": "uint256"
						}
					],
					"name": "funders",
					"outputs": [
						{
							"internalType": "address",
							"name": "",
							"type": "address"
						}
					],
					"stateMutability": "view",
					"type": "function"
				},
				{
					"inputs": [
						{
							"internalType": "uint256",
							"name": "ethAmount",
							"type": "uint256"
						}
					],
					"name": "getConversionRate",
					"outputs": [
						{
							"internalType": "uint256",
							"name": "",
							"type": "uint256"
						}
					],
					"stateMutability": "view",
					"type": "function"
				},
				{
					"inputs": [],
					"name": "getPrice",
					"outputs": [
						{
							"internalType": "uint256",
							"name": "",
							"type": "uint256"
						}
					],
					"stateMutability": "view",
					"type": "function"
				},
				{
					"inputs": [],
					"name": "getVersion",
					"outputs": [
						{
							"internalType": "uint256",
							"name": "",
							"type": "uint256"
						}
					],
					"stateMutability": "view",
					"type": "function"
				},
				{
					"inputs": [],
					"name": "owner",
					"outputs": [
						{
							"internalType": "address",
							"name": "",
							"type": "address"
						}
					],
					"stateMutability": "view",
					"type": "function"
				},
				{
					"inputs": [],
					"name": "withdraw",
					"outputs": [],
					"stateMutability": "payable",
					"type": "function"
				}
			],
			"devdoc": {
				"kind": "dev",
				"methods": {},
				"version": 1
			},
			"evm": {
				"assembly": "    /* \"contracts/FundMe.sol\":542:5347  contract BDTFundMe{//PNB: So here now we can fund a certain account, i.e. 'addressToAmountFunded' with our GWEI value... */\n  mstore(0x40, 0x80)\n    /* \"contracts/FundMe.sol\":783:919  constructor () {... */\n  callvalue\n  dup1\n  iszero\n  tag_1\n  jumpi\n  0x00\n  dup1\n  revert\ntag_1:\n  pop\n    /* \"contracts/FundMe.sol\":812:822  msg.sender */\n  caller\n    /* \"contracts/FundMe.sol\":804:809  owner */\n  0x02\n  0x00\n    /* \"contracts/FundMe.sol\":804:822  owner = msg.sender */\n  0x0100\n  exp\n  dup2\n  sload\n  dup2\n  0xffffffffffffffffffffffffffffffffffffffff\n  mul\n  not\n  and\n  swap1\n  dup4\n  0xffffffffffffffffffffffffffffffffffffffff\n  and\n  mul\n  or\n  swap1\n  sstore\n  pop\n    /* \"contracts/FundMe.sol\":542:5347  contract BDTFundMe{//PNB: So here now we can fund a certain account, i.e. 'addressToAmountFunded' with our GWEI value... */\n  dataSize(sub_0)\n  dup1\n  dataOffset(sub_0)\n  0x00\n  codecopy\n  0x00\n  return\nstop\n\nsub_0: assembly {\n        /* \"contracts/FundMe.sol\":542:5347  contract BDTFundMe{//PNB: So here now we can fund a certain account, i.e. 'addressToAmountFunded' with our GWEI value... */\n      mstore(0x40, 0x80)\n      jumpi(tag_1, lt(calldatasize, 0x04))\n      shr(0xe0, calldataload(0x00))\n      dup1\n      0x6e5b6b28\n      gt\n      tag_10\n      jumpi\n      dup1\n      0x6e5b6b28\n      eq\n      tag_6\n      jumpi\n      dup1\n      0x8da5cb5b\n      eq\n      tag_7\n      jumpi\n      dup1\n      0x98d5fdca\n      eq\n      tag_8\n      jumpi\n      dup1\n      0xdc0d3dff\n      eq\n      tag_9\n      jumpi\n      jump(tag_1)\n    tag_10:\n      dup1\n      0x0d8e6e2c\n      eq\n      tag_2\n      jumpi\n      dup1\n      0x3ccfd60b\n      eq\n      tag_3\n      jumpi\n      dup1\n      0x3e47d6f3\n      eq\n      tag_4\n      jumpi\n      dup1\n      0x6ce1417e\n      eq\n      tag_5\n      jumpi\n    tag_1:\n      0x00\n      dup1\n      revert\n        /* \"contracts/FundMe.sol\":3012:3513  function getVersion() public view returns (uint256){//this function calls the 'version()' function defined in the 'AggregatorV3Interface' contract... */\n    tag_2:\n      callvalue\n      dup1\n      iszero\n      tag_11\n      jumpi\n      0x00\n      dup1\n      revert\n    tag_11:\n      pop\n      tag_12\n      tag_13\n      jump\t// in\n    tag_12:\n      mload(0x40)\n      tag_14\n      swap2\n      swap1\n      tag_15\n      jump\t// in\n    tag_14:\n      mload(0x40)\n      dup1\n      swap2\n      sub\n      swap1\n      return\n        /* \"contracts/FundMe.sol\":2105:3006  function withdraw() public onlyOwner payable {// to withdraw ETH funds from an address/account... */\n    tag_3:\n      tag_16\n      tag_17\n      jump\t// in\n    tag_16:\n      stop\n        /* \"contracts/FundMe.sol\":664:720  mapping(address => uint256) public addressToAmountFunded */\n    tag_4:\n      callvalue\n      dup1\n      iszero\n      tag_18\n      jumpi\n      0x00\n      dup1\n      revert\n    tag_18:\n      pop\n      tag_19\n      0x04\n      dup1\n      calldatasize\n      sub\n      dup2\n      add\n      swap1\n      tag_20\n      swap2\n      swap1\n      tag_21\n      jump\t// in\n    tag_20:\n      tag_22\n      jump\t// in\n    tag_19:\n      mload(0x40)\n      tag_23\n      swap2\n      swap1\n      tag_15\n      jump\t// in\n    tag_23:\n      mload(0x40)\n      dup1\n      swap2\n      sub\n      swap1\n      return\n        /* \"contracts/FundMe.sol\":925:1731  function Fund () public payable {//to send ETH funds to an address/account... */\n    tag_5:\n      tag_24\n      tag_25\n      jump\t// in\n    tag_24:\n      stop\n        /* \"contracts/FundMe.sol\":4816:5345  function getConversionRate(uint256 ethAmount) public view returns (uint256){//to convert the amount sent to USD... */\n    tag_6:\n      callvalue\n      dup1\n      iszero\n      tag_26\n      jumpi\n      0x00\n      dup1\n      revert\n    tag_26:\n      pop\n      tag_27\n      0x04\n      dup1\n      calldatasize\n      sub\n      dup2\n      add\n      swap1\n      tag_28\n      swap2\n      swap1\n      tag_29\n      jump\t// in\n    tag_28:\n      tag_30\n      jump\t// in\n    tag_27:\n      mload(0x40)\n      tag_31\n      swap2\n      swap1\n      tag_15\n      jump\t// in\n    tag_31:\n      mload(0x40)\n      dup1\n      swap2\n      sub\n      swap1\n      return\n        /* \"contracts/FundMe.sol\":756:776  address public owner */\n    tag_7:\n      callvalue\n      dup1\n      iszero\n      tag_32\n      jumpi\n      0x00\n      dup1\n      revert\n    tag_32:\n      pop\n      tag_33\n      tag_34\n      jump\t// in\n    tag_33:\n      mload(0x40)\n      tag_35\n      swap2\n      swap1\n      tag_36\n      jump\t// in\n    tag_35:\n      mload(0x40)\n      dup1\n      swap2\n      sub\n      swap1\n      return\n        /* \"contracts/FundMe.sol\":3519:4751  function getPrice() public view returns (uint256){//this function calls the 'latestRoundData()' function defined in the 'AggregatorV3Interface' contract... */\n    tag_8:\n      callvalue\n      dup1\n      iszero\n      tag_37\n      jumpi\n      0x00\n      dup1\n      revert\n    tag_37:\n      pop\n      tag_38\n      tag_39\n      jump\t// in\n    tag_38:\n      mload(0x40)\n      tag_40\n      swap2\n      swap1\n      tag_15\n      jump\t// in\n    tag_40:\n      mload(0x40)\n      dup1\n      swap2\n      sub\n      swap1\n      return\n        /* \"contracts/FundMe.sol\":726:750  address[] public funders */\n    tag_9:\n      callvalue\n      dup1\n      iszero\n      tag_41\n      jumpi\n      0x00\n      dup1\n      revert\n    tag_41:\n      pop\n      tag_42\n      0x04\n      dup1\n      calldatasize\n      sub\n      dup2\n      add\n      swap1\n      tag_43\n      swap2\n      swap1\n      tag_29\n      jump\t// in\n    tag_43:\n      tag_44\n      jump\t// in\n    tag_42:\n      mload(0x40)\n      tag_45\n      swap2\n      swap1\n      tag_36\n      jump\t// in\n    tag_45:\n      mload(0x40)\n      dup1\n      swap2\n      sub\n      swap1\n      return\n        /* \"contracts/FundMe.sol\":3012:3513  function getVersion() public view returns (uint256){//this function calls the 'version()' function defined in the 'AggregatorV3Interface' contract... */\n    tag_13:\n        /* \"contracts/FundMe.sol\":3055:3062  uint256 */\n      0x00\n        /* \"contracts/FundMe.sol\":3167:3198  AggregatorV3Interface priceFeed */\n      dup1\n        /* \"contracts/FundMe.sol\":3223:3265  0xc630c6bFF4d198F30d9Ab86F89FB83F0bc3fb948 */\n      0xc630c6bff4d198f30d9ab86f89fb83f0bc3fb948\n        /* \"contracts/FundMe.sol\":3167:3266  AggregatorV3Interface priceFeed = AggregatorV3Interface(0xc630c6bFF4d198F30d9Ab86F89FB83F0bc3fb948) */\n      swap1\n      pop\n        /* \"contracts/FundMe.sol\":3487:3496  priceFeed */\n      dup1\n        /* \"contracts/FundMe.sol\":3487:3504  priceFeed.version */\n      0xffffffffffffffffffffffffffffffffffffffff\n      and\n      0x54fd4d50\n        /* \"contracts/FundMe.sol\":3487:3506  priceFeed.version() */\n      mload(0x40)\n      dup2\n      0xffffffff\n      and\n      0xe0\n      shl\n      dup2\n      mstore\n      0x04\n      add\n      0x20\n      mload(0x40)\n      dup1\n      dup4\n      sub\n      dup2\n      dup7\n      gas\n      staticcall\n      iszero\n      dup1\n      iszero\n      tag_48\n      jumpi\n      returndatasize\n      0x00\n      dup1\n      returndatacopy\n      revert(0x00, returndatasize)\n    tag_48:\n      pop\n      pop\n      pop\n      pop\n      mload(0x40)\n      returndatasize\n      not(0x1f)\n      0x1f\n      dup3\n      add\n      and\n      dup3\n      add\n      dup1\n      0x40\n      mstore\n      pop\n      dup2\n      add\n      swap1\n      tag_49\n      swap2\n      swap1\n      tag_50\n      jump\t// in\n    tag_49:\n        /* \"contracts/FundMe.sol\":3480:3506  return priceFeed.version() */\n      swap2\n      pop\n      pop\n        /* \"contracts/FundMe.sol\":3012:3513  function getVersion() public view returns (uint256){//this function calls the 'version()' function defined in the 'AggregatorV3Interface' contract... */\n      swap1\n      jump\t// out\n        /* \"contracts/FundMe.sol\":2105:3006  function withdraw() public onlyOwner payable {// to withdraw ETH funds from an address/account... */\n    tag_17:\n        /* \"contracts/FundMe.sol\":1911:1916  owner */\n      0x02\n      0x00\n      swap1\n      sload\n      swap1\n      0x0100\n      exp\n      swap1\n      div\n      0xffffffffffffffffffffffffffffffffffffffff\n      and\n        /* \"contracts/FundMe.sol\":1897:1916  msg.sender == owner */\n      0xffffffffffffffffffffffffffffffffffffffff\n      and\n        /* \"contracts/FundMe.sol\":1897:1907  msg.sender */\n      caller\n        /* \"contracts/FundMe.sol\":1897:1916  msg.sender == owner */\n      0xffffffffffffffffffffffffffffffffffffffff\n      and\n      eq\n        /* \"contracts/FundMe.sol\":1889:1917  require(msg.sender == owner) */\n      tag_52\n      jumpi\n      0x00\n      dup1\n      revert\n    tag_52:\n        /* \"contracts/FundMe.sol\":2453:2463  msg.sender */\n      caller\n        /* \"contracts/FundMe.sol\":2445:2473  payable(msg.sender).transfer */\n      0xffffffffffffffffffffffffffffffffffffffff\n      and\n        /* \"contracts/FundMe.sol\":2445:2496  payable(msg.sender).transfer(address(this).balance) */\n      0x08fc\n        /* \"contracts/FundMe.sol\":2474:2495  address(this).balance */\n      selfbalance\n        /* \"contracts/FundMe.sol\":2445:2496  payable(msg.sender).transfer(address(this).balance) */\n      swap1\n      dup2\n      iszero\n      mul\n      swap1\n      mload(0x40)\n      0x00\n      mload(0x40)\n      dup1\n      dup4\n      sub\n      dup2\n      dup6\n      dup9\n      dup9\n      call\n      swap4\n      pop\n      pop\n      pop\n      pop\n      iszero\n      dup1\n      iszero\n      tag_55\n      jumpi\n      returndatasize\n      0x00\n      dup1\n      returndatacopy\n      revert(0x00, returndatasize)\n    tag_55:\n      pop\n        /* \"contracts/FundMe.sol\":2625:2644  uint256 funderIndex */\n      0x00\n        /* \"contracts/FundMe.sol\":2621:2856  for(uint256 funderIndex=0; funderIndex < funders.length; funderIndex++){//setting amount to zero after withdrawing from funders... */\n    tag_56:\n        /* \"contracts/FundMe.sol\":2662:2669  funders */\n      0x01\n        /* \"contracts/FundMe.sol\":2662:2676  funders.length */\n      dup1\n      sload\n      swap1\n      pop\n        /* \"contracts/FundMe.sol\":2648:2659  funderIndex */\n      dup2\n        /* \"contracts/FundMe.sol\":2648:2676  funderIndex < funders.length */\n      lt\n        /* \"contracts/FundMe.sol\":2621:2856  for(uint256 funderIndex=0; funderIndex < funders.length; funderIndex++){//setting amount to zero after withdrawing from funders... */\n      iszero\n      tag_57\n      jumpi\n        /* \"contracts/FundMe.sol\":2761:2775  address funder */\n      0x00\n        /* \"contracts/FundMe.sol\":2778:2785  funders */\n      0x01\n        /* \"contracts/FundMe.sol\":2786:2797  funderIndex */\n      dup3\n        /* \"contracts/FundMe.sol\":2778:2798  funders[funderIndex] */\n      dup2\n      sload\n      dup2\n      lt\n      tag_59\n      jumpi\n      tag_60\n      tag_61\n      jump\t// in\n    tag_60:\n    tag_59:\n      swap1\n      0x00\n      mstore\n      keccak256(0x00, 0x20)\n      add\n      0x00\n      swap1\n      sload\n      swap1\n      0x0100\n      exp\n      swap1\n      div\n      0xffffffffffffffffffffffffffffffffffffffff\n      and\n        /* \"contracts/FundMe.sol\":2761:2798  address funder = funders[funderIndex] */\n      swap1\n      pop\n        /* \"contracts/FundMe.sol\":2844:2845  0 */\n      0x00\n        /* \"contracts/FundMe.sol\":2812:2833  addressToAmountFunded */\n      dup1\n        /* \"contracts/FundMe.sol\":2812:2841  addressToAmountFunded[funder] */\n      0x00\n        /* \"contracts/FundMe.sol\":2834:2840  funder */\n      dup4\n        /* \"contracts/FundMe.sol\":2812:2841  addressToAmountFunded[funder] */\n      0xffffffffffffffffffffffffffffffffffffffff\n      and\n      0xffffffffffffffffffffffffffffffffffffffff\n      and\n      dup2\n      mstore\n      0x20\n      add\n      swap1\n      dup2\n      mstore\n      0x20\n      add\n      0x00\n      keccak256\n        /* \"contracts/FundMe.sol\":2812:2845  addressToAmountFunded[funder] = 0 */\n      dup2\n      swap1\n      sstore\n      pop\n        /* \"contracts/FundMe.sol\":2692:2856  {//setting amount to zero after withdrawing from funders... */\n      pop\n        /* \"contracts/FundMe.sol\":2678:2691  funderIndex++ */\n      dup1\n      dup1\n      tag_63\n      swap1\n      tag_64\n      jump\t// in\n    tag_63:\n      swap2\n      pop\n      pop\n        /* \"contracts/FundMe.sol\":2621:2856  for(uint256 funderIndex=0; funderIndex < funders.length; funderIndex++){//setting amount to zero after withdrawing from funders... */\n      jump(tag_56)\n    tag_57:\n      pop\n        /* \"contracts/FundMe.sol\":2889:2890  0 */\n      0x00\n        /* \"contracts/FundMe.sol\":2875:2891  new address[](0) */\n      0xffffffffffffffff\n      dup2\n      gt\n      iszero\n      tag_65\n      jumpi\n      tag_66\n      tag_67\n      jump\t// in\n    tag_66:\n    tag_65:\n      mload(0x40)\n      swap1\n      dup1\n      dup3\n      mstore\n      dup1\n      0x20\n      mul\n      0x20\n      add\n      dup3\n      add\n      0x40\n      mstore\n      dup1\n      iszero\n      tag_68\n      jumpi\n      dup2\n      0x20\n      add\n      0x20\n      dup3\n      mul\n      dup1\n      calldatasize\n      dup4\n      calldatacopy\n      dup1\n      dup3\n      add\n      swap2\n      pop\n      pop\n      swap1\n      pop\n    tag_68:\n      pop\n        /* \"contracts/FundMe.sol\":2865:2872  funders */\n      0x01\n        /* \"contracts/FundMe.sol\":2865:2891  funders = new address[](0) */\n      swap1\n      dup1\n      mload\n      swap1\n      0x20\n      add\n      swap1\n      tag_69\n      swap3\n      swap2\n      swap1\n      tag_70\n      jump\t// in\n    tag_69:\n      pop\n        /* \"contracts/FundMe.sol\":2105:3006  function withdraw() public onlyOwner payable {// to withdraw ETH funds from an address/account... */\n      jump\t// out\n        /* \"contracts/FundMe.sol\":664:720  mapping(address => uint256) public addressToAmountFunded */\n    tag_22:\n      mstore(0x20, 0x00)\n      dup1\n      0x00\n      mstore\n      keccak256(0x00, 0x40)\n      0x00\n      swap2\n      pop\n      swap1\n      pop\n      sload\n      dup2\n      jump\t// out\n        /* \"contracts/FundMe.sol\":925:1731  function Fund () public payable {//to send ETH funds to an address/account... */\n    tag_25:\n        /* \"contracts/FundMe.sol\":1069:1087  uint256 minimumUSD */\n      0x00\n        /* \"contracts/FundMe.sol\":1090:1103  0.03 * 10**18 */\n      0x6a94d74f430000\n        /* \"contracts/FundMe.sol\":1069:1103  uint256 minimumUSD = 0.03 * 10**18 */\n      swap1\n      pop\n        /* \"contracts/FundMe.sol\":1213:1223  minimumUSD */\n      dup1\n        /* \"contracts/FundMe.sol\":1181:1209  getConversionRate(msg.value) */\n      tag_72\n        /* \"contracts/FundMe.sol\":1199:1208  msg.value */\n      callvalue\n        /* \"contracts/FundMe.sol\":1181:1198  getConversionRate */\n      tag_30\n        /* \"contracts/FundMe.sol\":1181:1209  getConversionRate(msg.value) */\n      jump\t// in\n    tag_72:\n        /* \"contracts/FundMe.sol\":1181:1223  getConversionRate(msg.value) >= minimumUSD */\n      lt\n      iszero\n        /* \"contracts/FundMe.sol\":1173:1255  require(getConversionRate(msg.value) >= minimumUSD, \"You need to spend more ETH!\") */\n      tag_73\n      jumpi\n      mload(0x40)\n      0x08c379a000000000000000000000000000000000000000000000000000000000\n      dup2\n      mstore\n      0x04\n      add\n      tag_74\n      swap1\n      tag_75\n      jump\t// in\n    tag_74:\n      mload(0x40)\n      dup1\n      swap2\n      sub\n      swap1\n      revert\n    tag_73:\n        /* \"contracts/FundMe.sol\":1402:1411  msg.value */\n      callvalue\n        /* \"contracts/FundMe.sol\":1365:1386  addressToAmountFunded */\n      0x00\n        /* \"contracts/FundMe.sol\":1365:1398  addressToAmountFunded[msg.sender] */\n      dup1\n        /* \"contracts/FundMe.sol\":1387:1397  msg.sender */\n      caller\n        /* \"contracts/FundMe.sol\":1365:1398  addressToAmountFunded[msg.sender] */\n      0xffffffffffffffffffffffffffffffffffffffff\n      and\n      0xffffffffffffffffffffffffffffffffffffffff\n      and\n      dup2\n      mstore\n      0x20\n      add\n      swap1\n      dup2\n      mstore\n      0x20\n      add\n      0x00\n      keccak256\n      0x00\n        /* \"contracts/FundMe.sol\":1365:1411  addressToAmountFunded[msg.sender] += msg.value */\n      dup3\n      dup3\n      sload\n      tag_76\n      swap2\n      swap1\n      tag_77\n      jump\t// in\n    tag_76:\n      swap3\n      pop\n      pop\n      dup2\n      swap1\n      sstore\n      pop\n        /* \"contracts/FundMe.sol\":1421:1428  funders */\n      0x01\n        /* \"contracts/FundMe.sol\":1434:1444  msg.sender */\n      caller\n        /* \"contracts/FundMe.sol\":1421:1445  funders.push(msg.sender) */\n      swap1\n      dup1\n      0x01\n      dup2\n      sload\n      add\n      dup1\n      dup3\n      sstore\n      dup1\n      swap2\n      pop\n      pop\n      0x01\n      swap1\n      sub\n      swap1\n      0x00\n      mstore\n      keccak256(0x00, 0x20)\n      add\n      0x00\n      swap1\n      swap2\n      swap1\n      swap2\n      swap1\n      swap2\n      0x0100\n      exp\n      dup2\n      sload\n      dup2\n      0xffffffffffffffffffffffffffffffffffffffff\n      mul\n      not\n      and\n      swap1\n      dup4\n      0xffffffffffffffffffffffffffffffffffffffff\n      and\n      mul\n      or\n      swap1\n      sstore\n      pop\n        /* \"contracts/FundMe.sol\":957:1731  {//to send ETH funds to an address/account... */\n      pop\n        /* \"contracts/FundMe.sol\":925:1731  function Fund () public payable {//to send ETH funds to an address/account... */\n      jump\t// out\n        /* \"contracts/FundMe.sol\":4816:5345  function getConversionRate(uint256 ethAmount) public view returns (uint256){//to convert the amount sent to USD... */\n    tag_30:\n        /* \"contracts/FundMe.sol\":4883:4890  uint256 */\n      0x00\n        /* \"contracts/FundMe.sol\":4932:4948  uint256 ethPrice */\n      dup1\n        /* \"contracts/FundMe.sol\":4951:4961  getPrice() */\n      tag_80\n        /* \"contracts/FundMe.sol\":4951:4959  getPrice */\n      tag_39\n        /* \"contracts/FundMe.sol\":4951:4961  getPrice() */\n      jump\t// in\n    tag_80:\n        /* \"contracts/FundMe.sol\":4932:4961  uint256 ethPrice = getPrice() */\n      swap1\n      pop\n        /* \"contracts/FundMe.sol\":4967:4989  uint256 ethAmountInUsd */\n      0x00\n        /* \"contracts/FundMe.sol\":5015:5020  10E18 */\n      0x8ac7230489e80000\n        /* \"contracts/FundMe.sol\":5004:5013  ethAmount */\n      dup5\n        /* \"contracts/FundMe.sol\":4993:5001  ethPrice */\n      dup4\n        /* \"contracts/FundMe.sol\":4993:5013  ethPrice * ethAmount */\n      tag_81\n      swap2\n      swap1\n      tag_82\n      jump\t// in\n    tag_81:\n        /* \"contracts/FundMe.sol\":4992:5020  (ethPrice * ethAmount)/10E18 */\n      tag_83\n      swap2\n      swap1\n      tag_84\n      jump\t// in\n    tag_83:\n        /* \"contracts/FundMe.sol\":4967:5020  uint256 ethAmountInUsd = (ethPrice * ethAmount)/10E18 */\n      swap1\n      pop\n        /* \"contracts/FundMe.sol\":5139:5153  ethAmountInUsd */\n      dup1\n        /* \"contracts/FundMe.sol\":5132:5153  return ethAmountInUsd */\n      swap3\n      pop\n      pop\n      pop\n        /* \"contracts/FundMe.sol\":4816:5345  function getConversionRate(uint256 ethAmount) public view returns (uint256){//to convert the amount sent to USD... */\n      swap2\n      swap1\n      pop\n      jump\t// out\n        /* \"contracts/FundMe.sol\":756:776  address public owner */\n    tag_34:\n      0x02\n      0x00\n      swap1\n      sload\n      swap1\n      0x0100\n      exp\n      swap1\n      div\n      0xffffffffffffffffffffffffffffffffffffffff\n      and\n      dup2\n      jump\t// out\n        /* \"contracts/FundMe.sol\":3519:4751  function getPrice() public view returns (uint256){//this function calls the 'latestRoundData()' function defined in the 'AggregatorV3Interface' contract... */\n    tag_39:\n        /* \"contracts/FundMe.sol\":3560:3567  uint256 */\n      0x00\n        /* \"contracts/FundMe.sol\":3680:3711  AggregatorV3Interface priceFeed */\n      dup1\n        /* \"contracts/FundMe.sol\":3736:3778  0xc630c6bFF4d198F30d9Ab86F89FB83F0bc3fb948 */\n      0xc630c6bff4d198f30d9ab86f89fb83f0bc3fb948\n        /* \"contracts/FundMe.sol\":3680:3779  AggregatorV3Interface priceFeed = AggregatorV3Interface(0xc630c6bFF4d198F30d9Ab86F89FB83F0bc3fb948) */\n      swap1\n      pop\n        /* \"contracts/FundMe.sol\":4167:4180  int256 answer */\n      0x00\n        /* \"contracts/FundMe.sol\":4187:4196  priceFeed */\n      dup2\n        /* \"contracts/FundMe.sol\":4187:4212  priceFeed.latestRoundData */\n      0xffffffffffffffffffffffffffffffffffffffff\n      and\n      0xfeaf968c\n        /* \"contracts/FundMe.sol\":4187:4214  priceFeed.latestRoundData() */\n      mload(0x40)\n      dup2\n      0xffffffff\n      and\n      0xe0\n      shl\n      dup2\n      mstore\n      0x04\n      add\n      0xa0\n      mload(0x40)\n      dup1\n      dup4\n      sub\n      dup2\n      dup7\n      gas\n      staticcall\n      iszero\n      dup1\n      iszero\n      tag_87\n      jumpi\n      returndatasize\n      0x00\n      dup1\n      returndatacopy\n      revert(0x00, returndatasize)\n    tag_87:\n      pop\n      pop\n      pop\n      pop\n      mload(0x40)\n      returndatasize\n      not(0x1f)\n      0x1f\n      dup3\n      add\n      and\n      dup3\n      add\n      dup1\n      0x40\n      mstore\n      pop\n      dup2\n      add\n      swap1\n      tag_88\n      swap2\n      swap1\n      tag_89\n      jump\t// in\n    tag_88:\n        /* \"contracts/FundMe.sol\":4165:4214  (,int256 answer,,,) = priceFeed.latestRoundData() */\n      pop\n      pop\n      pop\n      swap2\n      pop\n      pop\n        /* \"contracts/FundMe.sol\":4655:4666  10000000000 */\n      0x02540be400\n        /* \"contracts/FundMe.sol\":4646:4652  answer */\n      dup2\n        /* \"contracts/FundMe.sol\":4646:4666  answer * 10000000000 */\n      tag_90\n      swap2\n      swap1\n      tag_91\n      jump\t// in\n    tag_90:\n        /* \"contracts/FundMe.sol\":4631:4667  return uint256(answer * 10000000000) */\n      swap3\n      pop\n      pop\n      pop\n        /* \"contracts/FundMe.sol\":3519:4751  function getPrice() public view returns (uint256){//this function calls the 'latestRoundData()' function defined in the 'AggregatorV3Interface' contract... */\n      swap1\n      jump\t// out\n        /* \"contracts/FundMe.sol\":726:750  address[] public funders */\n    tag_44:\n      0x01\n      dup2\n      dup2\n      sload\n      dup2\n      lt\n      tag_92\n      jumpi\n      0x00\n      dup1\n      revert\n    tag_92:\n      swap1\n      0x00\n      mstore\n      keccak256(0x00, 0x20)\n      add\n      0x00\n      swap2\n      pop\n      sload\n      swap1\n      0x0100\n      exp\n      swap1\n      div\n      0xffffffffffffffffffffffffffffffffffffffff\n      and\n      dup2\n      jump\t// out\n    tag_70:\n      dup3\n      dup1\n      sload\n      dup3\n      dup3\n      sstore\n      swap1\n      0x00\n      mstore\n      keccak256(0x00, 0x20)\n      swap1\n      dup2\n      add\n      swap3\n      dup3\n      iszero\n      tag_94\n      jumpi\n      swap2\n      0x20\n      mul\n      dup3\n      add\n    tag_95:\n      dup3\n      dup2\n      gt\n      iszero\n      tag_96\n      jumpi\n      dup3\n      mload\n      dup3\n      exp(0x0100, 0x00)\n      dup2\n      sload\n      dup2\n      0xffffffffffffffffffffffffffffffffffffffff\n      mul\n      not\n      and\n      swap1\n      dup4\n      0xffffffffffffffffffffffffffffffffffffffff\n      and\n      mul\n      or\n      swap1\n      sstore\n      pop\n      swap2\n      0x20\n      add\n      swap2\n      swap1\n      0x01\n      add\n      swap1\n      jump(tag_95)\n    tag_96:\n    tag_94:\n      pop\n      swap1\n      pop\n      tag_97\n      swap2\n      swap1\n      tag_98\n      jump\t// in\n    tag_97:\n      pop\n      swap1\n      jump\t// out\n    tag_98:\n    tag_99:\n      dup1\n      dup3\n      gt\n      iszero\n      tag_100\n      jumpi\n      0x00\n      dup2\n      0x00\n      swap1\n      sstore\n      pop\n      0x01\n      add\n      jump(tag_99)\n    tag_100:\n      pop\n      swap1\n      jump\t// out\n        /* \"#utility.yul\":7:84   */\n    tag_101:\n        /* \"#utility.yul\":44:51   */\n      0x00\n        /* \"#utility.yul\":73:78   */\n      dup2\n        /* \"#utility.yul\":62:78   */\n      swap1\n      pop\n        /* \"#utility.yul\":7:84   */\n      swap2\n      swap1\n      pop\n      jump\t// out\n        /* \"#utility.yul\":90:208   */\n    tag_102:\n        /* \"#utility.yul\":177:201   */\n      tag_128\n        /* \"#utility.yul\":195:200   */\n      dup2\n        /* \"#utility.yul\":177:201   */\n      tag_101\n      jump\t// in\n    tag_128:\n        /* \"#utility.yul\":172:175   */\n      dup3\n        /* \"#utility.yul\":165:202   */\n      mstore\n        /* \"#utility.yul\":90:208   */\n      pop\n      pop\n      jump\t// out\n        /* \"#utility.yul\":214:436   */\n    tag_15:\n        /* \"#utility.yul\":307:311   */\n      0x00\n        /* \"#utility.yul\":345:347   */\n      0x20\n        /* \"#utility.yul\":334:343   */\n      dup3\n        /* \"#utility.yul\":330:348   */\n      add\n        /* \"#utility.yul\":322:348   */\n      swap1\n      pop\n        /* \"#utility.yul\":358:429   */\n      tag_130\n        /* \"#utility.yul\":426:427   */\n      0x00\n        /* \"#utility.yul\":415:424   */\n      dup4\n        /* \"#utility.yul\":411:428   */\n      add\n        /* \"#utility.yul\":402:408   */\n      dup5\n        /* \"#utility.yul\":358:429   */\n      tag_102\n      jump\t// in\n    tag_130:\n        /* \"#utility.yul\":214:436   */\n      swap3\n      swap2\n      pop\n      pop\n      jump\t// out\n        /* \"#utility.yul\":523:640   */\n    tag_104:\n        /* \"#utility.yul\":632:633   */\n      0x00\n        /* \"#utility.yul\":629:630   */\n      dup1\n        /* \"#utility.yul\":622:634   */\n      revert\n        /* \"#utility.yul\":769:895   */\n    tag_106:\n        /* \"#utility.yul\":806:813   */\n      0x00\n        /* \"#utility.yul\":846:888   */\n      0xffffffffffffffffffffffffffffffffffffffff\n        /* \"#utility.yul\":839:844   */\n      dup3\n        /* \"#utility.yul\":835:889   */\n      and\n        /* \"#utility.yul\":824:889   */\n      swap1\n      pop\n        /* \"#utility.yul\":769:895   */\n      swap2\n      swap1\n      pop\n      jump\t// out\n        /* \"#utility.yul\":901:997   */\n    tag_107:\n        /* \"#utility.yul\":938:945   */\n      0x00\n        /* \"#utility.yul\":967:991   */\n      tag_136\n        /* \"#utility.yul\":985:990   */\n      dup3\n        /* \"#utility.yul\":967:991   */\n      tag_106\n      jump\t// in\n    tag_136:\n        /* \"#utility.yul\":956:991   */\n      swap1\n      pop\n        /* \"#utility.yul\":901:997   */\n      swap2\n      swap1\n      pop\n      jump\t// out\n        /* \"#utility.yul\":1003:1125   */\n    tag_108:\n        /* \"#utility.yul\":1076:1100   */\n      tag_138\n        /* \"#utility.yul\":1094:1099   */\n      dup2\n        /* \"#utility.yul\":1076:1100   */\n      tag_107\n      jump\t// in\n    tag_138:\n        /* \"#utility.yul\":1069:1074   */\n      dup2\n        /* \"#utility.yul\":1066:1101   */\n      eq\n        /* \"#utility.yul\":1056:1119   */\n      tag_139\n      jumpi\n        /* \"#utility.yul\":1115:1116   */\n      0x00\n        /* \"#utility.yul\":1112:1113   */\n      dup1\n        /* \"#utility.yul\":1105:1117   */\n      revert\n        /* \"#utility.yul\":1056:1119   */\n    tag_139:\n        /* \"#utility.yul\":1003:1125   */\n      pop\n      jump\t// out\n        /* \"#utility.yul\":1131:1270   */\n    tag_109:\n        /* \"#utility.yul\":1177:1182   */\n      0x00\n        /* \"#utility.yul\":1215:1221   */\n      dup2\n        /* \"#utility.yul\":1202:1222   */\n      calldataload\n        /* \"#utility.yul\":1193:1222   */\n      swap1\n      pop\n        /* \"#utility.yul\":1231:1264   */\n      tag_141\n        /* \"#utility.yul\":1258:1263   */\n      dup2\n        /* \"#utility.yul\":1231:1264   */\n      tag_108\n      jump\t// in\n    tag_141:\n        /* \"#utility.yul\":1131:1270   */\n      swap3\n      swap2\n      pop\n      pop\n      jump\t// out\n        /* \"#utility.yul\":1276:1605   */\n    tag_21:\n        /* \"#utility.yul\":1335:1341   */\n      0x00\n        /* \"#utility.yul\":1384:1386   */\n      0x20\n        /* \"#utility.yul\":1372:1381   */\n      dup3\n        /* \"#utility.yul\":1363:1370   */\n      dup5\n        /* \"#utility.yul\":1359:1382   */\n      sub\n        /* \"#utility.yul\":1355:1387   */\n      slt\n        /* \"#utility.yul\":1352:1471   */\n      iszero\n      tag_143\n      jumpi\n        /* \"#utility.yul\":1390:1469   */\n      tag_144\n      tag_104\n      jump\t// in\n    tag_144:\n        /* \"#utility.yul\":1352:1471   */\n    tag_143:\n        /* \"#utility.yul\":1510:1511   */\n      0x00\n        /* \"#utility.yul\":1535:1588   */\n      tag_145\n        /* \"#utility.yul\":1580:1587   */\n      dup5\n        /* \"#utility.yul\":1571:1577   */\n      dup3\n        /* \"#utility.yul\":1560:1569   */\n      dup6\n        /* \"#utility.yul\":1556:1578   */\n      add\n        /* \"#utility.yul\":1535:1588   */\n      tag_109\n      jump\t// in\n    tag_145:\n        /* \"#utility.yul\":1525:1588   */\n      swap2\n      pop\n        /* \"#utility.yul\":1481:1598   */\n      pop\n        /* \"#utility.yul\":1276:1605   */\n      swap3\n      swap2\n      pop\n      pop\n      jump\t// out\n        /* \"#utility.yul\":1611:1733   */\n    tag_110:\n        /* \"#utility.yul\":1684:1708   */\n      tag_147\n        /* \"#utility.yul\":1702:1707   */\n      dup2\n        /* \"#utility.yul\":1684:1708   */\n      tag_101\n      jump\t// in\n    tag_147:\n        /* \"#utility.yul\":1677:1682   */\n      dup2\n        /* \"#utility.yul\":1674:1709   */\n      eq\n        /* \"#utility.yul\":1664:1727   */\n      tag_148\n      jumpi\n        /* \"#utility.yul\":1723:1724   */\n      0x00\n        /* \"#utility.yul\":1720:1721   */\n      dup1\n        /* \"#utility.yul\":1713:1725   */\n      revert\n        /* \"#utility.yul\":1664:1727   */\n    tag_148:\n        /* \"#utility.yul\":1611:1733   */\n      pop\n      jump\t// out\n        /* \"#utility.yul\":1739:1878   */\n    tag_111:\n        /* \"#utility.yul\":1785:1790   */\n      0x00\n        /* \"#utility.yul\":1823:1829   */\n      dup2\n        /* \"#utility.yul\":1810:1830   */\n      calldataload\n        /* \"#utility.yul\":1801:1830   */\n      swap1\n      pop\n        /* \"#utility.yul\":1839:1872   */\n      tag_150\n        /* \"#utility.yul\":1866:1871   */\n      dup2\n        /* \"#utility.yul\":1839:1872   */\n      tag_110\n      jump\t// in\n    tag_150:\n        /* \"#utility.yul\":1739:1878   */\n      swap3\n      swap2\n      pop\n      pop\n      jump\t// out\n        /* \"#utility.yul\":1884:2213   */\n    tag_29:\n        /* \"#utility.yul\":1943:1949   */\n      0x00\n        /* \"#utility.yul\":1992:1994   */\n      0x20\n        /* \"#utility.yul\":1980:1989   */\n      dup3\n        /* \"#utility.yul\":1971:1978   */\n      dup5\n        /* \"#utility.yul\":1967:1990   */\n      sub\n        /* \"#utility.yul\":1963:1995   */\n      slt\n        /* \"#utility.yul\":1960:2079   */\n      iszero\n      tag_152\n      jumpi\n        /* \"#utility.yul\":1998:2077   */\n      tag_153\n      tag_104\n      jump\t// in\n    tag_153:\n        /* \"#utility.yul\":1960:2079   */\n    tag_152:\n        /* \"#utility.yul\":2118:2119   */\n      0x00\n        /* \"#utility.yul\":2143:2196   */\n      tag_154\n        /* \"#utility.yul\":2188:2195   */\n      dup5\n        /* \"#utility.yul\":2179:2185   */\n      dup3\n        /* \"#utility.yul\":2168:2177   */\n      dup6\n        /* \"#utility.yul\":2164:2186   */\n      add\n        /* \"#utility.yul\":2143:2196   */\n      tag_111\n      jump\t// in\n    tag_154:\n        /* \"#utility.yul\":2133:2196   */\n      swap2\n      pop\n        /* \"#utility.yul\":2089:2206   */\n      pop\n        /* \"#utility.yul\":1884:2213   */\n      swap3\n      swap2\n      pop\n      pop\n      jump\t// out\n        /* \"#utility.yul\":2219:2337   */\n    tag_112:\n        /* \"#utility.yul\":2306:2330   */\n      tag_156\n        /* \"#utility.yul\":2324:2329   */\n      dup2\n        /* \"#utility.yul\":2306:2330   */\n      tag_107\n      jump\t// in\n    tag_156:\n        /* \"#utility.yul\":2301:2304   */\n      dup3\n        /* \"#utility.yul\":2294:2331   */\n      mstore\n        /* \"#utility.yul\":2219:2337   */\n      pop\n      pop\n      jump\t// out\n        /* \"#utility.yul\":2343:2565   */\n    tag_36:\n        /* \"#utility.yul\":2436:2440   */\n      0x00\n        /* \"#utility.yul\":2474:2476   */\n      0x20\n        /* \"#utility.yul\":2463:2472   */\n      dup3\n        /* \"#utility.yul\":2459:2477   */\n      add\n        /* \"#utility.yul\":2451:2477   */\n      swap1\n      pop\n        /* \"#utility.yul\":2487:2558   */\n      tag_158\n        /* \"#utility.yul\":2555:2556   */\n      0x00\n        /* \"#utility.yul\":2544:2553   */\n      dup4\n        /* \"#utility.yul\":2540:2557   */\n      add\n        /* \"#utility.yul\":2531:2537   */\n      dup5\n        /* \"#utility.yul\":2487:2558   */\n      tag_112\n      jump\t// in\n    tag_158:\n        /* \"#utility.yul\":2343:2565   */\n      swap3\n      swap2\n      pop\n      pop\n      jump\t// out\n        /* \"#utility.yul\":2571:2714   */\n    tag_113:\n        /* \"#utility.yul\":2628:2633   */\n      0x00\n        /* \"#utility.yul\":2659:2665   */\n      dup2\n        /* \"#utility.yul\":2653:2666   */\n      mload\n        /* \"#utility.yul\":2644:2666   */\n      swap1\n      pop\n        /* \"#utility.yul\":2675:2708   */\n      tag_160\n        /* \"#utility.yul\":2702:2707   */\n      dup2\n        /* \"#utility.yul\":2675:2708   */\n      tag_110\n      jump\t// in\n    tag_160:\n        /* \"#utility.yul\":2571:2714   */\n      swap3\n      swap2\n      pop\n      pop\n      jump\t// out\n        /* \"#utility.yul\":2720:3071   */\n    tag_50:\n        /* \"#utility.yul\":2790:2796   */\n      0x00\n        /* \"#utility.yul\":2839:2841   */\n      0x20\n        /* \"#utility.yul\":2827:2836   */\n      dup3\n        /* \"#utility.yul\":2818:2825   */\n      dup5\n        /* \"#utility.yul\":2814:2837   */\n      sub\n        /* \"#utility.yul\":2810:2842   */\n      slt\n        /* \"#utility.yul\":2807:2926   */\n      iszero\n      tag_162\n      jumpi\n        /* \"#utility.yul\":2845:2924   */\n      tag_163\n      tag_104\n      jump\t// in\n    tag_163:\n        /* \"#utility.yul\":2807:2926   */\n    tag_162:\n        /* \"#utility.yul\":2965:2966   */\n      0x00\n        /* \"#utility.yul\":2990:3054   */\n      tag_164\n        /* \"#utility.yul\":3046:3053   */\n      dup5\n        /* \"#utility.yul\":3037:3043   */\n      dup3\n        /* \"#utility.yul\":3026:3035   */\n      dup6\n        /* \"#utility.yul\":3022:3044   */\n      add\n        /* \"#utility.yul\":2990:3054   */\n      tag_113\n      jump\t// in\n    tag_164:\n        /* \"#utility.yul\":2980:3054   */\n      swap2\n      pop\n        /* \"#utility.yul\":2936:3064   */\n      pop\n        /* \"#utility.yul\":2720:3071   */\n      swap3\n      swap2\n      pop\n      pop\n      jump\t// out\n        /* \"#utility.yul\":3077:3257   */\n    tag_61:\n        /* \"#utility.yul\":3125:3202   */\n      0x4e487b7100000000000000000000000000000000000000000000000000000000\n        /* \"#utility.yul\":3122:3123   */\n      0x00\n        /* \"#utility.yul\":3115:3203   */\n      mstore\n        /* \"#utility.yul\":3222:3226   */\n      0x32\n        /* \"#utility.yul\":3219:3220   */\n      0x04\n        /* \"#utility.yul\":3212:3227   */\n      mstore\n        /* \"#utility.yul\":3246:3250   */\n      0x24\n        /* \"#utility.yul\":3243:3244   */\n      0x00\n        /* \"#utility.yul\":3236:3251   */\n      revert\n        /* \"#utility.yul\":3263:3443   */\n    tag_114:\n        /* \"#utility.yul\":3311:3388   */\n      0x4e487b7100000000000000000000000000000000000000000000000000000000\n        /* \"#utility.yul\":3308:3309   */\n      0x00\n        /* \"#utility.yul\":3301:3389   */\n      mstore\n        /* \"#utility.yul\":3408:3412   */\n      0x11\n        /* \"#utility.yul\":3405:3406   */\n      0x04\n        /* \"#utility.yul\":3398:3413   */\n      mstore\n        /* \"#utility.yul\":3432:3436   */\n      0x24\n        /* \"#utility.yul\":3429:3430   */\n      0x00\n        /* \"#utility.yul\":3422:3437   */\n      revert\n        /* \"#utility.yul\":3449:3682   */\n    tag_64:\n        /* \"#utility.yul\":3488:3491   */\n      0x00\n        /* \"#utility.yul\":3511:3535   */\n      tag_168\n        /* \"#utility.yul\":3529:3534   */\n      dup3\n        /* \"#utility.yul\":3511:3535   */\n      tag_101\n      jump\t// in\n    tag_168:\n        /* \"#utility.yul\":3502:3535   */\n      swap2\n      pop\n        /* \"#utility.yul\":3557:3623   */\n      0xffffffffffffffffffffffffffffffffffffffffffffffffffffffffffffffff\n        /* \"#utility.yul\":3550:3555   */\n      dup3\n        /* \"#utility.yul\":3547:3624   */\n      sub\n        /* \"#utility.yul\":3544:3647   */\n      tag_169\n      jumpi\n        /* \"#utility.yul\":3627:3645   */\n      tag_170\n      tag_114\n      jump\t// in\n    tag_170:\n        /* \"#utility.yul\":3544:3647   */\n    tag_169:\n        /* \"#utility.yul\":3674:3675   */\n      0x01\n        /* \"#utility.yul\":3667:3672   */\n      dup3\n        /* \"#utility.yul\":3663:3676   */\n      add\n        /* \"#utility.yul\":3656:3676   */\n      swap1\n      pop\n        /* \"#utility.yul\":3449:3682   */\n      swap2\n      swap1\n      pop\n      jump\t// out\n        /* \"#utility.yul\":3688:3868   */\n    tag_67:\n        /* \"#utility.yul\":3736:3813   */\n      0x4e487b7100000000000000000000000000000000000000000000000000000000\n        /* \"#utility.yul\":3733:3734   */\n      0x00\n        /* \"#utility.yul\":3726:3814   */\n      mstore\n        /* \"#utility.yul\":3833:3837   */\n      0x41\n        /* \"#utility.yul\":3830:3831   */\n      0x04\n        /* \"#utility.yul\":3823:3838   */\n      mstore\n        /* \"#utility.yul\":3857:3861   */\n      0x24\n        /* \"#utility.yul\":3854:3855   */\n      0x00\n        /* \"#utility.yul\":3847:3862   */\n      revert\n        /* \"#utility.yul\":3874:4043   */\n    tag_115:\n        /* \"#utility.yul\":3958:3969   */\n      0x00\n        /* \"#utility.yul\":3992:3998   */\n      dup3\n        /* \"#utility.yul\":3987:3990   */\n      dup3\n        /* \"#utility.yul\":3980:3999   */\n      mstore\n        /* \"#utility.yul\":4032:4036   */\n      0x20\n        /* \"#utility.yul\":4027:4030   */\n      dup3\n        /* \"#utility.yul\":4023:4037   */\n      add\n        /* \"#utility.yul\":4008:4037   */\n      swap1\n      pop\n        /* \"#utility.yul\":3874:4043   */\n      swap3\n      swap2\n      pop\n      pop\n      jump\t// out\n        /* \"#utility.yul\":4049:4226   */\n    tag_116:\n        /* \"#utility.yul\":4189:4218   */\n      0x596f75206e65656420746f207370656e64206d6f726520455448210000000000\n        /* \"#utility.yul\":4185:4186   */\n      0x00\n        /* \"#utility.yul\":4177:4183   */\n      dup3\n        /* \"#utility.yul\":4173:4187   */\n      add\n        /* \"#utility.yul\":4166:4219   */\n      mstore\n        /* \"#utility.yul\":4049:4226   */\n      pop\n      jump\t// out\n        /* \"#utility.yul\":4232:4598   */\n    tag_117:\n        /* \"#utility.yul\":4374:4377   */\n      0x00\n        /* \"#utility.yul\":4395:4462   */\n      tag_175\n        /* \"#utility.yul\":4459:4461   */\n      0x1b\n        /* \"#utility.yul\":4454:4457   */\n      dup4\n        /* \"#utility.yul\":4395:4462   */\n      tag_115\n      jump\t// in\n    tag_175:\n        /* \"#utility.yul\":4388:4462   */\n      swap2\n      pop\n        /* \"#utility.yul\":4471:4564   */\n      tag_176\n        /* \"#utility.yul\":4560:4563   */\n      dup3\n        /* \"#utility.yul\":4471:4564   */\n      tag_116\n      jump\t// in\n    tag_176:\n        /* \"#utility.yul\":4589:4591   */\n      0x20\n        /* \"#utility.yul\":4584:4587   */\n      dup3\n        /* \"#utility.yul\":4580:4592   */\n      add\n        /* \"#utility.yul\":4573:4592   */\n      swap1\n      pop\n        /* \"#utility.yul\":4232:4598   */\n      swap2\n      swap1\n      pop\n      jump\t// out\n        /* \"#utility.yul\":4604:5023   */\n    tag_75:\n        /* \"#utility.yul\":4770:4774   */\n      0x00\n        /* \"#utility.yul\":4808:4810   */\n      0x20\n        /* \"#utility.yul\":4797:4806   */\n      dup3\n        /* \"#utility.yul\":4793:4811   */\n      add\n        /* \"#utility.yul\":4785:4811   */\n      swap1\n      pop\n        /* \"#utility.yul\":4857:4866   */\n      dup2\n        /* \"#utility.yul\":4851:4855   */\n      dup2\n        /* \"#utility.yul\":4847:4867   */\n      sub\n        /* \"#utility.yul\":4843:4844   */\n      0x00\n        /* \"#utility.yul\":4832:4841   */\n      dup4\n        /* \"#utility.yul\":4828:4845   */\n      add\n        /* \"#utility.yul\":4821:4868   */\n      mstore\n        /* \"#utility.yul\":4885:5016   */\n      tag_178\n        /* \"#utility.yul\":5011:5015   */\n      dup2\n        /* \"#utility.yul\":4885:5016   */\n      tag_117\n      jump\t// in\n    tag_178:\n        /* \"#utility.yul\":4877:5016   */\n      swap1\n      pop\n        /* \"#utility.yul\":4604:5023   */\n      swap2\n      swap1\n      pop\n      jump\t// out\n        /* \"#utility.yul\":5029:5220   */\n    tag_77:\n        /* \"#utility.yul\":5069:5072   */\n      0x00\n        /* \"#utility.yul\":5088:5108   */\n      tag_180\n        /* \"#utility.yul\":5106:5107   */\n      dup3\n        /* \"#utility.yul\":5088:5108   */\n      tag_101\n      jump\t// in\n    tag_180:\n        /* \"#utility.yul\":5083:5108   */\n      swap2\n      pop\n        /* \"#utility.yul\":5122:5142   */\n      tag_181\n        /* \"#utility.yul\":5140:5141   */\n      dup4\n        /* \"#utility.yul\":5122:5142   */\n      tag_101\n      jump\t// in\n    tag_181:\n        /* \"#utility.yul\":5117:5142   */\n      swap3\n      pop\n        /* \"#utility.yul\":5165:5166   */\n      dup3\n        /* \"#utility.yul\":5162:5163   */\n      dup3\n        /* \"#utility.yul\":5158:5167   */\n      add\n        /* \"#utility.yul\":5151:5167   */\n      swap1\n      pop\n        /* \"#utility.yul\":5186:5189   */\n      dup1\n        /* \"#utility.yul\":5183:5184   */\n      dup3\n        /* \"#utility.yul\":5180:5190   */\n      gt\n        /* \"#utility.yul\":5177:5213   */\n      iszero\n      tag_182\n      jumpi\n        /* \"#utility.yul\":5193:5211   */\n      tag_183\n      tag_114\n      jump\t// in\n    tag_183:\n        /* \"#utility.yul\":5177:5213   */\n    tag_182:\n        /* \"#utility.yul\":5029:5220   */\n      swap3\n      swap2\n      pop\n      pop\n      jump\t// out\n        /* \"#utility.yul\":5226:5636   */\n    tag_82:\n        /* \"#utility.yul\":5266:5273   */\n      0x00\n        /* \"#utility.yul\":5289:5309   */\n      tag_185\n        /* \"#utility.yul\":5307:5308   */\n      dup3\n        /* \"#utility.yul\":5289:5309   */\n      tag_101\n      jump\t// in\n    tag_185:\n        /* \"#utility.yul\":5284:5309   */\n      swap2\n      pop\n        /* \"#utility.yul\":5323:5343   */\n      tag_186\n        /* \"#utility.yul\":5341:5342   */\n      dup4\n        /* \"#utility.yul\":5323:5343   */\n      tag_101\n      jump\t// in\n    tag_186:\n        /* \"#utility.yul\":5318:5343   */\n      swap3\n      pop\n        /* \"#utility.yul\":5378:5379   */\n      dup3\n        /* \"#utility.yul\":5375:5376   */\n      dup3\n        /* \"#utility.yul\":5371:5380   */\n      mul\n        /* \"#utility.yul\":5400:5430   */\n      tag_187\n        /* \"#utility.yul\":5418:5429   */\n      dup2\n        /* \"#utility.yul\":5400:5430   */\n      tag_101\n      jump\t// in\n    tag_187:\n        /* \"#utility.yul\":5389:5430   */\n      swap2\n      pop\n        /* \"#utility.yul\":5579:5580   */\n      dup3\n        /* \"#utility.yul\":5570:5577   */\n      dup3\n        /* \"#utility.yul\":5566:5581   */\n      div\n        /* \"#utility.yul\":5563:5564   */\n      dup5\n        /* \"#utility.yul\":5560:5582   */\n      eq\n        /* \"#utility.yul\":5540:5541   */\n      dup4\n        /* \"#utility.yul\":5533:5542   */\n      iszero\n        /* \"#utility.yul\":5513:5596   */\n      or\n        /* \"#utility.yul\":5490:5629   */\n      tag_188\n      jumpi\n        /* \"#utility.yul\":5609:5627   */\n      tag_189\n      tag_114\n      jump\t// in\n    tag_189:\n        /* \"#utility.yul\":5490:5629   */\n    tag_188:\n        /* \"#utility.yul\":5274:5636   */\n      pop\n        /* \"#utility.yul\":5226:5636   */\n      swap3\n      swap2\n      pop\n      pop\n      jump\t// out\n        /* \"#utility.yul\":5642:5822   */\n    tag_118:\n        /* \"#utility.yul\":5690:5767   */\n      0x4e487b7100000000000000000000000000000000000000000000000000000000\n        /* \"#utility.yul\":5687:5688   */\n      0x00\n        /* \"#utility.yul\":5680:5768   */\n      mstore\n        /* \"#utility.yul\":5787:5791   */\n      0x12\n        /* \"#utility.yul\":5784:5785   */\n      0x04\n        /* \"#utility.yul\":5777:5792   */\n      mstore\n        /* \"#utility.yul\":5811:5815   */\n      0x24\n        /* \"#utility.yul\":5808:5809   */\n      0x00\n        /* \"#utility.yul\":5801:5816   */\n      revert\n        /* \"#utility.yul\":5828:6013   */\n    tag_84:\n        /* \"#utility.yul\":5868:5869   */\n      0x00\n        /* \"#utility.yul\":5885:5905   */\n      tag_192\n        /* \"#utility.yul\":5903:5904   */\n      dup3\n        /* \"#utility.yul\":5885:5905   */\n      tag_101\n      jump\t// in\n    tag_192:\n        /* \"#utility.yul\":5880:5905   */\n      swap2\n      pop\n        /* \"#utility.yul\":5919:5939   */\n      tag_193\n        /* \"#utility.yul\":5937:5938   */\n      dup4\n        /* \"#utility.yul\":5919:5939   */\n      tag_101\n      jump\t// in\n    tag_193:\n        /* \"#utility.yul\":5914:5939   */\n      swap3\n      pop\n        /* \"#utility.yul\":5958:5959   */\n      dup3\n        /* \"#utility.yul\":5948:5983   */\n      tag_194\n      jumpi\n        /* \"#utility.yul\":5963:5981   */\n      tag_195\n      tag_118\n      jump\t// in\n    tag_195:\n        /* \"#utility.yul\":5948:5983   */\n    tag_194:\n        /* \"#utility.yul\":6005:6006   */\n      dup3\n        /* \"#utility.yul\":6002:6003   */\n      dup3\n        /* \"#utility.yul\":5998:6007   */\n      div\n        /* \"#utility.yul\":5993:6007   */\n      swap1\n      pop\n        /* \"#utility.yul\":5828:6013   */\n      swap3\n      swap2\n      pop\n      pop\n      jump\t// out\n        /* \"#utility.yul\":6019:6124   */\n    tag_119:\n        /* \"#utility.yul\":6055:6062   */\n      0x00\n        /* \"#utility.yul\":6095:6117   */\n      0xffffffffffffffffffff\n        /* \"#utility.yul\":6088:6093   */\n      dup3\n        /* \"#utility.yul\":6084:6118   */\n      and\n        /* \"#utility.yul\":6073:6118   */\n      swap1\n      pop\n        /* \"#utility.yul\":6019:6124   */\n      swap2\n      swap1\n      pop\n      jump\t// out\n        /* \"#utility.yul\":6130:6250   */\n    tag_120:\n        /* \"#utility.yul\":6202:6225   */\n      tag_198\n        /* \"#utility.yul\":6219:6224   */\n      dup2\n        /* \"#utility.yul\":6202:6225   */\n      tag_119\n      jump\t// in\n    tag_198:\n        /* \"#utility.yul\":6195:6200   */\n      dup2\n        /* \"#utility.yul\":6192:6226   */\n      eq\n        /* \"#utility.yul\":6182:6244   */\n      tag_199\n      jumpi\n        /* \"#utility.yul\":6240:6241   */\n      0x00\n        /* \"#utility.yul\":6237:6238   */\n      dup1\n        /* \"#utility.yul\":6230:6242   */\n      revert\n        /* \"#utility.yul\":6182:6244   */\n    tag_199:\n        /* \"#utility.yul\":6130:6250   */\n      pop\n      jump\t// out\n        /* \"#utility.yul\":6256:6397   */\n    tag_121:\n        /* \"#utility.yul\":6312:6317   */\n      0x00\n        /* \"#utility.yul\":6343:6349   */\n      dup2\n        /* \"#utility.yul\":6337:6350   */\n      mload\n        /* \"#utility.yul\":6328:6350   */\n      swap1\n      pop\n        /* \"#utility.yul\":6359:6391   */\n      tag_201\n        /* \"#utility.yul\":6385:6390   */\n      dup2\n        /* \"#utility.yul\":6359:6391   */\n      tag_120\n      jump\t// in\n    tag_201:\n        /* \"#utility.yul\":6256:6397   */\n      swap3\n      swap2\n      pop\n      pop\n      jump\t// out\n        /* \"#utility.yul\":6403:6479   */\n    tag_122:\n        /* \"#utility.yul\":6439:6446   */\n      0x00\n        /* \"#utility.yul\":6468:6473   */\n      dup2\n        /* \"#utility.yul\":6457:6473   */\n      swap1\n      pop\n        /* \"#utility.yul\":6403:6479   */\n      swap2\n      swap1\n      pop\n      jump\t// out\n        /* \"#utility.yul\":6485:6605   */\n    tag_123:\n        /* \"#utility.yul\":6557:6580   */\n      tag_204\n        /* \"#utility.yul\":6574:6579   */\n      dup2\n        /* \"#utility.yul\":6557:6580   */\n      tag_122\n      jump\t// in\n    tag_204:\n        /* \"#utility.yul\":6550:6555   */\n      dup2\n        /* \"#utility.yul\":6547:6581   */\n      eq\n        /* \"#utility.yul\":6537:6599   */\n      tag_205\n      jumpi\n        /* \"#utility.yul\":6595:6596   */\n      0x00\n        /* \"#utility.yul\":6592:6593   */\n      dup1\n        /* \"#utility.yul\":6585:6597   */\n      revert\n        /* \"#utility.yul\":6537:6599   */\n    tag_205:\n        /* \"#utility.yul\":6485:6605   */\n      pop\n      jump\t// out\n        /* \"#utility.yul\":6611:6752   */\n    tag_124:\n        /* \"#utility.yul\":6667:6672   */\n      0x00\n        /* \"#utility.yul\":6698:6704   */\n      dup2\n        /* \"#utility.yul\":6692:6705   */\n      mload\n        /* \"#utility.yul\":6683:6705   */\n      swap1\n      pop\n        /* \"#utility.yul\":6714:6746   */\n      tag_207\n        /* \"#utility.yul\":6740:6745   */\n      dup2\n        /* \"#utility.yul\":6714:6746   */\n      tag_123\n      jump\t// in\n    tag_207:\n        /* \"#utility.yul\":6611:6752   */\n      swap3\n      swap2\n      pop\n      pop\n      jump\t// out\n        /* \"#utility.yul\":6758:7729   */\n    tag_89:\n        /* \"#utility.yul\":6861:6867   */\n      0x00\n        /* \"#utility.yul\":6869:6875   */\n      dup1\n        /* \"#utility.yul\":6877:6883   */\n      0x00\n        /* \"#utility.yul\":6885:6891   */\n      dup1\n        /* \"#utility.yul\":6893:6899   */\n      0x00\n        /* \"#utility.yul\":6942:6945   */\n      0xa0\n        /* \"#utility.yul\":6930:6939   */\n      dup7\n        /* \"#utility.yul\":6921:6928   */\n      dup9\n        /* \"#utility.yul\":6917:6940   */\n      sub\n        /* \"#utility.yul\":6913:6946   */\n      slt\n        /* \"#utility.yul\":6910:7030   */\n      iszero\n      tag_209\n      jumpi\n        /* \"#utility.yul\":6949:7028   */\n      tag_210\n      tag_104\n      jump\t// in\n    tag_210:\n        /* \"#utility.yul\":6910:7030   */\n    tag_209:\n        /* \"#utility.yul\":7069:7070   */\n      0x00\n        /* \"#utility.yul\":7094:7157   */\n      tag_211\n        /* \"#utility.yul\":7149:7156   */\n      dup9\n        /* \"#utility.yul\":7140:7146   */\n      dup3\n        /* \"#utility.yul\":7129:7138   */\n      dup10\n        /* \"#utility.yul\":7125:7147   */\n      add\n        /* \"#utility.yul\":7094:7157   */\n      tag_121\n      jump\t// in\n    tag_211:\n        /* \"#utility.yul\":7084:7157   */\n      swap6\n      pop\n        /* \"#utility.yul\":7040:7167   */\n      pop\n        /* \"#utility.yul\":7206:7208   */\n      0x20\n        /* \"#utility.yul\":7232:7295   */\n      tag_212\n        /* \"#utility.yul\":7287:7294   */\n      dup9\n        /* \"#utility.yul\":7278:7284   */\n      dup3\n        /* \"#utility.yul\":7267:7276   */\n      dup10\n        /* \"#utility.yul\":7263:7285   */\n      add\n        /* \"#utility.yul\":7232:7295   */\n      tag_124\n      jump\t// in\n    tag_212:\n        /* \"#utility.yul\":7222:7295   */\n      swap5\n      pop\n        /* \"#utility.yul\":7177:7305   */\n      pop\n        /* \"#utility.yul\":7344:7346   */\n      0x40\n        /* \"#utility.yul\":7370:7434   */\n      tag_213\n        /* \"#utility.yul\":7426:7433   */\n      dup9\n        /* \"#utility.yul\":7417:7423   */\n      dup3\n        /* \"#utility.yul\":7406:7415   */\n      dup10\n        /* \"#utility.yul\":7402:7424   */\n      add\n        /* \"#utility.yul\":7370:7434   */\n      tag_113\n      jump\t// in\n    tag_213:\n        /* \"#utility.yul\":7360:7434   */\n      swap4\n      pop\n        /* \"#utility.yul\":7315:7444   */\n      pop\n        /* \"#utility.yul\":7483:7485   */\n      0x60\n        /* \"#utility.yul\":7509:7573   */\n      tag_214\n        /* \"#utility.yul\":7565:7572   */\n      dup9\n        /* \"#utility.yul\":7556:7562   */\n      dup3\n        /* \"#utility.yul\":7545:7554   */\n      dup10\n        /* \"#utility.yul\":7541:7563   */\n      add\n        /* \"#utility.yul\":7509:7573   */\n      tag_113\n      jump\t// in\n    tag_214:\n        /* \"#utility.yul\":7499:7573   */\n      swap3\n      pop\n        /* \"#utility.yul\":7454:7583   */\n      pop\n        /* \"#utility.yul\":7622:7625   */\n      0x80\n        /* \"#utility.yul\":7649:7712   */\n      tag_215\n        /* \"#utility.yul\":7704:7711   */\n      dup9\n        /* \"#utility.yul\":7695:7701   */\n      dup3\n        /* \"#utility.yul\":7684:7693   */\n      dup10\n        /* \"#utility.yul\":7680:7702   */\n      add\n        /* \"#utility.yul\":7649:7712   */\n      tag_121\n      jump\t// in\n    tag_215:\n        /* \"#utility.yul\":7639:7712   */\n      swap2\n      pop\n        /* \"#utility.yul\":7593:7722   */\n      pop\n        /* \"#utility.yul\":6758:7729   */\n      swap3\n      swap6\n      pop\n      swap3\n      swap6\n      swap1\n      swap4\n      pop\n      jump\t// out\n        /* \"#utility.yul\":7735:8291   */\n    tag_91:\n        /* \"#utility.yul\":7774:7781   */\n      0x00\n        /* \"#utility.yul\":7797:7816   */\n      tag_217\n        /* \"#utility.yul\":7814:7815   */\n      dup3\n        /* \"#utility.yul\":7797:7816   */\n      tag_122\n      jump\t// in\n    tag_217:\n        /* \"#utility.yul\":7792:7816   */\n      swap2\n      pop\n        /* \"#utility.yul\":7830:7849   */\n      tag_218\n        /* \"#utility.yul\":7847:7848   */\n      dup4\n        /* \"#utility.yul\":7830:7849   */\n      tag_122\n      jump\t// in\n    tag_218:\n        /* \"#utility.yul\":7825:7849   */\n      swap3\n      pop\n        /* \"#utility.yul\":7884:7885   */\n      dup3\n        /* \"#utility.yul\":7881:7882   */\n      dup3\n        /* \"#utility.yul\":7877:7886   */\n      mul\n        /* \"#utility.yul\":7906:7935   */\n      tag_219\n        /* \"#utility.yul\":7923:7934   */\n      dup2\n        /* \"#utility.yul\":7906:7935   */\n      tag_122\n      jump\t// in\n    tag_219:\n        /* \"#utility.yul\":7895:7935   */\n      swap2\n      pop\n        /* \"#utility.yul\":7993:8059   */\n      0x8000000000000000000000000000000000000000000000000000000000000000\n        /* \"#utility.yul\":7990:7991   */\n      dup5\n        /* \"#utility.yul\":7987:8060   */\n      eq\n        /* \"#utility.yul\":7983:7984   */\n      0x00\n        /* \"#utility.yul\":7980:7981   */\n      dup5\n        /* \"#utility.yul\":7976:7985   */\n      slt\n        /* \"#utility.yul\":7972:8061   */\n      and\n        /* \"#utility.yul\":7969:8084   */\n      iszero\n      tag_220\n      jumpi\n        /* \"#utility.yul\":8064:8082   */\n      tag_221\n      tag_114\n      jump\t// in\n    tag_221:\n        /* \"#utility.yul\":7969:8084   */\n    tag_220:\n        /* \"#utility.yul\":8234:8235   */\n      dup3\n        /* \"#utility.yul\":8225:8232   */\n      dup3\n        /* \"#utility.yul\":8220:8236   */\n      sdiv\n        /* \"#utility.yul\":8217:8218   */\n      dup5\n        /* \"#utility.yul\":8214:8237   */\n      eq\n        /* \"#utility.yul\":8194:8195   */\n      dup4\n        /* \"#utility.yul\":8187:8196   */\n      iszero\n        /* \"#utility.yul\":8167:8251   */\n      or\n        /* \"#utility.yul\":8144:8284   */\n      tag_222\n      jumpi\n        /* \"#utility.yul\":8264:8282   */\n      tag_223\n      tag_114\n      jump\t// in\n    tag_223:\n        /* \"#utility.yul\":8144:8284   */\n    tag_222:\n        /* \"#utility.yul\":7782:8291   */\n      pop\n        /* \"#utility.yul\":7735:8291   */\n      swap3\n      swap2\n      pop\n      pop\n      jump\t// out\n\n    auxdata: 0xa26469706673582212205e2423cd34907d9a8cd9f573e580da61fc3d6fd513547e29e3ae22935bbbd6f964736f6c63430008140033\n}\n",
				"bytecode": {
					"linkReferences": {},
					"object": "608060405234801561000f575f80fd5b503360025f6101000a81548173ffffffffffffffffffffffffffffffffffffffff021916908373ffffffffffffffffffffffffffffffffffffffff160217905550610c118061005d5f395ff3fe60806040526004361061007a575f3560e01c80636e5b6b281161004d5780636e5b6b28146100f85780638da5cb5b1461013457806398d5fdca1461015e578063dc0d3dff146101885761007a565b80630d8e6e2c1461007e5780633ccfd60b146100a85780633e47d6f3146100b25780636ce1417e146100ee575b5f80fd5b348015610089575f80fd5b506100926101c4565b60405161009f9190610707565b60405180910390f35b6100b0610250565b005b3480156100bd575f80fd5b506100d860048036038101906100d3919061077e565b6103f1565b6040516100e59190610707565b60405180910390f35b6100f6610405565b005b348015610103575f80fd5b5061011e600480360381019061011991906107d3565b610510565b60405161012b9190610707565b60405180910390f35b34801561013f575f80fd5b50610148610548565b604051610155919061080d565b60405180910390f35b348015610169575f80fd5b5061017261056d565b60405161017f9190610707565b60405180910390f35b348015610193575f80fd5b506101ae60048036038101906101a991906107d3565b610612565b6040516101bb919061080d565b60405180910390f35b5f8073c630c6bff4d198f30d9ab86f89fb83f0bc3fb94890508073ffffffffffffffffffffffffffffffffffffffff166354fd4d506040518163ffffffff1660e01b8152600401602060405180830381865afa158015610226573d5f803e3d5ffd5b505050506040513d601f19601f8201168201806040525081019061024a919061083a565b91505090565b60025f9054906101000a900473ffffffffffffffffffffffffffffffffffffffff1673ffffffffffffffffffffffffffffffffffffffff163373ffffffffffffffffffffffffffffffffffffffff16146102a8575f80fd5b3373ffffffffffffffffffffffffffffffffffffffff166108fc4790811502906040515f60405180830381858888f193505050501580156102eb573d5f803e3d5ffd5b505f5b60018054905081101561038f575f600182815481106103105761030f610865565b5b905f5260205f20015f9054906101000a900473ffffffffffffffffffffffffffffffffffffffff1690505f805f8373ffffffffffffffffffffffffffffffffffffffff1673ffffffffffffffffffffffffffffffffffffffff1681526020019081526020015f2081905550508080610387906108bf565b9150506102ee565b505f67ffffffffffffffff8111156103aa576103a9610906565b5b6040519080825280602002602001820160405280156103d85781602001602082028036833780820191505090505b50600190805190602001906103ee92919061064d565b50565b5f602052805f5260405f205f915090505481565b5f666a94d74f43000090508061041a34610510565b101561045b576040517f08c379a00000000000000000000000000000000000000000000000000000000081526004016104529061098d565b60405180910390fd5b345f803373ffffffffffffffffffffffffffffffffffffffff1673ffffffffffffffffffffffffffffffffffffffff1681526020019081526020015f205f8282546104a691906109ab565b92505081905550600133908060018154018082558091505060019003905f5260205f20015f9091909190916101000a81548173ffffffffffffffffffffffffffffffffffffffff021916908373ffffffffffffffffffffffffffffffffffffffff16021790555050565b5f8061051a61056d565b90505f678ac7230489e80000848361053291906109de565b61053c9190610a4c565b90508092505050919050565b60025f9054906101000a900473ffffffffffffffffffffffffffffffffffffffff1681565b5f8073c630c6bff4d198f30d9ab86f89fb83f0bc3fb94890505f8173ffffffffffffffffffffffffffffffffffffffff1663feaf968c6040518163ffffffff1660e01b815260040160a060405180830381865afa1580156105d0573d5f803e3d5ffd5b505050506040513d601f19601f820116820180604052508101906105f49190610aee565b5050509150506402540be4008161060b9190610b65565b9250505090565b60018181548110610621575f80fd5b905f5260205f20015f915054906101000a900473ffffffffffffffffffffffffffffffffffffffff1681565b828054828255905f5260205f209081019282156106c3579160200282015b828111156106c2578251825f6101000a81548173ffffffffffffffffffffffffffffffffffffffff021916908373ffffffffffffffffffffffffffffffffffffffff1602179055509160200191906001019061066b565b5b5090506106d091906106d4565b5090565b5b808211156106eb575f815f9055506001016106d5565b5090565b5f819050919050565b610701816106ef565b82525050565b5f60208201905061071a5f8301846106f8565b92915050565b5f80fd5b5f73ffffffffffffffffffffffffffffffffffffffff82169050919050565b5f61074d82610724565b9050919050565b61075d81610743565b8114610767575f80fd5b50565b5f8135905061077881610754565b92915050565b5f6020828403121561079357610792610720565b5b5f6107a08482850161076a565b91505092915050565b6107b2816106ef565b81146107bc575f80fd5b50565b5f813590506107cd816107a9565b92915050565b5f602082840312156107e8576107e7610720565b5b5f6107f5848285016107bf565b91505092915050565b61080781610743565b82525050565b5f6020820190506108205f8301846107fe565b92915050565b5f81519050610834816107a9565b92915050565b5f6020828403121561084f5761084e610720565b5b5f61085c84828501610826565b91505092915050565b7f4e487b71000000000000000000000000000000000000000000000000000000005f52603260045260245ffd5b7f4e487b71000000000000000000000000000000000000000000000000000000005f52601160045260245ffd5b5f6108c9826106ef565b91507fffffffffffffffffffffffffffffffffffffffffffffffffffffffffffffffff82036108fb576108fa610892565b5b600182019050919050565b7f4e487b71000000000000000000000000000000000000000000000000000000005f52604160045260245ffd5b5f82825260208201905092915050565b7f596f75206e65656420746f207370656e64206d6f7265204554482100000000005f82015250565b5f610977601b83610933565b915061098282610943565b602082019050919050565b5f6020820190508181035f8301526109a48161096b565b9050919050565b5f6109b5826106ef565b91506109c0836106ef565b92508282019050808211156109d8576109d7610892565b5b92915050565b5f6109e8826106ef565b91506109f3836106ef565b9250828202610a01816106ef565b91508282048414831517610a1857610a17610892565b5b5092915050565b7f4e487b71000000000000000000000000000000000000000000000000000000005f52601260045260245ffd5b5f610a56826106ef565b9150610a61836106ef565b925082610a7157610a70610a1f565b5b828204905092915050565b5f69ffffffffffffffffffff82169050919050565b610a9a81610a7c565b8114610aa4575f80fd5b50565b5f81519050610ab581610a91565b92915050565b5f819050919050565b610acd81610abb565b8114610ad7575f80fd5b50565b5f81519050610ae881610ac4565b92915050565b5f805f805f60a08688031215610b0757610b06610720565b5b5f610b1488828901610aa7565b9550506020610b2588828901610ada565b9450506040610b3688828901610826565b9350506060610b4788828901610826565b9250506080610b5888828901610aa7565b9150509295509295909350565b5f610b6f82610abb565b9150610b7a83610abb565b9250828202610b8881610abb565b91507f800000000000000000000000000000000000000000000000000000000000000084145f84121615610bbf57610bbe610892565b5b8282058414831517610bd457610bd3610892565b5b509291505056fea26469706673582212205e2423cd34907d9a8cd9f573e580da61fc3d6fd513547e29e3ae22935bbbd6f964736f6c63430008140033",
					"opcodes": "PUSH1 0x80 PUSH1 0x40 MSTORE CALLVALUE DUP1 ISZERO PUSH2 0xF JUMPI PUSH0 DUP1 REVERT JUMPDEST POP CALLER PUSH1 0x2 PUSH0 PUSH2 0x100 EXP DUP2 SLOAD DUP2 PUSH20 0xFFFFFFFFFFFFFFFFFFFFFFFFFFFFFFFFFFFFFFFF MUL NOT AND SWAP1 DUP4 PUSH20 0xFFFFFFFFFFFFFFFFFFFFFFFFFFFFFFFFFFFFFFFF AND MUL OR SWAP1 SSTORE POP PUSH2 0xC11 DUP1 PUSH2 0x5D PUSH0 CODECOPY PUSH0 RETURN INVALID PUSH1 0x80 PUSH1 0x40 MSTORE PUSH1 0x4 CALLDATASIZE LT PUSH2 0x7A JUMPI PUSH0 CALLDATALOAD PUSH1 0xE0 SHR DUP1 PUSH4 0x6E5B6B28 GT PUSH2 0x4D JUMPI DUP1 PUSH4 0x6E5B6B28 EQ PUSH2 0xF8 JUMPI DUP1 PUSH4 0x8DA5CB5B EQ PUSH2 0x134 JUMPI DUP1 PUSH4 0x98D5FDCA EQ PUSH2 0x15E JUMPI DUP1 PUSH4 0xDC0D3DFF EQ PUSH2 0x188 JUMPI PUSH2 0x7A JUMP JUMPDEST DUP1 PUSH4 0xD8E6E2C EQ PUSH2 0x7E JUMPI DUP1 PUSH4 0x3CCFD60B EQ PUSH2 0xA8 JUMPI DUP1 PUSH4 0x3E47D6F3 EQ PUSH2 0xB2 JUMPI DUP1 PUSH4 0x6CE1417E EQ PUSH2 0xEE JUMPI JUMPDEST PUSH0 DUP1 REVERT JUMPDEST CALLVALUE DUP1 ISZERO PUSH2 0x89 JUMPI PUSH0 DUP1 REVERT JUMPDEST POP PUSH2 0x92 PUSH2 0x1C4 JUMP JUMPDEST PUSH1 0x40 MLOAD PUSH2 0x9F SWAP2 SWAP1 PUSH2 0x707 JUMP JUMPDEST PUSH1 0x40 MLOAD DUP1 SWAP2 SUB SWAP1 RETURN JUMPDEST PUSH2 0xB0 PUSH2 0x250 JUMP JUMPDEST STOP JUMPDEST CALLVALUE DUP1 ISZERO PUSH2 0xBD JUMPI PUSH0 DUP1 REVERT JUMPDEST POP PUSH2 0xD8 PUSH1 0x4 DUP1 CALLDATASIZE SUB DUP2 ADD SWAP1 PUSH2 0xD3 SWAP2 SWAP1 PUSH2 0x77E JUMP JUMPDEST PUSH2 0x3F1 JUMP JUMPDEST PUSH1 0x40 MLOAD PUSH2 0xE5 SWAP2 SWAP1 PUSH2 0x707 JUMP JUMPDEST PUSH1 0x40 MLOAD DUP1 SWAP2 SUB SWAP1 RETURN JUMPDEST PUSH2 0xF6 PUSH2 0x405 JUMP JUMPDEST STOP JUMPDEST CALLVALUE DUP1 ISZERO PUSH2 0x103 JUMPI PUSH0 DUP1 REVERT JUMPDEST POP PUSH2 0x11E PUSH1 0x4 DUP1 CALLDATASIZE SUB DUP2 ADD SWAP1 PUSH2 0x119 SWAP2 SWAP1 PUSH2 0x7D3 JUMP JUMPDEST PUSH2 0x510 JUMP JUMPDEST PUSH1 0x40 MLOAD PUSH2 0x12B SWAP2 SWAP1 PUSH2 0x707 JUMP JUMPDEST PUSH1 0x40 MLOAD DUP1 SWAP2 SUB SWAP1 RETURN JUMPDEST CALLVALUE DUP1 ISZERO PUSH2 0x13F JUMPI PUSH0 DUP1 REVERT JUMPDEST POP PUSH2 0x148 PUSH2 0x548 JUMP JUMPDEST PUSH1 0x40 MLOAD PUSH2 0x155 SWAP2 SWAP1 PUSH2 0x80D JUMP JUMPDEST PUSH1 0x40 MLOAD DUP1 SWAP2 SUB SWAP1 RETURN JUMPDEST CALLVALUE DUP1 ISZERO PUSH2 0x169 JUMPI PUSH0 DUP1 REVERT JUMPDEST POP PUSH2 0x172 PUSH2 0x56D JUMP JUMPDEST PUSH1 0x40 MLOAD PUSH2 0x17F SWAP2 SWAP1 PUSH2 0x707 JUMP JUMPDEST PUSH1 0x40 MLOAD DUP1 SWAP2 SUB SWAP1 RETURN JUMPDEST CALLVALUE DUP1 ISZERO PUSH2 0x193 JUMPI PUSH0 DUP1 REVERT JUMPDEST POP PUSH2 0x1AE PUSH1 0x4 DUP1 CALLDATASIZE SUB DUP2 ADD SWAP1 PUSH2 0x1A9 SWAP2 SWAP1 PUSH2 0x7D3 JUMP JUMPDEST PUSH2 0x612 JUMP JUMPDEST PUSH1 0x40 MLOAD PUSH2 0x1BB SWAP2 SWAP1 PUSH2 0x80D JUMP JUMPDEST PUSH1 0x40 MLOAD DUP1 SWAP2 SUB SWAP1 RETURN JUMPDEST PUSH0 DUP1 PUSH20 0xC630C6BFF4D198F30D9AB86F89FB83F0BC3FB948 SWAP1 POP DUP1 PUSH20 0xFFFFFFFFFFFFFFFFFFFFFFFFFFFFFFFFFFFFFFFF AND PUSH4 0x54FD4D50 PUSH1 0x40 MLOAD DUP2 PUSH4 0xFFFFFFFF AND PUSH1 0xE0 SHL DUP2 MSTORE PUSH1 0x4 ADD PUSH1 0x20 PUSH1 0x40 MLOAD DUP1 DUP4 SUB DUP2 DUP7 GAS STATICCALL ISZERO DUP1 ISZERO PUSH2 0x226 JUMPI RETURNDATASIZE PUSH0 DUP1 RETURNDATACOPY RETURNDATASIZE PUSH0 REVERT JUMPDEST POP POP POP POP PUSH1 0x40 MLOAD RETURNDATASIZE PUSH1 0x1F NOT PUSH1 0x1F DUP3 ADD AND DUP3 ADD DUP1 PUSH1 0x40 MSTORE POP DUP2 ADD SWAP1 PUSH2 0x24A SWAP2 SWAP1 PUSH2 0x83A JUMP JUMPDEST SWAP2 POP POP SWAP1 JUMP JUMPDEST PUSH1 0x2 PUSH0 SWAP1 SLOAD SWAP1 PUSH2 0x100 EXP SWAP1 DIV PUSH20 0xFFFFFFFFFFFFFFFFFFFFFFFFFFFFFFFFFFFFFFFF AND PUSH20 0xFFFFFFFFFFFFFFFFFFFFFFFFFFFFFFFFFFFFFFFF AND CALLER PUSH20 0xFFFFFFFFFFFFFFFFFFFFFFFFFFFFFFFFFFFFFFFF AND EQ PUSH2 0x2A8 JUMPI PUSH0 DUP1 REVERT JUMPDEST CALLER PUSH20 0xFFFFFFFFFFFFFFFFFFFFFFFFFFFFFFFFFFFFFFFF AND PUSH2 0x8FC SELFBALANCE SWAP1 DUP2 ISZERO MUL SWAP1 PUSH1 0x40 MLOAD PUSH0 PUSH1 0x40 MLOAD DUP1 DUP4 SUB DUP2 DUP6 DUP9 DUP9 CALL SWAP4 POP POP POP POP ISZERO DUP1 ISZERO PUSH2 0x2EB JUMPI RETURNDATASIZE PUSH0 DUP1 RETURNDATACOPY RETURNDATASIZE PUSH0 REVERT JUMPDEST POP PUSH0 JUMPDEST PUSH1 0x1 DUP1 SLOAD SWAP1 POP DUP2 LT ISZERO PUSH2 0x38F JUMPI PUSH0 PUSH1 0x1 DUP3 DUP2 SLOAD DUP2 LT PUSH2 0x310 JUMPI PUSH2 0x30F PUSH2 0x865 JUMP JUMPDEST JUMPDEST SWAP1 PUSH0 MSTORE PUSH1 0x20 PUSH0 KECCAK256 ADD PUSH0 SWAP1 SLOAD SWAP1 PUSH2 0x100 EXP SWAP1 DIV PUSH20 0xFFFFFFFFFFFFFFFFFFFFFFFFFFFFFFFFFFFFFFFF AND SWAP1 POP PUSH0 DUP1 PUSH0 DUP4 PUSH20 0xFFFFFFFFFFFFFFFFFFFFFFFFFFFFFFFFFFFFFFFF AND PUSH20 0xFFFFFFFFFFFFFFFFFFFFFFFFFFFFFFFFFFFFFFFF AND DUP2 MSTORE PUSH1 0x20 ADD SWAP1 DUP2 MSTORE PUSH1 0x20 ADD PUSH0 KECCAK256 DUP2 SWAP1 SSTORE POP POP DUP1 DUP1 PUSH2 0x387 SWAP1 PUSH2 0x8BF JUMP JUMPDEST SWAP2 POP POP PUSH2 0x2EE JUMP JUMPDEST POP PUSH0 PUSH8 0xFFFFFFFFFFFFFFFF DUP2 GT ISZERO PUSH2 0x3AA JUMPI PUSH2 0x3A9 PUSH2 0x906 JUMP JUMPDEST JUMPDEST PUSH1 0x40 MLOAD SWAP1 DUP1 DUP3 MSTORE DUP1 PUSH1 0x20 MUL PUSH1 0x20 ADD DUP3 ADD PUSH1 0x40 MSTORE DUP1 ISZERO PUSH2 0x3D8 JUMPI DUP2 PUSH1 0x20 ADD PUSH1 0x20 DUP3 MUL DUP1 CALLDATASIZE DUP4 CALLDATACOPY DUP1 DUP3 ADD SWAP2 POP POP SWAP1 POP JUMPDEST POP PUSH1 0x1 SWAP1 DUP1 MLOAD SWAP1 PUSH1 0x20 ADD SWAP1 PUSH2 0x3EE SWAP3 SWAP2 SWAP1 PUSH2 0x64D JUMP JUMPDEST POP JUMP JUMPDEST PUSH0 PUSH1 0x20 MSTORE DUP1 PUSH0 MSTORE PUSH1 0x40 PUSH0 KECCAK256 PUSH0 SWAP2 POP SWAP1 POP SLOAD DUP2 JUMP JUMPDEST PUSH0 PUSH7 0x6A94D74F430000 SWAP1 POP DUP1 PUSH2 0x41A CALLVALUE PUSH2 0x510 JUMP JUMPDEST LT ISZERO PUSH2 0x45B JUMPI PUSH1 0x40 MLOAD PUSH32 0x8C379A000000000000000000000000000000000000000000000000000000000 DUP2 MSTORE PUSH1 0x4 ADD PUSH2 0x452 SWAP1 PUSH2 0x98D JUMP JUMPDEST PUSH1 0x40 MLOAD DUP1 SWAP2 SUB SWAP1 REVERT JUMPDEST CALLVALUE PUSH0 DUP1 CALLER PUSH20 0xFFFFFFFFFFFFFFFFFFFFFFFFFFFFFFFFFFFFFFFF AND PUSH20 0xFFFFFFFFFFFFFFFFFFFFFFFFFFFFFFFFFFFFFFFF AND DUP2 MSTORE PUSH1 0x20 ADD SWAP1 DUP2 MSTORE PUSH1 0x20 ADD PUSH0 KECCAK256 PUSH0 DUP3 DUP3 SLOAD PUSH2 0x4A6 SWAP2 SWAP1 PUSH2 0x9AB JUMP JUMPDEST SWAP3 POP POP DUP2 SWAP1 SSTORE POP PUSH1 0x1 CALLER SWAP1 DUP1 PUSH1 0x1 DUP2 SLOAD ADD DUP1 DUP3 SSTORE DUP1 SWAP2 POP POP PUSH1 0x1 SWAP1 SUB SWAP1 PUSH0 MSTORE PUSH1 0x20 PUSH0 KECCAK256 ADD PUSH0 SWAP1 SWAP2 SWAP1 SWAP2 SWAP1 SWAP2 PUSH2 0x100 EXP DUP2 SLOAD DUP2 PUSH20 0xFFFFFFFFFFFFFFFFFFFFFFFFFFFFFFFFFFFFFFFF MUL NOT AND SWAP1 DUP4 PUSH20 0xFFFFFFFFFFFFFFFFFFFFFFFFFFFFFFFFFFFFFFFF AND MUL OR SWAP1 SSTORE POP POP JUMP JUMPDEST PUSH0 DUP1 PUSH2 0x51A PUSH2 0x56D JUMP JUMPDEST SWAP1 POP PUSH0 PUSH8 0x8AC7230489E80000 DUP5 DUP4 PUSH2 0x532 SWAP2 SWAP1 PUSH2 0x9DE JUMP JUMPDEST PUSH2 0x53C SWAP2 SWAP1 PUSH2 0xA4C JUMP JUMPDEST SWAP1 POP DUP1 SWAP3 POP POP POP SWAP2 SWAP1 POP JUMP JUMPDEST PUSH1 0x2 PUSH0 SWAP1 SLOAD SWAP1 PUSH2 0x100 EXP SWAP1 DIV PUSH20 0xFFFFFFFFFFFFFFFFFFFFFFFFFFFFFFFFFFFFFFFF AND DUP2 JUMP JUMPDEST PUSH0 DUP1 PUSH20 0xC630C6BFF4D198F30D9AB86F89FB83F0BC3FB948 SWAP1 POP PUSH0 DUP2 PUSH20 0xFFFFFFFFFFFFFFFFFFFFFFFFFFFFFFFFFFFFFFFF AND PUSH4 0xFEAF968C PUSH1 0x40 MLOAD DUP2 PUSH4 0xFFFFFFFF AND PUSH1 0xE0 SHL DUP2 MSTORE PUSH1 0x4 ADD PUSH1 0xA0 PUSH1 0x40 MLOAD DUP1 DUP4 SUB DUP2 DUP7 GAS STATICCALL ISZERO DUP1 ISZERO PUSH2 0x5D0 JUMPI RETURNDATASIZE PUSH0 DUP1 RETURNDATACOPY RETURNDATASIZE PUSH0 REVERT JUMPDEST POP POP POP POP PUSH1 0x40 MLOAD RETURNDATASIZE PUSH1 0x1F NOT PUSH1 0x1F DUP3 ADD AND DUP3 ADD DUP1 PUSH1 0x40 MSTORE POP DUP2 ADD SWAP1 PUSH2 0x5F4 SWAP2 SWAP1 PUSH2 0xAEE JUMP JUMPDEST POP POP POP SWAP2 POP POP PUSH5 0x2540BE400 DUP2 PUSH2 0x60B SWAP2 SWAP1 PUSH2 0xB65 JUMP JUMPDEST SWAP3 POP POP POP SWAP1 JUMP JUMPDEST PUSH1 0x1 DUP2 DUP2 SLOAD DUP2 LT PUSH2 0x621 JUMPI PUSH0 DUP1 REVERT JUMPDEST SWAP1 PUSH0 MSTORE PUSH1 0x20 PUSH0 KECCAK256 ADD PUSH0 SWAP2 POP SLOAD SWAP1 PUSH2 0x100 EXP SWAP1 DIV PUSH20 0xFFFFFFFFFFFFFFFFFFFFFFFFFFFFFFFFFFFFFFFF AND DUP2 JUMP JUMPDEST DUP3 DUP1 SLOAD DUP3 DUP3 SSTORE SWAP1 PUSH0 MSTORE PUSH1 0x20 PUSH0 KECCAK256 SWAP1 DUP2 ADD SWAP3 DUP3 ISZERO PUSH2 0x6C3 JUMPI SWAP2 PUSH1 0x20 MUL DUP3 ADD JUMPDEST DUP3 DUP2 GT ISZERO PUSH2 0x6C2 JUMPI DUP3 MLOAD DUP3 PUSH0 PUSH2 0x100 EXP DUP2 SLOAD DUP2 PUSH20 0xFFFFFFFFFFFFFFFFFFFFFFFFFFFFFFFFFFFFFFFF MUL NOT AND SWAP1 DUP4 PUSH20 0xFFFFFFFFFFFFFFFFFFFFFFFFFFFFFFFFFFFFFFFF AND MUL OR SWAP1 SSTORE POP SWAP2 PUSH1 0x20 ADD SWAP2 SWAP1 PUSH1 0x1 ADD SWAP1 PUSH2 0x66B JUMP JUMPDEST JUMPDEST POP SWAP1 POP PUSH2 0x6D0 SWAP2 SWAP1 PUSH2 0x6D4 JUMP JUMPDEST POP SWAP1 JUMP JUMPDEST JUMPDEST DUP1 DUP3 GT ISZERO PUSH2 0x6EB JUMPI PUSH0 DUP2 PUSH0 SWAP1 SSTORE POP PUSH1 0x1 ADD PUSH2 0x6D5 JUMP JUMPDEST POP SWAP1 JUMP JUMPDEST PUSH0 DUP2 SWAP1 POP SWAP2 SWAP1 POP JUMP JUMPDEST PUSH2 0x701 DUP2 PUSH2 0x6EF JUMP JUMPDEST DUP3 MSTORE POP POP JUMP JUMPDEST PUSH0 PUSH1 0x20 DUP3 ADD SWAP1 POP PUSH2 0x71A PUSH0 DUP4 ADD DUP5 PUSH2 0x6F8 JUMP JUMPDEST SWAP3 SWAP2 POP POP JUMP JUMPDEST PUSH0 DUP1 REVERT JUMPDEST PUSH0 PUSH20 0xFFFFFFFFFFFFFFFFFFFFFFFFFFFFFFFFFFFFFFFF DUP3 AND SWAP1 POP SWAP2 SWAP1 POP JUMP JUMPDEST PUSH0 PUSH2 0x74D DUP3 PUSH2 0x724 JUMP JUMPDEST SWAP1 POP SWAP2 SWAP1 POP JUMP JUMPDEST PUSH2 0x75D DUP2 PUSH2 0x743 JUMP JUMPDEST DUP2 EQ PUSH2 0x767 JUMPI PUSH0 DUP1 REVERT JUMPDEST POP JUMP JUMPDEST PUSH0 DUP2 CALLDATALOAD SWAP1 POP PUSH2 0x778 DUP2 PUSH2 0x754 JUMP JUMPDEST SWAP3 SWAP2 POP POP JUMP JUMPDEST PUSH0 PUSH1 0x20 DUP3 DUP5 SUB SLT ISZERO PUSH2 0x793 JUMPI PUSH2 0x792 PUSH2 0x720 JUMP JUMPDEST JUMPDEST PUSH0 PUSH2 0x7A0 DUP5 DUP3 DUP6 ADD PUSH2 0x76A JUMP JUMPDEST SWAP2 POP POP SWAP3 SWAP2 POP POP JUMP JUMPDEST PUSH2 0x7B2 DUP2 PUSH2 0x6EF JUMP JUMPDEST DUP2 EQ PUSH2 0x7BC JUMPI PUSH0 DUP1 REVERT JUMPDEST POP JUMP JUMPDEST PUSH0 DUP2 CALLDATALOAD SWAP1 POP PUSH2 0x7CD DUP2 PUSH2 0x7A9 JUMP JUMPDEST SWAP3 SWAP2 POP POP JUMP JUMPDEST PUSH0 PUSH1 0x20 DUP3 DUP5 SUB SLT ISZERO PUSH2 0x7E8 JUMPI PUSH2 0x7E7 PUSH2 0x720 JUMP JUMPDEST JUMPDEST PUSH0 PUSH2 0x7F5 DUP5 DUP3 DUP6 ADD PUSH2 0x7BF JUMP JUMPDEST SWAP2 POP POP SWAP3 SWAP2 POP POP JUMP JUMPDEST PUSH2 0x807 DUP2 PUSH2 0x743 JUMP JUMPDEST DUP3 MSTORE POP POP JUMP JUMPDEST PUSH0 PUSH1 0x20 DUP3 ADD SWAP1 POP PUSH2 0x820 PUSH0 DUP4 ADD DUP5 PUSH2 0x7FE JUMP JUMPDEST SWAP3 SWAP2 POP POP JUMP JUMPDEST PUSH0 DUP2 MLOAD SWAP1 POP PUSH2 0x834 DUP2 PUSH2 0x7A9 JUMP JUMPDEST SWAP3 SWAP2 POP POP JUMP JUMPDEST PUSH0 PUSH1 0x20 DUP3 DUP5 SUB SLT ISZERO PUSH2 0x84F JUMPI PUSH2 0x84E PUSH2 0x720 JUMP JUMPDEST JUMPDEST PUSH0 PUSH2 0x85C DUP5 DUP3 DUP6 ADD PUSH2 0x826 JUMP JUMPDEST SWAP2 POP POP SWAP3 SWAP2 POP POP JUMP JUMPDEST PUSH32 0x4E487B7100000000000000000000000000000000000000000000000000000000 PUSH0 MSTORE PUSH1 0x32 PUSH1 0x4 MSTORE PUSH1 0x24 PUSH0 REVERT JUMPDEST PUSH32 0x4E487B7100000000000000000000000000000000000000000000000000000000 PUSH0 MSTORE PUSH1 0x11 PUSH1 0x4 MSTORE PUSH1 0x24 PUSH0 REVERT JUMPDEST PUSH0 PUSH2 0x8C9 DUP3 PUSH2 0x6EF JUMP JUMPDEST SWAP2 POP PUSH32 0xFFFFFFFFFFFFFFFFFFFFFFFFFFFFFFFFFFFFFFFFFFFFFFFFFFFFFFFFFFFFFFFF DUP3 SUB PUSH2 0x8FB JUMPI PUSH2 0x8FA PUSH2 0x892 JUMP JUMPDEST JUMPDEST PUSH1 0x1 DUP3 ADD SWAP1 POP SWAP2 SWAP1 POP JUMP JUMPDEST PUSH32 0x4E487B7100000000000000000000000000000000000000000000000000000000 PUSH0 MSTORE PUSH1 0x41 PUSH1 0x4 MSTORE PUSH1 0x24 PUSH0 REVERT JUMPDEST PUSH0 DUP3 DUP3 MSTORE PUSH1 0x20 DUP3 ADD SWAP1 POP SWAP3 SWAP2 POP POP JUMP JUMPDEST PUSH32 0x596F75206E65656420746F207370656E64206D6F726520455448210000000000 PUSH0 DUP3 ADD MSTORE POP JUMP JUMPDEST PUSH0 PUSH2 0x977 PUSH1 0x1B DUP4 PUSH2 0x933 JUMP JUMPDEST SWAP2 POP PUSH2 0x982 DUP3 PUSH2 0x943 JUMP JUMPDEST PUSH1 0x20 DUP3 ADD SWAP1 POP SWAP2 SWAP1 POP JUMP JUMPDEST PUSH0 PUSH1 0x20 DUP3 ADD SWAP1 POP DUP2 DUP2 SUB PUSH0 DUP4 ADD MSTORE PUSH2 0x9A4 DUP2 PUSH2 0x96B JUMP JUMPDEST SWAP1 POP SWAP2 SWAP1 POP JUMP JUMPDEST PUSH0 PUSH2 0x9B5 DUP3 PUSH2 0x6EF JUMP JUMPDEST SWAP2 POP PUSH2 0x9C0 DUP4 PUSH2 0x6EF JUMP JUMPDEST SWAP3 POP DUP3 DUP3 ADD SWAP1 POP DUP1 DUP3 GT ISZERO PUSH2 0x9D8 JUMPI PUSH2 0x9D7 PUSH2 0x892 JUMP JUMPDEST JUMPDEST SWAP3 SWAP2 POP POP JUMP JUMPDEST PUSH0 PUSH2 0x9E8 DUP3 PUSH2 0x6EF JUMP JUMPDEST SWAP2 POP PUSH2 0x9F3 DUP4 PUSH2 0x6EF JUMP JUMPDEST SWAP3 POP DUP3 DUP3 MUL PUSH2 0xA01 DUP2 PUSH2 0x6EF JUMP JUMPDEST SWAP2 POP DUP3 DUP3 DIV DUP5 EQ DUP4 ISZERO OR PUSH2 0xA18 JUMPI PUSH2 0xA17 PUSH2 0x892 JUMP JUMPDEST JUMPDEST POP SWAP3 SWAP2 POP POP JUMP JUMPDEST PUSH32 0x4E487B7100000000000000000000000000000000000000000000000000000000 PUSH0 MSTORE PUSH1 0x12 PUSH1 0x4 MSTORE PUSH1 0x24 PUSH0 REVERT JUMPDEST PUSH0 PUSH2 0xA56 DUP3 PUSH2 0x6EF JUMP JUMPDEST SWAP2 POP PUSH2 0xA61 DUP4 PUSH2 0x6EF JUMP JUMPDEST SWAP3 POP DUP3 PUSH2 0xA71 JUMPI PUSH2 0xA70 PUSH2 0xA1F JUMP JUMPDEST JUMPDEST DUP3 DUP3 DIV SWAP1 POP SWAP3 SWAP2 POP POP JUMP JUMPDEST PUSH0 PUSH10 0xFFFFFFFFFFFFFFFFFFFF DUP3 AND SWAP1 POP SWAP2 SWAP1 POP JUMP JUMPDEST PUSH2 0xA9A DUP2 PUSH2 0xA7C JUMP JUMPDEST DUP2 EQ PUSH2 0xAA4 JUMPI PUSH0 DUP1 REVERT JUMPDEST POP JUMP JUMPDEST PUSH0 DUP2 MLOAD SWAP1 POP PUSH2 0xAB5 DUP2 PUSH2 0xA91 JUMP JUMPDEST SWAP3 SWAP2 POP POP JUMP JUMPDEST PUSH0 DUP2 SWAP1 POP SWAP2 SWAP1 POP JUMP JUMPDEST PUSH2 0xACD DUP2 PUSH2 0xABB JUMP JUMPDEST DUP2 EQ PUSH2 0xAD7 JUMPI PUSH0 DUP1 REVERT JUMPDEST POP JUMP JUMPDEST PUSH0 DUP2 MLOAD SWAP1 POP PUSH2 0xAE8 DUP2 PUSH2 0xAC4 JUMP JUMPDEST SWAP3 SWAP2 POP POP JUMP JUMPDEST PUSH0 DUP1 PUSH0 DUP1 PUSH0 PUSH1 0xA0 DUP7 DUP9 SUB SLT ISZERO PUSH2 0xB07 JUMPI PUSH2 0xB06 PUSH2 0x720 JUMP JUMPDEST JUMPDEST PUSH0 PUSH2 0xB14 DUP9 DUP3 DUP10 ADD PUSH2 0xAA7 JUMP JUMPDEST SWAP6 POP POP PUSH1 0x20 PUSH2 0xB25 DUP9 DUP3 DUP10 ADD PUSH2 0xADA JUMP JUMPDEST SWAP5 POP POP PUSH1 0x40 PUSH2 0xB36 DUP9 DUP3 DUP10 ADD PUSH2 0x826 JUMP JUMPDEST SWAP4 POP POP PUSH1 0x60 PUSH2 0xB47 DUP9 DUP3 DUP10 ADD PUSH2 0x826 JUMP JUMPDEST SWAP3 POP POP PUSH1 0x80 PUSH2 0xB58 DUP9 DUP3 DUP10 ADD PUSH2 0xAA7 JUMP JUMPDEST SWAP2 POP POP SWAP3 SWAP6 POP SWAP3 SWAP6 SWAP1 SWAP4 POP JUMP JUMPDEST PUSH0 PUSH2 0xB6F DUP3 PUSH2 0xABB JUMP JUMPDEST SWAP2 POP PUSH2 0xB7A DUP4 PUSH2 0xABB JUMP JUMPDEST SWAP3 POP DUP3 DUP3 MUL PUSH2 0xB88 DUP2 PUSH2 0xABB JUMP JUMPDEST SWAP2 POP PUSH32 0x8000000000000000000000000000000000000000000000000000000000000000 DUP5 EQ PUSH0 DUP5 SLT AND ISZERO PUSH2 0xBBF JUMPI PUSH2 0xBBE PUSH2 0x892 JUMP JUMPDEST JUMPDEST DUP3 DUP3 SDIV DUP5 EQ DUP4 ISZERO OR PUSH2 0xBD4 JUMPI PUSH2 0xBD3 PUSH2 0x892 JUMP JUMPDEST JUMPDEST POP SWAP3 SWAP2 POP POP JUMP INVALID LOG2 PUSH5 0x6970667358 0x22 SLT KECCAK256 0x5E 0x24 0x23 0xCD CALLVALUE SWAP1 PUSH30 0x9A8CD9F573E580DA61FC3D6FD513547E29E3AE22935BBBD6F964736F6C63 NUMBER STOP ADDMOD EQ STOP CALLER "
				},
				"gasEstimates": {
					"creation": {
						"codeDepositCost": "617800",
						"executionCost": "24914",
						"totalCost": "642714"
					},
					"external": {
						"Fund()": "infinite",
						"addressToAmountFunded(address)": "2846",
						"funders(uint256)": "5010",
						"getConversionRate(uint256)": "infinite",
						"getPrice()": "infinite",
						"getVersion()": "infinite",
						"owner()": "2530",
						"withdraw()": "infinite"
					}
				},
				"methodIdentifiers": {
					"Fund()": "6ce1417e",
					"addressToAmountFunded(address)": "3e47d6f3",
					"funders(uint256)": "dc0d3dff",
					"getConversionRate(uint256)": "6e5b6b28",
					"getPrice()": "98d5fdca",
					"getVersion()": "0d8e6e2c",
					"owner()": "8da5cb5b",
					"withdraw()": "3ccfd60b"
				}
			},
			"storageLayout": {
				"storage": [
					{
						"astId": 52,
						"contract": "contracts/FundMe.sol:BDTFundMe",
						"label": "addressToAmountFunded",
						"offset": 0,
						"slot": "0",
						"type": "t_mapping(t_address,t_uint256)"
					},
					{
						"astId": 55,
						"contract": "contracts/FundMe.sol:BDTFundMe",
						"label": "funders",
						"offset": 0,
						"slot": "1",
						"type": "t_array(t_address)dyn_storage"
					},
					{
						"astId": 57,
						"contract": "contracts/FundMe.sol:BDTFundMe",
						"label": "owner",
						"offset": 0,
						"slot": "2",
						"type": "t_address"
					}
				],
				"types": {
					"t_address": {
						"encoding": "inplace",
						"label": "address",
						"numberOfBytes": "20"
					},
					"t_array(t_address)dyn_storage": {
						"base": "t_address",
						"encoding": "dynamic_array",
						"label": "address[]",
						"numberOfBytes": "32"
					},
					"t_mapping(t_address,t_uint256)": {
						"encoding": "mapping",
						"key": "t_address",
						"label": "mapping(address => uint256)",
						"numberOfBytes": "32",
						"value": "t_uint256"
					},
					"t_uint256": {
						"encoding": "inplace",
						"label": "uint256",
						"numberOfBytes": "32"
					}
				}
			},
			"userdoc": {
				"kind": "user",
				"methods": {},
				"version": 1
			}
		}
	}
}