{
	"contracts/BTDTokenSwap.sol": {
		"BTDTokenSwap": {
			"abi": [
				{
					"inputs": [
						{
							"internalType": "address",
							"name": "_token1",
							"type": "address"
						},
						{
							"internalType": "address",
							"name": "_owner1",
							"type": "address"
						},
						{
							"internalType": "address",
							"name": "_token2",
							"type": "address"
						},
						{
							"internalType": "address",
							"name": "_owner2",
							"type": "address"
						}
					],
					"stateMutability": "nonpayable",
					"type": "constructor"
				},
				{
					"inputs": [
						{
							"internalType": "uint256",
							"name": "bdtAmount",
							"type": "uint256"
						}
					],
					"name": "getConversionRate",
					"outputs": [
						{
							"internalType": "uint256",
							"name": "",
							"type": "uint256"
						}
					],
					"stateMutability": "pure",
					"type": "function"
				},
				{
					"inputs": [],
					"name": "getPrice",
					"outputs": [
						{
							"internalType": "uint256",
							"name": "",
							"type": "uint256"
						}
					],
					"stateMutability": "pure",
					"type": "function"
				},
				{
					"inputs": [],
					"name": "owner1",
					"outputs": [
						{
							"internalType": "address",
							"name": "",
							"type": "address"
						}
					],
					"stateMutability": "view",
					"type": "function"
				},
				{
					"inputs": [],
					"name": "owner2",
					"outputs": [
						{
							"internalType": "address",
							"name": "",
							"type": "address"
						}
					],
					"stateMutability": "view",
					"type": "function"
				},
				{
					"inputs": [
						{
							"internalType": "uint256",
							"name": "_amount1",
							"type": "uint256"
						},
						{
							"internalType": "uint256",
							"name": "_amount2",
							"type": "uint256"
						}
					],
					"name": "swap",
					"outputs": [],
					"stateMutability": "nonpayable",
					"type": "function"
				},
				{
					"inputs": [],
					"name": "token1",
					"outputs": [
						{
							"internalType": "contract IERC20",
							"name": "",
							"type": "address"
						}
					],
					"stateMutability": "view",
					"type": "function"
				},
				{
					"inputs": [],
					"name": "token2",
					"outputs": [
						{
							"internalType": "contract IERC20",
							"name": "",
							"type": "address"
						}
					],
					"stateMutability": "view",
					"type": "function"
				}
			],
			"devdoc": {
				"kind": "dev",
				"methods": {},
				"version": 1
			},
			"evm": {
				"assembly": "    /* \"contracts/BTDTokenSwap.sol\":351:3607  contract BTDTokenSwap{... */\n  mstore(0x40, 0x80)\n    /* \"contracts/BTDTokenSwap.sol\":426:468  0xc630c6bFF4d198F30d9Ab86F89FB83F0bc3fb948 */\n  0xc630c6bff4d198f30d9ab86f89fb83f0bc3fb948\n    /* \"contracts/BTDTokenSwap.sol\":404:468  address public owner1=0xc630c6bFF4d198F30d9Ab86F89FB83F0bc3fb948 */\n  0x01\n  exp(0x0100, 0x00)\n  dup2\n  sload\n  dup2\n  0xffffffffffffffffffffffffffffffffffffffff\n  mul\n  not\n  and\n  swap1\n  dup4\n  0xffffffffffffffffffffffffffffffffffffffff\n  and\n  mul\n  or\n  swap1\n  sstore\n  pop\n    /* \"contracts/BTDTokenSwap.sol\":554:760  constructor(address _token1, address _owner1, address _token2, address _owner2){... */\n  callvalue\n  dup1\n  iszero\n  tag_1\n  jumpi\n  0x00\n  dup1\n  revert\ntag_1:\n  pop\n  mload(0x40)\n  sub(codesize, bytecodeSize)\n  dup1\n  bytecodeSize\n  dup4\n  codecopy\n  dup2\n  dup2\n  add\n  0x40\n  mstore\n  dup2\n  add\n  swap1\n  tag_2\n  swap2\n  swap1\n  tag_3\n  jump\t// in\ntag_2:\n    /* \"contracts/BTDTokenSwap.sol\":659:666  _token1 */\n  dup4\n    /* \"contracts/BTDTokenSwap.sol\":643:649  token1 */\n  0x00\n  dup1\n    /* \"contracts/BTDTokenSwap.sol\":643:667  token1 = IERC20(_token1) */\n  0x0100\n  exp\n  dup2\n  sload\n  dup2\n  0xffffffffffffffffffffffffffffffffffffffff\n  mul\n  not\n  and\n  swap1\n  dup4\n  0xffffffffffffffffffffffffffffffffffffffff\n  and\n  mul\n  or\n  swap1\n  sstore\n  pop\n    /* \"contracts/BTDTokenSwap.sol\":686:693  _owner1 */\n  dup3\n    /* \"contracts/BTDTokenSwap.sol\":677:683  owner1 */\n  0x01\n  0x00\n    /* \"contracts/BTDTokenSwap.sol\":677:693  owner1 = _owner1 */\n  0x0100\n  exp\n  dup2\n  sload\n  dup2\n  0xffffffffffffffffffffffffffffffffffffffff\n  mul\n  not\n  and\n  swap1\n  dup4\n  0xffffffffffffffffffffffffffffffffffffffff\n  and\n  mul\n  or\n  swap1\n  sstore\n  pop\n    /* \"contracts/BTDTokenSwap.sol\":719:726  _token2 */\n  dup2\n    /* \"contracts/BTDTokenSwap.sol\":703:709  token2 */\n  0x02\n  0x00\n    /* \"contracts/BTDTokenSwap.sol\":703:727  token2 = IERC20(_token2) */\n  0x0100\n  exp\n  dup2\n  sload\n  dup2\n  0xffffffffffffffffffffffffffffffffffffffff\n  mul\n  not\n  and\n  swap1\n  dup4\n  0xffffffffffffffffffffffffffffffffffffffff\n  and\n  mul\n  or\n  swap1\n  sstore\n  pop\n    /* \"contracts/BTDTokenSwap.sol\":746:753  _owner2 */\n  dup1\n    /* \"contracts/BTDTokenSwap.sol\":737:743  owner2 */\n  0x03\n  0x00\n    /* \"contracts/BTDTokenSwap.sol\":737:753  owner2 = _owner2 */\n  0x0100\n  exp\n  dup2\n  sload\n  dup2\n  0xffffffffffffffffffffffffffffffffffffffff\n  mul\n  not\n  and\n  swap1\n  dup4\n  0xffffffffffffffffffffffffffffffffffffffff\n  and\n  mul\n  or\n  swap1\n  sstore\n  pop\n    /* \"contracts/BTDTokenSwap.sol\":554:760  constructor(address _token1, address _owner1, address _token2, address _owner2){... */\n  pop\n  pop\n  pop\n  pop\n    /* \"contracts/BTDTokenSwap.sol\":351:3607  contract BTDTokenSwap{... */\n  jump(tag_6)\n    /* \"#utility.yul\":88:205   */\ntag_8:\n    /* \"#utility.yul\":197:198   */\n  0x00\n    /* \"#utility.yul\":194:195   */\n  dup1\n    /* \"#utility.yul\":187:199   */\n  revert\n    /* \"#utility.yul\":334:460   */\ntag_10:\n    /* \"#utility.yul\":371:378   */\n  0x00\n    /* \"#utility.yul\":411:453   */\n  0xffffffffffffffffffffffffffffffffffffffff\n    /* \"#utility.yul\":404:409   */\n  dup3\n    /* \"#utility.yul\":400:454   */\n  and\n    /* \"#utility.yul\":389:454   */\n  swap1\n  pop\n    /* \"#utility.yul\":334:460   */\n  swap2\n  swap1\n  pop\n  jump\t// out\n    /* \"#utility.yul\":466:562   */\ntag_11:\n    /* \"#utility.yul\":503:510   */\n  0x00\n    /* \"#utility.yul\":532:556   */\n  tag_20\n    /* \"#utility.yul\":550:555   */\n  dup3\n    /* \"#utility.yul\":532:556   */\n  tag_10\n  jump\t// in\ntag_20:\n    /* \"#utility.yul\":521:556   */\n  swap1\n  pop\n    /* \"#utility.yul\":466:562   */\n  swap2\n  swap1\n  pop\n  jump\t// out\n    /* \"#utility.yul\":568:690   */\ntag_12:\n    /* \"#utility.yul\":641:665   */\n  tag_22\n    /* \"#utility.yul\":659:664   */\n  dup2\n    /* \"#utility.yul\":641:665   */\n  tag_11\n  jump\t// in\ntag_22:\n    /* \"#utility.yul\":634:639   */\n  dup2\n    /* \"#utility.yul\":631:666   */\n  eq\n    /* \"#utility.yul\":621:684   */\n  tag_23\n  jumpi\n    /* \"#utility.yul\":680:681   */\n  0x00\n    /* \"#utility.yul\":677:678   */\n  dup1\n    /* \"#utility.yul\":670:682   */\n  revert\n    /* \"#utility.yul\":621:684   */\ntag_23:\n    /* \"#utility.yul\":568:690   */\n  pop\n  jump\t// out\n    /* \"#utility.yul\":696:839   */\ntag_13:\n    /* \"#utility.yul\":753:758   */\n  0x00\n    /* \"#utility.yul\":784:790   */\n  dup2\n    /* \"#utility.yul\":778:791   */\n  mload\n    /* \"#utility.yul\":769:791   */\n  swap1\n  pop\n    /* \"#utility.yul\":800:833   */\n  tag_25\n    /* \"#utility.yul\":827:832   */\n  dup2\n    /* \"#utility.yul\":800:833   */\n  tag_12\n  jump\t// in\ntag_25:\n    /* \"#utility.yul\":696:839   */\n  swap3\n  swap2\n  pop\n  pop\n  jump\t// out\n    /* \"#utility.yul\":845:1665   */\ntag_3:\n    /* \"#utility.yul\":942:948   */\n  0x00\n    /* \"#utility.yul\":950:956   */\n  dup1\n    /* \"#utility.yul\":958:964   */\n  0x00\n    /* \"#utility.yul\":966:972   */\n  dup1\n    /* \"#utility.yul\":1015:1018   */\n  0x80\n    /* \"#utility.yul\":1003:1012   */\n  dup6\n    /* \"#utility.yul\":994:1001   */\n  dup8\n    /* \"#utility.yul\":990:1013   */\n  sub\n    /* \"#utility.yul\":986:1019   */\n  slt\n    /* \"#utility.yul\":983:1103   */\n  iszero\n  tag_27\n  jumpi\n    /* \"#utility.yul\":1022:1101   */\n  tag_28\n  tag_8\n  jump\t// in\ntag_28:\n    /* \"#utility.yul\":983:1103   */\ntag_27:\n    /* \"#utility.yul\":1142:1143   */\n  0x00\n    /* \"#utility.yul\":1167:1231   */\n  tag_29\n    /* \"#utility.yul\":1223:1230   */\n  dup8\n    /* \"#utility.yul\":1214:1220   */\n  dup3\n    /* \"#utility.yul\":1203:1212   */\n  dup9\n    /* \"#utility.yul\":1199:1221   */\n  add\n    /* \"#utility.yul\":1167:1231   */\n  tag_13\n  jump\t// in\ntag_29:\n    /* \"#utility.yul\":1157:1231   */\n  swap5\n  pop\n    /* \"#utility.yul\":1113:1241   */\n  pop\n    /* \"#utility.yul\":1280:1282   */\n  0x20\n    /* \"#utility.yul\":1306:1370   */\n  tag_30\n    /* \"#utility.yul\":1362:1369   */\n  dup8\n    /* \"#utility.yul\":1353:1359   */\n  dup3\n    /* \"#utility.yul\":1342:1351   */\n  dup9\n    /* \"#utility.yul\":1338:1360   */\n  add\n    /* \"#utility.yul\":1306:1370   */\n  tag_13\n  jump\t// in\ntag_30:\n    /* \"#utility.yul\":1296:1370   */\n  swap4\n  pop\n    /* \"#utility.yul\":1251:1380   */\n  pop\n    /* \"#utility.yul\":1419:1421   */\n  0x40\n    /* \"#utility.yul\":1445:1509   */\n  tag_31\n    /* \"#utility.yul\":1501:1508   */\n  dup8\n    /* \"#utility.yul\":1492:1498   */\n  dup3\n    /* \"#utility.yul\":1481:1490   */\n  dup9\n    /* \"#utility.yul\":1477:1499   */\n  add\n    /* \"#utility.yul\":1445:1509   */\n  tag_13\n  jump\t// in\ntag_31:\n    /* \"#utility.yul\":1435:1509   */\n  swap3\n  pop\n    /* \"#utility.yul\":1390:1519   */\n  pop\n    /* \"#utility.yul\":1558:1560   */\n  0x60\n    /* \"#utility.yul\":1584:1648   */\n  tag_32\n    /* \"#utility.yul\":1640:1647   */\n  dup8\n    /* \"#utility.yul\":1631:1637   */\n  dup3\n    /* \"#utility.yul\":1620:1629   */\n  dup9\n    /* \"#utility.yul\":1616:1638   */\n  add\n    /* \"#utility.yul\":1584:1648   */\n  tag_13\n  jump\t// in\ntag_32:\n    /* \"#utility.yul\":1574:1648   */\n  swap2\n  pop\n    /* \"#utility.yul\":1529:1658   */\n  pop\n    /* \"#utility.yul\":845:1665   */\n  swap3\n  swap6\n  swap2\n  swap5\n  pop\n  swap3\n  pop\n  jump\t// out\n    /* \"contracts/BTDTokenSwap.sol\":351:3607  contract BTDTokenSwap{... */\ntag_6:\n  dataSize(sub_0)\n  dup1\n  dataOffset(sub_0)\n  0x00\n  codecopy\n  0x00\n  return\nstop\n\nsub_0: assembly {\n        /* \"contracts/BTDTokenSwap.sol\":351:3607  contract BTDTokenSwap{... */\n      mstore(0x40, 0x80)\n      callvalue\n      dup1\n      iszero\n      tag_1\n      jumpi\n      0x00\n      dup1\n      revert\n    tag_1:\n      pop\n      jumpi(tag_2, lt(calldatasize, 0x04))\n      shr(0xe0, calldataload(0x00))\n      dup1\n      0x73688914\n      gt\n      tag_10\n      jumpi\n      dup1\n      0x73688914\n      eq\n      tag_6\n      jumpi\n      dup1\n      0x98d5fdca\n      eq\n      tag_7\n      jumpi\n      dup1\n      0xd21220a7\n      eq\n      tag_8\n      jumpi\n      dup1\n      0xd96073cf\n      eq\n      tag_9\n      jumpi\n      jump(tag_2)\n    tag_10:\n      dup1\n      0x25be124e\n      eq\n      tag_3\n      jumpi\n      dup1\n      0x52709725\n      eq\n      tag_4\n      jumpi\n      dup1\n      0x6e5b6b28\n      eq\n      tag_5\n      jumpi\n    tag_2:\n      0x00\n      dup1\n      revert\n        /* \"contracts/BTDTokenSwap.sol\":474:494  IERC20 public token2 */\n    tag_3:\n      tag_11\n      tag_12\n      jump\t// in\n    tag_11:\n      mload(0x40)\n      tag_13\n      swap2\n      swap1\n      tag_14\n      jump\t// in\n    tag_13:\n      mload(0x40)\n      dup1\n      swap2\n      sub\n      swap1\n      return\n        /* \"contracts/BTDTokenSwap.sol\":500:521  address public owner2 */\n    tag_4:\n      tag_15\n      tag_16\n      jump\t// in\n    tag_15:\n      mload(0x40)\n      tag_17\n      swap2\n      swap1\n      tag_18\n      jump\t// in\n    tag_17:\n      mload(0x40)\n      dup1\n      swap2\n      sub\n      swap1\n      return\n        /* \"contracts/BTDTokenSwap.sol\":3076:3605  function getConversionRate(uint256 bdtAmount) public pure returns (uint256){//to convert the amount sent to USD... */\n    tag_5:\n      tag_19\n      0x04\n      dup1\n      calldatasize\n      sub\n      dup2\n      add\n      swap1\n      tag_20\n      swap2\n      swap1\n      tag_21\n      jump\t// in\n    tag_20:\n      tag_22\n      jump\t// in\n    tag_19:\n      mload(0x40)\n      tag_23\n      swap2\n      swap1\n      tag_24\n      jump\t// in\n    tag_23:\n      mload(0x40)\n      dup1\n      swap2\n      sub\n      swap1\n      return\n        /* \"contracts/BTDTokenSwap.sol\":404:468  address public owner1=0xc630c6bFF4d198F30d9Ab86F89FB83F0bc3fb948 */\n    tag_6:\n      tag_25\n      tag_26\n      jump\t// in\n    tag_25:\n      mload(0x40)\n      tag_27\n      swap2\n      swap1\n      tag_18\n      jump\t// in\n    tag_27:\n      mload(0x40)\n      dup1\n      swap2\n      sub\n      swap1\n      return\n        /* \"contracts/BTDTokenSwap.sol\":1692:3012  function getPrice() public pure returns (uint256){//this function gives the exchange rate between bdT and USDT from the hardcoded address... */\n    tag_7:\n      tag_28\n      tag_29\n      jump\t// in\n    tag_28:\n      mload(0x40)\n      tag_30\n      swap2\n      swap1\n      tag_24\n      jump\t// in\n    tag_30:\n      mload(0x40)\n      dup1\n      swap2\n      sub\n      swap1\n      return\n        /* \"contracts/BTDTokenSwap.sol\":378:398  IERC20 public token1 */\n    tag_8:\n      tag_31\n      tag_32\n      jump\t// in\n    tag_31:\n      mload(0x40)\n      tag_33\n      swap2\n      swap1\n      tag_14\n      jump\t// in\n    tag_33:\n      mload(0x40)\n      dup1\n      swap2\n      sub\n      swap1\n      return\n        /* \"contracts/BTDTokenSwap.sol\":771:1385  function swap(uint _amount1, uint _amount2) public {... */\n    tag_9:\n      tag_34\n      0x04\n      dup1\n      calldatasize\n      sub\n      dup2\n      add\n      swap1\n      tag_35\n      swap2\n      swap1\n      tag_36\n      jump\t// in\n    tag_35:\n      tag_37\n      jump\t// in\n    tag_34:\n      stop\n        /* \"contracts/BTDTokenSwap.sol\":474:494  IERC20 public token2 */\n    tag_12:\n      0x02\n      0x00\n      swap1\n      sload\n      swap1\n      0x0100\n      exp\n      swap1\n      div\n      0xffffffffffffffffffffffffffffffffffffffff\n      and\n      dup2\n      jump\t// out\n        /* \"contracts/BTDTokenSwap.sol\":500:521  address public owner2 */\n    tag_16:\n      0x03\n      0x00\n      swap1\n      sload\n      swap1\n      0x0100\n      exp\n      swap1\n      div\n      0xffffffffffffffffffffffffffffffffffffffff\n      and\n      dup2\n      jump\t// out\n        /* \"contracts/BTDTokenSwap.sol\":3076:3605  function getConversionRate(uint256 bdtAmount) public pure returns (uint256){//to convert the amount sent to USD... */\n    tag_22:\n        /* \"contracts/BTDTokenSwap.sol\":3143:3150  uint256 */\n      0x00\n        /* \"contracts/BTDTokenSwap.sol\":3192:3208  uint256 bdtPrice */\n      dup1\n        /* \"contracts/BTDTokenSwap.sol\":3211:3221  getPrice() */\n      tag_39\n        /* \"contracts/BTDTokenSwap.sol\":3211:3219  getPrice */\n      tag_29\n        /* \"contracts/BTDTokenSwap.sol\":3211:3221  getPrice() */\n      jump\t// in\n    tag_39:\n        /* \"contracts/BTDTokenSwap.sol\":3192:3221  uint256 bdtPrice = getPrice() */\n      swap1\n      pop\n        /* \"contracts/BTDTokenSwap.sol\":3227:3249  uint256 bdtAmountInUsd */\n      0x00\n        /* \"contracts/BTDTokenSwap.sol\":3275:3280  10E18 */\n      0x8ac7230489e80000\n        /* \"contracts/BTDTokenSwap.sol\":3264:3273  bdtAmount */\n      dup5\n        /* \"contracts/BTDTokenSwap.sol\":3253:3261  bdtPrice */\n      dup4\n        /* \"contracts/BTDTokenSwap.sol\":3253:3273  bdtPrice * bdtAmount */\n      tag_40\n      swap2\n      swap1\n      tag_41\n      jump\t// in\n    tag_40:\n        /* \"contracts/BTDTokenSwap.sol\":3252:3280  (bdtPrice * bdtAmount)/10E18 */\n      tag_42\n      swap2\n      swap1\n      tag_43\n      jump\t// in\n    tag_42:\n        /* \"contracts/BTDTokenSwap.sol\":3227:3280  uint256 bdtAmountInUsd = (bdtPrice * bdtAmount)/10E18 */\n      swap1\n      pop\n        /* \"contracts/BTDTokenSwap.sol\":3399:3413  bdtAmountInUsd */\n      dup1\n        /* \"contracts/BTDTokenSwap.sol\":3392:3413  return bdtAmountInUsd */\n      swap3\n      pop\n      pop\n      pop\n        /* \"contracts/BTDTokenSwap.sol\":3076:3605  function getConversionRate(uint256 bdtAmount) public pure returns (uint256){//to convert the amount sent to USD... */\n      swap2\n      swap1\n      pop\n      jump\t// out\n        /* \"contracts/BTDTokenSwap.sol\":404:468  address public owner1=0xc630c6bFF4d198F30d9Ab86F89FB83F0bc3fb948 */\n    tag_26:\n      0x01\n      0x00\n      swap1\n      sload\n      swap1\n      0x0100\n      exp\n      swap1\n      div\n      0xffffffffffffffffffffffffffffffffffffffff\n      and\n      dup2\n      jump\t// out\n        /* \"contracts/BTDTokenSwap.sol\":1692:3012  function getPrice() public pure returns (uint256){//this function gives the exchange rate between bdT and USDT from the hardcoded address... */\n    tag_29:\n        /* \"contracts/BTDTokenSwap.sol\":1733:1740  uint256 */\n      0x00\n        /* \"contracts/BTDTokenSwap.sol\":1860:1873  int256 answer */\n      dup1\n        /* \"contracts/BTDTokenSwap.sol\":1876:1884  18822680 */\n      0x011f3618\n        /* \"contracts/BTDTokenSwap.sol\":1860:1884  int256 answer = 18822680 */\n      swap1\n      pop\n        /* \"contracts/BTDTokenSwap.sol\":2916:2927  10000000000 */\n      0x02540be400\n        /* \"contracts/BTDTokenSwap.sol\":2907:2913  answer */\n      dup2\n        /* \"contracts/BTDTokenSwap.sol\":2907:2927  answer * 10000000000 */\n      tag_45\n      swap2\n      swap1\n      tag_46\n      jump\t// in\n    tag_45:\n        /* \"contracts/BTDTokenSwap.sol\":2892:2928  return uint256(answer * 10000000000) */\n      swap2\n      pop\n      pop\n        /* \"contracts/BTDTokenSwap.sol\":1692:3012  function getPrice() public pure returns (uint256){//this function gives the exchange rate between bdT and USDT from the hardcoded address... */\n      swap1\n      jump\t// out\n        /* \"contracts/BTDTokenSwap.sol\":378:398  IERC20 public token1 */\n    tag_32:\n      0x00\n      dup1\n      sload\n      swap1\n      0x0100\n      exp\n      swap1\n      div\n      0xffffffffffffffffffffffffffffffffffffffff\n      and\n      dup2\n      jump\t// out\n        /* \"contracts/BTDTokenSwap.sol\":771:1385  function swap(uint _amount1, uint _amount2) public {... */\n    tag_37:\n        /* \"contracts/BTDTokenSwap.sol\":901:907  owner1 */\n      0x01\n      0x00\n      swap1\n      sload\n      swap1\n      0x0100\n      exp\n      swap1\n      div\n      0xffffffffffffffffffffffffffffffffffffffff\n      and\n        /* \"contracts/BTDTokenSwap.sol\":887:907  msg.sender == owner1 */\n      0xffffffffffffffffffffffffffffffffffffffff\n      and\n        /* \"contracts/BTDTokenSwap.sol\":887:897  msg.sender */\n      caller\n        /* \"contracts/BTDTokenSwap.sol\":887:907  msg.sender == owner1 */\n      0xffffffffffffffffffffffffffffffffffffffff\n      and\n      eq\n        /* \"contracts/BTDTokenSwap.sol\":887:931  msg.sender == owner1 || msg.sender == owner2 */\n      dup1\n      tag_48\n      jumpi\n      pop\n        /* \"contracts/BTDTokenSwap.sol\":925:931  owner2 */\n      0x03\n      0x00\n      swap1\n      sload\n      swap1\n      0x0100\n      exp\n      swap1\n      div\n      0xffffffffffffffffffffffffffffffffffffffff\n      and\n        /* \"contracts/BTDTokenSwap.sol\":911:931  msg.sender == owner2 */\n      0xffffffffffffffffffffffffffffffffffffffff\n      and\n        /* \"contracts/BTDTokenSwap.sol\":911:921  msg.sender */\n      caller\n        /* \"contracts/BTDTokenSwap.sol\":911:931  msg.sender == owner2 */\n      0xffffffffffffffffffffffffffffffffffffffff\n      and\n      eq\n        /* \"contracts/BTDTokenSwap.sol\":887:931  msg.sender == owner1 || msg.sender == owner2 */\n    tag_48:\n        /* \"contracts/BTDTokenSwap.sol\":879:950  require(msg.sender == owner1 || msg.sender == owner2, \"Not authorized\") */\n      tag_49\n      jumpi\n      mload(0x40)\n      0x08c379a000000000000000000000000000000000000000000000000000000000\n      dup2\n      mstore\n      0x04\n      add\n      tag_50\n      swap1\n      tag_51\n      jump\t// in\n    tag_50:\n      mload(0x40)\n      dup1\n      swap2\n      sub\n      swap1\n      revert\n    tag_49:\n        /* \"contracts/BTDTokenSwap.sol\":1011:1019  _amount1 */\n      dup2\n        /* \"contracts/BTDTokenSwap.sol\":968:974  token1 */\n      0x00\n      dup1\n      sload\n      swap1\n      0x0100\n      exp\n      swap1\n      div\n      0xffffffffffffffffffffffffffffffffffffffff\n      and\n        /* \"contracts/BTDTokenSwap.sol\":968:984  token1.allowance */\n      0xffffffffffffffffffffffffffffffffffffffff\n      and\n      0xdd62ed3e\n        /* \"contracts/BTDTokenSwap.sol\":985:991  owner1 */\n      0x01\n      0x00\n      swap1\n      sload\n      swap1\n      0x0100\n      exp\n      swap1\n      div\n      0xffffffffffffffffffffffffffffffffffffffff\n      and\n        /* \"contracts/BTDTokenSwap.sol\":1001:1005  this */\n      address\n        /* \"contracts/BTDTokenSwap.sol\":968:1007  token1.allowance(owner1, address(this)) */\n      mload(0x40)\n      dup4\n      0xffffffff\n      and\n      0xe0\n      shl\n      dup2\n      mstore\n      0x04\n      add\n      tag_52\n      swap3\n      swap2\n      swap1\n      tag_53\n      jump\t// in\n    tag_52:\n      0x20\n      mload(0x40)\n      dup1\n      dup4\n      sub\n      dup2\n      dup7\n      gas\n      staticcall\n      iszero\n      dup1\n      iszero\n      tag_55\n      jumpi\n      returndatasize\n      0x00\n      dup1\n      returndatacopy\n      revert(0x00, returndatasize)\n    tag_55:\n      pop\n      pop\n      pop\n      pop\n      mload(0x40)\n      returndatasize\n      not(0x1f)\n      0x1f\n      dup3\n      add\n      and\n      dup3\n      add\n      dup1\n      0x40\n      mstore\n      pop\n      dup2\n      add\n      swap1\n      tag_56\n      swap2\n      swap1\n      tag_57\n      jump\t// in\n    tag_56:\n        /* \"contracts/BTDTokenSwap.sol\":968:1019  token1.allowance(owner1, address(this)) >= _amount1 */\n      lt\n      iszero\n        /* \"contracts/BTDTokenSwap.sol\":960:1048  require(token1.allowance(owner1, address(this)) >= _amount1, \"Token 1 allowance to low\") */\n      tag_58\n      jumpi\n      mload(0x40)\n      0x08c379a000000000000000000000000000000000000000000000000000000000\n      dup2\n      mstore\n      0x04\n      add\n      tag_59\n      swap1\n      tag_60\n      jump\t// in\n    tag_59:\n      mload(0x40)\n      dup1\n      swap2\n      sub\n      swap1\n      revert\n    tag_58:\n        /* \"contracts/BTDTokenSwap.sol\":1109:1117  _amount2 */\n      dup1\n        /* \"contracts/BTDTokenSwap.sol\":1066:1072  token1 */\n      0x00\n      dup1\n      sload\n      swap1\n      0x0100\n      exp\n      swap1\n      div\n      0xffffffffffffffffffffffffffffffffffffffff\n      and\n        /* \"contracts/BTDTokenSwap.sol\":1066:1082  token1.allowance */\n      0xffffffffffffffffffffffffffffffffffffffff\n      and\n      0xdd62ed3e\n        /* \"contracts/BTDTokenSwap.sol\":1083:1089  owner2 */\n      0x03\n      0x00\n      swap1\n      sload\n      swap1\n      0x0100\n      exp\n      swap1\n      div\n      0xffffffffffffffffffffffffffffffffffffffff\n      and\n        /* \"contracts/BTDTokenSwap.sol\":1099:1103  this */\n      address\n        /* \"contracts/BTDTokenSwap.sol\":1066:1105  token1.allowance(owner2, address(this)) */\n      mload(0x40)\n      dup4\n      0xffffffff\n      and\n      0xe0\n      shl\n      dup2\n      mstore\n      0x04\n      add\n      tag_61\n      swap3\n      swap2\n      swap1\n      tag_53\n      jump\t// in\n    tag_61:\n      0x20\n      mload(0x40)\n      dup1\n      dup4\n      sub\n      dup2\n      dup7\n      gas\n      staticcall\n      iszero\n      dup1\n      iszero\n      tag_63\n      jumpi\n      returndatasize\n      0x00\n      dup1\n      returndatacopy\n      revert(0x00, returndatasize)\n    tag_63:\n      pop\n      pop\n      pop\n      pop\n      mload(0x40)\n      returndatasize\n      not(0x1f)\n      0x1f\n      dup3\n      add\n      and\n      dup3\n      add\n      dup1\n      0x40\n      mstore\n      pop\n      dup2\n      add\n      swap1\n      tag_64\n      swap2\n      swap1\n      tag_57\n      jump\t// in\n    tag_64:\n        /* \"contracts/BTDTokenSwap.sol\":1066:1117  token1.allowance(owner2, address(this)) >= _amount2 */\n      lt\n      iszero\n        /* \"contracts/BTDTokenSwap.sol\":1058:1146  require(token1.allowance(owner2, address(this)) >= _amount2, \"Token 2 allowance to low\") */\n      tag_65\n      jumpi\n      mload(0x40)\n      0x08c379a000000000000000000000000000000000000000000000000000000000\n      dup2\n      mstore\n      0x04\n      add\n      tag_66\n      swap1\n      tag_67\n      jump\t// in\n    tag_66:\n      mload(0x40)\n      dup1\n      swap2\n      sub\n      swap1\n      revert\n    tag_65:\n        /* \"contracts/BTDTokenSwap.sol\":1222:1274  _saferTransferFrom(token1, owner1, owner2, _amount1) */\n      tag_68\n        /* \"contracts/BTDTokenSwap.sol\":1241:1247  token1 */\n      0x00\n      dup1\n      sload\n      swap1\n      0x0100\n      exp\n      swap1\n      div\n      0xffffffffffffffffffffffffffffffffffffffff\n      and\n        /* \"contracts/BTDTokenSwap.sol\":1249:1255  owner1 */\n      0x01\n      0x00\n      swap1\n      sload\n      swap1\n      0x0100\n      exp\n      swap1\n      div\n      0xffffffffffffffffffffffffffffffffffffffff\n      and\n        /* \"contracts/BTDTokenSwap.sol\":1257:1263  owner2 */\n      0x03\n      0x00\n      swap1\n      sload\n      swap1\n      0x0100\n      exp\n      swap1\n      div\n      0xffffffffffffffffffffffffffffffffffffffff\n      and\n        /* \"contracts/BTDTokenSwap.sol\":1265:1273  _amount1 */\n      dup6\n        /* \"contracts/BTDTokenSwap.sol\":1222:1240  _saferTransferFrom */\n      tag_69\n        /* \"contracts/BTDTokenSwap.sol\":1222:1274  _saferTransferFrom(token1, owner1, owner2, _amount1) */\n      jump\t// in\n    tag_68:\n        /* \"contracts/BTDTokenSwap.sol\":1326:1378  _saferTransferFrom(token2, owner2, owner1, _amount2) */\n      tag_70\n        /* \"contracts/BTDTokenSwap.sol\":1345:1351  token2 */\n      0x02\n      0x00\n      swap1\n      sload\n      swap1\n      0x0100\n      exp\n      swap1\n      div\n      0xffffffffffffffffffffffffffffffffffffffff\n      and\n        /* \"contracts/BTDTokenSwap.sol\":1353:1359  owner2 */\n      0x03\n      0x00\n      swap1\n      sload\n      swap1\n      0x0100\n      exp\n      swap1\n      div\n      0xffffffffffffffffffffffffffffffffffffffff\n      and\n        /* \"contracts/BTDTokenSwap.sol\":1361:1367  owner1 */\n      0x01\n      0x00\n      swap1\n      sload\n      swap1\n      0x0100\n      exp\n      swap1\n      div\n      0xffffffffffffffffffffffffffffffffffffffff\n      and\n        /* \"contracts/BTDTokenSwap.sol\":1369:1377  _amount2 */\n      dup5\n        /* \"contracts/BTDTokenSwap.sol\":1326:1344  _saferTransferFrom */\n      tag_69\n        /* \"contracts/BTDTokenSwap.sol\":1326:1378  _saferTransferFrom(token2, owner2, owner1, _amount2) */\n      jump\t// in\n    tag_70:\n        /* \"contracts/BTDTokenSwap.sol\":771:1385  function swap(uint _amount1, uint _amount2) public {... */\n      pop\n      pop\n      jump\t// out\n        /* \"contracts/BTDTokenSwap.sol\":1396:1685  function _saferTransferFrom (IERC20 token, address sender, address recipient, uint amount) private{... */\n    tag_69:\n        /* \"contracts/BTDTokenSwap.sol\":1573:1582  bool sent */\n      0x00\n        /* \"contracts/BTDTokenSwap.sol\":1585:1590  token */\n      dup5\n        /* \"contracts/BTDTokenSwap.sol\":1585:1603  token.transferFrom */\n      0xffffffffffffffffffffffffffffffffffffffff\n      and\n      0x23b872dd\n        /* \"contracts/BTDTokenSwap.sol\":1604:1610  sender */\n      dup6\n        /* \"contracts/BTDTokenSwap.sol\":1612:1621  recipient */\n      dup6\n        /* \"contracts/BTDTokenSwap.sol\":1623:1629  amount */\n      dup6\n        /* \"contracts/BTDTokenSwap.sol\":1585:1630  token.transferFrom(sender, recipient, amount) */\n      mload(0x40)\n      dup5\n      0xffffffff\n      and\n      0xe0\n      shl\n      dup2\n      mstore\n      0x04\n      add\n      tag_72\n      swap4\n      swap3\n      swap2\n      swap1\n      tag_73\n      jump\t// in\n    tag_72:\n      0x20\n      mload(0x40)\n      dup1\n      dup4\n      sub\n      dup2\n      0x00\n      dup8\n      gas\n      call\n      iszero\n      dup1\n      iszero\n      tag_75\n      jumpi\n      returndatasize\n      0x00\n      dup1\n      returndatacopy\n      revert(0x00, returndatasize)\n    tag_75:\n      pop\n      pop\n      pop\n      pop\n      mload(0x40)\n      returndatasize\n      not(0x1f)\n      0x1f\n      dup3\n      add\n      and\n      dup3\n      add\n      dup1\n      0x40\n      mstore\n      pop\n      dup2\n      add\n      swap1\n      tag_76\n      swap2\n      swap1\n      tag_77\n      jump\t// in\n    tag_76:\n        /* \"contracts/BTDTokenSwap.sol\":1573:1630  bool sent = token.transferFrom(sender, recipient, amount) */\n      swap1\n      pop\n        /* \"contracts/BTDTokenSwap.sol\":1648:1652  sent */\n      dup1\n        /* \"contracts/BTDTokenSwap.sol\":1640:1678  require(sent, \"Token transfer failed\") */\n      tag_78\n      jumpi\n      mload(0x40)\n      0x08c379a000000000000000000000000000000000000000000000000000000000\n      dup2\n      mstore\n      0x04\n      add\n      tag_79\n      swap1\n      tag_80\n      jump\t// in\n    tag_79:\n      mload(0x40)\n      dup1\n      swap2\n      sub\n      swap1\n      revert\n    tag_78:\n        /* \"contracts/BTDTokenSwap.sol\":1494:1685  {... */\n      pop\n        /* \"contracts/BTDTokenSwap.sol\":1396:1685  function _saferTransferFrom (IERC20 token, address sender, address recipient, uint amount) private{... */\n      pop\n      pop\n      pop\n      pop\n      jump\t// out\n        /* \"#utility.yul\":7:133   */\n    tag_81:\n        /* \"#utility.yul\":44:51   */\n      0x00\n        /* \"#utility.yul\":84:126   */\n      0xffffffffffffffffffffffffffffffffffffffff\n        /* \"#utility.yul\":77:82   */\n      dup3\n        /* \"#utility.yul\":73:127   */\n      and\n        /* \"#utility.yul\":62:127   */\n      swap1\n      pop\n        /* \"#utility.yul\":7:133   */\n      swap2\n      swap1\n      pop\n      jump\t// out\n        /* \"#utility.yul\":139:199   */\n    tag_82:\n        /* \"#utility.yul\":167:170   */\n      0x00\n        /* \"#utility.yul\":188:193   */\n      dup2\n        /* \"#utility.yul\":181:193   */\n      swap1\n      pop\n        /* \"#utility.yul\":139:199   */\n      swap2\n      swap1\n      pop\n      jump\t// out\n        /* \"#utility.yul\":205:347   */\n    tag_83:\n        /* \"#utility.yul\":255:264   */\n      0x00\n        /* \"#utility.yul\":288:341   */\n      tag_116\n        /* \"#utility.yul\":306:340   */\n      tag_117\n        /* \"#utility.yul\":315:339   */\n      tag_118\n        /* \"#utility.yul\":333:338   */\n      dup5\n        /* \"#utility.yul\":315:339   */\n      tag_81\n      jump\t// in\n    tag_118:\n        /* \"#utility.yul\":306:340   */\n      tag_82\n      jump\t// in\n    tag_117:\n        /* \"#utility.yul\":288:341   */\n      tag_81\n      jump\t// in\n    tag_116:\n        /* \"#utility.yul\":275:341   */\n      swap1\n      pop\n        /* \"#utility.yul\":205:347   */\n      swap2\n      swap1\n      pop\n      jump\t// out\n        /* \"#utility.yul\":353:479   */\n    tag_84:\n        /* \"#utility.yul\":403:412   */\n      0x00\n        /* \"#utility.yul\":436:473   */\n      tag_120\n        /* \"#utility.yul\":467:472   */\n      dup3\n        /* \"#utility.yul\":436:473   */\n      tag_83\n      jump\t// in\n    tag_120:\n        /* \"#utility.yul\":423:473   */\n      swap1\n      pop\n        /* \"#utility.yul\":353:479   */\n      swap2\n      swap1\n      pop\n      jump\t// out\n        /* \"#utility.yul\":485:625   */\n    tag_85:\n        /* \"#utility.yul\":549:558   */\n      0x00\n        /* \"#utility.yul\":582:619   */\n      tag_122\n        /* \"#utility.yul\":613:618   */\n      dup3\n        /* \"#utility.yul\":582:619   */\n      tag_84\n      jump\t// in\n    tag_122:\n        /* \"#utility.yul\":569:619   */\n      swap1\n      pop\n        /* \"#utility.yul\":485:625   */\n      swap2\n      swap1\n      pop\n      jump\t// out\n        /* \"#utility.yul\":631:790   */\n    tag_86:\n        /* \"#utility.yul\":732:783   */\n      tag_124\n        /* \"#utility.yul\":777:782   */\n      dup2\n        /* \"#utility.yul\":732:783   */\n      tag_85\n      jump\t// in\n    tag_124:\n        /* \"#utility.yul\":727:730   */\n      dup3\n        /* \"#utility.yul\":720:784   */\n      mstore\n        /* \"#utility.yul\":631:790   */\n      pop\n      pop\n      jump\t// out\n        /* \"#utility.yul\":796:1046   */\n    tag_14:\n        /* \"#utility.yul\":903:907   */\n      0x00\n        /* \"#utility.yul\":941:943   */\n      0x20\n        /* \"#utility.yul\":930:939   */\n      dup3\n        /* \"#utility.yul\":926:944   */\n      add\n        /* \"#utility.yul\":918:944   */\n      swap1\n      pop\n        /* \"#utility.yul\":954:1039   */\n      tag_126\n        /* \"#utility.yul\":1036:1037   */\n      0x00\n        /* \"#utility.yul\":1025:1034   */\n      dup4\n        /* \"#utility.yul\":1021:1038   */\n      add\n        /* \"#utility.yul\":1012:1018   */\n      dup5\n        /* \"#utility.yul\":954:1039   */\n      tag_86\n      jump\t// in\n    tag_126:\n        /* \"#utility.yul\":796:1046   */\n      swap3\n      swap2\n      pop\n      pop\n      jump\t// out\n        /* \"#utility.yul\":1052:1148   */\n    tag_87:\n        /* \"#utility.yul\":1089:1096   */\n      0x00\n        /* \"#utility.yul\":1118:1142   */\n      tag_128\n        /* \"#utility.yul\":1136:1141   */\n      dup3\n        /* \"#utility.yul\":1118:1142   */\n      tag_81\n      jump\t// in\n    tag_128:\n        /* \"#utility.yul\":1107:1142   */\n      swap1\n      pop\n        /* \"#utility.yul\":1052:1148   */\n      swap2\n      swap1\n      pop\n      jump\t// out\n        /* \"#utility.yul\":1154:1272   */\n    tag_88:\n        /* \"#utility.yul\":1241:1265   */\n      tag_130\n        /* \"#utility.yul\":1259:1264   */\n      dup2\n        /* \"#utility.yul\":1241:1265   */\n      tag_87\n      jump\t// in\n    tag_130:\n        /* \"#utility.yul\":1236:1239   */\n      dup3\n        /* \"#utility.yul\":1229:1266   */\n      mstore\n        /* \"#utility.yul\":1154:1272   */\n      pop\n      pop\n      jump\t// out\n        /* \"#utility.yul\":1278:1500   */\n    tag_18:\n        /* \"#utility.yul\":1371:1375   */\n      0x00\n        /* \"#utility.yul\":1409:1411   */\n      0x20\n        /* \"#utility.yul\":1398:1407   */\n      dup3\n        /* \"#utility.yul\":1394:1412   */\n      add\n        /* \"#utility.yul\":1386:1412   */\n      swap1\n      pop\n        /* \"#utility.yul\":1422:1493   */\n      tag_132\n        /* \"#utility.yul\":1490:1491   */\n      0x00\n        /* \"#utility.yul\":1479:1488   */\n      dup4\n        /* \"#utility.yul\":1475:1492   */\n      add\n        /* \"#utility.yul\":1466:1472   */\n      dup5\n        /* \"#utility.yul\":1422:1493   */\n      tag_88\n      jump\t// in\n    tag_132:\n        /* \"#utility.yul\":1278:1500   */\n      swap3\n      swap2\n      pop\n      pop\n      jump\t// out\n        /* \"#utility.yul\":1587:1704   */\n    tag_90:\n        /* \"#utility.yul\":1696:1697   */\n      0x00\n        /* \"#utility.yul\":1693:1694   */\n      dup1\n        /* \"#utility.yul\":1686:1698   */\n      revert\n        /* \"#utility.yul\":1833:1910   */\n    tag_92:\n        /* \"#utility.yul\":1870:1877   */\n      0x00\n        /* \"#utility.yul\":1899:1904   */\n      dup2\n        /* \"#utility.yul\":1888:1904   */\n      swap1\n      pop\n        /* \"#utility.yul\":1833:1910   */\n      swap2\n      swap1\n      pop\n      jump\t// out\n        /* \"#utility.yul\":1916:2038   */\n    tag_93:\n        /* \"#utility.yul\":1989:2013   */\n      tag_138\n        /* \"#utility.yul\":2007:2012   */\n      dup2\n        /* \"#utility.yul\":1989:2013   */\n      tag_92\n      jump\t// in\n    tag_138:\n        /* \"#utility.yul\":1982:1987   */\n      dup2\n        /* \"#utility.yul\":1979:2014   */\n      eq\n        /* \"#utility.yul\":1969:2032   */\n      tag_139\n      jumpi\n        /* \"#utility.yul\":2028:2029   */\n      0x00\n        /* \"#utility.yul\":2025:2026   */\n      dup1\n        /* \"#utility.yul\":2018:2030   */\n      revert\n        /* \"#utility.yul\":1969:2032   */\n    tag_139:\n        /* \"#utility.yul\":1916:2038   */\n      pop\n      jump\t// out\n        /* \"#utility.yul\":2044:2183   */\n    tag_94:\n        /* \"#utility.yul\":2090:2095   */\n      0x00\n        /* \"#utility.yul\":2128:2134   */\n      dup2\n        /* \"#utility.yul\":2115:2135   */\n      calldataload\n        /* \"#utility.yul\":2106:2135   */\n      swap1\n      pop\n        /* \"#utility.yul\":2144:2177   */\n      tag_141\n        /* \"#utility.yul\":2171:2176   */\n      dup2\n        /* \"#utility.yul\":2144:2177   */\n      tag_93\n      jump\t// in\n    tag_141:\n        /* \"#utility.yul\":2044:2183   */\n      swap3\n      swap2\n      pop\n      pop\n      jump\t// out\n        /* \"#utility.yul\":2189:2518   */\n    tag_21:\n        /* \"#utility.yul\":2248:2254   */\n      0x00\n        /* \"#utility.yul\":2297:2299   */\n      0x20\n        /* \"#utility.yul\":2285:2294   */\n      dup3\n        /* \"#utility.yul\":2276:2283   */\n      dup5\n        /* \"#utility.yul\":2272:2295   */\n      sub\n        /* \"#utility.yul\":2268:2300   */\n      slt\n        /* \"#utility.yul\":2265:2384   */\n      iszero\n      tag_143\n      jumpi\n        /* \"#utility.yul\":2303:2382   */\n      tag_144\n      tag_90\n      jump\t// in\n    tag_144:\n        /* \"#utility.yul\":2265:2384   */\n    tag_143:\n        /* \"#utility.yul\":2423:2424   */\n      0x00\n        /* \"#utility.yul\":2448:2501   */\n      tag_145\n        /* \"#utility.yul\":2493:2500   */\n      dup5\n        /* \"#utility.yul\":2484:2490   */\n      dup3\n        /* \"#utility.yul\":2473:2482   */\n      dup6\n        /* \"#utility.yul\":2469:2491   */\n      add\n        /* \"#utility.yul\":2448:2501   */\n      tag_94\n      jump\t// in\n    tag_145:\n        /* \"#utility.yul\":2438:2501   */\n      swap2\n      pop\n        /* \"#utility.yul\":2394:2511   */\n      pop\n        /* \"#utility.yul\":2189:2518   */\n      swap3\n      swap2\n      pop\n      pop\n      jump\t// out\n        /* \"#utility.yul\":2524:2642   */\n    tag_95:\n        /* \"#utility.yul\":2611:2635   */\n      tag_147\n        /* \"#utility.yul\":2629:2634   */\n      dup2\n        /* \"#utility.yul\":2611:2635   */\n      tag_92\n      jump\t// in\n    tag_147:\n        /* \"#utility.yul\":2606:2609   */\n      dup3\n        /* \"#utility.yul\":2599:2636   */\n      mstore\n        /* \"#utility.yul\":2524:2642   */\n      pop\n      pop\n      jump\t// out\n        /* \"#utility.yul\":2648:2870   */\n    tag_24:\n        /* \"#utility.yul\":2741:2745   */\n      0x00\n        /* \"#utility.yul\":2779:2781   */\n      0x20\n        /* \"#utility.yul\":2768:2777   */\n      dup3\n        /* \"#utility.yul\":2764:2782   */\n      add\n        /* \"#utility.yul\":2756:2782   */\n      swap1\n      pop\n        /* \"#utility.yul\":2792:2863   */\n      tag_149\n        /* \"#utility.yul\":2860:2861   */\n      0x00\n        /* \"#utility.yul\":2849:2858   */\n      dup4\n        /* \"#utility.yul\":2845:2862   */\n      add\n        /* \"#utility.yul\":2836:2842   */\n      dup5\n        /* \"#utility.yul\":2792:2863   */\n      tag_95\n      jump\t// in\n    tag_149:\n        /* \"#utility.yul\":2648:2870   */\n      swap3\n      swap2\n      pop\n      pop\n      jump\t// out\n        /* \"#utility.yul\":2876:3350   */\n    tag_36:\n        /* \"#utility.yul\":2944:2950   */\n      0x00\n        /* \"#utility.yul\":2952:2958   */\n      dup1\n        /* \"#utility.yul\":3001:3003   */\n      0x40\n        /* \"#utility.yul\":2989:2998   */\n      dup4\n        /* \"#utility.yul\":2980:2987   */\n      dup6\n        /* \"#utility.yul\":2976:2999   */\n      sub\n        /* \"#utility.yul\":2972:3004   */\n      slt\n        /* \"#utility.yul\":2969:3088   */\n      iszero\n      tag_151\n      jumpi\n        /* \"#utility.yul\":3007:3086   */\n      tag_152\n      tag_90\n      jump\t// in\n    tag_152:\n        /* \"#utility.yul\":2969:3088   */\n    tag_151:\n        /* \"#utility.yul\":3127:3128   */\n      0x00\n        /* \"#utility.yul\":3152:3205   */\n      tag_153\n        /* \"#utility.yul\":3197:3204   */\n      dup6\n        /* \"#utility.yul\":3188:3194   */\n      dup3\n        /* \"#utility.yul\":3177:3186   */\n      dup7\n        /* \"#utility.yul\":3173:3195   */\n      add\n        /* \"#utility.yul\":3152:3205   */\n      tag_94\n      jump\t// in\n    tag_153:\n        /* \"#utility.yul\":3142:3205   */\n      swap3\n      pop\n        /* \"#utility.yul\":3098:3215   */\n      pop\n        /* \"#utility.yul\":3254:3256   */\n      0x20\n        /* \"#utility.yul\":3280:3333   */\n      tag_154\n        /* \"#utility.yul\":3325:3332   */\n      dup6\n        /* \"#utility.yul\":3316:3322   */\n      dup3\n        /* \"#utility.yul\":3305:3314   */\n      dup7\n        /* \"#utility.yul\":3301:3323   */\n      add\n        /* \"#utility.yul\":3280:3333   */\n      tag_94\n      jump\t// in\n    tag_154:\n        /* \"#utility.yul\":3270:3333   */\n      swap2\n      pop\n        /* \"#utility.yul\":3225:3343   */\n      pop\n        /* \"#utility.yul\":2876:3350   */\n      swap3\n      pop\n      swap3\n      swap1\n      pop\n      jump\t// out\n        /* \"#utility.yul\":3356:3536   */\n    tag_96:\n        /* \"#utility.yul\":3404:3481   */\n      0x4e487b7100000000000000000000000000000000000000000000000000000000\n        /* \"#utility.yul\":3401:3402   */\n      0x00\n        /* \"#utility.yul\":3394:3482   */\n      mstore\n        /* \"#utility.yul\":3501:3505   */\n      0x11\n        /* \"#utility.yul\":3498:3499   */\n      0x04\n        /* \"#utility.yul\":3491:3506   */\n      mstore\n        /* \"#utility.yul\":3525:3529   */\n      0x24\n        /* \"#utility.yul\":3522:3523   */\n      0x00\n        /* \"#utility.yul\":3515:3530   */\n      revert\n        /* \"#utility.yul\":3542:3952   */\n    tag_41:\n        /* \"#utility.yul\":3582:3589   */\n      0x00\n        /* \"#utility.yul\":3605:3625   */\n      tag_157\n        /* \"#utility.yul\":3623:3624   */\n      dup3\n        /* \"#utility.yul\":3605:3625   */\n      tag_92\n      jump\t// in\n    tag_157:\n        /* \"#utility.yul\":3600:3625   */\n      swap2\n      pop\n        /* \"#utility.yul\":3639:3659   */\n      tag_158\n        /* \"#utility.yul\":3657:3658   */\n      dup4\n        /* \"#utility.yul\":3639:3659   */\n      tag_92\n      jump\t// in\n    tag_158:\n        /* \"#utility.yul\":3634:3659   */\n      swap3\n      pop\n        /* \"#utility.yul\":3694:3695   */\n      dup3\n        /* \"#utility.yul\":3691:3692   */\n      dup3\n        /* \"#utility.yul\":3687:3696   */\n      mul\n        /* \"#utility.yul\":3716:3746   */\n      tag_159\n        /* \"#utility.yul\":3734:3745   */\n      dup2\n        /* \"#utility.yul\":3716:3746   */\n      tag_92\n      jump\t// in\n    tag_159:\n        /* \"#utility.yul\":3705:3746   */\n      swap2\n      pop\n        /* \"#utility.yul\":3895:3896   */\n      dup3\n        /* \"#utility.yul\":3886:3893   */\n      dup3\n        /* \"#utility.yul\":3882:3897   */\n      div\n        /* \"#utility.yul\":3879:3880   */\n      dup5\n        /* \"#utility.yul\":3876:3898   */\n      eq\n        /* \"#utility.yul\":3856:3857   */\n      dup4\n        /* \"#utility.yul\":3849:3858   */\n      iszero\n        /* \"#utility.yul\":3829:3912   */\n      or\n        /* \"#utility.yul\":3806:3945   */\n      tag_160\n      jumpi\n        /* \"#utility.yul\":3925:3943   */\n      tag_161\n      tag_96\n      jump\t// in\n    tag_161:\n        /* \"#utility.yul\":3806:3945   */\n    tag_160:\n        /* \"#utility.yul\":3590:3952   */\n      pop\n        /* \"#utility.yul\":3542:3952   */\n      swap3\n      swap2\n      pop\n      pop\n      jump\t// out\n        /* \"#utility.yul\":3958:4138   */\n    tag_97:\n        /* \"#utility.yul\":4006:4083   */\n      0x4e487b7100000000000000000000000000000000000000000000000000000000\n        /* \"#utility.yul\":4003:4004   */\n      0x00\n        /* \"#utility.yul\":3996:4084   */\n      mstore\n        /* \"#utility.yul\":4103:4107   */\n      0x12\n        /* \"#utility.yul\":4100:4101   */\n      0x04\n        /* \"#utility.yul\":4093:4108   */\n      mstore\n        /* \"#utility.yul\":4127:4131   */\n      0x24\n        /* \"#utility.yul\":4124:4125   */\n      0x00\n        /* \"#utility.yul\":4117:4132   */\n      revert\n        /* \"#utility.yul\":4144:4329   */\n    tag_43:\n        /* \"#utility.yul\":4184:4185   */\n      0x00\n        /* \"#utility.yul\":4201:4221   */\n      tag_164\n        /* \"#utility.yul\":4219:4220   */\n      dup3\n        /* \"#utility.yul\":4201:4221   */\n      tag_92\n      jump\t// in\n    tag_164:\n        /* \"#utility.yul\":4196:4221   */\n      swap2\n      pop\n        /* \"#utility.yul\":4235:4255   */\n      tag_165\n        /* \"#utility.yul\":4253:4254   */\n      dup4\n        /* \"#utility.yul\":4235:4255   */\n      tag_92\n      jump\t// in\n    tag_165:\n        /* \"#utility.yul\":4230:4255   */\n      swap3\n      pop\n        /* \"#utility.yul\":4274:4275   */\n      dup3\n        /* \"#utility.yul\":4264:4299   */\n      tag_166\n      jumpi\n        /* \"#utility.yul\":4279:4297   */\n      tag_167\n      tag_97\n      jump\t// in\n    tag_167:\n        /* \"#utility.yul\":4264:4299   */\n    tag_166:\n        /* \"#utility.yul\":4321:4322   */\n      dup3\n        /* \"#utility.yul\":4318:4319   */\n      dup3\n        /* \"#utility.yul\":4314:4323   */\n      div\n        /* \"#utility.yul\":4309:4323   */\n      swap1\n      pop\n        /* \"#utility.yul\":4144:4329   */\n      swap3\n      swap2\n      pop\n      pop\n      jump\t// out\n        /* \"#utility.yul\":4335:4411   */\n    tag_98:\n        /* \"#utility.yul\":4371:4378   */\n      0x00\n        /* \"#utility.yul\":4400:4405   */\n      dup2\n        /* \"#utility.yul\":4389:4405   */\n      swap1\n      pop\n        /* \"#utility.yul\":4335:4411   */\n      swap2\n      swap1\n      pop\n      jump\t// out\n        /* \"#utility.yul\":4417:4973   */\n    tag_46:\n        /* \"#utility.yul\":4456:4463   */\n      0x00\n        /* \"#utility.yul\":4479:4498   */\n      tag_170\n        /* \"#utility.yul\":4496:4497   */\n      dup3\n        /* \"#utility.yul\":4479:4498   */\n      tag_98\n      jump\t// in\n    tag_170:\n        /* \"#utility.yul\":4474:4498   */\n      swap2\n      pop\n        /* \"#utility.yul\":4512:4531   */\n      tag_171\n        /* \"#utility.yul\":4529:4530   */\n      dup4\n        /* \"#utility.yul\":4512:4531   */\n      tag_98\n      jump\t// in\n    tag_171:\n        /* \"#utility.yul\":4507:4531   */\n      swap3\n      pop\n        /* \"#utility.yul\":4566:4567   */\n      dup3\n        /* \"#utility.yul\":4563:4564   */\n      dup3\n        /* \"#utility.yul\":4559:4568   */\n      mul\n        /* \"#utility.yul\":4588:4617   */\n      tag_172\n        /* \"#utility.yul\":4605:4616   */\n      dup2\n        /* \"#utility.yul\":4588:4617   */\n      tag_98\n      jump\t// in\n    tag_172:\n        /* \"#utility.yul\":4577:4617   */\n      swap2\n      pop\n        /* \"#utility.yul\":4675:4741   */\n      0x8000000000000000000000000000000000000000000000000000000000000000\n        /* \"#utility.yul\":4672:4673   */\n      dup5\n        /* \"#utility.yul\":4669:4742   */\n      eq\n        /* \"#utility.yul\":4665:4666   */\n      0x00\n        /* \"#utility.yul\":4662:4663   */\n      dup5\n        /* \"#utility.yul\":4658:4667   */\n      slt\n        /* \"#utility.yul\":4654:4743   */\n      and\n        /* \"#utility.yul\":4651:4766   */\n      iszero\n      tag_173\n      jumpi\n        /* \"#utility.yul\":4746:4764   */\n      tag_174\n      tag_96\n      jump\t// in\n    tag_174:\n        /* \"#utility.yul\":4651:4766   */\n    tag_173:\n        /* \"#utility.yul\":4916:4917   */\n      dup3\n        /* \"#utility.yul\":4907:4914   */\n      dup3\n        /* \"#utility.yul\":4902:4918   */\n      sdiv\n        /* \"#utility.yul\":4899:4900   */\n      dup5\n        /* \"#utility.yul\":4896:4919   */\n      eq\n        /* \"#utility.yul\":4876:4877   */\n      dup4\n        /* \"#utility.yul\":4869:4878   */\n      iszero\n        /* \"#utility.yul\":4849:4933   */\n      or\n        /* \"#utility.yul\":4826:4966   */\n      tag_175\n      jumpi\n        /* \"#utility.yul\":4946:4964   */\n      tag_176\n      tag_96\n      jump\t// in\n    tag_176:\n        /* \"#utility.yul\":4826:4966   */\n    tag_175:\n        /* \"#utility.yul\":4464:4973   */\n      pop\n        /* \"#utility.yul\":4417:4973   */\n      swap3\n      swap2\n      pop\n      pop\n      jump\t// out\n        /* \"#utility.yul\":4979:5148   */\n    tag_99:\n        /* \"#utility.yul\":5063:5074   */\n      0x00\n        /* \"#utility.yul\":5097:5103   */\n      dup3\n        /* \"#utility.yul\":5092:5095   */\n      dup3\n        /* \"#utility.yul\":5085:5104   */\n      mstore\n        /* \"#utility.yul\":5137:5141   */\n      0x20\n        /* \"#utility.yul\":5132:5135   */\n      dup3\n        /* \"#utility.yul\":5128:5142   */\n      add\n        /* \"#utility.yul\":5113:5142   */\n      swap1\n      pop\n        /* \"#utility.yul\":4979:5148   */\n      swap3\n      swap2\n      pop\n      pop\n      jump\t// out\n        /* \"#utility.yul\":5154:5318   */\n    tag_100:\n        /* \"#utility.yul\":5294:5310   */\n      0x4e6f7420617574686f72697a6564000000000000000000000000000000000000\n        /* \"#utility.yul\":5290:5291   */\n      0x00\n        /* \"#utility.yul\":5282:5288   */\n      dup3\n        /* \"#utility.yul\":5278:5292   */\n      add\n        /* \"#utility.yul\":5271:5311   */\n      mstore\n        /* \"#utility.yul\":5154:5318   */\n      pop\n      jump\t// out\n        /* \"#utility.yul\":5324:5690   */\n    tag_101:\n        /* \"#utility.yul\":5466:5469   */\n      0x00\n        /* \"#utility.yul\":5487:5554   */\n      tag_180\n        /* \"#utility.yul\":5551:5553   */\n      0x0e\n        /* \"#utility.yul\":5546:5549   */\n      dup4\n        /* \"#utility.yul\":5487:5554   */\n      tag_99\n      jump\t// in\n    tag_180:\n        /* \"#utility.yul\":5480:5554   */\n      swap2\n      pop\n        /* \"#utility.yul\":5563:5656   */\n      tag_181\n        /* \"#utility.yul\":5652:5655   */\n      dup3\n        /* \"#utility.yul\":5563:5656   */\n      tag_100\n      jump\t// in\n    tag_181:\n        /* \"#utility.yul\":5681:5683   */\n      0x20\n        /* \"#utility.yul\":5676:5679   */\n      dup3\n        /* \"#utility.yul\":5672:5684   */\n      add\n        /* \"#utility.yul\":5665:5684   */\n      swap1\n      pop\n        /* \"#utility.yul\":5324:5690   */\n      swap2\n      swap1\n      pop\n      jump\t// out\n        /* \"#utility.yul\":5696:6115   */\n    tag_51:\n        /* \"#utility.yul\":5862:5866   */\n      0x00\n        /* \"#utility.yul\":5900:5902   */\n      0x20\n        /* \"#utility.yul\":5889:5898   */\n      dup3\n        /* \"#utility.yul\":5885:5903   */\n      add\n        /* \"#utility.yul\":5877:5903   */\n      swap1\n      pop\n        /* \"#utility.yul\":5949:5958   */\n      dup2\n        /* \"#utility.yul\":5943:5947   */\n      dup2\n        /* \"#utility.yul\":5939:5959   */\n      sub\n        /* \"#utility.yul\":5935:5936   */\n      0x00\n        /* \"#utility.yul\":5924:5933   */\n      dup4\n        /* \"#utility.yul\":5920:5937   */\n      add\n        /* \"#utility.yul\":5913:5960   */\n      mstore\n        /* \"#utility.yul\":5977:6108   */\n      tag_183\n        /* \"#utility.yul\":6103:6107   */\n      dup2\n        /* \"#utility.yul\":5977:6108   */\n      tag_101\n      jump\t// in\n    tag_183:\n        /* \"#utility.yul\":5969:6108   */\n      swap1\n      pop\n        /* \"#utility.yul\":5696:6115   */\n      swap2\n      swap1\n      pop\n      jump\t// out\n        /* \"#utility.yul\":6121:6453   */\n    tag_53:\n        /* \"#utility.yul\":6242:6246   */\n      0x00\n        /* \"#utility.yul\":6280:6282   */\n      0x40\n        /* \"#utility.yul\":6269:6278   */\n      dup3\n        /* \"#utility.yul\":6265:6283   */\n      add\n        /* \"#utility.yul\":6257:6283   */\n      swap1\n      pop\n        /* \"#utility.yul\":6293:6364   */\n      tag_185\n        /* \"#utility.yul\":6361:6362   */\n      0x00\n        /* \"#utility.yul\":6350:6359   */\n      dup4\n        /* \"#utility.yul\":6346:6363   */\n      add\n        /* \"#utility.yul\":6337:6343   */\n      dup6\n        /* \"#utility.yul\":6293:6364   */\n      tag_88\n      jump\t// in\n    tag_185:\n        /* \"#utility.yul\":6374:6446   */\n      tag_186\n        /* \"#utility.yul\":6442:6444   */\n      0x20\n        /* \"#utility.yul\":6431:6440   */\n      dup4\n        /* \"#utility.yul\":6427:6445   */\n      add\n        /* \"#utility.yul\":6418:6424   */\n      dup5\n        /* \"#utility.yul\":6374:6446   */\n      tag_88\n      jump\t// in\n    tag_186:\n        /* \"#utility.yul\":6121:6453   */\n      swap4\n      swap3\n      pop\n      pop\n      pop\n      jump\t// out\n        /* \"#utility.yul\":6459:6602   */\n    tag_102:\n        /* \"#utility.yul\":6516:6521   */\n      0x00\n        /* \"#utility.yul\":6547:6553   */\n      dup2\n        /* \"#utility.yul\":6541:6554   */\n      mload\n        /* \"#utility.yul\":6532:6554   */\n      swap1\n      pop\n        /* \"#utility.yul\":6563:6596   */\n      tag_188\n        /* \"#utility.yul\":6590:6595   */\n      dup2\n        /* \"#utility.yul\":6563:6596   */\n      tag_93\n      jump\t// in\n    tag_188:\n        /* \"#utility.yul\":6459:6602   */\n      swap3\n      swap2\n      pop\n      pop\n      jump\t// out\n        /* \"#utility.yul\":6608:6959   */\n    tag_57:\n        /* \"#utility.yul\":6678:6684   */\n      0x00\n        /* \"#utility.yul\":6727:6729   */\n      0x20\n        /* \"#utility.yul\":6715:6724   */\n      dup3\n        /* \"#utility.yul\":6706:6713   */\n      dup5\n        /* \"#utility.yul\":6702:6725   */\n      sub\n        /* \"#utility.yul\":6698:6730   */\n      slt\n        /* \"#utility.yul\":6695:6814   */\n      iszero\n      tag_190\n      jumpi\n        /* \"#utility.yul\":6733:6812   */\n      tag_191\n      tag_90\n      jump\t// in\n    tag_191:\n        /* \"#utility.yul\":6695:6814   */\n    tag_190:\n        /* \"#utility.yul\":6853:6854   */\n      0x00\n        /* \"#utility.yul\":6878:6942   */\n      tag_192\n        /* \"#utility.yul\":6934:6941   */\n      dup5\n        /* \"#utility.yul\":6925:6931   */\n      dup3\n        /* \"#utility.yul\":6914:6923   */\n      dup6\n        /* \"#utility.yul\":6910:6932   */\n      add\n        /* \"#utility.yul\":6878:6942   */\n      tag_102\n      jump\t// in\n    tag_192:\n        /* \"#utility.yul\":6868:6942   */\n      swap2\n      pop\n        /* \"#utility.yul\":6824:6952   */\n      pop\n        /* \"#utility.yul\":6608:6959   */\n      swap3\n      swap2\n      pop\n      pop\n      jump\t// out\n        /* \"#utility.yul\":6965:7139   */\n    tag_103:\n        /* \"#utility.yul\":7105:7131   */\n      0x546f6b656e203120616c6c6f77616e636520746f206c6f770000000000000000\n        /* \"#utility.yul\":7101:7102   */\n      0x00\n        /* \"#utility.yul\":7093:7099   */\n      dup3\n        /* \"#utility.yul\":7089:7103   */\n      add\n        /* \"#utility.yul\":7082:7132   */\n      mstore\n        /* \"#utility.yul\":6965:7139   */\n      pop\n      jump\t// out\n        /* \"#utility.yul\":7145:7511   */\n    tag_104:\n        /* \"#utility.yul\":7287:7290   */\n      0x00\n        /* \"#utility.yul\":7308:7375   */\n      tag_195\n        /* \"#utility.yul\":7372:7374   */\n      0x18\n        /* \"#utility.yul\":7367:7370   */\n      dup4\n        /* \"#utility.yul\":7308:7375   */\n      tag_99\n      jump\t// in\n    tag_195:\n        /* \"#utility.yul\":7301:7375   */\n      swap2\n      pop\n        /* \"#utility.yul\":7384:7477   */\n      tag_196\n        /* \"#utility.yul\":7473:7476   */\n      dup3\n        /* \"#utility.yul\":7384:7477   */\n      tag_103\n      jump\t// in\n    tag_196:\n        /* \"#utility.yul\":7502:7504   */\n      0x20\n        /* \"#utility.yul\":7497:7500   */\n      dup3\n        /* \"#utility.yul\":7493:7505   */\n      add\n        /* \"#utility.yul\":7486:7505   */\n      swap1\n      pop\n        /* \"#utility.yul\":7145:7511   */\n      swap2\n      swap1\n      pop\n      jump\t// out\n        /* \"#utility.yul\":7517:7936   */\n    tag_60:\n        /* \"#utility.yul\":7683:7687   */\n      0x00\n        /* \"#utility.yul\":7721:7723   */\n      0x20\n        /* \"#utility.yul\":7710:7719   */\n      dup3\n        /* \"#utility.yul\":7706:7724   */\n      add\n        /* \"#utility.yul\":7698:7724   */\n      swap1\n      pop\n        /* \"#utility.yul\":7770:7779   */\n      dup2\n        /* \"#utility.yul\":7764:7768   */\n      dup2\n        /* \"#utility.yul\":7760:7780   */\n      sub\n        /* \"#utility.yul\":7756:7757   */\n      0x00\n        /* \"#utility.yul\":7745:7754   */\n      dup4\n        /* \"#utility.yul\":7741:7758   */\n      add\n        /* \"#utility.yul\":7734:7781   */\n      mstore\n        /* \"#utility.yul\":7798:7929   */\n      tag_198\n        /* \"#utility.yul\":7924:7928   */\n      dup2\n        /* \"#utility.yul\":7798:7929   */\n      tag_104\n      jump\t// in\n    tag_198:\n        /* \"#utility.yul\":7790:7929   */\n      swap1\n      pop\n        /* \"#utility.yul\":7517:7936   */\n      swap2\n      swap1\n      pop\n      jump\t// out\n        /* \"#utility.yul\":7942:8116   */\n    tag_105:\n        /* \"#utility.yul\":8082:8108   */\n      0x546f6b656e203220616c6c6f77616e636520746f206c6f770000000000000000\n        /* \"#utility.yul\":8078:8079   */\n      0x00\n        /* \"#utility.yul\":8070:8076   */\n      dup3\n        /* \"#utility.yul\":8066:8080   */\n      add\n        /* \"#utility.yul\":8059:8109   */\n      mstore\n        /* \"#utility.yul\":7942:8116   */\n      pop\n      jump\t// out\n        /* \"#utility.yul\":8122:8488   */\n    tag_106:\n        /* \"#utility.yul\":8264:8267   */\n      0x00\n        /* \"#utility.yul\":8285:8352   */\n      tag_201\n        /* \"#utility.yul\":8349:8351   */\n      0x18\n        /* \"#utility.yul\":8344:8347   */\n      dup4\n        /* \"#utility.yul\":8285:8352   */\n      tag_99\n      jump\t// in\n    tag_201:\n        /* \"#utility.yul\":8278:8352   */\n      swap2\n      pop\n        /* \"#utility.yul\":8361:8454   */\n      tag_202\n        /* \"#utility.yul\":8450:8453   */\n      dup3\n        /* \"#utility.yul\":8361:8454   */\n      tag_105\n      jump\t// in\n    tag_202:\n        /* \"#utility.yul\":8479:8481   */\n      0x20\n        /* \"#utility.yul\":8474:8477   */\n      dup3\n        /* \"#utility.yul\":8470:8482   */\n      add\n        /* \"#utility.yul\":8463:8482   */\n      swap1\n      pop\n        /* \"#utility.yul\":8122:8488   */\n      swap2\n      swap1\n      pop\n      jump\t// out\n        /* \"#utility.yul\":8494:8913   */\n    tag_67:\n        /* \"#utility.yul\":8660:8664   */\n      0x00\n        /* \"#utility.yul\":8698:8700   */\n      0x20\n        /* \"#utility.yul\":8687:8696   */\n      dup3\n        /* \"#utility.yul\":8683:8701   */\n      add\n        /* \"#utility.yul\":8675:8701   */\n      swap1\n      pop\n        /* \"#utility.yul\":8747:8756   */\n      dup2\n        /* \"#utility.yul\":8741:8745   */\n      dup2\n        /* \"#utility.yul\":8737:8757   */\n      sub\n        /* \"#utility.yul\":8733:8734   */\n      0x00\n        /* \"#utility.yul\":8722:8731   */\n      dup4\n        /* \"#utility.yul\":8718:8735   */\n      add\n        /* \"#utility.yul\":8711:8758   */\n      mstore\n        /* \"#utility.yul\":8775:8906   */\n      tag_204\n        /* \"#utility.yul\":8901:8905   */\n      dup2\n        /* \"#utility.yul\":8775:8906   */\n      tag_106\n      jump\t// in\n    tag_204:\n        /* \"#utility.yul\":8767:8906   */\n      swap1\n      pop\n        /* \"#utility.yul\":8494:8913   */\n      swap2\n      swap1\n      pop\n      jump\t// out\n        /* \"#utility.yul\":8919:9361   */\n    tag_73:\n        /* \"#utility.yul\":9068:9072   */\n      0x00\n        /* \"#utility.yul\":9106:9108   */\n      0x60\n        /* \"#utility.yul\":9095:9104   */\n      dup3\n        /* \"#utility.yul\":9091:9109   */\n      add\n        /* \"#utility.yul\":9083:9109   */\n      swap1\n      pop\n        /* \"#utility.yul\":9119:9190   */\n      tag_206\n        /* \"#utility.yul\":9187:9188   */\n      0x00\n        /* \"#utility.yul\":9176:9185   */\n      dup4\n        /* \"#utility.yul\":9172:9189   */\n      add\n        /* \"#utility.yul\":9163:9169   */\n      dup7\n        /* \"#utility.yul\":9119:9190   */\n      tag_88\n      jump\t// in\n    tag_206:\n        /* \"#utility.yul\":9200:9272   */\n      tag_207\n        /* \"#utility.yul\":9268:9270   */\n      0x20\n        /* \"#utility.yul\":9257:9266   */\n      dup4\n        /* \"#utility.yul\":9253:9271   */\n      add\n        /* \"#utility.yul\":9244:9250   */\n      dup6\n        /* \"#utility.yul\":9200:9272   */\n      tag_88\n      jump\t// in\n    tag_207:\n        /* \"#utility.yul\":9282:9354   */\n      tag_208\n        /* \"#utility.yul\":9350:9352   */\n      0x40\n        /* \"#utility.yul\":9339:9348   */\n      dup4\n        /* \"#utility.yul\":9335:9353   */\n      add\n        /* \"#utility.yul\":9326:9332   */\n      dup5\n        /* \"#utility.yul\":9282:9354   */\n      tag_95\n      jump\t// in\n    tag_208:\n        /* \"#utility.yul\":8919:9361   */\n      swap5\n      swap4\n      pop\n      pop\n      pop\n      pop\n      jump\t// out\n        /* \"#utility.yul\":9367:9457   */\n    tag_107:\n        /* \"#utility.yul\":9401:9408   */\n      0x00\n        /* \"#utility.yul\":9444:9449   */\n      dup2\n        /* \"#utility.yul\":9437:9450   */\n      iszero\n        /* \"#utility.yul\":9430:9451   */\n      iszero\n        /* \"#utility.yul\":9419:9451   */\n      swap1\n      pop\n        /* \"#utility.yul\":9367:9457   */\n      swap2\n      swap1\n      pop\n      jump\t// out\n        /* \"#utility.yul\":9463:9579   */\n    tag_108:\n        /* \"#utility.yul\":9533:9554   */\n      tag_211\n        /* \"#utility.yul\":9548:9553   */\n      dup2\n        /* \"#utility.yul\":9533:9554   */\n      tag_107\n      jump\t// in\n    tag_211:\n        /* \"#utility.yul\":9526:9531   */\n      dup2\n        /* \"#utility.yul\":9523:9555   */\n      eq\n        /* \"#utility.yul\":9513:9573   */\n      tag_212\n      jumpi\n        /* \"#utility.yul\":9569:9570   */\n      0x00\n        /* \"#utility.yul\":9566:9567   */\n      dup1\n        /* \"#utility.yul\":9559:9571   */\n      revert\n        /* \"#utility.yul\":9513:9573   */\n    tag_212:\n        /* \"#utility.yul\":9463:9579   */\n      pop\n      jump\t// out\n        /* \"#utility.yul\":9585:9722   */\n    tag_109:\n        /* \"#utility.yul\":9639:9644   */\n      0x00\n        /* \"#utility.yul\":9670:9676   */\n      dup2\n        /* \"#utility.yul\":9664:9677   */\n      mload\n        /* \"#utility.yul\":9655:9677   */\n      swap1\n      pop\n        /* \"#utility.yul\":9686:9716   */\n      tag_214\n        /* \"#utility.yul\":9710:9715   */\n      dup2\n        /* \"#utility.yul\":9686:9716   */\n      tag_108\n      jump\t// in\n    tag_214:\n        /* \"#utility.yul\":9585:9722   */\n      swap3\n      swap2\n      pop\n      pop\n      jump\t// out\n        /* \"#utility.yul\":9728:10073   */\n    tag_77:\n        /* \"#utility.yul\":9795:9801   */\n      0x00\n        /* \"#utility.yul\":9844:9846   */\n      0x20\n        /* \"#utility.yul\":9832:9841   */\n      dup3\n        /* \"#utility.yul\":9823:9830   */\n      dup5\n        /* \"#utility.yul\":9819:9842   */\n      sub\n        /* \"#utility.yul\":9815:9847   */\n      slt\n        /* \"#utility.yul\":9812:9931   */\n      iszero\n      tag_216\n      jumpi\n        /* \"#utility.yul\":9850:9929   */\n      tag_217\n      tag_90\n      jump\t// in\n    tag_217:\n        /* \"#utility.yul\":9812:9931   */\n    tag_216:\n        /* \"#utility.yul\":9970:9971   */\n      0x00\n        /* \"#utility.yul\":9995:10056   */\n      tag_218\n        /* \"#utility.yul\":10048:10055   */\n      dup5\n        /* \"#utility.yul\":10039:10045   */\n      dup3\n        /* \"#utility.yul\":10028:10037   */\n      dup6\n        /* \"#utility.yul\":10024:10046   */\n      add\n        /* \"#utility.yul\":9995:10056   */\n      tag_109\n      jump\t// in\n    tag_218:\n        /* \"#utility.yul\":9985:10056   */\n      swap2\n      pop\n        /* \"#utility.yul\":9941:10066   */\n      pop\n        /* \"#utility.yul\":9728:10073   */\n      swap3\n      swap2\n      pop\n      pop\n      jump\t// out\n        /* \"#utility.yul\":10079:10250   */\n    tag_110:\n        /* \"#utility.yul\":10219:10242   */\n      0x546f6b656e207472616e73666572206661696c65640000000000000000000000\n        /* \"#utility.yul\":10215:10216   */\n      0x00\n        /* \"#utility.yul\":10207:10213   */\n      dup3\n        /* \"#utility.yul\":10203:10217   */\n      add\n        /* \"#utility.yul\":10196:10243   */\n      mstore\n        /* \"#utility.yul\":10079:10250   */\n      pop\n      jump\t// out\n        /* \"#utility.yul\":10256:10622   */\n    tag_111:\n        /* \"#utility.yul\":10398:10401   */\n      0x00\n        /* \"#utility.yul\":10419:10486   */\n      tag_221\n        /* \"#utility.yul\":10483:10485   */\n      0x15\n        /* \"#utility.yul\":10478:10481   */\n      dup4\n        /* \"#utility.yul\":10419:10486   */\n      tag_99\n      jump\t// in\n    tag_221:\n        /* \"#utility.yul\":10412:10486   */\n      swap2\n      pop\n        /* \"#utility.yul\":10495:10588   */\n      tag_222\n        /* \"#utility.yul\":10584:10587   */\n      dup3\n        /* \"#utility.yul\":10495:10588   */\n      tag_110\n      jump\t// in\n    tag_222:\n        /* \"#utility.yul\":10613:10615   */\n      0x20\n        /* \"#utility.yul\":10608:10611   */\n      dup3\n        /* \"#utility.yul\":10604:10616   */\n      add\n        /* \"#utility.yul\":10597:10616   */\n      swap1\n      pop\n        /* \"#utility.yul\":10256:10622   */\n      swap2\n      swap1\n      pop\n      jump\t// out\n        /* \"#utility.yul\":10628:11047   */\n    tag_80:\n        /* \"#utility.yul\":10794:10798   */\n      0x00\n        /* \"#utility.yul\":10832:10834   */\n      0x20\n        /* \"#utility.yul\":10821:10830   */\n      dup3\n        /* \"#utility.yul\":10817:10835   */\n      add\n        /* \"#utility.yul\":10809:10835   */\n      swap1\n      pop\n        /* \"#utility.yul\":10881:10890   */\n      dup2\n        /* \"#utility.yul\":10875:10879   */\n      dup2\n        /* \"#utility.yul\":10871:10891   */\n      sub\n        /* \"#utility.yul\":10867:10868   */\n      0x00\n        /* \"#utility.yul\":10856:10865   */\n      dup4\n        /* \"#utility.yul\":10852:10869   */\n      add\n        /* \"#utility.yul\":10845:10892   */\n      mstore\n        /* \"#utility.yul\":10909:11040   */\n      tag_224\n        /* \"#utility.yul\":11035:11039   */\n      dup2\n        /* \"#utility.yul\":10909:11040   */\n      tag_111\n      jump\t// in\n    tag_224:\n        /* \"#utility.yul\":10901:11040   */\n      swap1\n      pop\n        /* \"#utility.yul\":10628:11047   */\n      swap2\n      swap1\n      pop\n      jump\t// out\n\n    auxdata: 0xa2646970667358221220932c4fc600703d1bb7af7c8efc60f930165fd5534b434267aa82e8fb4e9e9e3f64736f6c63430008140033\n}\n",
				"bytecode": {
					"linkReferences": {},
					"object": "608060405273c630c6bff4d198f30d9ab86f89fb83f0bc3fb94860015f6101000a81548173ffffffffffffffffffffffffffffffffffffffff021916908373ffffffffffffffffffffffffffffffffffffffff16021790555034801562000064575f80fd5b5060405162000f0438038062000f0483398181016040528101906200008a9190620001f8565b835f806101000a81548173ffffffffffffffffffffffffffffffffffffffff021916908373ffffffffffffffffffffffffffffffffffffffff1602179055508260015f6101000a81548173ffffffffffffffffffffffffffffffffffffffff021916908373ffffffffffffffffffffffffffffffffffffffff1602179055508160025f6101000a81548173ffffffffffffffffffffffffffffffffffffffff021916908373ffffffffffffffffffffffffffffffffffffffff1602179055508060035f6101000a81548173ffffffffffffffffffffffffffffffffffffffff021916908373ffffffffffffffffffffffffffffffffffffffff1602179055505050505062000267565b5f80fd5b5f73ffffffffffffffffffffffffffffffffffffffff82169050919050565b5f620001c28262000197565b9050919050565b620001d481620001b6565b8114620001df575f80fd5b50565b5f81519050620001f281620001c9565b92915050565b5f805f806080858703121562000213576200021262000193565b5b5f6200022287828801620001e2565b94505060206200023587828801620001e2565b93505060406200024887828801620001e2565b92505060606200025b87828801620001e2565b91505092959194509250565b610c8f80620002755f395ff3fe608060405234801561000f575f80fd5b506004361061007b575f3560e01c8063736889141161005957806373688914146100eb57806398d5fdca14610109578063d21220a714610127578063d96073cf146101455761007b565b806325be124e1461007f578063527097251461009d5780636e5b6b28146100bb575b5f80fd5b610087610161565b604051610094919061074a565b60405180910390f35b6100a5610186565b6040516100b29190610783565b60405180910390f35b6100d560048036038101906100d091906107d3565b6101ab565b6040516100e2919061080d565b60405180910390f35b6100f36101e3565b6040516101009190610783565b60405180910390f35b610111610208565b60405161011e919061080d565b60405180910390f35b61012f610228565b60405161013c919061074a565b60405180910390f35b61015f600480360381019061015a9190610826565b61024b565b005b60025f9054906101000a900473ffffffffffffffffffffffffffffffffffffffff1681565b60035f9054906101000a900473ffffffffffffffffffffffffffffffffffffffff1681565b5f806101b5610208565b90505f678ac7230489e8000084836101cd9190610891565b6101d791906108ff565b90508092505050919050565b60015f9054906101000a900473ffffffffffffffffffffffffffffffffffffffff1681565b5f8063011f361890506402540be400816102229190610938565b91505090565b5f8054906101000a900473ffffffffffffffffffffffffffffffffffffffff1681565b60015f9054906101000a900473ffffffffffffffffffffffffffffffffffffffff1673ffffffffffffffffffffffffffffffffffffffff163373ffffffffffffffffffffffffffffffffffffffff1614806102f2575060035f9054906101000a900473ffffffffffffffffffffffffffffffffffffffff1673ffffffffffffffffffffffffffffffffffffffff163373ffffffffffffffffffffffffffffffffffffffff16145b610331576040517f08c379a000000000000000000000000000000000000000000000000000000000815260040161032890610a08565b60405180910390fd5b815f8054906101000a900473ffffffffffffffffffffffffffffffffffffffff1673ffffffffffffffffffffffffffffffffffffffff1663dd62ed3e60015f9054906101000a900473ffffffffffffffffffffffffffffffffffffffff16306040518363ffffffff1660e01b81526004016103ad929190610a26565b602060405180830381865afa1580156103c8573d5f803e3d5ffd5b505050506040513d601f19601f820116820180604052508101906103ec9190610a61565b101561042d576040517f08c379a000000000000000000000000000000000000000000000000000000000815260040161042490610ad6565b60405180910390fd5b805f8054906101000a900473ffffffffffffffffffffffffffffffffffffffff1673ffffffffffffffffffffffffffffffffffffffff1663dd62ed3e60035f9054906101000a900473ffffffffffffffffffffffffffffffffffffffff16306040518363ffffffff1660e01b81526004016104a9929190610a26565b602060405180830381865afa1580156104c4573d5f803e3d5ffd5b505050506040513d601f19601f820116820180604052508101906104e89190610a61565b1015610529576040517f08c379a000000000000000000000000000000000000000000000000000000000815260040161052090610b3e565b60405180910390fd5b6105965f8054906101000a900473ffffffffffffffffffffffffffffffffffffffff1660015f9054906101000a900473ffffffffffffffffffffffffffffffffffffffff1660035f9054906101000a900473ffffffffffffffffffffffffffffffffffffffff1685610609565b61060560025f9054906101000a900473ffffffffffffffffffffffffffffffffffffffff1660035f9054906101000a900473ffffffffffffffffffffffffffffffffffffffff1660015f9054906101000a900473ffffffffffffffffffffffffffffffffffffffff1684610609565b5050565b5f8473ffffffffffffffffffffffffffffffffffffffff166323b872dd8585856040518463ffffffff1660e01b815260040161064793929190610b5c565b6020604051808303815f875af1158015610663573d5f803e3d5ffd5b505050506040513d601f19601f820116820180604052508101906106879190610bc6565b9050806106c9576040517f08c379a00000000000000000000000000000000000000000000000000000000081526004016106c090610c3b565b60405180910390fd5b5050505050565b5f73ffffffffffffffffffffffffffffffffffffffff82169050919050565b5f819050919050565b5f61071261070d610708846106d0565b6106ef565b6106d0565b9050919050565b5f610723826106f8565b9050919050565b5f61073482610719565b9050919050565b6107448161072a565b82525050565b5f60208201905061075d5f83018461073b565b92915050565b5f61076d826106d0565b9050919050565b61077d81610763565b82525050565b5f6020820190506107965f830184610774565b92915050565b5f80fd5b5f819050919050565b6107b2816107a0565b81146107bc575f80fd5b50565b5f813590506107cd816107a9565b92915050565b5f602082840312156107e8576107e761079c565b5b5f6107f5848285016107bf565b91505092915050565b610807816107a0565b82525050565b5f6020820190506108205f8301846107fe565b92915050565b5f806040838503121561083c5761083b61079c565b5b5f610849858286016107bf565b925050602061085a858286016107bf565b9150509250929050565b7f4e487b71000000000000000000000000000000000000000000000000000000005f52601160045260245ffd5b5f61089b826107a0565b91506108a6836107a0565b92508282026108b4816107a0565b915082820484148315176108cb576108ca610864565b5b5092915050565b7f4e487b71000000000000000000000000000000000000000000000000000000005f52601260045260245ffd5b5f610909826107a0565b9150610914836107a0565b925082610924576109236108d2565b5b828204905092915050565b5f819050919050565b5f6109428261092f565b915061094d8361092f565b925082820261095b8161092f565b91507f800000000000000000000000000000000000000000000000000000000000000084145f8412161561099257610991610864565b5b82820584148315176109a7576109a6610864565b5b5092915050565b5f82825260208201905092915050565b7f4e6f7420617574686f72697a65640000000000000000000000000000000000005f82015250565b5f6109f2600e836109ae565b91506109fd826109be565b602082019050919050565b5f6020820190508181035f830152610a1f816109e6565b9050919050565b5f604082019050610a395f830185610774565b610a466020830184610774565b9392505050565b5f81519050610a5b816107a9565b92915050565b5f60208284031215610a7657610a7561079c565b5b5f610a8384828501610a4d565b91505092915050565b7f546f6b656e203120616c6c6f77616e636520746f206c6f7700000000000000005f82015250565b5f610ac06018836109ae565b9150610acb82610a8c565b602082019050919050565b5f6020820190508181035f830152610aed81610ab4565b9050919050565b7f546f6b656e203220616c6c6f77616e636520746f206c6f7700000000000000005f82015250565b5f610b286018836109ae565b9150610b3382610af4565b602082019050919050565b5f6020820190508181035f830152610b5581610b1c565b9050919050565b5f606082019050610b6f5f830186610774565b610b7c6020830185610774565b610b8960408301846107fe565b949350505050565b5f8115159050919050565b610ba581610b91565b8114610baf575f80fd5b50565b5f81519050610bc081610b9c565b92915050565b5f60208284031215610bdb57610bda61079c565b5b5f610be884828501610bb2565b91505092915050565b7f546f6b656e207472616e73666572206661696c656400000000000000000000005f82015250565b5f610c256015836109ae565b9150610c3082610bf1565b602082019050919050565b5f6020820190508181035f830152610c5281610c19565b905091905056fea2646970667358221220932c4fc600703d1bb7af7c8efc60f930165fd5534b434267aa82e8fb4e9e9e3f64736f6c63430008140033",
					"opcodes": "PUSH1 0x80 PUSH1 0x40 MSTORE PUSH20 0xC630C6BFF4D198F30D9AB86F89FB83F0BC3FB948 PUSH1 0x1 PUSH0 PUSH2 0x100 EXP DUP2 SLOAD DUP2 PUSH20 0xFFFFFFFFFFFFFFFFFFFFFFFFFFFFFFFFFFFFFFFF MUL NOT AND SWAP1 DUP4 PUSH20 0xFFFFFFFFFFFFFFFFFFFFFFFFFFFFFFFFFFFFFFFF AND MUL OR SWAP1 SSTORE POP CALLVALUE DUP1 ISZERO PUSH3 0x64 JUMPI PUSH0 DUP1 REVERT JUMPDEST POP PUSH1 0x40 MLOAD PUSH3 0xF04 CODESIZE SUB DUP1 PUSH3 0xF04 DUP4 CODECOPY DUP2 DUP2 ADD PUSH1 0x40 MSTORE DUP2 ADD SWAP1 PUSH3 0x8A SWAP2 SWAP1 PUSH3 0x1F8 JUMP JUMPDEST DUP4 PUSH0 DUP1 PUSH2 0x100 EXP DUP2 SLOAD DUP2 PUSH20 0xFFFFFFFFFFFFFFFFFFFFFFFFFFFFFFFFFFFFFFFF MUL NOT AND SWAP1 DUP4 PUSH20 0xFFFFFFFFFFFFFFFFFFFFFFFFFFFFFFFFFFFFFFFF AND MUL OR SWAP1 SSTORE POP DUP3 PUSH1 0x1 PUSH0 PUSH2 0x100 EXP DUP2 SLOAD DUP2 PUSH20 0xFFFFFFFFFFFFFFFFFFFFFFFFFFFFFFFFFFFFFFFF MUL NOT AND SWAP1 DUP4 PUSH20 0xFFFFFFFFFFFFFFFFFFFFFFFFFFFFFFFFFFFFFFFF AND MUL OR SWAP1 SSTORE POP DUP2 PUSH1 0x2 PUSH0 PUSH2 0x100 EXP DUP2 SLOAD DUP2 PUSH20 0xFFFFFFFFFFFFFFFFFFFFFFFFFFFFFFFFFFFFFFFF MUL NOT AND SWAP1 DUP4 PUSH20 0xFFFFFFFFFFFFFFFFFFFFFFFFFFFFFFFFFFFFFFFF AND MUL OR SWAP1 SSTORE POP DUP1 PUSH1 0x3 PUSH0 PUSH2 0x100 EXP DUP2 SLOAD DUP2 PUSH20 0xFFFFFFFFFFFFFFFFFFFFFFFFFFFFFFFFFFFFFFFF MUL NOT AND SWAP1 DUP4 PUSH20 0xFFFFFFFFFFFFFFFFFFFFFFFFFFFFFFFFFFFFFFFF AND MUL OR SWAP1 SSTORE POP POP POP POP POP PUSH3 0x267 JUMP JUMPDEST PUSH0 DUP1 REVERT JUMPDEST PUSH0 PUSH20 0xFFFFFFFFFFFFFFFFFFFFFFFFFFFFFFFFFFFFFFFF DUP3 AND SWAP1 POP SWAP2 SWAP1 POP JUMP JUMPDEST PUSH0 PUSH3 0x1C2 DUP3 PUSH3 0x197 JUMP JUMPDEST SWAP1 POP SWAP2 SWAP1 POP JUMP JUMPDEST PUSH3 0x1D4 DUP2 PUSH3 0x1B6 JUMP JUMPDEST DUP2 EQ PUSH3 0x1DF JUMPI PUSH0 DUP1 REVERT JUMPDEST POP JUMP JUMPDEST PUSH0 DUP2 MLOAD SWAP1 POP PUSH3 0x1F2 DUP2 PUSH3 0x1C9 JUMP JUMPDEST SWAP3 SWAP2 POP POP JUMP JUMPDEST PUSH0 DUP1 PUSH0 DUP1 PUSH1 0x80 DUP6 DUP8 SUB SLT ISZERO PUSH3 0x213 JUMPI PUSH3 0x212 PUSH3 0x193 JUMP JUMPDEST JUMPDEST PUSH0 PUSH3 0x222 DUP8 DUP3 DUP9 ADD PUSH3 0x1E2 JUMP JUMPDEST SWAP5 POP POP PUSH1 0x20 PUSH3 0x235 DUP8 DUP3 DUP9 ADD PUSH3 0x1E2 JUMP JUMPDEST SWAP4 POP POP PUSH1 0x40 PUSH3 0x248 DUP8 DUP3 DUP9 ADD PUSH3 0x1E2 JUMP JUMPDEST SWAP3 POP POP PUSH1 0x60 PUSH3 0x25B DUP8 DUP3 DUP9 ADD PUSH3 0x1E2 JUMP JUMPDEST SWAP2 POP POP SWAP3 SWAP6 SWAP2 SWAP5 POP SWAP3 POP JUMP JUMPDEST PUSH2 0xC8F DUP1 PUSH3 0x275 PUSH0 CODECOPY PUSH0 RETURN INVALID PUSH1 0x80 PUSH1 0x40 MSTORE CALLVALUE DUP1 ISZERO PUSH2 0xF JUMPI PUSH0 DUP1 REVERT JUMPDEST POP PUSH1 0x4 CALLDATASIZE LT PUSH2 0x7B JUMPI PUSH0 CALLDATALOAD PUSH1 0xE0 SHR DUP1 PUSH4 0x73688914 GT PUSH2 0x59 JUMPI DUP1 PUSH4 0x73688914 EQ PUSH2 0xEB JUMPI DUP1 PUSH4 0x98D5FDCA EQ PUSH2 0x109 JUMPI DUP1 PUSH4 0xD21220A7 EQ PUSH2 0x127 JUMPI DUP1 PUSH4 0xD96073CF EQ PUSH2 0x145 JUMPI PUSH2 0x7B JUMP JUMPDEST DUP1 PUSH4 0x25BE124E EQ PUSH2 0x7F JUMPI DUP1 PUSH4 0x52709725 EQ PUSH2 0x9D JUMPI DUP1 PUSH4 0x6E5B6B28 EQ PUSH2 0xBB JUMPI JUMPDEST PUSH0 DUP1 REVERT JUMPDEST PUSH2 0x87 PUSH2 0x161 JUMP JUMPDEST PUSH1 0x40 MLOAD PUSH2 0x94 SWAP2 SWAP1 PUSH2 0x74A JUMP JUMPDEST PUSH1 0x40 MLOAD DUP1 SWAP2 SUB SWAP1 RETURN JUMPDEST PUSH2 0xA5 PUSH2 0x186 JUMP JUMPDEST PUSH1 0x40 MLOAD PUSH2 0xB2 SWAP2 SWAP1 PUSH2 0x783 JUMP JUMPDEST PUSH1 0x40 MLOAD DUP1 SWAP2 SUB SWAP1 RETURN JUMPDEST PUSH2 0xD5 PUSH1 0x4 DUP1 CALLDATASIZE SUB DUP2 ADD SWAP1 PUSH2 0xD0 SWAP2 SWAP1 PUSH2 0x7D3 JUMP JUMPDEST PUSH2 0x1AB JUMP JUMPDEST PUSH1 0x40 MLOAD PUSH2 0xE2 SWAP2 SWAP1 PUSH2 0x80D JUMP JUMPDEST PUSH1 0x40 MLOAD DUP1 SWAP2 SUB SWAP1 RETURN JUMPDEST PUSH2 0xF3 PUSH2 0x1E3 JUMP JUMPDEST PUSH1 0x40 MLOAD PUSH2 0x100 SWAP2 SWAP1 PUSH2 0x783 JUMP JUMPDEST PUSH1 0x40 MLOAD DUP1 SWAP2 SUB SWAP1 RETURN JUMPDEST PUSH2 0x111 PUSH2 0x208 JUMP JUMPDEST PUSH1 0x40 MLOAD PUSH2 0x11E SWAP2 SWAP1 PUSH2 0x80D JUMP JUMPDEST PUSH1 0x40 MLOAD DUP1 SWAP2 SUB SWAP1 RETURN JUMPDEST PUSH2 0x12F PUSH2 0x228 JUMP JUMPDEST PUSH1 0x40 MLOAD PUSH2 0x13C SWAP2 SWAP1 PUSH2 0x74A JUMP JUMPDEST PUSH1 0x40 MLOAD DUP1 SWAP2 SUB SWAP1 RETURN JUMPDEST PUSH2 0x15F PUSH1 0x4 DUP1 CALLDATASIZE SUB DUP2 ADD SWAP1 PUSH2 0x15A SWAP2 SWAP1 PUSH2 0x826 JUMP JUMPDEST PUSH2 0x24B JUMP JUMPDEST STOP JUMPDEST PUSH1 0x2 PUSH0 SWAP1 SLOAD SWAP1 PUSH2 0x100 EXP SWAP1 DIV PUSH20 0xFFFFFFFFFFFFFFFFFFFFFFFFFFFFFFFFFFFFFFFF AND DUP2 JUMP JUMPDEST PUSH1 0x3 PUSH0 SWAP1 SLOAD SWAP1 PUSH2 0x100 EXP SWAP1 DIV PUSH20 0xFFFFFFFFFFFFFFFFFFFFFFFFFFFFFFFFFFFFFFFF AND DUP2 JUMP JUMPDEST PUSH0 DUP1 PUSH2 0x1B5 PUSH2 0x208 JUMP JUMPDEST SWAP1 POP PUSH0 PUSH8 0x8AC7230489E80000 DUP5 DUP4 PUSH2 0x1CD SWAP2 SWAP1 PUSH2 0x891 JUMP JUMPDEST PUSH2 0x1D7 SWAP2 SWAP1 PUSH2 0x8FF JUMP JUMPDEST SWAP1 POP DUP1 SWAP3 POP POP POP SWAP2 SWAP1 POP JUMP JUMPDEST PUSH1 0x1 PUSH0 SWAP1 SLOAD SWAP1 PUSH2 0x100 EXP SWAP1 DIV PUSH20 0xFFFFFFFFFFFFFFFFFFFFFFFFFFFFFFFFFFFFFFFF AND DUP2 JUMP JUMPDEST PUSH0 DUP1 PUSH4 0x11F3618 SWAP1 POP PUSH5 0x2540BE400 DUP2 PUSH2 0x222 SWAP2 SWAP1 PUSH2 0x938 JUMP JUMPDEST SWAP2 POP POP SWAP1 JUMP JUMPDEST PUSH0 DUP1 SLOAD SWAP1 PUSH2 0x100 EXP SWAP1 DIV PUSH20 0xFFFFFFFFFFFFFFFFFFFFFFFFFFFFFFFFFFFFFFFF AND DUP2 JUMP JUMPDEST PUSH1 0x1 PUSH0 SWAP1 SLOAD SWAP1 PUSH2 0x100 EXP SWAP1 DIV PUSH20 0xFFFFFFFFFFFFFFFFFFFFFFFFFFFFFFFFFFFFFFFF AND PUSH20 0xFFFFFFFFFFFFFFFFFFFFFFFFFFFFFFFFFFFFFFFF AND CALLER PUSH20 0xFFFFFFFFFFFFFFFFFFFFFFFFFFFFFFFFFFFFFFFF AND EQ DUP1 PUSH2 0x2F2 JUMPI POP PUSH1 0x3 PUSH0 SWAP1 SLOAD SWAP1 PUSH2 0x100 EXP SWAP1 DIV PUSH20 0xFFFFFFFFFFFFFFFFFFFFFFFFFFFFFFFFFFFFFFFF AND PUSH20 0xFFFFFFFFFFFFFFFFFFFFFFFFFFFFFFFFFFFFFFFF AND CALLER PUSH20 0xFFFFFFFFFFFFFFFFFFFFFFFFFFFFFFFFFFFFFFFF AND EQ JUMPDEST PUSH2 0x331 JUMPI PUSH1 0x40 MLOAD PUSH32 0x8C379A000000000000000000000000000000000000000000000000000000000 DUP2 MSTORE PUSH1 0x4 ADD PUSH2 0x328 SWAP1 PUSH2 0xA08 JUMP JUMPDEST PUSH1 0x40 MLOAD DUP1 SWAP2 SUB SWAP1 REVERT JUMPDEST DUP2 PUSH0 DUP1 SLOAD SWAP1 PUSH2 0x100 EXP SWAP1 DIV PUSH20 0xFFFFFFFFFFFFFFFFFFFFFFFFFFFFFFFFFFFFFFFF AND PUSH20 0xFFFFFFFFFFFFFFFFFFFFFFFFFFFFFFFFFFFFFFFF AND PUSH4 0xDD62ED3E PUSH1 0x1 PUSH0 SWAP1 SLOAD SWAP1 PUSH2 0x100 EXP SWAP1 DIV PUSH20 0xFFFFFFFFFFFFFFFFFFFFFFFFFFFFFFFFFFFFFFFF AND ADDRESS PUSH1 0x40 MLOAD DUP4 PUSH4 0xFFFFFFFF AND PUSH1 0xE0 SHL DUP2 MSTORE PUSH1 0x4 ADD PUSH2 0x3AD SWAP3 SWAP2 SWAP1 PUSH2 0xA26 JUMP JUMPDEST PUSH1 0x20 PUSH1 0x40 MLOAD DUP1 DUP4 SUB DUP2 DUP7 GAS STATICCALL ISZERO DUP1 ISZERO PUSH2 0x3C8 JUMPI RETURNDATASIZE PUSH0 DUP1 RETURNDATACOPY RETURNDATASIZE PUSH0 REVERT JUMPDEST POP POP POP POP PUSH1 0x40 MLOAD RETURNDATASIZE PUSH1 0x1F NOT PUSH1 0x1F DUP3 ADD AND DUP3 ADD DUP1 PUSH1 0x40 MSTORE POP DUP2 ADD SWAP1 PUSH2 0x3EC SWAP2 SWAP1 PUSH2 0xA61 JUMP JUMPDEST LT ISZERO PUSH2 0x42D JUMPI PUSH1 0x40 MLOAD PUSH32 0x8C379A000000000000000000000000000000000000000000000000000000000 DUP2 MSTORE PUSH1 0x4 ADD PUSH2 0x424 SWAP1 PUSH2 0xAD6 JUMP JUMPDEST PUSH1 0x40 MLOAD DUP1 SWAP2 SUB SWAP1 REVERT JUMPDEST DUP1 PUSH0 DUP1 SLOAD SWAP1 PUSH2 0x100 EXP SWAP1 DIV PUSH20 0xFFFFFFFFFFFFFFFFFFFFFFFFFFFFFFFFFFFFFFFF AND PUSH20 0xFFFFFFFFFFFFFFFFFFFFFFFFFFFFFFFFFFFFFFFF AND PUSH4 0xDD62ED3E PUSH1 0x3 PUSH0 SWAP1 SLOAD SWAP1 PUSH2 0x100 EXP SWAP1 DIV PUSH20 0xFFFFFFFFFFFFFFFFFFFFFFFFFFFFFFFFFFFFFFFF AND ADDRESS PUSH1 0x40 MLOAD DUP4 PUSH4 0xFFFFFFFF AND PUSH1 0xE0 SHL DUP2 MSTORE PUSH1 0x4 ADD PUSH2 0x4A9 SWAP3 SWAP2 SWAP1 PUSH2 0xA26 JUMP JUMPDEST PUSH1 0x20 PUSH1 0x40 MLOAD DUP1 DUP4 SUB DUP2 DUP7 GAS STATICCALL ISZERO DUP1 ISZERO PUSH2 0x4C4 JUMPI RETURNDATASIZE PUSH0 DUP1 RETURNDATACOPY RETURNDATASIZE PUSH0 REVERT JUMPDEST POP POP POP POP PUSH1 0x40 MLOAD RETURNDATASIZE PUSH1 0x1F NOT PUSH1 0x1F DUP3 ADD AND DUP3 ADD DUP1 PUSH1 0x40 MSTORE POP DUP2 ADD SWAP1 PUSH2 0x4E8 SWAP2 SWAP1 PUSH2 0xA61 JUMP JUMPDEST LT ISZERO PUSH2 0x529 JUMPI PUSH1 0x40 MLOAD PUSH32 0x8C379A000000000000000000000000000000000000000000000000000000000 DUP2 MSTORE PUSH1 0x4 ADD PUSH2 0x520 SWAP1 PUSH2 0xB3E JUMP JUMPDEST PUSH1 0x40 MLOAD DUP1 SWAP2 SUB SWAP1 REVERT JUMPDEST PUSH2 0x596 PUSH0 DUP1 SLOAD SWAP1 PUSH2 0x100 EXP SWAP1 DIV PUSH20 0xFFFFFFFFFFFFFFFFFFFFFFFFFFFFFFFFFFFFFFFF AND PUSH1 0x1 PUSH0 SWAP1 SLOAD SWAP1 PUSH2 0x100 EXP SWAP1 DIV PUSH20 0xFFFFFFFFFFFFFFFFFFFFFFFFFFFFFFFFFFFFFFFF AND PUSH1 0x3 PUSH0 SWAP1 SLOAD SWAP1 PUSH2 0x100 EXP SWAP1 DIV PUSH20 0xFFFFFFFFFFFFFFFFFFFFFFFFFFFFFFFFFFFFFFFF AND DUP6 PUSH2 0x609 JUMP JUMPDEST PUSH2 0x605 PUSH1 0x2 PUSH0 SWAP1 SLOAD SWAP1 PUSH2 0x100 EXP SWAP1 DIV PUSH20 0xFFFFFFFFFFFFFFFFFFFFFFFFFFFFFFFFFFFFFFFF AND PUSH1 0x3 PUSH0 SWAP1 SLOAD SWAP1 PUSH2 0x100 EXP SWAP1 DIV PUSH20 0xFFFFFFFFFFFFFFFFFFFFFFFFFFFFFFFFFFFFFFFF AND PUSH1 0x1 PUSH0 SWAP1 SLOAD SWAP1 PUSH2 0x100 EXP SWAP1 DIV PUSH20 0xFFFFFFFFFFFFFFFFFFFFFFFFFFFFFFFFFFFFFFFF AND DUP5 PUSH2 0x609 JUMP JUMPDEST POP POP JUMP JUMPDEST PUSH0 DUP5 PUSH20 0xFFFFFFFFFFFFFFFFFFFFFFFFFFFFFFFFFFFFFFFF AND PUSH4 0x23B872DD DUP6 DUP6 DUP6 PUSH1 0x40 MLOAD DUP5 PUSH4 0xFFFFFFFF AND PUSH1 0xE0 SHL DUP2 MSTORE PUSH1 0x4 ADD PUSH2 0x647 SWAP4 SWAP3 SWAP2 SWAP1 PUSH2 0xB5C JUMP JUMPDEST PUSH1 0x20 PUSH1 0x40 MLOAD DUP1 DUP4 SUB DUP2 PUSH0 DUP8 GAS CALL ISZERO DUP1 ISZERO PUSH2 0x663 JUMPI RETURNDATASIZE PUSH0 DUP1 RETURNDATACOPY RETURNDATASIZE PUSH0 REVERT JUMPDEST POP POP POP POP PUSH1 0x40 MLOAD RETURNDATASIZE PUSH1 0x1F NOT PUSH1 0x1F DUP3 ADD AND DUP3 ADD DUP1 PUSH1 0x40 MSTORE POP DUP2 ADD SWAP1 PUSH2 0x687 SWAP2 SWAP1 PUSH2 0xBC6 JUMP JUMPDEST SWAP1 POP DUP1 PUSH2 0x6C9 JUMPI PUSH1 0x40 MLOAD PUSH32 0x8C379A000000000000000000000000000000000000000000000000000000000 DUP2 MSTORE PUSH1 0x4 ADD PUSH2 0x6C0 SWAP1 PUSH2 0xC3B JUMP JUMPDEST PUSH1 0x40 MLOAD DUP1 SWAP2 SUB SWAP1 REVERT JUMPDEST POP POP POP POP POP JUMP JUMPDEST PUSH0 PUSH20 0xFFFFFFFFFFFFFFFFFFFFFFFFFFFFFFFFFFFFFFFF DUP3 AND SWAP1 POP SWAP2 SWAP1 POP JUMP JUMPDEST PUSH0 DUP2 SWAP1 POP SWAP2 SWAP1 POP JUMP JUMPDEST PUSH0 PUSH2 0x712 PUSH2 0x70D PUSH2 0x708 DUP5 PUSH2 0x6D0 JUMP JUMPDEST PUSH2 0x6EF JUMP JUMPDEST PUSH2 0x6D0 JUMP JUMPDEST SWAP1 POP SWAP2 SWAP1 POP JUMP JUMPDEST PUSH0 PUSH2 0x723 DUP3 PUSH2 0x6F8 JUMP JUMPDEST SWAP1 POP SWAP2 SWAP1 POP JUMP JUMPDEST PUSH0 PUSH2 0x734 DUP3 PUSH2 0x719 JUMP JUMPDEST SWAP1 POP SWAP2 SWAP1 POP JUMP JUMPDEST PUSH2 0x744 DUP2 PUSH2 0x72A JUMP JUMPDEST DUP3 MSTORE POP POP JUMP JUMPDEST PUSH0 PUSH1 0x20 DUP3 ADD SWAP1 POP PUSH2 0x75D PUSH0 DUP4 ADD DUP5 PUSH2 0x73B JUMP JUMPDEST SWAP3 SWAP2 POP POP JUMP JUMPDEST PUSH0 PUSH2 0x76D DUP3 PUSH2 0x6D0 JUMP JUMPDEST SWAP1 POP SWAP2 SWAP1 POP JUMP JUMPDEST PUSH2 0x77D DUP2 PUSH2 0x763 JUMP JUMPDEST DUP3 MSTORE POP POP JUMP JUMPDEST PUSH0 PUSH1 0x20 DUP3 ADD SWAP1 POP PUSH2 0x796 PUSH0 DUP4 ADD DUP5 PUSH2 0x774 JUMP JUMPDEST SWAP3 SWAP2 POP POP JUMP JUMPDEST PUSH0 DUP1 REVERT JUMPDEST PUSH0 DUP2 SWAP1 POP SWAP2 SWAP1 POP JUMP JUMPDEST PUSH2 0x7B2 DUP2 PUSH2 0x7A0 JUMP JUMPDEST DUP2 EQ PUSH2 0x7BC JUMPI PUSH0 DUP1 REVERT JUMPDEST POP JUMP JUMPDEST PUSH0 DUP2 CALLDATALOAD SWAP1 POP PUSH2 0x7CD DUP2 PUSH2 0x7A9 JUMP JUMPDEST SWAP3 SWAP2 POP POP JUMP JUMPDEST PUSH0 PUSH1 0x20 DUP3 DUP5 SUB SLT ISZERO PUSH2 0x7E8 JUMPI PUSH2 0x7E7 PUSH2 0x79C JUMP JUMPDEST JUMPDEST PUSH0 PUSH2 0x7F5 DUP5 DUP3 DUP6 ADD PUSH2 0x7BF JUMP JUMPDEST SWAP2 POP POP SWAP3 SWAP2 POP POP JUMP JUMPDEST PUSH2 0x807 DUP2 PUSH2 0x7A0 JUMP JUMPDEST DUP3 MSTORE POP POP JUMP JUMPDEST PUSH0 PUSH1 0x20 DUP3 ADD SWAP1 POP PUSH2 0x820 PUSH0 DUP4 ADD DUP5 PUSH2 0x7FE JUMP JUMPDEST SWAP3 SWAP2 POP POP JUMP JUMPDEST PUSH0 DUP1 PUSH1 0x40 DUP4 DUP6 SUB SLT ISZERO PUSH2 0x83C JUMPI PUSH2 0x83B PUSH2 0x79C JUMP JUMPDEST JUMPDEST PUSH0 PUSH2 0x849 DUP6 DUP3 DUP7 ADD PUSH2 0x7BF JUMP JUMPDEST SWAP3 POP POP PUSH1 0x20 PUSH2 0x85A DUP6 DUP3 DUP7 ADD PUSH2 0x7BF JUMP JUMPDEST SWAP2 POP POP SWAP3 POP SWAP3 SWAP1 POP JUMP JUMPDEST PUSH32 0x4E487B7100000000000000000000000000000000000000000000000000000000 PUSH0 MSTORE PUSH1 0x11 PUSH1 0x4 MSTORE PUSH1 0x24 PUSH0 REVERT JUMPDEST PUSH0 PUSH2 0x89B DUP3 PUSH2 0x7A0 JUMP JUMPDEST SWAP2 POP PUSH2 0x8A6 DUP4 PUSH2 0x7A0 JUMP JUMPDEST SWAP3 POP DUP3 DUP3 MUL PUSH2 0x8B4 DUP2 PUSH2 0x7A0 JUMP JUMPDEST SWAP2 POP DUP3 DUP3 DIV DUP5 EQ DUP4 ISZERO OR PUSH2 0x8CB JUMPI PUSH2 0x8CA PUSH2 0x864 JUMP JUMPDEST JUMPDEST POP SWAP3 SWAP2 POP POP JUMP JUMPDEST PUSH32 0x4E487B7100000000000000000000000000000000000000000000000000000000 PUSH0 MSTORE PUSH1 0x12 PUSH1 0x4 MSTORE PUSH1 0x24 PUSH0 REVERT JUMPDEST PUSH0 PUSH2 0x909 DUP3 PUSH2 0x7A0 JUMP JUMPDEST SWAP2 POP PUSH2 0x914 DUP4 PUSH2 0x7A0 JUMP JUMPDEST SWAP3 POP DUP3 PUSH2 0x924 JUMPI PUSH2 0x923 PUSH2 0x8D2 JUMP JUMPDEST JUMPDEST DUP3 DUP3 DIV SWAP1 POP SWAP3 SWAP2 POP POP JUMP JUMPDEST PUSH0 DUP2 SWAP1 POP SWAP2 SWAP1 POP JUMP JUMPDEST PUSH0 PUSH2 0x942 DUP3 PUSH2 0x92F JUMP JUMPDEST SWAP2 POP PUSH2 0x94D DUP4 PUSH2 0x92F JUMP JUMPDEST SWAP3 POP DUP3 DUP3 MUL PUSH2 0x95B DUP2 PUSH2 0x92F JUMP JUMPDEST SWAP2 POP PUSH32 0x8000000000000000000000000000000000000000000000000000000000000000 DUP5 EQ PUSH0 DUP5 SLT AND ISZERO PUSH2 0x992 JUMPI PUSH2 0x991 PUSH2 0x864 JUMP JUMPDEST JUMPDEST DUP3 DUP3 SDIV DUP5 EQ DUP4 ISZERO OR PUSH2 0x9A7 JUMPI PUSH2 0x9A6 PUSH2 0x864 JUMP JUMPDEST JUMPDEST POP SWAP3 SWAP2 POP POP JUMP JUMPDEST PUSH0 DUP3 DUP3 MSTORE PUSH1 0x20 DUP3 ADD SWAP1 POP SWAP3 SWAP2 POP POP JUMP JUMPDEST PUSH32 0x4E6F7420617574686F72697A6564000000000000000000000000000000000000 PUSH0 DUP3 ADD MSTORE POP JUMP JUMPDEST PUSH0 PUSH2 0x9F2 PUSH1 0xE DUP4 PUSH2 0x9AE JUMP JUMPDEST SWAP2 POP PUSH2 0x9FD DUP3 PUSH2 0x9BE JUMP JUMPDEST PUSH1 0x20 DUP3 ADD SWAP1 POP SWAP2 SWAP1 POP JUMP JUMPDEST PUSH0 PUSH1 0x20 DUP3 ADD SWAP1 POP DUP2 DUP2 SUB PUSH0 DUP4 ADD MSTORE PUSH2 0xA1F DUP2 PUSH2 0x9E6 JUMP JUMPDEST SWAP1 POP SWAP2 SWAP1 POP JUMP JUMPDEST PUSH0 PUSH1 0x40 DUP3 ADD SWAP1 POP PUSH2 0xA39 PUSH0 DUP4 ADD DUP6 PUSH2 0x774 JUMP JUMPDEST PUSH2 0xA46 PUSH1 0x20 DUP4 ADD DUP5 PUSH2 0x774 JUMP JUMPDEST SWAP4 SWAP3 POP POP POP JUMP JUMPDEST PUSH0 DUP2 MLOAD SWAP1 POP PUSH2 0xA5B DUP2 PUSH2 0x7A9 JUMP JUMPDEST SWAP3 SWAP2 POP POP JUMP JUMPDEST PUSH0 PUSH1 0x20 DUP3 DUP5 SUB SLT ISZERO PUSH2 0xA76 JUMPI PUSH2 0xA75 PUSH2 0x79C JUMP JUMPDEST JUMPDEST PUSH0 PUSH2 0xA83 DUP5 DUP3 DUP6 ADD PUSH2 0xA4D JUMP JUMPDEST SWAP2 POP POP SWAP3 SWAP2 POP POP JUMP JUMPDEST PUSH32 0x546F6B656E203120616C6C6F77616E636520746F206C6F770000000000000000 PUSH0 DUP3 ADD MSTORE POP JUMP JUMPDEST PUSH0 PUSH2 0xAC0 PUSH1 0x18 DUP4 PUSH2 0x9AE JUMP JUMPDEST SWAP2 POP PUSH2 0xACB DUP3 PUSH2 0xA8C JUMP JUMPDEST PUSH1 0x20 DUP3 ADD SWAP1 POP SWAP2 SWAP1 POP JUMP JUMPDEST PUSH0 PUSH1 0x20 DUP3 ADD SWAP1 POP DUP2 DUP2 SUB PUSH0 DUP4 ADD MSTORE PUSH2 0xAED DUP2 PUSH2 0xAB4 JUMP JUMPDEST SWAP1 POP SWAP2 SWAP1 POP JUMP JUMPDEST PUSH32 0x546F6B656E203220616C6C6F77616E636520746F206C6F770000000000000000 PUSH0 DUP3 ADD MSTORE POP JUMP JUMPDEST PUSH0 PUSH2 0xB28 PUSH1 0x18 DUP4 PUSH2 0x9AE JUMP JUMPDEST SWAP2 POP PUSH2 0xB33 DUP3 PUSH2 0xAF4 JUMP JUMPDEST PUSH1 0x20 DUP3 ADD SWAP1 POP SWAP2 SWAP1 POP JUMP JUMPDEST PUSH0 PUSH1 0x20 DUP3 ADD SWAP1 POP DUP2 DUP2 SUB PUSH0 DUP4 ADD MSTORE PUSH2 0xB55 DUP2 PUSH2 0xB1C JUMP JUMPDEST SWAP1 POP SWAP2 SWAP1 POP JUMP JUMPDEST PUSH0 PUSH1 0x60 DUP3 ADD SWAP1 POP PUSH2 0xB6F PUSH0 DUP4 ADD DUP7 PUSH2 0x774 JUMP JUMPDEST PUSH2 0xB7C PUSH1 0x20 DUP4 ADD DUP6 PUSH2 0x774 JUMP JUMPDEST PUSH2 0xB89 PUSH1 0x40 DUP4 ADD DUP5 PUSH2 0x7FE JUMP JUMPDEST SWAP5 SWAP4 POP POP POP POP JUMP JUMPDEST PUSH0 DUP2 ISZERO ISZERO SWAP1 POP SWAP2 SWAP1 POP JUMP JUMPDEST PUSH2 0xBA5 DUP2 PUSH2 0xB91 JUMP JUMPDEST DUP2 EQ PUSH2 0xBAF JUMPI PUSH0 DUP1 REVERT JUMPDEST POP JUMP JUMPDEST PUSH0 DUP2 MLOAD SWAP1 POP PUSH2 0xBC0 DUP2 PUSH2 0xB9C JUMP JUMPDEST SWAP3 SWAP2 POP POP JUMP JUMPDEST PUSH0 PUSH1 0x20 DUP3 DUP5 SUB SLT ISZERO PUSH2 0xBDB JUMPI PUSH2 0xBDA PUSH2 0x79C JUMP JUMPDEST JUMPDEST PUSH0 PUSH2 0xBE8 DUP5 DUP3 DUP6 ADD PUSH2 0xBB2 JUMP JUMPDEST SWAP2 POP POP SWAP3 SWAP2 POP POP JUMP JUMPDEST PUSH32 0x546F6B656E207472616E73666572206661696C65640000000000000000000000 PUSH0 DUP3 ADD MSTORE POP JUMP JUMPDEST PUSH0 PUSH2 0xC25 PUSH1 0x15 DUP4 PUSH2 0x9AE JUMP JUMPDEST SWAP2 POP PUSH2 0xC30 DUP3 PUSH2 0xBF1 JUMP JUMPDEST PUSH1 0x20 DUP3 ADD SWAP1 POP SWAP2 SWAP1 POP JUMP JUMPDEST PUSH0 PUSH1 0x20 DUP3 ADD SWAP1 POP DUP2 DUP2 SUB PUSH0 DUP4 ADD MSTORE PUSH2 0xC52 DUP2 PUSH2 0xC19 JUMP JUMPDEST SWAP1 POP SWAP2 SWAP1 POP JUMP INVALID LOG2 PUSH5 0x6970667358 0x22 SLT KECCAK256 SWAP4 0x2C 0x4F 0xC6 STOP PUSH17 0x3D1BB7AF7C8EFC60F930165FD5534B4342 PUSH8 0xAA82E8FB4E9E9E3F PUSH5 0x736F6C6343 STOP ADDMOD EQ STOP CALLER "
				},
				"gasEstimates": {
					"creation": {
						"codeDepositCost": "643000",
						"executionCost": "infinite",
						"totalCost": "infinite"
					},
					"external": {
						"getConversionRate(uint256)": "infinite",
						"getPrice()": "infinite",
						"owner1()": "2508",
						"owner2()": "2531",
						"swap(uint256,uint256)": "infinite",
						"token1()": "infinite",
						"token2()": "infinite"
					},
					"internal": {
						"_saferTransferFrom(contract IERC20,address,address,uint256)": "infinite"
					}
				},
				"methodIdentifiers": {
					"getConversionRate(uint256)": "6e5b6b28",
					"getPrice()": "98d5fdca",
					"owner1()": "73688914",
					"owner2()": "52709725",
					"swap(uint256,uint256)": "d96073cf",
					"token1()": "d21220a7",
					"token2()": "25be124e"
				}
			},
			"storageLayout": {
				"storage": [
					{
						"astId": 5,
						"contract": "contracts/BTDTokenSwap.sol:BTDTokenSwap",
						"label": "token1",
						"offset": 0,
						"slot": "0",
						"type": "t_contract(IERC20)257"
					},
					{
						"astId": 8,
						"contract": "contracts/BTDTokenSwap.sol:BTDTokenSwap",
						"label": "owner1",
						"offset": 0,
						"slot": "1",
						"type": "t_address"
					},
					{
						"astId": 11,
						"contract": "contracts/BTDTokenSwap.sol:BTDTokenSwap",
						"label": "token2",
						"offset": 0,
						"slot": "2",
						"type": "t_contract(IERC20)257"
					},
					{
						"astId": 13,
						"contract": "contracts/BTDTokenSwap.sol:BTDTokenSwap",
						"label": "owner2",
						"offset": 0,
						"slot": "3",
						"type": "t_address"
					},
					{
						"astId": 15,
						"contract": "contracts/BTDTokenSwap.sol:BTDTokenSwap",
						"label": "transactionMade",
						"offset": 20,
						"slot": "3",
						"type": "t_bool"
					}
				],
				"types": {
					"t_address": {
						"encoding": "inplace",
						"label": "address",
						"numberOfBytes": "20"
					},
					"t_bool": {
						"encoding": "inplace",
						"label": "bool",
						"numberOfBytes": "1"
					},
					"t_contract(IERC20)257": {
						"encoding": "inplace",
						"label": "contract IERC20",
						"numberOfBytes": "20"
					}
				}
			},
			"userdoc": {
				"kind": "user",
				"methods": {},
				"version": 1
			}
		}
	}
}