{
	"data": {
		"bytecode": {
			"linkReferences": {},
			"object": "60806040526040518060400160405280600281526020016040518060400160405280600781526020017f5061747269636b0000000000000000000000000000000000000000000000000081525081525060015f820151815f0155602082015181600101908161006e91906102bc565b50505034801561007c575f80fd5b5061038b565b5f81519050919050565b7f4e487b71000000000000000000000000000000000000000000000000000000005f52604160045260245ffd5b7f4e487b71000000000000000000000000000000000000000000000000000000005f52602260045260245ffd5b5f60028204905060018216806100fd57607f821691505b6020821081036101105761010f6100b9565b5b50919050565b5f819050815f5260205f209050919050565b5f6020601f8301049050919050565b5f82821b905092915050565b5f600883026101727fffffffffffffffffffffffffffffffffffffffffffffffffffffffffffffffff82610137565b61017c8683610137565b95508019841693508086168417925050509392505050565b5f819050919050565b5f819050919050565b5f6101c06101bb6101b684610194565b61019d565b610194565b9050919050565b5f819050919050565b6101d9836101a6565b6101ed6101e5826101c7565b848454610143565b825550505050565b5f90565b6102016101f5565b61020c8184846101d0565b505050565b5b8181101561022f576102245f826101f9565b600181019050610212565b5050565b601f8211156102745761024581610116565b61024e84610128565b8101602085101561025d578190505b61027161026985610128565b830182610211565b50505b505050565b5f82821c905092915050565b5f6102945f1984600802610279565b1980831691505092915050565b5f6102ac8383610285565b9150826002028217905092915050565b6102c582610082565b67ffffffffffffffff8111156102de576102dd61008c565b5b6102e882546100e6565b6102f3828285610233565b5f60209050601f831160018114610324575f8415610312578287015190505b61031c85826102a1565b865550610383565b601f19841661033286610116565b5f5b8281101561035957848901518255600182019150602085019450602081019050610334565b868310156103765784890151610372601f891682610285565b8355505b6001600288020188555050505b505050505050565b611c83806103985f395ff3fe608060405234801561000f575f80fd5b50600436106100b2575f3560e01c80636f760f411161006f5780636f760f411461016257806377ec2b551461017e5780638bab8dd51461019d5780639e7a13ad146101cd578063aa62479e146101fe578063c5f19c201461021c576100b2565b80631563700f146100b65780631dda6541146100d257806329a22b88146100dc578063471f7cdf146100f85780636057361d1461011657806364591bf114610132575b5f80fd5b6100d060048036038101906100cb91906106dc565b61024c565b005b6100da6102f1565b005b6100f660048036038101906100f1919061071a565b61037d565b005b61010061038d565b60405161010d9190610754565b60405180910390f35b610130600480360381019061012b919061071a565b610392565b005b61014c6004803603810190610147919061071a565b61039b565b60405161015991906107e7565b60405180910390f35b61017c6004803603810190610177919061093c565b6103d6565b005b61018661045a565b6040516101949291906109f6565b60405180910390f35b6101b760048036038101906101b29190610a24565b6104f1565b6040516101c49190610754565b60405180910390f35b6101e760048036038101906101e2919061071a565b61051e565b6040516101f59291906109f6565b60405180910390f35b6102066105d3565b6040516102139190610754565b60405180910390f35b6102366004803603810190610231919061071a565b6105db565b6040516102439190610754565b60405180910390f35b600582815481106102605761025f610a6b565b5b905f5260205f20015f9054906101000a900473ffffffffffffffffffffffffffffffffffffffff1673ffffffffffffffffffffffffffffffffffffffff16636057361d826040518263ffffffff1660e01b81526004016102c09190610754565b5f604051808303815f87803b1580156102d7575f80fd5b505af11580156102e9573d5f803e3d5ffd5b505050505050565b5f6040516102fe9061068b565b604051809103905ff080158015610317573d5f803e3d5ffd5b509050600581908060018154018082558091505060019003905f5260205f20015f9091909190916101000a81548173ffffffffffffffffffffffffffffffffffffffff021916908373ffffffffffffffffffffffffffffffffffffffff16021790555050565b80816103899190610ac5565b5050565b5f5481565b805f8190555050565b600581815481106103aa575f80fd5b905f5260205f20015f915054906101000a900473ffffffffffffffffffffffffffffffffffffffff1681565b6003604051806040016040528083815260200184815250908060018154018082558091505060019003905f5260205f2090600202015f909190919091505f820151815f015560208201518160010190816104309190610ce9565b505050806004836040516104449190610df2565b9081526020016040518091039020819055505050565b6001805f01549080600101805461047090610b25565b80601f016020809104026020016040519081016040528092919081815260200182805461049c90610b25565b80156104e75780601f106104be576101008083540402835291602001916104e7565b820191905f5260205f20905b8154815290600101906020018083116104ca57829003601f168201915b5050505050905082565b6004818051602081018201805184825260208301602085012081835280955050505050505f915090505481565b6003818154811061052d575f80fd5b905f5260205f2090600202015f91509050805f01549080600101805461055290610b25565b80601f016020809104026020016040519081016040528092919081815260200182805461057e90610b25565b80156105c95780601f106105a0576101008083540402835291602001916105c9565b820191905f5260205f20905b8154815290600101906020018083116105ac57829003601f168201915b5050505050905082565b5f8054905090565b5f600582815481106105f0576105ef610a6b565b5b905f5260205f20015f9054906101000a900473ffffffffffffffffffffffffffffffffffffffff1673ffffffffffffffffffffffffffffffffffffffff1663aa62479e6040518163ffffffff1660e01b8152600401602060405180830381865afa158015610660573d5f803e3d5ffd5b505050506040513d601f19601f820116820180604052508101906106849190610e1c565b9050919050565b610e0680610e4883390190565b5f604051905090565b5f80fd5b5f80fd5b5f819050919050565b6106bb816106a9565b81146106c5575f80fd5b50565b5f813590506106d6816106b2565b92915050565b5f80604083850312156106f2576106f16106a1565b5b5f6106ff858286016106c8565b9250506020610710858286016106c8565b9150509250929050565b5f6020828403121561072f5761072e6106a1565b5b5f61073c848285016106c8565b91505092915050565b61074e816106a9565b82525050565b5f6020820190506107675f830184610745565b92915050565b5f73ffffffffffffffffffffffffffffffffffffffff82169050919050565b5f819050919050565b5f6107af6107aa6107a58461076d565b61078c565b61076d565b9050919050565b5f6107c082610795565b9050919050565b5f6107d1826107b6565b9050919050565b6107e1816107c7565b82525050565b5f6020820190506107fa5f8301846107d8565b92915050565b5f80fd5b5f80fd5b5f601f19601f8301169050919050565b7f4e487b71000000000000000000000000000000000000000000000000000000005f52604160045260245ffd5b61084e82610808565b810181811067ffffffffffffffff8211171561086d5761086c610818565b5b80604052505050565b5f61087f610698565b905061088b8282610845565b919050565b5f67ffffffffffffffff8211156108aa576108a9610818565b5b6108b382610808565b9050602081019050919050565b828183375f83830152505050565b5f6108e06108db84610890565b610876565b9050828152602081018484840111156108fc576108fb610804565b5b6109078482856108c0565b509392505050565b5f82601f83011261092357610922610800565b5b81356109338482602086016108ce565b91505092915050565b5f8060408385031215610952576109516106a1565b5b5f83013567ffffffffffffffff81111561096f5761096e6106a5565b5b61097b8582860161090f565b925050602061098c858286016106c8565b9150509250929050565b5f81519050919050565b5f82825260208201905092915050565b8281835e5f83830152505050565b5f6109c882610996565b6109d281856109a0565b93506109e28185602086016109b0565b6109eb81610808565b840191505092915050565b5f604082019050610a095f830185610745565b8181036020830152610a1b81846109be565b90509392505050565b5f60208284031215610a3957610a386106a1565b5b5f82013567ffffffffffffffff811115610a5657610a556106a5565b5b610a628482850161090f565b91505092915050565b7f4e487b71000000000000000000000000000000000000000000000000000000005f52603260045260245ffd5b7f4e487b71000000000000000000000000000000000000000000000000000000005f52601160045260245ffd5b5f610acf826106a9565b9150610ada836106a9565b9250828201905080821115610af257610af1610a98565b5b92915050565b7f4e487b71000000000000000000000000000000000000000000000000000000005f52602260045260245ffd5b5f6002820490506001821680610b3c57607f821691505b602082108103610b4f57610b4e610af8565b5b50919050565b5f819050815f5260205f209050919050565b5f6020601f8301049050919050565b5f82821b905092915050565b5f60088302610bb17fffffffffffffffffffffffffffffffffffffffffffffffffffffffffffffffff82610b76565b610bbb8683610b76565b95508019841693508086168417925050509392505050565b5f610bed610be8610be3846106a9565b61078c565b6106a9565b9050919050565b5f819050919050565b610c0683610bd3565b610c1a610c1282610bf4565b848454610b82565b825550505050565b5f90565b610c2e610c22565b610c39818484610bfd565b505050565b5b81811015610c5c57610c515f82610c26565b600181019050610c3f565b5050565b601f821115610ca157610c7281610b55565b610c7b84610b67565b81016020851015610c8a578190505b610c9e610c9685610b67565b830182610c3e565b50505b505050565b5f82821c905092915050565b5f610cc15f1984600802610ca6565b1980831691505092915050565b5f610cd98383610cb2565b9150826002028217905092915050565b610cf282610996565b67ffffffffffffffff811115610d0b57610d0a610818565b5b610d158254610b25565b610d20828285610c60565b5f60209050601f831160018114610d51575f8415610d3f578287015190505b610d498582610cce565b865550610db0565b601f198416610d5f86610b55565b5f5b82811015610d8657848901518255600182019150602085019450602081019050610d61565b86831015610da35784890151610d9f601f891682610cb2565b8355505b6001600288020188555050505b505050505050565b5f81905092915050565b5f610dcc82610996565b610dd68185610db8565b9350610de68185602086016109b0565b80840191505092915050565b5f610dfd8284610dc2565b915081905092915050565b5f81519050610e16816106b2565b92915050565b5f60208284031215610e3157610e306106a1565b5b5f610e3e84828501610e08565b9150509291505056fe60806040526040518060400160405280600281526020016040518060400160405280600781526020017f5061747269636b0000000000000000000000000000000000000000000000000081525081525060015f820151815f0155602082015181600101908161006e91906102bc565b50505034801561007c575f80fd5b5061038b565b5f81519050919050565b7f4e487b71000000000000000000000000000000000000000000000000000000005f52604160045260245ffd5b7f4e487b71000000000000000000000000000000000000000000000000000000005f52602260045260245ffd5b5f60028204905060018216806100fd57607f821691505b6020821081036101105761010f6100b9565b5b50919050565b5f819050815f5260205f209050919050565b5f6020601f8301049050919050565b5f82821b905092915050565b5f600883026101727fffffffffffffffffffffffffffffffffffffffffffffffffffffffffffffffff82610137565b61017c8683610137565b95508019841693508086168417925050509392505050565b5f819050919050565b5f819050919050565b5f6101c06101bb6101b684610194565b61019d565b610194565b9050919050565b5f819050919050565b6101d9836101a6565b6101ed6101e5826101c7565b848454610143565b825550505050565b5f90565b6102016101f5565b61020c8184846101d0565b505050565b5b8181101561022f576102245f826101f9565b600181019050610212565b5050565b601f8211156102745761024581610116565b61024e84610128565b8101602085101561025d578190505b61027161026985610128565b830182610211565b50505b505050565b5f82821c905092915050565b5f6102945f1984600802610279565b1980831691505092915050565b5f6102ac8383610285565b9150826002028217905092915050565b6102c582610082565b67ffffffffffffffff8111156102de576102dd61008c565b5b6102e882546100e6565b6102f3828285610233565b5f60209050601f831160018114610324575f8415610312578287015190505b61031c85826102a1565b865550610383565b601f19841661033286610116565b5f5b8281101561035957848901518255600182019150602085019450602081019050610334565b868310156103765784890151610372601f891682610285565b8355505b6001600288020188555050505b505050505050565b610a6e806103985f395ff3fe608060405234801561000f575f80fd5b5060043610610086575f3560e01c806377ec2b551161005957806377ec2b55146100fc5780638bab8dd51461011b5780639e7a13ad1461014b578063aa62479e1461017c57610086565b806329a22b881461008a578063471f7cdf146100a65780636057361d146100c45780636f760f41146100e0575b5f80fd5b6100a4600480360381019061009f9190610401565b61019a565b005b6100ae6101aa565b6040516100bb919061043b565b60405180910390f35b6100de60048036038101906100d99190610401565b6101af565b005b6100fa60048036038101906100f59190610590565b6101b8565b005b61010461023c565b60405161011292919061064a565b60405180910390f35b61013560048036038101906101309190610678565b6102d3565b604051610142919061043b565b60405180910390f35b61016560048036038101906101609190610401565b610300565b60405161017392919061064a565b60405180910390f35b6101846103b5565b604051610191919061043b565b60405180910390f35b80816101a691906106ec565b5050565b5f5481565b805f8190555050565b6003604051806040016040528083815260200184815250908060018154018082558091505060019003905f5260205f2090600202015f909190919091505f820151815f015560208201518160010190816102129190610919565b505050806004836040516102269190610a22565b9081526020016040518091039020819055505050565b6001805f0154908060010180546102529061074c565b80601f016020809104026020016040519081016040528092919081815260200182805461027e9061074c565b80156102c95780601f106102a0576101008083540402835291602001916102c9565b820191905f5260205f20905b8154815290600101906020018083116102ac57829003601f168201915b5050505050905082565b6004818051602081018201805184825260208301602085012081835280955050505050505f915090505481565b6003818154811061030f575f80fd5b905f5260205f2090600202015f91509050805f0154908060010180546103349061074c565b80601f01602080910402602001604051908101604052809291908181526020018280546103609061074c565b80156103ab5780601f10610382576101008083540402835291602001916103ab565b820191905f5260205f20905b81548152906001019060200180831161038e57829003601f168201915b5050505050905082565b5f8054905090565b5f604051905090565b5f80fd5b5f80fd5b5f819050919050565b6103e0816103ce565b81146103ea575f80fd5b50565b5f813590506103fb816103d7565b92915050565b5f60208284031215610416576104156103c6565b5b5f610423848285016103ed565b91505092915050565b610435816103ce565b82525050565b5f60208201905061044e5f83018461042c565b92915050565b5f80fd5b5f80fd5b5f601f19601f8301169050919050565b7f4e487b71000000000000000000000000000000000000000000000000000000005f52604160045260245ffd5b6104a28261045c565b810181811067ffffffffffffffff821117156104c1576104c061046c565b5b80604052505050565b5f6104d36103bd565b90506104df8282610499565b919050565b5f67ffffffffffffffff8211156104fe576104fd61046c565b5b6105078261045c565b9050602081019050919050565b828183375f83830152505050565b5f61053461052f846104e4565b6104ca565b9050828152602081018484840111156105505761054f610458565b5b61055b848285610514565b509392505050565b5f82601f83011261057757610576610454565b5b8135610587848260208601610522565b91505092915050565b5f80604083850312156105a6576105a56103c6565b5b5f83013567ffffffffffffffff8111156105c3576105c26103ca565b5b6105cf85828601610563565b92505060206105e0858286016103ed565b9150509250929050565b5f81519050919050565b5f82825260208201905092915050565b8281835e5f83830152505050565b5f61061c826105ea565b61062681856105f4565b9350610636818560208601610604565b61063f8161045c565b840191505092915050565b5f60408201905061065d5f83018561042c565b818103602083015261066f8184610612565b90509392505050565b5f6020828403121561068d5761068c6103c6565b5b5f82013567ffffffffffffffff8111156106aa576106a96103ca565b5b6106b684828501610563565b91505092915050565b7f4e487b71000000000000000000000000000000000000000000000000000000005f52601160045260245ffd5b5f6106f6826103ce565b9150610701836103ce565b9250828201905080821115610719576107186106bf565b5b92915050565b7f4e487b71000000000000000000000000000000000000000000000000000000005f52602260045260245ffd5b5f600282049050600182168061076357607f821691505b6020821081036107765761077561071f565b5b50919050565b5f819050815f5260205f209050919050565b5f6020601f8301049050919050565b5f82821b905092915050565b5f600883026107d87fffffffffffffffffffffffffffffffffffffffffffffffffffffffffffffffff8261079d565b6107e2868361079d565b95508019841693508086168417925050509392505050565b5f819050919050565b5f61081d610818610813846103ce565b6107fa565b6103ce565b9050919050565b5f819050919050565b61083683610803565b61084a61084282610824565b8484546107a9565b825550505050565b5f90565b61085e610852565b61086981848461082d565b505050565b5b8181101561088c576108815f82610856565b60018101905061086f565b5050565b601f8211156108d1576108a28161077c565b6108ab8461078e565b810160208510156108ba578190505b6108ce6108c68561078e565b83018261086e565b50505b505050565b5f82821c905092915050565b5f6108f15f19846008026108d6565b1980831691505092915050565b5f61090983836108e2565b9150826002028217905092915050565b610922826105ea565b67ffffffffffffffff81111561093b5761093a61046c565b5b610945825461074c565b610950828285610890565b5f60209050601f831160018114610981575f841561096f578287015190505b61097985826108fe565b8655506109e0565b601f19841661098f8661077c565b5f5b828110156109b657848901518255600182019150602085019450602081019050610991565b868310156109d357848901516109cf601f8916826108e2565b8355505b6001600288020188555050505b505050505050565b5f81905092915050565b5f6109fc826105ea565b610a0681856109e8565b9350610a16818560208601610604565b80840191505092915050565b5f610a2d82846109f2565b91508190509291505056fea2646970667358221220e95c84d121bbdd2156d42bb39d255c5252ef761f9902dd2d922aeedb2884621e64736f6c63430008190033a26469706673582212205279f185f8c4265369f0e1df78597ba1e489fa0561ece32c626d90bf172daee264736f6c63430008190033",
			"opcodes": "PUSH1 0x80 PUSH1 0x40 MSTORE PUSH1 0x40 MLOAD DUP1 PUSH1 0x40 ADD PUSH1 0x40 MSTORE DUP1 PUSH1 0x2 DUP2 MSTORE PUSH1 0x20 ADD PUSH1 0x40 MLOAD DUP1 PUSH1 0x40 ADD PUSH1 0x40 MSTORE DUP1 PUSH1 0x7 DUP2 MSTORE PUSH1 0x20 ADD PUSH32 0x5061747269636B00000000000000000000000000000000000000000000000000 DUP2 MSTORE POP DUP2 MSTORE POP PUSH1 0x1 PUSH0 DUP3 ADD MLOAD DUP2 PUSH0 ADD SSTORE PUSH1 0x20 DUP3 ADD MLOAD DUP2 PUSH1 0x1 ADD SWAP1 DUP2 PUSH2 0x6E SWAP2 SWAP1 PUSH2 0x2BC JUMP JUMPDEST POP POP POP CALLVALUE DUP1 ISZERO PUSH2 0x7C JUMPI PUSH0 DUP1 REVERT JUMPDEST POP PUSH2 0x38B JUMP JUMPDEST PUSH0 DUP2 MLOAD SWAP1 POP SWAP2 SWAP1 POP JUMP JUMPDEST PUSH32 0x4E487B7100000000000000000000000000000000000000000000000000000000 PUSH0 MSTORE PUSH1 0x41 PUSH1 0x4 MSTORE PUSH1 0x24 PUSH0 REVERT JUMPDEST PUSH32 0x4E487B7100000000000000000000000000000000000000000000000000000000 PUSH0 MSTORE PUSH1 0x22 PUSH1 0x4 MSTORE PUSH1 0x24 PUSH0 REVERT JUMPDEST PUSH0 PUSH1 0x2 DUP3 DIV SWAP1 POP PUSH1 0x1 DUP3 AND DUP1 PUSH2 0xFD JUMPI PUSH1 0x7F DUP3 AND SWAP2 POP JUMPDEST PUSH1 0x20 DUP3 LT DUP2 SUB PUSH2 0x110 JUMPI PUSH2 0x10F PUSH2 0xB9 JUMP JUMPDEST JUMPDEST POP SWAP2 SWAP1 POP JUMP JUMPDEST PUSH0 DUP2 SWAP1 POP DUP2 PUSH0 MSTORE PUSH1 0x20 PUSH0 KECCAK256 SWAP1 POP SWAP2 SWAP1 POP JUMP JUMPDEST PUSH0 PUSH1 0x20 PUSH1 0x1F DUP4 ADD DIV SWAP1 POP SWAP2 SWAP1 POP JUMP JUMPDEST PUSH0 DUP3 DUP3 SHL SWAP1 POP SWAP3 SWAP2 POP POP JUMP JUMPDEST PUSH0 PUSH1 0x8 DUP4 MUL PUSH2 0x172 PUSH32 0xFFFFFFFFFFFFFFFFFFFFFFFFFFFFFFFFFFFFFFFFFFFFFFFFFFFFFFFFFFFFFFFF DUP3 PUSH2 0x137 JUMP JUMPDEST PUSH2 0x17C DUP7 DUP4 PUSH2 0x137 JUMP JUMPDEST SWAP6 POP DUP1 NOT DUP5 AND SWAP4 POP DUP1 DUP7 AND DUP5 OR SWAP3 POP POP POP SWAP4 SWAP3 POP POP POP JUMP JUMPDEST PUSH0 DUP2 SWAP1 POP SWAP2 SWAP1 POP JUMP JUMPDEST PUSH0 DUP2 SWAP1 POP SWAP2 SWAP1 POP JUMP JUMPDEST PUSH0 PUSH2 0x1C0 PUSH2 0x1BB PUSH2 0x1B6 DUP5 PUSH2 0x194 JUMP JUMPDEST PUSH2 0x19D JUMP JUMPDEST PUSH2 0x194 JUMP JUMPDEST SWAP1 POP SWAP2 SWAP1 POP JUMP JUMPDEST PUSH0 DUP2 SWAP1 POP SWAP2 SWAP1 POP JUMP JUMPDEST PUSH2 0x1D9 DUP4 PUSH2 0x1A6 JUMP JUMPDEST PUSH2 0x1ED PUSH2 0x1E5 DUP3 PUSH2 0x1C7 JUMP JUMPDEST DUP5 DUP5 SLOAD PUSH2 0x143 JUMP JUMPDEST DUP3 SSTORE POP POP POP POP JUMP JUMPDEST PUSH0 SWAP1 JUMP JUMPDEST PUSH2 0x201 PUSH2 0x1F5 JUMP JUMPDEST PUSH2 0x20C DUP2 DUP5 DUP5 PUSH2 0x1D0 JUMP JUMPDEST POP POP POP JUMP JUMPDEST JUMPDEST DUP2 DUP2 LT ISZERO PUSH2 0x22F JUMPI PUSH2 0x224 PUSH0 DUP3 PUSH2 0x1F9 JUMP JUMPDEST PUSH1 0x1 DUP2 ADD SWAP1 POP PUSH2 0x212 JUMP JUMPDEST POP POP JUMP JUMPDEST PUSH1 0x1F DUP3 GT ISZERO PUSH2 0x274 JUMPI PUSH2 0x245 DUP2 PUSH2 0x116 JUMP JUMPDEST PUSH2 0x24E DUP5 PUSH2 0x128 JUMP JUMPDEST DUP2 ADD PUSH1 0x20 DUP6 LT ISZERO PUSH2 0x25D JUMPI DUP2 SWAP1 POP JUMPDEST PUSH2 0x271 PUSH2 0x269 DUP6 PUSH2 0x128 JUMP JUMPDEST DUP4 ADD DUP3 PUSH2 0x211 JUMP JUMPDEST POP POP JUMPDEST POP POP POP JUMP JUMPDEST PUSH0 DUP3 DUP3 SHR SWAP1 POP SWAP3 SWAP2 POP POP JUMP JUMPDEST PUSH0 PUSH2 0x294 PUSH0 NOT DUP5 PUSH1 0x8 MUL PUSH2 0x279 JUMP JUMPDEST NOT DUP1 DUP4 AND SWAP2 POP POP SWAP3 SWAP2 POP POP JUMP JUMPDEST PUSH0 PUSH2 0x2AC DUP4 DUP4 PUSH2 0x285 JUMP JUMPDEST SWAP2 POP DUP3 PUSH1 0x2 MUL DUP3 OR SWAP1 POP SWAP3 SWAP2 POP POP JUMP JUMPDEST PUSH2 0x2C5 DUP3 PUSH2 0x82 JUMP JUMPDEST PUSH8 0xFFFFFFFFFFFFFFFF DUP2 GT ISZERO PUSH2 0x2DE JUMPI PUSH2 0x2DD PUSH2 0x8C JUMP JUMPDEST JUMPDEST PUSH2 0x2E8 DUP3 SLOAD PUSH2 0xE6 JUMP JUMPDEST PUSH2 0x2F3 DUP3 DUP3 DUP6 PUSH2 0x233 JUMP JUMPDEST PUSH0 PUSH1 0x20 SWAP1 POP PUSH1 0x1F DUP4 GT PUSH1 0x1 DUP2 EQ PUSH2 0x324 JUMPI PUSH0 DUP5 ISZERO PUSH2 0x312 JUMPI DUP3 DUP8 ADD MLOAD SWAP1 POP JUMPDEST PUSH2 0x31C DUP6 DUP3 PUSH2 0x2A1 JUMP JUMPDEST DUP7 SSTORE POP PUSH2 0x383 JUMP JUMPDEST PUSH1 0x1F NOT DUP5 AND PUSH2 0x332 DUP7 PUSH2 0x116 JUMP JUMPDEST PUSH0 JUMPDEST DUP3 DUP2 LT ISZERO PUSH2 0x359 JUMPI DUP5 DUP10 ADD MLOAD DUP3 SSTORE PUSH1 0x1 DUP3 ADD SWAP2 POP PUSH1 0x20 DUP6 ADD SWAP5 POP PUSH1 0x20 DUP2 ADD SWAP1 POP PUSH2 0x334 JUMP JUMPDEST DUP7 DUP4 LT ISZERO PUSH2 0x376 JUMPI DUP5 DUP10 ADD MLOAD PUSH2 0x372 PUSH1 0x1F DUP10 AND DUP3 PUSH2 0x285 JUMP JUMPDEST DUP4 SSTORE POP JUMPDEST PUSH1 0x1 PUSH1 0x2 DUP9 MUL ADD DUP9 SSTORE POP POP POP JUMPDEST POP POP POP POP POP POP JUMP JUMPDEST PUSH2 0x1C83 DUP1 PUSH2 0x398 PUSH0 CODECOPY PUSH0 RETURN INVALID PUSH1 0x80 PUSH1 0x40 MSTORE CALLVALUE DUP1 ISZERO PUSH2 0xF JUMPI PUSH0 DUP1 REVERT JUMPDEST POP PUSH1 0x4 CALLDATASIZE LT PUSH2 0xB2 JUMPI PUSH0 CALLDATALOAD PUSH1 0xE0 SHR DUP1 PUSH4 0x6F760F41 GT PUSH2 0x6F JUMPI DUP1 PUSH4 0x6F760F41 EQ PUSH2 0x162 JUMPI DUP1 PUSH4 0x77EC2B55 EQ PUSH2 0x17E JUMPI DUP1 PUSH4 0x8BAB8DD5 EQ PUSH2 0x19D JUMPI DUP1 PUSH4 0x9E7A13AD EQ PUSH2 0x1CD JUMPI DUP1 PUSH4 0xAA62479E EQ PUSH2 0x1FE JUMPI DUP1 PUSH4 0xC5F19C20 EQ PUSH2 0x21C JUMPI PUSH2 0xB2 JUMP JUMPDEST DUP1 PUSH4 0x1563700F EQ PUSH2 0xB6 JUMPI DUP1 PUSH4 0x1DDA6541 EQ PUSH2 0xD2 JUMPI DUP1 PUSH4 0x29A22B88 EQ PUSH2 0xDC JUMPI DUP1 PUSH4 0x471F7CDF EQ PUSH2 0xF8 JUMPI DUP1 PUSH4 0x6057361D EQ PUSH2 0x116 JUMPI DUP1 PUSH4 0x64591BF1 EQ PUSH2 0x132 JUMPI JUMPDEST PUSH0 DUP1 REVERT JUMPDEST PUSH2 0xD0 PUSH1 0x4 DUP1 CALLDATASIZE SUB DUP2 ADD SWAP1 PUSH2 0xCB SWAP2 SWAP1 PUSH2 0x6DC JUMP JUMPDEST PUSH2 0x24C JUMP JUMPDEST STOP JUMPDEST PUSH2 0xDA PUSH2 0x2F1 JUMP JUMPDEST STOP JUMPDEST PUSH2 0xF6 PUSH1 0x4 DUP1 CALLDATASIZE SUB DUP2 ADD SWAP1 PUSH2 0xF1 SWAP2 SWAP1 PUSH2 0x71A JUMP JUMPDEST PUSH2 0x37D JUMP JUMPDEST STOP JUMPDEST PUSH2 0x100 PUSH2 0x38D JUMP JUMPDEST PUSH1 0x40 MLOAD PUSH2 0x10D SWAP2 SWAP1 PUSH2 0x754 JUMP JUMPDEST PUSH1 0x40 MLOAD DUP1 SWAP2 SUB SWAP1 RETURN JUMPDEST PUSH2 0x130 PUSH1 0x4 DUP1 CALLDATASIZE SUB DUP2 ADD SWAP1 PUSH2 0x12B SWAP2 SWAP1 PUSH2 0x71A JUMP JUMPDEST PUSH2 0x392 JUMP JUMPDEST STOP JUMPDEST PUSH2 0x14C PUSH1 0x4 DUP1 CALLDATASIZE SUB DUP2 ADD SWAP1 PUSH2 0x147 SWAP2 SWAP1 PUSH2 0x71A JUMP JUMPDEST PUSH2 0x39B JUMP JUMPDEST PUSH1 0x40 MLOAD PUSH2 0x159 SWAP2 SWAP1 PUSH2 0x7E7 JUMP JUMPDEST PUSH1 0x40 MLOAD DUP1 SWAP2 SUB SWAP1 RETURN JUMPDEST PUSH2 0x17C PUSH1 0x4 DUP1 CALLDATASIZE SUB DUP2 ADD SWAP1 PUSH2 0x177 SWAP2 SWAP1 PUSH2 0x93C JUMP JUMPDEST PUSH2 0x3D6 JUMP JUMPDEST STOP JUMPDEST PUSH2 0x186 PUSH2 0x45A JUMP JUMPDEST PUSH1 0x40 MLOAD PUSH2 0x194 SWAP3 SWAP2 SWAP1 PUSH2 0x9F6 JUMP JUMPDEST PUSH1 0x40 MLOAD DUP1 SWAP2 SUB SWAP1 RETURN JUMPDEST PUSH2 0x1B7 PUSH1 0x4 DUP1 CALLDATASIZE SUB DUP2 ADD SWAP1 PUSH2 0x1B2 SWAP2 SWAP1 PUSH2 0xA24 JUMP JUMPDEST PUSH2 0x4F1 JUMP JUMPDEST PUSH1 0x40 MLOAD PUSH2 0x1C4 SWAP2 SWAP1 PUSH2 0x754 JUMP JUMPDEST PUSH1 0x40 MLOAD DUP1 SWAP2 SUB SWAP1 RETURN JUMPDEST PUSH2 0x1E7 PUSH1 0x4 DUP1 CALLDATASIZE SUB DUP2 ADD SWAP1 PUSH2 0x1E2 SWAP2 SWAP1 PUSH2 0x71A JUMP JUMPDEST PUSH2 0x51E JUMP JUMPDEST PUSH1 0x40 MLOAD PUSH2 0x1F5 SWAP3 SWAP2 SWAP1 PUSH2 0x9F6 JUMP JUMPDEST PUSH1 0x40 MLOAD DUP1 SWAP2 SUB SWAP1 RETURN JUMPDEST PUSH2 0x206 PUSH2 0x5D3 JUMP JUMPDEST PUSH1 0x40 MLOAD PUSH2 0x213 SWAP2 SWAP1 PUSH2 0x754 JUMP JUMPDEST PUSH1 0x40 MLOAD DUP1 SWAP2 SUB SWAP1 RETURN JUMPDEST PUSH2 0x236 PUSH1 0x4 DUP1 CALLDATASIZE SUB DUP2 ADD SWAP1 PUSH2 0x231 SWAP2 SWAP1 PUSH2 0x71A JUMP JUMPDEST PUSH2 0x5DB JUMP JUMPDEST PUSH1 0x40 MLOAD PUSH2 0x243 SWAP2 SWAP1 PUSH2 0x754 JUMP JUMPDEST PUSH1 0x40 MLOAD DUP1 SWAP2 SUB SWAP1 RETURN JUMPDEST PUSH1 0x5 DUP3 DUP2 SLOAD DUP2 LT PUSH2 0x260 JUMPI PUSH2 0x25F PUSH2 0xA6B JUMP JUMPDEST JUMPDEST SWAP1 PUSH0 MSTORE PUSH1 0x20 PUSH0 KECCAK256 ADD PUSH0 SWAP1 SLOAD SWAP1 PUSH2 0x100 EXP SWAP1 DIV PUSH20 0xFFFFFFFFFFFFFFFFFFFFFFFFFFFFFFFFFFFFFFFF AND PUSH20 0xFFFFFFFFFFFFFFFFFFFFFFFFFFFFFFFFFFFFFFFF AND PUSH4 0x6057361D DUP3 PUSH1 0x40 MLOAD DUP3 PUSH4 0xFFFFFFFF AND PUSH1 0xE0 SHL DUP2 MSTORE PUSH1 0x4 ADD PUSH2 0x2C0 SWAP2 SWAP1 PUSH2 0x754 JUMP JUMPDEST PUSH0 PUSH1 0x40 MLOAD DUP1 DUP4 SUB DUP2 PUSH0 DUP8 DUP1 EXTCODESIZE ISZERO DUP1 ISZERO PUSH2 0x2D7 JUMPI PUSH0 DUP1 REVERT JUMPDEST POP GAS CALL ISZERO DUP1 ISZERO PUSH2 0x2E9 JUMPI RETURNDATASIZE PUSH0 DUP1 RETURNDATACOPY RETURNDATASIZE PUSH0 REVERT JUMPDEST POP POP POP POP POP POP JUMP JUMPDEST PUSH0 PUSH1 0x40 MLOAD PUSH2 0x2FE SWAP1 PUSH2 0x68B JUMP JUMPDEST PUSH1 0x40 MLOAD DUP1 SWAP2 SUB SWAP1 PUSH0 CREATE DUP1 ISZERO DUP1 ISZERO PUSH2 0x317 JUMPI RETURNDATASIZE PUSH0 DUP1 RETURNDATACOPY RETURNDATASIZE PUSH0 REVERT JUMPDEST POP SWAP1 POP PUSH1 0x5 DUP2 SWAP1 DUP1 PUSH1 0x1 DUP2 SLOAD ADD DUP1 DUP3 SSTORE DUP1 SWAP2 POP POP PUSH1 0x1 SWAP1 SUB SWAP1 PUSH0 MSTORE PUSH1 0x20 PUSH0 KECCAK256 ADD PUSH0 SWAP1 SWAP2 SWAP1 SWAP2 SWAP1 SWAP2 PUSH2 0x100 EXP DUP2 SLOAD DUP2 PUSH20 0xFFFFFFFFFFFFFFFFFFFFFFFFFFFFFFFFFFFFFFFF MUL NOT AND SWAP1 DUP4 PUSH20 0xFFFFFFFFFFFFFFFFFFFFFFFFFFFFFFFFFFFFFFFF AND MUL OR SWAP1 SSTORE POP POP JUMP JUMPDEST DUP1 DUP2 PUSH2 0x389 SWAP2 SWAP1 PUSH2 0xAC5 JUMP JUMPDEST POP POP JUMP JUMPDEST PUSH0 SLOAD DUP2 JUMP JUMPDEST DUP1 PUSH0 DUP2 SWAP1 SSTORE POP POP JUMP JUMPDEST PUSH1 0x5 DUP2 DUP2 SLOAD DUP2 LT PUSH2 0x3AA JUMPI PUSH0 DUP1 REVERT JUMPDEST SWAP1 PUSH0 MSTORE PUSH1 0x20 PUSH0 KECCAK256 ADD PUSH0 SWAP2 POP SLOAD SWAP1 PUSH2 0x100 EXP SWAP1 DIV PUSH20 0xFFFFFFFFFFFFFFFFFFFFFFFFFFFFFFFFFFFFFFFF AND DUP2 JUMP JUMPDEST PUSH1 0x3 PUSH1 0x40 MLOAD DUP1 PUSH1 0x40 ADD PUSH1 0x40 MSTORE DUP1 DUP4 DUP2 MSTORE PUSH1 0x20 ADD DUP5 DUP2 MSTORE POP SWAP1 DUP1 PUSH1 0x1 DUP2 SLOAD ADD DUP1 DUP3 SSTORE DUP1 SWAP2 POP POP PUSH1 0x1 SWAP1 SUB SWAP1 PUSH0 MSTORE PUSH1 0x20 PUSH0 KECCAK256 SWAP1 PUSH1 0x2 MUL ADD PUSH0 SWAP1 SWAP2 SWAP1 SWAP2 SWAP1 SWAP2 POP PUSH0 DUP3 ADD MLOAD DUP2 PUSH0 ADD SSTORE PUSH1 0x20 DUP3 ADD MLOAD DUP2 PUSH1 0x1 ADD SWAP1 DUP2 PUSH2 0x430 SWAP2 SWAP1 PUSH2 0xCE9 JUMP JUMPDEST POP POP POP DUP1 PUSH1 0x4 DUP4 PUSH1 0x40 MLOAD PUSH2 0x444 SWAP2 SWAP1 PUSH2 0xDF2 JUMP JUMPDEST SWAP1 DUP2 MSTORE PUSH1 0x20 ADD PUSH1 0x40 MLOAD DUP1 SWAP2 SUB SWAP1 KECCAK256 DUP2 SWAP1 SSTORE POP POP POP JUMP JUMPDEST PUSH1 0x1 DUP1 PUSH0 ADD SLOAD SWAP1 DUP1 PUSH1 0x1 ADD DUP1 SLOAD PUSH2 0x470 SWAP1 PUSH2 0xB25 JUMP JUMPDEST DUP1 PUSH1 0x1F ADD PUSH1 0x20 DUP1 SWAP2 DIV MUL PUSH1 0x20 ADD PUSH1 0x40 MLOAD SWAP1 DUP2 ADD PUSH1 0x40 MSTORE DUP1 SWAP3 SWAP2 SWAP1 DUP2 DUP2 MSTORE PUSH1 0x20 ADD DUP3 DUP1 SLOAD PUSH2 0x49C SWAP1 PUSH2 0xB25 JUMP JUMPDEST DUP1 ISZERO PUSH2 0x4E7 JUMPI DUP1 PUSH1 0x1F LT PUSH2 0x4BE JUMPI PUSH2 0x100 DUP1 DUP4 SLOAD DIV MUL DUP4 MSTORE SWAP2 PUSH1 0x20 ADD SWAP2 PUSH2 0x4E7 JUMP JUMPDEST DUP3 ADD SWAP2 SWAP1 PUSH0 MSTORE PUSH1 0x20 PUSH0 KECCAK256 SWAP1 JUMPDEST DUP2 SLOAD DUP2 MSTORE SWAP1 PUSH1 0x1 ADD SWAP1 PUSH1 0x20 ADD DUP1 DUP4 GT PUSH2 0x4CA JUMPI DUP3 SWAP1 SUB PUSH1 0x1F AND DUP3 ADD SWAP2 JUMPDEST POP POP POP POP POP SWAP1 POP DUP3 JUMP JUMPDEST PUSH1 0x4 DUP2 DUP1 MLOAD PUSH1 0x20 DUP2 ADD DUP3 ADD DUP1 MLOAD DUP5 DUP3 MSTORE PUSH1 0x20 DUP4 ADD PUSH1 0x20 DUP6 ADD KECCAK256 DUP2 DUP4 MSTORE DUP1 SWAP6 POP POP POP POP POP POP PUSH0 SWAP2 POP SWAP1 POP SLOAD DUP2 JUMP JUMPDEST PUSH1 0x3 DUP2 DUP2 SLOAD DUP2 LT PUSH2 0x52D JUMPI PUSH0 DUP1 REVERT JUMPDEST SWAP1 PUSH0 MSTORE PUSH1 0x20 PUSH0 KECCAK256 SWAP1 PUSH1 0x2 MUL ADD PUSH0 SWAP2 POP SWAP1 POP DUP1 PUSH0 ADD SLOAD SWAP1 DUP1 PUSH1 0x1 ADD DUP1 SLOAD PUSH2 0x552 SWAP1 PUSH2 0xB25 JUMP JUMPDEST DUP1 PUSH1 0x1F ADD PUSH1 0x20 DUP1 SWAP2 DIV MUL PUSH1 0x20 ADD PUSH1 0x40 MLOAD SWAP1 DUP2 ADD PUSH1 0x40 MSTORE DUP1 SWAP3 SWAP2 SWAP1 DUP2 DUP2 MSTORE PUSH1 0x20 ADD DUP3 DUP1 SLOAD PUSH2 0x57E SWAP1 PUSH2 0xB25 JUMP JUMPDEST DUP1 ISZERO PUSH2 0x5C9 JUMPI DUP1 PUSH1 0x1F LT PUSH2 0x5A0 JUMPI PUSH2 0x100 DUP1 DUP4 SLOAD DIV MUL DUP4 MSTORE SWAP2 PUSH1 0x20 ADD SWAP2 PUSH2 0x5C9 JUMP JUMPDEST DUP3 ADD SWAP2 SWAP1 PUSH0 MSTORE PUSH1 0x20 PUSH0 KECCAK256 SWAP1 JUMPDEST DUP2 SLOAD DUP2 MSTORE SWAP1 PUSH1 0x1 ADD SWAP1 PUSH1 0x20 ADD DUP1 DUP4 GT PUSH2 0x5AC JUMPI DUP3 SWAP1 SUB PUSH1 0x1F AND DUP3 ADD SWAP2 JUMPDEST POP POP POP POP POP SWAP1 POP DUP3 JUMP JUMPDEST PUSH0 DUP1 SLOAD SWAP1 POP SWAP1 JUMP JUMPDEST PUSH0 PUSH1 0x5 DUP3 DUP2 SLOAD DUP2 LT PUSH2 0x5F0 JUMPI PUSH2 0x5EF PUSH2 0xA6B JUMP JUMPDEST JUMPDEST SWAP1 PUSH0 MSTORE PUSH1 0x20 PUSH0 KECCAK256 ADD PUSH0 SWAP1 SLOAD SWAP1 PUSH2 0x100 EXP SWAP1 DIV PUSH20 0xFFFFFFFFFFFFFFFFFFFFFFFFFFFFFFFFFFFFFFFF AND PUSH20 0xFFFFFFFFFFFFFFFFFFFFFFFFFFFFFFFFFFFFFFFF AND PUSH4 0xAA62479E PUSH1 0x40 MLOAD DUP2 PUSH4 0xFFFFFFFF AND PUSH1 0xE0 SHL DUP2 MSTORE PUSH1 0x4 ADD PUSH1 0x20 PUSH1 0x40 MLOAD DUP1 DUP4 SUB DUP2 DUP7 GAS STATICCALL ISZERO DUP1 ISZERO PUSH2 0x660 JUMPI RETURNDATASIZE PUSH0 DUP1 RETURNDATACOPY RETURNDATASIZE PUSH0 REVERT JUMPDEST POP POP POP POP PUSH1 0x40 MLOAD RETURNDATASIZE PUSH1 0x1F NOT PUSH1 0x1F DUP3 ADD AND DUP3 ADD DUP1 PUSH1 0x40 MSTORE POP DUP2 ADD SWAP1 PUSH2 0x684 SWAP2 SWAP1 PUSH2 0xE1C JUMP JUMPDEST SWAP1 POP SWAP2 SWAP1 POP JUMP JUMPDEST PUSH2 0xE06 DUP1 PUSH2 0xE48 DUP4 CODECOPY ADD SWAP1 JUMP JUMPDEST PUSH0 PUSH1 0x40 MLOAD SWAP1 POP SWAP1 JUMP JUMPDEST PUSH0 DUP1 REVERT JUMPDEST PUSH0 DUP1 REVERT JUMPDEST PUSH0 DUP2 SWAP1 POP SWAP2 SWAP1 POP JUMP JUMPDEST PUSH2 0x6BB DUP2 PUSH2 0x6A9 JUMP JUMPDEST DUP2 EQ PUSH2 0x6C5 JUMPI PUSH0 DUP1 REVERT JUMPDEST POP JUMP JUMPDEST PUSH0 DUP2 CALLDATALOAD SWAP1 POP PUSH2 0x6D6 DUP2 PUSH2 0x6B2 JUMP JUMPDEST SWAP3 SWAP2 POP POP JUMP JUMPDEST PUSH0 DUP1 PUSH1 0x40 DUP4 DUP6 SUB SLT ISZERO PUSH2 0x6F2 JUMPI PUSH2 0x6F1 PUSH2 0x6A1 JUMP JUMPDEST JUMPDEST PUSH0 PUSH2 0x6FF DUP6 DUP3 DUP7 ADD PUSH2 0x6C8 JUMP JUMPDEST SWAP3 POP POP PUSH1 0x20 PUSH2 0x710 DUP6 DUP3 DUP7 ADD PUSH2 0x6C8 JUMP JUMPDEST SWAP2 POP POP SWAP3 POP SWAP3 SWAP1 POP JUMP JUMPDEST PUSH0 PUSH1 0x20 DUP3 DUP5 SUB SLT ISZERO PUSH2 0x72F JUMPI PUSH2 0x72E PUSH2 0x6A1 JUMP JUMPDEST JUMPDEST PUSH0 PUSH2 0x73C DUP5 DUP3 DUP6 ADD PUSH2 0x6C8 JUMP JUMPDEST SWAP2 POP POP SWAP3 SWAP2 POP POP JUMP JUMPDEST PUSH2 0x74E DUP2 PUSH2 0x6A9 JUMP JUMPDEST DUP3 MSTORE POP POP JUMP JUMPDEST PUSH0 PUSH1 0x20 DUP3 ADD SWAP1 POP PUSH2 0x767 PUSH0 DUP4 ADD DUP5 PUSH2 0x745 JUMP JUMPDEST SWAP3 SWAP2 POP POP JUMP JUMPDEST PUSH0 PUSH20 0xFFFFFFFFFFFFFFFFFFFFFFFFFFFFFFFFFFFFFFFF DUP3 AND SWAP1 POP SWAP2 SWAP1 POP JUMP JUMPDEST PUSH0 DUP2 SWAP1 POP SWAP2 SWAP1 POP JUMP JUMPDEST PUSH0 PUSH2 0x7AF PUSH2 0x7AA PUSH2 0x7A5 DUP5 PUSH2 0x76D JUMP JUMPDEST PUSH2 0x78C JUMP JUMPDEST PUSH2 0x76D JUMP JUMPDEST SWAP1 POP SWAP2 SWAP1 POP JUMP JUMPDEST PUSH0 PUSH2 0x7C0 DUP3 PUSH2 0x795 JUMP JUMPDEST SWAP1 POP SWAP2 SWAP1 POP JUMP JUMPDEST PUSH0 PUSH2 0x7D1 DUP3 PUSH2 0x7B6 JUMP JUMPDEST SWAP1 POP SWAP2 SWAP1 POP JUMP JUMPDEST PUSH2 0x7E1 DUP2 PUSH2 0x7C7 JUMP JUMPDEST DUP3 MSTORE POP POP JUMP JUMPDEST PUSH0 PUSH1 0x20 DUP3 ADD SWAP1 POP PUSH2 0x7FA PUSH0 DUP4 ADD DUP5 PUSH2 0x7D8 JUMP JUMPDEST SWAP3 SWAP2 POP POP JUMP JUMPDEST PUSH0 DUP1 REVERT JUMPDEST PUSH0 DUP1 REVERT JUMPDEST PUSH0 PUSH1 0x1F NOT PUSH1 0x1F DUP4 ADD AND SWAP1 POP SWAP2 SWAP1 POP JUMP JUMPDEST PUSH32 0x4E487B7100000000000000000000000000000000000000000000000000000000 PUSH0 MSTORE PUSH1 0x41 PUSH1 0x4 MSTORE PUSH1 0x24 PUSH0 REVERT JUMPDEST PUSH2 0x84E DUP3 PUSH2 0x808 JUMP JUMPDEST DUP2 ADD DUP2 DUP2 LT PUSH8 0xFFFFFFFFFFFFFFFF DUP3 GT OR ISZERO PUSH2 0x86D JUMPI PUSH2 0x86C PUSH2 0x818 JUMP JUMPDEST JUMPDEST DUP1 PUSH1 0x40 MSTORE POP POP POP JUMP JUMPDEST PUSH0 PUSH2 0x87F PUSH2 0x698 JUMP JUMPDEST SWAP1 POP PUSH2 0x88B DUP3 DUP3 PUSH2 0x845 JUMP JUMPDEST SWAP2 SWAP1 POP JUMP JUMPDEST PUSH0 PUSH8 0xFFFFFFFFFFFFFFFF DUP3 GT ISZERO PUSH2 0x8AA JUMPI PUSH2 0x8A9 PUSH2 0x818 JUMP JUMPDEST JUMPDEST PUSH2 0x8B3 DUP3 PUSH2 0x808 JUMP JUMPDEST SWAP1 POP PUSH1 0x20 DUP2 ADD SWAP1 POP SWAP2 SWAP1 POP JUMP JUMPDEST DUP3 DUP2 DUP4 CALLDATACOPY PUSH0 DUP4 DUP4 ADD MSTORE POP POP POP JUMP JUMPDEST PUSH0 PUSH2 0x8E0 PUSH2 0x8DB DUP5 PUSH2 0x890 JUMP JUMPDEST PUSH2 0x876 JUMP JUMPDEST SWAP1 POP DUP3 DUP2 MSTORE PUSH1 0x20 DUP2 ADD DUP5 DUP5 DUP5 ADD GT ISZERO PUSH2 0x8FC JUMPI PUSH2 0x8FB PUSH2 0x804 JUMP JUMPDEST JUMPDEST PUSH2 0x907 DUP5 DUP3 DUP6 PUSH2 0x8C0 JUMP JUMPDEST POP SWAP4 SWAP3 POP POP POP JUMP JUMPDEST PUSH0 DUP3 PUSH1 0x1F DUP4 ADD SLT PUSH2 0x923 JUMPI PUSH2 0x922 PUSH2 0x800 JUMP JUMPDEST JUMPDEST DUP2 CALLDATALOAD PUSH2 0x933 DUP5 DUP3 PUSH1 0x20 DUP7 ADD PUSH2 0x8CE JUMP JUMPDEST SWAP2 POP POP SWAP3 SWAP2 POP POP JUMP JUMPDEST PUSH0 DUP1 PUSH1 0x40 DUP4 DUP6 SUB SLT ISZERO PUSH2 0x952 JUMPI PUSH2 0x951 PUSH2 0x6A1 JUMP JUMPDEST JUMPDEST PUSH0 DUP4 ADD CALLDATALOAD PUSH8 0xFFFFFFFFFFFFFFFF DUP2 GT ISZERO PUSH2 0x96F JUMPI PUSH2 0x96E PUSH2 0x6A5 JUMP JUMPDEST JUMPDEST PUSH2 0x97B DUP6 DUP3 DUP7 ADD PUSH2 0x90F JUMP JUMPDEST SWAP3 POP POP PUSH1 0x20 PUSH2 0x98C DUP6 DUP3 DUP7 ADD PUSH2 0x6C8 JUMP JUMPDEST SWAP2 POP POP SWAP3 POP SWAP3 SWAP1 POP JUMP JUMPDEST PUSH0 DUP2 MLOAD SWAP1 POP SWAP2 SWAP1 POP JUMP JUMPDEST PUSH0 DUP3 DUP3 MSTORE PUSH1 0x20 DUP3 ADD SWAP1 POP SWAP3 SWAP2 POP POP JUMP JUMPDEST DUP3 DUP2 DUP4 MCOPY PUSH0 DUP4 DUP4 ADD MSTORE POP POP POP JUMP JUMPDEST PUSH0 PUSH2 0x9C8 DUP3 PUSH2 0x996 JUMP JUMPDEST PUSH2 0x9D2 DUP2 DUP6 PUSH2 0x9A0 JUMP JUMPDEST SWAP4 POP PUSH2 0x9E2 DUP2 DUP6 PUSH1 0x20 DUP7 ADD PUSH2 0x9B0 JUMP JUMPDEST PUSH2 0x9EB DUP2 PUSH2 0x808 JUMP JUMPDEST DUP5 ADD SWAP2 POP POP SWAP3 SWAP2 POP POP JUMP JUMPDEST PUSH0 PUSH1 0x40 DUP3 ADD SWAP1 POP PUSH2 0xA09 PUSH0 DUP4 ADD DUP6 PUSH2 0x745 JUMP JUMPDEST DUP2 DUP2 SUB PUSH1 0x20 DUP4 ADD MSTORE PUSH2 0xA1B DUP2 DUP5 PUSH2 0x9BE JUMP JUMPDEST SWAP1 POP SWAP4 SWAP3 POP POP POP JUMP JUMPDEST PUSH0 PUSH1 0x20 DUP3 DUP5 SUB SLT ISZERO PUSH2 0xA39 JUMPI PUSH2 0xA38 PUSH2 0x6A1 JUMP JUMPDEST JUMPDEST PUSH0 DUP3 ADD CALLDATALOAD PUSH8 0xFFFFFFFFFFFFFFFF DUP2 GT ISZERO PUSH2 0xA56 JUMPI PUSH2 0xA55 PUSH2 0x6A5 JUMP JUMPDEST JUMPDEST PUSH2 0xA62 DUP5 DUP3 DUP6 ADD PUSH2 0x90F JUMP JUMPDEST SWAP2 POP POP SWAP3 SWAP2 POP POP JUMP JUMPDEST PUSH32 0x4E487B7100000000000000000000000000000000000000000000000000000000 PUSH0 MSTORE PUSH1 0x32 PUSH1 0x4 MSTORE PUSH1 0x24 PUSH0 REVERT JUMPDEST PUSH32 0x4E487B7100000000000000000000000000000000000000000000000000000000 PUSH0 MSTORE PUSH1 0x11 PUSH1 0x4 MSTORE PUSH1 0x24 PUSH0 REVERT JUMPDEST PUSH0 PUSH2 0xACF DUP3 PUSH2 0x6A9 JUMP JUMPDEST SWAP2 POP PUSH2 0xADA DUP4 PUSH2 0x6A9 JUMP JUMPDEST SWAP3 POP DUP3 DUP3 ADD SWAP1 POP DUP1 DUP3 GT ISZERO PUSH2 0xAF2 JUMPI PUSH2 0xAF1 PUSH2 0xA98 JUMP JUMPDEST JUMPDEST SWAP3 SWAP2 POP POP JUMP JUMPDEST PUSH32 0x4E487B7100000000000000000000000000000000000000000000000000000000 PUSH0 MSTORE PUSH1 0x22 PUSH1 0x4 MSTORE PUSH1 0x24 PUSH0 REVERT JUMPDEST PUSH0 PUSH1 0x2 DUP3 DIV SWAP1 POP PUSH1 0x1 DUP3 AND DUP1 PUSH2 0xB3C JUMPI PUSH1 0x7F DUP3 AND SWAP2 POP JUMPDEST PUSH1 0x20 DUP3 LT DUP2 SUB PUSH2 0xB4F JUMPI PUSH2 0xB4E PUSH2 0xAF8 JUMP JUMPDEST JUMPDEST POP SWAP2 SWAP1 POP JUMP JUMPDEST PUSH0 DUP2 SWAP1 POP DUP2 PUSH0 MSTORE PUSH1 0x20 PUSH0 KECCAK256 SWAP1 POP SWAP2 SWAP1 POP JUMP JUMPDEST PUSH0 PUSH1 0x20 PUSH1 0x1F DUP4 ADD DIV SWAP1 POP SWAP2 SWAP1 POP JUMP JUMPDEST PUSH0 DUP3 DUP3 SHL SWAP1 POP SWAP3 SWAP2 POP POP JUMP JUMPDEST PUSH0 PUSH1 0x8 DUP4 MUL PUSH2 0xBB1 PUSH32 0xFFFFFFFFFFFFFFFFFFFFFFFFFFFFFFFFFFFFFFFFFFFFFFFFFFFFFFFFFFFFFFFF DUP3 PUSH2 0xB76 JUMP JUMPDEST PUSH2 0xBBB DUP7 DUP4 PUSH2 0xB76 JUMP JUMPDEST SWAP6 POP DUP1 NOT DUP5 AND SWAP4 POP DUP1 DUP7 AND DUP5 OR SWAP3 POP POP POP SWAP4 SWAP3 POP POP POP JUMP JUMPDEST PUSH0 PUSH2 0xBED PUSH2 0xBE8 PUSH2 0xBE3 DUP5 PUSH2 0x6A9 JUMP JUMPDEST PUSH2 0x78C JUMP JUMPDEST PUSH2 0x6A9 JUMP JUMPDEST SWAP1 POP SWAP2 SWAP1 POP JUMP JUMPDEST PUSH0 DUP2 SWAP1 POP SWAP2 SWAP1 POP JUMP JUMPDEST PUSH2 0xC06 DUP4 PUSH2 0xBD3 JUMP JUMPDEST PUSH2 0xC1A PUSH2 0xC12 DUP3 PUSH2 0xBF4 JUMP JUMPDEST DUP5 DUP5 SLOAD PUSH2 0xB82 JUMP JUMPDEST DUP3 SSTORE POP POP POP POP JUMP JUMPDEST PUSH0 SWAP1 JUMP JUMPDEST PUSH2 0xC2E PUSH2 0xC22 JUMP JUMPDEST PUSH2 0xC39 DUP2 DUP5 DUP5 PUSH2 0xBFD JUMP JUMPDEST POP POP POP JUMP JUMPDEST JUMPDEST DUP2 DUP2 LT ISZERO PUSH2 0xC5C JUMPI PUSH2 0xC51 PUSH0 DUP3 PUSH2 0xC26 JUMP JUMPDEST PUSH1 0x1 DUP2 ADD SWAP1 POP PUSH2 0xC3F JUMP JUMPDEST POP POP JUMP JUMPDEST PUSH1 0x1F DUP3 GT ISZERO PUSH2 0xCA1 JUMPI PUSH2 0xC72 DUP2 PUSH2 0xB55 JUMP JUMPDEST PUSH2 0xC7B DUP5 PUSH2 0xB67 JUMP JUMPDEST DUP2 ADD PUSH1 0x20 DUP6 LT ISZERO PUSH2 0xC8A JUMPI DUP2 SWAP1 POP JUMPDEST PUSH2 0xC9E PUSH2 0xC96 DUP6 PUSH2 0xB67 JUMP JUMPDEST DUP4 ADD DUP3 PUSH2 0xC3E JUMP JUMPDEST POP POP JUMPDEST POP POP POP JUMP JUMPDEST PUSH0 DUP3 DUP3 SHR SWAP1 POP SWAP3 SWAP2 POP POP JUMP JUMPDEST PUSH0 PUSH2 0xCC1 PUSH0 NOT DUP5 PUSH1 0x8 MUL PUSH2 0xCA6 JUMP JUMPDEST NOT DUP1 DUP4 AND SWAP2 POP POP SWAP3 SWAP2 POP POP JUMP JUMPDEST PUSH0 PUSH2 0xCD9 DUP4 DUP4 PUSH2 0xCB2 JUMP JUMPDEST SWAP2 POP DUP3 PUSH1 0x2 MUL DUP3 OR SWAP1 POP SWAP3 SWAP2 POP POP JUMP JUMPDEST PUSH2 0xCF2 DUP3 PUSH2 0x996 JUMP JUMPDEST PUSH8 0xFFFFFFFFFFFFFFFF DUP2 GT ISZERO PUSH2 0xD0B JUMPI PUSH2 0xD0A PUSH2 0x818 JUMP JUMPDEST JUMPDEST PUSH2 0xD15 DUP3 SLOAD PUSH2 0xB25 JUMP JUMPDEST PUSH2 0xD20 DUP3 DUP3 DUP6 PUSH2 0xC60 JUMP JUMPDEST PUSH0 PUSH1 0x20 SWAP1 POP PUSH1 0x1F DUP4 GT PUSH1 0x1 DUP2 EQ PUSH2 0xD51 JUMPI PUSH0 DUP5 ISZERO PUSH2 0xD3F JUMPI DUP3 DUP8 ADD MLOAD SWAP1 POP JUMPDEST PUSH2 0xD49 DUP6 DUP3 PUSH2 0xCCE JUMP JUMPDEST DUP7 SSTORE POP PUSH2 0xDB0 JUMP JUMPDEST PUSH1 0x1F NOT DUP5 AND PUSH2 0xD5F DUP7 PUSH2 0xB55 JUMP JUMPDEST PUSH0 JUMPDEST DUP3 DUP2 LT ISZERO PUSH2 0xD86 JUMPI DUP5 DUP10 ADD MLOAD DUP3 SSTORE PUSH1 0x1 DUP3 ADD SWAP2 POP PUSH1 0x20 DUP6 ADD SWAP5 POP PUSH1 0x20 DUP2 ADD SWAP1 POP PUSH2 0xD61 JUMP JUMPDEST DUP7 DUP4 LT ISZERO PUSH2 0xDA3 JUMPI DUP5 DUP10 ADD MLOAD PUSH2 0xD9F PUSH1 0x1F DUP10 AND DUP3 PUSH2 0xCB2 JUMP JUMPDEST DUP4 SSTORE POP JUMPDEST PUSH1 0x1 PUSH1 0x2 DUP9 MUL ADD DUP9 SSTORE POP POP POP JUMPDEST POP POP POP POP POP POP JUMP JUMPDEST PUSH0 DUP2 SWAP1 POP SWAP3 SWAP2 POP POP JUMP JUMPDEST PUSH0 PUSH2 0xDCC DUP3 PUSH2 0x996 JUMP JUMPDEST PUSH2 0xDD6 DUP2 DUP6 PUSH2 0xDB8 JUMP JUMPDEST SWAP4 POP PUSH2 0xDE6 DUP2 DUP6 PUSH1 0x20 DUP7 ADD PUSH2 0x9B0 JUMP JUMPDEST DUP1 DUP5 ADD SWAP2 POP POP SWAP3 SWAP2 POP POP JUMP JUMPDEST PUSH0 PUSH2 0xDFD DUP3 DUP5 PUSH2 0xDC2 JUMP JUMPDEST SWAP2 POP DUP2 SWAP1 POP SWAP3 SWAP2 POP POP JUMP JUMPDEST PUSH0 DUP2 MLOAD SWAP1 POP PUSH2 0xE16 DUP2 PUSH2 0x6B2 JUMP JUMPDEST SWAP3 SWAP2 POP POP JUMP JUMPDEST PUSH0 PUSH1 0x20 DUP3 DUP5 SUB SLT ISZERO PUSH2 0xE31 JUMPI PUSH2 0xE30 PUSH2 0x6A1 JUMP JUMPDEST JUMPDEST PUSH0 PUSH2 0xE3E DUP5 DUP3 DUP6 ADD PUSH2 0xE08 JUMP JUMPDEST SWAP2 POP POP SWAP3 SWAP2 POP POP JUMP INVALID PUSH1 0x80 PUSH1 0x40 MSTORE PUSH1 0x40 MLOAD DUP1 PUSH1 0x40 ADD PUSH1 0x40 MSTORE DUP1 PUSH1 0x2 DUP2 MSTORE PUSH1 0x20 ADD PUSH1 0x40 MLOAD DUP1 PUSH1 0x40 ADD PUSH1 0x40 MSTORE DUP1 PUSH1 0x7 DUP2 MSTORE PUSH1 0x20 ADD PUSH32 0x5061747269636B00000000000000000000000000000000000000000000000000 DUP2 MSTORE POP DUP2 MSTORE POP PUSH1 0x1 PUSH0 DUP3 ADD MLOAD DUP2 PUSH0 ADD SSTORE PUSH1 0x20 DUP3 ADD MLOAD DUP2 PUSH1 0x1 ADD SWAP1 DUP2 PUSH2 0x6E SWAP2 SWAP1 PUSH2 0x2BC JUMP JUMPDEST POP POP POP CALLVALUE DUP1 ISZERO PUSH2 0x7C JUMPI PUSH0 DUP1 REVERT JUMPDEST POP PUSH2 0x38B JUMP JUMPDEST PUSH0 DUP2 MLOAD SWAP1 POP SWAP2 SWAP1 POP JUMP JUMPDEST PUSH32 0x4E487B7100000000000000000000000000000000000000000000000000000000 PUSH0 MSTORE PUSH1 0x41 PUSH1 0x4 MSTORE PUSH1 0x24 PUSH0 REVERT JUMPDEST PUSH32 0x4E487B7100000000000000000000000000000000000000000000000000000000 PUSH0 MSTORE PUSH1 0x22 PUSH1 0x4 MSTORE PUSH1 0x24 PUSH0 REVERT JUMPDEST PUSH0 PUSH1 0x2 DUP3 DIV SWAP1 POP PUSH1 0x1 DUP3 AND DUP1 PUSH2 0xFD JUMPI PUSH1 0x7F DUP3 AND SWAP2 POP JUMPDEST PUSH1 0x20 DUP3 LT DUP2 SUB PUSH2 0x110 JUMPI PUSH2 0x10F PUSH2 0xB9 JUMP JUMPDEST JUMPDEST POP SWAP2 SWAP1 POP JUMP JUMPDEST PUSH0 DUP2 SWAP1 POP DUP2 PUSH0 MSTORE PUSH1 0x20 PUSH0 KECCAK256 SWAP1 POP SWAP2 SWAP1 POP JUMP JUMPDEST PUSH0 PUSH1 0x20 PUSH1 0x1F DUP4 ADD DIV SWAP1 POP SWAP2 SWAP1 POP JUMP JUMPDEST PUSH0 DUP3 DUP3 SHL SWAP1 POP SWAP3 SWAP2 POP POP JUMP JUMPDEST PUSH0 PUSH1 0x8 DUP4 MUL PUSH2 0x172 PUSH32 0xFFFFFFFFFFFFFFFFFFFFFFFFFFFFFFFFFFFFFFFFFFFFFFFFFFFFFFFFFFFFFFFF DUP3 PUSH2 0x137 JUMP JUMPDEST PUSH2 0x17C DUP7 DUP4 PUSH2 0x137 JUMP JUMPDEST SWAP6 POP DUP1 NOT DUP5 AND SWAP4 POP DUP1 DUP7 AND DUP5 OR SWAP3 POP POP POP SWAP4 SWAP3 POP POP POP JUMP JUMPDEST PUSH0 DUP2 SWAP1 POP SWAP2 SWAP1 POP JUMP JUMPDEST PUSH0 DUP2 SWAP1 POP SWAP2 SWAP1 POP JUMP JUMPDEST PUSH0 PUSH2 0x1C0 PUSH2 0x1BB PUSH2 0x1B6 DUP5 PUSH2 0x194 JUMP JUMPDEST PUSH2 0x19D JUMP JUMPDEST PUSH2 0x194 JUMP JUMPDEST SWAP1 POP SWAP2 SWAP1 POP JUMP JUMPDEST PUSH0 DUP2 SWAP1 POP SWAP2 SWAP1 POP JUMP JUMPDEST PUSH2 0x1D9 DUP4 PUSH2 0x1A6 JUMP JUMPDEST PUSH2 0x1ED PUSH2 0x1E5 DUP3 PUSH2 0x1C7 JUMP JUMPDEST DUP5 DUP5 SLOAD PUSH2 0x143 JUMP JUMPDEST DUP3 SSTORE POP POP POP POP JUMP JUMPDEST PUSH0 SWAP1 JUMP JUMPDEST PUSH2 0x201 PUSH2 0x1F5 JUMP JUMPDEST PUSH2 0x20C DUP2 DUP5 DUP5 PUSH2 0x1D0 JUMP JUMPDEST POP POP POP JUMP JUMPDEST JUMPDEST DUP2 DUP2 LT ISZERO PUSH2 0x22F JUMPI PUSH2 0x224 PUSH0 DUP3 PUSH2 0x1F9 JUMP JUMPDEST PUSH1 0x1 DUP2 ADD SWAP1 POP PUSH2 0x212 JUMP JUMPDEST POP POP JUMP JUMPDEST PUSH1 0x1F DUP3 GT ISZERO PUSH2 0x274 JUMPI PUSH2 0x245 DUP2 PUSH2 0x116 JUMP JUMPDEST PUSH2 0x24E DUP5 PUSH2 0x128 JUMP JUMPDEST DUP2 ADD PUSH1 0x20 DUP6 LT ISZERO PUSH2 0x25D JUMPI DUP2 SWAP1 POP JUMPDEST PUSH2 0x271 PUSH2 0x269 DUP6 PUSH2 0x128 JUMP JUMPDEST DUP4 ADD DUP3 PUSH2 0x211 JUMP JUMPDEST POP POP JUMPDEST POP POP POP JUMP JUMPDEST PUSH0 DUP3 DUP3 SHR SWAP1 POP SWAP3 SWAP2 POP POP JUMP JUMPDEST PUSH0 PUSH2 0x294 PUSH0 NOT DUP5 PUSH1 0x8 MUL PUSH2 0x279 JUMP JUMPDEST NOT DUP1 DUP4 AND SWAP2 POP POP SWAP3 SWAP2 POP POP JUMP JUMPDEST PUSH0 PUSH2 0x2AC DUP4 DUP4 PUSH2 0x285 JUMP JUMPDEST SWAP2 POP DUP3 PUSH1 0x2 MUL DUP3 OR SWAP1 POP SWAP3 SWAP2 POP POP JUMP JUMPDEST PUSH2 0x2C5 DUP3 PUSH2 0x82 JUMP JUMPDEST PUSH8 0xFFFFFFFFFFFFFFFF DUP2 GT ISZERO PUSH2 0x2DE JUMPI PUSH2 0x2DD PUSH2 0x8C JUMP JUMPDEST JUMPDEST PUSH2 0x2E8 DUP3 SLOAD PUSH2 0xE6 JUMP JUMPDEST PUSH2 0x2F3 DUP3 DUP3 DUP6 PUSH2 0x233 JUMP JUMPDEST PUSH0 PUSH1 0x20 SWAP1 POP PUSH1 0x1F DUP4 GT PUSH1 0x1 DUP2 EQ PUSH2 0x324 JUMPI PUSH0 DUP5 ISZERO PUSH2 0x312 JUMPI DUP3 DUP8 ADD MLOAD SWAP1 POP JUMPDEST PUSH2 0x31C DUP6 DUP3 PUSH2 0x2A1 JUMP JUMPDEST DUP7 SSTORE POP PUSH2 0x383 JUMP JUMPDEST PUSH1 0x1F NOT DUP5 AND PUSH2 0x332 DUP7 PUSH2 0x116 JUMP JUMPDEST PUSH0 JUMPDEST DUP3 DUP2 LT ISZERO PUSH2 0x359 JUMPI DUP5 DUP10 ADD MLOAD DUP3 SSTORE PUSH1 0x1 DUP3 ADD SWAP2 POP PUSH1 0x20 DUP6 ADD SWAP5 POP PUSH1 0x20 DUP2 ADD SWAP1 POP PUSH2 0x334 JUMP JUMPDEST DUP7 DUP4 LT ISZERO PUSH2 0x376 JUMPI DUP5 DUP10 ADD MLOAD PUSH2 0x372 PUSH1 0x1F DUP10 AND DUP3 PUSH2 0x285 JUMP JUMPDEST DUP4 SSTORE POP JUMPDEST PUSH1 0x1 PUSH1 0x2 DUP9 MUL ADD DUP9 SSTORE POP POP POP JUMPDEST POP POP POP POP POP POP JUMP JUMPDEST PUSH2 0xA6E DUP1 PUSH2 0x398 PUSH0 CODECOPY PUSH0 RETURN INVALID PUSH1 0x80 PUSH1 0x40 MSTORE CALLVALUE DUP1 ISZERO PUSH2 0xF JUMPI PUSH0 DUP1 REVERT JUMPDEST POP PUSH1 0x4 CALLDATASIZE LT PUSH2 0x86 JUMPI PUSH0 CALLDATALOAD PUSH1 0xE0 SHR DUP1 PUSH4 0x77EC2B55 GT PUSH2 0x59 JUMPI DUP1 PUSH4 0x77EC2B55 EQ PUSH2 0xFC JUMPI DUP1 PUSH4 0x8BAB8DD5 EQ PUSH2 0x11B JUMPI DUP1 PUSH4 0x9E7A13AD EQ PUSH2 0x14B JUMPI DUP1 PUSH4 0xAA62479E EQ PUSH2 0x17C JUMPI PUSH2 0x86 JUMP JUMPDEST DUP1 PUSH4 0x29A22B88 EQ PUSH2 0x8A JUMPI DUP1 PUSH4 0x471F7CDF EQ PUSH2 0xA6 JUMPI DUP1 PUSH4 0x6057361D EQ PUSH2 0xC4 JUMPI DUP1 PUSH4 0x6F760F41 EQ PUSH2 0xE0 JUMPI JUMPDEST PUSH0 DUP1 REVERT JUMPDEST PUSH2 0xA4 PUSH1 0x4 DUP1 CALLDATASIZE SUB DUP2 ADD SWAP1 PUSH2 0x9F SWAP2 SWAP1 PUSH2 0x401 JUMP JUMPDEST PUSH2 0x19A JUMP JUMPDEST STOP JUMPDEST PUSH2 0xAE PUSH2 0x1AA JUMP JUMPDEST PUSH1 0x40 MLOAD PUSH2 0xBB SWAP2 SWAP1 PUSH2 0x43B JUMP JUMPDEST PUSH1 0x40 MLOAD DUP1 SWAP2 SUB SWAP1 RETURN JUMPDEST PUSH2 0xDE PUSH1 0x4 DUP1 CALLDATASIZE SUB DUP2 ADD SWAP1 PUSH2 0xD9 SWAP2 SWAP1 PUSH2 0x401 JUMP JUMPDEST PUSH2 0x1AF JUMP JUMPDEST STOP JUMPDEST PUSH2 0xFA PUSH1 0x4 DUP1 CALLDATASIZE SUB DUP2 ADD SWAP1 PUSH2 0xF5 SWAP2 SWAP1 PUSH2 0x590 JUMP JUMPDEST PUSH2 0x1B8 JUMP JUMPDEST STOP JUMPDEST PUSH2 0x104 PUSH2 0x23C JUMP JUMPDEST PUSH1 0x40 MLOAD PUSH2 0x112 SWAP3 SWAP2 SWAP1 PUSH2 0x64A JUMP JUMPDEST PUSH1 0x40 MLOAD DUP1 SWAP2 SUB SWAP1 RETURN JUMPDEST PUSH2 0x135 PUSH1 0x4 DUP1 CALLDATASIZE SUB DUP2 ADD SWAP1 PUSH2 0x130 SWAP2 SWAP1 PUSH2 0x678 JUMP JUMPDEST PUSH2 0x2D3 JUMP JUMPDEST PUSH1 0x40 MLOAD PUSH2 0x142 SWAP2 SWAP1 PUSH2 0x43B JUMP JUMPDEST PUSH1 0x40 MLOAD DUP1 SWAP2 SUB SWAP1 RETURN JUMPDEST PUSH2 0x165 PUSH1 0x4 DUP1 CALLDATASIZE SUB DUP2 ADD SWAP1 PUSH2 0x160 SWAP2 SWAP1 PUSH2 0x401 JUMP JUMPDEST PUSH2 0x300 JUMP JUMPDEST PUSH1 0x40 MLOAD PUSH2 0x173 SWAP3 SWAP2 SWAP1 PUSH2 0x64A JUMP JUMPDEST PUSH1 0x40 MLOAD DUP1 SWAP2 SUB SWAP1 RETURN JUMPDEST PUSH2 0x184 PUSH2 0x3B5 JUMP JUMPDEST PUSH1 0x40 MLOAD PUSH2 0x191 SWAP2 SWAP1 PUSH2 0x43B JUMP JUMPDEST PUSH1 0x40 MLOAD DUP1 SWAP2 SUB SWAP1 RETURN JUMPDEST DUP1 DUP2 PUSH2 0x1A6 SWAP2 SWAP1 PUSH2 0x6EC JUMP JUMPDEST POP POP JUMP JUMPDEST PUSH0 SLOAD DUP2 JUMP JUMPDEST DUP1 PUSH0 DUP2 SWAP1 SSTORE POP POP JUMP JUMPDEST PUSH1 0x3 PUSH1 0x40 MLOAD DUP1 PUSH1 0x40 ADD PUSH1 0x40 MSTORE DUP1 DUP4 DUP2 MSTORE PUSH1 0x20 ADD DUP5 DUP2 MSTORE POP SWAP1 DUP1 PUSH1 0x1 DUP2 SLOAD ADD DUP1 DUP3 SSTORE DUP1 SWAP2 POP POP PUSH1 0x1 SWAP1 SUB SWAP1 PUSH0 MSTORE PUSH1 0x20 PUSH0 KECCAK256 SWAP1 PUSH1 0x2 MUL ADD PUSH0 SWAP1 SWAP2 SWAP1 SWAP2 SWAP1 SWAP2 POP PUSH0 DUP3 ADD MLOAD DUP2 PUSH0 ADD SSTORE PUSH1 0x20 DUP3 ADD MLOAD DUP2 PUSH1 0x1 ADD SWAP1 DUP2 PUSH2 0x212 SWAP2 SWAP1 PUSH2 0x919 JUMP JUMPDEST POP POP POP DUP1 PUSH1 0x4 DUP4 PUSH1 0x40 MLOAD PUSH2 0x226 SWAP2 SWAP1 PUSH2 0xA22 JUMP JUMPDEST SWAP1 DUP2 MSTORE PUSH1 0x20 ADD PUSH1 0x40 MLOAD DUP1 SWAP2 SUB SWAP1 KECCAK256 DUP2 SWAP1 SSTORE POP POP POP JUMP JUMPDEST PUSH1 0x1 DUP1 PUSH0 ADD SLOAD SWAP1 DUP1 PUSH1 0x1 ADD DUP1 SLOAD PUSH2 0x252 SWAP1 PUSH2 0x74C JUMP JUMPDEST DUP1 PUSH1 0x1F ADD PUSH1 0x20 DUP1 SWAP2 DIV MUL PUSH1 0x20 ADD PUSH1 0x40 MLOAD SWAP1 DUP2 ADD PUSH1 0x40 MSTORE DUP1 SWAP3 SWAP2 SWAP1 DUP2 DUP2 MSTORE PUSH1 0x20 ADD DUP3 DUP1 SLOAD PUSH2 0x27E SWAP1 PUSH2 0x74C JUMP JUMPDEST DUP1 ISZERO PUSH2 0x2C9 JUMPI DUP1 PUSH1 0x1F LT PUSH2 0x2A0 JUMPI PUSH2 0x100 DUP1 DUP4 SLOAD DIV MUL DUP4 MSTORE SWAP2 PUSH1 0x20 ADD SWAP2 PUSH2 0x2C9 JUMP JUMPDEST DUP3 ADD SWAP2 SWAP1 PUSH0 MSTORE PUSH1 0x20 PUSH0 KECCAK256 SWAP1 JUMPDEST DUP2 SLOAD DUP2 MSTORE SWAP1 PUSH1 0x1 ADD SWAP1 PUSH1 0x20 ADD DUP1 DUP4 GT PUSH2 0x2AC JUMPI DUP3 SWAP1 SUB PUSH1 0x1F AND DUP3 ADD SWAP2 JUMPDEST POP POP POP POP POP SWAP1 POP DUP3 JUMP JUMPDEST PUSH1 0x4 DUP2 DUP1 MLOAD PUSH1 0x20 DUP2 ADD DUP3 ADD DUP1 MLOAD DUP5 DUP3 MSTORE PUSH1 0x20 DUP4 ADD PUSH1 0x20 DUP6 ADD KECCAK256 DUP2 DUP4 MSTORE DUP1 SWAP6 POP POP POP POP POP POP PUSH0 SWAP2 POP SWAP1 POP SLOAD DUP2 JUMP JUMPDEST PUSH1 0x3 DUP2 DUP2 SLOAD DUP2 LT PUSH2 0x30F JUMPI PUSH0 DUP1 REVERT JUMPDEST SWAP1 PUSH0 MSTORE PUSH1 0x20 PUSH0 KECCAK256 SWAP1 PUSH1 0x2 MUL ADD PUSH0 SWAP2 POP SWAP1 POP DUP1 PUSH0 ADD SLOAD SWAP1 DUP1 PUSH1 0x1 ADD DUP1 SLOAD PUSH2 0x334 SWAP1 PUSH2 0x74C JUMP JUMPDEST DUP1 PUSH1 0x1F ADD PUSH1 0x20 DUP1 SWAP2 DIV MUL PUSH1 0x20 ADD PUSH1 0x40 MLOAD SWAP1 DUP2 ADD PUSH1 0x40 MSTORE DUP1 SWAP3 SWAP2 SWAP1 DUP2 DUP2 MSTORE PUSH1 0x20 ADD DUP3 DUP1 SLOAD PUSH2 0x360 SWAP1 PUSH2 0x74C JUMP JUMPDEST DUP1 ISZERO PUSH2 0x3AB JUMPI DUP1 PUSH1 0x1F LT PUSH2 0x382 JUMPI PUSH2 0x100 DUP1 DUP4 SLOAD DIV MUL DUP4 MSTORE SWAP2 PUSH1 0x20 ADD SWAP2 PUSH2 0x3AB JUMP JUMPDEST DUP3 ADD SWAP2 SWAP1 PUSH0 MSTORE PUSH1 0x20 PUSH0 KECCAK256 SWAP1 JUMPDEST DUP2 SLOAD DUP2 MSTORE SWAP1 PUSH1 0x1 ADD SWAP1 PUSH1 0x20 ADD DUP1 DUP4 GT PUSH2 0x38E JUMPI DUP3 SWAP1 SUB PUSH1 0x1F AND DUP3 ADD SWAP2 JUMPDEST POP POP POP POP POP SWAP1 POP DUP3 JUMP JUMPDEST PUSH0 DUP1 SLOAD SWAP1 POP SWAP1 JUMP JUMPDEST PUSH0 PUSH1 0x40 MLOAD SWAP1 POP SWAP1 JUMP JUMPDEST PUSH0 DUP1 REVERT JUMPDEST PUSH0 DUP1 REVERT JUMPDEST PUSH0 DUP2 SWAP1 POP SWAP2 SWAP1 POP JUMP JUMPDEST PUSH2 0x3E0 DUP2 PUSH2 0x3CE JUMP JUMPDEST DUP2 EQ PUSH2 0x3EA JUMPI PUSH0 DUP1 REVERT JUMPDEST POP JUMP JUMPDEST PUSH0 DUP2 CALLDATALOAD SWAP1 POP PUSH2 0x3FB DUP2 PUSH2 0x3D7 JUMP JUMPDEST SWAP3 SWAP2 POP POP JUMP JUMPDEST PUSH0 PUSH1 0x20 DUP3 DUP5 SUB SLT ISZERO PUSH2 0x416 JUMPI PUSH2 0x415 PUSH2 0x3C6 JUMP JUMPDEST JUMPDEST PUSH0 PUSH2 0x423 DUP5 DUP3 DUP6 ADD PUSH2 0x3ED JUMP JUMPDEST SWAP2 POP POP SWAP3 SWAP2 POP POP JUMP JUMPDEST PUSH2 0x435 DUP2 PUSH2 0x3CE JUMP JUMPDEST DUP3 MSTORE POP POP JUMP JUMPDEST PUSH0 PUSH1 0x20 DUP3 ADD SWAP1 POP PUSH2 0x44E PUSH0 DUP4 ADD DUP5 PUSH2 0x42C JUMP JUMPDEST SWAP3 SWAP2 POP POP JUMP JUMPDEST PUSH0 DUP1 REVERT JUMPDEST PUSH0 DUP1 REVERT JUMPDEST PUSH0 PUSH1 0x1F NOT PUSH1 0x1F DUP4 ADD AND SWAP1 POP SWAP2 SWAP1 POP JUMP JUMPDEST PUSH32 0x4E487B7100000000000000000000000000000000000000000000000000000000 PUSH0 MSTORE PUSH1 0x41 PUSH1 0x4 MSTORE PUSH1 0x24 PUSH0 REVERT JUMPDEST PUSH2 0x4A2 DUP3 PUSH2 0x45C JUMP JUMPDEST DUP2 ADD DUP2 DUP2 LT PUSH8 0xFFFFFFFFFFFFFFFF DUP3 GT OR ISZERO PUSH2 0x4C1 JUMPI PUSH2 0x4C0 PUSH2 0x46C JUMP JUMPDEST JUMPDEST DUP1 PUSH1 0x40 MSTORE POP POP POP JUMP JUMPDEST PUSH0 PUSH2 0x4D3 PUSH2 0x3BD JUMP JUMPDEST SWAP1 POP PUSH2 0x4DF DUP3 DUP3 PUSH2 0x499 JUMP JUMPDEST SWAP2 SWAP1 POP JUMP JUMPDEST PUSH0 PUSH8 0xFFFFFFFFFFFFFFFF DUP3 GT ISZERO PUSH2 0x4FE JUMPI PUSH2 0x4FD PUSH2 0x46C JUMP JUMPDEST JUMPDEST PUSH2 0x507 DUP3 PUSH2 0x45C JUMP JUMPDEST SWAP1 POP PUSH1 0x20 DUP2 ADD SWAP1 POP SWAP2 SWAP1 POP JUMP JUMPDEST DUP3 DUP2 DUP4 CALLDATACOPY PUSH0 DUP4 DUP4 ADD MSTORE POP POP POP JUMP JUMPDEST PUSH0 PUSH2 0x534 PUSH2 0x52F DUP5 PUSH2 0x4E4 JUMP JUMPDEST PUSH2 0x4CA JUMP JUMPDEST SWAP1 POP DUP3 DUP2 MSTORE PUSH1 0x20 DUP2 ADD DUP5 DUP5 DUP5 ADD GT ISZERO PUSH2 0x550 JUMPI PUSH2 0x54F PUSH2 0x458 JUMP JUMPDEST JUMPDEST PUSH2 0x55B DUP5 DUP3 DUP6 PUSH2 0x514 JUMP JUMPDEST POP SWAP4 SWAP3 POP POP POP JUMP JUMPDEST PUSH0 DUP3 PUSH1 0x1F DUP4 ADD SLT PUSH2 0x577 JUMPI PUSH2 0x576 PUSH2 0x454 JUMP JUMPDEST JUMPDEST DUP2 CALLDATALOAD PUSH2 0x587 DUP5 DUP3 PUSH1 0x20 DUP7 ADD PUSH2 0x522 JUMP JUMPDEST SWAP2 POP POP SWAP3 SWAP2 POP POP JUMP JUMPDEST PUSH0 DUP1 PUSH1 0x40 DUP4 DUP6 SUB SLT ISZERO PUSH2 0x5A6 JUMPI PUSH2 0x5A5 PUSH2 0x3C6 JUMP JUMPDEST JUMPDEST PUSH0 DUP4 ADD CALLDATALOAD PUSH8 0xFFFFFFFFFFFFFFFF DUP2 GT ISZERO PUSH2 0x5C3 JUMPI PUSH2 0x5C2 PUSH2 0x3CA JUMP JUMPDEST JUMPDEST PUSH2 0x5CF DUP6 DUP3 DUP7 ADD PUSH2 0x563 JUMP JUMPDEST SWAP3 POP POP PUSH1 0x20 PUSH2 0x5E0 DUP6 DUP3 DUP7 ADD PUSH2 0x3ED JUMP JUMPDEST SWAP2 POP POP SWAP3 POP SWAP3 SWAP1 POP JUMP JUMPDEST PUSH0 DUP2 MLOAD SWAP1 POP SWAP2 SWAP1 POP JUMP JUMPDEST PUSH0 DUP3 DUP3 MSTORE PUSH1 0x20 DUP3 ADD SWAP1 POP SWAP3 SWAP2 POP POP JUMP JUMPDEST DUP3 DUP2 DUP4 MCOPY PUSH0 DUP4 DUP4 ADD MSTORE POP POP POP JUMP JUMPDEST PUSH0 PUSH2 0x61C DUP3 PUSH2 0x5EA JUMP JUMPDEST PUSH2 0x626 DUP2 DUP6 PUSH2 0x5F4 JUMP JUMPDEST SWAP4 POP PUSH2 0x636 DUP2 DUP6 PUSH1 0x20 DUP7 ADD PUSH2 0x604 JUMP JUMPDEST PUSH2 0x63F DUP2 PUSH2 0x45C JUMP JUMPDEST DUP5 ADD SWAP2 POP POP SWAP3 SWAP2 POP POP JUMP JUMPDEST PUSH0 PUSH1 0x40 DUP3 ADD SWAP1 POP PUSH2 0x65D PUSH0 DUP4 ADD DUP6 PUSH2 0x42C JUMP JUMPDEST DUP2 DUP2 SUB PUSH1 0x20 DUP4 ADD MSTORE PUSH2 0x66F DUP2 DUP5 PUSH2 0x612 JUMP JUMPDEST SWAP1 POP SWAP4 SWAP3 POP POP POP JUMP JUMPDEST PUSH0 PUSH1 0x20 DUP3 DUP5 SUB SLT ISZERO PUSH2 0x68D JUMPI PUSH2 0x68C PUSH2 0x3C6 JUMP JUMPDEST JUMPDEST PUSH0 DUP3 ADD CALLDATALOAD PUSH8 0xFFFFFFFFFFFFFFFF DUP2 GT ISZERO PUSH2 0x6AA JUMPI PUSH2 0x6A9 PUSH2 0x3CA JUMP JUMPDEST JUMPDEST PUSH2 0x6B6 DUP5 DUP3 DUP6 ADD PUSH2 0x563 JUMP JUMPDEST SWAP2 POP POP SWAP3 SWAP2 POP POP JUMP JUMPDEST PUSH32 0x4E487B7100000000000000000000000000000000000000000000000000000000 PUSH0 MSTORE PUSH1 0x11 PUSH1 0x4 MSTORE PUSH1 0x24 PUSH0 REVERT JUMPDEST PUSH0 PUSH2 0x6F6 DUP3 PUSH2 0x3CE JUMP JUMPDEST SWAP2 POP PUSH2 0x701 DUP4 PUSH2 0x3CE JUMP JUMPDEST SWAP3 POP DUP3 DUP3 ADD SWAP1 POP DUP1 DUP3 GT ISZERO PUSH2 0x719 JUMPI PUSH2 0x718 PUSH2 0x6BF JUMP JUMPDEST JUMPDEST SWAP3 SWAP2 POP POP JUMP JUMPDEST PUSH32 0x4E487B7100000000000000000000000000000000000000000000000000000000 PUSH0 MSTORE PUSH1 0x22 PUSH1 0x4 MSTORE PUSH1 0x24 PUSH0 REVERT JUMPDEST PUSH0 PUSH1 0x2 DUP3 DIV SWAP1 POP PUSH1 0x1 DUP3 AND DUP1 PUSH2 0x763 JUMPI PUSH1 0x7F DUP3 AND SWAP2 POP JUMPDEST PUSH1 0x20 DUP3 LT DUP2 SUB PUSH2 0x776 JUMPI PUSH2 0x775 PUSH2 0x71F JUMP JUMPDEST JUMPDEST POP SWAP2 SWAP1 POP JUMP JUMPDEST PUSH0 DUP2 SWAP1 POP DUP2 PUSH0 MSTORE PUSH1 0x20 PUSH0 KECCAK256 SWAP1 POP SWAP2 SWAP1 POP JUMP JUMPDEST PUSH0 PUSH1 0x20 PUSH1 0x1F DUP4 ADD DIV SWAP1 POP SWAP2 SWAP1 POP JUMP JUMPDEST PUSH0 DUP3 DUP3 SHL SWAP1 POP SWAP3 SWAP2 POP POP JUMP JUMPDEST PUSH0 PUSH1 0x8 DUP4 MUL PUSH2 0x7D8 PUSH32 0xFFFFFFFFFFFFFFFFFFFFFFFFFFFFFFFFFFFFFFFFFFFFFFFFFFFFFFFFFFFFFFFF DUP3 PUSH2 0x79D JUMP JUMPDEST PUSH2 0x7E2 DUP7 DUP4 PUSH2 0x79D JUMP JUMPDEST SWAP6 POP DUP1 NOT DUP5 AND SWAP4 POP DUP1 DUP7 AND DUP5 OR SWAP3 POP POP POP SWAP4 SWAP3 POP POP POP JUMP JUMPDEST PUSH0 DUP2 SWAP1 POP SWAP2 SWAP1 POP JUMP JUMPDEST PUSH0 PUSH2 0x81D PUSH2 0x818 PUSH2 0x813 DUP5 PUSH2 0x3CE JUMP JUMPDEST PUSH2 0x7FA JUMP JUMPDEST PUSH2 0x3CE JUMP JUMPDEST SWAP1 POP SWAP2 SWAP1 POP JUMP JUMPDEST PUSH0 DUP2 SWAP1 POP SWAP2 SWAP1 POP JUMP JUMPDEST PUSH2 0x836 DUP4 PUSH2 0x803 JUMP JUMPDEST PUSH2 0x84A PUSH2 0x842 DUP3 PUSH2 0x824 JUMP JUMPDEST DUP5 DUP5 SLOAD PUSH2 0x7A9 JUMP JUMPDEST DUP3 SSTORE POP POP POP POP JUMP JUMPDEST PUSH0 SWAP1 JUMP JUMPDEST PUSH2 0x85E PUSH2 0x852 JUMP JUMPDEST PUSH2 0x869 DUP2 DUP5 DUP5 PUSH2 0x82D JUMP JUMPDEST POP POP POP JUMP JUMPDEST JUMPDEST DUP2 DUP2 LT ISZERO PUSH2 0x88C JUMPI PUSH2 0x881 PUSH0 DUP3 PUSH2 0x856 JUMP JUMPDEST PUSH1 0x1 DUP2 ADD SWAP1 POP PUSH2 0x86F JUMP JUMPDEST POP POP JUMP JUMPDEST PUSH1 0x1F DUP3 GT ISZERO PUSH2 0x8D1 JUMPI PUSH2 0x8A2 DUP2 PUSH2 0x77C JUMP JUMPDEST PUSH2 0x8AB DUP5 PUSH2 0x78E JUMP JUMPDEST DUP2 ADD PUSH1 0x20 DUP6 LT ISZERO PUSH2 0x8BA JUMPI DUP2 SWAP1 POP JUMPDEST PUSH2 0x8CE PUSH2 0x8C6 DUP6 PUSH2 0x78E JUMP JUMPDEST DUP4 ADD DUP3 PUSH2 0x86E JUMP JUMPDEST POP POP JUMPDEST POP POP POP JUMP JUMPDEST PUSH0 DUP3 DUP3 SHR SWAP1 POP SWAP3 SWAP2 POP POP JUMP JUMPDEST PUSH0 PUSH2 0x8F1 PUSH0 NOT DUP5 PUSH1 0x8 MUL PUSH2 0x8D6 JUMP JUMPDEST NOT DUP1 DUP4 AND SWAP2 POP POP SWAP3 SWAP2 POP POP JUMP JUMPDEST PUSH0 PUSH2 0x909 DUP4 DUP4 PUSH2 0x8E2 JUMP JUMPDEST SWAP2 POP DUP3 PUSH1 0x2 MUL DUP3 OR SWAP1 POP SWAP3 SWAP2 POP POP JUMP JUMPDEST PUSH2 0x922 DUP3 PUSH2 0x5EA JUMP JUMPDEST PUSH8 0xFFFFFFFFFFFFFFFF DUP2 GT ISZERO PUSH2 0x93B JUMPI PUSH2 0x93A PUSH2 0x46C JUMP JUMPDEST JUMPDEST PUSH2 0x945 DUP3 SLOAD PUSH2 0x74C JUMP JUMPDEST PUSH2 0x950 DUP3 DUP3 DUP6 PUSH2 0x890 JUMP JUMPDEST PUSH0 PUSH1 0x20 SWAP1 POP PUSH1 0x1F DUP4 GT PUSH1 0x1 DUP2 EQ PUSH2 0x981 JUMPI PUSH0 DUP5 ISZERO PUSH2 0x96F JUMPI DUP3 DUP8 ADD MLOAD SWAP1 POP JUMPDEST PUSH2 0x979 DUP6 DUP3 PUSH2 0x8FE JUMP JUMPDEST DUP7 SSTORE POP PUSH2 0x9E0 JUMP JUMPDEST PUSH1 0x1F NOT DUP5 AND PUSH2 0x98F DUP7 PUSH2 0x77C JUMP JUMPDEST PUSH0 JUMPDEST DUP3 DUP2 LT ISZERO PUSH2 0x9B6 JUMPI DUP5 DUP10 ADD MLOAD DUP3 SSTORE PUSH1 0x1 DUP3 ADD SWAP2 POP PUSH1 0x20 DUP6 ADD SWAP5 POP PUSH1 0x20 DUP2 ADD SWAP1 POP PUSH2 0x991 JUMP JUMPDEST DUP7 DUP4 LT ISZERO PUSH2 0x9D3 JUMPI DUP5 DUP10 ADD MLOAD PUSH2 0x9CF PUSH1 0x1F DUP10 AND DUP3 PUSH2 0x8E2 JUMP JUMPDEST DUP4 SSTORE POP JUMPDEST PUSH1 0x1 PUSH1 0x2 DUP9 MUL ADD DUP9 SSTORE POP POP POP JUMPDEST POP POP POP POP POP POP JUMP JUMPDEST PUSH0 DUP2 SWAP1 POP SWAP3 SWAP2 POP POP JUMP JUMPDEST PUSH0 PUSH2 0x9FC DUP3 PUSH2 0x5EA JUMP JUMPDEST PUSH2 0xA06 DUP2 DUP6 PUSH2 0x9E8 JUMP JUMPDEST SWAP4 POP PUSH2 0xA16 DUP2 DUP6 PUSH1 0x20 DUP7 ADD PUSH2 0x604 JUMP JUMPDEST DUP1 DUP5 ADD SWAP2 POP POP SWAP3 SWAP2 POP POP JUMP JUMPDEST PUSH0 PUSH2 0xA2D DUP3 DUP5 PUSH2 0x9F2 JUMP JUMPDEST SWAP2 POP DUP2 SWAP1 POP SWAP3 SWAP2 POP POP JUMP INVALID LOG2 PUSH5 0x6970667358 0x22 SLT KECCAK256 0xE9 TLOAD DUP5 0xD1 0x21 0xBB 0xDD 0x21 JUMP 0xD4 0x2B 0xB3 SWAP14 0x25 TLOAD MSTORE MSTORE 0xEF PUSH23 0x1F9902DD2D922AEEDB2884621E64736F6C634300081900 CALLER LOG2 PUSH5 0x6970667358 0x22 SLT KECCAK256 MSTORE PUSH26 0xF185F8C4265369F0E1DF78597BA1E489FA0561ECE32C626D90BF OR 0x2D 0xAE 0xE2 PUSH5 0x736F6C6343 STOP ADDMOD NOT STOP CALLER "
		},
		"gasEstimates": {
			"creation": {
				"codeDepositCost": "1459800",
				"executionCost": "infinite",
				"totalCost": "infinite"
			},
			"external": {
				"addPerson(string,uint256)": "infinite",
				"createSimpleStorageContract()": "infinite",
				"favoriteNumber()": "2491",
				"nameToFavoriteNumber(string)": "infinite",
				"people(uint256)": "infinite",
				"person()": "infinite",
				"retrievePure(uint256)": "infinite",
				"retrieveView()": "2520",
				"sfGet(uint256)": "infinite",
				"sfStore(uint256,uint256)": "infinite",
				"simpleStorageArray(uint256)": "infinite",
				"store(uint256)": "22603"
			}
		},
		"methodIdentifiers": {
			"addPerson(string,uint256)": "6f760f41",
			"createSimpleStorageContract()": "1dda6541",
			"favoriteNumber()": "471f7cdf",
			"nameToFavoriteNumber(string)": "8bab8dd5",
			"people(uint256)": "9e7a13ad",
			"person()": "77ec2b55",
			"retrievePure(uint256)": "29a22b88",
			"retrieveView()": "aa62479e",
			"sfGet(uint256)": "c5f19c20",
			"sfStore(uint256,uint256)": "1563700f",
			"simpleStorageArray(uint256)": "64591bf1",
			"store(uint256)": "6057361d"
		}
	},
	"abi": [
		{
			"inputs": [
				{
					"internalType": "string",
					"name": "_name",
					"type": "string"
				},
				{
					"internalType": "uint256",
					"name": "_favoriteNumber",
					"type": "uint256"
				}
			],
			"name": "addPerson",
			"outputs": [],
			"stateMutability": "nonpayable",
			"type": "function"
		},
		{
			"inputs": [],
			"name": "createSimpleStorageContract",
			"outputs": [],
			"stateMutability": "nonpayable",
			"type": "function"
		},
		{
			"inputs": [],
			"name": "favoriteNumber",
			"outputs": [
				{
					"internalType": "uint256",
					"name": "",
					"type": "uint256"
				}
			],
			"stateMutability": "view",
			"type": "function"
		},
		{
			"inputs": [
				{
					"internalType": "string",
					"name": "",
					"type": "string"
				}
			],
			"name": "nameToFavoriteNumber",
			"outputs": [
				{
					"internalType": "uint256",
					"name": "",
					"type": "uint256"
				}
			],
			"stateMutability": "view",
			"type": "function"
		},
		{
			"inputs": [
				{
					"internalType": "uint256",
					"name": "",
					"type": "uint256"
				}
			],
			"name": "people",
			"outputs": [
				{
					"internalType": "uint256",
					"name": "favoriteNumber",
					"type": "uint256"
				},
				{
					"internalType": "string",
					"name": "name",
					"type": "string"
				}
			],
			"stateMutability": "view",
			"type": "function"
		},
		{
			"inputs": [],
			"name": "person",
			"outputs": [
				{
					"internalType": "uint256",
					"name": "favoriteNumber",
					"type": "uint256"
				},
				{
					"internalType": "string",
					"name": "name",
					"type": "string"
				}
			],
			"stateMutability": "view",
			"type": "function"
		},
		{
			"inputs": [
				{
					"internalType": "uint256",
					"name": "favoriteNumber1",
					"type": "uint256"
				}
			],
			"name": "retrievePure",
			"outputs": [],
			"stateMutability": "pure",
			"type": "function"
		},
		{
			"inputs": [],
			"name": "retrieveView",
			"outputs": [
				{
					"internalType": "uint256",
					"name": "",
					"type": "uint256"
				}
			],
			"stateMutability": "view",
			"type": "function"
		},
		{
			"inputs": [
				{
					"internalType": "uint256",
					"name": "_simpleStorageIndex",
					"type": "uint256"
				}
			],
			"name": "sfGet",
			"outputs": [
				{
					"internalType": "uint256",
					"name": "",
					"type": "uint256"
				}
			],
			"stateMutability": "view",
			"type": "function"
		},
		{
			"inputs": [
				{
					"internalType": "uint256",
					"name": "_simpleStorageIndex",
					"type": "uint256"
				},
				{
					"internalType": "uint256",
					"name": "_simpleStorageNumber",
					"type": "uint256"
				}
			],
			"name": "sfStore",
			"outputs": [],
			"stateMutability": "nonpayable",
			"type": "function"
		},
		{
			"inputs": [
				{
					"internalType": "uint256",
					"name": "",
					"type": "uint256"
				}
			],
			"name": "simpleStorageArray",
			"outputs": [
				{
					"internalType": "contract SimpleStorage",
					"name": "",
					"type": "address"
				}
			],
			"stateMutability": "view",
			"type": "function"
		},
		{
			"inputs": [
				{
					"internalType": "uint256",
					"name": "_favorite",
					"type": "uint256"
				}
			],
			"name": "store",
			"outputs": [],
			"stateMutability": "nonpayable",
			"type": "function"
		}
	]
}