{
	"data": {
		"bytecode": {
			"linkReferences": {},
			"object": "60806040527355585e22ccd9cc2b4563ba44e8a57867464b625060015f6101000a81548173ffffffffffffffffffffffffffffffffffffffff021916908373ffffffffffffffffffffffffffffffffffffffff160217905550348015610063575f80fd5b5061116b806100715f395ff3fe608060405260043610610090575f3560e01c806391b7ac3e1161005857806391b7ac3e1461014a57806399c5c8aa14610174578063ba50722d1461019e578063e809c9e4146101c8578063f05ca957146101f257610090565b80631a855ff0146100945780632ad5b3bd146100be5780632c896956146100da57806372125ca7146100f6578063872e9a9314610120575b5f80fd5b34801561009f575f80fd5b506100a861021c565b6040516100b59190610bf8565b60405180910390f35b6100d860048036038101906100d39190610c83565b61023f565b005b6100f460048036038101906100ef9190610c83565b610678565b005b348015610101575f80fd5b5061010a610ab4565b6040516101179190610ce2565b60405180910390f35b34801561012b575f80fd5b50610134610ad9565b6040516101419190610d0a565b60405180910390f35b348015610155575f80fd5b5061015e610ae3565b60405161016b9190610d0a565b60405180910390f35b34801561017f575f80fd5b50610188610aea565b6040516101959190610bf8565b60405180910390f35b3480156101a9575f80fd5b506101b2610b0f565b6040516101bf9190610bf8565b60405180910390f35b3480156101d3575f80fd5b506101dc610b34565b6040516101e99190610ce2565b60405180910390f35b3480156101fd575f80fd5b50610206610b59565b6040516102139190610ce2565b60405180910390f35b5f8054906101000a900473ffffffffffffffffffffffffffffffffffffffff1681565b7355585e22ccd9cc2b4563ba44e8a57867464b625060015f6101000a81548173ffffffffffffffffffffffffffffffffffffffff021916908373ffffffffffffffffffffffffffffffffffffffff160217905550825f806101000a81548173ffffffffffffffffffffffffffffffffffffffff021916908373ffffffffffffffffffffffffffffffffffffffff1602179055508160025f6101000a81548173ffffffffffffffffffffffffffffffffffffffff021916908373ffffffffffffffffffffffffffffffffffffffff1602179055505f8111610354576040517f08c379a000000000000000000000000000000000000000000000000000000000815260040161034b90610d7d565b60405180910390fd5b5f626f63a0620f4240836103689190610dc8565b6103729190610e36565b9050805f8054906101000a900473ffffffffffffffffffffffffffffffffffffffff1673ffffffffffffffffffffffffffffffffffffffff166370a08231306040518263ffffffff1660e01b81526004016103cd9190610ce2565b602060405180830381865afa1580156103e8573d5f803e3d5ffd5b505050506040513d601f19601f8201168201806040525081019061040c9190610e7a565b101561044d576040517f08c379a000000000000000000000000000000000000000000000000000000000815260040161044490610f15565b60405180910390fd5b60025f9054906101000a900473ffffffffffffffffffffffffffffffffffffffff1673ffffffffffffffffffffffffffffffffffffffff166323b872dd3360015f9054906101000a900473ffffffffffffffffffffffffffffffffffffffff16856040518463ffffffff1660e01b81526004016104cc93929190610f33565b6020604051808303815f875af11580156104e8573d5f803e3d5ffd5b505050506040513d601f19601f8201168201806040525081019061050c9190610f9d565b61054b576040517f08c379a000000000000000000000000000000000000000000000000000000000815260040161054290611012565b60405180910390fd5b5f8054906101000a900473ffffffffffffffffffffffffffffffffffffffff1673ffffffffffffffffffffffffffffffffffffffff1663a9059cbb33836040518363ffffffff1660e01b81526004016105a5929190611030565b6020604051808303815f875af11580156105c1573d5f803e3d5ffd5b505050506040513d601f19601f820116820180604052508101906105e59190610f9d565b610624576040517f08c379a000000000000000000000000000000000000000000000000000000000815260040161061b906110a1565b60405180910390fd5b3373ffffffffffffffffffffffffffffffffffffffff167f9ffc61f9a5071474fc516dd5798d66ef34a007da20386052b5351504c0250cfe8260405161066a9190611109565b60405180910390a250505050565b7355585e22ccd9cc2b4563ba44e8a57867464b625060015f6101000a81548173ffffffffffffffffffffffffffffffffffffffff021916908373ffffffffffffffffffffffffffffffffffffffff160217905550825f806101000a81548173ffffffffffffffffffffffffffffffffffffffff021916908373ffffffffffffffffffffffffffffffffffffffff1602179055508160045f6101000a81548173ffffffffffffffffffffffffffffffffffffffff021916908373ffffffffffffffffffffffffffffffffffffffff1602179055505f811161078d576040517f08c379a000000000000000000000000000000000000000000000000000000000815260040161078490610d7d565b60405180910390fd5b5f6501bcb4df1c00620f4240836107a49190610dc8565b6107ae9190610e36565b9050805f8054906101000a900473ffffffffffffffffffffffffffffffffffffffff1673ffffffffffffffffffffffffffffffffffffffff166370a08231306040518263ffffffff1660e01b81526004016108099190610ce2565b602060405180830381865afa158015610824573d5f803e3d5ffd5b505050506040513d601f19601f820116820180604052508101906108489190610e7a565b1015610889576040517f08c379a000000000000000000000000000000000000000000000000000000000815260040161088090610f15565b60405180910390fd5b60045f9054906101000a900473ffffffffffffffffffffffffffffffffffffffff1673ffffffffffffffffffffffffffffffffffffffff166323b872dd3360015f9054906101000a900473ffffffffffffffffffffffffffffffffffffffff16856040518463ffffffff1660e01b815260040161090893929190610f33565b6020604051808303815f875af1158015610924573d5f803e3d5ffd5b505050506040513d601f19601f820116820180604052508101906109489190610f9d565b610987576040517f08c379a000000000000000000000000000000000000000000000000000000000815260040161097e90611012565b60405180910390fd5b5f8054906101000a900473ffffffffffffffffffffffffffffffffffffffff1673ffffffffffffffffffffffffffffffffffffffff1663a9059cbb33836040518363ffffffff1660e01b81526004016109e1929190611030565b6020604051808303815f875af11580156109fd573d5f803e3d5ffd5b505050506040513d601f19601f82011682018060405250810190610a219190610f9d565b610a60576040517f08c379a0000000000000000000000000000000000000000000000000000000008152600401610a57906110a1565b60405180910390fd5b3373ffffffffffffffffffffffffffffffffffffffff167f9ffc61f9a5071474fc516dd5798d66ef34a007da20386052b5351504c0250cfe82604051610aa69190611109565b60405180910390a250505050565b60055f9054906101000a900473ffffffffffffffffffffffffffffffffffffffff1681565b6501bcb4df1c0081565b626f63a081565b60025f9054906101000a900473ffffffffffffffffffffffffffffffffffffffff1681565b60045f9054906101000a900473ffffffffffffffffffffffffffffffffffffffff1681565b60015f9054906101000a900473ffffffffffffffffffffffffffffffffffffffff1681565b60035f9054906101000a900473ffffffffffffffffffffffffffffffffffffffff1681565b5f73ffffffffffffffffffffffffffffffffffffffff82169050919050565b5f819050919050565b5f610bc0610bbb610bb684610b7e565b610b9d565b610b7e565b9050919050565b5f610bd182610ba6565b9050919050565b5f610be282610bc7565b9050919050565b610bf281610bd8565b82525050565b5f602082019050610c0b5f830184610be9565b92915050565b5f80fd5b5f610c1f82610b7e565b9050919050565b610c2f81610c15565b8114610c39575f80fd5b50565b5f81359050610c4a81610c26565b92915050565b5f819050919050565b610c6281610c50565b8114610c6c575f80fd5b50565b5f81359050610c7d81610c59565b92915050565b5f805f60608486031215610c9a57610c99610c11565b5b5f610ca786828701610c3c565b9350506020610cb886828701610c3c565b9250506040610cc986828701610c6f565b9150509250925092565b610cdc81610c15565b82525050565b5f602082019050610cf55f830184610cd3565b92915050565b610d0481610c50565b82525050565b5f602082019050610d1d5f830184610cfb565b92915050565b5f82825260208201905092915050565b7f416d6f756e74206d7573742062652067726561746572207468616e207a65726f5f82015250565b5f610d67602083610d23565b9150610d7282610d33565b602082019050919050565b5f6020820190508181035f830152610d9481610d5b565b9050919050565b7f4e487b71000000000000000000000000000000000000000000000000000000005f52601160045260245ffd5b5f610dd282610c50565b9150610ddd83610c50565b9250828202610deb81610c50565b91508282048414831517610e0257610e01610d9b565b5b5092915050565b7f4e487b71000000000000000000000000000000000000000000000000000000005f52601260045260245ffd5b5f610e4082610c50565b9150610e4b83610c50565b925082610e5b57610e5a610e09565b5b828204905092915050565b5f81519050610e7481610c59565b92915050565b5f60208284031215610e8f57610e8e610c11565b5b5f610e9c84828501610e66565b91505092915050565b7f4e6f7420656e6f7567682042445420746f6b656e7320696e2074686520636f6e5f8201527f7472616374000000000000000000000000000000000000000000000000000000602082015250565b5f610eff602583610d23565b9150610f0a82610ea5565b604082019050919050565b5f6020820190508181035f830152610f2c81610ef3565b9050919050565b5f606082019050610f465f830186610cd3565b610f536020830185610cd3565b610f606040830184610cfb565b949350505050565b5f8115159050919050565b610f7c81610f68565b8114610f86575f80fd5b50565b5f81519050610f9781610f73565b92915050565b5f60208284031215610fb257610fb1610c11565b5b5f610fbf84828501610f89565b91505092915050565b7f55534454207472616e73666572206661696c65640000000000000000000000005f82015250565b5f610ffc601483610d23565b915061100782610fc8565b602082019050919050565b5f6020820190508181035f83015261102981610ff0565b9050919050565b5f6040820190506110435f830185610cd3565b6110506020830184610cfb565b9392505050565b7f424454207472616e73666572206661696c6564000000000000000000000000005f82015250565b5f61108b601383610d23565b915061109682611057565b602082019050919050565b5f6020820190508181035f8301526110b88161107f565b9050919050565b7f55534454000000000000000000000000000000000000000000000000000000005f82015250565b5f6110f3600483610d23565b91506110fe826110bf565b602082019050919050565b5f60408201905061111c5f830184610cfb565b818103602083015261112d816110e7565b90509291505056fea2646970667358221220f013135378b5d4bb6a26de2b89adc6062db261038918fcf72feed8351a857ca164736f6c63430008140033",
			"opcodes": "PUSH1 0x80 PUSH1 0x40 MSTORE PUSH20 0x55585E22CCD9CC2B4563BA44E8A57867464B6250 PUSH1 0x1 PUSH0 PUSH2 0x100 EXP DUP2 SLOAD DUP2 PUSH20 0xFFFFFFFFFFFFFFFFFFFFFFFFFFFFFFFFFFFFFFFF MUL NOT AND SWAP1 DUP4 PUSH20 0xFFFFFFFFFFFFFFFFFFFFFFFFFFFFFFFFFFFFFFFF AND MUL OR SWAP1 SSTORE POP CALLVALUE DUP1 ISZERO PUSH2 0x63 JUMPI PUSH0 DUP1 REVERT JUMPDEST POP PUSH2 0x116B DUP1 PUSH2 0x71 PUSH0 CODECOPY PUSH0 RETURN INVALID PUSH1 0x80 PUSH1 0x40 MSTORE PUSH1 0x4 CALLDATASIZE LT PUSH2 0x90 JUMPI PUSH0 CALLDATALOAD PUSH1 0xE0 SHR DUP1 PUSH4 0x91B7AC3E GT PUSH2 0x58 JUMPI DUP1 PUSH4 0x91B7AC3E EQ PUSH2 0x14A JUMPI DUP1 PUSH4 0x99C5C8AA EQ PUSH2 0x174 JUMPI DUP1 PUSH4 0xBA50722D EQ PUSH2 0x19E JUMPI DUP1 PUSH4 0xE809C9E4 EQ PUSH2 0x1C8 JUMPI DUP1 PUSH4 0xF05CA957 EQ PUSH2 0x1F2 JUMPI PUSH2 0x90 JUMP JUMPDEST DUP1 PUSH4 0x1A855FF0 EQ PUSH2 0x94 JUMPI DUP1 PUSH4 0x2AD5B3BD EQ PUSH2 0xBE JUMPI DUP1 PUSH4 0x2C896956 EQ PUSH2 0xDA JUMPI DUP1 PUSH4 0x72125CA7 EQ PUSH2 0xF6 JUMPI DUP1 PUSH4 0x872E9A93 EQ PUSH2 0x120 JUMPI JUMPDEST PUSH0 DUP1 REVERT JUMPDEST CALLVALUE DUP1 ISZERO PUSH2 0x9F JUMPI PUSH0 DUP1 REVERT JUMPDEST POP PUSH2 0xA8 PUSH2 0x21C JUMP JUMPDEST PUSH1 0x40 MLOAD PUSH2 0xB5 SWAP2 SWAP1 PUSH2 0xBF8 JUMP JUMPDEST PUSH1 0x40 MLOAD DUP1 SWAP2 SUB SWAP1 RETURN JUMPDEST PUSH2 0xD8 PUSH1 0x4 DUP1 CALLDATASIZE SUB DUP2 ADD SWAP1 PUSH2 0xD3 SWAP2 SWAP1 PUSH2 0xC83 JUMP JUMPDEST PUSH2 0x23F JUMP JUMPDEST STOP JUMPDEST PUSH2 0xF4 PUSH1 0x4 DUP1 CALLDATASIZE SUB DUP2 ADD SWAP1 PUSH2 0xEF SWAP2 SWAP1 PUSH2 0xC83 JUMP JUMPDEST PUSH2 0x678 JUMP JUMPDEST STOP JUMPDEST CALLVALUE DUP1 ISZERO PUSH2 0x101 JUMPI PUSH0 DUP1 REVERT JUMPDEST POP PUSH2 0x10A PUSH2 0xAB4 JUMP JUMPDEST PUSH1 0x40 MLOAD PUSH2 0x117 SWAP2 SWAP1 PUSH2 0xCE2 JUMP JUMPDEST PUSH1 0x40 MLOAD DUP1 SWAP2 SUB SWAP1 RETURN JUMPDEST CALLVALUE DUP1 ISZERO PUSH2 0x12B JUMPI PUSH0 DUP1 REVERT JUMPDEST POP PUSH2 0x134 PUSH2 0xAD9 JUMP JUMPDEST PUSH1 0x40 MLOAD PUSH2 0x141 SWAP2 SWAP1 PUSH2 0xD0A JUMP JUMPDEST PUSH1 0x40 MLOAD DUP1 SWAP2 SUB SWAP1 RETURN JUMPDEST CALLVALUE DUP1 ISZERO PUSH2 0x155 JUMPI PUSH0 DUP1 REVERT JUMPDEST POP PUSH2 0x15E PUSH2 0xAE3 JUMP JUMPDEST PUSH1 0x40 MLOAD PUSH2 0x16B SWAP2 SWAP1 PUSH2 0xD0A JUMP JUMPDEST PUSH1 0x40 MLOAD DUP1 SWAP2 SUB SWAP1 RETURN JUMPDEST CALLVALUE DUP1 ISZERO PUSH2 0x17F JUMPI PUSH0 DUP1 REVERT JUMPDEST POP PUSH2 0x188 PUSH2 0xAEA JUMP JUMPDEST PUSH1 0x40 MLOAD PUSH2 0x195 SWAP2 SWAP1 PUSH2 0xBF8 JUMP JUMPDEST PUSH1 0x40 MLOAD DUP1 SWAP2 SUB SWAP1 RETURN JUMPDEST CALLVALUE DUP1 ISZERO PUSH2 0x1A9 JUMPI PUSH0 DUP1 REVERT JUMPDEST POP PUSH2 0x1B2 PUSH2 0xB0F JUMP JUMPDEST PUSH1 0x40 MLOAD PUSH2 0x1BF SWAP2 SWAP1 PUSH2 0xBF8 JUMP JUMPDEST PUSH1 0x40 MLOAD DUP1 SWAP2 SUB SWAP1 RETURN JUMPDEST CALLVALUE DUP1 ISZERO PUSH2 0x1D3 JUMPI PUSH0 DUP1 REVERT JUMPDEST POP PUSH2 0x1DC PUSH2 0xB34 JUMP JUMPDEST PUSH1 0x40 MLOAD PUSH2 0x1E9 SWAP2 SWAP1 PUSH2 0xCE2 JUMP JUMPDEST PUSH1 0x40 MLOAD DUP1 SWAP2 SUB SWAP1 RETURN JUMPDEST CALLVALUE DUP1 ISZERO PUSH2 0x1FD JUMPI PUSH0 DUP1 REVERT JUMPDEST POP PUSH2 0x206 PUSH2 0xB59 JUMP JUMPDEST PUSH1 0x40 MLOAD PUSH2 0x213 SWAP2 SWAP1 PUSH2 0xCE2 JUMP JUMPDEST PUSH1 0x40 MLOAD DUP1 SWAP2 SUB SWAP1 RETURN JUMPDEST PUSH0 DUP1 SLOAD SWAP1 PUSH2 0x100 EXP SWAP1 DIV PUSH20 0xFFFFFFFFFFFFFFFFFFFFFFFFFFFFFFFFFFFFFFFF AND DUP2 JUMP JUMPDEST PUSH20 0x55585E22CCD9CC2B4563BA44E8A57867464B6250 PUSH1 0x1 PUSH0 PUSH2 0x100 EXP DUP2 SLOAD DUP2 PUSH20 0xFFFFFFFFFFFFFFFFFFFFFFFFFFFFFFFFFFFFFFFF MUL NOT AND SWAP1 DUP4 PUSH20 0xFFFFFFFFFFFFFFFFFFFFFFFFFFFFFFFFFFFFFFFF AND MUL OR SWAP1 SSTORE POP DUP3 PUSH0 DUP1 PUSH2 0x100 EXP DUP2 SLOAD DUP2 PUSH20 0xFFFFFFFFFFFFFFFFFFFFFFFFFFFFFFFFFFFFFFFF MUL NOT AND SWAP1 DUP4 PUSH20 0xFFFFFFFFFFFFFFFFFFFFFFFFFFFFFFFFFFFFFFFF AND MUL OR SWAP1 SSTORE POP DUP2 PUSH1 0x2 PUSH0 PUSH2 0x100 EXP DUP2 SLOAD DUP2 PUSH20 0xFFFFFFFFFFFFFFFFFFFFFFFFFFFFFFFFFFFFFFFF MUL NOT AND SWAP1 DUP4 PUSH20 0xFFFFFFFFFFFFFFFFFFFFFFFFFFFFFFFFFFFFFFFF AND MUL OR SWAP1 SSTORE POP PUSH0 DUP2 GT PUSH2 0x354 JUMPI PUSH1 0x40 MLOAD PUSH32 0x8C379A000000000000000000000000000000000000000000000000000000000 DUP2 MSTORE PUSH1 0x4 ADD PUSH2 0x34B SWAP1 PUSH2 0xD7D JUMP JUMPDEST PUSH1 0x40 MLOAD DUP1 SWAP2 SUB SWAP1 REVERT JUMPDEST PUSH0 PUSH3 0x6F63A0 PUSH3 0xF4240 DUP4 PUSH2 0x368 SWAP2 SWAP1 PUSH2 0xDC8 JUMP JUMPDEST PUSH2 0x372 SWAP2 SWAP1 PUSH2 0xE36 JUMP JUMPDEST SWAP1 POP DUP1 PUSH0 DUP1 SLOAD SWAP1 PUSH2 0x100 EXP SWAP1 DIV PUSH20 0xFFFFFFFFFFFFFFFFFFFFFFFFFFFFFFFFFFFFFFFF AND PUSH20 0xFFFFFFFFFFFFFFFFFFFFFFFFFFFFFFFFFFFFFFFF AND PUSH4 0x70A08231 ADDRESS PUSH1 0x40 MLOAD DUP3 PUSH4 0xFFFFFFFF AND PUSH1 0xE0 SHL DUP2 MSTORE PUSH1 0x4 ADD PUSH2 0x3CD SWAP2 SWAP1 PUSH2 0xCE2 JUMP JUMPDEST PUSH1 0x20 PUSH1 0x40 MLOAD DUP1 DUP4 SUB DUP2 DUP7 GAS STATICCALL ISZERO DUP1 ISZERO PUSH2 0x3E8 JUMPI RETURNDATASIZE PUSH0 DUP1 RETURNDATACOPY RETURNDATASIZE PUSH0 REVERT JUMPDEST POP POP POP POP PUSH1 0x40 MLOAD RETURNDATASIZE PUSH1 0x1F NOT PUSH1 0x1F DUP3 ADD AND DUP3 ADD DUP1 PUSH1 0x40 MSTORE POP DUP2 ADD SWAP1 PUSH2 0x40C SWAP2 SWAP1 PUSH2 0xE7A JUMP JUMPDEST LT ISZERO PUSH2 0x44D JUMPI PUSH1 0x40 MLOAD PUSH32 0x8C379A000000000000000000000000000000000000000000000000000000000 DUP2 MSTORE PUSH1 0x4 ADD PUSH2 0x444 SWAP1 PUSH2 0xF15 JUMP JUMPDEST PUSH1 0x40 MLOAD DUP1 SWAP2 SUB SWAP1 REVERT JUMPDEST PUSH1 0x2 PUSH0 SWAP1 SLOAD SWAP1 PUSH2 0x100 EXP SWAP1 DIV PUSH20 0xFFFFFFFFFFFFFFFFFFFFFFFFFFFFFFFFFFFFFFFF AND PUSH20 0xFFFFFFFFFFFFFFFFFFFFFFFFFFFFFFFFFFFFFFFF AND PUSH4 0x23B872DD CALLER PUSH1 0x1 PUSH0 SWAP1 SLOAD SWAP1 PUSH2 0x100 EXP SWAP1 DIV PUSH20 0xFFFFFFFFFFFFFFFFFFFFFFFFFFFFFFFFFFFFFFFF AND DUP6 PUSH1 0x40 MLOAD DUP5 PUSH4 0xFFFFFFFF AND PUSH1 0xE0 SHL DUP2 MSTORE PUSH1 0x4 ADD PUSH2 0x4CC SWAP4 SWAP3 SWAP2 SWAP1 PUSH2 0xF33 JUMP JUMPDEST PUSH1 0x20 PUSH1 0x40 MLOAD DUP1 DUP4 SUB DUP2 PUSH0 DUP8 GAS CALL ISZERO DUP1 ISZERO PUSH2 0x4E8 JUMPI RETURNDATASIZE PUSH0 DUP1 RETURNDATACOPY RETURNDATASIZE PUSH0 REVERT JUMPDEST POP POP POP POP PUSH1 0x40 MLOAD RETURNDATASIZE PUSH1 0x1F NOT PUSH1 0x1F DUP3 ADD AND DUP3 ADD DUP1 PUSH1 0x40 MSTORE POP DUP2 ADD SWAP1 PUSH2 0x50C SWAP2 SWAP1 PUSH2 0xF9D JUMP JUMPDEST PUSH2 0x54B JUMPI PUSH1 0x40 MLOAD PUSH32 0x8C379A000000000000000000000000000000000000000000000000000000000 DUP2 MSTORE PUSH1 0x4 ADD PUSH2 0x542 SWAP1 PUSH2 0x1012 JUMP JUMPDEST PUSH1 0x40 MLOAD DUP1 SWAP2 SUB SWAP1 REVERT JUMPDEST PUSH0 DUP1 SLOAD SWAP1 PUSH2 0x100 EXP SWAP1 DIV PUSH20 0xFFFFFFFFFFFFFFFFFFFFFFFFFFFFFFFFFFFFFFFF AND PUSH20 0xFFFFFFFFFFFFFFFFFFFFFFFFFFFFFFFFFFFFFFFF AND PUSH4 0xA9059CBB CALLER DUP4 PUSH1 0x40 MLOAD DUP4 PUSH4 0xFFFFFFFF AND PUSH1 0xE0 SHL DUP2 MSTORE PUSH1 0x4 ADD PUSH2 0x5A5 SWAP3 SWAP2 SWAP1 PUSH2 0x1030 JUMP JUMPDEST PUSH1 0x20 PUSH1 0x40 MLOAD DUP1 DUP4 SUB DUP2 PUSH0 DUP8 GAS CALL ISZERO DUP1 ISZERO PUSH2 0x5C1 JUMPI RETURNDATASIZE PUSH0 DUP1 RETURNDATACOPY RETURNDATASIZE PUSH0 REVERT JUMPDEST POP POP POP POP PUSH1 0x40 MLOAD RETURNDATASIZE PUSH1 0x1F NOT PUSH1 0x1F DUP3 ADD AND DUP3 ADD DUP1 PUSH1 0x40 MSTORE POP DUP2 ADD SWAP1 PUSH2 0x5E5 SWAP2 SWAP1 PUSH2 0xF9D JUMP JUMPDEST PUSH2 0x624 JUMPI PUSH1 0x40 MLOAD PUSH32 0x8C379A000000000000000000000000000000000000000000000000000000000 DUP2 MSTORE PUSH1 0x4 ADD PUSH2 0x61B SWAP1 PUSH2 0x10A1 JUMP JUMPDEST PUSH1 0x40 MLOAD DUP1 SWAP2 SUB SWAP1 REVERT JUMPDEST CALLER PUSH20 0xFFFFFFFFFFFFFFFFFFFFFFFFFFFFFFFFFFFFFFFF AND PUSH32 0x9FFC61F9A5071474FC516DD5798D66EF34A007DA20386052B5351504C0250CFE DUP3 PUSH1 0x40 MLOAD PUSH2 0x66A SWAP2 SWAP1 PUSH2 0x1109 JUMP JUMPDEST PUSH1 0x40 MLOAD DUP1 SWAP2 SUB SWAP1 LOG2 POP POP POP POP JUMP JUMPDEST PUSH20 0x55585E22CCD9CC2B4563BA44E8A57867464B6250 PUSH1 0x1 PUSH0 PUSH2 0x100 EXP DUP2 SLOAD DUP2 PUSH20 0xFFFFFFFFFFFFFFFFFFFFFFFFFFFFFFFFFFFFFFFF MUL NOT AND SWAP1 DUP4 PUSH20 0xFFFFFFFFFFFFFFFFFFFFFFFFFFFFFFFFFFFFFFFF AND MUL OR SWAP1 SSTORE POP DUP3 PUSH0 DUP1 PUSH2 0x100 EXP DUP2 SLOAD DUP2 PUSH20 0xFFFFFFFFFFFFFFFFFFFFFFFFFFFFFFFFFFFFFFFF MUL NOT AND SWAP1 DUP4 PUSH20 0xFFFFFFFFFFFFFFFFFFFFFFFFFFFFFFFFFFFFFFFF AND MUL OR SWAP1 SSTORE POP DUP2 PUSH1 0x4 PUSH0 PUSH2 0x100 EXP DUP2 SLOAD DUP2 PUSH20 0xFFFFFFFFFFFFFFFFFFFFFFFFFFFFFFFFFFFFFFFF MUL NOT AND SWAP1 DUP4 PUSH20 0xFFFFFFFFFFFFFFFFFFFFFFFFFFFFFFFFFFFFFFFF AND MUL OR SWAP1 SSTORE POP PUSH0 DUP2 GT PUSH2 0x78D JUMPI PUSH1 0x40 MLOAD PUSH32 0x8C379A000000000000000000000000000000000000000000000000000000000 DUP2 MSTORE PUSH1 0x4 ADD PUSH2 0x784 SWAP1 PUSH2 0xD7D JUMP JUMPDEST PUSH1 0x40 MLOAD DUP1 SWAP2 SUB SWAP1 REVERT JUMPDEST PUSH0 PUSH6 0x1BCB4DF1C00 PUSH3 0xF4240 DUP4 PUSH2 0x7A4 SWAP2 SWAP1 PUSH2 0xDC8 JUMP JUMPDEST PUSH2 0x7AE SWAP2 SWAP1 PUSH2 0xE36 JUMP JUMPDEST SWAP1 POP DUP1 PUSH0 DUP1 SLOAD SWAP1 PUSH2 0x100 EXP SWAP1 DIV PUSH20 0xFFFFFFFFFFFFFFFFFFFFFFFFFFFFFFFFFFFFFFFF AND PUSH20 0xFFFFFFFFFFFFFFFFFFFFFFFFFFFFFFFFFFFFFFFF AND PUSH4 0x70A08231 ADDRESS PUSH1 0x40 MLOAD DUP3 PUSH4 0xFFFFFFFF AND PUSH1 0xE0 SHL DUP2 MSTORE PUSH1 0x4 ADD PUSH2 0x809 SWAP2 SWAP1 PUSH2 0xCE2 JUMP JUMPDEST PUSH1 0x20 PUSH1 0x40 MLOAD DUP1 DUP4 SUB DUP2 DUP7 GAS STATICCALL ISZERO DUP1 ISZERO PUSH2 0x824 JUMPI RETURNDATASIZE PUSH0 DUP1 RETURNDATACOPY RETURNDATASIZE PUSH0 REVERT JUMPDEST POP POP POP POP PUSH1 0x40 MLOAD RETURNDATASIZE PUSH1 0x1F NOT PUSH1 0x1F DUP3 ADD AND DUP3 ADD DUP1 PUSH1 0x40 MSTORE POP DUP2 ADD SWAP1 PUSH2 0x848 SWAP2 SWAP1 PUSH2 0xE7A JUMP JUMPDEST LT ISZERO PUSH2 0x889 JUMPI PUSH1 0x40 MLOAD PUSH32 0x8C379A000000000000000000000000000000000000000000000000000000000 DUP2 MSTORE PUSH1 0x4 ADD PUSH2 0x880 SWAP1 PUSH2 0xF15 JUMP JUMPDEST PUSH1 0x40 MLOAD DUP1 SWAP2 SUB SWAP1 REVERT JUMPDEST PUSH1 0x4 PUSH0 SWAP1 SLOAD SWAP1 PUSH2 0x100 EXP SWAP1 DIV PUSH20 0xFFFFFFFFFFFFFFFFFFFFFFFFFFFFFFFFFFFFFFFF AND PUSH20 0xFFFFFFFFFFFFFFFFFFFFFFFFFFFFFFFFFFFFFFFF AND PUSH4 0x23B872DD CALLER PUSH1 0x1 PUSH0 SWAP1 SLOAD SWAP1 PUSH2 0x100 EXP SWAP1 DIV PUSH20 0xFFFFFFFFFFFFFFFFFFFFFFFFFFFFFFFFFFFFFFFF AND DUP6 PUSH1 0x40 MLOAD DUP5 PUSH4 0xFFFFFFFF AND PUSH1 0xE0 SHL DUP2 MSTORE PUSH1 0x4 ADD PUSH2 0x908 SWAP4 SWAP3 SWAP2 SWAP1 PUSH2 0xF33 JUMP JUMPDEST PUSH1 0x20 PUSH1 0x40 MLOAD DUP1 DUP4 SUB DUP2 PUSH0 DUP8 GAS CALL ISZERO DUP1 ISZERO PUSH2 0x924 JUMPI RETURNDATASIZE PUSH0 DUP1 RETURNDATACOPY RETURNDATASIZE PUSH0 REVERT JUMPDEST POP POP POP POP PUSH1 0x40 MLOAD RETURNDATASIZE PUSH1 0x1F NOT PUSH1 0x1F DUP3 ADD AND DUP3 ADD DUP1 PUSH1 0x40 MSTORE POP DUP2 ADD SWAP1 PUSH2 0x948 SWAP2 SWAP1 PUSH2 0xF9D JUMP JUMPDEST PUSH2 0x987 JUMPI PUSH1 0x40 MLOAD PUSH32 0x8C379A000000000000000000000000000000000000000000000000000000000 DUP2 MSTORE PUSH1 0x4 ADD PUSH2 0x97E SWAP1 PUSH2 0x1012 JUMP JUMPDEST PUSH1 0x40 MLOAD DUP1 SWAP2 SUB SWAP1 REVERT JUMPDEST PUSH0 DUP1 SLOAD SWAP1 PUSH2 0x100 EXP SWAP1 DIV PUSH20 0xFFFFFFFFFFFFFFFFFFFFFFFFFFFFFFFFFFFFFFFF AND PUSH20 0xFFFFFFFFFFFFFFFFFFFFFFFFFFFFFFFFFFFFFFFF AND PUSH4 0xA9059CBB CALLER DUP4 PUSH1 0x40 MLOAD DUP4 PUSH4 0xFFFFFFFF AND PUSH1 0xE0 SHL DUP2 MSTORE PUSH1 0x4 ADD PUSH2 0x9E1 SWAP3 SWAP2 SWAP1 PUSH2 0x1030 JUMP JUMPDEST PUSH1 0x20 PUSH1 0x40 MLOAD DUP1 DUP4 SUB DUP2 PUSH0 DUP8 GAS CALL ISZERO DUP1 ISZERO PUSH2 0x9FD JUMPI RETURNDATASIZE PUSH0 DUP1 RETURNDATACOPY RETURNDATASIZE PUSH0 REVERT JUMPDEST POP POP POP POP PUSH1 0x40 MLOAD RETURNDATASIZE PUSH1 0x1F NOT PUSH1 0x1F DUP3 ADD AND DUP3 ADD DUP1 PUSH1 0x40 MSTORE POP DUP2 ADD SWAP1 PUSH2 0xA21 SWAP2 SWAP1 PUSH2 0xF9D JUMP JUMPDEST PUSH2 0xA60 JUMPI PUSH1 0x40 MLOAD PUSH32 0x8C379A000000000000000000000000000000000000000000000000000000000 DUP2 MSTORE PUSH1 0x4 ADD PUSH2 0xA57 SWAP1 PUSH2 0x10A1 JUMP JUMPDEST PUSH1 0x40 MLOAD DUP1 SWAP2 SUB SWAP1 REVERT JUMPDEST CALLER PUSH20 0xFFFFFFFFFFFFFFFFFFFFFFFFFFFFFFFFFFFFFFFF AND PUSH32 0x9FFC61F9A5071474FC516DD5798D66EF34A007DA20386052B5351504C0250CFE DUP3 PUSH1 0x40 MLOAD PUSH2 0xAA6 SWAP2 SWAP1 PUSH2 0x1109 JUMP JUMPDEST PUSH1 0x40 MLOAD DUP1 SWAP2 SUB SWAP1 LOG2 POP POP POP POP JUMP JUMPDEST PUSH1 0x5 PUSH0 SWAP1 SLOAD SWAP1 PUSH2 0x100 EXP SWAP1 DIV PUSH20 0xFFFFFFFFFFFFFFFFFFFFFFFFFFFFFFFFFFFFFFFF AND DUP2 JUMP JUMPDEST PUSH6 0x1BCB4DF1C00 DUP2 JUMP JUMPDEST PUSH3 0x6F63A0 DUP2 JUMP JUMPDEST PUSH1 0x2 PUSH0 SWAP1 SLOAD SWAP1 PUSH2 0x100 EXP SWAP1 DIV PUSH20 0xFFFFFFFFFFFFFFFFFFFFFFFFFFFFFFFFFFFFFFFF AND DUP2 JUMP JUMPDEST PUSH1 0x4 PUSH0 SWAP1 SLOAD SWAP1 PUSH2 0x100 EXP SWAP1 DIV PUSH20 0xFFFFFFFFFFFFFFFFFFFFFFFFFFFFFFFFFFFFFFFF AND DUP2 JUMP JUMPDEST PUSH1 0x1 PUSH0 SWAP1 SLOAD SWAP1 PUSH2 0x100 EXP SWAP1 DIV PUSH20 0xFFFFFFFFFFFFFFFFFFFFFFFFFFFFFFFFFFFFFFFF AND DUP2 JUMP JUMPDEST PUSH1 0x3 PUSH0 SWAP1 SLOAD SWAP1 PUSH2 0x100 EXP SWAP1 DIV PUSH20 0xFFFFFFFFFFFFFFFFFFFFFFFFFFFFFFFFFFFFFFFF AND DUP2 JUMP JUMPDEST PUSH0 PUSH20 0xFFFFFFFFFFFFFFFFFFFFFFFFFFFFFFFFFFFFFFFF DUP3 AND SWAP1 POP SWAP2 SWAP1 POP JUMP JUMPDEST PUSH0 DUP2 SWAP1 POP SWAP2 SWAP1 POP JUMP JUMPDEST PUSH0 PUSH2 0xBC0 PUSH2 0xBBB PUSH2 0xBB6 DUP5 PUSH2 0xB7E JUMP JUMPDEST PUSH2 0xB9D JUMP JUMPDEST PUSH2 0xB7E JUMP JUMPDEST SWAP1 POP SWAP2 SWAP1 POP JUMP JUMPDEST PUSH0 PUSH2 0xBD1 DUP3 PUSH2 0xBA6 JUMP JUMPDEST SWAP1 POP SWAP2 SWAP1 POP JUMP JUMPDEST PUSH0 PUSH2 0xBE2 DUP3 PUSH2 0xBC7 JUMP JUMPDEST SWAP1 POP SWAP2 SWAP1 POP JUMP JUMPDEST PUSH2 0xBF2 DUP2 PUSH2 0xBD8 JUMP JUMPDEST DUP3 MSTORE POP POP JUMP JUMPDEST PUSH0 PUSH1 0x20 DUP3 ADD SWAP1 POP PUSH2 0xC0B PUSH0 DUP4 ADD DUP5 PUSH2 0xBE9 JUMP JUMPDEST SWAP3 SWAP2 POP POP JUMP JUMPDEST PUSH0 DUP1 REVERT JUMPDEST PUSH0 PUSH2 0xC1F DUP3 PUSH2 0xB7E JUMP JUMPDEST SWAP1 POP SWAP2 SWAP1 POP JUMP JUMPDEST PUSH2 0xC2F DUP2 PUSH2 0xC15 JUMP JUMPDEST DUP2 EQ PUSH2 0xC39 JUMPI PUSH0 DUP1 REVERT JUMPDEST POP JUMP JUMPDEST PUSH0 DUP2 CALLDATALOAD SWAP1 POP PUSH2 0xC4A DUP2 PUSH2 0xC26 JUMP JUMPDEST SWAP3 SWAP2 POP POP JUMP JUMPDEST PUSH0 DUP2 SWAP1 POP SWAP2 SWAP1 POP JUMP JUMPDEST PUSH2 0xC62 DUP2 PUSH2 0xC50 JUMP JUMPDEST DUP2 EQ PUSH2 0xC6C JUMPI PUSH0 DUP1 REVERT JUMPDEST POP JUMP JUMPDEST PUSH0 DUP2 CALLDATALOAD SWAP1 POP PUSH2 0xC7D DUP2 PUSH2 0xC59 JUMP JUMPDEST SWAP3 SWAP2 POP POP JUMP JUMPDEST PUSH0 DUP1 PUSH0 PUSH1 0x60 DUP5 DUP7 SUB SLT ISZERO PUSH2 0xC9A JUMPI PUSH2 0xC99 PUSH2 0xC11 JUMP JUMPDEST JUMPDEST PUSH0 PUSH2 0xCA7 DUP7 DUP3 DUP8 ADD PUSH2 0xC3C JUMP JUMPDEST SWAP4 POP POP PUSH1 0x20 PUSH2 0xCB8 DUP7 DUP3 DUP8 ADD PUSH2 0xC3C JUMP JUMPDEST SWAP3 POP POP PUSH1 0x40 PUSH2 0xCC9 DUP7 DUP3 DUP8 ADD PUSH2 0xC6F JUMP JUMPDEST SWAP2 POP POP SWAP3 POP SWAP3 POP SWAP3 JUMP JUMPDEST PUSH2 0xCDC DUP2 PUSH2 0xC15 JUMP JUMPDEST DUP3 MSTORE POP POP JUMP JUMPDEST PUSH0 PUSH1 0x20 DUP3 ADD SWAP1 POP PUSH2 0xCF5 PUSH0 DUP4 ADD DUP5 PUSH2 0xCD3 JUMP JUMPDEST SWAP3 SWAP2 POP POP JUMP JUMPDEST PUSH2 0xD04 DUP2 PUSH2 0xC50 JUMP JUMPDEST DUP3 MSTORE POP POP JUMP JUMPDEST PUSH0 PUSH1 0x20 DUP3 ADD SWAP1 POP PUSH2 0xD1D PUSH0 DUP4 ADD DUP5 PUSH2 0xCFB JUMP JUMPDEST SWAP3 SWAP2 POP POP JUMP JUMPDEST PUSH0 DUP3 DUP3 MSTORE PUSH1 0x20 DUP3 ADD SWAP1 POP SWAP3 SWAP2 POP POP JUMP JUMPDEST PUSH32 0x416D6F756E74206D7573742062652067726561746572207468616E207A65726F PUSH0 DUP3 ADD MSTORE POP JUMP JUMPDEST PUSH0 PUSH2 0xD67 PUSH1 0x20 DUP4 PUSH2 0xD23 JUMP JUMPDEST SWAP2 POP PUSH2 0xD72 DUP3 PUSH2 0xD33 JUMP JUMPDEST PUSH1 0x20 DUP3 ADD SWAP1 POP SWAP2 SWAP1 POP JUMP JUMPDEST PUSH0 PUSH1 0x20 DUP3 ADD SWAP1 POP DUP2 DUP2 SUB PUSH0 DUP4 ADD MSTORE PUSH2 0xD94 DUP2 PUSH2 0xD5B JUMP JUMPDEST SWAP1 POP SWAP2 SWAP1 POP JUMP JUMPDEST PUSH32 0x4E487B7100000000000000000000000000000000000000000000000000000000 PUSH0 MSTORE PUSH1 0x11 PUSH1 0x4 MSTORE PUSH1 0x24 PUSH0 REVERT JUMPDEST PUSH0 PUSH2 0xDD2 DUP3 PUSH2 0xC50 JUMP JUMPDEST SWAP2 POP PUSH2 0xDDD DUP4 PUSH2 0xC50 JUMP JUMPDEST SWAP3 POP DUP3 DUP3 MUL PUSH2 0xDEB DUP2 PUSH2 0xC50 JUMP JUMPDEST SWAP2 POP DUP3 DUP3 DIV DUP5 EQ DUP4 ISZERO OR PUSH2 0xE02 JUMPI PUSH2 0xE01 PUSH2 0xD9B JUMP JUMPDEST JUMPDEST POP SWAP3 SWAP2 POP POP JUMP JUMPDEST PUSH32 0x4E487B7100000000000000000000000000000000000000000000000000000000 PUSH0 MSTORE PUSH1 0x12 PUSH1 0x4 MSTORE PUSH1 0x24 PUSH0 REVERT JUMPDEST PUSH0 PUSH2 0xE40 DUP3 PUSH2 0xC50 JUMP JUMPDEST SWAP2 POP PUSH2 0xE4B DUP4 PUSH2 0xC50 JUMP JUMPDEST SWAP3 POP DUP3 PUSH2 0xE5B JUMPI PUSH2 0xE5A PUSH2 0xE09 JUMP JUMPDEST JUMPDEST DUP3 DUP3 DIV SWAP1 POP SWAP3 SWAP2 POP POP JUMP JUMPDEST PUSH0 DUP2 MLOAD SWAP1 POP PUSH2 0xE74 DUP2 PUSH2 0xC59 JUMP JUMPDEST SWAP3 SWAP2 POP POP JUMP JUMPDEST PUSH0 PUSH1 0x20 DUP3 DUP5 SUB SLT ISZERO PUSH2 0xE8F JUMPI PUSH2 0xE8E PUSH2 0xC11 JUMP JUMPDEST JUMPDEST PUSH0 PUSH2 0xE9C DUP5 DUP3 DUP6 ADD PUSH2 0xE66 JUMP JUMPDEST SWAP2 POP POP SWAP3 SWAP2 POP POP JUMP JUMPDEST PUSH32 0x4E6F7420656E6F7567682042445420746F6B656E7320696E2074686520636F6E PUSH0 DUP3 ADD MSTORE PUSH32 0x7472616374000000000000000000000000000000000000000000000000000000 PUSH1 0x20 DUP3 ADD MSTORE POP JUMP JUMPDEST PUSH0 PUSH2 0xEFF PUSH1 0x25 DUP4 PUSH2 0xD23 JUMP JUMPDEST SWAP2 POP PUSH2 0xF0A DUP3 PUSH2 0xEA5 JUMP JUMPDEST PUSH1 0x40 DUP3 ADD SWAP1 POP SWAP2 SWAP1 POP JUMP JUMPDEST PUSH0 PUSH1 0x20 DUP3 ADD SWAP1 POP DUP2 DUP2 SUB PUSH0 DUP4 ADD MSTORE PUSH2 0xF2C DUP2 PUSH2 0xEF3 JUMP JUMPDEST SWAP1 POP SWAP2 SWAP1 POP JUMP JUMPDEST PUSH0 PUSH1 0x60 DUP3 ADD SWAP1 POP PUSH2 0xF46 PUSH0 DUP4 ADD DUP7 PUSH2 0xCD3 JUMP JUMPDEST PUSH2 0xF53 PUSH1 0x20 DUP4 ADD DUP6 PUSH2 0xCD3 JUMP JUMPDEST PUSH2 0xF60 PUSH1 0x40 DUP4 ADD DUP5 PUSH2 0xCFB JUMP JUMPDEST SWAP5 SWAP4 POP POP POP POP JUMP JUMPDEST PUSH0 DUP2 ISZERO ISZERO SWAP1 POP SWAP2 SWAP1 POP JUMP JUMPDEST PUSH2 0xF7C DUP2 PUSH2 0xF68 JUMP JUMPDEST DUP2 EQ PUSH2 0xF86 JUMPI PUSH0 DUP1 REVERT JUMPDEST POP JUMP JUMPDEST PUSH0 DUP2 MLOAD SWAP1 POP PUSH2 0xF97 DUP2 PUSH2 0xF73 JUMP JUMPDEST SWAP3 SWAP2 POP POP JUMP JUMPDEST PUSH0 PUSH1 0x20 DUP3 DUP5 SUB SLT ISZERO PUSH2 0xFB2 JUMPI PUSH2 0xFB1 PUSH2 0xC11 JUMP JUMPDEST JUMPDEST PUSH0 PUSH2 0xFBF DUP5 DUP3 DUP6 ADD PUSH2 0xF89 JUMP JUMPDEST SWAP2 POP POP SWAP3 SWAP2 POP POP JUMP JUMPDEST PUSH32 0x55534454207472616E73666572206661696C6564000000000000000000000000 PUSH0 DUP3 ADD MSTORE POP JUMP JUMPDEST PUSH0 PUSH2 0xFFC PUSH1 0x14 DUP4 PUSH2 0xD23 JUMP JUMPDEST SWAP2 POP PUSH2 0x1007 DUP3 PUSH2 0xFC8 JUMP JUMPDEST PUSH1 0x20 DUP3 ADD SWAP1 POP SWAP2 SWAP1 POP JUMP JUMPDEST PUSH0 PUSH1 0x20 DUP3 ADD SWAP1 POP DUP2 DUP2 SUB PUSH0 DUP4 ADD MSTORE PUSH2 0x1029 DUP2 PUSH2 0xFF0 JUMP JUMPDEST SWAP1 POP SWAP2 SWAP1 POP JUMP JUMPDEST PUSH0 PUSH1 0x40 DUP3 ADD SWAP1 POP PUSH2 0x1043 PUSH0 DUP4 ADD DUP6 PUSH2 0xCD3 JUMP JUMPDEST PUSH2 0x1050 PUSH1 0x20 DUP4 ADD DUP5 PUSH2 0xCFB JUMP JUMPDEST SWAP4 SWAP3 POP POP POP JUMP JUMPDEST PUSH32 0x424454207472616E73666572206661696C656400000000000000000000000000 PUSH0 DUP3 ADD MSTORE POP JUMP JUMPDEST PUSH0 PUSH2 0x108B PUSH1 0x13 DUP4 PUSH2 0xD23 JUMP JUMPDEST SWAP2 POP PUSH2 0x1096 DUP3 PUSH2 0x1057 JUMP JUMPDEST PUSH1 0x20 DUP3 ADD SWAP1 POP SWAP2 SWAP1 POP JUMP JUMPDEST PUSH0 PUSH1 0x20 DUP3 ADD SWAP1 POP DUP2 DUP2 SUB PUSH0 DUP4 ADD MSTORE PUSH2 0x10B8 DUP2 PUSH2 0x107F JUMP JUMPDEST SWAP1 POP SWAP2 SWAP1 POP JUMP JUMPDEST PUSH32 0x5553445400000000000000000000000000000000000000000000000000000000 PUSH0 DUP3 ADD MSTORE POP JUMP JUMPDEST PUSH0 PUSH2 0x10F3 PUSH1 0x4 DUP4 PUSH2 0xD23 JUMP JUMPDEST SWAP2 POP PUSH2 0x10FE DUP3 PUSH2 0x10BF JUMP JUMPDEST PUSH1 0x20 DUP3 ADD SWAP1 POP SWAP2 SWAP1 POP JUMP JUMPDEST PUSH0 PUSH1 0x40 DUP3 ADD SWAP1 POP PUSH2 0x111C PUSH0 DUP4 ADD DUP5 PUSH2 0xCFB JUMP JUMPDEST DUP2 DUP2 SUB PUSH1 0x20 DUP4 ADD MSTORE PUSH2 0x112D DUP2 PUSH2 0x10E7 JUMP JUMPDEST SWAP1 POP SWAP3 SWAP2 POP POP JUMP INVALID LOG2 PUSH5 0x6970667358 0x22 SLT KECCAK256 CREATE SGT SGT MSTORE8 PUSH25 0xB5D4BB6A26DE2B89ADC6062DB261038918FCF72FEED8351A85 PUSH29 0xA164736F6C634300081400330000000000000000000000000000000000 "
		},
		"gasEstimates": {
			"creation": {
				"codeDepositCost": "891800",
				"executionCost": "25193",
				"totalCost": "916993"
			},
			"external": {
				"BDT_ETH_RATE()": "414",
				"BDT_USDT_RATE()": "325",
				"_safeBuyWithETH(address,address,uint256)": "infinite",
				"_safeBuyWithUSDT(address,address,uint256)": "infinite",
				"ownerBDT()": "2574",
				"ownerETH()": "2575",
				"ownerUSDT()": "2596",
				"tokenBDT()": "infinite",
				"tokenETH()": "infinite",
				"tokenUSDT()": "infinite"
			}
		},
		"methodIdentifiers": {
			"BDT_ETH_RATE()": "872e9a93",
			"BDT_USDT_RATE()": "91b7ac3e",
			"_safeBuyWithETH(address,address,uint256)": "2c896956",
			"_safeBuyWithUSDT(address,address,uint256)": "2ad5b3bd",
			"ownerBDT()": "e809c9e4",
			"ownerETH()": "72125ca7",
			"ownerUSDT()": "f05ca957",
			"tokenBDT()": "1a855ff0",
			"tokenETH()": "ba50722d",
			"tokenUSDT()": "99c5c8aa"
		}
	},
	"abi": [
		{
			"anonymous": false,
			"inputs": [
				{
					"indexed": true,
					"internalType": "address",
					"name": "buyer",
					"type": "address"
				},
				{
					"indexed": false,
					"internalType": "uint256",
					"name": "amount",
					"type": "uint256"
				},
				{
					"indexed": false,
					"internalType": "string",
					"name": "currency",
					"type": "string"
				}
			],
			"name": "TokensPurchased",
			"type": "event"
		},
		{
			"inputs": [],
			"name": "BDT_ETH_RATE",
			"outputs": [
				{
					"internalType": "uint256",
					"name": "",
					"type": "uint256"
				}
			],
			"stateMutability": "view",
			"type": "function"
		},
		{
			"inputs": [],
			"name": "BDT_USDT_RATE",
			"outputs": [
				{
					"internalType": "uint256",
					"name": "",
					"type": "uint256"
				}
			],
			"stateMutability": "view",
			"type": "function"
		},
		{
			"inputs": [
				{
					"internalType": "address",
					"name": "_tokenBDT",
					"type": "address"
				},
				{
					"internalType": "address",
					"name": "_tokenETH",
					"type": "address"
				},
				{
					"internalType": "uint256",
					"name": "_amountETH",
					"type": "uint256"
				}
			],
			"name": "_safeBuyWithETH",
			"outputs": [],
			"stateMutability": "payable",
			"type": "function"
		},
		{
			"inputs": [
				{
					"internalType": "address",
					"name": "_tokenBDT",
					"type": "address"
				},
				{
					"internalType": "address",
					"name": "_tokenUSDT",
					"type": "address"
				},
				{
					"internalType": "uint256",
					"name": "_amountUSDT",
					"type": "uint256"
				}
			],
			"name": "_safeBuyWithUSDT",
			"outputs": [],
			"stateMutability": "payable",
			"type": "function"
		},
		{
			"inputs": [],
			"name": "ownerBDT",
			"outputs": [
				{
					"internalType": "address",
					"name": "",
					"type": "address"
				}
			],
			"stateMutability": "view",
			"type": "function"
		},
		{
			"inputs": [],
			"name": "ownerETH",
			"outputs": [
				{
					"internalType": "address",
					"name": "",
					"type": "address"
				}
			],
			"stateMutability": "view",
			"type": "function"
		},
		{
			"inputs": [],
			"name": "ownerUSDT",
			"outputs": [
				{
					"internalType": "address",
					"name": "",
					"type": "address"
				}
			],
			"stateMutability": "view",
			"type": "function"
		},
		{
			"inputs": [],
			"name": "tokenBDT",
			"outputs": [
				{
					"internalType": "contract IERC20",
					"name": "",
					"type": "address"
				}
			],
			"stateMutability": "view",
			"type": "function"
		},
		{
			"inputs": [],
			"name": "tokenETH",
			"outputs": [
				{
					"internalType": "contract IERC20",
					"name": "",
					"type": "address"
				}
			],
			"stateMutability": "view",
			"type": "function"
		},
		{
			"inputs": [],
			"name": "tokenUSDT",
			"outputs": [
				{
					"internalType": "contract IERC20",
					"name": "",
					"type": "address"
				}
			],
			"stateMutability": "view",
			"type": "function"
		}
	]
}