{
	"contracts/SimpleStorage.sol": {
		"SimpleStorage": {
			"abi": [
				{
					"inputs": [
						{
							"internalType": "string",
							"name": "_name",
							"type": "string"
						},
						{
							"internalType": "uint256",
							"name": "_favoriteNumber",
							"type": "uint256"
						}
					],
					"name": "addPerson",
					"outputs": [],
					"stateMutability": "nonpayable",
					"type": "function"
				},
				{
					"inputs": [],
					"name": "favoriteNumber",
					"outputs": [
						{
							"internalType": "uint256",
							"name": "",
							"type": "uint256"
						}
					],
					"stateMutability": "view",
					"type": "function"
				},
				{
					"inputs": [
						{
							"internalType": "string",
							"name": "",
							"type": "string"
						}
					],
					"name": "nameToFavoriteNumber",
					"outputs": [
						{
							"internalType": "uint256",
							"name": "",
							"type": "uint256"
						}
					],
					"stateMutability": "view",
					"type": "function"
				},
				{
					"inputs": [
						{
							"internalType": "uint256",
							"name": "",
							"type": "uint256"
						}
					],
					"name": "people",
					"outputs": [
						{
							"internalType": "uint256",
							"name": "favoriteNumber",
							"type": "uint256"
						},
						{
							"internalType": "string",
							"name": "name",
							"type": "string"
						}
					],
					"stateMutability": "view",
					"type": "function"
				},
				{
					"inputs": [],
					"name": "person",
					"outputs": [
						{
							"internalType": "uint256",
							"name": "favoriteNumber",
							"type": "uint256"
						},
						{
							"internalType": "string",
							"name": "name",
							"type": "string"
						}
					],
					"stateMutability": "view",
					"type": "function"
				},
				{
					"inputs": [
						{
							"internalType": "uint256",
							"name": "favoriteNumber1",
							"type": "uint256"
						}
					],
					"name": "retrievePure",
					"outputs": [],
					"stateMutability": "pure",
					"type": "function"
				},
				{
					"inputs": [],
					"name": "retrieveView",
					"outputs": [
						{
							"internalType": "uint256",
							"name": "",
							"type": "uint256"
						}
					],
					"stateMutability": "view",
					"type": "function"
				},
				{
					"inputs": [
						{
							"internalType": "uint256",
							"name": "_favorite",
							"type": "uint256"
						}
					],
					"name": "store",
					"outputs": [],
					"stateMutability": "nonpayable",
					"type": "function"
				}
			],
			"devdoc": {
				"kind": "dev",
				"methods": {},
				"version": 1
			},
			"evm": {
				"assembly": "    /* \"contracts/SimpleStorage.sol\":180:1639  contract SimpleStorage {... */\n  mstore(0x40, 0x80)\n    /* \"contracts/SimpleStorage.sol\":684:728  People({favoriteNumber: 2, name: \"Patrick\"}) */\n  mload(0x40)\n  dup1\n  0x40\n  add\n  0x40\n  mstore\n  dup1\n    /* \"contracts/SimpleStorage.sol\":708:709  2 */\n  0x02\n    /* \"contracts/SimpleStorage.sol\":684:728  People({favoriteNumber: 2, name: \"Patrick\"}) */\n  dup2\n  mstore\n  0x20\n  add\n  mload(0x40)\n  dup1\n  0x40\n  add\n  0x40\n  mstore\n  dup1\n  0x07\n  dup2\n  mstore\n  0x20\n  add\n  0x5061747269636b00000000000000000000000000000000000000000000000000\n  dup2\n  mstore\n  pop\n  dup2\n  mstore\n  pop\n    /* \"contracts/SimpleStorage.sol\":661:728  People public person = People({favoriteNumber: 2, name: \"Patrick\"}) */\n  0x01\n  0x00\n  dup3\n  add\n  mload\n  dup2\n  0x00\n  add\n  sstore\n  0x20\n  dup3\n  add\n  mload\n  dup2\n  0x01\n  add\n  swap1\n  dup2\n  tag_1\n  swap2\n  swap1\n  tag_2\n  jump\t// in\ntag_1:\n  pop\n  pop\n  pop\n    /* \"contracts/SimpleStorage.sol\":180:1639  contract SimpleStorage {... */\n  callvalue\n  dup1\n  iszero\n  tag_3\n  jumpi\n  0x00\n  dup1\n  revert\ntag_3:\n  pop\n  jump(tag_4)\n    /* \"#utility.yul\":7:106   */\ntag_5:\n    /* \"#utility.yul\":59:65   */\n  0x00\n    /* \"#utility.yul\":93:98   */\n  dup2\n    /* \"#utility.yul\":87:99   */\n  mload\n    /* \"#utility.yul\":77:99   */\n  swap1\n  pop\n    /* \"#utility.yul\":7:106   */\n  swap2\n  swap1\n  pop\n  jump\t// out\n    /* \"#utility.yul\":112:292   */\ntag_6:\n    /* \"#utility.yul\":160:237   */\n  0x4e487b7100000000000000000000000000000000000000000000000000000000\n    /* \"#utility.yul\":157:158   */\n  0x00\n    /* \"#utility.yul\":150:238   */\n  mstore\n    /* \"#utility.yul\":257:261   */\n  0x41\n    /* \"#utility.yul\":254:255   */\n  0x04\n    /* \"#utility.yul\":247:262   */\n  mstore\n    /* \"#utility.yul\":281:285   */\n  0x24\n    /* \"#utility.yul\":278:279   */\n  0x00\n    /* \"#utility.yul\":271:286   */\n  revert\n    /* \"#utility.yul\":298:478   */\ntag_7:\n    /* \"#utility.yul\":346:423   */\n  0x4e487b7100000000000000000000000000000000000000000000000000000000\n    /* \"#utility.yul\":343:344   */\n  0x00\n    /* \"#utility.yul\":336:424   */\n  mstore\n    /* \"#utility.yul\":443:447   */\n  0x22\n    /* \"#utility.yul\":440:441   */\n  0x04\n    /* \"#utility.yul\":433:448   */\n  mstore\n    /* \"#utility.yul\":467:471   */\n  0x24\n    /* \"#utility.yul\":464:465   */\n  0x00\n    /* \"#utility.yul\":457:472   */\n  revert\n    /* \"#utility.yul\":484:804   */\ntag_8:\n    /* \"#utility.yul\":528:534   */\n  0x00\n    /* \"#utility.yul\":565:566   */\n  0x02\n    /* \"#utility.yul\":559:563   */\n  dup3\n    /* \"#utility.yul\":555:567   */\n  div\n    /* \"#utility.yul\":545:567   */\n  swap1\n  pop\n    /* \"#utility.yul\":612:613   */\n  0x01\n    /* \"#utility.yul\":606:610   */\n  dup3\n    /* \"#utility.yul\":602:614   */\n  and\n    /* \"#utility.yul\":633:651   */\n  dup1\n    /* \"#utility.yul\":623:704   */\n  tag_30\n  jumpi\n    /* \"#utility.yul\":689:693   */\n  0x7f\n    /* \"#utility.yul\":681:687   */\n  dup3\n    /* \"#utility.yul\":677:694   */\n  and\n    /* \"#utility.yul\":667:694   */\n  swap2\n  pop\n    /* \"#utility.yul\":623:704   */\ntag_30:\n    /* \"#utility.yul\":751:753   */\n  0x20\n    /* \"#utility.yul\":743:749   */\n  dup3\n    /* \"#utility.yul\":740:754   */\n  lt\n    /* \"#utility.yul\":720:738   */\n  dup2\n    /* \"#utility.yul\":717:755   */\n  sub\n    /* \"#utility.yul\":714:798   */\n  tag_31\n  jumpi\n    /* \"#utility.yul\":770:788   */\n  tag_32\n  tag_7\n  jump\t// in\ntag_32:\n    /* \"#utility.yul\":714:798   */\ntag_31:\n    /* \"#utility.yul\":535:804   */\n  pop\n    /* \"#utility.yul\":484:804   */\n  swap2\n  swap1\n  pop\n  jump\t// out\n    /* \"#utility.yul\":810:951   */\ntag_9:\n    /* \"#utility.yul\":859:863   */\n  0x00\n    /* \"#utility.yul\":882:885   */\n  dup2\n    /* \"#utility.yul\":874:885   */\n  swap1\n  pop\n    /* \"#utility.yul\":905:908   */\n  dup2\n    /* \"#utility.yul\":902:903   */\n  0x00\n    /* \"#utility.yul\":895:909   */\n  mstore\n    /* \"#utility.yul\":939:943   */\n  0x20\n    /* \"#utility.yul\":936:937   */\n  0x00\n    /* \"#utility.yul\":926:944   */\n  keccak256\n    /* \"#utility.yul\":918:944   */\n  swap1\n  pop\n    /* \"#utility.yul\":810:951   */\n  swap2\n  swap1\n  pop\n  jump\t// out\n    /* \"#utility.yul\":957:1050   */\ntag_10:\n    /* \"#utility.yul\":994:1000   */\n  0x00\n    /* \"#utility.yul\":1041:1043   */\n  0x20\n    /* \"#utility.yul\":1036:1038   */\n  0x1f\n    /* \"#utility.yul\":1029:1034   */\n  dup4\n    /* \"#utility.yul\":1025:1039   */\n  add\n    /* \"#utility.yul\":1021:1044   */\n  div\n    /* \"#utility.yul\":1011:1044   */\n  swap1\n  pop\n    /* \"#utility.yul\":957:1050   */\n  swap2\n  swap1\n  pop\n  jump\t// out\n    /* \"#utility.yul\":1056:1163   */\ntag_11:\n    /* \"#utility.yul\":1100:1108   */\n  0x00\n    /* \"#utility.yul\":1150:1155   */\n  dup3\n    /* \"#utility.yul\":1144:1148   */\n  dup3\n    /* \"#utility.yul\":1140:1156   */\n  shl\n    /* \"#utility.yul\":1119:1156   */\n  swap1\n  pop\n    /* \"#utility.yul\":1056:1163   */\n  swap3\n  swap2\n  pop\n  pop\n  jump\t// out\n    /* \"#utility.yul\":1169:1562   */\ntag_12:\n    /* \"#utility.yul\":1238:1244   */\n  0x00\n    /* \"#utility.yul\":1288:1289   */\n  0x08\n    /* \"#utility.yul\":1276:1286   */\n  dup4\n    /* \"#utility.yul\":1272:1290   */\n  mul\n    /* \"#utility.yul\":1311:1408   */\n  tag_37\n    /* \"#utility.yul\":1341:1407   */\n  0xffffffffffffffffffffffffffffffffffffffffffffffffffffffffffffffff\n    /* \"#utility.yul\":1330:1339   */\n  dup3\n    /* \"#utility.yul\":1311:1408   */\n  tag_11\n  jump\t// in\ntag_37:\n    /* \"#utility.yul\":1429:1468   */\n  tag_38\n    /* \"#utility.yul\":1459:1467   */\n  dup7\n    /* \"#utility.yul\":1448:1457   */\n  dup4\n    /* \"#utility.yul\":1429:1468   */\n  tag_11\n  jump\t// in\ntag_38:\n    /* \"#utility.yul\":1417:1468   */\n  swap6\n  pop\n    /* \"#utility.yul\":1501:1505   */\n  dup1\n    /* \"#utility.yul\":1497:1506   */\n  not\n    /* \"#utility.yul\":1490:1495   */\n  dup5\n    /* \"#utility.yul\":1486:1507   */\n  and\n    /* \"#utility.yul\":1477:1507   */\n  swap4\n  pop\n    /* \"#utility.yul\":1550:1554   */\n  dup1\n    /* \"#utility.yul\":1540:1548   */\n  dup7\n    /* \"#utility.yul\":1536:1555   */\n  and\n    /* \"#utility.yul\":1529:1534   */\n  dup5\n    /* \"#utility.yul\":1526:1556   */\n  or\n    /* \"#utility.yul\":1516:1556   */\n  swap3\n  pop\n    /* \"#utility.yul\":1245:1562   */\n  pop\n  pop\n    /* \"#utility.yul\":1169:1562   */\n  swap4\n  swap3\n  pop\n  pop\n  pop\n  jump\t// out\n    /* \"#utility.yul\":1568:1645   */\ntag_13:\n    /* \"#utility.yul\":1605:1612   */\n  0x00\n    /* \"#utility.yul\":1634:1639   */\n  dup2\n    /* \"#utility.yul\":1623:1639   */\n  swap1\n  pop\n    /* \"#utility.yul\":1568:1645   */\n  swap2\n  swap1\n  pop\n  jump\t// out\n    /* \"#utility.yul\":1651:1711   */\ntag_14:\n    /* \"#utility.yul\":1679:1682   */\n  0x00\n    /* \"#utility.yul\":1700:1705   */\n  dup2\n    /* \"#utility.yul\":1693:1705   */\n  swap1\n  pop\n    /* \"#utility.yul\":1651:1711   */\n  swap2\n  swap1\n  pop\n  jump\t// out\n    /* \"#utility.yul\":1717:1859   */\ntag_15:\n    /* \"#utility.yul\":1767:1776   */\n  0x00\n    /* \"#utility.yul\":1800:1853   */\n  tag_42\n    /* \"#utility.yul\":1818:1852   */\n  tag_43\n    /* \"#utility.yul\":1827:1851   */\n  tag_44\n    /* \"#utility.yul\":1845:1850   */\n  dup5\n    /* \"#utility.yul\":1827:1851   */\n  tag_13\n  jump\t// in\ntag_44:\n    /* \"#utility.yul\":1818:1852   */\n  tag_14\n  jump\t// in\ntag_43:\n    /* \"#utility.yul\":1800:1853   */\n  tag_13\n  jump\t// in\ntag_42:\n    /* \"#utility.yul\":1787:1853   */\n  swap1\n  pop\n    /* \"#utility.yul\":1717:1859   */\n  swap2\n  swap1\n  pop\n  jump\t// out\n    /* \"#utility.yul\":1865:1940   */\ntag_16:\n    /* \"#utility.yul\":1908:1911   */\n  0x00\n    /* \"#utility.yul\":1929:1934   */\n  dup2\n    /* \"#utility.yul\":1922:1934   */\n  swap1\n  pop\n    /* \"#utility.yul\":1865:1940   */\n  swap2\n  swap1\n  pop\n  jump\t// out\n    /* \"#utility.yul\":1946:2215   */\ntag_17:\n    /* \"#utility.yul\":2056:2095   */\n  tag_47\n    /* \"#utility.yul\":2087:2094   */\n  dup4\n    /* \"#utility.yul\":2056:2095   */\n  tag_15\n  jump\t// in\ntag_47:\n    /* \"#utility.yul\":2117:2208   */\n  tag_48\n    /* \"#utility.yul\":2166:2207   */\n  tag_49\n    /* \"#utility.yul\":2190:2206   */\n  dup3\n    /* \"#utility.yul\":2166:2207   */\n  tag_16\n  jump\t// in\ntag_49:\n    /* \"#utility.yul\":2158:2164   */\n  dup5\n    /* \"#utility.yul\":2151:2155   */\n  dup5\n    /* \"#utility.yul\":2145:2156   */\n  sload\n    /* \"#utility.yul\":2117:2208   */\n  tag_12\n  jump\t// in\ntag_48:\n    /* \"#utility.yul\":2111:2115   */\n  dup3\n    /* \"#utility.yul\":2104:2209   */\n  sstore\n    /* \"#utility.yul\":2022:2215   */\n  pop\n    /* \"#utility.yul\":1946:2215   */\n  pop\n  pop\n  pop\n  jump\t// out\n    /* \"#utility.yul\":2221:2294   */\ntag_18:\n    /* \"#utility.yul\":2266:2269   */\n  0x00\n    /* \"#utility.yul\":2221:2294   */\n  swap1\n  jump\t// out\n    /* \"#utility.yul\":2300:2489   */\ntag_19:\n    /* \"#utility.yul\":2377:2409   */\n  tag_52\n  tag_18\n  jump\t// in\ntag_52:\n    /* \"#utility.yul\":2418:2483   */\n  tag_53\n    /* \"#utility.yul\":2476:2482   */\n  dup2\n    /* \"#utility.yul\":2468:2474   */\n  dup5\n    /* \"#utility.yul\":2462:2466   */\n  dup5\n    /* \"#utility.yul\":2418:2483   */\n  tag_17\n  jump\t// in\ntag_53:\n    /* \"#utility.yul\":2353:2489   */\n  pop\n    /* \"#utility.yul\":2300:2489   */\n  pop\n  pop\n  jump\t// out\n    /* \"#utility.yul\":2495:2681   */\ntag_20:\n    /* \"#utility.yul\":2555:2675   */\ntag_55:\n    /* \"#utility.yul\":2572:2575   */\n  dup2\n    /* \"#utility.yul\":2565:2570   */\n  dup2\n    /* \"#utility.yul\":2562:2576   */\n  lt\n    /* \"#utility.yul\":2555:2675   */\n  iszero\n  tag_57\n  jumpi\n    /* \"#utility.yul\":2626:2665   */\n  tag_58\n    /* \"#utility.yul\":2663:2664   */\n  0x00\n    /* \"#utility.yul\":2656:2661   */\n  dup3\n    /* \"#utility.yul\":2626:2665   */\n  tag_19\n  jump\t// in\ntag_58:\n    /* \"#utility.yul\":2599:2600   */\n  0x01\n    /* \"#utility.yul\":2592:2597   */\n  dup2\n    /* \"#utility.yul\":2588:2601   */\n  add\n    /* \"#utility.yul\":2579:2601   */\n  swap1\n  pop\n    /* \"#utility.yul\":2555:2675   */\n  jump(tag_55)\ntag_57:\n    /* \"#utility.yul\":2495:2681   */\n  pop\n  pop\n  jump\t// out\n    /* \"#utility.yul\":2687:3230   */\ntag_21:\n    /* \"#utility.yul\":2788:2790   */\n  0x1f\n    /* \"#utility.yul\":2783:2786   */\n  dup3\n    /* \"#utility.yul\":2780:2791   */\n  gt\n    /* \"#utility.yul\":2777:3223   */\n  iszero\n  tag_60\n  jumpi\n    /* \"#utility.yul\":2822:2860   */\n  tag_61\n    /* \"#utility.yul\":2854:2859   */\n  dup2\n    /* \"#utility.yul\":2822:2860   */\n  tag_9\n  jump\t// in\ntag_61:\n    /* \"#utility.yul\":2906:2935   */\n  tag_62\n    /* \"#utility.yul\":2924:2934   */\n  dup5\n    /* \"#utility.yul\":2906:2935   */\n  tag_10\n  jump\t// in\ntag_62:\n    /* \"#utility.yul\":2896:2904   */\n  dup2\n    /* \"#utility.yul\":2892:2936   */\n  add\n    /* \"#utility.yul\":3089:3091   */\n  0x20\n    /* \"#utility.yul\":3077:3087   */\n  dup6\n    /* \"#utility.yul\":3074:3092   */\n  lt\n    /* \"#utility.yul\":3071:3120   */\n  iszero\n  tag_63\n  jumpi\n    /* \"#utility.yul\":3110:3118   */\n  dup2\n    /* \"#utility.yul\":3095:3118   */\n  swap1\n  pop\n    /* \"#utility.yul\":3071:3120   */\ntag_63:\n    /* \"#utility.yul\":3133:3213   */\n  tag_64\n    /* \"#utility.yul\":3189:3211   */\n  tag_65\n    /* \"#utility.yul\":3207:3210   */\n  dup6\n    /* \"#utility.yul\":3189:3211   */\n  tag_10\n  jump\t// in\ntag_65:\n    /* \"#utility.yul\":3179:3187   */\n  dup4\n    /* \"#utility.yul\":3175:3212   */\n  add\n    /* \"#utility.yul\":3162:3173   */\n  dup3\n    /* \"#utility.yul\":3133:3213   */\n  tag_20\n  jump\t// in\ntag_64:\n    /* \"#utility.yul\":2792:3223   */\n  pop\n  pop\n    /* \"#utility.yul\":2777:3223   */\ntag_60:\n    /* \"#utility.yul\":2687:3230   */\n  pop\n  pop\n  pop\n  jump\t// out\n    /* \"#utility.yul\":3236:3353   */\ntag_22:\n    /* \"#utility.yul\":3290:3298   */\n  0x00\n    /* \"#utility.yul\":3340:3345   */\n  dup3\n    /* \"#utility.yul\":3334:3338   */\n  dup3\n    /* \"#utility.yul\":3330:3346   */\n  shr\n    /* \"#utility.yul\":3309:3346   */\n  swap1\n  pop\n    /* \"#utility.yul\":3236:3353   */\n  swap3\n  swap2\n  pop\n  pop\n  jump\t// out\n    /* \"#utility.yul\":3359:3528   */\ntag_23:\n    /* \"#utility.yul\":3403:3409   */\n  0x00\n    /* \"#utility.yul\":3436:3487   */\n  tag_68\n    /* \"#utility.yul\":3484:3485   */\n  0x00\n    /* \"#utility.yul\":3480:3486   */\n  not\n    /* \"#utility.yul\":3472:3477   */\n  dup5\n    /* \"#utility.yul\":3469:3470   */\n  0x08\n    /* \"#utility.yul\":3465:3478   */\n  mul\n    /* \"#utility.yul\":3436:3487   */\n  tag_22\n  jump\t// in\ntag_68:\n    /* \"#utility.yul\":3432:3488   */\n  not\n    /* \"#utility.yul\":3517:3521   */\n  dup1\n    /* \"#utility.yul\":3511:3515   */\n  dup4\n    /* \"#utility.yul\":3507:3522   */\n  and\n    /* \"#utility.yul\":3497:3522   */\n  swap2\n  pop\n    /* \"#utility.yul\":3410:3528   */\n  pop\n    /* \"#utility.yul\":3359:3528   */\n  swap3\n  swap2\n  pop\n  pop\n  jump\t// out\n    /* \"#utility.yul\":3533:3828   */\ntag_24:\n    /* \"#utility.yul\":3609:3613   */\n  0x00\n    /* \"#utility.yul\":3755:3784   */\n  tag_70\n    /* \"#utility.yul\":3780:3783   */\n  dup4\n    /* \"#utility.yul\":3774:3778   */\n  dup4\n    /* \"#utility.yul\":3755:3784   */\n  tag_23\n  jump\t// in\ntag_70:\n    /* \"#utility.yul\":3747:3784   */\n  swap2\n  pop\n    /* \"#utility.yul\":3817:3820   */\n  dup3\n    /* \"#utility.yul\":3814:3815   */\n  0x02\n    /* \"#utility.yul\":3810:3821   */\n  mul\n    /* \"#utility.yul\":3804:3808   */\n  dup3\n    /* \"#utility.yul\":3801:3822   */\n  or\n    /* \"#utility.yul\":3793:3822   */\n  swap1\n  pop\n    /* \"#utility.yul\":3533:3828   */\n  swap3\n  swap2\n  pop\n  pop\n  jump\t// out\n    /* \"#utility.yul\":3833:5228   */\ntag_2:\n    /* \"#utility.yul\":3950:3987   */\n  tag_72\n    /* \"#utility.yul\":3983:3986   */\n  dup3\n    /* \"#utility.yul\":3950:3987   */\n  tag_5\n  jump\t// in\ntag_72:\n    /* \"#utility.yul\":4052:4070   */\n  0xffffffffffffffff\n    /* \"#utility.yul\":4044:4050   */\n  dup2\n    /* \"#utility.yul\":4041:4071   */\n  gt\n    /* \"#utility.yul\":4038:4094   */\n  iszero\n  tag_73\n  jumpi\n    /* \"#utility.yul\":4074:4092   */\n  tag_74\n  tag_6\n  jump\t// in\ntag_74:\n    /* \"#utility.yul\":4038:4094   */\ntag_73:\n    /* \"#utility.yul\":4118:4156   */\n  tag_75\n    /* \"#utility.yul\":4150:4154   */\n  dup3\n    /* \"#utility.yul\":4144:4155   */\n  sload\n    /* \"#utility.yul\":4118:4156   */\n  tag_8\n  jump\t// in\ntag_75:\n    /* \"#utility.yul\":4203:4270   */\n  tag_76\n    /* \"#utility.yul\":4263:4269   */\n  dup3\n    /* \"#utility.yul\":4255:4261   */\n  dup3\n    /* \"#utility.yul\":4249:4253   */\n  dup6\n    /* \"#utility.yul\":4203:4270   */\n  tag_21\n  jump\t// in\ntag_76:\n    /* \"#utility.yul\":4297:4298   */\n  0x00\n    /* \"#utility.yul\":4321:4325   */\n  0x20\n    /* \"#utility.yul\":4308:4325   */\n  swap1\n  pop\n    /* \"#utility.yul\":4353:4355   */\n  0x1f\n    /* \"#utility.yul\":4345:4351   */\n  dup4\n    /* \"#utility.yul\":4342:4356   */\n  gt\n    /* \"#utility.yul\":4370:4371   */\n  0x01\n    /* \"#utility.yul\":4365:4983   */\n  dup2\n  eq\n  tag_78\n  jumpi\n    /* \"#utility.yul\":5027:5028   */\n  0x00\n    /* \"#utility.yul\":5044:5050   */\n  dup5\n    /* \"#utility.yul\":5041:5118   */\n  iszero\n  tag_79\n  jumpi\n    /* \"#utility.yul\":5093:5102   */\n  dup3\n    /* \"#utility.yul\":5088:5091   */\n  dup8\n    /* \"#utility.yul\":5084:5103   */\n  add\n    /* \"#utility.yul\":5078:5104   */\n  mload\n    /* \"#utility.yul\":5069:5104   */\n  swap1\n  pop\n    /* \"#utility.yul\":5041:5118   */\ntag_79:\n    /* \"#utility.yul\":5144:5211   */\n  tag_80\n    /* \"#utility.yul\":5204:5210   */\n  dup6\n    /* \"#utility.yul\":5197:5202   */\n  dup3\n    /* \"#utility.yul\":5144:5211   */\n  tag_24\n  jump\t// in\ntag_80:\n    /* \"#utility.yul\":5138:5142   */\n  dup7\n    /* \"#utility.yul\":5131:5212   */\n  sstore\n    /* \"#utility.yul\":5000:5222   */\n  pop\n    /* \"#utility.yul\":4335:5222   */\n  jump(tag_77)\n    /* \"#utility.yul\":4365:4983   */\ntag_78:\n    /* \"#utility.yul\":4417:4421   */\n  0x1f\n    /* \"#utility.yul\":4413:4422   */\n  not\n    /* \"#utility.yul\":4405:4411   */\n  dup5\n    /* \"#utility.yul\":4401:4423   */\n  and\n    /* \"#utility.yul\":4451:4488   */\n  tag_81\n    /* \"#utility.yul\":4483:4487   */\n  dup7\n    /* \"#utility.yul\":4451:4488   */\n  tag_9\n  jump\t// in\ntag_81:\n    /* \"#utility.yul\":4510:4511   */\n  0x00\n    /* \"#utility.yul\":4524:4732   */\ntag_82:\n    /* \"#utility.yul\":4538:4545   */\n  dup3\n    /* \"#utility.yul\":4535:4536   */\n  dup2\n    /* \"#utility.yul\":4532:4546   */\n  lt\n    /* \"#utility.yul\":4524:4732   */\n  iszero\n  tag_84\n  jumpi\n    /* \"#utility.yul\":4617:4626   */\n  dup5\n    /* \"#utility.yul\":4612:4615   */\n  dup10\n    /* \"#utility.yul\":4608:4627   */\n  add\n    /* \"#utility.yul\":4602:4628   */\n  mload\n    /* \"#utility.yul\":4594:4600   */\n  dup3\n    /* \"#utility.yul\":4587:4629   */\n  sstore\n    /* \"#utility.yul\":4668:4669   */\n  0x01\n    /* \"#utility.yul\":4660:4666   */\n  dup3\n    /* \"#utility.yul\":4656:4670   */\n  add\n    /* \"#utility.yul\":4646:4670   */\n  swap2\n  pop\n    /* \"#utility.yul\":4715:4717   */\n  0x20\n    /* \"#utility.yul\":4704:4713   */\n  dup6\n    /* \"#utility.yul\":4700:4718   */\n  add\n    /* \"#utility.yul\":4687:4718   */\n  swap5\n  pop\n    /* \"#utility.yul\":4561:4565   */\n  0x20\n    /* \"#utility.yul\":4558:4559   */\n  dup2\n    /* \"#utility.yul\":4554:4566   */\n  add\n    /* \"#utility.yul\":4549:4566   */\n  swap1\n  pop\n    /* \"#utility.yul\":4524:4732   */\n  jump(tag_82)\ntag_84:\n    /* \"#utility.yul\":4760:4766   */\n  dup7\n    /* \"#utility.yul\":4751:4758   */\n  dup4\n    /* \"#utility.yul\":4748:4767   */\n  lt\n    /* \"#utility.yul\":4745:4924   */\n  iszero\n  tag_85\n  jumpi\n    /* \"#utility.yul\":4818:4827   */\n  dup5\n    /* \"#utility.yul\":4813:4816   */\n  dup10\n    /* \"#utility.yul\":4809:4828   */\n  add\n    /* \"#utility.yul\":4803:4829   */\n  mload\n    /* \"#utility.yul\":4861:4909   */\n  tag_86\n    /* \"#utility.yul\":4903:4907   */\n  0x1f\n    /* \"#utility.yul\":4895:4901   */\n  dup10\n    /* \"#utility.yul\":4891:4908   */\n  and\n    /* \"#utility.yul\":4880:4889   */\n  dup3\n    /* \"#utility.yul\":4861:4909   */\n  tag_23\n  jump\t// in\ntag_86:\n    /* \"#utility.yul\":4853:4859   */\n  dup4\n    /* \"#utility.yul\":4846:4910   */\n  sstore\n    /* \"#utility.yul\":4768:4924   */\n  pop\n    /* \"#utility.yul\":4745:4924   */\ntag_85:\n    /* \"#utility.yul\":4970:4971   */\n  0x01\n    /* \"#utility.yul\":4966:4967   */\n  0x02\n    /* \"#utility.yul\":4958:4964   */\n  dup9\n    /* \"#utility.yul\":4954:4968   */\n  mul\n    /* \"#utility.yul\":4950:4972   */\n  add\n    /* \"#utility.yul\":4944:4948   */\n  dup9\n    /* \"#utility.yul\":4937:4973   */\n  sstore\n    /* \"#utility.yul\":4372:4983   */\n  pop\n  pop\n  pop\n    /* \"#utility.yul\":4335:5222   */\ntag_77:\n  pop\n    /* \"#utility.yul\":3925:5228   */\n  pop\n  pop\n  pop\n    /* \"#utility.yul\":3833:5228   */\n  pop\n  pop\n  jump\t// out\n    /* \"contracts/SimpleStorage.sol\":180:1639  contract SimpleStorage {... */\ntag_4:\n  dataSize(sub_0)\n  dup1\n  dataOffset(sub_0)\n  0x00\n  codecopy\n  0x00\n  return\nstop\n\nsub_0: assembly {\n        /* \"contracts/SimpleStorage.sol\":180:1639  contract SimpleStorage {... */\n      mstore(0x40, 0x80)\n      callvalue\n      dup1\n      iszero\n      tag_1\n      jumpi\n      0x00\n      dup1\n      revert\n    tag_1:\n      pop\n      jumpi(tag_2, lt(calldatasize, 0x04))\n      shr(0xe0, calldataload(0x00))\n      dup1\n      0x77ec2b55\n      gt\n      tag_11\n      jumpi\n      dup1\n      0x77ec2b55\n      eq\n      tag_7\n      jumpi\n      dup1\n      0x8bab8dd5\n      eq\n      tag_8\n      jumpi\n      dup1\n      0x9e7a13ad\n      eq\n      tag_9\n      jumpi\n      dup1\n      0xaa62479e\n      eq\n      tag_10\n      jumpi\n      jump(tag_2)\n    tag_11:\n      dup1\n      0x29a22b88\n      eq\n      tag_3\n      jumpi\n      dup1\n      0x471f7cdf\n      eq\n      tag_4\n      jumpi\n      dup1\n      0x6057361d\n      eq\n      tag_5\n      jumpi\n      dup1\n      0x6f760f41\n      eq\n      tag_6\n      jumpi\n    tag_2:\n      0x00\n      dup1\n      revert\n        /* \"contracts/SimpleStorage.sol\":1316:1424  function retrievePure(uint256 favoriteNumber1) public pure{... */\n    tag_3:\n      tag_12\n      0x04\n      dup1\n      calldatasize\n      sub\n      dup2\n      add\n      swap1\n      tag_13\n      swap2\n      swap1\n      tag_14\n      jump\t// in\n    tag_13:\n      tag_15\n      jump\t// in\n    tag_12:\n      stop\n        /* \"contracts/SimpleStorage.sol\":476:505  uint256 public favoriteNumber */\n    tag_4:\n      tag_16\n      tag_17\n      jump\t// in\n    tag_16:\n      mload(0x40)\n      tag_18\n      swap2\n      swap1\n      tag_19\n      jump\t// in\n    tag_18:\n      mload(0x40)\n      dup1\n      swap2\n      sub\n      swap1\n      return\n        /* \"contracts/SimpleStorage.sol\":983:1066  function store(uint256 _favorite) public{... */\n    tag_5:\n      tag_20\n      0x04\n      dup1\n      calldatasize\n      sub\n      dup2\n      add\n      swap1\n      tag_21\n      swap2\n      swap1\n      tag_14\n      jump\t// in\n    tag_21:\n      tag_22\n      jump\t// in\n    tag_20:\n      stop\n        /* \"contracts/SimpleStorage.sol\":1430:1637  function addPerson(string memory _name,uint256 _favoriteNumber) public{... */\n    tag_6:\n      tag_23\n      0x04\n      dup1\n      calldatasize\n      sub\n      dup2\n      add\n      swap1\n      tag_24\n      swap2\n      swap1\n      tag_25\n      jump\t// in\n    tag_24:\n      tag_26\n      jump\t// in\n    tag_23:\n      stop\n        /* \"contracts/SimpleStorage.sol\":661:728  People public person = People({favoriteNumber: 2, name: \"Patrick\"}) */\n    tag_7:\n      tag_27\n      tag_28\n      jump\t// in\n    tag_27:\n      mload(0x40)\n      tag_29\n      swap3\n      swap2\n      swap1\n      tag_30\n      jump\t// in\n    tag_29:\n      mload(0x40)\n      dup1\n      swap2\n      sub\n      swap1\n      return\n        /* \"contracts/SimpleStorage.sol\":903:957  mapping(string => uint256) public nameToFavoriteNumber */\n    tag_8:\n      tag_31\n      0x04\n      dup1\n      calldatasize\n      sub\n      dup2\n      add\n      swap1\n      tag_32\n      swap2\n      swap1\n      tag_33\n      jump\t// in\n    tag_32:\n      tag_34\n      jump\t// in\n    tag_31:\n      mload(0x40)\n      tag_35\n      swap2\n      swap1\n      tag_19\n      jump\t// in\n    tag_35:\n      mload(0x40)\n      dup1\n      swap2\n      sub\n      swap1\n      return\n        /* \"contracts/SimpleStorage.sol\":809:832  People [] public people */\n    tag_9:\n      tag_36\n      0x04\n      dup1\n      calldatasize\n      sub\n      dup2\n      add\n      swap1\n      tag_37\n      swap2\n      swap1\n      tag_14\n      jump\t// in\n    tag_37:\n      tag_38\n      jump\t// in\n    tag_36:\n      mload(0x40)\n      tag_39\n      swap3\n      swap2\n      swap1\n      tag_30\n      jump\t// in\n    tag_39:\n      mload(0x40)\n      dup1\n      swap2\n      sub\n      swap1\n      return\n        /* \"contracts/SimpleStorage.sol\":1077:1309  function retrieveView() public view returns(uint256){//PC: return type declaration comes at the end of the function declaration in solidity unlike in other programming languages like java and c++... */\n    tag_10:\n      tag_40\n      tag_41\n      jump\t// in\n    tag_40:\n      mload(0x40)\n      tag_42\n      swap2\n      swap1\n      tag_19\n      jump\t// in\n    tag_42:\n      mload(0x40)\n      dup1\n      swap2\n      sub\n      swap1\n      return\n        /* \"contracts/SimpleStorage.sol\":1316:1424  function retrievePure(uint256 favoriteNumber1) public pure{... */\n    tag_15:\n        /* \"contracts/SimpleStorage.sol\":1402:1417  favoriteNumber1 */\n      dup1\n        /* \"contracts/SimpleStorage.sol\":1384:1399  favoriteNumber1 */\n      dup2\n        /* \"contracts/SimpleStorage.sol\":1384:1417  favoriteNumber1 + favoriteNumber1 */\n      tag_44\n      swap2\n      swap1\n      tag_45\n      jump\t// in\n    tag_44:\n      pop\n        /* \"contracts/SimpleStorage.sol\":1316:1424  function retrievePure(uint256 favoriteNumber1) public pure{... */\n      pop\n      jump\t// out\n        /* \"contracts/SimpleStorage.sol\":476:505  uint256 public favoriteNumber */\n    tag_17:\n      sload(0x00)\n      dup2\n      jump\t// out\n        /* \"contracts/SimpleStorage.sol\":983:1066  function store(uint256 _favorite) public{... */\n    tag_22:\n        /* \"contracts/SimpleStorage.sol\":1050:1059  _favorite */\n      dup1\n        /* \"contracts/SimpleStorage.sol\":1033:1047  favoriteNumber */\n      0x00\n        /* \"contracts/SimpleStorage.sol\":1033:1059  favoriteNumber = _favorite */\n      dup2\n      swap1\n      sstore\n      pop\n        /* \"contracts/SimpleStorage.sol\":983:1066  function store(uint256 _favorite) public{... */\n      pop\n      jump\t// out\n        /* \"contracts/SimpleStorage.sol\":1430:1637  function addPerson(string memory _name,uint256 _favoriteNumber) public{... */\n    tag_26:\n        /* \"contracts/SimpleStorage.sol\":1510:1516  people */\n      0x03\n        /* \"contracts/SimpleStorage.sol\":1522:1574  People({favoriteNumber:_favoriteNumber, name:_name}) */\n      mload(0x40)\n      dup1\n      0x40\n      add\n      0x40\n      mstore\n      dup1\n        /* \"contracts/SimpleStorage.sol\":1545:1560  _favoriteNumber */\n      dup4\n        /* \"contracts/SimpleStorage.sol\":1522:1574  People({favoriteNumber:_favoriteNumber, name:_name}) */\n      dup2\n      mstore\n      0x20\n      add\n        /* \"contracts/SimpleStorage.sol\":1567:1572  _name */\n      dup5\n        /* \"contracts/SimpleStorage.sol\":1522:1574  People({favoriteNumber:_favoriteNumber, name:_name}) */\n      dup2\n      mstore\n      pop\n        /* \"contracts/SimpleStorage.sol\":1510:1575  people.push(People({favoriteNumber:_favoriteNumber, name:_name})) */\n      swap1\n      dup1\n      0x01\n      dup2\n      sload\n      add\n      dup1\n      dup3\n      sstore\n      dup1\n      swap2\n      pop\n      pop\n      0x01\n      swap1\n      sub\n      swap1\n      0x00\n      mstore\n      keccak256(0x00, 0x20)\n      swap1\n      0x02\n      mul\n      add\n      0x00\n      swap1\n      swap2\n      swap1\n      swap2\n      swap1\n      swap2\n      pop\n      0x00\n      dup3\n      add\n      mload\n      dup2\n      0x00\n      add\n      sstore\n      0x20\n      dup3\n      add\n      mload\n      dup2\n      0x01\n      add\n      swap1\n      dup2\n      tag_49\n      swap2\n      swap1\n      tag_50\n      jump\t// in\n    tag_49:\n      pop\n      pop\n      pop\n        /* \"contracts/SimpleStorage.sol\":1615:1630  _favoriteNumber */\n      dup1\n        /* \"contracts/SimpleStorage.sol\":1585:1605  nameToFavoriteNumber */\n      0x04\n        /* \"contracts/SimpleStorage.sol\":1606:1611  _name */\n      dup4\n        /* \"contracts/SimpleStorage.sol\":1585:1612  nameToFavoriteNumber[_name] */\n      mload(0x40)\n      tag_51\n      swap2\n      swap1\n      tag_52\n      jump\t// in\n    tag_51:\n      swap1\n      dup2\n      mstore\n      0x20\n      add\n      mload(0x40)\n      dup1\n      swap2\n      sub\n      swap1\n      keccak256\n        /* \"contracts/SimpleStorage.sol\":1585:1630  nameToFavoriteNumber[_name] = _favoriteNumber */\n      dup2\n      swap1\n      sstore\n      pop\n        /* \"contracts/SimpleStorage.sol\":1430:1637  function addPerson(string memory _name,uint256 _favoriteNumber) public{... */\n      pop\n      pop\n      jump\t// out\n        /* \"contracts/SimpleStorage.sol\":661:728  People public person = People({favoriteNumber: 2, name: \"Patrick\"}) */\n    tag_28:\n      0x01\n      dup1\n      0x00\n      add\n      sload\n      swap1\n      dup1\n      0x01\n      add\n      dup1\n      sload\n      tag_53\n      swap1\n      tag_54\n      jump\t// in\n    tag_53:\n      dup1\n      0x1f\n      add\n      0x20\n      dup1\n      swap2\n      div\n      mul\n      0x20\n      add\n      mload(0x40)\n      swap1\n      dup2\n      add\n      0x40\n      mstore\n      dup1\n      swap3\n      swap2\n      swap1\n      dup2\n      dup2\n      mstore\n      0x20\n      add\n      dup3\n      dup1\n      sload\n      tag_55\n      swap1\n      tag_54\n      jump\t// in\n    tag_55:\n      dup1\n      iszero\n      tag_56\n      jumpi\n      dup1\n      0x1f\n      lt\n      tag_57\n      jumpi\n      0x0100\n      dup1\n      dup4\n      sload\n      div\n      mul\n      dup4\n      mstore\n      swap2\n      0x20\n      add\n      swap2\n      jump(tag_56)\n    tag_57:\n      dup3\n      add\n      swap2\n      swap1\n      0x00\n      mstore\n      keccak256(0x00, 0x20)\n      swap1\n    tag_58:\n      dup2\n      sload\n      dup2\n      mstore\n      swap1\n      0x01\n      add\n      swap1\n      0x20\n      add\n      dup1\n      dup4\n      gt\n      tag_58\n      jumpi\n      dup3\n      swap1\n      sub\n      0x1f\n      and\n      dup3\n      add\n      swap2\n    tag_56:\n      pop\n      pop\n      pop\n      pop\n      pop\n      swap1\n      pop\n      dup3\n      jump\t// out\n        /* \"contracts/SimpleStorage.sol\":903:957  mapping(string => uint256) public nameToFavoriteNumber */\n    tag_34:\n      0x04\n      dup2\n      dup1\n      mload\n      0x20\n      dup2\n      add\n      dup3\n      add\n      dup1\n      mload\n      dup5\n      dup3\n      mstore\n      0x20\n      dup4\n      add\n      0x20\n      dup6\n      add\n      keccak256\n      dup2\n      dup4\n      mstore\n      dup1\n      swap6\n      pop\n      pop\n      pop\n      pop\n      pop\n      pop\n      0x00\n      swap2\n      pop\n      swap1\n      pop\n      sload\n      dup2\n      jump\t// out\n        /* \"contracts/SimpleStorage.sol\":809:832  People [] public people */\n    tag_38:\n      0x03\n      dup2\n      dup2\n      sload\n      dup2\n      lt\n      tag_59\n      jumpi\n      0x00\n      dup1\n      revert\n    tag_59:\n      swap1\n      0x00\n      mstore\n      keccak256(0x00, 0x20)\n      swap1\n      0x02\n      mul\n      add\n      0x00\n      swap2\n      pop\n      swap1\n      pop\n      dup1\n      0x00\n      add\n      sload\n      swap1\n      dup1\n      0x01\n      add\n      dup1\n      sload\n      tag_61\n      swap1\n      tag_54\n      jump\t// in\n    tag_61:\n      dup1\n      0x1f\n      add\n      0x20\n      dup1\n      swap2\n      div\n      mul\n      0x20\n      add\n      mload(0x40)\n      swap1\n      dup2\n      add\n      0x40\n      mstore\n      dup1\n      swap3\n      swap2\n      swap1\n      dup2\n      dup2\n      mstore\n      0x20\n      add\n      dup3\n      dup1\n      sload\n      tag_62\n      swap1\n      tag_54\n      jump\t// in\n    tag_62:\n      dup1\n      iszero\n      tag_63\n      jumpi\n      dup1\n      0x1f\n      lt\n      tag_64\n      jumpi\n      0x0100\n      dup1\n      dup4\n      sload\n      div\n      mul\n      dup4\n      mstore\n      swap2\n      0x20\n      add\n      swap2\n      jump(tag_63)\n    tag_64:\n      dup3\n      add\n      swap2\n      swap1\n      0x00\n      mstore\n      keccak256(0x00, 0x20)\n      swap1\n    tag_65:\n      dup2\n      sload\n      dup2\n      mstore\n      swap1\n      0x01\n      add\n      swap1\n      0x20\n      add\n      dup1\n      dup4\n      gt\n      tag_65\n      jumpi\n      dup3\n      swap1\n      sub\n      0x1f\n      and\n      dup3\n      add\n      swap2\n    tag_63:\n      pop\n      pop\n      pop\n      pop\n      pop\n      swap1\n      pop\n      dup3\n      jump\t// out\n        /* \"contracts/SimpleStorage.sol\":1077:1309  function retrieveView() public view returns(uint256){//PC: return type declaration comes at the end of the function declaration in solidity unlike in other programming languages like java and c++... */\n    tag_41:\n        /* \"contracts/SimpleStorage.sol\":1121:1128  uint256 */\n      0x00\n        /* \"contracts/SimpleStorage.sol\":1288:1302  favoriteNumber */\n      dup1\n      sload\n        /* \"contracts/SimpleStorage.sol\":1281:1302  return favoriteNumber */\n      swap1\n      pop\n        /* \"contracts/SimpleStorage.sol\":1077:1309  function retrieveView() public view returns(uint256){//PC: return type declaration comes at the end of the function declaration in solidity unlike in other programming languages like java and c++... */\n      swap1\n      jump\t// out\n        /* \"#utility.yul\":7:82   */\n    tag_67:\n        /* \"#utility.yul\":40:46   */\n      0x00\n        /* \"#utility.yul\":73:75   */\n      0x40\n        /* \"#utility.yul\":67:76   */\n      mload\n        /* \"#utility.yul\":57:76   */\n      swap1\n      pop\n        /* \"#utility.yul\":7:82   */\n      swap1\n      jump\t// out\n        /* \"#utility.yul\":88:205   */\n    tag_68:\n        /* \"#utility.yul\":197:198   */\n      0x00\n        /* \"#utility.yul\":194:195   */\n      dup1\n        /* \"#utility.yul\":187:199   */\n      revert\n        /* \"#utility.yul\":211:328   */\n    tag_69:\n        /* \"#utility.yul\":320:321   */\n      0x00\n        /* \"#utility.yul\":317:318   */\n      dup1\n        /* \"#utility.yul\":310:322   */\n      revert\n        /* \"#utility.yul\":334:411   */\n    tag_70:\n        /* \"#utility.yul\":371:378   */\n      0x00\n        /* \"#utility.yul\":400:405   */\n      dup2\n        /* \"#utility.yul\":389:405   */\n      swap1\n      pop\n        /* \"#utility.yul\":334:411   */\n      swap2\n      swap1\n      pop\n      jump\t// out\n        /* \"#utility.yul\":417:539   */\n    tag_71:\n        /* \"#utility.yul\":490:514   */\n      tag_113\n        /* \"#utility.yul\":508:513   */\n      dup2\n        /* \"#utility.yul\":490:514   */\n      tag_70\n      jump\t// in\n    tag_113:\n        /* \"#utility.yul\":483:488   */\n      dup2\n        /* \"#utility.yul\":480:515   */\n      eq\n        /* \"#utility.yul\":470:533   */\n      tag_114\n      jumpi\n        /* \"#utility.yul\":529:530   */\n      0x00\n        /* \"#utility.yul\":526:527   */\n      dup1\n        /* \"#utility.yul\":519:531   */\n      revert\n        /* \"#utility.yul\":470:533   */\n    tag_114:\n        /* \"#utility.yul\":417:539   */\n      pop\n      jump\t// out\n        /* \"#utility.yul\":545:684   */\n    tag_72:\n        /* \"#utility.yul\":591:596   */\n      0x00\n        /* \"#utility.yul\":629:635   */\n      dup2\n        /* \"#utility.yul\":616:636   */\n      calldataload\n        /* \"#utility.yul\":607:636   */\n      swap1\n      pop\n        /* \"#utility.yul\":645:678   */\n      tag_116\n        /* \"#utility.yul\":672:677   */\n      dup2\n        /* \"#utility.yul\":645:678   */\n      tag_71\n      jump\t// in\n    tag_116:\n        /* \"#utility.yul\":545:684   */\n      swap3\n      swap2\n      pop\n      pop\n      jump\t// out\n        /* \"#utility.yul\":690:1019   */\n    tag_14:\n        /* \"#utility.yul\":749:755   */\n      0x00\n        /* \"#utility.yul\":798:800   */\n      0x20\n        /* \"#utility.yul\":786:795   */\n      dup3\n        /* \"#utility.yul\":777:784   */\n      dup5\n        /* \"#utility.yul\":773:796   */\n      sub\n        /* \"#utility.yul\":769:801   */\n      slt\n        /* \"#utility.yul\":766:885   */\n      iszero\n      tag_118\n      jumpi\n        /* \"#utility.yul\":804:883   */\n      tag_119\n      tag_68\n      jump\t// in\n    tag_119:\n        /* \"#utility.yul\":766:885   */\n    tag_118:\n        /* \"#utility.yul\":924:925   */\n      0x00\n        /* \"#utility.yul\":949:1002   */\n      tag_120\n        /* \"#utility.yul\":994:1001   */\n      dup5\n        /* \"#utility.yul\":985:991   */\n      dup3\n        /* \"#utility.yul\":974:983   */\n      dup6\n        /* \"#utility.yul\":970:992   */\n      add\n        /* \"#utility.yul\":949:1002   */\n      tag_72\n      jump\t// in\n    tag_120:\n        /* \"#utility.yul\":939:1002   */\n      swap2\n      pop\n        /* \"#utility.yul\":895:1012   */\n      pop\n        /* \"#utility.yul\":690:1019   */\n      swap3\n      swap2\n      pop\n      pop\n      jump\t// out\n        /* \"#utility.yul\":1025:1143   */\n    tag_73:\n        /* \"#utility.yul\":1112:1136   */\n      tag_122\n        /* \"#utility.yul\":1130:1135   */\n      dup2\n        /* \"#utility.yul\":1112:1136   */\n      tag_70\n      jump\t// in\n    tag_122:\n        /* \"#utility.yul\":1107:1110   */\n      dup3\n        /* \"#utility.yul\":1100:1137   */\n      mstore\n        /* \"#utility.yul\":1025:1143   */\n      pop\n      pop\n      jump\t// out\n        /* \"#utility.yul\":1149:1371   */\n    tag_19:\n        /* \"#utility.yul\":1242:1246   */\n      0x00\n        /* \"#utility.yul\":1280:1282   */\n      0x20\n        /* \"#utility.yul\":1269:1278   */\n      dup3\n        /* \"#utility.yul\":1265:1283   */\n      add\n        /* \"#utility.yul\":1257:1283   */\n      swap1\n      pop\n        /* \"#utility.yul\":1293:1364   */\n      tag_124\n        /* \"#utility.yul\":1361:1362   */\n      0x00\n        /* \"#utility.yul\":1350:1359   */\n      dup4\n        /* \"#utility.yul\":1346:1363   */\n      add\n        /* \"#utility.yul\":1337:1343   */\n      dup5\n        /* \"#utility.yul\":1293:1364   */\n      tag_73\n      jump\t// in\n    tag_124:\n        /* \"#utility.yul\":1149:1371   */\n      swap3\n      swap2\n      pop\n      pop\n      jump\t// out\n        /* \"#utility.yul\":1377:1494   */\n    tag_74:\n        /* \"#utility.yul\":1486:1487   */\n      0x00\n        /* \"#utility.yul\":1483:1484   */\n      dup1\n        /* \"#utility.yul\":1476:1488   */\n      revert\n        /* \"#utility.yul\":1500:1617   */\n    tag_75:\n        /* \"#utility.yul\":1609:1610   */\n      0x00\n        /* \"#utility.yul\":1606:1607   */\n      dup1\n        /* \"#utility.yul\":1599:1611   */\n      revert\n        /* \"#utility.yul\":1623:1725   */\n    tag_76:\n        /* \"#utility.yul\":1664:1670   */\n      0x00\n        /* \"#utility.yul\":1715:1717   */\n      0x1f\n        /* \"#utility.yul\":1711:1718   */\n      not\n        /* \"#utility.yul\":1706:1708   */\n      0x1f\n        /* \"#utility.yul\":1699:1704   */\n      dup4\n        /* \"#utility.yul\":1695:1709   */\n      add\n        /* \"#utility.yul\":1691:1719   */\n      and\n        /* \"#utility.yul\":1681:1719   */\n      swap1\n      pop\n        /* \"#utility.yul\":1623:1725   */\n      swap2\n      swap1\n      pop\n      jump\t// out\n        /* \"#utility.yul\":1731:1911   */\n    tag_77:\n        /* \"#utility.yul\":1779:1856   */\n      0x4e487b7100000000000000000000000000000000000000000000000000000000\n        /* \"#utility.yul\":1776:1777   */\n      0x00\n        /* \"#utility.yul\":1769:1857   */\n      mstore\n        /* \"#utility.yul\":1876:1880   */\n      0x41\n        /* \"#utility.yul\":1873:1874   */\n      0x04\n        /* \"#utility.yul\":1866:1881   */\n      mstore\n        /* \"#utility.yul\":1900:1904   */\n      0x24\n        /* \"#utility.yul\":1897:1898   */\n      0x00\n        /* \"#utility.yul\":1890:1905   */\n      revert\n        /* \"#utility.yul\":1917:2198   */\n    tag_78:\n        /* \"#utility.yul\":2000:2027   */\n      tag_130\n        /* \"#utility.yul\":2022:2026   */\n      dup3\n        /* \"#utility.yul\":2000:2027   */\n      tag_76\n      jump\t// in\n    tag_130:\n        /* \"#utility.yul\":1992:1998   */\n      dup2\n        /* \"#utility.yul\":1988:2028   */\n      add\n        /* \"#utility.yul\":2130:2136   */\n      dup2\n        /* \"#utility.yul\":2118:2128   */\n      dup2\n        /* \"#utility.yul\":2115:2137   */\n      lt\n        /* \"#utility.yul\":2094:2112   */\n      0xffffffffffffffff\n        /* \"#utility.yul\":2082:2092   */\n      dup3\n        /* \"#utility.yul\":2079:2113   */\n      gt\n        /* \"#utility.yul\":2076:2138   */\n      or\n        /* \"#utility.yul\":2073:2161   */\n      iszero\n      tag_131\n      jumpi\n        /* \"#utility.yul\":2141:2159   */\n      tag_132\n      tag_77\n      jump\t// in\n    tag_132:\n        /* \"#utility.yul\":2073:2161   */\n    tag_131:\n        /* \"#utility.yul\":2181:2191   */\n      dup1\n        /* \"#utility.yul\":2177:2179   */\n      0x40\n        /* \"#utility.yul\":2170:2192   */\n      mstore\n        /* \"#utility.yul\":1960:2198   */\n      pop\n        /* \"#utility.yul\":1917:2198   */\n      pop\n      pop\n      jump\t// out\n        /* \"#utility.yul\":2204:2333   */\n    tag_79:\n        /* \"#utility.yul\":2238:2244   */\n      0x00\n        /* \"#utility.yul\":2265:2285   */\n      tag_134\n      tag_67\n      jump\t// in\n    tag_134:\n        /* \"#utility.yul\":2255:2285   */\n      swap1\n      pop\n        /* \"#utility.yul\":2294:2327   */\n      tag_135\n        /* \"#utility.yul\":2322:2326   */\n      dup3\n        /* \"#utility.yul\":2314:2320   */\n      dup3\n        /* \"#utility.yul\":2294:2327   */\n      tag_78\n      jump\t// in\n    tag_135:\n        /* \"#utility.yul\":2204:2333   */\n      swap2\n      swap1\n      pop\n      jump\t// out\n        /* \"#utility.yul\":2339:2647   */\n    tag_80:\n        /* \"#utility.yul\":2401:2405   */\n      0x00\n        /* \"#utility.yul\":2491:2509   */\n      0xffffffffffffffff\n        /* \"#utility.yul\":2483:2489   */\n      dup3\n        /* \"#utility.yul\":2480:2510   */\n      gt\n        /* \"#utility.yul\":2477:2533   */\n      iszero\n      tag_137\n      jumpi\n        /* \"#utility.yul\":2513:2531   */\n      tag_138\n      tag_77\n      jump\t// in\n    tag_138:\n        /* \"#utility.yul\":2477:2533   */\n    tag_137:\n        /* \"#utility.yul\":2551:2580   */\n      tag_139\n        /* \"#utility.yul\":2573:2579   */\n      dup3\n        /* \"#utility.yul\":2551:2580   */\n      tag_76\n      jump\t// in\n    tag_139:\n        /* \"#utility.yul\":2543:2580   */\n      swap1\n      pop\n        /* \"#utility.yul\":2635:2639   */\n      0x20\n        /* \"#utility.yul\":2629:2633   */\n      dup2\n        /* \"#utility.yul\":2625:2640   */\n      add\n        /* \"#utility.yul\":2617:2640   */\n      swap1\n      pop\n        /* \"#utility.yul\":2339:2647   */\n      swap2\n      swap1\n      pop\n      jump\t// out\n        /* \"#utility.yul\":2653:2801   */\n    tag_81:\n        /* \"#utility.yul\":2751:2757   */\n      dup3\n        /* \"#utility.yul\":2746:2749   */\n      dup2\n        /* \"#utility.yul\":2741:2744   */\n      dup4\n        /* \"#utility.yul\":2728:2758   */\n      calldatacopy\n        /* \"#utility.yul\":2792:2793   */\n      0x00\n        /* \"#utility.yul\":2783:2789   */\n      dup4\n        /* \"#utility.yul\":2778:2781   */\n      dup4\n        /* \"#utility.yul\":2774:2790   */\n      add\n        /* \"#utility.yul\":2767:2794   */\n      mstore\n        /* \"#utility.yul\":2653:2801   */\n      pop\n      pop\n      pop\n      jump\t// out\n        /* \"#utility.yul\":2807:3232   */\n    tag_82:\n        /* \"#utility.yul\":2885:2890   */\n      0x00\n        /* \"#utility.yul\":2910:2976   */\n      tag_142\n        /* \"#utility.yul\":2926:2975   */\n      tag_143\n        /* \"#utility.yul\":2968:2974   */\n      dup5\n        /* \"#utility.yul\":2926:2975   */\n      tag_80\n      jump\t// in\n    tag_143:\n        /* \"#utility.yul\":2910:2976   */\n      tag_79\n      jump\t// in\n    tag_142:\n        /* \"#utility.yul\":2901:2976   */\n      swap1\n      pop\n        /* \"#utility.yul\":2999:3005   */\n      dup3\n        /* \"#utility.yul\":2992:2997   */\n      dup2\n        /* \"#utility.yul\":2985:3006   */\n      mstore\n        /* \"#utility.yul\":3037:3041   */\n      0x20\n        /* \"#utility.yul\":3030:3035   */\n      dup2\n        /* \"#utility.yul\":3026:3042   */\n      add\n        /* \"#utility.yul\":3075:3078   */\n      dup5\n        /* \"#utility.yul\":3066:3072   */\n      dup5\n        /* \"#utility.yul\":3061:3064   */\n      dup5\n        /* \"#utility.yul\":3057:3073   */\n      add\n        /* \"#utility.yul\":3054:3079   */\n      gt\n        /* \"#utility.yul\":3051:3163   */\n      iszero\n      tag_144\n      jumpi\n        /* \"#utility.yul\":3082:3161   */\n      tag_145\n      tag_75\n      jump\t// in\n    tag_145:\n        /* \"#utility.yul\":3051:3163   */\n    tag_144:\n        /* \"#utility.yul\":3172:3226   */\n      tag_146\n        /* \"#utility.yul\":3219:3225   */\n      dup5\n        /* \"#utility.yul\":3214:3217   */\n      dup3\n        /* \"#utility.yul\":3209:3212   */\n      dup6\n        /* \"#utility.yul\":3172:3226   */\n      tag_81\n      jump\t// in\n    tag_146:\n        /* \"#utility.yul\":2891:3232   */\n      pop\n        /* \"#utility.yul\":2807:3232   */\n      swap4\n      swap3\n      pop\n      pop\n      pop\n      jump\t// out\n        /* \"#utility.yul\":3252:3592   */\n    tag_83:\n        /* \"#utility.yul\":3308:3313   */\n      0x00\n        /* \"#utility.yul\":3357:3360   */\n      dup3\n        /* \"#utility.yul\":3350:3354   */\n      0x1f\n        /* \"#utility.yul\":3342:3348   */\n      dup4\n        /* \"#utility.yul\":3338:3355   */\n      add\n        /* \"#utility.yul\":3334:3361   */\n      slt\n        /* \"#utility.yul\":3324:3446   */\n      tag_148\n      jumpi\n        /* \"#utility.yul\":3365:3444   */\n      tag_149\n      tag_74\n      jump\t// in\n    tag_149:\n        /* \"#utility.yul\":3324:3446   */\n    tag_148:\n        /* \"#utility.yul\":3482:3488   */\n      dup2\n        /* \"#utility.yul\":3469:3489   */\n      calldataload\n        /* \"#utility.yul\":3507:3586   */\n      tag_150\n        /* \"#utility.yul\":3582:3585   */\n      dup5\n        /* \"#utility.yul\":3574:3580   */\n      dup3\n        /* \"#utility.yul\":3567:3571   */\n      0x20\n        /* \"#utility.yul\":3559:3565   */\n      dup7\n        /* \"#utility.yul\":3555:3572   */\n      add\n        /* \"#utility.yul\":3507:3586   */\n      tag_82\n      jump\t// in\n    tag_150:\n        /* \"#utility.yul\":3498:3586   */\n      swap2\n      pop\n        /* \"#utility.yul\":3314:3592   */\n      pop\n        /* \"#utility.yul\":3252:3592   */\n      swap3\n      swap2\n      pop\n      pop\n      jump\t// out\n        /* \"#utility.yul\":3598:4252   */\n    tag_25:\n        /* \"#utility.yul\":3676:3682   */\n      0x00\n        /* \"#utility.yul\":3684:3690   */\n      dup1\n        /* \"#utility.yul\":3733:3735   */\n      0x40\n        /* \"#utility.yul\":3721:3730   */\n      dup4\n        /* \"#utility.yul\":3712:3719   */\n      dup6\n        /* \"#utility.yul\":3708:3731   */\n      sub\n        /* \"#utility.yul\":3704:3736   */\n      slt\n        /* \"#utility.yul\":3701:3820   */\n      iszero\n      tag_152\n      jumpi\n        /* \"#utility.yul\":3739:3818   */\n      tag_153\n      tag_68\n      jump\t// in\n    tag_153:\n        /* \"#utility.yul\":3701:3820   */\n    tag_152:\n        /* \"#utility.yul\":3887:3888   */\n      0x00\n        /* \"#utility.yul\":3876:3885   */\n      dup4\n        /* \"#utility.yul\":3872:3889   */\n      add\n        /* \"#utility.yul\":3859:3890   */\n      calldataload\n        /* \"#utility.yul\":3917:3935   */\n      0xffffffffffffffff\n        /* \"#utility.yul\":3909:3915   */\n      dup2\n        /* \"#utility.yul\":3906:3936   */\n      gt\n        /* \"#utility.yul\":3903:4020   */\n      iszero\n      tag_154\n      jumpi\n        /* \"#utility.yul\":3939:4018   */\n      tag_155\n      tag_69\n      jump\t// in\n    tag_155:\n        /* \"#utility.yul\":3903:4020   */\n    tag_154:\n        /* \"#utility.yul\":4044:4107   */\n      tag_156\n        /* \"#utility.yul\":4099:4106   */\n      dup6\n        /* \"#utility.yul\":4090:4096   */\n      dup3\n        /* \"#utility.yul\":4079:4088   */\n      dup7\n        /* \"#utility.yul\":4075:4097   */\n      add\n        /* \"#utility.yul\":4044:4107   */\n      tag_83\n      jump\t// in\n    tag_156:\n        /* \"#utility.yul\":4034:4107   */\n      swap3\n      pop\n        /* \"#utility.yul\":3830:4117   */\n      pop\n        /* \"#utility.yul\":4156:4158   */\n      0x20\n        /* \"#utility.yul\":4182:4235   */\n      tag_157\n        /* \"#utility.yul\":4227:4234   */\n      dup6\n        /* \"#utility.yul\":4218:4224   */\n      dup3\n        /* \"#utility.yul\":4207:4216   */\n      dup7\n        /* \"#utility.yul\":4203:4225   */\n      add\n        /* \"#utility.yul\":4182:4235   */\n      tag_72\n      jump\t// in\n    tag_157:\n        /* \"#utility.yul\":4172:4235   */\n      swap2\n      pop\n        /* \"#utility.yul\":4127:4245   */\n      pop\n        /* \"#utility.yul\":3598:4252   */\n      swap3\n      pop\n      swap3\n      swap1\n      pop\n      jump\t// out\n        /* \"#utility.yul\":4258:4357   */\n    tag_84:\n        /* \"#utility.yul\":4310:4316   */\n      0x00\n        /* \"#utility.yul\":4344:4349   */\n      dup2\n        /* \"#utility.yul\":4338:4350   */\n      mload\n        /* \"#utility.yul\":4328:4350   */\n      swap1\n      pop\n        /* \"#utility.yul\":4258:4357   */\n      swap2\n      swap1\n      pop\n      jump\t// out\n        /* \"#utility.yul\":4363:4532   */\n    tag_85:\n        /* \"#utility.yul\":4447:4458   */\n      0x00\n        /* \"#utility.yul\":4481:4487   */\n      dup3\n        /* \"#utility.yul\":4476:4479   */\n      dup3\n        /* \"#utility.yul\":4469:4488   */\n      mstore\n        /* \"#utility.yul\":4521:4525   */\n      0x20\n        /* \"#utility.yul\":4516:4519   */\n      dup3\n        /* \"#utility.yul\":4512:4526   */\n      add\n        /* \"#utility.yul\":4497:4526   */\n      swap1\n      pop\n        /* \"#utility.yul\":4363:4532   */\n      swap3\n      swap2\n      pop\n      pop\n      jump\t// out\n        /* \"#utility.yul\":4538:4677   */\n    tag_86:\n        /* \"#utility.yul\":4627:4633   */\n      dup3\n        /* \"#utility.yul\":4622:4625   */\n      dup2\n        /* \"#utility.yul\":4617:4620   */\n      dup4\n        /* \"#utility.yul\":4611:4634   */\n      mcopy\n        /* \"#utility.yul\":4668:4669   */\n      0x00\n        /* \"#utility.yul\":4659:4665   */\n      dup4\n        /* \"#utility.yul\":4654:4657   */\n      dup4\n        /* \"#utility.yul\":4650:4666   */\n      add\n        /* \"#utility.yul\":4643:4670   */\n      mstore\n        /* \"#utility.yul\":4538:4677   */\n      pop\n      pop\n      pop\n      jump\t// out\n        /* \"#utility.yul\":4683:5060   */\n    tag_87:\n        /* \"#utility.yul\":4771:4774   */\n      0x00\n        /* \"#utility.yul\":4799:4838   */\n      tag_162\n        /* \"#utility.yul\":4832:4837   */\n      dup3\n        /* \"#utility.yul\":4799:4838   */\n      tag_84\n      jump\t// in\n    tag_162:\n        /* \"#utility.yul\":4854:4925   */\n      tag_163\n        /* \"#utility.yul\":4918:4924   */\n      dup2\n        /* \"#utility.yul\":4913:4916   */\n      dup6\n        /* \"#utility.yul\":4854:4925   */\n      tag_85\n      jump\t// in\n    tag_163:\n        /* \"#utility.yul\":4847:4925   */\n      swap4\n      pop\n        /* \"#utility.yul\":4934:4999   */\n      tag_164\n        /* \"#utility.yul\":4992:4998   */\n      dup2\n        /* \"#utility.yul\":4987:4990   */\n      dup6\n        /* \"#utility.yul\":4980:4984   */\n      0x20\n        /* \"#utility.yul\":4973:4978   */\n      dup7\n        /* \"#utility.yul\":4969:4985   */\n      add\n        /* \"#utility.yul\":4934:4999   */\n      tag_86\n      jump\t// in\n    tag_164:\n        /* \"#utility.yul\":5024:5053   */\n      tag_165\n        /* \"#utility.yul\":5046:5052   */\n      dup2\n        /* \"#utility.yul\":5024:5053   */\n      tag_76\n      jump\t// in\n    tag_165:\n        /* \"#utility.yul\":5019:5022   */\n      dup5\n        /* \"#utility.yul\":5015:5054   */\n      add\n        /* \"#utility.yul\":5008:5054   */\n      swap2\n      pop\n        /* \"#utility.yul\":4775:5060   */\n      pop\n        /* \"#utility.yul\":4683:5060   */\n      swap3\n      swap2\n      pop\n      pop\n      jump\t// out\n        /* \"#utility.yul\":5066:5489   */\n    tag_30:\n        /* \"#utility.yul\":5207:5211   */\n      0x00\n        /* \"#utility.yul\":5245:5247   */\n      0x40\n        /* \"#utility.yul\":5234:5243   */\n      dup3\n        /* \"#utility.yul\":5230:5248   */\n      add\n        /* \"#utility.yul\":5222:5248   */\n      swap1\n      pop\n        /* \"#utility.yul\":5258:5329   */\n      tag_167\n        /* \"#utility.yul\":5326:5327   */\n      0x00\n        /* \"#utility.yul\":5315:5324   */\n      dup4\n        /* \"#utility.yul\":5311:5328   */\n      add\n        /* \"#utility.yul\":5302:5308   */\n      dup6\n        /* \"#utility.yul\":5258:5329   */\n      tag_73\n      jump\t// in\n    tag_167:\n        /* \"#utility.yul\":5376:5385   */\n      dup2\n        /* \"#utility.yul\":5370:5374   */\n      dup2\n        /* \"#utility.yul\":5366:5386   */\n      sub\n        /* \"#utility.yul\":5361:5363   */\n      0x20\n        /* \"#utility.yul\":5350:5359   */\n      dup4\n        /* \"#utility.yul\":5346:5364   */\n      add\n        /* \"#utility.yul\":5339:5387   */\n      mstore\n        /* \"#utility.yul\":5404:5482   */\n      tag_168\n        /* \"#utility.yul\":5477:5481   */\n      dup2\n        /* \"#utility.yul\":5468:5474   */\n      dup5\n        /* \"#utility.yul\":5404:5482   */\n      tag_87\n      jump\t// in\n    tag_168:\n        /* \"#utility.yul\":5396:5482   */\n      swap1\n      pop\n        /* \"#utility.yul\":5066:5489   */\n      swap4\n      swap3\n      pop\n      pop\n      pop\n      jump\t// out\n        /* \"#utility.yul\":5495:6004   */\n    tag_33:\n        /* \"#utility.yul\":5564:5570   */\n      0x00\n        /* \"#utility.yul\":5613:5615   */\n      0x20\n        /* \"#utility.yul\":5601:5610   */\n      dup3\n        /* \"#utility.yul\":5592:5599   */\n      dup5\n        /* \"#utility.yul\":5588:5611   */\n      sub\n        /* \"#utility.yul\":5584:5616   */\n      slt\n        /* \"#utility.yul\":5581:5700   */\n      iszero\n      tag_170\n      jumpi\n        /* \"#utility.yul\":5619:5698   */\n      tag_171\n      tag_68\n      jump\t// in\n    tag_171:\n        /* \"#utility.yul\":5581:5700   */\n    tag_170:\n        /* \"#utility.yul\":5767:5768   */\n      0x00\n        /* \"#utility.yul\":5756:5765   */\n      dup3\n        /* \"#utility.yul\":5752:5769   */\n      add\n        /* \"#utility.yul\":5739:5770   */\n      calldataload\n        /* \"#utility.yul\":5797:5815   */\n      0xffffffffffffffff\n        /* \"#utility.yul\":5789:5795   */\n      dup2\n        /* \"#utility.yul\":5786:5816   */\n      gt\n        /* \"#utility.yul\":5783:5900   */\n      iszero\n      tag_172\n      jumpi\n        /* \"#utility.yul\":5819:5898   */\n      tag_173\n      tag_69\n      jump\t// in\n    tag_173:\n        /* \"#utility.yul\":5783:5900   */\n    tag_172:\n        /* \"#utility.yul\":5924:5987   */\n      tag_174\n        /* \"#utility.yul\":5979:5986   */\n      dup5\n        /* \"#utility.yul\":5970:5976   */\n      dup3\n        /* \"#utility.yul\":5959:5968   */\n      dup6\n        /* \"#utility.yul\":5955:5977   */\n      add\n        /* \"#utility.yul\":5924:5987   */\n      tag_83\n      jump\t// in\n    tag_174:\n        /* \"#utility.yul\":5914:5987   */\n      swap2\n      pop\n        /* \"#utility.yul\":5710:5997   */\n      pop\n        /* \"#utility.yul\":5495:6004   */\n      swap3\n      swap2\n      pop\n      pop\n      jump\t// out\n        /* \"#utility.yul\":6010:6190   */\n    tag_88:\n        /* \"#utility.yul\":6058:6135   */\n      0x4e487b7100000000000000000000000000000000000000000000000000000000\n        /* \"#utility.yul\":6055:6056   */\n      0x00\n        /* \"#utility.yul\":6048:6136   */\n      mstore\n        /* \"#utility.yul\":6155:6159   */\n      0x11\n        /* \"#utility.yul\":6152:6153   */\n      0x04\n        /* \"#utility.yul\":6145:6160   */\n      mstore\n        /* \"#utility.yul\":6179:6183   */\n      0x24\n        /* \"#utility.yul\":6176:6177   */\n      0x00\n        /* \"#utility.yul\":6169:6184   */\n      revert\n        /* \"#utility.yul\":6196:6387   */\n    tag_45:\n        /* \"#utility.yul\":6236:6239   */\n      0x00\n        /* \"#utility.yul\":6255:6275   */\n      tag_177\n        /* \"#utility.yul\":6273:6274   */\n      dup3\n        /* \"#utility.yul\":6255:6275   */\n      tag_70\n      jump\t// in\n    tag_177:\n        /* \"#utility.yul\":6250:6275   */\n      swap2\n      pop\n        /* \"#utility.yul\":6289:6309   */\n      tag_178\n        /* \"#utility.yul\":6307:6308   */\n      dup4\n        /* \"#utility.yul\":6289:6309   */\n      tag_70\n      jump\t// in\n    tag_178:\n        /* \"#utility.yul\":6284:6309   */\n      swap3\n      pop\n        /* \"#utility.yul\":6332:6333   */\n      dup3\n        /* \"#utility.yul\":6329:6330   */\n      dup3\n        /* \"#utility.yul\":6325:6334   */\n      add\n        /* \"#utility.yul\":6318:6334   */\n      swap1\n      pop\n        /* \"#utility.yul\":6353:6356   */\n      dup1\n        /* \"#utility.yul\":6350:6351   */\n      dup3\n        /* \"#utility.yul\":6347:6357   */\n      gt\n        /* \"#utility.yul\":6344:6380   */\n      iszero\n      tag_179\n      jumpi\n        /* \"#utility.yul\":6360:6378   */\n      tag_180\n      tag_88\n      jump\t// in\n    tag_180:\n        /* \"#utility.yul\":6344:6380   */\n    tag_179:\n        /* \"#utility.yul\":6196:6387   */\n      swap3\n      swap2\n      pop\n      pop\n      jump\t// out\n        /* \"#utility.yul\":6393:6573   */\n    tag_89:\n        /* \"#utility.yul\":6441:6518   */\n      0x4e487b7100000000000000000000000000000000000000000000000000000000\n        /* \"#utility.yul\":6438:6439   */\n      0x00\n        /* \"#utility.yul\":6431:6519   */\n      mstore\n        /* \"#utility.yul\":6538:6542   */\n      0x22\n        /* \"#utility.yul\":6535:6536   */\n      0x04\n        /* \"#utility.yul\":6528:6543   */\n      mstore\n        /* \"#utility.yul\":6562:6566   */\n      0x24\n        /* \"#utility.yul\":6559:6560   */\n      0x00\n        /* \"#utility.yul\":6552:6567   */\n      revert\n        /* \"#utility.yul\":6579:6899   */\n    tag_54:\n        /* \"#utility.yul\":6623:6629   */\n      0x00\n        /* \"#utility.yul\":6660:6661   */\n      0x02\n        /* \"#utility.yul\":6654:6658   */\n      dup3\n        /* \"#utility.yul\":6650:6662   */\n      div\n        /* \"#utility.yul\":6640:6662   */\n      swap1\n      pop\n        /* \"#utility.yul\":6707:6708   */\n      0x01\n        /* \"#utility.yul\":6701:6705   */\n      dup3\n        /* \"#utility.yul\":6697:6709   */\n      and\n        /* \"#utility.yul\":6728:6746   */\n      dup1\n        /* \"#utility.yul\":6718:6799   */\n      tag_183\n      jumpi\n        /* \"#utility.yul\":6784:6788   */\n      0x7f\n        /* \"#utility.yul\":6776:6782   */\n      dup3\n        /* \"#utility.yul\":6772:6789   */\n      and\n        /* \"#utility.yul\":6762:6789   */\n      swap2\n      pop\n        /* \"#utility.yul\":6718:6799   */\n    tag_183:\n        /* \"#utility.yul\":6846:6848   */\n      0x20\n        /* \"#utility.yul\":6838:6844   */\n      dup3\n        /* \"#utility.yul\":6835:6849   */\n      lt\n        /* \"#utility.yul\":6815:6833   */\n      dup2\n        /* \"#utility.yul\":6812:6850   */\n      sub\n        /* \"#utility.yul\":6809:6893   */\n      tag_184\n      jumpi\n        /* \"#utility.yul\":6865:6883   */\n      tag_185\n      tag_89\n      jump\t// in\n    tag_185:\n        /* \"#utility.yul\":6809:6893   */\n    tag_184:\n        /* \"#utility.yul\":6630:6899   */\n      pop\n        /* \"#utility.yul\":6579:6899   */\n      swap2\n      swap1\n      pop\n      jump\t// out\n        /* \"#utility.yul\":6905:7046   */\n    tag_90:\n        /* \"#utility.yul\":6954:6958   */\n      0x00\n        /* \"#utility.yul\":6977:6980   */\n      dup2\n        /* \"#utility.yul\":6969:6980   */\n      swap1\n      pop\n        /* \"#utility.yul\":7000:7003   */\n      dup2\n        /* \"#utility.yul\":6997:6998   */\n      0x00\n        /* \"#utility.yul\":6990:7004   */\n      mstore\n        /* \"#utility.yul\":7034:7038   */\n      0x20\n        /* \"#utility.yul\":7031:7032   */\n      0x00\n        /* \"#utility.yul\":7021:7039   */\n      keccak256\n        /* \"#utility.yul\":7013:7039   */\n      swap1\n      pop\n        /* \"#utility.yul\":6905:7046   */\n      swap2\n      swap1\n      pop\n      jump\t// out\n        /* \"#utility.yul\":7052:7145   */\n    tag_91:\n        /* \"#utility.yul\":7089:7095   */\n      0x00\n        /* \"#utility.yul\":7136:7138   */\n      0x20\n        /* \"#utility.yul\":7131:7133   */\n      0x1f\n        /* \"#utility.yul\":7124:7129   */\n      dup4\n        /* \"#utility.yul\":7120:7134   */\n      add\n        /* \"#utility.yul\":7116:7139   */\n      div\n        /* \"#utility.yul\":7106:7139   */\n      swap1\n      pop\n        /* \"#utility.yul\":7052:7145   */\n      swap2\n      swap1\n      pop\n      jump\t// out\n        /* \"#utility.yul\":7151:7258   */\n    tag_92:\n        /* \"#utility.yul\":7195:7203   */\n      0x00\n        /* \"#utility.yul\":7245:7250   */\n      dup3\n        /* \"#utility.yul\":7239:7243   */\n      dup3\n        /* \"#utility.yul\":7235:7251   */\n      shl\n        /* \"#utility.yul\":7214:7251   */\n      swap1\n      pop\n        /* \"#utility.yul\":7151:7258   */\n      swap3\n      swap2\n      pop\n      pop\n      jump\t// out\n        /* \"#utility.yul\":7264:7657   */\n    tag_93:\n        /* \"#utility.yul\":7333:7339   */\n      0x00\n        /* \"#utility.yul\":7383:7384   */\n      0x08\n        /* \"#utility.yul\":7371:7381   */\n      dup4\n        /* \"#utility.yul\":7367:7385   */\n      mul\n        /* \"#utility.yul\":7406:7503   */\n      tag_190\n        /* \"#utility.yul\":7436:7502   */\n      0xffffffffffffffffffffffffffffffffffffffffffffffffffffffffffffffff\n        /* \"#utility.yul\":7425:7434   */\n      dup3\n        /* \"#utility.yul\":7406:7503   */\n      tag_92\n      jump\t// in\n    tag_190:\n        /* \"#utility.yul\":7524:7563   */\n      tag_191\n        /* \"#utility.yul\":7554:7562   */\n      dup7\n        /* \"#utility.yul\":7543:7552   */\n      dup4\n        /* \"#utility.yul\":7524:7563   */\n      tag_92\n      jump\t// in\n    tag_191:\n        /* \"#utility.yul\":7512:7563   */\n      swap6\n      pop\n        /* \"#utility.yul\":7596:7600   */\n      dup1\n        /* \"#utility.yul\":7592:7601   */\n      not\n        /* \"#utility.yul\":7585:7590   */\n      dup5\n        /* \"#utility.yul\":7581:7602   */\n      and\n        /* \"#utility.yul\":7572:7602   */\n      swap4\n      pop\n        /* \"#utility.yul\":7645:7649   */\n      dup1\n        /* \"#utility.yul\":7635:7643   */\n      dup7\n        /* \"#utility.yul\":7631:7650   */\n      and\n        /* \"#utility.yul\":7624:7629   */\n      dup5\n        /* \"#utility.yul\":7621:7651   */\n      or\n        /* \"#utility.yul\":7611:7651   */\n      swap3\n      pop\n        /* \"#utility.yul\":7340:7657   */\n      pop\n      pop\n        /* \"#utility.yul\":7264:7657   */\n      swap4\n      swap3\n      pop\n      pop\n      pop\n      jump\t// out\n        /* \"#utility.yul\":7663:7723   */\n    tag_94:\n        /* \"#utility.yul\":7691:7694   */\n      0x00\n        /* \"#utility.yul\":7712:7717   */\n      dup2\n        /* \"#utility.yul\":7705:7717   */\n      swap1\n      pop\n        /* \"#utility.yul\":7663:7723   */\n      swap2\n      swap1\n      pop\n      jump\t// out\n        /* \"#utility.yul\":7729:7871   */\n    tag_95:\n        /* \"#utility.yul\":7779:7788   */\n      0x00\n        /* \"#utility.yul\":7812:7865   */\n      tag_194\n        /* \"#utility.yul\":7830:7864   */\n      tag_195\n        /* \"#utility.yul\":7839:7863   */\n      tag_196\n        /* \"#utility.yul\":7857:7862   */\n      dup5\n        /* \"#utility.yul\":7839:7863   */\n      tag_70\n      jump\t// in\n    tag_196:\n        /* \"#utility.yul\":7830:7864   */\n      tag_94\n      jump\t// in\n    tag_195:\n        /* \"#utility.yul\":7812:7865   */\n      tag_70\n      jump\t// in\n    tag_194:\n        /* \"#utility.yul\":7799:7865   */\n      swap1\n      pop\n        /* \"#utility.yul\":7729:7871   */\n      swap2\n      swap1\n      pop\n      jump\t// out\n        /* \"#utility.yul\":7877:7952   */\n    tag_96:\n        /* \"#utility.yul\":7920:7923   */\n      0x00\n        /* \"#utility.yul\":7941:7946   */\n      dup2\n        /* \"#utility.yul\":7934:7946   */\n      swap1\n      pop\n        /* \"#utility.yul\":7877:7952   */\n      swap2\n      swap1\n      pop\n      jump\t// out\n        /* \"#utility.yul\":7958:8227   */\n    tag_97:\n        /* \"#utility.yul\":8068:8107   */\n      tag_199\n        /* \"#utility.yul\":8099:8106   */\n      dup4\n        /* \"#utility.yul\":8068:8107   */\n      tag_95\n      jump\t// in\n    tag_199:\n        /* \"#utility.yul\":8129:8220   */\n      tag_200\n        /* \"#utility.yul\":8178:8219   */\n      tag_201\n        /* \"#utility.yul\":8202:8218   */\n      dup3\n        /* \"#utility.yul\":8178:8219   */\n      tag_96\n      jump\t// in\n    tag_201:\n        /* \"#utility.yul\":8170:8176   */\n      dup5\n        /* \"#utility.yul\":8163:8167   */\n      dup5\n        /* \"#utility.yul\":8157:8168   */\n      sload\n        /* \"#utility.yul\":8129:8220   */\n      tag_93\n      jump\t// in\n    tag_200:\n        /* \"#utility.yul\":8123:8127   */\n      dup3\n        /* \"#utility.yul\":8116:8221   */\n      sstore\n        /* \"#utility.yul\":8034:8227   */\n      pop\n        /* \"#utility.yul\":7958:8227   */\n      pop\n      pop\n      pop\n      jump\t// out\n        /* \"#utility.yul\":8233:8306   */\n    tag_98:\n        /* \"#utility.yul\":8278:8281   */\n      0x00\n        /* \"#utility.yul\":8233:8306   */\n      swap1\n      jump\t// out\n        /* \"#utility.yul\":8312:8501   */\n    tag_99:\n        /* \"#utility.yul\":8389:8421   */\n      tag_204\n      tag_98\n      jump\t// in\n    tag_204:\n        /* \"#utility.yul\":8430:8495   */\n      tag_205\n        /* \"#utility.yul\":8488:8494   */\n      dup2\n        /* \"#utility.yul\":8480:8486   */\n      dup5\n        /* \"#utility.yul\":8474:8478   */\n      dup5\n        /* \"#utility.yul\":8430:8495   */\n      tag_97\n      jump\t// in\n    tag_205:\n        /* \"#utility.yul\":8365:8501   */\n      pop\n        /* \"#utility.yul\":8312:8501   */\n      pop\n      pop\n      jump\t// out\n        /* \"#utility.yul\":8507:8693   */\n    tag_100:\n        /* \"#utility.yul\":8567:8687   */\n    tag_207:\n        /* \"#utility.yul\":8584:8587   */\n      dup2\n        /* \"#utility.yul\":8577:8582   */\n      dup2\n        /* \"#utility.yul\":8574:8588   */\n      lt\n        /* \"#utility.yul\":8567:8687   */\n      iszero\n      tag_209\n      jumpi\n        /* \"#utility.yul\":8638:8677   */\n      tag_210\n        /* \"#utility.yul\":8675:8676   */\n      0x00\n        /* \"#utility.yul\":8668:8673   */\n      dup3\n        /* \"#utility.yul\":8638:8677   */\n      tag_99\n      jump\t// in\n    tag_210:\n        /* \"#utility.yul\":8611:8612   */\n      0x01\n        /* \"#utility.yul\":8604:8609   */\n      dup2\n        /* \"#utility.yul\":8600:8613   */\n      add\n        /* \"#utility.yul\":8591:8613   */\n      swap1\n      pop\n        /* \"#utility.yul\":8567:8687   */\n      jump(tag_207)\n    tag_209:\n        /* \"#utility.yul\":8507:8693   */\n      pop\n      pop\n      jump\t// out\n        /* \"#utility.yul\":8699:9242   */\n    tag_101:\n        /* \"#utility.yul\":8800:8802   */\n      0x1f\n        /* \"#utility.yul\":8795:8798   */\n      dup3\n        /* \"#utility.yul\":8792:8803   */\n      gt\n        /* \"#utility.yul\":8789:9235   */\n      iszero\n      tag_212\n      jumpi\n        /* \"#utility.yul\":8834:8872   */\n      tag_213\n        /* \"#utility.yul\":8866:8871   */\n      dup2\n        /* \"#utility.yul\":8834:8872   */\n      tag_90\n      jump\t// in\n    tag_213:\n        /* \"#utility.yul\":8918:8947   */\n      tag_214\n        /* \"#utility.yul\":8936:8946   */\n      dup5\n        /* \"#utility.yul\":8918:8947   */\n      tag_91\n      jump\t// in\n    tag_214:\n        /* \"#utility.yul\":8908:8916   */\n      dup2\n        /* \"#utility.yul\":8904:8948   */\n      add\n        /* \"#utility.yul\":9101:9103   */\n      0x20\n        /* \"#utility.yul\":9089:9099   */\n      dup6\n        /* \"#utility.yul\":9086:9104   */\n      lt\n        /* \"#utility.yul\":9083:9132   */\n      iszero\n      tag_215\n      jumpi\n        /* \"#utility.yul\":9122:9130   */\n      dup2\n        /* \"#utility.yul\":9107:9130   */\n      swap1\n      pop\n        /* \"#utility.yul\":9083:9132   */\n    tag_215:\n        /* \"#utility.yul\":9145:9225   */\n      tag_216\n        /* \"#utility.yul\":9201:9223   */\n      tag_217\n        /* \"#utility.yul\":9219:9222   */\n      dup6\n        /* \"#utility.yul\":9201:9223   */\n      tag_91\n      jump\t// in\n    tag_217:\n        /* \"#utility.yul\":9191:9199   */\n      dup4\n        /* \"#utility.yul\":9187:9224   */\n      add\n        /* \"#utility.yul\":9174:9185   */\n      dup3\n        /* \"#utility.yul\":9145:9225   */\n      tag_100\n      jump\t// in\n    tag_216:\n        /* \"#utility.yul\":8804:9235   */\n      pop\n      pop\n        /* \"#utility.yul\":8789:9235   */\n    tag_212:\n        /* \"#utility.yul\":8699:9242   */\n      pop\n      pop\n      pop\n      jump\t// out\n        /* \"#utility.yul\":9248:9365   */\n    tag_102:\n        /* \"#utility.yul\":9302:9310   */\n      0x00\n        /* \"#utility.yul\":9352:9357   */\n      dup3\n        /* \"#utility.yul\":9346:9350   */\n      dup3\n        /* \"#utility.yul\":9342:9358   */\n      shr\n        /* \"#utility.yul\":9321:9358   */\n      swap1\n      pop\n        /* \"#utility.yul\":9248:9365   */\n      swap3\n      swap2\n      pop\n      pop\n      jump\t// out\n        /* \"#utility.yul\":9371:9540   */\n    tag_103:\n        /* \"#utility.yul\":9415:9421   */\n      0x00\n        /* \"#utility.yul\":9448:9499   */\n      tag_220\n        /* \"#utility.yul\":9496:9497   */\n      0x00\n        /* \"#utility.yul\":9492:9498   */\n      not\n        /* \"#utility.yul\":9484:9489   */\n      dup5\n        /* \"#utility.yul\":9481:9482   */\n      0x08\n        /* \"#utility.yul\":9477:9490   */\n      mul\n        /* \"#utility.yul\":9448:9499   */\n      tag_102\n      jump\t// in\n    tag_220:\n        /* \"#utility.yul\":9444:9500   */\n      not\n        /* \"#utility.yul\":9529:9533   */\n      dup1\n        /* \"#utility.yul\":9523:9527   */\n      dup4\n        /* \"#utility.yul\":9519:9534   */\n      and\n        /* \"#utility.yul\":9509:9534   */\n      swap2\n      pop\n        /* \"#utility.yul\":9422:9540   */\n      pop\n        /* \"#utility.yul\":9371:9540   */\n      swap3\n      swap2\n      pop\n      pop\n      jump\t// out\n        /* \"#utility.yul\":9545:9840   */\n    tag_104:\n        /* \"#utility.yul\":9621:9625   */\n      0x00\n        /* \"#utility.yul\":9767:9796   */\n      tag_222\n        /* \"#utility.yul\":9792:9795   */\n      dup4\n        /* \"#utility.yul\":9786:9790   */\n      dup4\n        /* \"#utility.yul\":9767:9796   */\n      tag_103\n      jump\t// in\n    tag_222:\n        /* \"#utility.yul\":9759:9796   */\n      swap2\n      pop\n        /* \"#utility.yul\":9829:9832   */\n      dup3\n        /* \"#utility.yul\":9826:9827   */\n      0x02\n        /* \"#utility.yul\":9822:9833   */\n      mul\n        /* \"#utility.yul\":9816:9820   */\n      dup3\n        /* \"#utility.yul\":9813:9834   */\n      or\n        /* \"#utility.yul\":9805:9834   */\n      swap1\n      pop\n        /* \"#utility.yul\":9545:9840   */\n      swap3\n      swap2\n      pop\n      pop\n      jump\t// out\n        /* \"#utility.yul\":9845:11240   */\n    tag_50:\n        /* \"#utility.yul\":9962:9999   */\n      tag_224\n        /* \"#utility.yul\":9995:9998   */\n      dup3\n        /* \"#utility.yul\":9962:9999   */\n      tag_84\n      jump\t// in\n    tag_224:\n        /* \"#utility.yul\":10064:10082   */\n      0xffffffffffffffff\n        /* \"#utility.yul\":10056:10062   */\n      dup2\n        /* \"#utility.yul\":10053:10083   */\n      gt\n        /* \"#utility.yul\":10050:10106   */\n      iszero\n      tag_225\n      jumpi\n        /* \"#utility.yul\":10086:10104   */\n      tag_226\n      tag_77\n      jump\t// in\n    tag_226:\n        /* \"#utility.yul\":10050:10106   */\n    tag_225:\n        /* \"#utility.yul\":10130:10168   */\n      tag_227\n        /* \"#utility.yul\":10162:10166   */\n      dup3\n        /* \"#utility.yul\":10156:10167   */\n      sload\n        /* \"#utility.yul\":10130:10168   */\n      tag_54\n      jump\t// in\n    tag_227:\n        /* \"#utility.yul\":10215:10282   */\n      tag_228\n        /* \"#utility.yul\":10275:10281   */\n      dup3\n        /* \"#utility.yul\":10267:10273   */\n      dup3\n        /* \"#utility.yul\":10261:10265   */\n      dup6\n        /* \"#utility.yul\":10215:10282   */\n      tag_101\n      jump\t// in\n    tag_228:\n        /* \"#utility.yul\":10309:10310   */\n      0x00\n        /* \"#utility.yul\":10333:10337   */\n      0x20\n        /* \"#utility.yul\":10320:10337   */\n      swap1\n      pop\n        /* \"#utility.yul\":10365:10367   */\n      0x1f\n        /* \"#utility.yul\":10357:10363   */\n      dup4\n        /* \"#utility.yul\":10354:10368   */\n      gt\n        /* \"#utility.yul\":10382:10383   */\n      0x01\n        /* \"#utility.yul\":10377:10995   */\n      dup2\n      eq\n      tag_230\n      jumpi\n        /* \"#utility.yul\":11039:11040   */\n      0x00\n        /* \"#utility.yul\":11056:11062   */\n      dup5\n        /* \"#utility.yul\":11053:11130   */\n      iszero\n      tag_231\n      jumpi\n        /* \"#utility.yul\":11105:11114   */\n      dup3\n        /* \"#utility.yul\":11100:11103   */\n      dup8\n        /* \"#utility.yul\":11096:11115   */\n      add\n        /* \"#utility.yul\":11090:11116   */\n      mload\n        /* \"#utility.yul\":11081:11116   */\n      swap1\n      pop\n        /* \"#utility.yul\":11053:11130   */\n    tag_231:\n        /* \"#utility.yul\":11156:11223   */\n      tag_232\n        /* \"#utility.yul\":11216:11222   */\n      dup6\n        /* \"#utility.yul\":11209:11214   */\n      dup3\n        /* \"#utility.yul\":11156:11223   */\n      tag_104\n      jump\t// in\n    tag_232:\n        /* \"#utility.yul\":11150:11154   */\n      dup7\n        /* \"#utility.yul\":11143:11224   */\n      sstore\n        /* \"#utility.yul\":11012:11234   */\n      pop\n        /* \"#utility.yul\":10347:11234   */\n      jump(tag_229)\n        /* \"#utility.yul\":10377:10995   */\n    tag_230:\n        /* \"#utility.yul\":10429:10433   */\n      0x1f\n        /* \"#utility.yul\":10425:10434   */\n      not\n        /* \"#utility.yul\":10417:10423   */\n      dup5\n        /* \"#utility.yul\":10413:10435   */\n      and\n        /* \"#utility.yul\":10463:10500   */\n      tag_233\n        /* \"#utility.yul\":10495:10499   */\n      dup7\n        /* \"#utility.yul\":10463:10500   */\n      tag_90\n      jump\t// in\n    tag_233:\n        /* \"#utility.yul\":10522:10523   */\n      0x00\n        /* \"#utility.yul\":10536:10744   */\n    tag_234:\n        /* \"#utility.yul\":10550:10557   */\n      dup3\n        /* \"#utility.yul\":10547:10548   */\n      dup2\n        /* \"#utility.yul\":10544:10558   */\n      lt\n        /* \"#utility.yul\":10536:10744   */\n      iszero\n      tag_236\n      jumpi\n        /* \"#utility.yul\":10629:10638   */\n      dup5\n        /* \"#utility.yul\":10624:10627   */\n      dup10\n        /* \"#utility.yul\":10620:10639   */\n      add\n        /* \"#utility.yul\":10614:10640   */\n      mload\n        /* \"#utility.yul\":10606:10612   */\n      dup3\n        /* \"#utility.yul\":10599:10641   */\n      sstore\n        /* \"#utility.yul\":10680:10681   */\n      0x01\n        /* \"#utility.yul\":10672:10678   */\n      dup3\n        /* \"#utility.yul\":10668:10682   */\n      add\n        /* \"#utility.yul\":10658:10682   */\n      swap2\n      pop\n        /* \"#utility.yul\":10727:10729   */\n      0x20\n        /* \"#utility.yul\":10716:10725   */\n      dup6\n        /* \"#utility.yul\":10712:10730   */\n      add\n        /* \"#utility.yul\":10699:10730   */\n      swap5\n      pop\n        /* \"#utility.yul\":10573:10577   */\n      0x20\n        /* \"#utility.yul\":10570:10571   */\n      dup2\n        /* \"#utility.yul\":10566:10578   */\n      add\n        /* \"#utility.yul\":10561:10578   */\n      swap1\n      pop\n        /* \"#utility.yul\":10536:10744   */\n      jump(tag_234)\n    tag_236:\n        /* \"#utility.yul\":10772:10778   */\n      dup7\n        /* \"#utility.yul\":10763:10770   */\n      dup4\n        /* \"#utility.yul\":10760:10779   */\n      lt\n        /* \"#utility.yul\":10757:10936   */\n      iszero\n      tag_237\n      jumpi\n        /* \"#utility.yul\":10830:10839   */\n      dup5\n        /* \"#utility.yul\":10825:10828   */\n      dup10\n        /* \"#utility.yul\":10821:10840   */\n      add\n        /* \"#utility.yul\":10815:10841   */\n      mload\n        /* \"#utility.yul\":10873:10921   */\n      tag_238\n        /* \"#utility.yul\":10915:10919   */\n      0x1f\n        /* \"#utility.yul\":10907:10913   */\n      dup10\n        /* \"#utility.yul\":10903:10920   */\n      and\n        /* \"#utility.yul\":10892:10901   */\n      dup3\n        /* \"#utility.yul\":10873:10921   */\n      tag_103\n      jump\t// in\n    tag_238:\n        /* \"#utility.yul\":10865:10871   */\n      dup4\n        /* \"#utility.yul\":10858:10922   */\n      sstore\n        /* \"#utility.yul\":10780:10936   */\n      pop\n        /* \"#utility.yul\":10757:10936   */\n    tag_237:\n        /* \"#utility.yul\":10982:10983   */\n      0x01\n        /* \"#utility.yul\":10978:10979   */\n      0x02\n        /* \"#utility.yul\":10970:10976   */\n      dup9\n        /* \"#utility.yul\":10966:10980   */\n      mul\n        /* \"#utility.yul\":10962:10984   */\n      add\n        /* \"#utility.yul\":10956:10960   */\n      dup9\n        /* \"#utility.yul\":10949:10985   */\n      sstore\n        /* \"#utility.yul\":10384:10995   */\n      pop\n      pop\n      pop\n        /* \"#utility.yul\":10347:11234   */\n    tag_229:\n      pop\n        /* \"#utility.yul\":9937:11240   */\n      pop\n      pop\n      pop\n        /* \"#utility.yul\":9845:11240   */\n      pop\n      pop\n      jump\t// out\n        /* \"#utility.yul\":11246:11394   */\n    tag_105:\n        /* \"#utility.yul\":11348:11359   */\n      0x00\n        /* \"#utility.yul\":11385:11388   */\n      dup2\n        /* \"#utility.yul\":11370:11388   */\n      swap1\n      pop\n        /* \"#utility.yul\":11246:11394   */\n      swap3\n      swap2\n      pop\n      pop\n      jump\t// out\n        /* \"#utility.yul\":11400:11790   */\n    tag_106:\n        /* \"#utility.yul\":11506:11509   */\n      0x00\n        /* \"#utility.yul\":11534:11573   */\n      tag_241\n        /* \"#utility.yul\":11567:11572   */\n      dup3\n        /* \"#utility.yul\":11534:11573   */\n      tag_84\n      jump\t// in\n    tag_241:\n        /* \"#utility.yul\":11589:11678   */\n      tag_242\n        /* \"#utility.yul\":11671:11677   */\n      dup2\n        /* \"#utility.yul\":11666:11669   */\n      dup6\n        /* \"#utility.yul\":11589:11678   */\n      tag_105\n      jump\t// in\n    tag_242:\n        /* \"#utility.yul\":11582:11678   */\n      swap4\n      pop\n        /* \"#utility.yul\":11687:11752   */\n      tag_243\n        /* \"#utility.yul\":11745:11751   */\n      dup2\n        /* \"#utility.yul\":11740:11743   */\n      dup6\n        /* \"#utility.yul\":11733:11737   */\n      0x20\n        /* \"#utility.yul\":11726:11731   */\n      dup7\n        /* \"#utility.yul\":11722:11738   */\n      add\n        /* \"#utility.yul\":11687:11752   */\n      tag_86\n      jump\t// in\n    tag_243:\n        /* \"#utility.yul\":11777:11783   */\n      dup1\n        /* \"#utility.yul\":11772:11775   */\n      dup5\n        /* \"#utility.yul\":11768:11784   */\n      add\n        /* \"#utility.yul\":11761:11784   */\n      swap2\n      pop\n        /* \"#utility.yul\":11510:11790   */\n      pop\n        /* \"#utility.yul\":11400:11790   */\n      swap3\n      swap2\n      pop\n      pop\n      jump\t// out\n        /* \"#utility.yul\":11796:12071   */\n    tag_52:\n        /* \"#utility.yul\":11928:11931   */\n      0x00\n        /* \"#utility.yul\":11950:12045   */\n      tag_245\n        /* \"#utility.yul\":12041:12044   */\n      dup3\n        /* \"#utility.yul\":12032:12038   */\n      dup5\n        /* \"#utility.yul\":11950:12045   */\n      tag_106\n      jump\t// in\n    tag_245:\n        /* \"#utility.yul\":11943:12045   */\n      swap2\n      pop\n        /* \"#utility.yul\":12062:12065   */\n      dup2\n        /* \"#utility.yul\":12055:12065   */\n      swap1\n      pop\n        /* \"#utility.yul\":11796:12071   */\n      swap3\n      swap2\n      pop\n      pop\n      jump\t// out\n\n    auxdata: 0xa2646970667358221220e95c84d121bbdd2156d42bb39d255c5252ef761f9902dd2d922aeedb2884621e64736f6c63430008190033\n}\n",
				"bytecode": {
					"linkReferences": {},
					"object": "60806040526040518060400160405280600281526020016040518060400160405280600781526020017f5061747269636b0000000000000000000000000000000000000000000000000081525081525060015f820151815f0155602082015181600101908161006e91906102bc565b50505034801561007c575f80fd5b5061038b565b5f81519050919050565b7f4e487b71000000000000000000000000000000000000000000000000000000005f52604160045260245ffd5b7f4e487b71000000000000000000000000000000000000000000000000000000005f52602260045260245ffd5b5f60028204905060018216806100fd57607f821691505b6020821081036101105761010f6100b9565b5b50919050565b5f819050815f5260205f209050919050565b5f6020601f8301049050919050565b5f82821b905092915050565b5f600883026101727fffffffffffffffffffffffffffffffffffffffffffffffffffffffffffffffff82610137565b61017c8683610137565b95508019841693508086168417925050509392505050565b5f819050919050565b5f819050919050565b5f6101c06101bb6101b684610194565b61019d565b610194565b9050919050565b5f819050919050565b6101d9836101a6565b6101ed6101e5826101c7565b848454610143565b825550505050565b5f90565b6102016101f5565b61020c8184846101d0565b505050565b5b8181101561022f576102245f826101f9565b600181019050610212565b5050565b601f8211156102745761024581610116565b61024e84610128565b8101602085101561025d578190505b61027161026985610128565b830182610211565b50505b505050565b5f82821c905092915050565b5f6102945f1984600802610279565b1980831691505092915050565b5f6102ac8383610285565b9150826002028217905092915050565b6102c582610082565b67ffffffffffffffff8111156102de576102dd61008c565b5b6102e882546100e6565b6102f3828285610233565b5f60209050601f831160018114610324575f8415610312578287015190505b61031c85826102a1565b865550610383565b601f19841661033286610116565b5f5b8281101561035957848901518255600182019150602085019450602081019050610334565b868310156103765784890151610372601f891682610285565b8355505b6001600288020188555050505b505050505050565b610a6e806103985f395ff3fe608060405234801561000f575f80fd5b5060043610610086575f3560e01c806377ec2b551161005957806377ec2b55146100fc5780638bab8dd51461011b5780639e7a13ad1461014b578063aa62479e1461017c57610086565b806329a22b881461008a578063471f7cdf146100a65780636057361d146100c45780636f760f41146100e0575b5f80fd5b6100a4600480360381019061009f9190610401565b61019a565b005b6100ae6101aa565b6040516100bb919061043b565b60405180910390f35b6100de60048036038101906100d99190610401565b6101af565b005b6100fa60048036038101906100f59190610590565b6101b8565b005b61010461023c565b60405161011292919061064a565b60405180910390f35b61013560048036038101906101309190610678565b6102d3565b604051610142919061043b565b60405180910390f35b61016560048036038101906101609190610401565b610300565b60405161017392919061064a565b60405180910390f35b6101846103b5565b604051610191919061043b565b60405180910390f35b80816101a691906106ec565b5050565b5f5481565b805f8190555050565b6003604051806040016040528083815260200184815250908060018154018082558091505060019003905f5260205f2090600202015f909190919091505f820151815f015560208201518160010190816102129190610919565b505050806004836040516102269190610a22565b9081526020016040518091039020819055505050565b6001805f0154908060010180546102529061074c565b80601f016020809104026020016040519081016040528092919081815260200182805461027e9061074c565b80156102c95780601f106102a0576101008083540402835291602001916102c9565b820191905f5260205f20905b8154815290600101906020018083116102ac57829003601f168201915b5050505050905082565b6004818051602081018201805184825260208301602085012081835280955050505050505f915090505481565b6003818154811061030f575f80fd5b905f5260205f2090600202015f91509050805f0154908060010180546103349061074c565b80601f01602080910402602001604051908101604052809291908181526020018280546103609061074c565b80156103ab5780601f10610382576101008083540402835291602001916103ab565b820191905f5260205f20905b81548152906001019060200180831161038e57829003601f168201915b5050505050905082565b5f8054905090565b5f604051905090565b5f80fd5b5f80fd5b5f819050919050565b6103e0816103ce565b81146103ea575f80fd5b50565b5f813590506103fb816103d7565b92915050565b5f60208284031215610416576104156103c6565b5b5f610423848285016103ed565b91505092915050565b610435816103ce565b82525050565b5f60208201905061044e5f83018461042c565b92915050565b5f80fd5b5f80fd5b5f601f19601f8301169050919050565b7f4e487b71000000000000000000000000000000000000000000000000000000005f52604160045260245ffd5b6104a28261045c565b810181811067ffffffffffffffff821117156104c1576104c061046c565b5b80604052505050565b5f6104d36103bd565b90506104df8282610499565b919050565b5f67ffffffffffffffff8211156104fe576104fd61046c565b5b6105078261045c565b9050602081019050919050565b828183375f83830152505050565b5f61053461052f846104e4565b6104ca565b9050828152602081018484840111156105505761054f610458565b5b61055b848285610514565b509392505050565b5f82601f83011261057757610576610454565b5b8135610587848260208601610522565b91505092915050565b5f80604083850312156105a6576105a56103c6565b5b5f83013567ffffffffffffffff8111156105c3576105c26103ca565b5b6105cf85828601610563565b92505060206105e0858286016103ed565b9150509250929050565b5f81519050919050565b5f82825260208201905092915050565b8281835e5f83830152505050565b5f61061c826105ea565b61062681856105f4565b9350610636818560208601610604565b61063f8161045c565b840191505092915050565b5f60408201905061065d5f83018561042c565b818103602083015261066f8184610612565b90509392505050565b5f6020828403121561068d5761068c6103c6565b5b5f82013567ffffffffffffffff8111156106aa576106a96103ca565b5b6106b684828501610563565b91505092915050565b7f4e487b71000000000000000000000000000000000000000000000000000000005f52601160045260245ffd5b5f6106f6826103ce565b9150610701836103ce565b9250828201905080821115610719576107186106bf565b5b92915050565b7f4e487b71000000000000000000000000000000000000000000000000000000005f52602260045260245ffd5b5f600282049050600182168061076357607f821691505b6020821081036107765761077561071f565b5b50919050565b5f819050815f5260205f209050919050565b5f6020601f8301049050919050565b5f82821b905092915050565b5f600883026107d87fffffffffffffffffffffffffffffffffffffffffffffffffffffffffffffffff8261079d565b6107e2868361079d565b95508019841693508086168417925050509392505050565b5f819050919050565b5f61081d610818610813846103ce565b6107fa565b6103ce565b9050919050565b5f819050919050565b61083683610803565b61084a61084282610824565b8484546107a9565b825550505050565b5f90565b61085e610852565b61086981848461082d565b505050565b5b8181101561088c576108815f82610856565b60018101905061086f565b5050565b601f8211156108d1576108a28161077c565b6108ab8461078e565b810160208510156108ba578190505b6108ce6108c68561078e565b83018261086e565b50505b505050565b5f82821c905092915050565b5f6108f15f19846008026108d6565b1980831691505092915050565b5f61090983836108e2565b9150826002028217905092915050565b610922826105ea565b67ffffffffffffffff81111561093b5761093a61046c565b5b610945825461074c565b610950828285610890565b5f60209050601f831160018114610981575f841561096f578287015190505b61097985826108fe565b8655506109e0565b601f19841661098f8661077c565b5f5b828110156109b657848901518255600182019150602085019450602081019050610991565b868310156109d357848901516109cf601f8916826108e2565b8355505b6001600288020188555050505b505050505050565b5f81905092915050565b5f6109fc826105ea565b610a0681856109e8565b9350610a16818560208601610604565b80840191505092915050565b5f610a2d82846109f2565b91508190509291505056fea2646970667358221220e95c84d121bbdd2156d42bb39d255c5252ef761f9902dd2d922aeedb2884621e64736f6c63430008190033",
					"opcodes": "PUSH1 0x80 PUSH1 0x40 MSTORE PUSH1 0x40 MLOAD DUP1 PUSH1 0x40 ADD PUSH1 0x40 MSTORE DUP1 PUSH1 0x2 DUP2 MSTORE PUSH1 0x20 ADD PUSH1 0x40 MLOAD DUP1 PUSH1 0x40 ADD PUSH1 0x40 MSTORE DUP1 PUSH1 0x7 DUP2 MSTORE PUSH1 0x20 ADD PUSH32 0x5061747269636B00000000000000000000000000000000000000000000000000 DUP2 MSTORE POP DUP2 MSTORE POP PUSH1 0x1 PUSH0 DUP3 ADD MLOAD DUP2 PUSH0 ADD SSTORE PUSH1 0x20 DUP3 ADD MLOAD DUP2 PUSH1 0x1 ADD SWAP1 DUP2 PUSH2 0x6E SWAP2 SWAP1 PUSH2 0x2BC JUMP JUMPDEST POP POP POP CALLVALUE DUP1 ISZERO PUSH2 0x7C JUMPI PUSH0 DUP1 REVERT JUMPDEST POP PUSH2 0x38B JUMP JUMPDEST PUSH0 DUP2 MLOAD SWAP1 POP SWAP2 SWAP1 POP JUMP JUMPDEST PUSH32 0x4E487B7100000000000000000000000000000000000000000000000000000000 PUSH0 MSTORE PUSH1 0x41 PUSH1 0x4 MSTORE PUSH1 0x24 PUSH0 REVERT JUMPDEST PUSH32 0x4E487B7100000000000000000000000000000000000000000000000000000000 PUSH0 MSTORE PUSH1 0x22 PUSH1 0x4 MSTORE PUSH1 0x24 PUSH0 REVERT JUMPDEST PUSH0 PUSH1 0x2 DUP3 DIV SWAP1 POP PUSH1 0x1 DUP3 AND DUP1 PUSH2 0xFD JUMPI PUSH1 0x7F DUP3 AND SWAP2 POP JUMPDEST PUSH1 0x20 DUP3 LT DUP2 SUB PUSH2 0x110 JUMPI PUSH2 0x10F PUSH2 0xB9 JUMP JUMPDEST JUMPDEST POP SWAP2 SWAP1 POP JUMP JUMPDEST PUSH0 DUP2 SWAP1 POP DUP2 PUSH0 MSTORE PUSH1 0x20 PUSH0 KECCAK256 SWAP1 POP SWAP2 SWAP1 POP JUMP JUMPDEST PUSH0 PUSH1 0x20 PUSH1 0x1F DUP4 ADD DIV SWAP1 POP SWAP2 SWAP1 POP JUMP JUMPDEST PUSH0 DUP3 DUP3 SHL SWAP1 POP SWAP3 SWAP2 POP POP JUMP JUMPDEST PUSH0 PUSH1 0x8 DUP4 MUL PUSH2 0x172 PUSH32 0xFFFFFFFFFFFFFFFFFFFFFFFFFFFFFFFFFFFFFFFFFFFFFFFFFFFFFFFFFFFFFFFF DUP3 PUSH2 0x137 JUMP JUMPDEST PUSH2 0x17C DUP7 DUP4 PUSH2 0x137 JUMP JUMPDEST SWAP6 POP DUP1 NOT DUP5 AND SWAP4 POP DUP1 DUP7 AND DUP5 OR SWAP3 POP POP POP SWAP4 SWAP3 POP POP POP JUMP JUMPDEST PUSH0 DUP2 SWAP1 POP SWAP2 SWAP1 POP JUMP JUMPDEST PUSH0 DUP2 SWAP1 POP SWAP2 SWAP1 POP JUMP JUMPDEST PUSH0 PUSH2 0x1C0 PUSH2 0x1BB PUSH2 0x1B6 DUP5 PUSH2 0x194 JUMP JUMPDEST PUSH2 0x19D JUMP JUMPDEST PUSH2 0x194 JUMP JUMPDEST SWAP1 POP SWAP2 SWAP1 POP JUMP JUMPDEST PUSH0 DUP2 SWAP1 POP SWAP2 SWAP1 POP JUMP JUMPDEST PUSH2 0x1D9 DUP4 PUSH2 0x1A6 JUMP JUMPDEST PUSH2 0x1ED PUSH2 0x1E5 DUP3 PUSH2 0x1C7 JUMP JUMPDEST DUP5 DUP5 SLOAD PUSH2 0x143 JUMP JUMPDEST DUP3 SSTORE POP POP POP POP JUMP JUMPDEST PUSH0 SWAP1 JUMP JUMPDEST PUSH2 0x201 PUSH2 0x1F5 JUMP JUMPDEST PUSH2 0x20C DUP2 DUP5 DUP5 PUSH2 0x1D0 JUMP JUMPDEST POP POP POP JUMP JUMPDEST JUMPDEST DUP2 DUP2 LT ISZERO PUSH2 0x22F JUMPI PUSH2 0x224 PUSH0 DUP3 PUSH2 0x1F9 JUMP JUMPDEST PUSH1 0x1 DUP2 ADD SWAP1 POP PUSH2 0x212 JUMP JUMPDEST POP POP JUMP JUMPDEST PUSH1 0x1F DUP3 GT ISZERO PUSH2 0x274 JUMPI PUSH2 0x245 DUP2 PUSH2 0x116 JUMP JUMPDEST PUSH2 0x24E DUP5 PUSH2 0x128 JUMP JUMPDEST DUP2 ADD PUSH1 0x20 DUP6 LT ISZERO PUSH2 0x25D JUMPI DUP2 SWAP1 POP JUMPDEST PUSH2 0x271 PUSH2 0x269 DUP6 PUSH2 0x128 JUMP JUMPDEST DUP4 ADD DUP3 PUSH2 0x211 JUMP JUMPDEST POP POP JUMPDEST POP POP POP JUMP JUMPDEST PUSH0 DUP3 DUP3 SHR SWAP1 POP SWAP3 SWAP2 POP POP JUMP JUMPDEST PUSH0 PUSH2 0x294 PUSH0 NOT DUP5 PUSH1 0x8 MUL PUSH2 0x279 JUMP JUMPDEST NOT DUP1 DUP4 AND SWAP2 POP POP SWAP3 SWAP2 POP POP JUMP JUMPDEST PUSH0 PUSH2 0x2AC DUP4 DUP4 PUSH2 0x285 JUMP JUMPDEST SWAP2 POP DUP3 PUSH1 0x2 MUL DUP3 OR SWAP1 POP SWAP3 SWAP2 POP POP JUMP JUMPDEST PUSH2 0x2C5 DUP3 PUSH2 0x82 JUMP JUMPDEST PUSH8 0xFFFFFFFFFFFFFFFF DUP2 GT ISZERO PUSH2 0x2DE JUMPI PUSH2 0x2DD PUSH2 0x8C JUMP JUMPDEST JUMPDEST PUSH2 0x2E8 DUP3 SLOAD PUSH2 0xE6 JUMP JUMPDEST PUSH2 0x2F3 DUP3 DUP3 DUP6 PUSH2 0x233 JUMP JUMPDEST PUSH0 PUSH1 0x20 SWAP1 POP PUSH1 0x1F DUP4 GT PUSH1 0x1 DUP2 EQ PUSH2 0x324 JUMPI PUSH0 DUP5 ISZERO PUSH2 0x312 JUMPI DUP3 DUP8 ADD MLOAD SWAP1 POP JUMPDEST PUSH2 0x31C DUP6 DUP3 PUSH2 0x2A1 JUMP JUMPDEST DUP7 SSTORE POP PUSH2 0x383 JUMP JUMPDEST PUSH1 0x1F NOT DUP5 AND PUSH2 0x332 DUP7 PUSH2 0x116 JUMP JUMPDEST PUSH0 JUMPDEST DUP3 DUP2 LT ISZERO PUSH2 0x359 JUMPI DUP5 DUP10 ADD MLOAD DUP3 SSTORE PUSH1 0x1 DUP3 ADD SWAP2 POP PUSH1 0x20 DUP6 ADD SWAP5 POP PUSH1 0x20 DUP2 ADD SWAP1 POP PUSH2 0x334 JUMP JUMPDEST DUP7 DUP4 LT ISZERO PUSH2 0x376 JUMPI DUP5 DUP10 ADD MLOAD PUSH2 0x372 PUSH1 0x1F DUP10 AND DUP3 PUSH2 0x285 JUMP JUMPDEST DUP4 SSTORE POP JUMPDEST PUSH1 0x1 PUSH1 0x2 DUP9 MUL ADD DUP9 SSTORE POP POP POP JUMPDEST POP POP POP POP POP POP JUMP JUMPDEST PUSH2 0xA6E DUP1 PUSH2 0x398 PUSH0 CODECOPY PUSH0 RETURN INVALID PUSH1 0x80 PUSH1 0x40 MSTORE CALLVALUE DUP1 ISZERO PUSH2 0xF JUMPI PUSH0 DUP1 REVERT JUMPDEST POP PUSH1 0x4 CALLDATASIZE LT PUSH2 0x86 JUMPI PUSH0 CALLDATALOAD PUSH1 0xE0 SHR DUP1 PUSH4 0x77EC2B55 GT PUSH2 0x59 JUMPI DUP1 PUSH4 0x77EC2B55 EQ PUSH2 0xFC JUMPI DUP1 PUSH4 0x8BAB8DD5 EQ PUSH2 0x11B JUMPI DUP1 PUSH4 0x9E7A13AD EQ PUSH2 0x14B JUMPI DUP1 PUSH4 0xAA62479E EQ PUSH2 0x17C JUMPI PUSH2 0x86 JUMP JUMPDEST DUP1 PUSH4 0x29A22B88 EQ PUSH2 0x8A JUMPI DUP1 PUSH4 0x471F7CDF EQ PUSH2 0xA6 JUMPI DUP1 PUSH4 0x6057361D EQ PUSH2 0xC4 JUMPI DUP1 PUSH4 0x6F760F41 EQ PUSH2 0xE0 JUMPI JUMPDEST PUSH0 DUP1 REVERT JUMPDEST PUSH2 0xA4 PUSH1 0x4 DUP1 CALLDATASIZE SUB DUP2 ADD SWAP1 PUSH2 0x9F SWAP2 SWAP1 PUSH2 0x401 JUMP JUMPDEST PUSH2 0x19A JUMP JUMPDEST STOP JUMPDEST PUSH2 0xAE PUSH2 0x1AA JUMP JUMPDEST PUSH1 0x40 MLOAD PUSH2 0xBB SWAP2 SWAP1 PUSH2 0x43B JUMP JUMPDEST PUSH1 0x40 MLOAD DUP1 SWAP2 SUB SWAP1 RETURN JUMPDEST PUSH2 0xDE PUSH1 0x4 DUP1 CALLDATASIZE SUB DUP2 ADD SWAP1 PUSH2 0xD9 SWAP2 SWAP1 PUSH2 0x401 JUMP JUMPDEST PUSH2 0x1AF JUMP JUMPDEST STOP JUMPDEST PUSH2 0xFA PUSH1 0x4 DUP1 CALLDATASIZE SUB DUP2 ADD SWAP1 PUSH2 0xF5 SWAP2 SWAP1 PUSH2 0x590 JUMP JUMPDEST PUSH2 0x1B8 JUMP JUMPDEST STOP JUMPDEST PUSH2 0x104 PUSH2 0x23C JUMP JUMPDEST PUSH1 0x40 MLOAD PUSH2 0x112 SWAP3 SWAP2 SWAP1 PUSH2 0x64A JUMP JUMPDEST PUSH1 0x40 MLOAD DUP1 SWAP2 SUB SWAP1 RETURN JUMPDEST PUSH2 0x135 PUSH1 0x4 DUP1 CALLDATASIZE SUB DUP2 ADD SWAP1 PUSH2 0x130 SWAP2 SWAP1 PUSH2 0x678 JUMP JUMPDEST PUSH2 0x2D3 JUMP JUMPDEST PUSH1 0x40 MLOAD PUSH2 0x142 SWAP2 SWAP1 PUSH2 0x43B JUMP JUMPDEST PUSH1 0x40 MLOAD DUP1 SWAP2 SUB SWAP1 RETURN JUMPDEST PUSH2 0x165 PUSH1 0x4 DUP1 CALLDATASIZE SUB DUP2 ADD SWAP1 PUSH2 0x160 SWAP2 SWAP1 PUSH2 0x401 JUMP JUMPDEST PUSH2 0x300 JUMP JUMPDEST PUSH1 0x40 MLOAD PUSH2 0x173 SWAP3 SWAP2 SWAP1 PUSH2 0x64A JUMP JUMPDEST PUSH1 0x40 MLOAD DUP1 SWAP2 SUB SWAP1 RETURN JUMPDEST PUSH2 0x184 PUSH2 0x3B5 JUMP JUMPDEST PUSH1 0x40 MLOAD PUSH2 0x191 SWAP2 SWAP1 PUSH2 0x43B JUMP JUMPDEST PUSH1 0x40 MLOAD DUP1 SWAP2 SUB SWAP1 RETURN JUMPDEST DUP1 DUP2 PUSH2 0x1A6 SWAP2 SWAP1 PUSH2 0x6EC JUMP JUMPDEST POP POP JUMP JUMPDEST PUSH0 SLOAD DUP2 JUMP JUMPDEST DUP1 PUSH0 DUP2 SWAP1 SSTORE POP POP JUMP JUMPDEST PUSH1 0x3 PUSH1 0x40 MLOAD DUP1 PUSH1 0x40 ADD PUSH1 0x40 MSTORE DUP1 DUP4 DUP2 MSTORE PUSH1 0x20 ADD DUP5 DUP2 MSTORE POP SWAP1 DUP1 PUSH1 0x1 DUP2 SLOAD ADD DUP1 DUP3 SSTORE DUP1 SWAP2 POP POP PUSH1 0x1 SWAP1 SUB SWAP1 PUSH0 MSTORE PUSH1 0x20 PUSH0 KECCAK256 SWAP1 PUSH1 0x2 MUL ADD PUSH0 SWAP1 SWAP2 SWAP1 SWAP2 SWAP1 SWAP2 POP PUSH0 DUP3 ADD MLOAD DUP2 PUSH0 ADD SSTORE PUSH1 0x20 DUP3 ADD MLOAD DUP2 PUSH1 0x1 ADD SWAP1 DUP2 PUSH2 0x212 SWAP2 SWAP1 PUSH2 0x919 JUMP JUMPDEST POP POP POP DUP1 PUSH1 0x4 DUP4 PUSH1 0x40 MLOAD PUSH2 0x226 SWAP2 SWAP1 PUSH2 0xA22 JUMP JUMPDEST SWAP1 DUP2 MSTORE PUSH1 0x20 ADD PUSH1 0x40 MLOAD DUP1 SWAP2 SUB SWAP1 KECCAK256 DUP2 SWAP1 SSTORE POP POP POP JUMP JUMPDEST PUSH1 0x1 DUP1 PUSH0 ADD SLOAD SWAP1 DUP1 PUSH1 0x1 ADD DUP1 SLOAD PUSH2 0x252 SWAP1 PUSH2 0x74C JUMP JUMPDEST DUP1 PUSH1 0x1F ADD PUSH1 0x20 DUP1 SWAP2 DIV MUL PUSH1 0x20 ADD PUSH1 0x40 MLOAD SWAP1 DUP2 ADD PUSH1 0x40 MSTORE DUP1 SWAP3 SWAP2 SWAP1 DUP2 DUP2 MSTORE PUSH1 0x20 ADD DUP3 DUP1 SLOAD PUSH2 0x27E SWAP1 PUSH2 0x74C JUMP JUMPDEST DUP1 ISZERO PUSH2 0x2C9 JUMPI DUP1 PUSH1 0x1F LT PUSH2 0x2A0 JUMPI PUSH2 0x100 DUP1 DUP4 SLOAD DIV MUL DUP4 MSTORE SWAP2 PUSH1 0x20 ADD SWAP2 PUSH2 0x2C9 JUMP JUMPDEST DUP3 ADD SWAP2 SWAP1 PUSH0 MSTORE PUSH1 0x20 PUSH0 KECCAK256 SWAP1 JUMPDEST DUP2 SLOAD DUP2 MSTORE SWAP1 PUSH1 0x1 ADD SWAP1 PUSH1 0x20 ADD DUP1 DUP4 GT PUSH2 0x2AC JUMPI DUP3 SWAP1 SUB PUSH1 0x1F AND DUP3 ADD SWAP2 JUMPDEST POP POP POP POP POP SWAP1 POP DUP3 JUMP JUMPDEST PUSH1 0x4 DUP2 DUP1 MLOAD PUSH1 0x20 DUP2 ADD DUP3 ADD DUP1 MLOAD DUP5 DUP3 MSTORE PUSH1 0x20 DUP4 ADD PUSH1 0x20 DUP6 ADD KECCAK256 DUP2 DUP4 MSTORE DUP1 SWAP6 POP POP POP POP POP POP PUSH0 SWAP2 POP SWAP1 POP SLOAD DUP2 JUMP JUMPDEST PUSH1 0x3 DUP2 DUP2 SLOAD DUP2 LT PUSH2 0x30F JUMPI PUSH0 DUP1 REVERT JUMPDEST SWAP1 PUSH0 MSTORE PUSH1 0x20 PUSH0 KECCAK256 SWAP1 PUSH1 0x2 MUL ADD PUSH0 SWAP2 POP SWAP1 POP DUP1 PUSH0 ADD SLOAD SWAP1 DUP1 PUSH1 0x1 ADD DUP1 SLOAD PUSH2 0x334 SWAP1 PUSH2 0x74C JUMP JUMPDEST DUP1 PUSH1 0x1F ADD PUSH1 0x20 DUP1 SWAP2 DIV MUL PUSH1 0x20 ADD PUSH1 0x40 MLOAD SWAP1 DUP2 ADD PUSH1 0x40 MSTORE DUP1 SWAP3 SWAP2 SWAP1 DUP2 DUP2 MSTORE PUSH1 0x20 ADD DUP3 DUP1 SLOAD PUSH2 0x360 SWAP1 PUSH2 0x74C JUMP JUMPDEST DUP1 ISZERO PUSH2 0x3AB JUMPI DUP1 PUSH1 0x1F LT PUSH2 0x382 JUMPI PUSH2 0x100 DUP1 DUP4 SLOAD DIV MUL DUP4 MSTORE SWAP2 PUSH1 0x20 ADD SWAP2 PUSH2 0x3AB JUMP JUMPDEST DUP3 ADD SWAP2 SWAP1 PUSH0 MSTORE PUSH1 0x20 PUSH0 KECCAK256 SWAP1 JUMPDEST DUP2 SLOAD DUP2 MSTORE SWAP1 PUSH1 0x1 ADD SWAP1 PUSH1 0x20 ADD DUP1 DUP4 GT PUSH2 0x38E JUMPI DUP3 SWAP1 SUB PUSH1 0x1F AND DUP3 ADD SWAP2 JUMPDEST POP POP POP POP POP SWAP1 POP DUP3 JUMP JUMPDEST PUSH0 DUP1 SLOAD SWAP1 POP SWAP1 JUMP JUMPDEST PUSH0 PUSH1 0x40 MLOAD SWAP1 POP SWAP1 JUMP JUMPDEST PUSH0 DUP1 REVERT JUMPDEST PUSH0 DUP1 REVERT JUMPDEST PUSH0 DUP2 SWAP1 POP SWAP2 SWAP1 POP JUMP JUMPDEST PUSH2 0x3E0 DUP2 PUSH2 0x3CE JUMP JUMPDEST DUP2 EQ PUSH2 0x3EA JUMPI PUSH0 DUP1 REVERT JUMPDEST POP JUMP JUMPDEST PUSH0 DUP2 CALLDATALOAD SWAP1 POP PUSH2 0x3FB DUP2 PUSH2 0x3D7 JUMP JUMPDEST SWAP3 SWAP2 POP POP JUMP JUMPDEST PUSH0 PUSH1 0x20 DUP3 DUP5 SUB SLT ISZERO PUSH2 0x416 JUMPI PUSH2 0x415 PUSH2 0x3C6 JUMP JUMPDEST JUMPDEST PUSH0 PUSH2 0x423 DUP5 DUP3 DUP6 ADD PUSH2 0x3ED JUMP JUMPDEST SWAP2 POP POP SWAP3 SWAP2 POP POP JUMP JUMPDEST PUSH2 0x435 DUP2 PUSH2 0x3CE JUMP JUMPDEST DUP3 MSTORE POP POP JUMP JUMPDEST PUSH0 PUSH1 0x20 DUP3 ADD SWAP1 POP PUSH2 0x44E PUSH0 DUP4 ADD DUP5 PUSH2 0x42C JUMP JUMPDEST SWAP3 SWAP2 POP POP JUMP JUMPDEST PUSH0 DUP1 REVERT JUMPDEST PUSH0 DUP1 REVERT JUMPDEST PUSH0 PUSH1 0x1F NOT PUSH1 0x1F DUP4 ADD AND SWAP1 POP SWAP2 SWAP1 POP JUMP JUMPDEST PUSH32 0x4E487B7100000000000000000000000000000000000000000000000000000000 PUSH0 MSTORE PUSH1 0x41 PUSH1 0x4 MSTORE PUSH1 0x24 PUSH0 REVERT JUMPDEST PUSH2 0x4A2 DUP3 PUSH2 0x45C JUMP JUMPDEST DUP2 ADD DUP2 DUP2 LT PUSH8 0xFFFFFFFFFFFFFFFF DUP3 GT OR ISZERO PUSH2 0x4C1 JUMPI PUSH2 0x4C0 PUSH2 0x46C JUMP JUMPDEST JUMPDEST DUP1 PUSH1 0x40 MSTORE POP POP POP JUMP JUMPDEST PUSH0 PUSH2 0x4D3 PUSH2 0x3BD JUMP JUMPDEST SWAP1 POP PUSH2 0x4DF DUP3 DUP3 PUSH2 0x499 JUMP JUMPDEST SWAP2 SWAP1 POP JUMP JUMPDEST PUSH0 PUSH8 0xFFFFFFFFFFFFFFFF DUP3 GT ISZERO PUSH2 0x4FE JUMPI PUSH2 0x4FD PUSH2 0x46C JUMP JUMPDEST JUMPDEST PUSH2 0x507 DUP3 PUSH2 0x45C JUMP JUMPDEST SWAP1 POP PUSH1 0x20 DUP2 ADD SWAP1 POP SWAP2 SWAP1 POP JUMP JUMPDEST DUP3 DUP2 DUP4 CALLDATACOPY PUSH0 DUP4 DUP4 ADD MSTORE POP POP POP JUMP JUMPDEST PUSH0 PUSH2 0x534 PUSH2 0x52F DUP5 PUSH2 0x4E4 JUMP JUMPDEST PUSH2 0x4CA JUMP JUMPDEST SWAP1 POP DUP3 DUP2 MSTORE PUSH1 0x20 DUP2 ADD DUP5 DUP5 DUP5 ADD GT ISZERO PUSH2 0x550 JUMPI PUSH2 0x54F PUSH2 0x458 JUMP JUMPDEST JUMPDEST PUSH2 0x55B DUP5 DUP3 DUP6 PUSH2 0x514 JUMP JUMPDEST POP SWAP4 SWAP3 POP POP POP JUMP JUMPDEST PUSH0 DUP3 PUSH1 0x1F DUP4 ADD SLT PUSH2 0x577 JUMPI PUSH2 0x576 PUSH2 0x454 JUMP JUMPDEST JUMPDEST DUP2 CALLDATALOAD PUSH2 0x587 DUP5 DUP3 PUSH1 0x20 DUP7 ADD PUSH2 0x522 JUMP JUMPDEST SWAP2 POP POP SWAP3 SWAP2 POP POP JUMP JUMPDEST PUSH0 DUP1 PUSH1 0x40 DUP4 DUP6 SUB SLT ISZERO PUSH2 0x5A6 JUMPI PUSH2 0x5A5 PUSH2 0x3C6 JUMP JUMPDEST JUMPDEST PUSH0 DUP4 ADD CALLDATALOAD PUSH8 0xFFFFFFFFFFFFFFFF DUP2 GT ISZERO PUSH2 0x5C3 JUMPI PUSH2 0x5C2 PUSH2 0x3CA JUMP JUMPDEST JUMPDEST PUSH2 0x5CF DUP6 DUP3 DUP7 ADD PUSH2 0x563 JUMP JUMPDEST SWAP3 POP POP PUSH1 0x20 PUSH2 0x5E0 DUP6 DUP3 DUP7 ADD PUSH2 0x3ED JUMP JUMPDEST SWAP2 POP POP SWAP3 POP SWAP3 SWAP1 POP JUMP JUMPDEST PUSH0 DUP2 MLOAD SWAP1 POP SWAP2 SWAP1 POP JUMP JUMPDEST PUSH0 DUP3 DUP3 MSTORE PUSH1 0x20 DUP3 ADD SWAP1 POP SWAP3 SWAP2 POP POP JUMP JUMPDEST DUP3 DUP2 DUP4 MCOPY PUSH0 DUP4 DUP4 ADD MSTORE POP POP POP JUMP JUMPDEST PUSH0 PUSH2 0x61C DUP3 PUSH2 0x5EA JUMP JUMPDEST PUSH2 0x626 DUP2 DUP6 PUSH2 0x5F4 JUMP JUMPDEST SWAP4 POP PUSH2 0x636 DUP2 DUP6 PUSH1 0x20 DUP7 ADD PUSH2 0x604 JUMP JUMPDEST PUSH2 0x63F DUP2 PUSH2 0x45C JUMP JUMPDEST DUP5 ADD SWAP2 POP POP SWAP3 SWAP2 POP POP JUMP JUMPDEST PUSH0 PUSH1 0x40 DUP3 ADD SWAP1 POP PUSH2 0x65D PUSH0 DUP4 ADD DUP6 PUSH2 0x42C JUMP JUMPDEST DUP2 DUP2 SUB PUSH1 0x20 DUP4 ADD MSTORE PUSH2 0x66F DUP2 DUP5 PUSH2 0x612 JUMP JUMPDEST SWAP1 POP SWAP4 SWAP3 POP POP POP JUMP JUMPDEST PUSH0 PUSH1 0x20 DUP3 DUP5 SUB SLT ISZERO PUSH2 0x68D JUMPI PUSH2 0x68C PUSH2 0x3C6 JUMP JUMPDEST JUMPDEST PUSH0 DUP3 ADD CALLDATALOAD PUSH8 0xFFFFFFFFFFFFFFFF DUP2 GT ISZERO PUSH2 0x6AA JUMPI PUSH2 0x6A9 PUSH2 0x3CA JUMP JUMPDEST JUMPDEST PUSH2 0x6B6 DUP5 DUP3 DUP6 ADD PUSH2 0x563 JUMP JUMPDEST SWAP2 POP POP SWAP3 SWAP2 POP POP JUMP JUMPDEST PUSH32 0x4E487B7100000000000000000000000000000000000000000000000000000000 PUSH0 MSTORE PUSH1 0x11 PUSH1 0x4 MSTORE PUSH1 0x24 PUSH0 REVERT JUMPDEST PUSH0 PUSH2 0x6F6 DUP3 PUSH2 0x3CE JUMP JUMPDEST SWAP2 POP PUSH2 0x701 DUP4 PUSH2 0x3CE JUMP JUMPDEST SWAP3 POP DUP3 DUP3 ADD SWAP1 POP DUP1 DUP3 GT ISZERO PUSH2 0x719 JUMPI PUSH2 0x718 PUSH2 0x6BF JUMP JUMPDEST JUMPDEST SWAP3 SWAP2 POP POP JUMP JUMPDEST PUSH32 0x4E487B7100000000000000000000000000000000000000000000000000000000 PUSH0 MSTORE PUSH1 0x22 PUSH1 0x4 MSTORE PUSH1 0x24 PUSH0 REVERT JUMPDEST PUSH0 PUSH1 0x2 DUP3 DIV SWAP1 POP PUSH1 0x1 DUP3 AND DUP1 PUSH2 0x763 JUMPI PUSH1 0x7F DUP3 AND SWAP2 POP JUMPDEST PUSH1 0x20 DUP3 LT DUP2 SUB PUSH2 0x776 JUMPI PUSH2 0x775 PUSH2 0x71F JUMP JUMPDEST JUMPDEST POP SWAP2 SWAP1 POP JUMP JUMPDEST PUSH0 DUP2 SWAP1 POP DUP2 PUSH0 MSTORE PUSH1 0x20 PUSH0 KECCAK256 SWAP1 POP SWAP2 SWAP1 POP JUMP JUMPDEST PUSH0 PUSH1 0x20 PUSH1 0x1F DUP4 ADD DIV SWAP1 POP SWAP2 SWAP1 POP JUMP JUMPDEST PUSH0 DUP3 DUP3 SHL SWAP1 POP SWAP3 SWAP2 POP POP JUMP JUMPDEST PUSH0 PUSH1 0x8 DUP4 MUL PUSH2 0x7D8 PUSH32 0xFFFFFFFFFFFFFFFFFFFFFFFFFFFFFFFFFFFFFFFFFFFFFFFFFFFFFFFFFFFFFFFF DUP3 PUSH2 0x79D JUMP JUMPDEST PUSH2 0x7E2 DUP7 DUP4 PUSH2 0x79D JUMP JUMPDEST SWAP6 POP DUP1 NOT DUP5 AND SWAP4 POP DUP1 DUP7 AND DUP5 OR SWAP3 POP POP POP SWAP4 SWAP3 POP POP POP JUMP JUMPDEST PUSH0 DUP2 SWAP1 POP SWAP2 SWAP1 POP JUMP JUMPDEST PUSH0 PUSH2 0x81D PUSH2 0x818 PUSH2 0x813 DUP5 PUSH2 0x3CE JUMP JUMPDEST PUSH2 0x7FA JUMP JUMPDEST PUSH2 0x3CE JUMP JUMPDEST SWAP1 POP SWAP2 SWAP1 POP JUMP JUMPDEST PUSH0 DUP2 SWAP1 POP SWAP2 SWAP1 POP JUMP JUMPDEST PUSH2 0x836 DUP4 PUSH2 0x803 JUMP JUMPDEST PUSH2 0x84A PUSH2 0x842 DUP3 PUSH2 0x824 JUMP JUMPDEST DUP5 DUP5 SLOAD PUSH2 0x7A9 JUMP JUMPDEST DUP3 SSTORE POP POP POP POP JUMP JUMPDEST PUSH0 SWAP1 JUMP JUMPDEST PUSH2 0x85E PUSH2 0x852 JUMP JUMPDEST PUSH2 0x869 DUP2 DUP5 DUP5 PUSH2 0x82D JUMP JUMPDEST POP POP POP JUMP JUMPDEST JUMPDEST DUP2 DUP2 LT ISZERO PUSH2 0x88C JUMPI PUSH2 0x881 PUSH0 DUP3 PUSH2 0x856 JUMP JUMPDEST PUSH1 0x1 DUP2 ADD SWAP1 POP PUSH2 0x86F JUMP JUMPDEST POP POP JUMP JUMPDEST PUSH1 0x1F DUP3 GT ISZERO PUSH2 0x8D1 JUMPI PUSH2 0x8A2 DUP2 PUSH2 0x77C JUMP JUMPDEST PUSH2 0x8AB DUP5 PUSH2 0x78E JUMP JUMPDEST DUP2 ADD PUSH1 0x20 DUP6 LT ISZERO PUSH2 0x8BA JUMPI DUP2 SWAP1 POP JUMPDEST PUSH2 0x8CE PUSH2 0x8C6 DUP6 PUSH2 0x78E JUMP JUMPDEST DUP4 ADD DUP3 PUSH2 0x86E JUMP JUMPDEST POP POP JUMPDEST POP POP POP JUMP JUMPDEST PUSH0 DUP3 DUP3 SHR SWAP1 POP SWAP3 SWAP2 POP POP JUMP JUMPDEST PUSH0 PUSH2 0x8F1 PUSH0 NOT DUP5 PUSH1 0x8 MUL PUSH2 0x8D6 JUMP JUMPDEST NOT DUP1 DUP4 AND SWAP2 POP POP SWAP3 SWAP2 POP POP JUMP JUMPDEST PUSH0 PUSH2 0x909 DUP4 DUP4 PUSH2 0x8E2 JUMP JUMPDEST SWAP2 POP DUP3 PUSH1 0x2 MUL DUP3 OR SWAP1 POP SWAP3 SWAP2 POP POP JUMP JUMPDEST PUSH2 0x922 DUP3 PUSH2 0x5EA JUMP JUMPDEST PUSH8 0xFFFFFFFFFFFFFFFF DUP2 GT ISZERO PUSH2 0x93B JUMPI PUSH2 0x93A PUSH2 0x46C JUMP JUMPDEST JUMPDEST PUSH2 0x945 DUP3 SLOAD PUSH2 0x74C JUMP JUMPDEST PUSH2 0x950 DUP3 DUP3 DUP6 PUSH2 0x890 JUMP JUMPDEST PUSH0 PUSH1 0x20 SWAP1 POP PUSH1 0x1F DUP4 GT PUSH1 0x1 DUP2 EQ PUSH2 0x981 JUMPI PUSH0 DUP5 ISZERO PUSH2 0x96F JUMPI DUP3 DUP8 ADD MLOAD SWAP1 POP JUMPDEST PUSH2 0x979 DUP6 DUP3 PUSH2 0x8FE JUMP JUMPDEST DUP7 SSTORE POP PUSH2 0x9E0 JUMP JUMPDEST PUSH1 0x1F NOT DUP5 AND PUSH2 0x98F DUP7 PUSH2 0x77C JUMP JUMPDEST PUSH0 JUMPDEST DUP3 DUP2 LT ISZERO PUSH2 0x9B6 JUMPI DUP5 DUP10 ADD MLOAD DUP3 SSTORE PUSH1 0x1 DUP3 ADD SWAP2 POP PUSH1 0x20 DUP6 ADD SWAP5 POP PUSH1 0x20 DUP2 ADD SWAP1 POP PUSH2 0x991 JUMP JUMPDEST DUP7 DUP4 LT ISZERO PUSH2 0x9D3 JUMPI DUP5 DUP10 ADD MLOAD PUSH2 0x9CF PUSH1 0x1F DUP10 AND DUP3 PUSH2 0x8E2 JUMP JUMPDEST DUP4 SSTORE POP JUMPDEST PUSH1 0x1 PUSH1 0x2 DUP9 MUL ADD DUP9 SSTORE POP POP POP JUMPDEST POP POP POP POP POP POP JUMP JUMPDEST PUSH0 DUP2 SWAP1 POP SWAP3 SWAP2 POP POP JUMP JUMPDEST PUSH0 PUSH2 0x9FC DUP3 PUSH2 0x5EA JUMP JUMPDEST PUSH2 0xA06 DUP2 DUP6 PUSH2 0x9E8 JUMP JUMPDEST SWAP4 POP PUSH2 0xA16 DUP2 DUP6 PUSH1 0x20 DUP7 ADD PUSH2 0x604 JUMP JUMPDEST DUP1 DUP5 ADD SWAP2 POP POP SWAP3 SWAP2 POP POP JUMP JUMPDEST PUSH0 PUSH2 0xA2D DUP3 DUP5 PUSH2 0x9F2 JUMP JUMPDEST SWAP2 POP DUP2 SWAP1 POP SWAP3 SWAP2 POP POP JUMP INVALID LOG2 PUSH5 0x6970667358 0x22 SLT KECCAK256 0xE9 TLOAD DUP5 0xD1 0x21 0xBB 0xDD 0x21 JUMP 0xD4 0x2B 0xB3 SWAP14 0x25 TLOAD MSTORE MSTORE 0xEF PUSH23 0x1F9902DD2D922AEEDB2884621E64736F6C634300081900 CALLER "
				},
				"gasEstimates": {
					"creation": {
						"codeDepositCost": "534000",
						"executionCost": "infinite",
						"totalCost": "infinite"
					},
					"external": {
						"addPerson(string,uint256)": "infinite",
						"favoriteNumber()": "2447",
						"nameToFavoriteNumber(string)": "infinite",
						"people(uint256)": "infinite",
						"person()": "infinite",
						"retrievePure(uint256)": "infinite",
						"retrieveView()": "2498",
						"store(uint256)": "22559"
					}
				},
				"methodIdentifiers": {
					"addPerson(string,uint256)": "6f760f41",
					"favoriteNumber()": "471f7cdf",
					"nameToFavoriteNumber(string)": "8bab8dd5",
					"people(uint256)": "9e7a13ad",
					"person()": "77ec2b55",
					"retrievePure(uint256)": "29a22b88",
					"retrieveView()": "aa62479e",
					"store(uint256)": "6057361d"
				}
			},
			"storageLayout": {
				"storage": [
					{
						"astId": 3,
						"contract": "contracts/SimpleStorage.sol:SimpleStorage",
						"label": "favoriteNumber",
						"offset": 0,
						"slot": "0",
						"type": "t_uint256"
					},
					{
						"astId": 15,
						"contract": "contracts/SimpleStorage.sol:SimpleStorage",
						"label": "person",
						"offset": 0,
						"slot": "1",
						"type": "t_struct(People)8_storage"
					},
					{
						"astId": 19,
						"contract": "contracts/SimpleStorage.sol:SimpleStorage",
						"label": "people",
						"offset": 0,
						"slot": "3",
						"type": "t_array(t_struct(People)8_storage)dyn_storage"
					},
					{
						"astId": 23,
						"contract": "contracts/SimpleStorage.sol:SimpleStorage",
						"label": "nameToFavoriteNumber",
						"offset": 0,
						"slot": "4",
						"type": "t_mapping(t_string_memory_ptr,t_uint256)"
					}
				],
				"types": {
					"t_array(t_struct(People)8_storage)dyn_storage": {
						"base": "t_struct(People)8_storage",
						"encoding": "dynamic_array",
						"label": "struct SimpleStorage.People[]",
						"numberOfBytes": "32"
					},
					"t_mapping(t_string_memory_ptr,t_uint256)": {
						"encoding": "mapping",
						"key": "t_string_memory_ptr",
						"label": "mapping(string => uint256)",
						"numberOfBytes": "32",
						"value": "t_uint256"
					},
					"t_string_memory_ptr": {
						"encoding": "bytes",
						"label": "string",
						"numberOfBytes": "32"
					},
					"t_string_storage": {
						"encoding": "bytes",
						"label": "string",
						"numberOfBytes": "32"
					},
					"t_struct(People)8_storage": {
						"encoding": "inplace",
						"label": "struct SimpleStorage.People",
						"members": [
							{
								"astId": 5,
								"contract": "contracts/SimpleStorage.sol:SimpleStorage",
								"label": "favoriteNumber",
								"offset": 0,
								"slot": "0",
								"type": "t_uint256"
							},
							{
								"astId": 7,
								"contract": "contracts/SimpleStorage.sol:SimpleStorage",
								"label": "name",
								"offset": 0,
								"slot": "1",
								"type": "t_string_storage"
							}
						],
						"numberOfBytes": "64"
					},
					"t_uint256": {
						"encoding": "inplace",
						"label": "uint256",
						"numberOfBytes": "32"
					}
				}
			},
			"userdoc": {
				"kind": "user",
				"methods": {},
				"version": 1
			}
		}
	}
}